:020000040000FA
:0600000002011A02239F19
:03002B00022B05A0
:0300530002241272
:03006B00022AD393
:1000830002220BE5C754F84401F5C77901220000A9
:100093000080FB120086B90003020104E47944786E
:1000A30008B800028004F709D8FCE4794C7802B858
:1000B30000028004F709D8FCE490028178F1790703
:1000C3008002F0A3D8FCD9FA784390014A7A01BAA6
:1000D30000028007E493A3F608DAF97A717B0990AA
:1000E300014B78C779048015E493A3AD82AE838A6C
:1000F300828B83F0A3AA82AB838D828E83D8E9D9C6
:10010300E77582657583B5740312012C7582917549
:100113008300740012012C75D00075814F754181E5
:10012300754202759F00020096C09FF59FE473D04D
:100133009F22D083D082C09FE493C0E0740193C018
:10014300E0740293F59F2201FF0000B40000280031
:100153002800283075A000A000A000A0000008001F
:1001630008E001F000100010001000100010001053
:100173000050005000500010001000D00700000095
:100183000000000F0001000500307507001000019A
:100193000081FF00000000FF0F072D071507FF0276
:1001A300020208025000A0000000E80302228101BD
:1001B3000000BC8102D981010000C80902DF81016E
:1001C3000000B30202D981010000C90902E18101E3
:1001D3000000C90202D981010000CA0902E38101BA
:1001E3000000CB0202D981010000CB0902E581089E
:1001F3000000CC0202D981010000CC0902E7810191
:100203000000CD09FF0100FF20022281010000CB85
:100213008102D981010000310A02E9810000000056
:100223000002DD810300001903F70CF70CF70CF74C
:100233000CF70CF70CF70CF70CF70CF70CF70CF7A3
:100243000CF70C8B0FA30F850FFFFF0A4163636548
:100253006C20456E61626C650000021400416363AB
:10026300656C2052616E6765000010101041636376
:10027300656C20582D436F6F7264696E61746500FD
:1002830000416363656C20592D436F6F7264696E1F
:100293006174650000416363656C205A2D436F6F81
:1002A3007264696E6174650000022281010000D4EA
:1002B3008102D981010000740A02EF810300005F0B
:1002C30007021B82010000750A02D9810100008325
:1002D3000A02F181010000840A021B8201000086E8
:1002E3000A02D981010000930A02F3810000006031
:1002F3000702DD810300006307021B8201000096F1
:100303000A02D981010000940A02098200000061F7
:100313000702DD810300006907021B82010000AAB6
:100323000A02D981010000950A02158200000062C9
:100333000702DD810300006F07021B82010000BE7C
:100343000A110199010F12640401022281010000C4
:10035300C28102D9810100006F0B021782010000E4
:10036300700B02DD810300007D0702EB81010000B9
:10037300710B020202020202020202010D000000DE
:100383001001022281010000D18102D98101000004
:100393009B0B020582010000840702D98101000042
:1003A3009C0B020382010000158102D98101000028
:1003B3009D0B020182010000078102D98101000027
:1003C3009E0B02FF81010000A58002D9810100007C
:1003D3009F0B02FD81010000B78002D9810100005B
:1003E300A00B02FB81010000938002D98101000070
:1003F300A10B02F981010000818002D98101000073
:10040300A20B02F781010000F98002D981010000EB
:10041300A30B02F581010000A40B01E803053F10C3
:100423000A0B094B6579666F6264656D6F0201059E
:100433000702031802180418544920424C45204B64
:100443006579666F6200000000000000009F1300E2
:1004530000A513AB13FF0001307503020106000072
:100463000000000000000000000000000000000089
:1004730000000000000000000000FFFF0600800CE9
:10048300E8030A0412022281010000BF8102D9811C
:10049300010000AB0C0211820300006109022281FA
:1004A300010000C58102D981010000AC0C02118258
:1004B3000200006209022281010000CE8102D9817B
:1004C300010000AD0C021382010000630902DD810B
:1004D3000300006409104B65792050726573732023
:1004E300537461746500022281010000C88102D93E
:1004F30081010000FE0C021F820000006A0902DD78
:10050300810300006B09021B82010000FF0C120132
:1005130035FDA10312013514A20312013545A203CF
:1005230012013580A203120135AAA203120135D4A8
:10053300A203120135EBA20312013502A303120138
:100543003519A30312013542A30312013555A30341
:100553001201356BA3031201357EA303120135A5E6
:10056300A303120135A4B302120135A8B402120188
:1005730035E0B40212013503B5021201350EB5029E
:1005830012013531B50212013540B602120135159B
:10059300B70212013590B70212013518B8021201E1
:1005A3003553B8021201358AB80212013518B9025F
:1005B300120135F1B90212013551BA021201355C4B
:1005C300BA02120135DBBA02120135DEBA02120198
:1005D30035E1BA0212013570BB0212013573BB0259
:1005E300120135A3BB02120135CDBB02120135BB8B
:1005F300BC021201356DBD02120135BFEB021201BF
:1006030035E7EB0212013515EC021201354CEC0211
:10061300120135AAEC02120135F5EC021201354044
:10062300ED0212013580ED02120135C6ED02120111
:1006330035F4ED02120135B1EE02120135BBEE02C3
:10064300120135C8EE02120135FBEE02120135C765
:10065300EF02120135D3EF02120135EBEF02120163
:1006630035F5EF0212013582B10312013590B10362
:10067300120135A8B103120135C0B1031201356B64
:10068300CB0112013517CC0112013592CC011201B5
:1006930035B3CD01120135EFCD0112013598CE01ED
:1006A3001201357FCF01120135E3D0011201353A32
:1006B300D101120135BBD101120135ABD2011201B7
:1006C30035F8D2011201357ED301120135B0D301C1
:1006D300120135C4D50112013506D60112013524A4
:1006E300D601120135A7D6011201357BD7011201BC
:1006F3003543D801120135F8D402120135CBD502A6
:1007030012013574D602120135C7D60212013577AC
:10071300D70212013503D802120135EFD8021201B4
:10072300351ED90212013531DA0212013579DA02A6
:100733001201354EDB021201358ADB02120135A6A6
:10074300DB0212013582B403120135AC8B031201B3
:1007530035C28B03120135E88B03120135048D0377
:100763001201350E8D03120135438E031201353B01
:100773008F0312013590E102120135C0E20212012A
:1007830035F3E2021201353DE30212013504E502BD
:100793001201357CBB01120135E6BB01120135455F
:1007A300BD0112013555BD0112013582BD01120192
:1007B30035D9BD0112013582BE0112013589BF0150
:1007C30012013553C001120135B3C101120135F6CF
:1007D300C1011201359BC201120135E8C2011201A8
:1007E300350EC3011201351CC50112013521C501A6
:1007F30012013526C70112013573C701120135E60F
:10080300C70112013519C801120135BBC801120114
:100813003564C9011201359CC9011201359FC90113
:10082300120135E7C90112013527CA011201357ECC
:10083300CA011201353A9803120135529803120185
:10084300359A9803120135B09803120135F79803CE
:100853001201350B9A03120135989A03120135E3FD
:100863009A03120135342B00120135402B0012017B
:10087300357B2B00120135C02B00120135802C0073
:10088300120135062D001201356B2D00120135972B
:100893002D00120135D02D001201350E300012014A
:1008A30035F23100120135D833001201351B350002
:1008B3001201356937001201357B3800120135C644
:1008C3003900120135D63A00120135F33A0012010C
:1008D300352E3B00120135503B00120135B33B006E
:1008E3001201357440001201350941001201355AD5
:1008F3004100120135814100120135D3410012013B
:1009030035F141001201354B4200120135344300E9
:10091300120135AA44001201352E4500120135B7E4
:10092300E602120135C1E60212013504E7021201A3
:10093300351FE702120135AFE702120135D7E7028F
:1009430012013514E8021201354BE8021201357425
:10095300E802120135E9E802120135FEE80212014C
:100963003513E90212013544E90212013558E9024F
:100973001201357DE902120135B7E902120135E3AF
:10098300E9021201351BEA02120135C9EA0212011A
:1009930035F9EA0212013542EB021201356CEB0222
:1009A30012013597EB021201359EAC03120135A3F8
:1009B3009B02120135D19B021201351F9D021201C8
:1009C30035FF9D021201351E9E021201359B9E02C8
:1009D300120135DE9E0212013534A002120135F5F3
:1009E300A0021201357CA3021201351DA4021201DB
:1009F3003513A50212013510A6021201356AA702AA
:100A0300120135F5A7021201351AAA031201358323
:100A1300AA03120135D7AA03120135FEAA03120154
:100A2300352FAB0312013508F50212013575F502B6
:100A3300120135BCF502120135D4F602120135D08C
:100A4300F702120135B3F802120135F7F60112016C
:100A53003539F7011201350BF801120135E4F801BC
:100A6300120135DEF901120135C0FA0112013529EF
:100A7300FB01120135DFFB0112013553FC011201A9
:100A830035BFFC01120135E8FC0112013562FD019D
:100A9300120135FBFD0112013560FE0112013575AE
:100AA300FE01120135BBFE01120135D4FE01120114
:100AB3003539FF011201353CFF0112013564920300
:100AC3001201358C9203120135CA92031201358843
:100AD3009303120135EF93031201350B94031201B3
:100AE3003533940312013563940312013572940371
:100AF300120135EF94031201351595031201356187
:100B0300AA011201353FAC0112013571AE01120188
:100B130035ADAE01120135DAAE01120135C4AF01B4
:100B23001201350FB0011201355AB0011201356CB3
:100B3300B001120135ACB001120135E1B00112016F
:100B4300352FB1011201355EB10112013581B101B9
:100B5300120135CEB10112013553B2011201356DC7
:100B6300B401120135ACB601120135EDB601120123
:100B7300358FB801120135D0B80112013543B901DF
:100B830012013594B9011201356FBA01120135D042
:100B93007200120135CE7300120135677A0012011B
:100BA30035887C00120135537E00120135BB7F006E
:100BB3001201359545001201354446001201357185
:100BC3004600120135B74600120135ED4700120108
:100BD300351B4800120135B149001201352B4A007B
:100BE300120135464A00120135C14A001201351B74
:100BF3004C001201357B4D00120135814E0012016C
:100C030035E24F00120135FB4F00120135595000F8
:100C13001201354751001201357A5100120135EAAC
:100C23005100120135645200120135AE5200120117
:100C3300357853001201354D54001201352C5500FF
:100C4300120135B7550012013525560012013599A9
:100C53005600120135C456001201358357001201A4
:100C630035E85800120135055900120135245900A1
:100C7300120135155A001201353A5A001201356432
:100C83005A00120135DF5A00120135395B00120197
:100C930035A25C00120135505D00120135915D00F3
:100CA3001201350080021201354E80021201355ABD
:100CB3008002120135388102120135698102120165
:100CC300359A81021201351A8202120135528202CB
:100CD300120135A48202120135E18202120135FEAE
:100CE30084021201352487021201350F8902120191
:100CF30035F98A02120135292B001201354E96016E
:100D03001201357E9601120135579D01120135DC22
:100D13009E01120135D9A401120135C1A5011201A9
:100D230035FEA50112013521A60112013552A60196
:100D33001201355BA60112013565A6011201355377
:100D4300A70112013549A801120135C15D00120145
:100D530035C06100120135C6610012013501690019
:100D63001201351A6E00120135DE87031201357444
:100D730088031201358A88031201350089031201A1
:100D830035748903120135B28903120135268A03AA
:100D93001201359F8A03120135A88A03120135B463
:100DA3008A03120135C98A03120135078B03120125
:100DB300351D8B031201357C8B0312013575F90246
:100DC30012013582F9021201359CF902120135DB59
:100DD300F90212013519FA021201357EFA021201E3
:100DE3003593FA021201359EFA02120135ABFA026B
:100DF300120135C2FA02120135D0FA02120135DBB3
:100E0300FA02120135E7FA02120135F6FA0212016B
:100E13003501FB0212013524FB02120135CBFB0223
:100E2300120135DBFB02120135F5FB02120135120B
:100E3300FC021201352EFC0212013553FC02120191
:100E4300355EFC0212013573FC0212013587FC0288
:100E5300120135E8FC02120135EEFC02120135F4F1
:100E6300FC02120135FAFC0212013512FD021201D5
:100E73003545FD02120135CDE80112013551E90175
:100E830012013500EA011201355FEB0112013580D1
:100E9300ED011201356CEE01120135A1EE011201D3
:100EA30035C3EE0112013572EF011201356AF1010A
:100EB30012013593F10112013525F2011201355763
:100EC300F20112013564F201120135BBF201120184
:100ED30035E1F2011201354EF50112013551F601EA
:100EE300120135A9F6011201355CDA0112013566EA
:100EF300DB011201354DDC0112013557DC01120112
:100F03003579DC0112013585DC011201351EDE0164
:100F13001201354DDE0112013569DF01120135C2BF
:100F2300DF0112013528E10112013507E201120147
:100F33003563E201120135D0E2011201350BE30101
:100F43001201354AE30112013503E6011201351D91
:100F5300E601120135A9E601120135B7E6011201D6
:100F63003510E7011201351EE70112013591E70142
:100F7300120135F5E7011201353FE801120135761B
:100F8300A80212013598A802120135BEAA02120165
:100F930035D3AD02120135EBAE021201359EAF021D
:100FA30012013580B00212013566A5031201358B9B
:100FB300A503120135FDA5031201357ECD021201F1
:100FC3003587CD0212013590CD0212013567CE026D
:100FD30012013518D0021201354ED00212013588A4
:100FE300D002120135BED002120135F8D00212012F
:100FF300352CD10212013558D102120135A1D1028B
:10100300120135DBD10212013524D2021201357CE3
:10101300D202120135B1D2021201350CD3021201F0
:101023003546D30212013597D302120135CDD302CF
:1010330012013507D40212013535D4021201355895
:10104300D402120135D7B30312013503B4031201DD
:10105300355EB40312013568B40312013578B40365
:101063001201351BDC0212013525DC021201356346
:10107300DC02120135ACDC02120135E6DC0212019E
:10108300353CDD021201355DDD0212013566DD02FC
:10109300120135B1DD02120135DADD02120135E448
:1010A300DD0212013550DE02120135E6DE021201C5
:1010B3003530DF0212013560DF02120135E9DF024C
:1010C30012013529E00212013561E0021201357384
:1010D300E00212013592E0021201359BE002120197
:1010E3003566E102120135BBAE0312013506B503C5
:1010F3001201350EA00312013544A0031201357A03
:10110300A003120135C3A10312013560FF011201CF
:101113003576FF0112013580FF01120135CAFF0147
:101123001201357CF00212013591F00212013541B2
:10113300F10212013581F1021201359AF102120115
:1011430035CEF1021201351BF2021201354FF202C4
:1011530012013591F20212013595F402120135FBA9
:10116300F402120135B2AF03120135DBAF031201F2
:101173003504B0031201351CB0031201355EB00310
:101183001201350484031201355F84031201357C97
:1011930084031201358B8503120135D685031201B1
:1011A30035A186031201359187031201355D95033D
:1011B300120135949503120135B395031201355E7F
:1011C3009603120135F09603120135749703120149
:1011D30035A8A80312013527A90312013537A9033E
:1011E3001201354FA9031201356FA903120135F31B
:1011F300A90312013501AA031201351AB30312011F
:10120300353BB303120135CCB3031201350D9B03F8
:10121300120135329B031201355C9B031201350623
:10122300B6031201352482011201358884011201AB
:10123300353986011201353B8701120135C4870117
:101243001201354888011201356D8801120135A656
:101253008B011201351A8C011201350B8D0112011C
:1012630035458D01120135858D01120135388F0108
:101273001201358B8F01120135D48F0112013542D2
:1012830090011201357490011201358C9001120105
:1012930035A19101120135B19101120135CC9201B1
:1012A300120135EE9201120135249301120135C862
:1012B3009401120135079501120135299601120196
:1012C3003559B2031201356AB2031201350FB30364
:1012D300120135BDB503120135FCB503120135E525
:1012E3007F00120135A3B003120135B3B00312011D
:1012F30035C8B0031201357CB103120135B7AD0314
:101303001201353CAE03120135A2AE03120135754D
:10131300AB031201359CAB03120135F2AB0312018F
:101323003504AC0312013554AC0312013592AC03FE
:1013330012013595AC0312013500800312013514F7
:1013430080031201358D800312013562810312017E
:1013530035348303120135998303120135F0830376
:10136300120135F87F00120135D99D03120135644E
:101373009F03120135C59F031201350BA003120110
:1013830035D4C502120135ACC7021201355CC9025E
:101393001201351ECA02120135BFCA02120135DE1F
:1013A300CA0212013518CC0212013557CC021201C0
:1013B300359FCC021201350BA7031201355BA7033E
:1013C300120135E4A7031201354AA803120135C2FD
:1013D300FD02120135ECFD02120135B2FE021201CB
:1013E300358DFF02120135DEBD021201359BBE02AF
:1013F300120135D6BE02120135FEBE02120135605E
:10140300BF02120135ACBF021201350CC00212013A
:10141300359FC0021201359EC1021201352DC30250
:10142300120135B0C30212013517C4021201352E61
:10143300C40212013538C50212013576C502120104
:1014430035D48D02120135349102120135BC92025A
:10145300120135139302120135329302120135B092
:1014630093021201354095021201352496021201AE
:1014730035309A02120135009B02120135458F0364
:10148300120135C38F03120135E08F031201356951
:1014930090031201359490031201351D910312013B
:1014A300352B9203120135B7A303120135FCA303B5
:1014B30012013550A403120135CEA4031201352DB8
:1014C300A5031201354DB60312013579B603E06663
:1014D300701008A3E066700A08A3E066700408A30E
:1014E300E06622C3E7960809E7960809E796080924
:1014F300E79622C3E09608A3E09608A3E09608A324
:10150300E09622C021C3E096F52108A3E09642218C
:1015130008A3E096422108A3E09645217001D3D0A9
:101523002122080808EAC0E0EBC0E086F0E7A4FA4D
:10153300180986F0E7A42AFA180986F0E7A42AFA1C
:10154300180986F0E7A42AFA1986F0E7A4FBE5F068
:101553002AFA190886F0E7A42BFBE5F03AFA1908F2
:1015630086F0E7A42BFBE5F03AFA18180986F0E7B2
:10157300A4C5F02BFBE43AFA1908E7C5F0C6A42684
:10158300F6E5F03BFBE43AFA1886F0E7A4F6E5F05B
:101593000826F6E43B08F6E43A08F6D0E0FBD0E090
:1015A300FA22E4CFC0E0E4CEC0E0E4CDC0E0E4CC76
:1015B300C0E075F020E626F608E633F608E633F6D3
:1015C30008E633F6181818EC33FCED33FDEE33FE62
:1015D300EF33FFC3EC9709ED9709EE9709EF9719DE
:1015E3001919400FFFEC97FC09ED97FD09EE97FEE3
:1015F300191906D5F0BFECF709EDF709EEF709EF76
:10160300F7191919D0E0FCD0E0FDD0E0FED0E0FFDF
:101613002212167C1818181215A512166B1919190F
:101623002212166B191919080808E618181820E76A
:10163300E01215A512167C18181822090909E719D2
:10164300191920E7DC080808E618181820E7030230
:1016530015A512167C1818181215A512167C181841
:101663001812166B19191922E4C397F709E497F7AF
:1016730009E497F709E497F722E4C396F608E4969A
:10168300F608E496F608E496F6226017080808C6FA
:10169300A2E713C618C613C618C613C618C613C6C0
:1016A300D5E0E9226016080808C6C313C618C61396
:1016B300C618C613C618C613C6D5E0EA22700908B1
:1016C3000808226016181818C6C333C608C633C6DE
:1016D30008C633C608C633C6D5E0EA22E627F608AD
:1016E30009E637F60809E637F60809E637F622E091
:1016F30026F608A3E036F608A3E036F608A3E0369C
:10170300F622E026F008A3E036F008A3E036F0085E
:10171300A3E036F022C3E697F60809E697F6080930
:10172300E697F60809E697F622C3E096F008A3E0E9
:1017330096F008A3E096F008A3E096F022E657F6A9
:101743000809E657F60809E657F60809E657F622A8
:10175300E056F608A3E056F608A3E056F608A3E021
:1017630056F622E056F008A3E056F008A3E056F040
:1017730008A3E056F022E0F608A3E0F608A3E0F69B
:1017830008A3E0F622E6F008A3E6F008A3E6F008D3
:10179300A3E6F022E0FAA3E0FBA3E0FCA3E0FD2232
:1017A300EAF0A3EBF0A3ECF0A3EDF022E0F8A3E062
:1017B300F9A3E0FAA3E0FB22E8F0A3E9F0A3EAF03F
:1017C300A3EBF022CAC0E0E6F0A308DAFAD0E0FA0D
:1017D30022CAC0E0E0A3C582CCC582C583CDC58340
:1017E300F0A3C582CCC582C583CDC583DAE6D0E03C
:1017F300CA22C3E498F8E499F91218368026C3E4A0
:101803009AFAE49BFBE920E7E9121836E498F8E436
:1018130099F922C3E498F8E499F9121836E498F890
:10182300E499F9C3E49AFAE49BFB22EB20E7CFE9BE
:1018330020E7E0B90010BB0008E88AF084F8AAF0BA
:1018430022E4FBC8FA22EB70227B10C833C8C933E9
:10185300C9335007C39AC3DBF280069A50012ADBCF
:10186300EAC833F4C8C933F4C9FA2275F008E4C8E6
:1018730033C8C933C933C99AC99B5004C92AC93B60
:10188300D5F0ECFBC833F4C8E4C9FA22600D08C6EE
:10189300A2E713C618C613C6D5E0F322600C08C628
:1018A300C313C618C613C6D5E0F422700422600D14
:1018B30018C6C333C608C633C6D5E0F4182225417B
:1018C30010AF08F541400C15428008F54140021560
:1018D30042D2AF2200C0D0254110AF08F541500CD1
:1018E30005428008F54150020542D2AFD0D02225EF
:1018F30041F58210AF08F541400C15428008F541CF
:1019030040021542D2AF854283222541F582E43558
:1019130042F583222541F8E43542F9222541FAE4D0
:101923003542FB222541FCE43542FD22E473254187
:10193300C582C0E0E54234FFC583C0E0E541C395FD
:101943008224F810AF08858342858241800885830D
:1019530042858241D2AFCEF0A3E520F0A37821E601
:1019630008F0A3DEFAEFF0A3E58124FAF8E608F025
:10197300A3E608F0A3E608F0A30808E608F0A3E648
:1019830008F0A315811581D0E0FED0E0F81581158C
:10199300811581E8C0E0EEC0E0222541C582C0E0A8
:1019A300E54234FFC583C0E0E541C3958224F910C5
:1019B300AF088583428582418008858342858241C1
:1019C300D2AFCEF0A3E520F0A37821E608F0A3DEA2
:1019D300FAEFF0A3E58124FBF8E608F0A3E608F0AC
:1019E300A30808E608F0A3E608F0A315811581D043
:1019F300E0FED0E0F815811581E8C0E0EEC0E022FA
:101A0300854283854182E0A3FEE0A3F5207821E0AF
:101A1300A3F608DFFAE0A3FFE0A3C0E0E0A3C0E081
:101A2300E0A3C0E0E0A3C0E0E0A3C0E010AF0885FE
:101A330082418583428008858241858342D2AFD02B
:101A430083D082020132854283854182E0A3FEE096
:101A5300A3F5207821E0A3F608DFFAE0A3FFE0A3D3
:101A6300C0E0E0A3C0E0E0A3C0E0E0A3C0E010AFAB
:101A7300088582418583428008858241858342D2DD
:101A8300AFD083D08222C0D02541C582C0E0E542D9
:101A930034FFC583C0E0E541C3958224F310AF084A
:101AA3008583428582418008858342858241D2AF06
:101AB300C8F0A3E9F0A3EAF0A3EBF0A37921E709C7
:101AC300F0A3D8FAECF0A3EDF0A3EEF0A3EFF0A3AC
:101AD300D0E0F0A3D0E0F0A3D0E0F0A3E520F0A3A2
:101AE300E5F0F0A322854283854182E0C0E0A3E0D4
:101AF300F9A3E0FAA3E0FBA37821E0F608A3DFFA59
:101B0300E0FCA3E0FDA3E0FEA3E0FFA3E0C0E0A3AD
:101B1300E0C0E0A3E0F5D0A3E0F520A3E0A3F5F057
:101B230010AF088583428582418008858342858280
:101B330041D2AFD082D083D0E0F8D0E032740480B9
:101B430006740280027401C0E0F4041218F2D0E0BB
:101B53001217C7227404800474028000CCC0E0ED25
:101B6300C0E0E541C39CCCAD4250011D10AF068CD3
:101B7300418D4280068C418D42D2AF1217D4D0E002
:101B8300FDD0E0FC22D083D082E9C0E0E493A3C37C
:101B930086F0C5F095F0F908E493A386F0C5F095B7
:101BA300F0700BE493A3C3994005E9048002A3E416
:101BB30075F002A42582F582E5F03583F583D0E044
:101BC300F9E493A3C0E0E493C0E022D083D082EC95
:101BD300C0E0EDC0E0E493A3FCE493A3FDED4C600F
:101BE3000D121C1AEC24FFFCED34FFFD80EFE4938F
:101BF300A3FCE493A3FDED4C600D121C59EC24FFF0
:101C0300FCED34FFFD80EFD0E0FDD0E0FCE493A3D6
:101C1300C0E0E493C0E022C0E0C3E49396087401FB
:101C2300939618400FE4936670080874019366183E
:101C330070007019A3A3C3E49396087401939618D4
:101C4300A3A3400DD0E0D0E0D0E0021C0AA3A3A3DD
:101C5300A3A3A3D0E022C0E0C0F088F0E4936670B1
:101C6300080874019366187000A8F0A3A3700BD042
:101C7300F0D0E0D0E0D0E0021C0AA3A3D0F0D0E083
:101C83002274F512199DEAFEEBFFEE2434F8EF34CB
:101C930000F988218922EE2435F582EF3400F5839B
:101CA300E0F8EE2437F582EF3400F583E0F523EC1A
:101CB3008523F0A4FCAAF08523F0EDA42AFDE82CEB
:101CC300F8E43DF97A257B00121836EA85218285EE
:101CD3002283F0F8740758F97401B900028004C331
:101CE30033D9FCFAE8131313541FF8EE28F8EF3432
:101CF30000F9E8245DF582E93400F583E05A6008D1
:101D0300EE2434F582EF802CEE2434F582EF340098
:101D1300F583E0C0E0EE2436F582EF3400F583E08E
:101D2300F5F0D0E084A8F0EE28F8EF3400F9E824C9
:101D330038F582E93400F583E0F97F04021A497427
:101D4300F512199DEAFEEBFFEE2434F582EF340021
:101D5300F583E0C0E0EE2435F582EF3400F583D05F
:101D6300E0F08E828F83A3A3A3A3A3A3A3C082C007
:101D7300838E828F83A3A3A3A3A3E0F8A3E0F9D068
:101D830083D082E0C398F521A3E099F522EE247F66
:101D9300F582EF3400F583E064017069EE2480F589
:101DA30082EF3400F583E0F8A3E0F98E828F83A3FA
:101DB300A3A3A3A3A3A3E0FCA3E0FD8E828F83A32D
:101DC300A3A3A3A3E0FAA3E0FBC3EA9CEB9D5010FB
:101DD300C3EC98ED99402EC3EA98EB995027800EF7
:101DE300C3EA98EB994007C3EC98ED9940177CDC64
:101DF3007D04EEFAEFFB120C55EE247FF582EF34EF
:101E030000F583E4F0EE2434F8EF3400F9E8FCE95C
:101E1300FDEE2435F582EF3400F583E0F8EE243748
:101E2300F582EF3400F583E0F523E5218523F0A463
:101E3300F521AAF08523F0E522A42AF522E825213D
:101E4300F8E43522F97A257B00121836EA8C828D64
:101E530083F0F8740758F97401B900028004C3339E
:101E6300D9FCFAE8131313541FF8EE28F8EF3400E3
:101E7300F9E8245DF582E93400F583E05A6008EE61
:101E83002434F582EF802CEE2434F582EF3400F510
:101E930083E0C0E0EE2436F582EF3400F583E0F50D
:101EA300F0D0E084A8F0EE28F8EF3400F9E8243805
:101EB300F582E93400F583E0F9122ABF021D3DC023
:101EC30082C083854182854283E0F8A3E0F9C3EAB7
:101ED3009CEB9D5010C3EC98ED99401BC3EA98EB23
:101EE300995014800EC3EA98EB994007C3EC98ED20
:101EF300994004790180027900D083D08222EAC319
:101F03009CFAEB9DFB2274EF12199D9003A2E064EF
:101F1300086005E06407702A9061C8E060249003BC
:101F2300D0E0F4601DE0F875F003A4C8AAF02AF924
:101F330074D228FE740339FF8E828F83A3A3A3E098
:101F43007003022039906060E0C0E0EE2468F582FF
:101F5300EF3400F583D0E0F075254575260575212E
:101F630000752200E5D914F523E5D95403F527605C
:101F73001774036527605CE5236010EE2467F58220
:101F8300EF3400F583E0700302201E900540E06407
:101F930001602AEE2482F582EF3400F583E06004C9
:101FA300780480027800852321E521C398FA95E01F
:101FB300FB120B118A218B22EA45227005120E595E
:101FC3008074EE2482F582EF3400F583E070048A96
:101FD300258B26E5236012852582852683F524E556
:101FE300D9F0A31524E52470F6EE2482F582EF34AC
:101FF30000F583E0604474FC2523F5237825121B48
:1020030044AC23A927EEFAEFFB120CF17402121869
:10201300D7E97026AA21AB221213BD793D8E828F98
:1020230083A3A3A3A3E0FA7B001209E5EEFAEFFB77
:10203300120C6D120D0379008074740365276056CA
:10204300852329752A007829121B44AC25AD26AABD
:1020530021AB22120CCD74021218D7EE2468F5823C
:10206300EF3400F583E064807004747F8001E0F551
:10207300257825121B48E527F5257825121B48A945
:1020830023AC21AD229003D0E0FA7B001209A9749E
:10209300021218D780139003A2E06408600BAC25EA
:1020A300AD26EEFAEFFB120D5D120E6579017F0A84
:1020B300021A4974F512199D74FC1218C1EAFEEB59
:1020C300FF8921A2AFE433F522C2AF806AEE246315
:1020D300F8EF3400F97A007B00A2AFE433F523C2B2
:1020E300AF88828983E0FCA3E0FDEC4D603A8882EF
:1020F3008983E0FAA3E0FB8A828B83E0FCA3E0FD03
:1021030088828983ECF0A3EDF08A828B83E4F0A3C9
:10211300F088828983E0FCA3E0FDEC4D700A88829D
:102123008983A3A3E4F0A3F0E523A2E092AF121303
:10213300BD9004E3E004F0EE2463F582EF3400F590
:1021430083E0F8A3E0F9E849603DEE2463F582EF0C
:102153003400F583E02402FAA3E03400FBEA24020E
:10216300F523EB3400F5247823121B448A828B83F6
:10217300E0FCA3E0F9EEFAEFFB120C9174021218E3
:10218300D7E970030220D09004E3E060639004E495
:10219300E0F89004E3E0C398500C7402652170509A
:1021A3009004E5E0604A8E828F83A3A3A3A3E08516
:1021B3004182854283F0A3E4F09004E3E0F87402E3
:1021C30012190DE8F0A3E4F09004E3E0F89004E2C0
:1021D300E028F0740212190DAC82AD83854182852B
:1021E3004283AA82AB8379011209B59004E3E4F038
:1021F300E522A2E092AF74041218D7021D3D00003D
:10220300008544878545C622C0E0C0D0E8C0E0E928
:10221300C0E0EAC0E0EBC0E0ECC0E0EDC0E0EEC03F
:10222300E0C021C022C023C024C082C083C0F0A26A
:10223300AFE433FEC2AF759B00906182E0A2E05031
:1022430012E591A2E0500C7591FE74016544700390
:10225300121F09E0A2E55051E591A2E5504B75919B
:10226300DF9003A2E064076005E064087023740153
:102273006544703579019003D0E0FA75F003A4CA80
:10228300A8F028FB74D22AFA74033BFB1220B68011
:1022930018E0640D70139003C4E004F06428700226
:1022A300E4F07A00E0F9120E6B906182E0A2E6405E
:1022B30003022352E591A2E640030223527591BF24
:1022C3009003A2E064057008120D93120D9F800322
:1022D300120D99754400120DF9E99003A3F07900EA
:1022E300120DED120BC57A017B009003A1E0F912E8
:1022F30010BD907803E064427055900544E014F0FB
:10230300704DC2AF12230A00784DD0E0F618D0E02A
:10231300F6E59F540770057522FF800375227FC47D
:10232300C0E0784CE6F52108E65522F522740B78D7
:102333002112189FD0E02521F8906270E0A2E740B7
:10234300F8E8C333906272F0906270E0D2E0F090EC
:102353006181E0A2E35009E5E9A2E3500375E9F7DF
:10236300A3E0A2E75009E591A2E7500375917FEE40
:10237300A2E092AFD0F0D083D082D024D023D02259
:10238300D021D0E0FED0E0FDD0E0FCD0E0FBD0E0F7
:10239300FAD0E0F9D0E0F8D0D0D0E032C0E0C0D03D
:1023A300C082C083906183E0A2E05009E5BFA2E050
:1023B300500375BFFEE0A2E15009E5BFA2E150035F
:1023C30075BFFDE0A2E25009E5BFA2E2500375BF6D
:1023D300FBE0A2E35009E5BFA2E3500375BFF7E0BA
:1023E300A2E45009E5BFA2E4500375BFEFE0A2E504
:1023F3005009E5BFA2E5500375BFDFE0A2E650092F
:10240300E5BFA2E6500375BFBFD083D0828088C0EA
:10241300E0C0D0E8C0E0E9C0E0EAC0E0EBC0E0EC37
:10242300C0E0EDC0E0C0F0E5A7A2E6500FE5A1A231
:10243300E6500953A7BF75A1BF122477E5A7A2E50C
:10244300500CE5A1A2E5500653A7DF75A1DFE5A770
:10245300A2E15009E5A1A2E1500375A1FDE5A7A200
:10246300E2500CE5A1A2E2500653A7FB75A1FBD0F5
:10247300F002238874F812199D7544019003A2E0B9
:1024830064067015120D218A828B83A3A3A3A3A3D1
:10249300A3E0FAA3E0FB120D81A2AFE433FED2AFB7
:1024A3009003A8E0640170187A207B009003A1E0F8
:1024B300F91211477A207B009003A1E0F91210C3AF
:1024C300906182E0D2E6F0900541E0602185C64547
:1024D30080169003A7E064017008E5C654F844052C
:1024E300F5C653BEFC1222047401654460E4EEA2F7
:1024F300E092AF7F01021A49008E468F4785824BD7
:1025030085834A854182854283E0CEA3E0CF854B14
:1025130082854A83EBC9EAC8EDCBECCA75F010C3D8
:10252300E833C8E933C9EA33CAEB33CBC3EA9EF5D0
:1025330049EB9FF548B35004AB48AA49EC33CCEDC3
:1025430033CDD5F0DAAE46AF472274E912199D7444
:10255300F81218C1854182854283ECF0A3EDF08A1D
:10256300218B229003A2E024F7C394055006752122
:10257300010226E4120D218A238B24AE23AF24EE1D
:102583004F70030226E1AC21AD22740212190DAA89
:1025930082AB83120DB18E828F83A3A37525FF7542
:1025A30026FF7527FF75280078251217537402122A
:1025B300190D7529FF752AFF752BFF752C007829D6
:1025C300121753782579291214E6502A7825792988
:1025D3001217187521017522C87523007524007818
:1025E3002179251214E65052852521852622852737
:1025F300238528248050752D01752EC8752F0075ED
:102603003000852921852A22852B23852C247821B6
:102613007925121718782D79211214E6401C75219B
:10262300007522007523007524017821792912177A
:1026330018782179251216DF800C75210175220087
:10264300752300752400740978211216C0752519A5
:10265300F526F527F528782179251215A58E828F81
:1026630083A3A3A3A3A3A3E0F8A3E0F97AD07B03F6
:1026730012183688258926E4F527F5287821792547
:102683001216DF740612190DE0F8A3E0F97AD07B75
:1026930003121836E8FA8A25E4F5267821792512FB
:1026A30014E65007782179251217189003A2E064E5
:1026B30008600AE064066005E06405702D75250D69
:1026C300782579211214E640217525F47526FF75C6
:1026D30027FF7528FF782179251216DF800C7521D5
:1026E300007522007523007524008541828542838D
:1026F300E0F8A3E0F5838882782112178874081222
:1027030018D77F10021A4974F712199D120DC3903E
:10271300053FE064017010906245E4F0A3F053F4C8
:10272300F343FE0C5390F3120D6FE5C654804449F6
:10273300F5C6E59E547F644970F8906185740FF087
:1027430090053DE0F47002A3E0604E90053EE0602A
:102753000814601B14602E804075210175220090BF
:10276300053DE078211218AEE521F45280802A75E8
:10277300210175220090053DE078211218AEE52174
:10278300F45290801475210175220090053DE07884
:10279300211218AEE521F452A079007F02021A49F2
:1027A30074F712199DE9FEEAFF74016E700C7A80CA
:1027B3007B009003A1E0F91210BD902B2CE493F45D
:1027C3006008E493F9120BB9800953C680E59E545F
:1027D3007F70FA120D7590053FE064017003120BD0
:1027E300D790053DE0F47002A3E0604B90053EE016
:1027F300600814601A14602C803D75210175220055
:1028030090053DE078211218AEE5214280802875BD
:10281300210175220090053DE078211218AEE521D3
:102823004290801375210175220090053DE07821C7
:102833001218AEE52142A0120DC3120D218A218B7D
:1028430022A821A922E8496015E5E170FCE82414D7
:10285300F582E93400F583E0F46003E0F5E1740107
:102863006F700A7A019003A1E0F912111702279EF3
:1028730074ED12199D8A218B228C238D24741312DB
:10288300190D7825121779782179251214E67529FF
:1028930001752AC8752B00752C00501278217925F3
:1028A300121718782979211214E65016801078250A
:1028B3007921121718782979251214E64004790131
:1028C300800279007F0C021A4974ED12199D8A2146
:1028D3008B228C238D24741312190D7825121779EA
:1028E300782579211214E6401178217925121718D9
:1028F300AA21AB22AC23AD248022752900752A00BE
:10290300752B00752C0178297925121718782979E8
:10291300211216DFAA29AB2AAC2BAD2C80A68A8202
:102923008B837521FF7522FF7523FF7524007821A2
:102933001217667F04021A4974F512199D8C828D51
:102943008378211217798A828B83782112172CEAD4
:102953002404F8EB3400F98C828D83A3A3A3A3E0B2
:10296300FCA3E0FD88828983C3E09CF0A3E09DF093
:1029730088828983C3E09420A3E0944E40268A8210
:102983008B837521FF7522FF7523FF7524FF782143
:102993001217058A828B83A3A3A3A3E02420F0A3A9
:1029A300E0344EF002292174F512199DE9FE9004DA
:1029B300F7E0FAA3E0FBEEC333F8E433F974C92874
:1029C300F582748039F583E02AF521A3E03BF522F3
:1029D3007821121B447A407B427C0F7D001224FC39
:1029E30074021218D78A218B228C238D24741078B9
:1029F300211216A7AA21AB227F04021A4974F112ED
:102A0300199D8A258B268C278D28740F12190DE0AA
:102A1300FAA3E0FB741112190DE0F521A3E0F522EE
:102A23007821121B44EA2401F521EB3400F522E45A
:102A3300F523F52478257921121525752171752241
:102A43000278257921121525AA25AB26AC27AD28B6
:102A53001224FC74021218D78B22EA452260047AEE
:102A63000180027A00EC2AFCED3400FD7413121984
:102A73000DE0F8A3E0F9E8FEE9FFECF8EDF97A716F
:102A83007B02121836882189228E828F8378211245
:102A93001788ECF8EDF97A717B021218368A218BCC
:102AA30022740578211218AE8E828F83A3A3A3A369
:102AB300E521F0A3E522F07F08021A49C082C08312
:102AC300E9906000F0D083D08222C2AF02000022DE
:102AD300C0E074F2121A89A2AFE433FED2AFE589E3
:102AE300A2E04006E589A2E150031213277589008D
:102AF300758900C2C5754300EEA2E092AF7F010263
:102B03001AE8C0E0C0D0E8C0E0E9C0E0E5A8D2AF71
:102B1300C2C7754300A2E7A2E792AFD0E0F9D0E0C5
:102B2300F8D0D0D0E032020132FFFFFFFFFFFFFFFA
:102B3300FFC082C083E9900A30F0022DC374F712FC
:102B43001931E99002E1F07C197D037AFF7BFF12D2
:102B530008F59002E274FFF0A3F0A3E4F0A3F07988
:102B63000512087D9002E1E0F912079F7A137B09B1
:102B7300120AC37F01021A0374F41219318A218BDA
:102B830022EB548060309002E1E0F91210A58A2311
:102B93008B24AE23AF24EE4F60138E828F83E064C9
:102BA300B07003120895EEFAEFFB121093AA21E519
:102BB300226480FB80047A007B00022D9274F2125F
:102BC300193174FC1218C1EAFEEBFFEE4F60387442
:102BD3000212190DEEF0A3EF122FF7ECF0A3ED1292
:102BE3002FF7AA82AB83120799E9F5217073741248
:102BF30012190D123BABE523452460658E828F834A
:102C0300122C6EEE4F700575210280557A067B00FB
:102C13001210FF8A258B26A825A926E84970057579
:102C23002113803D88828983E4122C78A3A3EEF0DC
:102C3300A3EF124044E523F0A3E524F09002E7124A
:102C43002D009002E76017E0FCA3E08003EAFCEBB1
:102C5300FD8C828D83122D0070F38C828D83123A4A
:102C6300D0A92174041218D7024246A3A3A3A3E058
:102C7300FEA3E0FF22F0A3F0888289832274F2127C
:102C830019318923E975F017A4FEAFF09002E6E449
:102C9300F09002E4122D00600A1211059002E4E4A0
:102CA300F0A3F0EEFAEFFB1210FF8A218B22EA4524
:102CB30022602FEEFCEFFD79001210819002E4E513
:102CC30021F0A3E522F07B008008122CEAE4F0A3B4
:102CD300F00BEBC3952340F2E5239002E6F0790075
:102CE30080027913024246EB75F017A4F8A9F0901D
:102CF30002E4E028FAA3E0398A82F58322123866D7
:102D0300EA4B2274F4121931752100752200740CF8
:102D130012190D124018FEE9FF800CE5212401F57C
:102D230021E5223400F522C3E5219CE5229D5032A2
:102D3300852123852224740378231218AEEA2523E0
:102D4300F8EB3524F988828983A3A3A3A3A3A31251
:102D53003BABEE65237003EF652470BFE8FAE9FB34
:102D630080047A007B00802774F41219317900EA19
:102D7300A2E0501B7521387522817821121B447CF7
:102D8300047D007A327B0A12087774021218D77F07
:102D930004021A03C082C0839002E7122DCA601C8A
:102DA30088828983A3A3E06A7003A3E06B88828986
:102DB3008370E8A3A3A3A312386280047A007B0084
:102DC300D083D082020132124319E8492274EE12F1
:102DD300193174FC1218C1EAFEEBFF85418285426A
:102DE30083E4F0A3F0EE2402123AB4EE2405122F8A
:102DF300E5EE2404F527EF1233CAE024FE603924FC
:102E0300FC604624FE605224FE605E24FE700302D2
:102E13002EEA24FE7003022F6224FE7003022F7138
:102E230024FE7003022F8024FC7003022F8F24FEE4
:102E33007003022F9E022FDB9003007417F0A3E4AC
:102E4300122FFF120517022FDB854182854283ACC7
:102E530082AD8312089B022FAB854182854283ACEE
:102E630082AD831208A1022FAB852521852622740A
:102E73000212190DAC82AD8385218285228312381B
:102E8300621207BD8A258B26AC25AD26EC4D604228
:102E9300E4F525F5267825121B44752500752603D0
:102EA3007825121B447525017526037825121B44CA
:102EB300740812190D121B5B791612385C1208DDA7
:102EC30074081218D7E9F525700B12385812052F1C
:102ED300800F752501852182852283122FED123AF9
:102EE300D0852521022FAE740212190DAC82AD8359
:102EF3008525828526831238621207BD8A298B2A8B
:102F0300AC29AD2AEC4D6043852582852683A3A396
:102F1300121B5B752900752A037829121B44752936
:102F230001752A037829121B44740812190D121B08
:102F33005B791612385C1208DD74081218D7E9F5AC
:102F430022700B123858120535800F752201852522
:102F530082852683122FED123AD0852221804C855B
:102F63004182854283AC82AD831208A7803A8541B2
:102F730082854283AC82AD831208AD802B8541826A
:102F8300854283AC82AD831208B3801C8541828560
:102F93004283AC82AD831208B9800D85418285429C
:102FA30083AC82AD831208BFE9F521E52160298E48
:102FB300828F83A3E06414601F852782852883E0C2
:102FC300900300122FF7124315900301123AD0E534
:102FD30021A3122FFF120511EEFAEFFB12083B0299
:102FE30039BCF525EF3400F52622124319854182B9
:102FF30085428322F085418285428322F07C007DD5
:10300300038523828524831238662274EE121931D4
:1030130074FC1218C18A238B248C278D28EA24057B
:10302300F521EB3400F5227C157D0079007A007BD5
:1030330003121081E5212402F525E522122FE885EC
:10304300418285428385822985832A7829121B44FC
:10305300852182852283A3A3A3A3123512121B44C5
:10306300E5212405F529E5223400F52A7829121BE8
:103073004485258285268312386C1207B77406129D
:1030830018D78A298B2AAE29AF2AE5232402F523F0
:10309300E524123AB7EE4F70030231D4801774025D
:1030A30012190D12386288828983EAF0A3EBF0903B
:1030B3000300E004F0900300E0C3940540030231F1
:1030C300D4E4F529F52A7829121B447529E9752AD0
:1030D300027829121B447529EA752A027829121BE2
:1030E30044740612190D121B5B7910EEFCEFFD12EE
:1030F300385C1208DD74081218D7E9705E852182E6
:10310300852283A3A3A3A3A3A3A3E0F89002E9E0EA
:10311300687048123512121B447CEA7D02E52124B3
:1031230008FAE5223400FB12107B74021218D7E967
:1031330060298E828F83A3A3A3A312386290030016
:10314300E0F529740278291218AE74012529F58255
:103153007403352AF583EAF0A3EBF0740212190D18
:1031630085822985832A7829121B44740212190D3A
:10317300121B5B85258285268312432A1207C3749B
:10318300041218D78A298B2AAE29AF2A900300E0AC
:10319300F529752A00740278291218AE74002529BE
:1031A300F87403352AF988828983A3122D007003EA
:1031B300023098E82403F8E93400F9EE4F60030283
:1031C30030A18882898374FFF0A3F0900300E004A8
:1031D300F0900300E0600A1238581205237900804A
:1031E3000B852182852283123AC7790A0239BC747E
:1031F300EA12193174FE1218C18C2B8D2CEA2405A6
:10320300F525EB124494122C72752100752200EA05
:103213002402F529EB3400F52A8541828542838512
:1032230082238583247823121B4485258285268364
:10323300A3A3A3A31233D4121B44E5252405F5232A
:10324300E526123AB77823121B4485258285268307
:103253001243281207B774061218D78A238B24EA5D
:1032630045247003023385EA2404F527EB1233CA9D
:10327300122C728A828B83A3A3A3E0F9852982850A
:103283002A831238621207A5E9F522600302338507
:10329300E4F52DF52E782D121B44752DE9752E02BC
:1032A300782D121B44752DEA752E02782D121B44BE
:1032B300740612190D121B5B7913AC23AD248529F7
:1032C30082852A831238621208DD74081218D7E93E
:1032D300F52260030233859002E9E0F8E5217009E5
:1032E300E02402900301F08017900301E0FCE8243E
:1032F30002FAE43400FBEA6C7001EB6003023389E9
:10330300852182AA821235099414123501507385DE
:103313002782852883E0C0E074022A1233C1D0E0FB
:10332300F00521852782852883A3E0C0E08521233A
:10333300740225231233C1D0E0F005219002E91273
:1033430033D4121B447CEA7D028521237402252396
:10335300FA74033400FB12106974021218D7900236
:10336300E9E02521F52174FF6E700374FF6F60128D
:10337300EE24010EEF3400FFE521C3941450030241
:10338300321CE521601312374D852982852A831269
:10339300386212052979008014E522700375220A28
:1033A300852B82852C83EEF0A3EFF0A92274021201
:1033B30018D77F0E021A0385212574022525F5826D
:1033C30074033400F583223400F528852782F583BE
:1033D300221240572274EE12193174FE1218C18C56
:1033E300278D28EA2405F525EB122FE87524009094
:1033F3000300E4F0F523EA2402F521EB3400F5227F
:103403008049900300E0FA9002E9E0F8123509944C
:1034130017123501400D900300E0F87416C398901D
:1034230002E9F0123512121B447CEA7D0274012A70
:10343300FA74033400FB12106974021218D7900255
:10344300E9E0F8900300E028F00523E5252416F5CC
:1034530082E5261233C5E0F8E523C398400302341E
:10346300EA900300E0C39416507DE523C333F8E4E8
:1034730033F9E52528FEE52639FF85418285428318
:10348300AC82AD838E828F831238621207BD8A2984
:103493008B2AAC29AD2AEC4D70057524018043E4D9
:1034A300F529F52A7829121B447529E9752A02782A
:1034B30029121B447529EA752A027829121B4474C0
:1034C3000612190D121B5B79168521828522831240
:1034D30038621208DD74081218D7E9F52470030264
:1034E3003405123AC380107C007D03852182852236
:1034F3008312386212053BA92474020239BEE9948F
:1035030000C365D03322EA28F8E43400F9E822E066
:10351300F529752A0078292274EA12193174FC12EC
:1035230018C18A258B268C2B8D2CEA2405F523EBD9
:10353300123AB7752100752200E5232402F529E527
:10354300243400F52A740212190D858227858328F5
:103553007827121B44852382852483A3A3A3A31264
:103563004003121B44E5232405F527E5243400F525
:10357300287827121B44852982852A83123ABD1293
:10358300385C1207B774061218D78A278B28AE2720
:10359300AF28E5252402F527E5263400F5288040E9
:1035A3008882898374FFF005211233BA74FFF00512
:1035B300219002E9E0F5257526007825121B447C4D
:1035C300EA7D0285212574022525FA74033400FB64
:1035D30012106974021218D79002E9E02521F5212F
:1035E300EE4F60718E828F83A3A3A3E0F9852782B8
:1035F3008528831238621207A5E9F522EE24041206
:103603002FE5E97044E4F52DF52E782D121B447552
:103613002DE9752E02782D121B44752DEA752E02A5
:10362300782D121B44740812190D121B5B7911EECD
:10363300FCEFFD8527828528831238621208DD742A
:10364300081218D7E9F5226027852582852683127B
:103653003743123AD0E521700302372912374D85DB
:103663002782852883123862120541790002373E8A
:10367300852182AA82EA9002E97009E0240490037A
:1036830001F08022E0F8900301E0F52DE82404FC2A
:10369300E43400FDEC652D7001ED70C01235099422
:1036A3001212350150B6852582852683E0C0E07469
:1036B300022A1233C1D0E0F00521852582852683B5
:1036C300A3E0C0E01233BAD0E012375F85822585CC
:1036D30083267825121B44740412190D121B5B8573
:1036E3002982852A8312432A1207C374041218D726
:1036F3008A258B26AE25AF2685212574022525F83C
:1037030074033400F9EE4F70030235A385418285BB
:103713004283E08882898312375FA3E0C0E01233DB
:10372300BAD0E00235B1E522700375220A852382FF
:10373300852483123743123AD0A92274040233B288
:10374300124319852B82852C8322900301E0F5F027
:10375300E52184900300F07C007D0322F0052185A0
:1037630041828542832274EC12193174FE1218C10E
:103773008A218B228C278D28EA2405FEEB3400FF57
:10378300854182854283AC82AD838E828F831238DA
:10379300621207BD8A238B24EE2418122FE5EA4513
:1037A3002470030238331239A55032854182854291
:1037B300831238621208D18A298B2AEA452A606B60
:1037C3007912AC23AD248521828522831238628548
:1037D3002982852A8312192FE9F5237058E4F523EA
:1037E300F5247823121B448E828F83A3A3E0F52351
:1037F3007823121B44EE2403123AB47823121B4499
:103803008E828F8312386C1208E374061218D7E97C
:10381300F5237021852582852683E0701F8521820B
:10382300852283123862120547801175230E8009A1
:103833007523018004E5236003123AC3852582853D
:103843002683E0600479008002A92374021218D74A
:103853007F0C021A037C007D038523828524831257
:10386300386622E0FAA3E0FB22E0FCA3E0FD852119
:10387300828522831238662274EE12193174FE1285
:1038830018C18A218B228C258D26EA2405FEEB3470
:1038930000FF752700854182854283AC82AD838E0C
:1038A300828F831238621207BD8A238B24EA452450
:1038B30070030239911239A55035854182854283BF
:1038C3001238621208D18A278B28EA4528605E796C
:1038D30012AC23AD24852182852283123862852789
:1038E3008285288312192FE9F5276003023994850D
:1038F3002182852283123BABAA23FB1208C58A29A6
:103903008B2AA829A92AE849701E7AFF7BFF12088F
:10391300C58A298B2AA829A92AE849606C88828943
:1039230083E523F0A3E524F0752300800775270EB4
:10393300805F05239002E6E0FAE523C39A504AE547
:103943002375F017A4FAABF088828983A3A3E02A36
:10395300FAA3E03BFB8A828B83123ABDEC4D70D213
:103963007523177524007823121B44EEFCEFFD1218
:10397300106974021218D7EEFCEFFD8521828522AF
:103983008312386212054D80147527098003752749
:1039930001124311852582852683123AD0A9270275
:1039A30034FCE5212402F521E5223400F5228A8244
:1039B3008B83A3A3A3E0A2E52274041218D77F0A82
:1039C300021A0374EC1219318C298D2AEA2405F5A5
:1039D30025EB122FE8752800EA2402F523EB123AAF
:1039E300B7852382F5831238621208C58A218B2298
:1039F300EA45227003023AA9752700807185258262
:103A0300852683E06401704F8E828F83A3A3121BEC
:103A13005B8E828F83A3A3A3A3E0F52B752C007881
:103A23002B121B44EE2405F52BEF3400F52C782BD9
:103A3300121B4412385C1208E374061218D7E9F516
:103A4300286014852582852683E4F0124311852995
:103A530082852A83123AD07C177D007900EEFAEF33
:103A6300FB1210818E828F83E4F0A3F0052790026E
:103A7300E6E0F8E527C398501EE52775F017A4F88C
:103A8300A9F0852182852283A3A312449E123ABD05
:103A9300EC4D6003023A0085218285228374FFF096
:103AA300A3F0E528700612385C120553A9280238E2
:103AB30053F523EF3400F52422A3E0FCA3E0FD2219
:103AC3008E828F83124319852782852883E8F0A38A
:103AD300E9F022C082C0839002E2E06A7003A3E0AF
:103AE3006B70067AE27B0280047A007B00022DC3AE
:103AF300C082C08378008C828D83E06A7003A3E068
:103B03006B7010E875F003A4F8A9F0EC28FAED390E
:103B1300FB8015088C828D83A3A3A3E06A7003A3A3
:103B2300E06B60DF7A007B00022DC374F61219315B
:103B330012088F8A828B83E582458370067A007B25
:103B4300008007A3A3A3A31238620241C274F21236
:103B53001931E9FE740E12190D123BAB74101219D0
:103B63000D1240238C828D83E064027036A31243CE
:103B73001FF525A3E0F9A825740268700374296969
:103B830070217525027526007825121B44782112B1
:103B93001B447823121B44EEF9120907740612180A
:103BA300D780027901024246E0F523A3E0F52422FF
:103BB30074E812193174FB1218C1E98541828542F8
:103BC30083F08A2F8B30ECFEEDFF752900741D12F4
:103BD300190D124315741D12190D123AD08E828FCE
:103BE30083A3A3A3E0A2E4502D741D12190D123870
:103BF300621208D18A828B83E58245837003023F78
:103C0300F4790AEEFCEFFDAA2FAB3012192FE9F578
:103C1300296003023FF7741F12190D124023742108
:103C230012190D123BAB742312190DE0F527A3E013
:103C3300F5288E828F83E064026003023FA2A31201
:103C43004315852182852283A385822B85832CEED0
:103C53002406122FE588828983E0FAA3E0F9EA2497
:103C630000F52DE439F52E782D121BCE0100002826
:103C73000128973C070002285C3D0328C93C002922
:103C8300933E0129BE3E02295F3E0329933E042948
:103C93003D3FA23FE52745286003023F9D852582DE
:103CA300852683124018FAE9FB8A828B83E08523F9
:103CB3008285248312404E121B448A828B83A3E0A5
:103CC300FCA3E0023F27E52745286003023F9D85CB
:103CD30023828524837401F012402B85218285225F
:103CE30083F07C007D008E828F83A3A3A3A3E024B3
:103CF30001FAA3E03400FB1207BDEA4B60418A825C
:103D03008B83E02402F8852382852483E028F0EA6C
:103D13002404F8EB3400F988828983E0852B8285BB
:103D23002C8312406012404E121B448A828B8312F2
:103D33003ABCE5212403FAE5223400FB023F2C853B
:103D43002382852483E02404F07C047D007900AA87
:103D53002BAB2C121081023FF7E5274528600302A5
:103D63003F9D12402BFEA3E0FF85238285248374AD
:103D730004F0EE852182852283F0EF852B82852C4A
:103D830083F0740312190DAC82AD83EEFAEFFB12CC
:103D930007BD8A258B26EA45267003023E408A82A8
:103DA3008B83A3A3122C6E740112190D85822785B0
:103DB30083287827121B44740512190D121B5B7C90
:103DC300FF7DFF1207C374041218D78B28EA452816
:103DD3007033852582852683124003121B44852573
:103DE30082852683A3121B5B7C027D007AD77B81AD
:103DF3001205EF74041218D7E9700A740112190D31
:103E030074FFF0A3F08E828F83E06402703975250E
:103E1300027526007825121B448E828F83123ABCCA
:103E2300E5212404FAE5223400FB1210697402121E
:103E330018D7852382852483E02402800974011224
:103E4300190DEEF0A3EFF0740112190D124014F0E6
:103E5300740112190DA312400C023F97E527452860
:103E63006003023F9D852582852683123ABDAA2FD2
:103E7300AB301208FB8523828524837402F0EA8524
:103E83002182852283F0852B82852C83EB023F9A46
:103E9300E52745286003023F9D12402BF8A3E0F974
:103EA3008523828524837402F0E885218285228319
:103EB300F0E9852B82852C83023F9A85258285260E
:103EC30083123862121063EAFC8C82A882C395279E
:103ED300E49528405FE865277002E52870047C00BC
:103EE3008022854182854283E0FAE5272AFAE52884
:103EF3003400FBC3EA98EB94005003E08005E52708
:103F0300CCC39CFCEC852382852483F08C2375240D
:103F1300007823121B44852582852683E02527FC10
:103F2300A3E03528FDAA21AB2212106974021218EE
:103F3300D7023FF7752907023FF7E5274528705A4F
:103F430085258285268312431585238285248374E0
:103F530007122C7A12400C122C7AA3E0852B82854F
:103F63002C83F0E82402FAE93400FB8A828B831263
:103F7300400C12403B124014A312404412401DF067
:103F8300E82405F8E93400F98882898312401DA3E7
:103F9300124060A3A3A3A3F0805A75290B80557424
:103FA3001D12190D12386212088F8A828B83E582E3
:103FB3004583603D12431588258926E845266031EF
:103FC3007827121B447823121B447821121B447454
:103FD3000612190DE0F9EEFCEFFDAA2FAB30852593
:103FE3008285268312192F74061218D7E9F52980C2
:103FF3000375290EA92974051218D77F10021A0315
:10400300E0F527752800782722E085218285228321
:104013002212406A22124319E82212406AA3A32201
:10402300E0F521A3E0F52222852582852683E0F8A9
:10403300A3E0F5838882E022A3A3F08A828B83A383
:1040430022F088828983A3A3A3A322F08A828B838D
:1040530012405722E0F523752400782322F088824A
:104063008983A312406A22E0852182852283A3A348
:104073002274EE12193174FE1218C18A238B24ECB8
:10408300FAEDFB741412190DE0F529A3E0F52A7477
:104093001612190DE0FE741812190DE0F527A3E0AE
:1040A300F528854182854283AC82AD831207BD8AA0
:1040B300258B26EA4526604985418285428312384D
:1040C3006212088F8A828B83E5824583602FA3A3C4
:1040D300124023E521452260247827121B447829C6
:1040E300121B44EEF9AC25AD26AA23AB248521820D
:1040F30085228312192F74041218D78006790E8033
:104103000279010234FC74F612193174FE1218C1DB
:10411300740C12190D124018854182854283F07484
:104123000112190DE9F0E4F521F5227821121B445F
:104133007521027821121B44740412190D85822102
:104143008583227821121B441208E374061218D7C0
:1041530074021218D7806874F7121931EAFEEBFF64
:1041630089217C197D031208FBEA5402600BA92103
:10417300EEFAEFFB1207B180027901022B7674F697
:1041830012193174FF6A700374FF6B70168C828D81
:10419300831241C7E4F08C828D83A3A3A31241C78A
:1041A300A380181208CB8A218B22A821A922E849CF
:1041B300600D8882898374FF122C78A3A3E4F07FB7
:1041C30002021A0374FFF0A3F08C828D83A3A3224F
:1041D30074F61219311208CB8A828B83E5824583E8
:1041E3006006A3A3E0FA80027A007B0080D174F218
:1041F3001219318A218B22ECFEEDFF740E12190D78
:10420300E0F5231208CB8A258B26A825A926E849A1
:104213007026EEFCEFFD7AFF7BFF1208CB8A258B1D
:1042230026A825A926E84970047911801688828971
:1042330083E521F0A3E522F088828983A3A3E52304
:10424300F079007F06021A0374EE121931EAFEEBCD
:10425300FF8C218D228925741412190D12431574B4
:104263001612190D123862752600E84960030243DD
:1042730009740265256003024304741212190D12B6
:10428300431FFCA3E0F9EC2400F527E439F528EA01
:10429300F4F8EBF4F9EC58F8E52859F9E849705CBF
:1042A300E5212406F8ED3400F9882389248882F572
:1042B3008312432A1208FB8A298B2AE52765297072
:1042C30004E528652A60427827121B4485238285EA
:1042D300248312432A12090174021218D7E9F5261E
:1042E30070277827121B44852182852283A3A3127A
:1042F300432812091974021218D7800D752680807D
:104303000875260D800375260BA9260239C18E82F6
:104313008F8312431922E0F8A3E0F922124319888C
:10432300828983E022A3A3E0FCA3E0FDEEFAEFFB86
:104333002274E812193174E71218C185418285424B
:1043430083EAF0A3EBF08C2F8D308927752100755C
:104353002200743112190DE0F52BA3E0F52C743310
:1043630012190DE0F52DA3E0F52E743512190DE0A9
:10437300F528E52275F003A4F8A9F085418285426A
:104383008312449EE0F47003A3E0F47003024481BB
:10439300EE2402F525EF124494E070030244818574
:1043A3002F238530247823121B44AC2DAD2EAA2B4A
:1043B300AB2C12088374021218D78A238B24EA4584
:1043C300247003024481E4F529F52A7829121B4459
:1043D300740612190D85822985832A7829121B44B4
:1043E300740912190D85822985832A7829121B44A1
:1043F300852B82852C83A3A3A3A3121B5B7914AC07
:1044030023AD248E828F831238621208DD74081262
:1044130018D7E97069852382852483A3A3A3A312F4
:104423004315740212190D123AD08525828526830D
:10443300E0A2E05018A927740212190DAC82AD83D3
:104443008E828F831238621207D5E9422185258235
:10445300852683E0A2E15026E528F5237823121B65
:1044630048A927740312190DAC82AD838E828F8302
:104473001238621207CF74011218D7E942210522BC
:10448300E522C394025003024375A9217419023F24
:10449300FB3400F526852582F58322E028FEA3E080
:1044A30039FF8E828F832274F2121931EAFEEBFFF9
:1044B300892474016524600E74026524706A79018D
:1044C300120AE1E97062EEFAEFFB1208C58A218B4A
:1044D30022EA45226047752300800B7C177D007913
:1044E3000012108105239002E6E0F8E523C39850FB
:1044F30021E52375F017A4F8A9F08521828522838D
:10450300A3A3E028FAA3E039FB8A828B83122DCA86
:1045130070C985218285228374FFF0A3F07C197D05
:1045230003EEFAEFFB1208F502424674F212193158
:104533008A218B22ECFEEDFF740E12190D123BAB98
:10454300900A30E0F4603D7A097B0012108DEA4B4B
:1045530060328A828B8374B1F0A3E412403DA312CC
:10456300403BA3E521F0A3E52212458AEEF0A3EF39
:1045730012458AA3A3E523F0A3E524F0900A30E0D3
:10458300F9121099024246F08A828B83A3A3A3A354
:10459300A322C082C0839061907404F0A37448F096
:1045A300A37402F09061807440F09061BC7403F0D6
:1045B3009061877419F0906265741BF0906249E012
:1045C300C3941390619C400A7409F090606674016F
:1045D3008007740DF0906066E4F090619A7433F094
:1045E300A37455F09061A0743AF090053FE0640124
:1045F3007009C2919003A6746780059003A6746145
:10460300F0902B32E493906186F0902B2CE493F49A
:104613006027E493540FF8906185E0686012E5C663
:1046230054804449F5C6E59E547F644970F8E8F028
:1046330053C680E59E547F70FA7905120E4D0248E9
:1046430014C082C083E9540FF9906185E069601258
:10465300E5C654804449F5C6E59E547F644970F825
:10466300E9F053C680E59E547F70FA024814C08275
:10467300C083E5A8F853A87E906181E4F0A3F0A37A
:10468300F0C2BA539AFEC289759B00C2C275E90093
:1046930075910075BF0075A91175B905906181F019
:1046A300A374C0F0A3E4F0D2BA439A0174805842D1
:1046B300A8024814C082C08374F81218C19003A4DE
:1046C300E0F8A3E0F9E84970030247E59003A4E0AA
:1046D300544060237908854182854283AA82AB8353
:1046E300120CAF854182854283AA82AB8312099162
:1046F3009003A4E054BFF0E054806010790C7A6515
:104703007B05120CAF9003A4E0547FF0E0A2E050CD
:104713003190619A7433F0A37455F09061A0743AA8
:10472300F090053FE064017009C2919003A674679D
:1047330080059003A67461F01209979003A4E054D6
:10474300FEF0E05402603190619A743FF0A3745A12
:10475300F09061A0747FF090053FE064017009D28E
:10476300919003A6747180059003A6746AF01209F0
:10477300979003A4E054FDF0E054046013902B30B1
:10478300E493906186F012099D9003A4E054FBF03A
:10479300E054086013902B31E493906186F0120982
:1047A3009D9003A4E054F7F0E054106013902B3273
:1047B300E493906186F012099D9003A4E054EFF016
:1047C300E05420600A12099D9003A4E054DFF0A393
:1047D300E05401600D120BD71209A39003A5E05416
:1047E300FEF074081218D7024814C082C083E9602F
:1047F3000814600A14600C8013902B308008902BEF
:10480300318003902B32E493906186F08003F0A310
:10481300F0D083D08202013274EC12193174F41295
:1048230018C1854182854283AC82AD8375838175CE
:10483300826874041217D4902B3093F460030249F6
:10484300A7907808E0C394025003024987740412C6
:10485300190DAC82AD8375838175822A7408121792
:10486300D485418285428385822B85832C740412EF
:10487300190DAC82AD837527FF7528FF7FFF7E007E
:10488300752548752678801574086E700302491BD8
:1048930074096E700302491B740A6E607B8525825E
:1048A30085268378211217798C828D83A922E523AB
:1048B300C9F88829741878211216A7E5294521F823
:1048C300C3E098A3E0998525828526837821121772
:1048D3007940188C828D83741878211216A7E529E4
:1048E3004521F8E0C398F8A3E0801C7418782112DE
:1048F30016A7E5294521FAE9FB8C828D83E0F8A30D
:10490300E0F9EAC398F8EB99F9C3E89527E9952804
:10491300500688278928EEFF0EE5252404F525E5B2
:10492300263400F526EEC39413500302488B74FF1C
:104933006527700474FF652860238F217402782132
:104943001218AE74482521F58274783522F58378E0
:1049530021121779852B82852C83E521F0EC240223
:10496300FCED3400FD852B82852C83A385822B856A
:10497300832C740C12190DE5826C7003E5836D6052
:10498300030248797521017522007821121B4474B2
:104993000212190DAC82AD837ACC7B0A1213037415
:1049A300021218D7740C1218D77F0C021A03C08294
:1049B300C0839061AE7468F0A3746AF0906245742A
:1049C300FBF0A304F053F4FD43FE0290053F740192
:1049D300F09061A0E0643A90619A70237433F0A37D
:1049E3007455F09061A0743AF0740164017009C2C7
:1049F300919003A6746780289003A6746180217444
:104A03003FF0A3745AF09061A0747FF074016401C5
:104A13007009D2919003A6747180059003A6746AFD
:104A23000248137F08021A03C082C0839004F1E096
:104A33006401700A9004F6E06004790C8002790046
:104A4300024814C082C08375E1F19004F4E0605B16
:104A530014600914605F14605714705E120BE990C0
:104A630004EAE0F97AEB7B04120DCF7AD67BBE7CA5
:104A7300897D8E120E057A557B557C557D00120D6E
:104A8300DB9004F5E0F9120DE77901120E41900471
:104A9300E8E0F8A3E0C82416F582E83400F583744F
:104AA30001F0A3740CF07900024814120BEF80AFED
:104AB300120BF580AA120BFB80A5791280EA74F021
:104AC30012193175D90D9004D5E0A2E0E433131324
:104AD300F89004EAE0C4333354C0484401F5D9786C
:104AE300E8790488828983A3A3A3E0F5D98882891E
:104AF30083A3A882A983E864EE7003E9640470E3E6
:104B030078D5790488828983A3E0F5D9888289835B
:104B1300A3A882A983E864DB7003E9640470E575E4
:104B2300E1959004D5E0F97AD67B04120DD5900A6D
:104B330052748FF0A3740BF0A374F7F0A3740CF00A
:104B4300A374F7F0A3740CF0A374F7F0A3740CF040
:104B5300A37495F0A3740BF0A374F7F0A3740CF093
:104B6300A374ADF0A3740BF0900A6074F7F0A37410
:104B73000CF0A374F7F0A3740CF0A374F7F0A37410
:104B83000CF0A374F7F0A3740CF0A374F7F0A37400
:104B93000CF0A374F7F0A3740CF09004F4E0640138
:104BA3009004E87012E0F8A3E0F5838882A3A3756C
:104BB30021007522088010E0F8A3E0F5838882A322
:104BC300A375210475220075230075240078211232
:104BD30016F27525FF7526FF7527FF7528007821C6
:104BE30079251217409004E8E0F8A3E0C8240EF5F5
:104BF30082E83400F58378211217889004E8E0F8FE
:104C0300A3E0C82414F582E83400F5837413F0900C
:104C130003A27402F0024A2674F71219319004FABF
:104C2300E02407F5D99004EAE0C4333354C0F5D93E
:104C330078E8790488828983A3A3A3E0F5D98882DD
:104C43008983A3A882A983E864EE7003E9640470EE
:104C5300E39004FAE0601F78E87904FAE82413F596
:104C630082E93400F583E0F5D988828983A3A88299
:104C7300A9831AEA70E690051AE02407F5D990048F
:104C8300EAE0C4333354C04404F5D978E87904889E
:104C9300828983A3A3A3E0F5D988828983A3A88209
:104CA300A983E864EE7003E9640470E390051AE0F5
:104CB300601F78E87904FAE82433F582E93400F5D3
:104CC30083E0F5D988828983A3A882A9831AEA702D
:104CD300E675E195900A52749BF0A3740BF0A374EC
:104CE300F7F0A3740CF0A374F7F0A3740CF0A3749F
:104CF300F7F0A3740CF0A37495F0A3740BF0A374F2
:104D0300F7F0A3740CF0A374ADF0A3740BF0900A46
:104D13006074F7F0A3740CF0A374F7F0A3740CF0B1
:104D2300A374F7F0A3740CF0A374F7F0A3740CF05E
:104D3300A374F7F0A3740CF0A374F7F0A3740CF04E
:104D43009004E8E0F8A3E0C8240EF582E83400F507
:104D53008374FFF0A3F0A3F0A3F09004E8E0F8A3BA
:104D6300E0C82414F582E83400F5837412F090034C
:104D7300A27401F0FF021A0374F71219319004FAB6
:104D8300E02407F5D99004EAE0C4333354C0440265
:104D9300F5D978E8790488828983A3A3A3E0F5D9B8
:104DA30088828983A3A882A983E864EE7003E964F7
:104DB3000470E39004FAE0601F78E87904FAE824C9
:104DC30013F582E93400F583E0F5D988828983A35A
:104DD300A882A9831AEA70E675E195900A5274A72E
:104DE300F0A3740BF0A374A7F0A3740BF0A374A740
:104DF300F0A3740BF0A374A7F0A3740BF0A374A730
:104E0300F0A3740BF0A374A7F0A3740BF0A374AD19
:104E1300F0A3740BF0900A6074F7F0A3740CF0A382
:104E230074F7F0A3740CF0A374F7F0A3740CF0A35D
:104E330074F7F0A3740CF0A374F7F0A3740CF0A34D
:104E430074F7F0A3740CF09004E8E0F8A3E0C8242E
:104E53000EF582E83400F58374FFF0A3F0A3F0A30A
:104E6300F09004E8E0F8A3E0C82414F582E83400E5
:104E7300F5837414F09003A27404F002514274F7A2
:104E83001219319004FAE02407F5D99004EAE0C43A
:104E9300333354C04406F5D978E87904888289838A
:104EA300A3A3A3E0F5D988828983A3A882A983E871
:104EB30064EE7003E9640470E39004FAE0601F7821
:104EC300E87904FAE82413F582E93400F583E0F580
:104ED300D988828983A3A882A9831AEA70E69005F8
:104EE3001AE02407F5D99004EAE0C4333354C044EC
:104EF30004F5D978E8790488828983A3A3A3E0F52C
:104F0300D988828983A3A882A983E864EE7003E920
:104F1300640470E390051AE0601F78E87904FAE806
:104F23002433F582E93400F583E0F5D98882898357
:104F3300A3A882A9831AEA70E675E195900A5274D0
:104F4300A1F0A3740BF0A374F7F0A3740CF0A37493
:104F5300F7F0A3740CF0A374F7F0A3740CF0A3742C
:104F6300F7F0A3740CF0A374F7F0A3740CF0A3741C
:104F7300ADF0A3740BF0900A6074F7F0A3740CF017
:104F8300A374F7F0A3740CF0A374F7F0A3740CF0FC
:104F9300A374F7F0A3740CF0A374F7F0A3740CF0EC
:104FA300A374F7F0A3740CF09004E8E0F8A3E0C84E
:104FB300240EF582E83400F58374FFF0A3F0A3F028
:104FC300A3F09004E8E0F8A3E0C82414F582E834E1
:104FD30000F5837415F09003A27403F0025142C0EC
:104FE30082C0839004E8E0F8A3E0C82406F582E8D1
:104FF3003400F583E402481174F71219319003D099
:10500300E0F875F003A4C8AAF02AF974D228F8745A
:105013000339F9E82405FAE93400FB8A828B83E03B
:10502300FCA3E0FD88828983A3A3A3A3A3A3A3A3D3
:10503300A3ECF0A3EDF088828983A3A3A3A3A3A386
:10504300A3E024FFF8A3E034FFF98A828B83E8F01E
:10505300A3E9F002514274F7121931EAFEEBFF9013
:1050630061D0E0600302513675D90E75D90375D945
:1050730004EE248BF582EF3400F583E5822408F8EF
:10508300E5833400F9E0F5D9A3E865827003E965A7
:105093008370F2EE2483F582EF3400F583E58224F6
:1050A30004F8E5833400F9E0F5D9A3E865827003D9
:1050B300E9658370F275E1957908EE248BFAEF3494
:1050C30000FB120CA37904EE2483FAEF3400FB12E5
:1050D3000CA37C00EEF8EFF9ECFAC3E49AFA95E03E
:1050E300FBEE2AFAEF3BFBEA248AF582EB3400F568
:1050F30083E0C0E0E824AAF582E93400F583D0E038
:10510300F00C88828983A3A882A983ECC394084006
:10511300C7EE246FF582EF3400F583E0F8A3E0F9DE
:10512300EE2471F582EF3400F583E8F0A3E9F0791A
:1051330001800279008008F0EEA2E092AF79007F4F
:1051430001021A03C082C08375D90275D90375D9C8
:105153000575E195EA246FF582EB3400F583E0F8F9
:10516300A3E0F9EA2471F582EB3400F583E8F0A3B8
:10517300E9F0790102481474F6121931EAFEEBFFE3
:105183009005457406F07521457522057821121B9B
:10519300447C017903120CEB74021218D775D906FB
:1051A30075D903758245758305E0F5D9A3E5826456
:1051B3004A7004E583640570F075E1959003A2E0FD
:1051C3006408701EEE246FF582EF3400F583E0F877
:1051D300A3E0F9EE2471F582EF3400F583E8F0A340
:1051E300E9F0790102544874F6121931EAFEEBFF33
:1051F3009061D0E070667801900545740BF09003E0
:10520300A2E0640770197521457522057821121BE8
:10521300447C017903120CEB74021218D7780574DD
:105223000128F5D975D903758245758305E8FAE038
:10523300F5D9A31AEA70F875E195EE246FF582EFBC
:105243003400F583E0F8A3E0F9EE2471F582EF343E
:1052530000F583E8F0A3E9F07901800279000254B4
:105263004874F7121931EAFEEBFF75D90375D903B8
:1052730075D90DEE24DDF582EF3400F583E0F5D921
:1052830075E1957904120E0BEE246FF582EF34006D
:10529300F583E0F8A3E0F9EE2471F582EF3400F52D
:1052A30083E8F0A3E9F0790102514274F61219314F
:1052B300EAFEEBFF9061D0E0F87480C398FAEE2425
:1052C30082F582EF3400F583E0600478048002788D
:1052D30000E8240BF8EAC39850030253737D099046
:1052E3000545EDF0EE24E2F8EF3400F97A467B054C
:1052F3007C0888828983E08A828B83F08882898311
:10530300A3A882A9838A828B83A3AA82AB831CEC82
:1053130070E0EE2482F582EF3400F583E0601D75C2
:1053230021457522057821121B447C097903EEFA85
:10533300EFFB120CEB74021218D77D0D74012DF5DF
:10534300D975D9037582457583058D21E0F5D9A3F8
:105353001521E52170F675E1957904120E0BEE2403
:105363001DF582EF3400F583E4F0A3F079018002A8
:10537300790002544874F6121931EAFEEBFF90618A
:10538300D0E0F87480C398FAEE2482F582EF3400FB
:10539300F583E06004780480027800E82408F8EAE2
:1053A300C39850030254467806900545740CF09058
:1053B30003BFE0900546F09003C0E0900547F090EE
:1053C30003C1E0900548F09003C2E0900549F090D6
:1053D30003C3E090054AF0EE2482F582EF3400F532
:1053E30083E0601B7521457522057821121B447CDF
:1053F300067903EEFA120CEB74021218D7780A74CA
:105403000128F5D975D9037582457583058821E08F
:10541300F5D9A31521E52170F675E1957904120EEE
:105423000BEE246FF582EF3400F583E0F8A3E0F987
:10543300EE2471F582EF3400F583E8F0A3E9F07907
:1054430001800279007F02021A0374F6121931EA0D
:10545300FEEBFF9061D0E0F87480C398FAEE2482EB
:10546300F582EF3400F583E060047804800278006D
:10547300E82404F8EAC398500302552778029005FC
:1054830045E8F0EE24F4F582EF3400F583E090056F
:1054930046F0EE2482F582EF3400F583E0601B755D
:1054A30021457522057821121B447C027903EEFA0B
:1054B300120CEB74021218D77806740128F5D9750B
:1054C300D9037582457583058821E0F5D9A3152194
:1054D300E52170F675E195EE2473F582EF3400F55E
:1054E30083E4F0EE247FF582EF3400F583E4F0EEFD
:1054F300241DF582EF3400F583E4F0A3F079041260
:105503000E0BEE240DF582EF3400F583E0F8A3E0F3
:10551300F9EE2471F582EF3400F583E8F0A3E9F0A6
:1055230079018002790002544874F61219319061AE
:10553300D0E0F87480C398FCEA2482F582EB34004F
:10554300F583E06004780480027800E82404F8EC32
:10555300C398405B79029005457407F0EA24F5F59A
:1055630082EB3400F583E0900546F0EA2482F5826D
:10557300EB3400F583E06018752145752205782129
:10558300121B447C0209120CEB74021218D7790621
:10559300740129F5D975D903758245758305E9F831
:1055A300E0F5D9A318E870F875E1957901800279DF
:1055B3000002544874F5121931E9FCA2AFE433F543
:1055C30023C2AF7D0080010DEA246EF582EB340027
:1055D300F583E0F8EDC398501A8D21EA2521F8EB05
:1055E3003400F9E8246AF582E93400F583E06C704D
:1055F300D68024EA246EF8EB3400F9E0FEEA2EFAB2
:10560300EB3400FBEA246AF582EB3400F583ECF01B
:1056130088828983E004F0E523A2E092AF7F03024E
:105623001A0374F6121931A2AFE433FDC2AFEA24B0
:105633006EF582EB3400F583E014F07C0060368C69
:1056430021EA2521F8EB3400F9E8246BF582E934EB
:1056530000F583E0C0E0E8246AF582E93400F583CD
:10566300D0E0F00CEA246EF582EB3400F583E0F829
:10567300ECC39840CAEA246DF582EB3400F58374D9
:10568300FFF0EA2469F582EB3400F583E4F0EDA240
:10569300E092AF025448C082C083E5A8F8C2AFEAE3
:1056A300246AF582EB3400F583E9F0EA2469F58294
:1056B300EB3400F583E4F0E8A2E7A2E792AF0248F7
:1056C3001474F3121931EAFEEBFFECFAEDFB8A8254
:1056D3008B83A3A3A3A3E0541FF0EE2436F582EF3C
:1056E3003400F583E4F0F523EEFCEFFD8A828B832F
:1056F300E0C0E0EC245DF582ED3400F583D0E0F00A
:10570300752400E52333333354F8F5258A828B83DC
:10571300E0F521752200E524782112188FE521A2F6
:10572300E0502FEE2436F8EF3400F988828983E0C5
:10573300F521EE2521F521EF3400F522E52124386A
:10574300F582E5223400F583E525F088828983E03C
:1057530004F005240525E524C3940840AF05238AF6
:10576300828B83A3AA82AB838C828D83A3AC82AD0D
:1057730083E523C3940550030256EF7F05021A0302
:1057830074F71219319003CEE0640170030258E1FB
:105793007A009003D4E060030258E17401F0A3E4BB
:1057A300F0A3F090043404F0900439F09003D7E4AC
:1057B300F0A3F0A3F0A3F09003E104F0900407E456
:1057C300F09003EAF0A3F0A3F0A3F0A3F0A3F0A3F7
:1057D300F0900451F0900445F090043A7480F0A3E3
:1057E300E4F0900440F09004BCF0A3F0A3F0A3F025
:1057F300A3F0A3F0A3F0A3F09004C5F0900454F039
:105803009004A4F0A3F0A3F0A3F0A3F0A3F0A3F0FB
:10581300A3F0A3F0A3F09004B0F09004B2F09004CE
:10582300AEF09004C8F0A3F0A3F0A3F0A3F0A3F0AC
:10583300A3F0A3F078CE7903E8246EF582E934006F
:10584300F58374FFF00A88828983A3A882A983EA77
:10585300C3940440E37ACE7B0378DC79048882899D
:1058630083E0C0E0EA2461F582EB3400F583D0E005
:10587300F088828983A3A882A9838A828B83A3AABF
:1058830082AB83E864E17003E9640470D07ACE7B71
:105893000378B5790388828983A3E0C0E0EA24E62C
:1058A300F582EB3400F583D0E0F088828983A3A8E6
:1058B30082A9838A828B83A3AA82AB83E864BD70A7
:1058C30003E9640370CF9003CEE004F06401700831
:1058D3009003D6E09003D0F07AD27B0380047A0061
:1058E3007B00025142C082C0839003D5E4F0900351
:1058F300D4F09003CEF0A3F0A374FFF075E1F102AE
:105903004814C082C083780079009003D5E0600416
:1059130078D2790388828983A3A3A3A3E0F90248F9
:105923001474F6121931EAFEEBFFEE2463F582EFED
:105933003400F583E0F8A3E0F9E84970030259C99C
:10594300EE2463F8EF3400F97A007B00A2AFE4336E
:10595300F521C2AF88828983E0FCA3E0FDEC4D60B2
:105963003A88828983E0FAA3E0FB8A828B83E0FC96
:10597300A3E0FD88828983ECF0A3EDF08A828B8318
:10598300E4F0A3F088828983E0FCA3E0FDEC4D7092
:105993000A88828983A3A3E4F0A3F0E521A2E0921D
:1059A300AF1213BD9004E2E004F09004E3E004F0CE
:1059B300EE2463F582EF3400F583E0F8A3E0F9E821
:1059C3004960030259438E828F83A3A3A3E0600F30
:1059D3008E828F83A3A3A3E4F09003CFE014F0900F
:1059E30003CEE014F070069003D074FFF08E828F24
:1059F30083A3A3E4F09004E1E0700D9003CFE0648F
:105A03000170057900120DEDEEFAEFFB120D1B028A
:105A1300544874F7121931EAFEEBFF8E828F83A389
:105A2300A3A3A3E0FA7B001209E5EEFAEFFB120C45
:105A33006D120D03025142C082C08378B579038889
:105A4300828983A3E4F088828983A3A882A983E857
:105A530064BD7003E9640370E69003B67401024801
:105A63001374F6121931EAFEEBFFEC2403F8ED345C
:105A730000F988218922EC2407F8ED3400F9E8FCC9
:105A8300E9FD8C828D83E0F8A3E0F98521828522EC
:105A930083E0FAA3E0FB121836EE240DF582EF340F
:105AA30000F583E8F0A3E9F08C828D83E0F8A3E0AE
:105AB300F9852182852283E0FAA3E0FB1218368B55
:105AC30022EA45226013EE240DF582EF3400F583BC
:105AD300E02401F0A3E03400F002544874F61219F4
:105AE30031EAFEEBFFEE242EF582EF3400F583E07E
:105AF300FCA3E0FD780079FAECFAEDFB121836EE20
:105B0300246FF582EF3400F583E8F0A3E9F0780021
:105B130079FAECFAEDFB1218368B22EA4522601370
:105B2300EE246FF582EF3400F583E02401F0A3E067
:105B33003400F002544874EC121931EAFEEBFF749E
