:020000040000FA
:0600000002010702286462
:03002B00022CB2F2
:03003300022CD3C9
:030053000228DAA6
:03007B00022C6FE5
:10008300022713E5C754F84401F5C779012200009C
:100093000080FB120086B900030200F1E4792178A5
:1000A3000FB800028004F709D8FCE479307802B86D
:1000B30000028004F709D8FCE490028178D9790D15
:1000C3008002F0A3D8FCD9FA7A597B0F90013778D4
:1000D3006179028015E493A3AD82AE838A828B8318
:1000E300F0A3AA82AB838D828E83D8E9D9E7758288
:1000F300AE7583D0740412011975829175830074EF
:100103000012011975D00075813F751881751902A8
:10011300759F00020096C09FF59FE473D09F22D085
:1001230083D082C09FE493C0E0740193C0E0740263
:1001330093F59F2271048304AD047704FF0000B498
:10014300000028002800283075A000A000A000A00F
:100153000000080008E001F000100010001000107B
:10016300001000100050005000500010001000D08C
:10017300070000000000000F0001000500307507B4
:10018300001000010081FF00000000FF1506330688
:100193001B06FF02020208025000A0000000E80351
:1001A3000246910100003591024091010000B80F11
:1001B300023A91010000BA02024091010000B90F16
:1001C300023C91010000D002024091010000BA0FED
:1001D300023E91010000D202024091010000BB0FD8
:1001E300024E91080000D302024091010000BC0FAF
:1001F300024291010000BD0FFFFF0100FF200246F4
:10020300910100003291024091010000221002444A
:10021300910000000000023891030000B4038F1026
:100223008F108F108F108F108F108F108F108F10D3
:100233008F108F108F108F1011132F130B134F1458
:1002430067144914FF544920424C4520416C6C000B
:10025300000000000000000000001100FF00000388
:1002630030003100320033003400350036003700EF
:1002730038003900300031003200330034003500DB
:100283003600370038003900851ADA1ADA1ADA1A12
:10029300DA1AE21A120122C2C104120122FFC104B6
:1002A30012012215C20412012244C2041201227A4D
:1002B300C20412012291C204120122A8C204120133
:1002C30022DBC20412012212C30412012265C304F9
:1002D3001201227CC30412012293C304120122AB34
:1002E300C304120122C2C304120122F3C304120184
:1002F300222EC40412012258C40412012282C4040F
:1003030012012299C404120122B0C404120122C7AB
:10031300C404120122F0C40412012203C504120111
:100323002219C5041201222CC50412012253C5044B
:10033300120122A3A702120122A7A802120122D4AA
:10034300A8021201221FA9021201222AA9021201E4
:10035300224DA90212012261A90212012290A902CF
:1003630012012292A902120122B5A902120122BB93
:10037300AA02120122FFAB02120122C3AC02120134
:100383002298AD0212012209AE0212012295AE0299
:1003930012012298AE0212012220AF021201225B47
:1003A300AF02120122C2AF02120122C5AF02120133
:1003B30022FCAF0212012225B002120122D0B002A8
:1003C3001201225AB102120122A9B102120122B66C
:1003D300B102120122B9B10212012219B2021201B1
:1003E300221CB20212012255B202120122A0B20251
:1003F3001201221FB30212012222B3021201226C44
:10040300B3021201226FB302120122E6B3021201F8
:1004130022E9B30212012278B4021201227BB40250
:100423001201220AB5021201221AB5021201224A4E
:10043300B50212012257B5021201225AB502120166
:1004430022DBB502120122E8B502120122D6B6025E
:1004530012012288B702120122D5C603120122CD4E
:10046300C70312012201C80312012283C803120128
:1004730022A3C803120122EBC8031201223EC903BF
:10048300120122A2C9031201222FCA03120122E977
:10049300CA03120122F8CD0312012283CF031201F2
:1004A30022A6CF031201220299041201229F9A0469
:1004B300120122EF9A04120122BF9B041201221E91
:1004C3009C041201222C9C04120122559C0412014B
:1004D3002228F80312012250F8031201227EF803A6
:1004E300120122B5F80312012213F903120122A10A
:1004F300FA03120122ECFA0312012237FB03120161
:100503002277FB03120122BDFB03120122EBFB0343
:10051300120122A8FC03120122B2FC03120122BF22
:10052300FC03120122F2FC03120122BEFD0312019D
:1005330022CAFD03120122E2FD03120122ECFD0394
:100543001201226AFE03120122A8CC04120122B670
:10055300CC04120122CECC04120122E6CC041201F7
:1005630022FECC04120122B7C70212012263C80281
:10057300120122DEC802120122FFC9021201223B2C
:10058300CA02120122D5CA021201227ECB02120133
:100593002265CC02120122C9CD0212012220CE0211
:1005A300120122A1CE0212012291CF02120122DEF8
:1005B300CF0212012264D00212012296D00212014C
:1005C30022AAD202120122ECD2021201220AD3027F
:1005D3001201228DD30212012261D40212012229B7
:1005E300D50212012236D702120122CFB103120122
:1005F30022A2B2031201224BB30312012297B303C7
:100603001201224EB40312012267B40312012281A4
:10061300B40312012231B503120122BDB503120145
:1006230022A9B603120122D8B603120122EBB703A3
:1006330012012233B803120122F4B8031201225823
:10064300B903120122BBB903120122EBB903120150
:100653002265BA0312012208BC0312012244BC031F
:1006630012012260BC03120122C9CE041201228AA4
:10067300A104120122A0A104120122C6A1041201A5
:1006830022E2A204120122ECA20412012221A404F8
:1006930012012219A50412012223A504120122B278
:1006A3008504120122E28604120122158704120135
:1006B300225F8704120122268904120122DCD5015C
:1006C30012012255D60112012265D601120122C759
:1006D300D60112012258D7011201223ED80112017C
:1006E300226AD801120122A7D801120122BED80121
:1006F3001201224AD90112012254D90112012266A0
:10070300D9011201229ED90112012201DA0112013B
:100713002260DA01120122A3DA01120122AEDA0108
:10072300120122B9DA0112012270DB0112012273D4
:10073300DB0112012276DB0112012279DB011201B6
:10074300227CDB0112012266DC01120122C9DC01D9
:100753001201222BDD01120122C9DD01120122E95E
:10076300DE01120122D0E00112012289E20112010D
:100773002265E30112012219E40112012256E70165
:1007830012012204E80112012273E901120122F38A
:10079300EA011201229AEB01120122E3EB01120199
:1007A300221AEC01120122B7EC0112012242ED01DF
:1007B3001201224FD702120122A4D70212012203EF
:1007C300D90212012213D90212012240D9021201C5
:1007D300229CD902120122A3DA021201226DDB024A
:1007E300120122CDDC0212012210DD02120122B518
:1007F300DD0212012202DE0212012228DE021201B0
:100803002236E0021201223BE00212012240E20200
:100813001201228DE20212012200E30212012233AD
:10082300E302120122D5E3021201227EE402120145
:1008330022B6E402120122B9E40212012201E50206
:1008430012012243E5021201229AE5021201227FDC
:10085300B20412012292B204120122A0B2041201C4
:1008630022E8B204120122FEB20412012245B304AB
:1008730012012259B404120122E6B40412012231F6
:10088300B50412012228BD0112012238BD01120153
:10089300229BBD01120122E0BD0112012296BE017D
:1008A30012012271BF011201229ABF01120122CA51
:1008B300BF011201220AC201120122F1C301120176
:1008C30022C9C5011201220DC70112012274C901F7
:1008D30012012282CA01120122D4CB01120122DEAB
:1008E300CC0112012220CD0112012258CD011201A7
:1008F300227ACD01120122DDCD011201229FD20104
:1009030012012239D30112012277D3011201229657
:10091300D301120122F0D301120122F0D4011201FA
:100923002275D5011201221FEE0112012229EE01C7
:10093300120122CDEE0112012210EF011201222435
:10094300EF011201225CEF01120122A5EF01120156
:1009530022CEEF0112012213F0011201225CF001F9
:1009630012012284F0011201220DF101120122C6AB
:10097300F101120122DCF10112012218F20112012C
:100983002240F20112012278F201120122ABF2019C
:10099300120122E2F20112012201F3011201222AC1
:1009A300F301120122A3F301120122B8F301120190
:1009B30022CDF301120122E2F30112012217F40105
:1009C30012012251F40112012275F4011201223E97
:1009D300F50112012254F50112012273F5011201EE
:1009E3002286F5011201229BF501120122B0F501C5
:1009F30012012226F6011201223AF6011201229275
:100A0300F601120122A1F601120122FDF6011201E3
:100A13002237F7011201226CF70112012298F70124
:100A2300120122C6F701120122F9F7011201220E67
:100A3300F80112012223F80112012253F8011201D5
:100A4300229EF801120122FDF8011201223EF90152
:100A53001201227AF901120122A5F90112012214CD
:100A6300FA0112012251FA011201227CFA01120148
:100A730022ACFA01120122D7FA0112012201FB0171
:100A830012012238FB011201226DFB01120122AA7D
:100A9300FB01120122D4FB0112012204FC01120109
:100AA300222EFC0112012258FC0112012283FC01B7
:100AB300120122ACFC0112012203FD0112012245A5
:100AC300FD0112012270FD01120122D4FD01120168
:100AD30022FEFD0112012229FE0112012254FE0110
:100AE30012012284FE01120122CDFE01120122F71E
:100AF300FE011201221CFF01120122A3FF011201B8
:100B03002245CA0412012298CA04120122F9B7022B
:100B130012012227B80212012282B90212012262B3
:100B2300BA0212012281BA02120122FEBA02120192
:100B33002241BB02120122BCBC021201222BBD02C4
:100B430012012256BF02120122DAC1021201228BC4
:100B5300C20212012281C30212012221C402120124
:100B6300221FC50212012279C60212012204C70202
:100B730012012279C7021201220AC7041201227349
:100B8300C704120122C7C704120122E9C7041201D4
:100B93002210C80412012241C80412012262C804AF
:100BA3001201229594041201220295041201224992
:100BB30095041201226196041201225D9704120129
:100BC30022409804120122D1D00312012213D1032F
:100BD300120122E5D103120122BED203120122B86F
:100BE300D3031201229AD40312012203D503120163
:100BF300229AD503120122B7D503120122D3D503BA
:100C03001201227CD603120122F0D6031201225CC8
:100C1300D7031201225FD70312012288D7031201DF
:100C23002202D8031201229BD80312012200D90306
:100C330012012215D9031201225BD9031201227476
:100C4300D903120122D9D903120122DCD9031201DB
:100C53002218AC0412012254AC0412012292AC04F7
:100C63001201225CAD04120122CBAD041201220653
:100C7300AE0412012244AE0412012274AE04120126
:100C8300229BAE0412012209AF04120122882D0017
:100C9300120122772F001201223A3200120122762A
:100CA3003200120122A332001201229033001201FA
:100CB30022D333001201221A34001201222C3400F1
:100CC3001201226C3400120122AD3400120122BC45
:100CD3003400120122E934001201223435001201DA
:100CE300226B3500120122C53500120122EB3500BB
:100CF3001201221F3600120122423600120122E0A5
:100D03003600120122183700120122923700120115
:100D130022E43700120122713800120122ED3A0059
:100D23001201221A3C00120122873C00120122FF09
:100D33003C00120122153F00120122533F00120111
:100D430022C14000120122E2400012012227410089
:100D53001201222742001201220D440012012278BF
:100D63004400120122C84400120122F94900120171
:100D730022494A00120122874A00120122944C00A0
:100D83001201227F4D00120122114F00120122494C
:100D93004F00120122EB4F00120122CB500012012F
:100DA30022FC500012012226510012012250510050
:100DB300120122855100120122AA5100120122C9F7
:100DC3005100120122F651001201226C520012014D
:100DD30022ED520012012235530012012257530013
:100DE3001201227954001201223D55001201226E94
:100DF3005500120122D15500120122F655001201AD
:100E030022E25600120122FE5600120122AA5700C6
:100E13001201223158001201225C5800120122A350
:100E23005800120122E358001201221C590012013A
:100E3300223E59001201221FB80412012291B80464
:100E4300120122E7B8041201222BB9041201224B2A
:100E5300B90412012298B904120122E0B904120163
:100E63002233BA0412012284BA04120122547600F6
:100E7300120122D37600120122957C00120122A4D2
:100E83007D001201220C7F00120122A37F001201B8
:100E9300226B5900120122B45900120122E15900B8
:100EA300120122145A00120122245A001201223084
:100EB3005A00120122415A00120122285B0012013A
:100EC30022865B00120122BB5B00120122F25B004F
:100ED300120122355D00120122885D00120122D920
:100EE3005D00120122445E00120122E85E0012013D
:100EF300229A5F00120122F85F001201226860004B
:100F0300120122BB6000120122FE61001201226461
:100F130063001201223B64001201224C640012019F
:100F230022886400120122986400120122B864002E
:100F3300120122BB64001201228965001201225AA8
:100F43006600120122FB6600120122B16700120142
:100F530022DE670012012231680012012299680023
:100F6300120122ED6800120122266900120122A259
:100F730069001201224A6A00120122156B00120154
:100F830022B76B001201222C6C001201228F6C001D
:100F9300120122ED6C001201221E6D00120122C506
:100FA3006D00120122146E00120122FB6F00120168
:100FB300224A70001201229170001201221771005F
:100FC3001201229F7100120122E671001201220B0D
:100FD300720012012256720012012286720012015F
:100FE30022CE72001201224873001201228C730078
:100FF3001201229D74001201224C7500120122ADD0
:1010030075001201220976001201222276001201D4
:1010130022D5BC0312012228BD0312012234BD03D1
:1010230012012209BE0312012230BE031201226BF8
:10103300BE03120122D7BE0312012213BF03120102
:101043002249BF0312012282BF031201229ABF0366
:10105300120122EFBF0312012208C0031201225121
:10106300C00312012264C0031201227EC0031201D5
:101073002294C003120122C7C1031201220EC3032B
:1010830012012210C4031201220AC5031201227D98
:101093002D00120122D98A04120122488E04120162
:1010A30022818F04120122CC9A03120122429D0352
:1010B300120122489D03120122B09F03120122173D
:1010C300A203120122CC8F041201226290041201A6
:1010D300221991041201224391041201223693042E
:1010E3001201225E940412012200800212012234B2
:1010F3008002120122598C02120122AD8D021201CB
:1011030022B88E021201223890021201221A910291
:10111300120122549102120122779102120122B983
:101123009102120122C291021201220C92021201B7
:1011330022169202120122C09202120122999302F4
:10114300120122ED93021201224F9402120122A2F4
:101153009402120122D194021201220E950212016D
:10116300220D96021201227999021201227F99021D
:10117300120122059F021201227EA30212012254B0
:10118300A702120122C6A8041201223CA9041201DB
:101193002252A90412012293A904120122CDA90407
:1011A30012012246AA0412012281AA04120122F486
:1011B300AA0412012232AB041201223BAB04120136
:1011C3002247AB0412012263AB041201228EAB044B
:1011D300120122A4AB04120122E8AB041201220083
:1011E300DA0312012213DA031201222DDA031201A8
:1011F3002256DA0312012299DA03120122D8DA0302
:1012030012012216DB031201227BDB03120122905F
:10121300DB031201229BDB03120122A8DB03120171
:1012230022BFDB03120122CDDB03120122DCDB032D
:10123300120122F1DB0312012206DC031201221147
:10124300DC031201221DDC031201222ADC0312013A
:10125300223DDC0312012248DC031201226DDC0370
:1012630012012272DC031201220CDD03120122722D
:10127300DD0312012282DD0312012297DD03120135
:1012830022ACDD03120122C6DD03120122E1DD03DC
:10129300120122FEDD0312012209DE03120122C51F
:1012A300DE03120122B1DF03120122CDDF0312019B
:1012B30022E4DF03120122EFDF0312012204E00321
:1012C30012012218E00312012279E0031201227FA6
:1012D300E00312012285E0031201228BE0031201D5
:1012E300229FE003120122C6E00312012201E1035F
:1012F3001201221AE1031201225AE1031201228D83
:10130300E103120122FDF4021201221FF502120170
:1013130022FFF502120122D6F80212012202FA027A
:1013230012012226FB02120122D8FB0212012279AA
:10133300FC0212012205800312012289800312019B
:1013430022388103120122978203120122B88403F7
:10135300120122A48503120122D98503120122FB63
:101363008503120122AA8603120122A28803120115
:1013730022CB88031201225D89031201228F890384
:101383001201229C8903120122F3890312012219FB
:101393008A03120122868C03120122898D03120112
:1013A30022E18D0312012287E60212012291E70254
:1013B30012012278E80212012282E8021201228C31
:1013C300E802120122AEE802120122BAE802120177
:1013D3002253EA0212012282EA021201229EEB0246
:1013E300120122F7EB021201225DED021201223CEF
:1013F300EE0212012298EE0212012205EF021201FF
:101403002240EF021201227FEF0212012238F20280
:1014130012012252F202120122DEF202120122EC26
:10142300F20212012245F30212012253F3021201C6
:1014330022C6F3021201222AF40212012274F402D8
:10144300120122A1A603120122C3A603120122E95B
:10145300A803120122FEAB0312012216AD031201EF
:1014630022C9AD03120122ABAE0312012265C504EA
:101473001201228AC504120122FCC504120122A210
:10148300E903120122ABE903120122B4E9031201B9
:10149300228BEA031201223CEC0312012272EC03B9
:1014A300120122ACEC03120122E2EC031201221C12
:1014B300ED0312012250ED031201227CED03120110
:1014C30022C5ED03120122FFED0312012248EE03B0
:1014D300120122A0EE03120122D5EE0312012230E3
:1014E300EF031201226AEF03120122BBEF03120181
:1014F30022F1EF031201222BF00312012259F00310
:101503001201227CF0031201222F8E0312012262A8
:101513008E03120122A58E03120122B08E03120143
:1015230022BB8E03120122C68E03120122D18E0327
:101533001201223D92031201221093031201228A07
:1015430093031201220194031201220E9403120148
:10155300221B94031201222594031201222F9403C8
:101563001201224B94031201225B94031201229D68
:101573009403120122C39403120122CD9403120196
:1015830022D79403120122E19403120122EE940361
:10159300120122F894031201220295031201220C74
:1015A300950312012216950312012260950312017D
:1015B300227D95031201229A9503120122AA950313
:1015C300120122B495031201220F96031201221C69
:1015D3009603120122E09603120122EA96031201F6
:1015E30022F49603120122FE96031201221B970393
:1015F300120122389703120122FC970312012206DB
:101603009803120122139803120122209803120156
:10161300224198031201224A98031201227198036E
:10162300120122989803120122BD9803120122C6C7
:101633009803120122D59803120122ED9803120197
:1016430022F6980312012205990312012214990329
:101653001201221D99031201222C99031201223C2B
:1016630099031201225B9903120122689903120163
:10167300227599031201228599031201229299037B
:10168300120122A29903120122B29903120122C26A
:101693009903120122F49903120122FE9903120104
:1016A300220E9A031201221E9A031201222B9A037D
:1016B300120122509A031201225D9A031201226D34
:1016C3009A03120122779A03120122849A031201C8
:1016D300228E9A031201229E9A03120122A89A03D0
:1016E300120122B29A03120122C29A0312012207A3
:1016F300D1041201220080041201220A8004120183
:1017030022488004120122918004120122CB80041A
:101713001201222181041201224281041201224B6F
:101723008104120122968104120122BF8104120155
:1017330022C98104120122D381041201223F8204AF
:10174300120122D582041201221F83041201224FA7
:101753008304120122D88304120122188404120183
:10176300225084041201226F84041201227884041B
:101773001201223E8504120122888504120122B13E
:10178300CB041201220AD104120122D4BF04120194
:101793002209C0041201223FC00412012288C1049D
:1017A30012012244D0041201225AD00412012264ED
:1017B300D004120122699D041201227E9D041201AC
:1017C30022319E04120122719E041201228A9E0478
:1017D300120122BE9E041201220B9F041201223F1A
:1017E3009F04120122819F041201227DA104120190
:1017F30022CD7F00120122F67F00120122CFCF04F7
:1018030012012211D204120122AAD104120122E9E7
:10181300D10412012222D20412012297CD04120113
:1018230022A7CD04120122BFCD0412012227CE0428
:10183300120122F2FE0312012277FF03120122DDBD
:10184300FF0312012253FF0212012256FF0212016B
:10185300228FFF02120122E2FF021201222DA504B0
:1018630012012241A504120122BAA5041201228FFA
:10187300A60412012261A804120122C5BA041201AE
:101883002266BB0412012297BB04120122E2BB04AD
:10189300120122A2BC04120122D5BC04120122FBB4
:1018A300BC041201220DBD0412012221BD04120148
:1018B300222FBD04120122529101120122CD910166
:1018C3001201226E9201120122A59301120122F448
:1018D3009401120122149501120122BD95011201F6
:1018E30022F89D01120122E9A401120122E1AD01B6
:1018F3001201221AAF01120122B5B90112012254B9
:10190300BA011201220EBC01120122CCBC01120148
:101913002205BD0112012231CE041201229CCE0404
:10192300120122A7CE04120122B7CE04120122C251
:10193300CE04120122A8C804120122F8C80412011D
:101943002281C904120122E7C9041201225BB504F2
:1019530012012285B5041201224BB604120122267C
:10196300B704120122ADB7041201220AE2031201E5
:1019730022C7E20312012202E3031201222AE30334
:101983001201228CE303120122D8E303120122384D
:10199300E403120122CBE403120122CAE50312017C
:1019A3002259E703120122DCE70312012243E80371
:1019B3001201225AE80312012264E9031201224DA3
:1019C300CF041201227DCF04120122B2CF041201EF
:1019D30022B4CF04120122B6CF04120122C7CF04CE
:1019E300120122C9CF04120122CCCF041201226DAD
:1019F300BD04120122DABD04120122FCBD0412014E
:101A03002234BE041201226ABE0412012251AF0421
:101A130012012294AF04120122B2AF04120122EA8E
:101A2300B1041201221EB20412012249B2041201AE
:101A3300225FD1041201221CF103120122FEF103E1
:101A4300120122EAF203120122FBF2031201220C19
:101A5300F30312012256F303120122F1F4031201DC
:101A6300224FF6031201227FF6031201224CF703E1
:101A7300120122ACF703120122CBFF01120122F360
:101A8300D10412010002020000205104AA16090029
:101A93000102030109024300020100801909040045
:101AA30000010202010005240010010424020205C2
:101AB30024060001052401000107058203400040BC
:101AC30009040100020A0000000705840240000126
:101AD30007050402400001A01A0000C31A0000E039
:101AE30066701008A3E066700A08A3E06670040835
:101AF300A3E06622C3E7960809E7960809E7960874
:101B030009E79622C3E09608A3E09608A3E09608A7
:101B1300A3E09622C008C3E096F50808A3E0964226
:101B23000808A3E096420808A3E09645087001D38D
:101B3300D00822BB0102E722C082C08389828A8344
:101B4300BB0003E08002E493D083D08222BB000E6B
:101B5300C082C0838A838982F0D083D08222BB0172
:101B630001F722080808EAC0E0EBC0E086F0E7A42A
:101B7300FA180986F0E7A42AFA180986F0E7A42AD6
:101B8300FA180986F0E7A42AFA1986F0E7A4FBE518
:101B9300F02AFA190886F0E7A42BFBE5F03AFA19C4
:101BA3000886F0E7A42BFBE5F03AFA18180986F04B
:101BB300E7A4C5F02BFBE43AFA1908E7C5F0C6A47D
:101BC30026F6E5F03BFBE43AFA1886F0E7A4F6E5DF
:101BD300F00826F6E43B08F6E43A08F6D0E0FBD03A
:101BE300E0FA22E4CFC0E0E4CEC0E0E4CDC0E0E41C
:101BF300CCC0E075F020E626F608E633F608E633B7
:101C0300F608E633F6181818EC33FCED33FDEE3323
:101C1300FEEF33FFC3EC9709ED9709EE9709EF97B2
:101C2300191919400FFFEC97FC09ED97FD09EE9781
:101C3300FE191906D5F0BFECF709EDF709EEF70920
:101C4300EFF7191919D0E0FCD0E0FDD0E0FED0E0A9
:101C5300FF226016080808C6C313C618C613C618A1
:101C6300C613C618C613C6D5E0EA227009080808C9
:101C7300226016181818C6C333C608C633C608C66A
:101C830033C608C633C6D5E0EA22E627F60809E6D6
:101C930037F60809E637F60809E637F622E026F6AE
:101CA30008A3E036F608A3E036F608A3E036F622EA
:101CB300E026F008A3E036F008A3E036F008A3E03E
:101CC30036F022C3E697F60809E697F60809E69781
:101CD300F60809E697F622C3E096F008A3E096F02B
:101CE30008A3E096F008A3E096F022E657F6080969
:101CF300E657F60809E657F60809E657F622E056CE
:101D0300F608A3E056F608A3E056F608A3E056F655
:101D130022E056F008A3E056F008A3E056F008A32B
:101D2300E056F022E046F608A3E046F608A3E046B4
:101D3300F608A3E046F622E066F608A3E066F60896
:101D4300A3E066F608A3E066F622E0F608A3E0F651
:101D530008A3E0F608A3E0F622E6F008A3E6F008FD
:101D6300A3E6F008A3E6F022E0FAA3E0FBA3E0FC7D
:101D7300A3E0FD22EAF0A3EBF0A3ECF0A3EDF02245
:101D8300E0F8A3E0F9A3E0FAA3E0FB22E8F0A3E97B
:101D9300F0A3EAF0A3EBF022CAC0E0E6F0A308DA6E
:101DA300FAD0E0FA22CAC0E0E0A3C582CCC582C55E
:101DB30083CDC583F0A3C582CCC582C583CDC5833E
:101DC300DAE6D0E0CA22C3E498F8E499F9121E0ACD
:101DD3008026C3E49AFAE49BFBE920E7E9121E0A92
:101DE300E498F8E499F922C3E498F8E499F9121E07
:101DF3000AE498F8E499F9C3E49AFAE49BFB22EB2A
:101E030020E7CFE920E7E0B90010BB0008E88AF03B
:101E130084F8AAF022E4FBC8FA22EB70227B10C8F4
:101E230033C8C933C9335007C39AC3DBF280069A58
:101E330050012ADBEAC833F4C8C933F4C9FA22755E
:101E4300F008E4C833C8C933C933C99AC99B5004DD
:101E5300C92AC93BD5F0ECFBC833F4C8E4C9FA225C
:101E6300600D08C6A2E713C618C613C6D5E0F32251
:101E7300600C08C6C313C618C613C6D5E0F4227097
:101E83000422600D18C6C333C608C633C6D5E0F4B2
:101E93001822251810AF08F518400C15198008F5FD
:101EA3001840021519D2AF2200C0D0251810AF0870
:101EB300F518500C05198008F51850020519D2AF12
:101EC300D0D0222518F58210AF08F518400C15194B
:101ED3008008F51840021519D2AF851983222518F9
:101EE300F582E43519F583222518F8E43519F9222A
:101EF3002518FAE43519FB222518FCE43519FD22CF
:101F0300E4732518C582C0E0E51934FFC583C0E03A
:101F1300E518C3958224F810AF08858319858218C4
:101F23008008858319858218D2AFCEF0A3E520F00F
:101F3300A37808E608F0A3DEFAEFF0A3E58124FA1C
:101F4300F8E608F0A3E608F0A3E608F0A30808E61D
:101F530008F0A3E608F0A315811581D0E0FED0E0D8
:101F6300F8158115811581E8C0E0EEC0E02225183F
:101F7300C582C0E0E51934FFC583C0E0E518C39509
:101F83008224F910AF088583198582188008858318
:101F930019858218D2AFCEF0A3E520F0A37808E626
:101FA30008F0A3DEFAEFF0A3E58124FBF8E608F0DE
:101FB300A3E608F0A30808E608F0A3E608F0A315D3
:101FC300811581D0E0FED0E0F815811581E8C0E0ED
:101FD300EEC0E022851983851882E0A3FEE0A3F515
:101FE300207808E0A3F608DFFAE0A3FFE0A3C0E04F
:101FF300E0A3C0E0E0A3C0E0E0A3C0E0E0A3C0E052
:1020030010AF088582188583198008858218858317
:1020130019D2AFD083D08202011F8519838518821C
:10202300E0A3FEE0A3F5207808E0A3F608DFFAE0DA
:10203300A3FFE0A3C0E0E0A3C0E0E0A3C0E0E0A30F
:10204300C0E010AF0885821885831980088582183F
:10205300858319D2AFD083D08222C0D02518C58200
:10206300C0E0E51934FFC583C0E0E518C3958224B9
:10207300F310AF0885831985821880088583198535
:102083008218D2AFC8F0A3E9F0A3EAF0A3EBF0A360
:102093007908E709F0A3D8FAECF0A3EDF0A3EEF08A
:1020A300A3EFF0A3D0E0F0A3D0E0F0A3D0E0F0A33F
:1020B300E520F0A3E5F0F0A322851983851882E0DB
:1020C300C0E0A3E0F9A3E0FAA3E0FBA37808E0F6FD
:1020D30008A3DFFAE0FCA3E0FDA3E0FEA3E0FFA377
:1020E300E0C0E0A3E0C0E0A3E0F5D0A3E0F520A3C7
:1020F300E0A3F5F010AF0885831985821880088561
:102103008319858218D2AFD082D083D0E0F8D0E093
:10211300327404800A74038006740280027401C05E
:10212300E0F404121EC6D0E0121D9B227404800842
:102133007403800474028000CCC0E0EDC0E0E518B5
:10214300C39CCCAD1950011D10AF068C188D19809E
:10215300068C188D19D2AF121DA8D0E0FDD0E0FC7B
:1021630022D083D082C5F0E493A3C5F0C395F0F5E4
:10217300F0E493A3C395F04005E5F0048001E47512
:10218300F002A42582F582E5F03583F583E493A379
:10219300C0E0E493C0E022D083D082E9C0E0E493BE
:1021A300A3C386F0C5F095F0F908E493A386F0C5C0
:1021B300F095F0700BE493A3C3994005E904800202
:1021C300A3E475F002A42582F582E5F03583F58357
:1021D300D0E0F9E493A3C0E0E493C0E022D083D03D
:1021E30082CCC0E0E493A3600612220A1470FAE4DE
:1021F30093A360061222291470FAD0E0FCE493A39F
:10220300C0E0E493C0E022C0E0E493A3D39C501069
:10221300E493A3C39C400AD0E0D0E0D0E00221FDC8
:10222300A3A3A3D0E022C0E0E493A36C7009D0E0A1
:10223300D0E0D0E00221FDA3A3D0E022D083D0825E
:10224300ECC0E0EDC0E0E493A3FCE493A3FDED4C0C
:10225300600D12228BEC24FFFCED34FFFD80EFE4D4
:1022630093A3FCE493A3FDED4C600D1222CAEC246E
:10227300FFFCED34FFFD80EFD0E0FDD0E0FCE49304
:10228300A3C0E0E493C0E022C0E0C3E493960874E3
:1022930001939618400FE4936670080874019366DF
:1022A3001870007019A3A3C3E4939608740193965E
:1022B30018A3A3400DD0E0D0E0D0E002227BA3A37B
:1022C300A3A3A3A3D0E022C0E0C0F088F0E4936608
:1022D30070080874019366187000A8F0A3A3700B2C
:1022E300D0F0D0E0D0E0D0E002227BA3A3D0F0D0A6
:0222F300E022E7
:1022F80074F5121F71EAFEEBFFEE2434F8EF340098
:10230800F988088909EE2435122424F8EE243712B6
:102318002424F50AEC850AF0A4FCAAF0850AF0ED5D
:10232800A42AFDE82CF8E43DF97A257B00121E0A60
:10233800EA850882850983F074075AF87401B800A1
:10234800028004C333D8FCFBEA131313541FF8EEBE
:1023580028F8EF3400F9E8245DF582E91224275BB8
:102368006003EA801CEE2436122424F5F0EA84A8DF
:10237800F0EE28F8EF3400F9E82438F582E9122461
:1023880027F97F0402201D74F5121F71EAFEEBFF86
:10239800EE2434122424C0E0EE2435F582EF340014
:1023A800F583D0E0F08E828F83A3A3A3A3A3E0FAE2
:1023B800A3E0FB8E828F83A3A3A3A3A3A3A3E0FC24
:1023C800A3E0FDECC39AF50AED9BF50BEE247FF52F
:1023D80008EF3400F509850882F583E06401702B65
:1023E800EE2480F582EF3400F58312213712242D74
:1023F8007402121EABE960137CCF7D07EEFAEFFB87
:10240800120F99850882850983E4F0AC0AAD0BEEBA
:10241800FAEFFB1222F8122C5B02238AF582EF34C2
:1024280000F583E022C082C083851882851983E085
:10243800F8A3E0F9C3EA9CEB9D5010C3EC98ED9922
:10244800401BC3EA98EB995014800EC3EA98EB99A5
:102458004007C3EC98ED994004790180027900D0D7
:1024680083D08222EAC39CFAEB9DFB2274ED121FF3
:1024780071900489E064086005E06407702C90613D
:10248800C8E060269004B7E0F874FF68601CE8753F
:10249800F005A4C8AAF02AF974B928FE740439FF13
:1024A8008E828F83A3A3A3E07005790002261DEE18
:1024B8002468F510EF3400F511906060E085108213
:1024C800851183F0750862750908750A00750B0097
:1024D800E5D914F50EE5D95403F50F601CEE2482F6
:1024E800F50CEF3400F50D7403650F6058E50E60C8
:1024F80013EE2467122424700B793DEEFAEFFB12D9
:102508000FC980A690085DE064016026850C82856D
:102518000D83E06004780480027800850E0AE50ADD
:10252800C398FA95E0FB120C9F8A0A8B0BEA450BBD
:1025380070061212CF0224B2850C82850D83E070DA
:10254800048A088B0978008016E5D9C0E08812E56E
:10255800082512F582E5093400F583D0E0F008E893
:10256800C3950E40E4850C82850D83E0602874FCD9
:10257800250EF50E780812211CAC0EA90FEEFAEF05
:10258800FB1210897402121EABE9700AAA0AAB0B7F
:1025980012193B0225017403650F6058850E0C75EE
:1025A8000D00780C12211CAC08AD09AA0AAB0B125D
:1025B800104D7402121EAB851082851183E0F874E9
:1025C80080687005750C7F8002880CE50CF508782A
:1025D80008122120E50FF5087808122120A90EAC71
:1025E8000AAD0B9004B7E0FA7B00120B07740212D5
:1025F8001EAB801C900489E06408AC08AD09700922
:10260800EEFAEFFB1210B98007EEFAEFFB12117326
:102618001212DB79017F0C02201D74F3121F7174F2
:10262800FC121E95EAFEEBFF8908A2AFE433F50918
:10263800C2AFEE2463F50AEF3400F50B8010AA0A46
:10264800AB0B120FFF12193B9007D6E004F0850A76
:1026580082850B83E0F8A3E0F9E849602FE82402BB
:10266800FAE93400FBEA2402F50CEB3400F50D78A6
:102678000C12211C8A828B83E0FCA3E0F9EEFAEFAE
:10268800FB120FF37402121EABE960B29007D6E09A
:1026980060579007D7E0F89007D6E0C398500C74BD
:1026A80002650870449007D8E0603E8E828F83A34D
:1026B800A3A3A3E085188285198312270174021247
:1026C8001EE1E81227019007D5E028F07402121ED7
:1026D800E1AC82AD83851882851983AA82AB8379A0
:1026E80001120B139007D6E4F0E509A2E092AF744B
:1026F80004121EAB7F0602201DF0A3E4F09007D65B
:10270800E0F822008521878522C622C0E074EF12F6
:10271800205DA2AFE433FEC2AF759B00906182E0FA
:10272800A2E05012E591A2E0500C7591FE7401658B
:10273800217003122474E0A2E55051E591A2E550FE
:102748004B7591DF900489E064076005E0640870C8
:102758002374016521703579019004B7E0FA75F0AA
:1027680005A4CAA8F028FB74B92AFA74043BFB1222
:1027780026228018E0640D70139004ABE004F06426
:10278800287002E4F07A00E0F91212F9906182E010
:10279800A2E6400302283AE591A2E6400302283A5D
:1027A8007591BF900489E0640570081211B5121183
:1027B800C180031211BB752100121239E990048AF5
:1027C800F0790012121B120EB57A017B0090048872
:1027D800E0F9121755907803E0644270559008614B
:1027E800E014F0704DC2AF1227F2007831D0E0F655
:1027F80018D0E0F6E59F540770057509FF8003754A
:10280800097FC4C0E07830E6F50808E65509F509FF
:10281800740B7808121E73D0E02508F8906270E0F7
:10282800A2E740F8E8C333906272F0906270E0D299
:10283800E0F0906181E0A2E35009E5E9A2E35003EA
:1028480075E9F7A3E0A2E75009E591A2E7500375FF
:10285800917FEEA2E092AF7F040220BCC0E0C0D01E
:10286800C082C083906183E0A2E05009E5BFA2E086
:10287800500375BFFEE0A2E15009E5BFA2E1500395
:1028880075BFFDE0A2E25009E5BFA2E2500375BFA3
:10289800FBE0A2E35009E5BFA2E3500375BFF7E0F0
:1028A800A2E45009E5BFA2E4500375BFEFE0A2E53A
:1028B8005009E5BFA2E5500375BFDFE0A2E6500965
:1028C800E5BFA2E6500375BFBFD083D082D0D0D079
:1028D800E032C0E074F212205DE5A7A2E4500FE5F3
:1028E800A1A2E4500953A7EF75A1EF12292EE5A77D
:1028F800A2E5500CE5A1A2E5500653A7DF75A1DFBC
:10290800E5A7A2E15009E5A1A2E1500375A1FDE503
:10291800A7A2E2500CE5A1A2E2500653A7FB75A1BD
:10292800FB7F010220BC74F8121F7175210190040D
:1029380089E0640670077A007B0012119DA2AFE45B
:1029480033FED2AF90048FE0640170187A207B00C8
:10295800900488E0F91217D97A207B00900488E067
:10296800F912175B906182E0D2E6F090085EE060B1
:102978002185C622801690048EE064017008E5C6A1
:1029880054F84405F5C653BEFC12270C74016521A2
:1029980060E4EEA2E092AF7F0102201D8E238F2417
:1029A800858228858327851882851983E0CEA3E050
:1029B800CF852882852783EBC9EAC8EDCBECCA7599
:1029C800F010C3E833C8E933C9EA33CAEB33CBC3E1
:1029D800EA9EF526EB9FF525B35004AB25AA26EC15
:1029E80033CCED33CDD5F0DAAE23AF242274F11217
:1029F8001F718A088B098C0A8D0B9090FE7808123B
:102A08001D01740F121EE1780C121D4D9090FE7876
:102A18000C121D017808790C121AF79090F65010D4
:102A28007808790C121CC67808121B174014800EFF
:102A3800780C7908121CC6780C121B1750047901FF
:102A4800800279007F0802201D74ED121F718A0828
:102A58008B098C0A8D0B9090FE7808121D01741357
:102A6800121EE1780C121D4D9090FE780C121D017B
:102A7800780C7908121AF740117808790C121CC6DC
:102A8800AA08AB09AC0AAD0B8022751000751100BD
:102A98007512007513017810790C121CC67810791C
:102AA80008121C8DAA10AB11AC12AD137F0C0220BA
:102AB8001D9090FE7808121D4D8A828B837808122B
:102AC8001D147F0402201D74F5121F718C828D83E2
:102AD8007808121D4D8A828B837808121CDA122B13
:102AE80023C3E098F0A3E099122B15401E90912281
:102AF8007808121D4D8A828B837808121CB38E8247
:102B08008F83E02420F0A3E0344EF080A4F08E827E
:102B18008F83C3E09420A3E0944E22EA2404F8EBC8
:102B28003400F9E8FEE9FF8C828D83A3A3A3A3E018
:102B3800F8A3E0F98E828F832274F5121F71E9FEE3
:102B48009007EAE0FAA3E0FBEEC333F8E433F97444
:102B58005928F582749039F583E02AF508A3E03BFB
:102B6800F509780812211C90911E121D6B1229A4D8
:102B78007402121EAB8A088B098C0A8D0B741078AC
:102B880008121C55AA08AB097F0402201D74F11213
:102B98001F718A0C8B0D8C0E8D0F740F121EE1E0C5
:102BA800FAA3E0FB7411121EE1E0F508A3E0F509B1
:102BB800780812211CEA2401F508EB3400F509E431
:102BC800F50AF50B780C7908121B669091027808C3
:102BD800121D4D780C7908121B66AA0CAB0DAC0EB1
:102BE800AD0F1229A47402121EAB8B09EA450960C5
:102BF800047A0180027A00EC2AFCED3400FD74139B
:102C0800121EE1E0F8A3E0F9E8FEE9FFECF8EDF9BF
:102C18007A717B02121E0A88088909E4F50AF50B05
:102C28008E828F837808121D5CECF8EDF97A717B3F
:102C380002121E0A8A088B0974057808121E828EF1
:102C4800828F83A3A3A3A3E508F0A3E509F07F0877
:102C580002201DC082C083E9906000F0D083D0823A
:102C680022C2AF02000022C0E074F212205DA2AFBF
:102C7800E433FED2AFE58AA2E25007900E2DE0D2EF
:102C8800E0F0E58AA2E35007900E2DE0D2E1F0755E
:102C98008A00C2EB7A107B00900E29E0F9121755D2
:102CA800EEA2E092AF7F010220BCC0E0C0D0E8C035
:102CB800E0E9C0E0E5A8D2AFC2C7A2E7A2E792AFB9
:102CC800D0E0F9D0E0F8D0D0D0E032C0E074F11212
:102CD800205DE59DA2E650FA906206E0FAA2E25075
:102CE80035A82EE890620BF0F508852F0974047852
:102CF80008121E73E508906207F0852E08852F09D3
:102D080074097808121E73E508543E906209F09021
:102D18006201E0D2E0F0782BEA46F6906202E0F534
:102D28000875090074047808121E82782BE5084695
:102D3800F608E50946F6906204E0F508750900749E
:102D4800097808121E82782CE50946F6EAA2E050B6
:102D580003752D0174065A6003752D00E58BA2E5F5
:102D68005006758BDF752D001219E9758B00C2E8C6
:102D78007F020220BC02011FFFFFFFFFFFFFFFFFD2
:102D880074F4121F05E9900488F01211DF9078009E
:102D9800E0C4540F540764037004793F8002797FBC
:102DA800750806750900780812211C7C767D047A5E
:102DB800EA7B071218337402121EAB900476E0F413
:102DC8007049A3E0F47044A3E0F4703FA3E0F4700A
:102DD8003AA3E0F47035A3E0F4703090780EE090F8
:102DE8000476F090780FE0900477F0907810E090F7
:102DF8000478F0907811E0900479F0907812E090DF
:102E0800047AF0907813E090047BF090047C122F01
:102E18006E1254489004A67406F0A3740D123C7404
:102E28007440F0A37401F09007DE122F6E9007DD56
:102E3800E4F09007E4F0A374A0123C747403F0A3C8
:102E48007407123C747428123C7404F0A3E4F090E4
:102E5800080DF0900833122F6E900832E4F09008B5
:102E68003904123C74122F5CE4F0A304F0A3123C62
:102E780074123C72F090084A122F6E900849E4F0E0
:102E880090085004F0A3E4122F5C123C72F0A37473
:102E980005F090085A74FFF0A3E4F090085CF090F5
:102EA800085E04F090085F7490F0A37401F0120EAD
:102EB800CD120CA512118579017A617B0812101DBB
:102EC800900861E075F01484E5F004F0790C7A82DA
:102ED8007B0812101D1210417A00900488E0F91244
:102EE80017AF907803E064427055900861E014F0E1
:102EF800704DC2AF122EFF007831D0E0F618D0E046
:102F0800F6E59F540770057509FF800375097FC4AE
:102F1800C0E07830E6F50808E65509F509740B783D
:102F280008121E73D0E02508F8906270E0A2E7400E
:102F3800F8E8C333906272F0906270E0D2E0F090EB
:102F480004B3E4F0A3F07A80FB900488E0F9121748
:102F580055023566122F65122F65F0A322F0A3746F
:102F680080F0A374022274FF123387F0A3F0227456
:102F7800F4121F05EAFEEBFFEEA2E0504090048A2F
:102F8800E0C39480E0500FC333F8E433F974432866
:102F9800F5827410800EF4C333F8E433F9745128C1
:102FA800F582741039F5831243F1121F037A0090E9
:102FB8000488E0F91217AFEE64010231E0540860AA
:102FC80059900858123222750800780812212012E8
:102FD80031F8121E73780812211CEA2430F582EBAE
:102FE80012498712213712320912211C7508C97536
:102FF8000907780812211C9007C8E0FD7C008A8226
:103008008B83A3A3A3A3E0FA7B007900120B43747C
:1030180009121EABEE64080231E0EE5410604075F0
:1030280008007808122120E4F509780812211C7894
:103038000812211C780812211C7508C9750907781F
:103048000812211C9007C8E0FD7C007A007B0079FB
:1030580002120B437409121EABEE64100231E0EE4B
:10306800540260387508007808122120E4F50978C0
:103078000812211C780812211C780812211C7508D6
:10308800C9750907780812211C1231EC793C120B1A
:10309800437409121EABEE64020231E0EE54046080
:1030A800619004B7123222EA242AF582EB124C6BA3
:1030B800F50878081221201231F8121E73780812C8
:1030C800211CEA2420F582EB12498712213712329B
:1030D8000912211C7508C9750907780812211C9066
:1030E80007C8E0FD7C018A828B83A3A3A3A3E0FA2F
:1030F8007B007900120B437409121EABEE640402C4
:1031080031E0EE544060387508007808122120E458
:10311800F509780812211C780812211C7808122158
:103128001C7508C9750907780812211C1231EC7939
:103138003B120B437409121EABEE64400231E0EE01
:103148005480602F90085F123AE749602179001295
:1031580017A990085F1243DC78081221147A007BC3
:1031680001900488E0F91217CD7404121EABEE64C6
:10317800808065EF5401600C79011217A9EEFAEF0F
:1031880064018056EF5402600AC2AF75C9AB75C9B5
:103198005B80FEEF5404600A122C69EEFAEF6404B7
:1031A800803890048FE064017033EE5420602E90D4
:1031B8000489E024F9600314701B793F9004B7E098
:1031C800FA75F005A4CAA8F028FB74B92AFA7404A1
:1031D8003BFB120FC9EE6420FAEFFB80047A007BF8
:1031E800000235669007C8E0FD7C017A007B00226A
:1031F800EA2432F582EB1249A212497C7404780859
:1032080022EA242EF582EB124EF6F508A3E0C3134A
:10321800F509E50813F508780822E0F875F005A423
:10322800C8AAF012322F222AF974B928FA7404397C
:10323800FB2274F6121F05C3EA9411EB94005004A4
:103248007A1080027A20EA2408FAE43400FB121982
:10325800358A088B09A808A909E849600AE82404FE
:10326800FAE93400FB80047A007B00023F4E74F6D2
:10327800121F05EA2405FAEB3400FB1219358A08F7
:103288008B09A808A909E849600AE82405FAE9347D
:1032980000FB80047A007B00023F4EC082C083C2DC
:1032A800AF1211BBE5E170FC75E101120E9D75E1ED
:1032B800F11211F7120E9179071212B17901121257
:1032C800B7790212122112125712129379001212B0
:1032D800A579011212A5909106121D6B1212099080
:1032E80007C8E4122F70A3F09007E4F0A3F0A3F04E
:1032F8009007E87407F09007E77403F09007EDE48F
:10330800F09007ECF090080DF090083AF090085112
:10331800F0120FB11210E9120FD579001212BD90F8
:1033280007CF74FF123387741FF0906012E4F0A384
:10333800F0906063F0752100900489F09007D4F054
:103348009007D5740CF09007D6E4F09007D704F0F6
:103358009007D8E4F09007D904F09007DAE4F090E9
:10336800048BF0A3F090048EF090048F04F0900486
:10337800A57403F090085DE4F0D2AFF90250F5F0BF
:10338800A3F0A3F0A3F0A322C082C083900476E048
:103398008A828B831242148A828B83A312420E8AFA
:1033A800828B83A3A31242088A828B83A3A3A312CE
:1033B80042028A828B83A3A3A3A3F090047BE08AB2
:1033C800828B83A3A3A3A3A30250F2C082C0838AE3
:1033D800828B83E090047C123409E090047D1234DF
:1033E80009A3E090047E123409A3A3E090047F129D
:1033F8003410E0900480123410A3E090048102504D
:10340800F2F08A828B83A322F08A828B83A3A3A300
:10341800A322C082C083120ED9E97005121257790F
:10342800000250F574F7121F05EAFEEBFF89081237
:103438000ED9E9702CE508600A74016508600A79FC
:1034480012801E7C00790080047C007901EEFAEF7E
:10345800FB121263E9F87403687004790780027933
:103468000002422274F7121F05EAFEEBFF890812D8
:103478000ED9E9702DE508600A74016508600879BD
:1034880012801F790080027901EEFAEFFB121269AF
:10349800E9F874046860057405687004791F80028F
:1034A800790002422274F7121F05EAFEEBFF12129E
:1034B8005D02421A74F6121F05EA4B600EEC4D606D
:1034C8000A740A121EE112517D70047912800F7875
:1034D8000812211C1210357402121EAB7900023F2B
:1034E8004E74F4121F05EAFEEBFF8908900489E088
:1034F80064096014E0640A600FE0640B600AE06429
:103508000C6005E0640D7004790C801E1211138B99
:103518000BEA450B700BA908EEFAEFFB12101D80A1
:103528000990048BE04440F0790D803274F4121F46
:1035380005EAFEEBFF890BEE4F6003E97004791290
:10354800801C750A00121017850A08EE2508124912
:1035580084E9F0050AE50AC3950B40E979007F0480
:10356800021FD774F7121F058A828B83E04433F059
:10357800A3A882A983E04433123F08D2E6F0EA24E4
:1035880003FCEB3400FD8C828D83E0D2E4F0EA2466
:10359800021236CC44C0125443440312543E440F22
:1035A800123F08448C125443D2E5123F0FE044CC3A
:1035B80012544344CC12543E443002421FC082C0CD
:1035C800837C008C82A8827900124EEBC0E0EA2846
:1035D800F582EB124987D0E0F00CECC3940840E385
:1035E8000250F574F7121F057409121EE112498B77
:1035F8009004A6E08A828B83F09004A71243E58C9E
:10360800828D831249F39004A91243E58882898345
:10361800EAF0A3EB02421FC082C083E9F874016894
:10362800700B90085D7401F079000250F5E870069F
:1036380090085DE480F1791280F074F7121F05EAB2
:10364800FEEBFF120D71E9705EEEF8EFF9E875F028
:1036580005A4C8AAF02AFA75F005E9A412322F8A3F
:10366800828B83A3A3A3E070047902803AEA24EC56
:103678001236D77035EA24F2F582EB124987122107
:1036880037EA24F0F582EB124987122137EA24EF52
:10369800F582EB124C6BFCEEFAEFFB7900120B5B38
:1036A8007404121EAB7900024222EA24ED1236CCD1
:1036B800700E790C120F878E828F837401F080E56B
:1036C800793A80E3FEEB3400FF8E828F83E022F5A7
:1036D80082EB124EF664012274F7121F05ECFEED20
:1036E800FFEE4F6027EA6005146015801F120EC7B1
:1036F800E9F88E828F83F0748068700B79308009C6
:103708008E828F837404F07900024222791280F944
:1037180074F5121F05890AEAFEEBFF8908AA087BDF
:1037280000120D71E97032A80A123778245DF5820B
:10373800E9124C6B8E828F83F0E8245E123766F0B4
:10374800E8245F123766A3F0E8246012378CF0E8AB
:10375800246112378CA3F079007F03021FD7123738
:103768006A22F582E93400F583E08E828F83A322F2
:10377800E875F005A4C8AAF02AF974B928F8740401
:1037880039F9E82212376AA3A32274F6121F05EA50
:10379800FEEBFF8C088D09900489E0640C7005909D
:1037A800618E8013120D71E9702F12579474212EB7
:1037B800F58274053FF583E0F9748069700A85081D
:1037C80082850983747F800E90048DE0F8E9C398A0
:1037D800850882850983F07900023F4E74F7121F2D
:1037E80005EAFEEBFF89087405650860287413650F
:1037F80008602274146508601C74156508601674E6
:103808001A6508601074296508600A743B650860C9
:103818000479128041120D71E9703B1244C3241DD2
:10382800F8EB3400F9EA24F6FCEB3400FDEA2469ED
:103838001236D77019EA246AF582EB124C6B6402CF
:103848007004793A8010123861120F93800612388A
:1038580061120F8779000242228C828D83E508125B
:103868003F0FE4F0A3F079022274E8121F058A08DA
:103878008B098C0A8D0B8917EC450B6016E9C394EC
:103888001C50107418121EE1E0F50C600B740165F1
:103898000C60057912023AE2120D71E96003023AEE
:1038A800E2A808E875F005A4C8AAF02AFA75F00598
:1038B800E509A42AF974B928FE740439FF9007D5DC
:1038C800E070057907023AE2E50A24FEF50AE50BFD
:1038D80034FFF50B850A82F583E517F0E50C7004D3
:1038E800740280027401A3F0E50A24FEFCE50B349F
:1038F800FFFDEE2463FAEF3400FB120FF99007D5B1
:10390800E01412440764086008E064076003023AA0
:10391800E09004B7E065087002E5096003023AE048
:103928007900EEFAEFFB1226229061D0E0700302D4
:103938003AE09007D9E064016003023AE0EE241D02
:10394800124984123AE7497003023AE0A2AFE4331D
:10395800F516C2AF1211D38A088B091211D3EA6582
:10396800087003EB65097003023ADA1211138A082A
:103978008B091211CD8A0C8B0D8C0E8D0FE5082446
:1039880002F514E5093400F5158A108B118C128D97
:10399800139091167810121CA07810122114851417
:1039A80082851583121D6B1229F57404121EABE96A
:1039B80064016003023ADAEE242EF50AEF3400F5CA
:1039C8000B850A82F583E024061249BF780C79102A
:1039D800121C8D780C122114851482851583121DF2
:1039E8006B1229F57404121EABE964016003023AF4
:1039F800DAE5082408F510E5093400F51185108288
:103A0800F58312212FAA0CAB0DAC0EAD0F122A5163
:103A18007404121EAB850A82850B83122137122982
:103A2800A47402121EAB8A0C8B0D8C0E8D0F7410B1
:103A3800780C121C55A80CA90D8E828F83A3A3A302
:103A4800A3A3A3A3A3A31243E58E828F831249EEF7
:103A5800EA28FAEB39FB8E828F83A3A31249EE85FD
:103A68001082851183C082C083850A82850B83E01A
:103A7800F510A3E0F511780C7910121B66D083D0ED
:103A880082780C121CA09090FE780C121D018514EF
:103A980082851583E50CF0A3E50DF0A3E50EF0A3F0
:103AA800E50FF0850882850983A3A3A3A3A3A3E454
:103AB800F0A3F0EE2435124C68C0E0EE243412492D
:103AC80084D0E0F0EEFAEFFB12238FAA08AB0912BC
:103AD80010F5E516A2E092AF79007F10021FD71209
:103AE8004990F9E82274F5121F05E9FEEAFF8B0AEE
:103AF800EEC394284003023BF1EFC394264003022F
:103B08003BF1EB602D7401650A60277402650A6059
:103B1800217403650A601B7404650A6015740565E1
:103B28000A600F7406650A60097407650A60030273
:103B38003BF1900489E060057921023C171211BB22
:103B4800120EA375E1F17A0179011212E19090E663
:103B5800121D6B12124B7A00EEF91212F97900124B
:103B680012C39004A5E0F9120EC174022FF5D9858D
:103B78000AD98FD9E50A601714602014602A1460E6
:103B88006C14603114603B14604514604F805A789F
:103B980000E8C39F50571252D180F67800E8C39FBF
:103BA800504B75D90F0880F57800E8C39F503E75D3
:103BB800D9550880F57800E8C39F503175D9FF08BA
:103BC80080F57800E8C39F502475D9000880F578FF
:103BD80000E8C39F501775D9F00880F57800E8C34E
:103BE8009F500A75D9AA0880F57912802275E19547
:103BF800EE9004ABF0EFA3F0E50AA3123C7A740947
:103C08001252E21212AB7A007B0012119D79000267
:103C1800376174F7121F05E9FEC39428400479122E
:103C28008045900489E060047921803B1211BB1221
:103C38000EA375E1F17A0179001212E79090E6126D
:103C48001D6B12124B7A00EEF91212F9790012125A
:103C5800C3EE9004AB123C7474FF123C7A740AF001
:103C680079181212AB79000242227425F0A3E4F00D
:103C7800A322F0A3E41233877480F090048922749D
:103C8800F6121F05900489E064096009E0640A607F
:103C9800047921805FE5E170FC75E101E064097059
:103CA800147AAE7B041212ED79051212C379007AE8
:103CB800007B00802DE0640A702B7508B27509043A
:103CC800780812211C7CB07D047AAE7B041212F3B2
:103CD8007402121EAB79051212C379019004AE1258
:103CE80043E5120B73120E9D120E9175E1F19004CB
:103CF80089E4F0F9023F4E74EE121F05EAFEEBFF6D
:103D080089087413121EE1E0F5097414121EE112F9
:103D1800498BE508604B74016508601574036508F4
:103D28006029740265086023740465086003023D15
:103D3800BBE849607EE50960067401650970747422
:103D4800036508600674026508702AEE2460FAEFBD
:103D5800123EC6505EEC2460FAED123EC640168054
:103D680052EE24E0FAEF123EBB5048EC24E0FAEDA4
:103D7800123EBB503EC3EC9EED9F40377412121E9C
:103D8800E1E0FA600574016A70297417121EE1E017
:103D9800F50E60127401650E600C7402650E600603
:103DA8007403650E700D7416121EE1E0FB74075B58
:103DB800FB70057912023EB69007E4E064017005D5
:103DC800790C023EB6E5089007E7F0EBA3F0E50EA4
:103DD800A3F0EA9007DD7027E4F0900476E09007FE
:103DE800DE1242149007DF12420E9007E0124208DA
:103DF8009007E11242029007E2F090047B802E7453
:103E080001F090047CE09007DEF090047DE09007DC
:103E1800DFF090047EE09007E0F090047FE09007E8
:103E2800E1F0900480E09007E2F0900481E09007D0
:103E3800E3F0E82405FAE93400FBE82404FCE9345B
:103E480000FDE82403F50AE93400F50BE82402F53F
:103E58000CE93400F50D88828983A3858210858357
:103E68001174016508700B123ED19007E5E4F0A3C8
:103E78008039740465087005123ED18027E50E70FC
:103E8800047900801C7401650E7004790180127435
:103E980002650E7004790280087403650E70057956
:103EA8000312126F9007E5EEF0A3EFF079007F0A96
:103EB800021FD734FFFBC3EA94E1EB943F2234FF9F
:103EC800FBC3EA9461EB943F22E5099007C8123FCF
:103ED8000FE09007C9F0851082851183E09007CA2A
:103EE800F0850C82850D83E09007CB12543590073E
:103EF800CC12589DE09007CD123F089007CEF022D3
:103F0800F08A828B83E022F0888289832274F612F9
:103F18001F05E9FEC39420500BEE9007EDF0601EDC
:103F2800EA4B70047912801E12411E12211CEAFC11
:103F3800EBFD7AEE7B071216FB7402121EAB90079C
:103F4800EC7401F079007F02021FD774F4121F0588
:103F5800E9FE900489E064097003024058E0640AAD
:103F68007003024058E0640B7003024058E0640C90
:103F78007003024058E0640D70030240589007E750
:103F8800E0F860177401686012740368600D7402C9
:103F980068600874046860030240BD9007DDE0F9BA
:103FA800600874016960030240BD740368600574A9
:103FB800026870109007E5C3E094A0A3E094005055
:103FC800030240BDEE70030240521460030240BD7C
:103FD8009007E4E064016078E8600A7401686005AD
:103FE800740468700812111FE954FD706379011296
:103FF80011079007DB1249F39007E4740112440794
:1040080070431211CD8A088B098C0A8D0B9090DEB3
:104018007808121CA09090FE7808121D019007DB0A
:104028001243EB7808121D5C9007DB1243F9120E5D
:10403800DFE9600E7ADB7B0712110D9007E4E4F0EC
:10404800800E1210EF79000235669007E4E07004E4
:10405800792180F3A2AFE433FFC2AF7ADB7B07128A
:10406800110D9007E4E4F012112BE970411211BB15
:10407800906182E0C2E6F0E5E170FC75E1017591BE
:10408800BF75E1F190048FE0640170187A207B001D
:10409800900488E0F91217D97A207B00900488E010
:1040A800F912175B7A00900488E0F91217AFEFA2B3
:1040B800E092AF80907912808E74F7121F05EAFEA5
:1040C800EBFF120EC7E9F88E828F83F07480687058
:1040D8000479308002790002422274F6121F05E941
:1040E800FEC39420500BEE90080DF0601EEA4B7052
:1040F800047912801E12411E12211CEAFCEBFD7A83
:104108000E7B081216FB7402121EAB9007EC7401AA
:10411800F07900023F4EE0F508750900780822742E
:10412800F7121F05E9FE600574016E7032740912FA
:104138001EE1E0FF600574016F70241243D3501F25
:10414800EC24FCF8ED1243D85015C3EA9CEB9D40D3
:104158000E740A121EE1E0F8600A740168600579BD
:104168001202420090083AE064017005790C02429C
:1041780000EEA3F0E8900840F0EF9008327027E4D2
:10418800F0900476E09008331242149008341242FA
:104198000E900835124208900836124202900837ED
:1041A800F090047B802E7401F090047CE09008333A
:1041B800F090047DE0900834F090047EE09008359B
:1041C800F090047FE0900836F0900480E090083783
:1041D800F0900481E0900838F090083C1249F3A36D
:1041E800ECF0A3EDF0E870047900800774016870C2
:1041F80005790112127579008020F090047AE02286
:10420800F0900479E022F0900478E022F0900477AE
:10421800E022E98E828F83F079007F01021FD77434
:10422800F0121F05E9FEEAFF900489E064097003B3
:10423800024337E0640A7003024337E0640B7003FB
:10424800024337E0640C7003024337E0640D7003E7
:1042580002433790083BE0F8600874016860030285
:1042680043CE900832E0F8600874016860030243A6
:10427800CE90083C1243E51243D340030243CEA339
:10428800123AE724FCFCE934FFFDC3EC94FDED94FD
:104298003F40030243CEC3EA98EB9950030243CE52
:1042A800EF600874016F60030243CEEE607B146018
:1042B800030243CE90083AE0640160737902121158
:1042C800079008301249F390083A7401F0900839C1
:1042D800F0EF900841124407704A120F031211CDF3
:1042E8008A0C8B0D8C0E8D0F9090D6780C121CA01A
:1042F8009090FE780C121D019008301243EB780C58
:10430800121D5C9008301243F990083E1243DC7885
:104318000C7908121C8D900830124995780C121DE2
:104328005C1210EF79000250B790083AE0700479F7
:104338002180F3A2AFE433F508C2AF7A307B0812CC
:10434800110D90083AE4F012112BE970461211BBD6
:10435800906182E0C2E6F0E5E170FC75E1017591DB
:10436800BF79011212B775E1F190048FE064017012
:10437800187A207B00900488E0F91217D97A207BFC
:1043880000900488E0F912175B7A00900488E0F93D
:104398001217AFE508A2E092AF900840E0F8740168
:1043A80068700612129302432CA3E06401600302B2
:1043B800432CE8600302432C12125712129379011E
:1043C80012129F02432C791202432EEA24FCF8EBC6
:1043D8001249B12212497CE4F50AF50B22E0FAA34E
:1043E800E0FB221243F1A3A322124990F5838882AD
:1043F80022124990C8240612499FE4F0A3F022F043
:10440800900489E02274F6121F05EAFEEBFF8C087F
:104418008D09900489E064076004790C804FEC45AD
:1044280009700479128046120D71E97040124F39F3
:104438007E008E82AC82E5082CF582E509124C6B71
:10444800C0E0C3E49CF895E0F9EA28F8EB124F05C0
:10445800D0E0F00EEEC3941040D8EA24D3F582EBF6
:104468001249877401F07905120F877900023F4ECF
:1044780074F7121F05EAFEEBFF900489E0640760F9
:1044880004790C8033120D71E9702D1244C324DCB9
:104498001236D77010EA24F6F582EB1249877406B3
:1044A800F07902800EEA24DDF582EB124987740662
:1044B800F0790D120F877900024222124F3DEA224D
:1044C80074E8121F0574FB121E957403121EE11284
:1044D80049F37401121EE1ECF0A3EDF0E9851882AE
:1044E800851983F07429121EE1E0FEA3E0FF742B06
:1044F800121EE112497C900851E0640170030246E3
:10450800767904121119E964017003024676900461
:1045180089E064097003024676E0640A7003024683
:1045280076E0640B7003024676E0640C7003024682
:1045380076E0640D70030246767403121EE1124998
:10454800A7400302470D7401121EE11249A7400358
:1045580002470D7403121EE1C082C0837401121E4B
:10456800E112498BD083D082C3E098A3E09950032D
:1045780002470D741E121EE1E0F516A3E0F517853B
:104588001882851983E060096401600302470D8081
:1045980009E5164517700302470D741D121EE1E068
:1045A80060076401600302470D7420121EE1E06099
:1045B800076401600302470DC3E5089EE5099F50A3
:1045C8000302470D7421121EE11243E5EA24FAF8AA
:1045D800EB124C5F400302470D7423121EE112498F
:1045E8008B7423121EE1124C8E7423121EE1E024F8
:1045F800FAF8A3E0124C5F400302470D7423121E21
:10460800E1C3E09AA3E09B500302470D7425121EF4
:10461800E112498B7425121EE1124C8E7425121E6C
:10462800E1C3E094F4A3E09401400302470D74272A
:10463800121EE1E0F514A3E0F515E51424F6F8E5FB
:1046480015124C56400302470D7901121119E964FD
:104658000170119007E7E0F86014740168600F7446
:104668000468600A7940121119E96401700579211A
:104678000249747423121EE1E0FEA3E0FFEEC33387
:10468800FEEF33FF85140C85150D7403780C121E8C
:1046980082F50EF50F7425121EE11249BC8E088FA3
:1046A80009F50AF50B78107908121B66780C791051
:1046B800121AF75050120FCFE964017005793A02C7
:1046C80049749004B6E0602E7AFF7BFF120FBD8A12
:1046D8000A8B0B7403780A121E73124C6F403DC389
:1046E800EA9508EB95095022A808A909121E0A8B19
:1046F80009EA45097026851882851983E07022E544
:10470800164517701C7912024974EAF8EBF9AA08E1
:10471800AB09121E0A8B09EA450960DA793B02499E
:1047280074120FA58A088B09AE08AF09EE4F700501
:104738007909024974EE2404F508EF3400F5098577
:104748000882F583E0900858F07403121EE11249BC
:104758008B900852124C8E7401121EE112498B90F4
:104768000854124C8E851882851983E0900857F0FA
:104778007A008A82A882124D4EE0C0E0124EFC24D4
:104788005DF582E9124987D0E0F00AEAC394054052
:10479800E1EE245DFCEF3400FDEEFA120F99EE24F1
:1047A80036124C68C39402500AEEFAEFFB120FABB4
:1047B80002470D851682851783E09007C91249DFE5
:1047C800E09007CA1249D6E09007CB1249D6A3E079
:1047D8009007CC1249E8E09007CD1249E8A3E09091
:1047E80007CEF07420121EE1E0900849F074201200
:1047F8001EE1E07025900476E090084A1242149079
:10480800084B12420E90084C12420890084D124272
:104818000290084EF090047B802B90047CE0900876
:104828004AF090047DE090084BF090047EE09008F8
:104838004CF090047FE090084DF0900480E09008E0
:104848004EF0900481E090084FF0741D121EE1E0D4
:104858009007C8F0120FDBEE2426124984121D7748
:10486800120E3DEE2422124984121D777423121E63
:10487800E112498BEE242EF582EF124C8BEE243296
:10488800124984E514F0A3E515F07425121EE1120F
:10489800498BEE2430F582EF124C8B900859E0C01A
:1048A800E0EE242A124984D0E0F0EE242B12498449
:1048B8007402F0121017E975F00C84E5F02405C0B5
:1048C800E0EE2437124984D0E0F09008567425F0C1
:1048D8009004B6E0C394024005790112121B7904D2
:1048E8001211079008471249F390085174011249B0
:1048F800CD2416F582E81249877427F0A3740F12A5
:1049080049CD2414F582E8124987741712440770B8
:10491800591211CD8A108B118C128D139090D27868
:1049280010121CA09090FE7810121D0190084712DA
:1049380043EB7810121D5C9008471243F990085415
:10494800E0F50CA3E0F50D7810790C121C8D900899
:10495800471249957810121D5C850882850983E005
:10496800F9120F09120F0F1210EF79007405121EB9
:10497800AB023AE2E0F508A3E0F50922F582EF126E
:1049880049A222124990F922E0F8A3E022124990A4
:10499800C8240E12499F22F582E83400F58322E0EC
:1049A80024FCF8A3E01249B12234FFF9C3E894FDCE
:1049B800E9943F22E02401F510A3E03400F511E466
:1049C800F512F51322F0900847124990C8221249AF
:1049D800DA221249DFA322F0851682851783A322E3
:1049E8001249DAA3A322A3A3A3A3A3EAF0A3EBF09B
:1049F80022C082C083900851E0600879041211191E
:104A0800E97004790C8037900851E4F012112BE911
:104A1800702A90048FE0640170187A207B0090045B
:104A280088E0F91217D97A207B00900488E0F912FF
:104A3800175B7A00900488E0F91217AF79000250EA
:104A4800F5C082C083C3EB940F5009C3EA9403EB0B
:104A58009400400479128024EA75F005A4CAA8F0ED
:104A680028F875F005EBA428FB74BC2AF5827404B9
:104A78003BF583E070047902800279000250F574F6
:104A8800E8121F058A088B09900489E0640860050C
:104A9800790C024C3DEC24FAF8ED124C5F4003020D
:104AA8004B987418121EE1E0F516A3E0F517E51609
:104AB80024FAF8E517124C5F4003024B98C3E51639
:104AC8009CE5179D5003024B98741A121EE1124977
:104AD8008B741A121EE1124C8E741A121EE1C3E076
:104AE80094F4A3E094014003024B98741C121EE155
:104AF800E0FEA3E0FFEE24F6F8EF124C5640030266
:104B08004B98120D71E96003024C3DE50875F005FC
:104B1800A4C508A8F028F875F005E509A428F50942
:104B280074B92508F51474043509F515E514246ECF
:104B3800F582E515124C6B600DE514246AF582E5E3
:104B480015124C6B600DE5142473F582E5151236C9
:104B5800DA7005793A024C3DE516C333FAE51733A6
:104B6800FB8E0C8F0D7403780C121E82F50EF50F58
:104B7800741A121EE11249BC8A088B09F50AF50B52
:104B880078107908121B66780C7910121AF740050C
:104B98007912024C3D9004B6E0C3940240317AFF8A
:104BA8007BFF120FBD8A0A8B0B7403780A121E73DF
:104BB800124C6F5003024C52C3EA9508EB9509500A
:104BC80077A808A909121E0A8B09EA4509707BE52E
:104BD800142476F582E5151249877402F0E5142449
:104BE80077F582E515124987E4F0A3F0E51424303F
:104BF800F582E515124D73E5142474124C87E514FB
:104C08002479F582E515124987E516F0A3E517F032
:104C1800741A121EE112498BE514247B124C87E5A5
:104C280014247DF582E5153400124C7DAA14AB15C9
:104C3800120F877900023AE2EAF8EBF9AA08AB0901
:104C4800121E0A8B09EA45096085793B80E71255EF
:104C58002E9477E9940C2212552E947BE9940C2219
:104C6800F582EF124EF6229004B6E0F8C3E50A98F2
:104C7800E50B940022F583EEF0A3EFF0790022F51E
:104C880082E5151249A2E8F0A3E9F02274F7121F91
:104C980005EAFEEBFF900489E064086005790C02E0
:104CA8004D4BEE4F60158E828F83A3A3A3A3E054D0
:104CB800E07008120F9FE9640160057912024D4BFC
:104CC800750800124D597027123782246EF582E953
:104CD800124C6B600BE8246AF582E91236DA600B35
:104CE800E8247FF582E91236DA7004793A805405AF
:104CF80008E508C3940340CB750800850882A8829C
:104D0800EE28124C68C0E0124D4ED0E0F00508E5E0
:104D180008C3940540E5750800124D59701A1232FF
:104D280031EA2430F582EB124D73EA2480F582EBE8
:104D3800124C8B7901120F870508E508C3940340CC
:104D4800D8790002422274CF28F58274071249A24A
:104D580022A808E875F005A4C8AAF02AF974BC28A6
:104D6800F582740439F583E0640122124EF62407B3
:104D7800F8A3E03400F92274F2121F05EAFEEBFFF3
:104D88008C088D09900489E064086005790C024E4E
:104D9800DCEC45096024740E121EE1E0F50CA3E07A
:104DA800F50DE50C450D60127410121EE1E0F50AD0
:104DB800A3E0F50BE50A450B70057912024EDC12EB
:104DC8000D71E96003024EDC12578DFE74043FFF3B
:104DD800EE24E3124C6870207A008A82A882124E70
:104DE800EBC0E0124EFC24E4F582E9124987D0E0DA
:104DF800F00AEAC3940840E2EE24E4124C68A2E008
:104E080040057911024EDC7A008A82A882E50828DA
:104E1800F582E509124C6BC0E0124EFC249BF5822A
:104E2800E9124987D0E0F00AEAC3940840DB850C10
:104E380082850D83E0C0E0EE24A3124984D0E0F01F
:104E4800850C82850D83A3E0C0E0EE24A41249847A
:104E5800D0E0F07A008A82AC82E50A2CF582E50B74
:104E6800124C6BC0E0C3E49CF895E0F9EE28F8EF2B
:104E7800124F05D0E0F00AEAC3941040D8EE24930C
:104E8800FAEF3400FB121023EE2487FAEF3400FB0C
:104E980012102990048BE04480F0EE2462124EE157
:104EA80024D2124EE124D3124EE124DCF8EF340070
:104EB800F9EE2482F582EF1236DA88828983700748
:104EC8007401F0790A8004E4F07903EEFAEFFB123A
:104ED8000F8779007F06021FD7F582EF1249A2E4F7
:104EE800F0EE22749D28F5827404124EF6223400E6
:104EF800F583E022EE28F8EF3400F9E82239F9E8E2
:104F080024D1F582E91249A22274F7121F05EAFE9C
:104F1800EBFF900489E064086004790C8010120D9E
:104F280071E9700A7908124F39120F877900024225
:104F380022124F3D2212579874B92EFA74043FFB7F
:104F48002274F0121F05890AEAFEEBFF1211138A78
:104F5800088B091211CD8A0C8B0D8C0E8D0F8E8249
:104F68008F837401F0E50A600A7401650A600479A8
:104F780012806DE5084509604A1250BC122114855B
:104F88000882850983121D6B1229F57404121EAB61
:104F9800E960379090C2C082C083780C12211485D2
:104FA8000882850983121D6B122A517404121EABE4
:104FB8008A0C8B0D8C0E8D0FD083D082780C121B2F
:104FC800175007A90A120EBB8014E50A90048B70CB
:104FD80005E044018003E04402125787E4F07900B9
:104FE8000250B774F0121F05890AEAFEEBFF12118E
:104FF800138A088B091211CD8A0C8B0D8C0E8D0F1C
:105008008E828F837401F0E50A60177401650A6067
:10501800117402650A600B7403650A60057912024F
:1050280050B7E5084509604A1250BC12211485089A
:1050380082850983121D6B1229F57404121EABE9CF
:1050480060379090C2C082C083780C122114850802
:1050580082850983121D6B122A517404121EAB8AB1
:105068000C8B0D8C0E8D0FD083D082780C121B17F1
:105078005007A90A120EC18034E50A600B146010AB
:1050880014601514601A801F90048BE04404801685
:1050980090048BE04408800E90048BE04410800656
:1050A80090048BE04420F08E828F83E4F079007FB7
:1050B80008021FD7E5082402F508E5093400F509B8
:1050C800780C22C082C083E9F89007D4E0F9E86040
:1050D8000E14700E7401F0E069700B79FF8009E41A
:1050E80080F47912800279008003F07900D083D0AF
:1050F8008202011FC082C083E9F890085EE0700454
:10510800790C800EE8600D14701090048E7401F014
:10511800790080D990048EE480F5791280F4C082F9
:10512800C083E9F8900489E0701AE8600D147010E3
:1051380090048F7401F07900800C90048FE480F55E
:1051480079128002790C80A574F6121F05EA4B606B
:105158000EEC4D600A740A121EE112517D7004793A
:1051680012800F780812211C12103B7402121EAB19
:105178007900023F4E12497CE508450922C082C0E9
:1051880083EA4B7004791280168A828B83E0A2E04E
:1051980090049DE05004D2E08002C2E0F079000261
:1051A80050F5C082C083E9600E1470119007D9745D
:1051B80001F079000250F59007D9E480F479128063
:1051C800F3C082C083E9F8900489E0640760047939
:1051D8000C800EE8600E1470119007DA7401F079F3
:1051E800000250F59007DAE480F4791280F374F73E
:1051F800121F05E9FFEAFEC394285008EF600974FE
:10520800016F600479128059900489E06004792163
:10521800804F1211BB120EA375E1F19090E6121D9A
:105228006B12124B74016F70137A01EEF91212F9B6
:1052380079001212C3906190742480177A00EEF9F5
:105248001212F979071212C39061907404F09061F8
:10525800E874FFF0900489740BF079041212AB79AA
:105268000002422274F6121F05900489E060047956
:105278002180531211BB120EA375E1F17A01790155
:105288001212E19090E6121D6B12124B9004ABE4DF
:10529800F0FAF91212F979001212C375D92775D9E3
:1052A8000075D92578001252D1E8C3942540F775C6
:1052B800E195900489740D1252E21212AB7A007BC8
:1052C8000012119D7900023F4E8808748F2508F559
:1052D80082748F124EF6F5D90822F0906182E0D2DE
:1052E800E5F079192274F7121F05E9FEC3942840E6
:1052F8000479128035900489E060047921802B12AA
:1053080011BB120EA375E1F19090E6121D6B1212FB
:105318004B7A00EEF91212F979001212C39004893F
:10532800740CF079031212AB7900024222C082C0D9
:1053380083900489E0640B600EE0640C6009E0640B
:105348000D600479218005120CA579000250F574CE
:10535800F3121F05EA4B7005791202543090048944
:10536800E06005790C025430EA2405F8EB3400F9C2
:10537800EA2404FCEB3400FDEA2403FEEB3400FFCE
:10538800EA2402F508EB3400F5098A828B83A385A9
:10539800820A85830B8A828B83E0F47059850A829E
:1053A800850B83E0F4704F850882850983E0F470EB
:1053B800458E828F83E0F4703D8C828D83E0F4709B
:1053C8003588828983E0F4702D900482E090047619
:1053D800F0900483E0900477F0900484E0900478DF
:1053E800F0900485E0900479F0900486E090047AC7
:1053F800F0900487802B1254488A828B83E09004B3
:1054080076125435900477F0850882850983E090F8
:10541800047812543E90047912544390047A123F4F
:105428000FE090047BF079007F05021FD7F0850A12
:1054380082850B83E022125787E02212589DE022D2
:10544800900476E0900482F0900477E0900483F072
:10545800900478E0900484F0900479E0900485F05A
:1054680090047AE0900486F090047BE0900487F042
:1054780022C082C083C3EA94F5EB940140057912F7
:10548800025525900489E064086005E0640770050A
:10549800790C025525C3EA9415EB9400500790083F
:1054A800597407806FEA24EB125528940AE994008E
:1054B80050079008597406805BEA24E11255289435
:1054C80014E99400500790085974058047EA24CDE0
:1054D800125534500790085974048038EA24B412DD
:1054E8005534500790085974038029EA249B1255B3
:1054F800289432E99400500790085974028015EAFC
:1055080024691255289464E9940090085950047449
:10551800018001E4F09007EA1249F379000250F59E
:1055280012552C22F8EB34FFF9C3E82212552C94BB
:1055380019E994002274F7121F05E9FE906185E0CD
:10554800F874016E7011E8C3940F5007740128F9BC
:10555800120E977900800CEE7007E860F674FF80F1
:10556800ED791202422274F4121F0574FC121E9582
:10557800902D80E493F46004790C8045906185E077
:10558800851882851983F07808121D4D9090BE7891
:1055980008121D278518828519837808121D5C75E5
:1055A8000801750900780812211C7402121EE1AC6A
:1055B80082AD837A607B0B1218397402121EAB79A4
:1055C800007404121EAB023566C082C083E9F8601D
:1055D80013740168600E74026860097403686004DB
:1055E80079128007E89004A5F079000250F574F666
:1055F800121F05E9FB74FF6B700C90085A74FFF0DA
:10560800A3E4F0F98049750801750900EA780812E1
:105618001E82A808E8F4F9EB600914603514607F6D
:105628000256DDEAC3940840030256DDE5AEC454D1
:105638000F54076A700353AE7FE952F252F3E842FF
:10564800FDE952ABEBF9EA90085A124C8F79000247
:105658003F4EEA601714601914601B14601D146033
:105668001F146021146023146020806990624380B5
:10567800179062448012906245800D9062468008BF
:105688009062478003906248E4F0E5AE54076A7080
:105698000353AEF7E952F4E842FEE9528D80A5E5DE
:1056A800C6A2E7400E74036A600574046A70047940
:1056B8000C809CEA600924FD600A14600C80165373
:1056C800F5FE800853F5F7800353F5EFE842FFE94C
:1056D80052AC02564C791202565774F7121F05EA5B
:1056E800FEEBFF120D71E9700A7916124F39120F8D
:1056F800C9790002422274F6121F05EAFEEBFF89FF
:1057080008120D71E9704912578DF874043FF9E8D1
:1057180024F8FAE93400FBE824FAFCE93400FDE84F
:1057280024FCFEE93400FFE824FEF8E93400F9E53A
:1057380008600514601D80438A828B83E4F0125848
:105748009CF0A3125787F0A3123F0FF0A3F0790043
:10575800023F4E888289831221378E828F831221DD
:10576800378C828D83E0FCA3E0FD8A828B83124311
:10577800E5120AF57404121EAB80D3791280D1F0B9
:105788008E828F832212579474B92E221257982230
:10579800EE75F005A4CEA8F028F875F005EFA4285A
:1057A800FF2274F0121F05EAFEEBFF1211138A089C
:1057B8008B091211CD8A0C8B0D8C0E8D0F8E828F5A
:1057C800837401F0E5084509604A1250BC1221149F
:1057D800850882850983121D6B1229F57404121E2F
:1057E800ABE960359090C2C082C083780C12211456
:1057F800850882850983121D6B122A517404121EB2
:10580800AB8A088B098C0A8D0BD083D0827808125A
:105818001B175005120ED3800B90048CE044011224
:105828005787E4F079000250B7C082C083E9F89046
:1058380004B5E06004790C800EE8600E14701190D5
:10584800085E7401F079000250F590085EE480F477
:10585800791280F374F7121F05E9600514600F8050
:105868002F9004B3EAF0A3EBF079000242229004EF
:10587800B3E08C828D83F09004B4E08C828D831227
:10588800589CA3A3747312589DA3A3A3748C80D8A7
:10589800791280D7A3F08C828D832274F7121F05AA
:1058A800EAFEEBFFC3EE94E9EF940340047912801B
:1058B80027EE4F701D7A007B01900488E0F91217DB
:1058C800D97A007B01900488E0F912175B790112FC
:1058D80017A990085F124C7F02422274F7121F0525
:1058E800E9600514601E802890912A12212F7A0001
:1058F8007B02900488E0F91217CD7404121EAB796C
:105908000002422290912A12212F7A007B0480E221
:10591800791280EDC082C083E9600F147014906121
:1059280082E04421F079000250F5906182E054DE73
:1059380080F2791280F1C082C083E9F86021C394B3
:105948000D501CEA60131470169007D87401F0E823
:105958009007D7F079000250F59007D8E480EF79E6
:105968001280F3C082C0839061907404F0A37448DD
:10597800F0A3E4F09061807440F09061BC7407F08B
:105988009061877469F09061B67416F07900120E10
:10599800BB7902120EC1902D80E493F46006E49363
:1059A800F9120E9779051212C3025DD2C082C08324
:1059B800E9540FF9906185E0696012E5C6548044A6
:1059C80049F5C6E59E547F644970F8E9F053C680EE
:1059D800E59E547F70FA025DD274F7121F05E5A8A0
:1059E800FE53A87E120EA3C2BA539AFEC289759BB3
:1059F80000C2C2120EA975A91175B905120EAFD24F
:105A0800BA439A0174805E42A8026921C082C083A9
:105A1800906181E4F0A3F0A3F0025DD275E900750E
:105A2800910075BF0002011FC082C083906181E4AC
:105A3800F0A374C0F0A3E480DFC082C08374F812BE
:105A48001E9590048B1275F47003025B2090048BF2
:105A5800E0544060237908851882851983AA82ABAF
:105A68008312101D851882851983AA82AB83120AB6
:105A7800E390048BE054BFF0E054806010790C7A16
:105A8800827B0812101D90048BE0547FF0E0A2E0A6
:105A9800500F7900120EBB120AE990048BE054FEF5
:105AA800F0E05402600F7901120EBB120AE990046B
:105AB8008BE054FDF0E05404600F7900120EC1121F
:105AC8000AEF90048BE054FBF0E05408600F790172
:105AD800120EC1120AEF90048BE054F7F0E0541054
:105AE800600F7902120EC1120AEF90048BE054EF96
:105AF800F0E05420600F7903120EC1120AEF9004EF
:105B08008BE054DFF0A3E05401600D120ED3120AAB
:105B1800FB90048CE054FEF07408121EAB025DD2B8
:105B2800C082C083E9600514602A804F90619A742E
