:020000040000FA
:0600000002010702271BAC
:03001300022B4A73
:03002B00022B297C
:03003B00022BAFE6
:0300530002278EF3
:10008300022587E5C754F84401F5C779012200002A
:100093000080FB120086B900030200F1E4792178A5
:1000A30008B800028004F709D8FCE479297802B87B
:1000B30000028004F709D8FCE490028178A7790E46
:1000C3008002F0A3D8FCD9FA7A277B109001377805
:1000D3002B79028015E493A3AD82AE838A828B834E
:1000E300F0A3AA82AB838D828E83D8E9D9E7758288
:1000F300B27583D8740412011975829175830074E3
:100103000012011975D00075813F751881751902A8
:10011300759F00020096C09FF59FE473D09F22D085
:1001230083D082C09FE493C0E0740193C0E0740263
:1001330093F59F223B044D0477044104FF0000B470
:10014300000028002800283075A000A000A000A00F
:100153000000080008E001F000100010001000107B
:10016300001000100050005000500010001000D08C
:10017300070000000000000F0001000500307507B4
:10018300001000010081FF00000000FFDF05FD05F6
:10019300E505FF02020208025000A0000000E80388
:1001A30002A1820100004D82029D8201000086109F
:1001B30002AD82010000BA02029D82010000871095
:1001C30002A382010000D002029D82010000881078
:1001D30002A582010000D202029D82010000891063
:1001E30002A782080000D302029D820100008A1048
:1001F30002A9820100008B10FFFF0100FF2002A172
:10020300820100009882029D82010000F01002AB7F
:10021300820000000000029F82030000B403ED0F80
:10022300ED0FED0FED0FED0FED0FED0FED0FED0FEB
:10023300ED0FED0FED0FED0F21123F121B125F13A8
:1002430077135913FF544920424C4520416C6C00ED
:10025300000000000000000000001100FF00120178
:100263002245CD0412012282CD0412012298CD042D
:10027300120122C7CD04120122FDCD041201221462
:10028300CE041201222BCE041201225ECE041201EF
:100293002295CE04120122E8CE04120122FFCE04DD
:1002A30012012216CF041201222ECF04120122457D
:1002B300CF0412012276CF04120122B1CF0412011E
:1002C30022DBCF0412012205D0041201221CD00428
:1002D30012012233D0041201224AD00412012273E4
:1002E300D00412012286D0041201229CD0041201F0
:1002F30022AFD004120122D6D00412012252AD0241
:1003030012012256AE0212012283AE02120122CE44
:10031300AE02120122D9AE02120122FCAE02120178
:100323002210AF021201223FAF0212012241AF029B
:1003330012012264AF021201226AB002120122AE3C
:10034300B10212012272B20212012247B302120158
:1003530022B8B30212012244B40212012247B402AA
:10036300120122CFB4021201220AB5021201227134
:10037300B50212012274B502120122ABB5021201B9
:1003830022D4B5021201227FB60212012209B7025A
:1003930012012258B70212012265B7021201226824
:1003A300B702120122C8B702120122CBB70212010F
:1003B3002204B8021201224FB802120122CEB8025F
:1003C300120122D1B8021201221BB9021201221E0C
:1003D300B90212012295B90212012298B90212013F
:1003E3002227BA021201222ABA02120122B9BA0240
:1003F300120122C9BA02120122F9BA02120122061B
:10040300BB0212012209BB021201228ABB021201A2
:100413002297BB0212012285BC0212012237BD02C0
:1004230012012211E50312012209E6031201223D02
:10043300E603120122BFE603120122DFE6031201E3
:100443002227E7031201227AE703120122DEE703E0
:100453001201226BE80312012225E903120122345F
:10046300EC03120122BFED03120122E2ED0312019C
:1004730022E3AA0412012280AC04120122D0AC04AC
:10048300120122A0AD04120122FFAD041201220DBC
:10049300AE0412012236AE041201220E8F041201A1
:1004A30022368F04120122648F041201229B8F04CF
:1004B300120122F98F04120122879104120122D220
:1004C30091041201221D92041201225D9204120171
:1004D30022A39204120122D192041201228E9304C8
:1004E300120122989304120122A59304120122D827
:1004F3009304120122A49404120122B09404120161
:1005030022C89404120122D29404120122509504A9
:10051300120122C3D704120122D1D704120122E906
:10052300D70412012201D80412012219D80412019E
:100533002266CD0212012212CE021201228DCE02B8
:10054300120122AECF02120122EACF02120122844B
:10055300D0021201222DD10212012214D202120161
:100563002278D302120122CFD30212012250D402E5
:1005730012012240D5021201228DD502120122134B
:10058300D60212012245D60212012259D8021201C3
:10059300229BD802120122B9D8021201223CD902AD
:1005A30012012210DA02120122D8DA02120122E524
:1005B300DC02120122B5CF0312012288D0031201FB
:1005C3002231D1031201227DD10312012234D2033D
:1005D3001201224DD20312012267D2031201221704
:1005E300D303120122A3D3031201228FD4031201D6
:1005F30022BED403120122D1D50312012219D6033C
:10060300120122DAD6031201223ED703120122A1DC
:10061300D703120122D1D7031201224BD8031201AF
:1006230022EED9031201222ADA0312012246DA0347
:100633001201223CD9041201226BB304120122815C
:10064300B304120122A7B304120122C3B40412019A
:1006530022CDB40412012202B604120122FAB60416
:1006630012012204B704120122ACFA02120122DCA5
:10067300FB021201220FFC0212012259FC02120199
:100683002220FE021201220080021201227980023E
:10069300120122898002120122EB80021201227CC4
:1006A30081021201226282021201228E820212014F
:1006B30022CB8202120122E282021201226E830203
:1006C3001201227883021201228A8302120122C2BA
:1006D3008302120122258402120122848402120160
:1006E30022C78402120122D28402120122DD840273
:1006F3001201229485021201229785021201229A85
:1007030085021201229D8502120122A08502120197
:10071300228A8602120122ED86021201224F8702EB
:10072300120122ED87021201220D8902120122F425
:100733008A02120122AD8C02120122898D0212015A
:10074300223D8E021201227A910212012228920284
:10075300120122979302120122179502120122BE5F
:1007630095021201220796021201223E96021201FD
:1007730022DB9602120122669702120122FEDC029C
:1007830012012253DD02120122B2DE02120122C241
:10079300DE02120122EFDE021201224BDF021201FE
:1007A3002252E0021201221CE1021201227CE20227
:1007B300120122BFE20212012264E302120122B1FA
:1007C300E302120122D7E302120122E5E50212013C
:1007D30022EAE502120122EFE7021201223CE802BB
:1007E300120122AFE802120122E2E802120122847E
:1007F300E9021201222DEA0212012265EA02120124
:100803002268EA02120122B0EA02120122F2EA028B
:1008130012012249EB021201222AC1041201223DD4
:10082300C1041201224BC10412012293C10412011B
:1008330022A9C104120122F0C10412012204C3043B
:1008430012012291C304120122DCC304120122F714
:10085300D40112012207D5011201226AD501120126
:1008630022AFD50112012265D60112012240D70120
:1008730012012269D70112012299D701120122D94B
:10088300D901120122C0DB0112012298DD011201FC
:1008930022DCDE0112012243E10112012251E201B5
:1008A300120122A3E301120122ADE401120122EF9E
:1008B300E40112012227E50112012249E501120197
:1008C30022ACE5011201226EEA0112012208EB01BA
:1008D30012012246EB0112012265EB01120122BF34
:1008E300EB01120122BFEC0112012244ED011201BE
:1008F30022ABED01120122B5ED0112012259EE01E5
:100903001201229CEE01120122B0EE01120122E833
:10091300EE0112012231EF011201225AEF011201FD
:10092300229FEF01120122E8EF0112012210F001D0
:1009330012012299F00112012252F10112012268DF
:10094300F101120122A4F101120122CCF1011201E1
:100953002204F20112012237F2011201226EF20186
:100963001201228DF201120122B6F2011201222F8D
:10097300F30112012244F30112012259F30112017E
:10098300226EF301120122A3F301120122DDF3010E
:1009930012012201F401120122CAF401120122E020
:1009A300F401120122FFF40112012212F5011201D6
:1009B3002227F5011201223CF501120122B2F501B1
:1009C300120122C6F5011201221EF6011201222D87
:1009D300F60112012289F601120122C3F601120166
:1009E30022F8F60112012224F70112012252F70123
:1009F30012012285F7011201229AF701120122AF97
:100A0300F701120122DFF7011201222AF801120174
:100A13002289F801120122CAF80112012206F90102
:100A230012012231F901120122A0F901120122DD82
:100A3300F90112012208FA0112012238FA01120106
:100A43002263FA011201228DFA01120122C4FA0172
:100A5300120122F9FA0112012236FB01120122606E
:100A6300FB0112012290FB01120122BAFB011201C8
:100A730022E4FB011201220FFC0112012238FC01C6
:100A83001201228FFC01120122D1FC01120122FC6E
:100A9300FC0112012260FD011201228AFD011201F3
:100AA30022B5FD01120122E0FD0112012210FE0117
:100AB30012012259FE0112012283FE01120122A812
:100AC300FE011201222FFF01120122787E00120182
:100AD30022CB7E00120122A8BD02120122D6BD0242
:100AE30012012231BF0212012211C002120122306F
:100AF300C002120122ADC002120122F0C002120193
:100B0300226BC202120122DAC20212012205C502BD
:100B130012012289C7021201223AC80212012230AD
:100B2300C902120122D0C902120122CECA02120145
:100B33002228CC02120122B3CC0212012228CD02B8
:100B43001201228DD204120122F6D2041201224A8A
:100B5300D3041201226CD30412012293D304120191
:100B630022C4D304120122E5D30412012276A6047F
:100B7300120122E3A6041201222AA704120122422F
:100B8300A8041201223EA90412012221AA0412017F
:100B9300220DEF031201224FEF0312012221F00372
:100BA300120122FAF003120122F4F103120122D6F8
:100BB300F2031201223FF303120122D6F3031201BF
:100BC30022F3F3031201220FF403120122B8F403F8
:100BD3001201222CF50312012298F5031201229B24
:100BE300F503120122C4F5031201223EF60312019A
:100BF30022D7F6031201223CF70312012251F70315
:100C030012012297F703120122B0F70312012215F2
:100C1300F80312012218F803120122F1BD04120194
:100C2300222DBE041201226BBE0412012235BF0421
:100C3300120122A4BF04120122DFBF041201221DEC
:100C4300C0041201224DC00412012274C004120117
:100C530022E2C004120122182C00120122732E007A
:100C6300120122853100120122C13100120122EE4C
:100C73003100120122E032001201222B3300120153
:100C830022763300120122883300120122C8330076
:100C93001201220934001201221834001201224DDC
:100CA30034001201229B3400120122CA34001201C3
:100CB30022423500120122743500120122B03500A0
:100CC300120122D33500120122A53600120122DCC3
:100CD30036001201227E370012012205380012016C
:100CE30022ED3800120122853B00120122F13C0063
:100CF300120122673D00120122E33D00120122226C
:100D03004000120122634000120122074200120137
:100D1300222842001201226942001201226243008A
:100D23001201226F45001201222C4600120122C635
:100D330046001201229E4C00120122EE4C001201C9
:100D430022604F00120122985000120122A7520084
:100D5300120122135300120122C1530012012292E5
:100D63005400120122C35400120122ED5400120157
:100D7300221755001201224C550012012271550011
:100D8300120122905500120122BD55001201223595
:100D93005600120122AD5600120122F7560012012D
:100DA30022195700120122135800120122E758009A
:100DB3001201221859001201227F59001201229FA9
:100DC3005900120122AC5A001201220C5B001201DD
:100DD30022EF5B001201227E5C00120122A95C005B
:100DE300120122EE5C00120122325D001201228107
:100DF3005D00120122A35D001201224BC9041201FE
:100E03002200CB04120122D5AA03120122D3AB0381
:100E13001201226CB2031201228DB4031201225873
:100E2300B603120122C0B7031201228AAE011201D6
:100E33002239AF0112012266AF01120122ACAF01C8
:100E4300120122BEAF01120122F4B001120122529B
:100E5300B10112012277B101120122AEB1011201D7
:100E63002244B301120122BEB3011201220DB401C7
:100E730012012287B401120122E1B50112012241BC
:100E8300B70112012247B801120122A8B9011201C8
:100E930022FAB9011201226BBB01120122B0BD017A
:100EA300120122AABE01120122C3BE011201222194
:100EB300BF0112012240BF011201225FBF011201D3
:100EC3002262BF0112012293C0011201228BC101D0
:100ED30012012277C20112012259C3011201228C8D
:100EE300C301120122FCC3011201226EC4011201CB
:100EF30022E8C4011201223EC50112012219C601D2
:100F0300120122E3C601120122B8C701120122977E
:100F1300C80112012222C90112012290C901120142
:100F23002204CA011201222FCA01120122EECA01B0
:100F330012012242CB011201222FCE01120122788B
:100F4300CE01120122BBCE0112012234CF011201C4
:100F530022CCCF01120122BDD001120122E2D00125
:100F630012012228D10112012252D1011201229A27
:100F7300D10112012215D2011201226FD2011201F5
:100F830022D8D30112012286D401120122C7D4012F
:100F9300120122548E03120122A28E03120122AEE9
:100FA3008E031201228C8F03120122BD8F031201C3
:100FB30022EE8F031201226E9003120122EC9003A2
:100FC300120122249103120122769103120122B30A
:100FD3009103120122D09303120122F69503120109
:100FE30022E19703120122CB9903120122F87F0019
:100FF300120122D89504120122239A0412012267B6
:101003009B04120122008003120122B88203120101
:1010130022BE82031201227885031201224588032E
:101023001201225CA10412012200A204120122D2A5
:10103300A204120122FCA2041201224AA5041201F5
:1010430022D05D001201221A5E00120122E36E001B
:101053001201226870001201228B7100120122FC1E
:101063007700120122F7780012012234790012016D
:1010730022577900120122997900120122A27900E4
:10108300120122AC79001201229A7A0012012290F5
:101093007B00120122297C001201224398021201D3
:1010A30022429C02120122489C0212012283A302C3
:1010B3001201229CA802120122AABA04120122A43C
:1010C300BB0412012218BC0412012256BC041201F3
:1010D30022CABC0412012243BD041201224CBD04E6
:1010E30012012258BD041201226DBD04120122AB6C
:1010F300BD04120122C1BD041201220080041201A9
:10110300220D80041201222780041201226680042A
:10111300120122A480041201220981041201221E59
:101123008104120122298104120122368104120151
:10113300224D81041201225B81041201226A81047F
:101143001201227F81041201229481041201229F41
:101153008104120122AB8104120122B8810412011D
:1011630022C78104120122D28104120122F78104D1
:10117300120122FC8104120122968204120122FC34
:1011830082041201220C830412012221830412011E
:10119300223683041201225083041201226B83043A
:1011A3001201228883041201229383041201224F25
:1011B30084041201223B8504120122578504120183
:1011C300226E85041201227985041201228E850480
:1011D300120122A2850412012203860412012209AC
:1011E30086041201220F86041201221586041201BD
:1011F300222986041201225086041201228B8604BE
:10120300120122A48604120122E486041201221789
:101213008704120122BBDA03120122DDDA03120171
:1012230022BDDB0312012294DE03120122C0DF037D
:10123300120122E4E00312012296E1031201223794
:10124300E203120122AB9C031201222F9D03120120
:1012530022DE9D031201223D9F031201225EA103A0
:101263001201224AA2031201227FA203120122A128
:10127300A20312012250A30312012248A503120163
:101283002271A50312012203A60312012235A6032C
:1012930012012242A60312012299A603120122BFC0
:1012A300A6031201222CA9031201222FAA03120161
:1012B3002287AA0312012236EC0212012240ED0218
:1012C30012012227EE0212012231EE021201223B09
:1012D300EE021201225DEE0212012269EE021201F8
:1012E3002202F00212012231F0021201224DF10218
:1012F300120122A6F1021201220CF302120122EBC7
:10130300F30212012247F402120122B4F402120181
:1013130022EFF4021201222EF502120122E7F70254
:1013230012012201F8021201228DF8021201229BFE
:10133300F802120122F4F80212012202F902120148
:101343002275F902120122D9F90212012223FA02AB
:1013530012012287C403120122A9C403120122CF5E
:10136300C603120122E4C903120122FCCA031201BB
:1013730022AFCB0312012291CC03120122E8D00445
:101383001201220DD1041201227FD10412012294F1
:1013930087041201229D8704120122A687041201E9
:1013A300227D88041201222E8A04120122648A04F7
:1013B3001201229E8A04120122D48A041201220EEF
:1013C3008B04120122428B041201226E8B04120140
:1013D30022B78B04120122F18B041201223A8C04EE
:1013E300120122928C04120122C78C0412012222C0
:1013F3008D041201225C8D04120122AD8D041201B1
:1014030022E38D041201221D8E041201224B8E044D
:101413001201226E8E04120122EAB7031201221D69
:10142300B80312012260B8031201226BB803120140
:101433002276B80312012281B8031201228CB80369
:10144300120122F8BB03120122CBBC031201224575
:10145300BD03120122BCBD03120122C9BD03120147
:1014630022D6BD03120122E0BD03120122EABD030D
:1014730012012206BE0312012216BE0312012258D4
:10148300BE031201227EBE0312012288BE03120193
:101493002292BE031201229CBE03120122A9BE03A3
:1014A300120122B3BE03120122BDBE03120122C7E1
:1014B300BE03120122D1BE031201221BBF0312017C
:1014C3002238BF0312012255BF0312012265BF0355
:1014D3001201226FBF03120122CABF03120122D7D6
:1014E300BF031201229BC003120122A5C0031201F4
:1014F30022AFC003120122B9C003120122D6C003D6
:10150300120122F3C003120122B7C103120122C147
:10151300C103120122CEC103120122DBC103120156
:1015230022FCC10312012205C2031201222CC203B1
:1015330012012253C20312012278C2031201228133
:10154300C20312012290C203120122A8C203120194
:1015530022B1C203120122C0C203120122CFC2036D
:10156300120122D8C203120122E7C203120122F799
:10157300C20312012216C30312012223C303120161
:101583002230C30312012240C3031201224DC303BD
:101593001201225DC3031201226DC3031201227DD6
:1015A300C303120122AFC303120122B9C303120101
:1015B30022C9C303120122D9C303120122E6C303C2
:1015C3001201220BC40312012218C40312012228A0
:1015D300C40312012232C4031201223FC4031201C5
:1015E3002249C40312012259C40312012263C40312
:1015F3001201226DC4031201227DC4031201223998
:10160300D904120122AA9B04120122B49B041201E1
:1016130022F29B041201223B9C04120122759C04BA
:10162300120122CB9C04120122EC9C04120122F52C
:101633009C04120122409D04120122699D0412019F
:1016430022739D041201227D9D04120122E99D044F
:101653001201227F9E04120122C99E04120122F963
:101663009E04120122829F04120122C29F041201CE
:1016730022FA9F0412012219A00412012222A004BB
:10168300120122E8A00412012232A104120122CC89
:10169300D60412012213DB0412012256CB041201D9
:1016A300228CCB04120122C2CB041201220BCD04E3
:1016B300120122A9DA04120122BFDA04120122C99B
:1016C300DA041201224AAF041201225FAF041201AD
:1016D3002212B00412012252B0041201226BB00490
:1016E3001201229FB004120122ECB0041201222045
:1016F300B10412012262B1041201225EB304120189
:1017030022D3FF02120122FCFF02120122C0D904DC
:1017130012012268DB04120122A7DB04120122E476
:101723007F0012012235DA0412012245DA04120184
:101733002257DA04120122A0DA04120122C8D504C6
:101743001201224DD604120122B3D604120122F54E
:101753007F001201220EB70412012225B7041201E1
:10176300229EB70412012273B80412012245BA045F
:10177300120122CAC60412012240C704120122D751
:10178300C7041201226EC80412012286C804120182
:101793002296C804120122F1C80412012205C904C9
:1017A30012012213C904120122B482011201222F51
:1017B3008301120122D08301120122078501120144
:1017C300225686011201227686011201221F870109
:1017D3001201225A8F011201224B96011201224358
:1017E3009F011201227CA00112012217AB011201F9
:1017F30022B6AB0112012270AD011201222EAE01FD
:1018030012012267AE0112012257FF01120122C108
:10181300FF01120122CCFF01120122DCFF011201A0
:1018230022E7FF011201222BD4041201227BD404EC
:1018330012012204D5041201226AD50412012206E0
:10184300C40412012230C404120122F6C40412019A
:1018530022D1C50412012258C6041201223CF80306
:10186300120122F9F80312012234F9031201225C56
:10187300F903120122BEF9031201220AFA0312012B
:10188300226AFA03120122FDFA03120122FCFB036E
:101893001201228BFD031201220EFE031201227597
:1018A300FE031201228CFE0312012296FF03120192
:1018B30022D4FF03120122B1DB04E766701008098A
:1018C300E766700A0809E76670040809E76622E01C
:1018D30066701008A3E066700A08A3E06670040847
:1018E300A3E06622C3E7960809E7960809E7960886
:1018F30009E79622C3E09608A3E09608A3E09608BA
:10190300A3E09622C008C3E096F50808A3E0964238
:101913000808A3E096420808A3E09645087001D39F
:10192300D00822080808EAC0E0EBC0E086F0E7A48C
:10193300FA180986F0E7A42AFA180986F0E7A42A18
:10194300FA180986F0E7A42AFA1986F0E7A4FBE55A
:10195300F02AFA190886F0E7A42BFBE5F03AFA1906
:101963000886F0E7A42BFBE5F03AFA18180986F08D
:10197300E7A4C5F02BFBE43AFA1908E7C5F0C6A4BF
:1019830026F6E5F03BFBE43AFA1886F0E7A4F6E521
:10199300F00826F6E43B08F6E43A08F6D0E0FBD07C
:1019A300E0FA22E4CFC0E0E4CEC0E0E4CDC0E0E45E
:1019B300CCC0E075F020E626F608E633F608E633F9
:1019C300F608E633F6181818EC33FCED33FDEE3366
:1019D300FEEF33FFC3EC9709ED9709EE9709EF97F5
:1019E300191919400FFFEC97FC09ED97FD09EE97C4
:1019F300FE191906D5F0BFECF709EDF709EEF70963
:101A0300EFF7191919D0E0FCD0E0FDD0E0FED0E0EB
:101A1300FF226016080808C6C313C618C613C618E3
:101A2300C613C618C613C6D5E0EA2270090808080B
:101A3300226016181818C6C333C608C633C608C6AC
:101A430033C608C633C6D5E0EA22E627F60809E618
:101A530037F60809E637F60809E637F622E026F6F0
:101A630008A3E036F608A3E036F608A3E036F6222C
:101A7300E026F008A3E036F008A3E036F008A3E080
:101A830036F022C3E697F60809E697F60809E697C3
:101A9300F60809E697F622C3E096F008A3E096F06D
:101AA30008A3E096F008A3E096F022E657F60809AB
:101AB300E657F60809E657F60809E657F622E05610
:101AC300F608A3E056F608A3E056F608A3E056F698
:101AD30022E056F008A3E056F008A3E056F008A36E
:101AE300E056F022E046F608A3E046F608A3E046F7
:101AF300F608A3E046F622E667F60809E667F60865
:101B030009E667F60809E667F622E0F608A3E0F6B9
:101B130008A3E0F608A3E0F622E6F008A3E6F0083F
:101B2300A3E6F008A3E6F022E0FAA3E0FBA3E0FCBF
:101B3300A3E0FD22EAF0A3EBF0A3ECF0A3EDF02287
:101B4300E0F8A3E0F9A3E0FAA3E0FB22E8F0A3E9BD
:101B5300F0A3EAF0A3EBF022CAC0E0E6F0A308DAB0
:101B6300FAD0E0FA22CAC0E0E0A3C582CCC582C5A0
:101B730083CDC583F0A3C582CCC582C583CDC58380
:101B8300DAE6D0E0CA22C3E498F8E499F9121BCA52
:101B93008026C3E49AFAE49BFBE920E7E9121BCA17
:101BA300E498F8E499F922C3E498F8E499F9121B4C
:101BB300CAE498F8E499F9C3E49AFAE49BFB22EBAC
:101BC30020E7CFE920E7E0B90010BB0008E88AF07E
:101BD30084F8AAF022E4FBC8FA22EB70227B10C837
:101BE30033C8C933C9335007C39AC3DBF280069A9B
:101BF30050012ADBEAC833F4C8C933F4C9FA2275A1
:101C0300F008E4C833C8C933C933C99AC99B50041F
:101C1300C92AC93BD5F0ECFBC833F4C8E4C9FA229E
:101C2300600D08C6A2E713C618C613C6D5E0F32293
:101C3300600C08C6C313C618C613C6D5E0F42270D9
:101C43000422600D18C6C333C608C633C6D5E0F4F4
:101C53001822251810AF08F518400C15198008F53F
:101C63001840021519D2AF2200C0D0251810AF08B2
:101C7300F518500C05198008F51850020519D2AF54
:101C8300D0D0222518F58210AF08F518400C15198D
:101C93008008F51840021519D2AF8519832225183B
:101CA300F582E43519F583222518F8E43519F9226C
:101CB3002518FAE43519FB222518FCE43519FD2211
:101CC300E4732518C582C0E0E51934FFC583C0E07D
:101CD300E518C3958224F810AF0885831985821807
:101CE3008008858319858218D2AFCEF0A3E520F052
:101CF300A37808E608F0A3DEFAEFF0A3E58124FA5F
:101D0300F8E608F0A3E608F0A3E608F0A30808E65F
:101D130008F0A3E608F0A315811581D0E0FED0E01A
:101D2300F8158115811581E8C0E0EEC0E022251881
:101D3300C582C0E0E51934FFC583C0E0E518C3954B
:101D43008224F910AF08858319858218800885835A
:101D530019858218D2AFCEF0A3E520F0A37808E668
:101D630008F0A3DEFAEFF0A3E58124FBF8E608F020
:101D7300A3E608F0A30808E608F0A3E608F0A31515
:101D8300811581D0E0FED0E0F815811581E8C0E02F
:101D9300EEC0E022851983851882E0A3FEE0A3F557
:101DA300207808E0A3F608DFFAE0A3FFE0A3C0E091
:101DB300E0A3C0E0E0A3C0E0E0A3C0E0E0A3C0E094
:101DC30010AF08858218858319800885821885835A
:101DD30019D2AFD083D08202011F8519838518825F
:101DE300E0A3FEE0A3F5207808E0A3F608DFFAE01D
:101DF300A3FFE0A3C0E0E0A3C0E0E0A3C0E0E0A352
:101E0300C0E010AF08858218858319800885821881
:101E1300858319D2AFD083D08222740480067402E2
:101E230080027401C0E0F404121C86D0E0121B5B34
:101E3300227404800474028000CCC0E0EDC0E0E5AD
:101E430018C39CCCAD1950011D10AF068C188D1909
:101E530080068C188D19D2AF121B68D0E0FDD0E03C
:101E6300FC22D083D082C5F0E493A3C5F0C395F0E0
:101E7300F5F0E493A3C395F04005E5F0048001E495
:101E830075F002A42582F582E5F03583F583E493AA
:101E9300A3C0E0E493C0E022D083D082E9C0E0E4B1
:101EA30093A3C386F0C5F095F0F908E493A386F0F5
:101EB300C5F095F0700BE493A3C3994005E9048042
:101EC30002A3E475F002A42582F582E5F03583F5DB
:101ED30083D0E0F9E493A3C0E0E493C0E022D0838D
:101EE300D082CCC0E0E493A36006121F0B1470FAF7
:101EF300E493A36006121F2A1470FAD0E0FCE49363
:101F0300A3C0E0E493C0E022C0E0E493A3D39C50D9
:101F130010E493A3C39C400AD0E0D0E0D0E0021EBB
:101F2300FEA3A3A3D0E022C0E0E493A36C7009D086
:101F3300E0D0E0D0E0021EFEA3A3D0E022D083D005
:101F430082ECC0E0EDC0E0E493A3FCE493A3FDEDD9
:101F53004C600D121F8CEC24FFFCED34FFFD80EF71
:101F6300E493A3FCE493A3FDED4C600D121FCBECB3
:101F730024FFFCED34FFFD80EFD0E0FDD0E0FCE476
:101F830093A3C0E0E493C0E022C0E0C3E4939608C7
:101F93007401939618400FE49366700808740193D4
:101FA300661870007019A3A3C3E493960874019391
:101FB3009618A3A3400DD0E0D0E0D0E0021F7CA38D
:101FC300A3A3A3A3A3D0E022C0E0C0F088F0E493CE
:101FD3006670080874019366187000A8F0A3A370D4
:101FE3000BD0F0D0E0D0E0D0E0021F7CA3A3D0F070
:031FF300D0E02219
:101FF80074F5121D31EAFEEBFFEE2434F8EF3400DD
:10200800F988088909EE2435F582EF3400F583E074
:10201800F8EE2437F582EF3400F583E0F50AEC8515
:102028000AF0A4FCAAF0850AF0EDA42AFDE82CF831
:10203800E43DF97A257B00121BCAEA8508828509E6
:1020480083F0F8740758F97401B900028004C333A7
:10205800D9FCFAE8131313541FF8EE28F8EF3400EC
:10206800F9E8245DF582E93400F583E05A6008EE6A
:102078002434F582EF802CEE2434F582EF3400F519
:1020880083E0C0E0EE2436F582EF3400F583E0F516
:10209800F0D0E084A8F0EE28F8EF3400F9E824380E
:1020A800F582E93400F583E0F97F04021DDD74F55B
:1020B800121D31EAFEEBFFEE2434F582EF3400F511
:1020C80083E0C0E0EE2435F582EF3400F583D0E0FC
:1020D800F08E828F83A3A3A3A3A3A3A3C082C083EC
:1020E8008E828F83A3A3A3A3A3E0F8A3E0F9D083F0
:1020F800D082E0C398F508A3E099F509EE247FF5AE
:1021080082EF3400F583E064017069EE2480F58283
:10211800EF3400F583E0F8A3E0F98E828F83A3A360
:10212800A3A3A3A3A3E0FCA3E0FD8E828F83A3A3B4
:10213800A3A3A3E0FAA3E0FBC3EA9CEB9D5010C362
:10214800EC98ED99402EC3EA98EB995027800EC37E
:10215800EA98EB994007C3EC98ED9940177CCF7D3E
:1021680007EEFAEFFB120F27EE247FF582EF34001B
:10217800F583E4F0EE2434F8EF3400F9E8FCE9FDE7
:10218800EE2435F582EF3400F583E0F8EE2437F5D8
:1021980082EF3400F583E0F50AE508850AF0A4F536
:1021A80008AAF0850AF0E509A42AF509E82508F83F
:1021B800E43509F97A257B00121BCAEA8C828D83E3
:1021C800F0F8740758F97401B900028004C333D9D0
:1021D800FCFAE8131313541FF8EE28F8EF3400F94B
:1021E800E8245DF582E93400F583E05A6008EE24BE
:1021F80034F582EF802CEE2434F582EF3400F58339
:10220800E0C0E0EE2436F582EF3400F583E0F5F027
:10221800D0E084A8F0EE28F8EF3400F9E82438F587
:1022280082E93400F583E0F9122B150220B1C0824F
:10223800C083851882851983E0F8A3E0F9C3EA9C76
:10224800EB9D5010C3EC98ED99401BC3EA98EB99AD
:102258005014800EC3EA98EB994007C3EC98ED99A7
:102268004004790180027900D083D08222EAC39C9D
:10227800FAEB9DFB2274EF121D31900489E064088B
:102288006005E06407702A9061C8E060249004B794
:10229800E0F4601DE0F875F005A4C8AAF02AF97406
:1022A800B928FE740439FF8E828F83A3A3A3E0703C
:1022B800030223AD906060E0C0E0EE2468F582EF91
:1022C8003400F583D0E0F0750C62750D08750800D0
:1022D800750900E5D914F50AE5D95403F50E601718
:1022E8007403650E605CE50A6010EE2467F582EF02
:1022F8003400F583E0700302239290085DE06401E6
:10230800602AEE2482F582EF3400F583E0600478D9
:102318000480027800850A08E508C398FA95E0FB6E
:10232800120C698A088B09EA450970051211DF80C9
:1023380074EE2482F582EF3400F583E070048A0C91
:102348008B0DE50A6012850C82850D83F50BE5D9A6
:10235800F0A3150BE50B70F6EE2482F582EF34003E
:10236800F583E0604474FC250AF50A780C121E21F6
:10237800AC0AA90EEEFAEFFB120FE77402121C6BFF
:10238800E97026AA08AB0912182D793D8E828F8331
:10239800A3A3A3A3E0FA7B00120B13EEFAEFFB1240
:1023A8000F511210477900807D7403650E605685C1
:1023B8000A107511007810121E21AC0CAD0DAA0878
:1023C800AB09120FC37402121C6BEE2468F582EF7E
:1023D8003400F583E064807004747F8001E0F50CBC
:1023E800780C121E25E50EF50C780C121E25A90A8C
:1023F800AC08AD099004B7E0FA7B00120AD1740268
:10240800121C6B801C900489E06408AC0CAD0D7044
:1024180009EEFAEFFB1210178007EEFAEFFB121025
:10242800AD1211EB79017F0A021DDD74F5121D3121
:1024380074FC121C55EAFEEBFF8908A2AFE433F5E1
:1024480009C2AF806AEE2463F8EF3400F97A007BA2
:1024580000A2AFE433F50AC2AF88828983E0FCA307
:10246800E0FDEC4D603A88828983E0FAA3E0FB8ABC
:10247800828B83E0FCA3E0FD88828983ECF0A3EDE6
:10248800F08A828B83E4F0A3F088828983E0FCA33E
:10249800E0FDEC4D700A88828983A3A3E4F0A3F0E1
:1024A800E50AA2E092AF12182D9007D6E004F0EEEC
:1024B8002463F582EF3400F583E0F8A3E0F9E849F6
:1024C800603DEE2463F582EF3400F583E02402FAE0
:1024D800A3E03400FBEA2402F50AEB3400F50B789C
:1024E8000A121E218A828B83E0FCA3E0F9EEFAEF40
:1024F800FB120F817402121C6BE9700302244D90C9
:1025080007D6E060639007D7E0F89007D6E0C39855
:10251800500C7402650870509007D8E0604A8E82AB
:102528008F83A3A3A3A3E0851882851983F0A3E46E
:10253800F09007D6E0F87402121CA1E8F0A3E4F0CA
:102548009007D6E0F89007D5E028F07402121CA195
:10255800AC82AD83851882851983AA82AB83790101
:10256800120ADD9007D6E4F0E509A2E092AF740400
:10257800121C6B0220B100008521878522C622C06B
:10258800E0C0D0E8C0E0E9C0E0EAC0E0EBC0E0ECC1
:10259800C0E0EDC0E0EEC0E0C008C009C00AC00B52
:1025A800C082C083C0F0A2AFE433FEC2AF759B0007
:1025B800906182E0A2E05012E591A2E0500C759182
:1025C800FE74016521700312227DE0A2E55051E5F9
:1025D80091A2E5504B7591DF900489E0640760058E
:1025E800E06408702374016521703579019004B79F
:1025F800E0FA75F005A4CAA8F028FB74B92AFA74A1
:10260800043BFB1224338018E0640D70139004AB74
:10261800E004F064287002E4F07A00E0F91212098C
:10262800906182E0A2E640030226CEE591A2E64050
:10263800030226CE7591BF900489E06405700812E4
:1026480010D71210E380031210DD75210012114912
:10265800E990048AF0790012112B120E437A017B5B
:1026680000900488E0F9121665907803E0644270DF
:1026780055900861E014F0704DC2AF1226860078BC
:102688002AD0E0F618D0E0F6E59F540770057509E2
:10269800FF800375097FC4C0E07829E6F50808E6DD
:1026A8005509F509740B7808121C33D0E02508F891
:1026B800906270E0A2E740F8E8C333906272F0904D
:1026C8006270E0D2E0F0906181E0A2E35009E5E9B0
:1026D800A2E3500375E9F7A3E0A2E75009E591A248
:1026E800E7500375917FEEA2E092AFD0F0D083D08F
:1026F80082D00BD00AD009D008D0E0FED0E0FDD0BF
:10270800E0FCD0E0FBD0E0FAD0E0F9D0E0F8D0D09F
:10271800D0E032C0E0C0D0C082C083906183E0A224
:10272800E05009E5BFA2E0500375BFFEE0A2E1500A
:1027380009E5BFA2E1500375BFFDE0A2E25009E53B
:10274800BFA2E2500375BFFBE0A2E35009E5BFA2B8
:10275800E3500375BFF7E0A2E45009E5BFA2E450D7
:102768000375BFEFE0A2E55009E5BFA2E550037588
:10277800BFDFE0A2E65009E5BFA2E6500375BFBF80
:10278800D083D0828088C0E0C0D0E8C0E0E9C0E053
:10279800EAC0E0EBC0E0ECC0E0EDC0E0C0F0E5A7C7
:1027A800A2E6500FE5A1A2E6500953A7BF75A1BF45
:1027B8001227F3E5A7A2E5500CE5A1A2E5500653C0
:1027C800A7DF75A1DFE5A7A2E15009E5A1A2E150C5
:1027D8000375A1FDE5A7A2E2500CE5A1A2E250060F
:1027E80053A7FB75A1FBD0F002270474F8121D3122
:1027F800752101900489E06406701512106B8A82B5
:102808008B83A3A3A3A3A3A3E0FAA3E0FB1210C5A1
:10281800A2AFE433FED2AF90048FE0640170187A5F
:10282800207B00900488E0F91216E97A207B00905A
:102838000488E0F912166B906182E0D2E6F0900805
:102848005EE0602185C622801690048EE0640170E7
:1028580008E5C654F84405F5C653BEFC1225807435
:1028680001652160E4EEA2E092AF7F01021DDD0068
:102878008E238F248582288583278518828519834E
:10288800E0CEA3E0CF852882852783EBC9EAC8ED8F
:10289800CBECCA75F010C3E833C8E933C9EA33CAC8
:1028A800EB33CBC3EA9EF526EB9FF525B35004AB7B
:1028B80025AA26EC33CCED33CDD5F0DAAE23AF2400
:1028C8002274ED121D318A088B098C0A8D0B741342
:1028D800121CA1780C121B0D7808790C1218E775D8
:1028E80010017511C8751200751300501278087917
:1028F8000C121A86781079081218E750168010788A
:102908000C7908121A867810790C1218E7400479A5
:1029180001800279007F0C021DDD74ED121D318AE1
:10292800088B098C0A8D0B7413121CA1780C121BCE
:102938000D780C79081218E740117808790C121AEA
:1029480086AA08AB09AC0AAD0B8022751000751178
:10295800007512007513017810790C121A86781018
:102968007908121A4DAA10AB11AC12AD1380A68AC1
:10297800828B837508FF7509FF750AFF750B007850
:1029880008121AD47F04021DDD74F5121D318C82E1
:102998008D837808121B0D8A828B837808121A9A05
:1029A800EA2404F8EB3400F98C828D83A3A3A3A353
:1029B800E0FCA3E0FD88828983C3E09CF0A3E09D4E
:1029C800F088828983C3E09420A3E0944E40268A4D
:1029D800828B837508FF7509FF750AFF750BFF78F1
:1029E80008121A738A828B83A3A3A3A3E02420F07E
:1029F800A3E0344EF002297774F5121D31E9FE90F8
:102A080007EAE0FAA3E0FBEEC333F8E433F9741302
:102A180028F582748239F583E02AF508A3E03BF5AE
:102A2800097808121E217A407B427C0F7D0012280B
:102A3800787402121C6B8A088B098C0A8D0B74102F
:102A48007808121A15AA08AB097F04021DDD74F173
:102A5800121D318A0C8B0D8C0E8D0F740F121CA158
:102A6800E0FAA3E0FB7411121CA1E0F508A3E0F55D
:102A7800097808121E21EA2401F508EB3400F5094B
:102A8800E4F50AF50B780C790812192675087175A2
:102A98000902780C7908121926AA0CAB0DAC0EADF8
:102AA8000F1228787402121C6B8B09EA450960041E
:102AB8007A0180027A00EC2AFCED3400FD741312CE
:102AC8001CA1E0F8A3E0F9E8FEE9FFECF8EDF97ADB
:102AD800717B02121BCA880889098E828F83780845
:102AE800121B1CECF8EDF97A717B02121BCA8A08DA
:102AF8008B0974057808121C428E828F83A3A3A3C6
:102B0800A3E508F0A3E509F07F08021DDDC082C037
:102B180083E9906000F0D083D08222C2AF02000027
:102B280022C0E0C0D0E8C0E0E9C0E0E5A8D2AFC26A
:102B3800C7A2E7A2E792AFD0E0F9D0E0F8D0D0D0B2
:102B4800E032C0E0C0D0E8C0E0E9C0E0EAC0E0C0E0
:102B580082C083A2AFE433FAD2AFE5C1C0E0900EE1
:102B6800D1E0F8745028F582E4340EF583D0E0F013
:102B7800900ED0E0F8A3E0687006E595900ED3F0CB
:102B8800900ED1E004F0C394804002E4F0A3E4F096
:102B9800EAA2E092AFD083D082D0E0FAD0E0F9D0B8
:102BA800E0F8D0D0D0E032C0E0C0D0E8C0E0E9C062
:102BB800E0C008C009C082C083A2AFE433F9D2AF35
:102BC800900F54E0F8A3E0687008539AFBA37401CF
:102BD8008025C2E9900F54E0F50874012508F074C7
:102BE800D42508F582E4340EF583E0F5C1900F543E
:102BF800E0C394804002E4F0E9A2E092AFD083D031
:072C080082D009D00880957D
:102C1000FFFFFFFFFFFFFFFF74F4121CC5E99004E4
:102C200088F01210FB907800E0C4540F540764033E
:102C30007004793F8002797F75080675090078086D
:102C4000121E217C767D047AEA7B0712173D7402FE
:102C5000121C6B900476E0F47049A3E0F47044A376
:102C6000E0F4703FA3E0F4703AA3E0F47035A3E021
:102C7000F4703090780EE0900476F090780FE09049
:102C80000477F0907810E0900478F0907811E0905C
:102C90000479F0907812E090047AF0907813E09044
:102CA000047BF090047C74FFF0A3F0A3F0A3F0A3E6
:102CB000F0A3F0900476E0900482F0900477E09026
:102CC0000483F0900478E0900484F0900479E0901C
:102CD0000485F090047AE0900486F090047BE09004
:102CE0000487F09004A67406F0A3740DF0A3E4F03A
:102CF000A37440F0A37401F09007DE74FFF0A3F01A
:102D0000A3F0A3F0A3F0A3F09007DDE4F09007E4B4
:102D1000F0A374A0F0A3E4F0A37403F0A37407F08D
:102D2000A3E4F0A37428F0A3E4F0A304F0A3E4F078
:102D300090080DF090083374FFF0A3F0A3F0A3F017
:102D4000A3F0A3F0900832E4F090083904F0A3E473
:102D5000F0A3F0A37480F0A37402F0A37480F0A336
:102D60007402F0A3E4F0A304F0A3F0A3E4F0A374CE
:102D700025F0A3E4F0A3F090084A74FFF0A3F0A3B9
:102D8000F0A3F0A3F0A3F0900849E4F090085004F9
:102D9000F0A3E4F0A37480F0A37402F0A37480F0B5
:102DA000A37402F0A37425F0A3E4F0A3F0A37405C8
:102DB000F090085A74FFF0A3E4F090085CF09008DB
:102DC0005E04F090085F7490F0A37401F0120E5B43
:102DD000120C6F1210B979017A617B08120F9F9063
:102DE0000861E075F01484E5F004F0790C7A827BD8
:102DF00008120F9F120FBD7A00900488E0F9121696
:102E0000BF907803E064427055900861E014F07060
:102E10004DC2AF122E1600782AD0E0F618D0E0F698
:102E2000E59F540770057509FF800375097FC4C0CD
:102E3000E07829E6F50808E65509F509740B7808E5
:102E4000121C33D0E02508F8906270E0A2E740F849
:102E5000E8C333906272F0906270E0D2E0F09004C8
:102E6000B3E4F0A3F07A80FB900488E0F9121665D1
:102E700002349674F4121CC5EAFEEBFFEEA2E05099
:102E80004590048AE0C39480E0500FC333F8E433E4
:102E9000F9741128F5827411800EF4C333F8E43309
:102EA000F9741F28F582741139F583E0F8A3E0F571
:102EB000838882121CC37A00900488E0F91216BF3E
:102EC000EE640102317954087003022F60900858B3
:102ED000E0F875F005A4C8AAF02AF974B928FA74C4
:102EE0000439FB7508007808121E25EA2432F582A1
:102EF000EB3400F583E0F508A3E0F50974047808E5
:102F0000121C337808121E21EA2430F582EB3400BB
:102F1000F583121E38EA242EF582EB3400F583E0A7
:102F2000F508A3E0C313F509E50813F508780812BE
:102F30001E217508C97509077808121E219007C857
:102F4000E0FD7C008A828B83A3A3A3A3E0FA7B002D
:102F50007900120B0D7409121C6BEE6408023179B2
:102F6000EE541060407508007808121E25E4F5093B
:102F70007808121E217808121E217808121E217569
:102F800008C97509077808121E219007C8E0FD7C62
:102F9000007A007B007902120B0D7409121C6BEE93
:102FA0006410023179EE540260407508007808120E
:102FB0001E25E4F5097808121E217808121E2178D2
:102FC00008121E217508C97509077808121E21907C
:102FD00007C8E0FD7C017A007B00793C120B0D7480
:102FE00009121C6BEE6402023179EE540470030284
:102FF000308F9004B7E0F875F005A4C8AAF02AF95C
:1030000074B928FA740439FBEA242AF582EB3400F7
:10301000F583E0F5087808121E25EA2432F582EBE4
:103020003400F583E0F508A3E0F50974047808128C
:103030001C337808121E21EA2420F582EB3400F5B7
:1030400083121E38EA242EF582EB3400F583E0F576
:1030500008A3E0C313F509E50813F5087808121E64
:10306000217508C97509077808121E219007C8E064
:10307000FD7C018A828B83A3A3A3A3E0FA7B007962
:1030800000120B0D7409121C6BEE6404023179EE10
:10309000544060407508007808121E25E4F5097850
:1030A00008121E217808121E217808121E217508A8
:1030B000C97509077808121E219007C8E0FD7C0138
:1030C0007A007B00793B120B0D7409121C6BEE64C5
:1030D00040023179EE5480603B90085FE0F8A3E055
:1030E000F9E849602A79001216B990085FE0F508FE
:1030F000A3E0F509E4F50AF50B7808121E1D7A0025
:103100007B01900488E0F91216DD7404121C6BEE4A
:1031100064808065EF5401600C79011216B9EEFAF3
:10312000EF64018056EF5402600AC2AF75C9AB75F7
:10313000C95B80FEEF5404600A122B23EEFAEF64A1
:1031400004803890048FE064017033EE5420602EC8
:10315000900489E024F9600314701B793F9004B750
:10316000E0FA75F005A4CAA8F028FB74B92AFA742D
:10317000043BFB120F57EE6420FAEFFB80047A0049
:103180007B0002349674F6121CC5C3EA9411EB94CA
:103190000050047A1080027A20EA2408FAE434000D
:1031A000FB1218278A088B09A808A909E849600AB0
:1031B000E82404FAE93400FB80047A007B00023D35
:1031C000DE74F6121CC5EA2405FAEB3400FB121873
:1031D000278A088B09A808A909E849600AE8240594
:1031E000FAE93400FB80047A007B00023DDEC082F5
:1031F000C083C2AF1210DDE5E170FC75E101120E73
:103200003775E1F1121107120E2B79071211C179EE
:10321000011211C779021211311211671211A3792B
:10322000001211B579011211B57A557B557C557D87
:10323000001211199007C8E4F0A3F0A3F0A3F0A3C3
:10324000F0A3F0A3F09007E4F0A3F0A3F09007E858
:103250007407F09007E77403F09007EDE4F090072F
:10326000ECF090080DF090083AF0900851F0120F31
:103270003F121041120F6379001211CD9007CF74E5
:10328000FFF0A3F0A3F0A3F0A3741FF0906012E48A
:10329000F0A3F0906063F0752100900489F090072E
:1032A000D4F09007D5740CF09007D6E4F09007D7CF
:1032B00004F09007D8E4F09007D904F09007DAE41E
:1032C000F090048BF0A3F090048EF090048F04F043
:1032D0009004A504F090085DE4F0D2AFF90254BC6C
:1032E000C082C083900476E08A828B83F09004775A
:1032F000E08A828B83A3F0900478E08A828B83A398
:10330000A3F0900479E08A828B83A3A3A3F09004B6
:103310007AE08A828B83A3A3A3A3F090047BE08A44
:10332000828B83A3A3A3A3A30254B9C082C0838AC0
:10333000828B83E090047CF08A828B83A3E09004EC
:103340007DF08A828B83A3A3E090047EF08A828B37
:1033500083A3A3A3E090047FF08A828B83A3A3A31B
:10336000A3E0900480F08A828B83A3A3A3A3A3E0AD
:103370009004810254B9C082C083120E67E97005BF
:1033800012116779000254BC74F7121CC5EAFEEBF7
:10339000FF8908120E67E9702CE508600A74016560
:1033A00008600A7912801E7C00790080047C007914
:1033B00001EEFAEFFB121173E9F8740368700479F7
:1033C0000780027900023D6274F7121CC5EAFEEB29
:1033D000FF8908120E67E9702DE508600A7401651F
:1033E0000860087912801F790080027901EEFAEFF7
:1033F000FB121179E9F874046860057405687004BB
:10340000791F80027900023D6274F7121CC5EAFE42
:10341000EBFF12116D023D5A74F6121CC5EA4B60A7
:1034200016EC4D6012740A121CA1E0F508A3E0F539
:1034300009E508450970047912800F7808121E21E9
:10344000120FB17402121C6B7900023DDE74F4128B
:103450001CC5EAFEEBFF8908900489E0640960144A
:10346000E0640A600FE0640B600AE0640C6005E051
:10347000640D7004790C801E12106B8B0BEA450BE7
:10348000700BA908EEFAEFFB120F9F800990048BD6
:10349000E04440F0790D7F04021D9774F6121CC5BC
:1034A000EA4B6003E970047912801CEAFEEBFF89A5
:1034B00008120F99E98E828F83F0A3AE82AF831535
:1034C00008E50870EC7900023DDE74F7121CC58A2D
:1034D000828B83E04433F0A3A882A983E04433F0D5
:1034E0008A828B83E0D2E6F0EA2403FCEB3400FD11
:1034F0008C828D83E0D2E4F0EA2402FEEB3400FFFC
:103500008E828F83E044C0F08C828D83E04403F090
:103510008E828F83E0440FF08A828B83E0448CF0AC
:103520008C828D83E0D2E5F088828983E044CCF000
:103530008C828D83E044CCF08E828F83E044300215
:103540003D5FC082C083789C790488828983A3E030
:103550008A828B83F088828983A3A882A9838A8246
:103560008B83A3AA82AB83E864A47003E96404702C
:10357000D90254BA74F7121CC57409121CA1E0F8E0
:10358000A3E0F99004A6E08A828B83F09004A7E080
:10359000FAA3E0FB8C828D83EAF0A3EBF09004A900
:1035A000E0FAA3E0FB88828983EAF0A3EB023D5FA7
:1035B000C082C083E9F8740168700B90085D7401E3
:1035C000F079000254BCE8700690085DE480F1795F
:1035D0001280F074F7121CC5C3EB940F5056C3EA67
:1035E0009403EB9400504DEAF8EBF9E875F005A46C
:1035F000C8ACF02CFC75F005E9A42CF974BC28F5D6
:1036000082740439F583E06027EAF8EBF9E875F095
:1036100005A4C8ACF02CFC75F005E9A42CF974B92C
:1036200028FE740439FF8E828F83A3A3A3E0700861
:103630007902804579128041EE24ECF582EF340066
:10364000F583E064017035EE24F2F582EF3400F585
:1036500083121E38EE24F0F582EF3400F583121E3B
:1036600038EE24EFF582EF3400F583E0FC790012A8
:103670000B257404121C6B7900023D62EE24EDF5FB
:1036800082EF3400F583E07018790CEEFAEFFB124C
:103690000F15EE24EDF582EF3400F5837401F08010
:1036A000D6793A80D474F7121CC5ECFEEDFFEE4FCC
:1036B0006026EA6005146015801E120E55E9F88E2A
:1036C000828F83F0748068700A793080088E828FD0
:1036D00083E4F07900023D62791280F9C082C083F0
:1036E000E9FD8D82A882C3E4940F4003023779E894
:1036F000C394034003023779E875F005A4C8ACF021
:103700002CF974BC28F582740439F583E0700479CF
:1037100002806874B928F8740439F9E8245DF582E8
:10372000E93400F583E08A828B83F0E8245EF58239
:10373000E93400F583E08A828B83A3F0E8245FF507
:1037400082E93400F583E08A828B83A3A3F0E82426
:1037500060F582E93400F583E08A828B83A3A3A31A
:10376000F0E82461F582E93400F583E08A828B83F6
:10377000A3A3A3A3F07900800279120254BC74F7CA
:10378000121CC5900489E0640C701290618EE0F9FF
:10379000748069705E8C828D83747F8062C3EB94C9
:1037A0000F504CC3EA9403EB94005043EAF8EBF952
:1037B000E875F005A4C8AEF02EFE75F005E9A42E5C
:1037C000F974BC28F582740439F583E07004790239
:1037D0008030EA75F005A4CAA8F028F875F005EB6A
:1037E000A428FB74212AF58274053BF583809F7918
:1037F00012800F90048DE0F8E9C3988C828D83F0DD
:103800007900023D6274F7121CC5E9FE74056E6012
:103810002374136E601E74146E601974156E601438
:10382000741A6E600F74296E600A743B6E600579BD
:10383000120238EAC3EB940F506AC3EA9403EB9484
:10384000005061EAF8EBF9E875F005A4C8ACF02C7B
:10385000FC75F005E9A42CF974BC28F582740439D0
:10386000F583E070047902803DEA75F005A4CAA8EA
:10387000F028F875F005EBA428FB74B92AFA740453
:103880003BFBEA2469F582EB3400F583E0640170C8
:1038900038EA246AF582EB3400F583E064027008AC
:1038A000793A804679128042EA24F6F582EB3400B8
:1038B000F583EEF0EA241DF582EB3400F583E4F0A5
:1038C000A3F07902120F21801FEA24F6F582EB346F
:1038D00000F583EEF0EA241DF582EB3400F583E475
:1038E000F0A3F07902120F157900023D6274E8121C
:1038F0001CC58A088B098917EC4D6014E9C3941C18
:10390000500E7418121CA1E0FB600A74016B600574
:103910007912023B80C3E509940F5042C3EA940335
:10392000E50994005038A808E875F005A4C8AAF085
:103930002AFA75F005E509A42AF974BC28F5827401
:103940000439F583E070047902801574B928FE7497
:103950000439FF9007D5E0700A7907023B8079129D
:10396000023B80EC24FEFCED34FFFD8C828D83E570
:1039700017F0EB7004740280027401A3F0EC24FED3
:10398000FCED34FFFDEE2463FAEF3400FB120F87E9
:103990009007D5E014F0900489E064086008E064C2
:1039A000076003023B7E9004B7E065087002E509FA
:1039B0006003023B7E7900EEFAEFFB122433906144
:1039C000D0E07003023B7E9007D9E06401600302FF
:1039D0003B7EEE241DF582EF3400F583E0F8A3E092
:1039E000F9E8497003023B7EA2AFE433F516C2AF9B
:1039F00012106B8A148B151210EF8A0C8B0D8C0E23
:103A00008D0F8A088B098C0A8D0B751001751100BA
:103A100075120075130078087910121A4D78081283
:103A20001E1D851482851583A3A3121B2B1228C982
:103A30007404121C6BE964016003023B78EE242ECF
:103A4000F582EF3400F583E02406F508A3E03400A6
:103A5000F509E4F50AF50B780C7908121A4D780C83
:103A6000121E1D851482851583A3A3121B2B1228F9
:103A7000C97404121C6BE964016003023B78E5140D
:103A80002408F510E5153400F511851082F5831230
:103A90001E34AA0CAB0DAC0EAD0F12292274041209
:103AA0001C6BEE242EF508EF3400F509850882F52D
:103AB00083121E381228787402121C6B8A0C8B0D2C
:103AC0008C0E8D0F7410780C121A158E828F83A3B2
:103AD000A3A3A3A3A3A3A3A3E0F8A3E0F98E828FDB
:103AE00083A3A3A3A3A3E8F0A3E9F0E8250CF8E9D6
:103AF000350DF98E828F83A3A3A3A3A3A3A3E8F01C
:103B0000A3E9F0851082851183C082C08385088275
:103B1000850983E0F508A3E0F509780C7908121906
:103B200026D083D082780C121A607508FF7509FFC1
:103B3000750AFF780C7908121AAE851482851583F0
:103B4000A3A3E50CF0A3E50DF0A3E50EF0A3E4F0CC
:103B5000EE2435F582EF3400F583E0C0E0EE243446
:103B6000F582EF3400F583D0E0F0EEFAEFFB12209F
:103B7000B6AA14AB1512104DE516A2E092AF79006B
:103B80007F10021D9774F5121CC5E9FE8A098B0A85
:103B9000C394284003023CEDEAC394264003023C50
:103BA000EDEB602D7401650A60277402650A6021DF
:103BB0007403650A601B7404650A60157405650A60
:103BC000600F7406650A60097407650A6003023CA9
:103BD000ED900489E060057921023C8A1210DD1223
:103BE0000E3D75E1F17A0179011211F17A297B41DB
:103BF0007C767D7112115B7A00EEF9121209790060
:103C00001211D39004A5E0F9120E4F74022509F5A4
:103C1000D9850AD98509D9E50A602414606F146032
:103C20007D14602E147003023CAC147003023CBA85
:103C3000147003023CC8147003023CD9023CEDE549
:103C400009600F758291758381FFE0F5D9A31FEF9D
:103C500070F875E195EE9004ABF0E509A3F0E50A84
:103C6000A3F0A3E4F0A3F0A3F0A3F0A37480F0907A
:103C700004897409F0906182E0D2E5F0791912119B
:103C8000BB7A007B001210C57900025093E50960F1
:103C9000C1F50875D90F1508E50860B680F5E50986
:103CA00060B0FD75D9551DED60A880F7E50960A2EB
:103CB000FC75D9FF1CEC609A80F7E5096094FB75F0
:103CC000D9001BEB608C80F7E5096086FA75D9F0A6
:103CD0001AEA7003023C5280F4E5097003023C5278
:103CE000F875D9AA18E87003023C5280F479128062
:103CF0009974F7121CC5E9FEC39428400479128018
:103D000057900489E060047921804D1210DD120E75
:103D10003D75E1F17A0179001211F77A297B417C36
:103D2000767D7112115B7A00EEF912120979001298
:103D300011D3EE9004ABF0A3E4F0A374FFF0A3E47E
:103D4000F0A3F0A3F0A3F0A37480F0900489740AA8
:103D5000F079181211BB79008008E98E828F83F008
:103D600079007F01021D9774F6121CC5900489E04A
:103D700064096009E0640A600479218061E5E1700A
:103D8000FC75E101E0640970147AAE7B041211FD48
:103D900079051211D379007A007B00802FE0640A44
:103DA000702D7508B27509047808121E217CB07D4B
:103DB000047AAE7B041212037402121C6B79051292
:103DC00011D379019004AEE0FAA3E0FB120B3D128F
:103DD0000E37120E2B75E1F1900489E4F0F97F02A1
:103DE000021D9774F6121CC5EAFEEBFF8908740BDE
:103DF000121CA1E0F509740C121CA1E0F8A3E0F973
:103E0000E508605F74016508601574036508602F3C
:103E1000740265086029740465086003023EBEE808
:103E2000497003023EBEE50960097401650960033B
:103E3000023EBE740365086006740265087046EEB3
:103E40002460FAEF34FFFBC3EA9461EB943F506EB9
:103E5000EC2460FAED34FFFBC3EA9461EB943F403D
:103E600024805BEE24E0FAEF34FFFBC3EA94E1EB3D
:103E7000943F504AEC24E0FAED34FFFBC3EA94E1AE
:103E8000EB943F5039C3EC9EED9F4032740A121CF4
:103E9000A1E0FA600574016A7024740F121CA1E09D
:103EA000FC600F74016C600A74026C600574036C32
:103EB000700C740E121CA1E0FB74075B7005791284
:103EC00002401F9007E4E064017005790C02401F76
:103ED000E5089007E7F074075BA3F0ECA3F0EA9025
:103EE00007DD702FE4F0900476E09007DEF0900498
:103EF00077E09007DFF0900478E09007E0F090041E
:103F000079E09007E1F090047AE09007E2F0900405
:103F10007B802E7401F090047CE09007DEF090042A
:103F20007DE09007DFF090047EE09007E0F09004E1
:103F30007FE09007E1F0900480E09007E2F09004C9
:103F400081E09007E3F0740165087053E50990077C
:103F5000C8F088828983E09007C9F088828983A3AA
:103F6000E09007CAF088828983A3A3E09007CBF092
:103F700088828983A3A3A3E09007CCF088828983F9
:103F8000A3A3A3A3E09007CDF088828983A3A3A372
:103F9000A3A3E09007CEF09007E5E4F0A3807D7442
:103FA000046508704DE5099007C8F088828983E0B0
:103FB0009007C9F088828983A3E09007CAF08882BD
:103FC0008983A3A3E09007CBF088828983A3A3A36E
:103FD000E09007CCF088828983A3A3A3A3E0900795
:103FE000CDF088828983A3A3A3A3A3E09007CEF09A
:103FF0008023EC70047900801974016C70047901DD
:10400000801074026C70047902800774036C700570
:10401000790312117F9007E5EEF0A3EFF07900022B
:104020003DDE74F6121CC5E9FEC39420500BEE90E1
:1040300007EDF06023EA4B700479128023E0F50865
:104040007509007808121E21EAFCEBFD7AEE7B0769
:1040500012160B7402121C6B9007EC7401F07900BD
:10406000023DDE74F0121CC5E9FE900489E064098B
:10407000700302418CE0640A700302418CE0640B1F
:10408000700302418CE0640C700302418CE0640D0B
:10409000700302418C9007E7E0601664016012E053
:1040A0006403600DE064026008E0640460030241A0
:1040B000FE9007DDE06007640160030241FE9007A7
:1040C000E7E064036005E0640270109007E5C3E078
:1040D00094A0A3E0940050030241FEEE700302415D
:1040E000971460030241FE9007E4E064017003024C
:1040F000418C9007E7E0600964016005E0640470AA
:104100000B121077E954FD600302418C7901121003
:104110005F9007DBEAF0A3EBF09007E47401F09006
:104120000489E0706E1210EF8A088B098C0A8D0BDF
:10413000750C03750D00750E00750F007808790C6D
:10414000121A4D750CFF750DFF750EFF7808790C6E
:10415000121AAE9007DBE0F8A3E0F5838882A3A3F0
:104160007808121B1C9007DBE0F8A3E0C82406F5D2
:1041700082E83400F583E4F0A3F0120E6DE96010DC
:104180007ADB7B071210659007E4E4F07921800563
:104190001210477900806B9007E4E060EFA2AFE473
:1041A00033FFC2AF7ADB7B071210659007E4E4F0BF
:1041B00012107DE970411210DD906182E0C2E6F0DC
:1041C000E5E170FC75E1017591BF75E1F190048F37
:1041D000E0640170187A207B00900488E0F91216E0
:1041E000E97A207B00900488E0F912166B7A00903F
:1041F0000488E0F91216BFEFA2E092AF8095791221
:1042000080937F08021D9774F7121CC5EAFEEBFF2E
:10421000120E55E9F88E828F83F0748068700479ED
:104220003080027900023D6274F6121CC5E9FEC3BB
:104230009420500BEE90080DF06023EA4B70047947
:10424000128023E0F5087509007808121E21EAFCA7
:10425000EBFD7A0E7B0812160B7402121C6B900792
:10426000EC7401F07900023DDE74F7121CC5E9FE22
:10427000600574016E70457409121CA1E0FF6005B1
:1042800074016F7037EA24FCF8EB34FFF9C3E8944B
:10429000FDE9943F5026EC24FCF8ED34FFF9C3E827
:1042A00094FDE9943F5015C3EA9CEB9D400E740ABF
:1042B000121CA1E0F8600A740168600579120243DB
:1042C0005F90083AE064017005790C02435FEEA349
:1042D000F0E8900840F0EF900832702FE4F090047E
:1042E00076E0900833F0900477E0900834F0900482
:1042F00078E0900835F0900479E0900836F090046A
:104300007AE0900837F090047B802E7401F09004DE
:104310007CE0900833F090047DE0900834F0900445
:104320007EE0900835F090047FE0900836F090042D
:1043300080E0900837F0900481E0900838F0900811
:104340003CEAF0A3EBF0A3ECF0A3EDF0E870047905
:1043500000800774016870057901121185790002E7
:104360003D6274F0121CC5E9FEEAFF900489E06426
:104370000970030244D2E0640A70030244D2E0648C
:104380000B70030244D2E0640C70030244D2E06478
:104390000D70030244D290083BE0600764016003A3
:1043A00002456A900832E060076401600302456AD2
:1043B00090083CE024FCF8A3E034FFF9C3E894FD46
:1043C000E9943F400302456AA3E024FCF8A3E034EB
:1043D000FFF9C3E894FDE9943F400302456A900861
:1043E0003CC08290083EE0F8A3E0F9758308D082D3
:1043F000C3E098A3E099500302456AEF6008740196
:104400006F600302456AEE70030244CC146003023D
:10441000456A90083AE0640170030244D2790212BE
:10442000105F900830EAF0A3EBF090083A7401F0C6
:10443000900839F0EF900841F0900489E0600302A1
:1044400044C7120E911210EF8A0C8B0D8C0E8D0F3B
:10445000750810750900750A00750B00780C79084D
:10446000121A4D7508FF7509FF750AFF780C790857
:10447000121AAE900830E0F8A3E0F5838882A3A377
:10448000780C121B1C900830E0F8A3E0C82406F555
:1044900082E83400F583E4F0A3F090083EE0F508EC
:1044A000A3E0F509E4F50A780C7908121A4D900892
:1044B00030E0F8A3E0C8240EF582E83400F58378F4
:1044C0000C121B1C121047790002420290083AE0BD
:1044D0007004792180F3A2AFE433F508C2AF7A30DB
:1044E0007B0812106590083AE4F012107DE97046DE
:1044F0001210DD906182E0C2E6F0E5E170FC75E14A
:10450000017591BF79011211C775E1F190048FE037
:10451000640170187A207B00900488E0F91216E993
:104520007A207B00900488E0F912166B7A009004E0
:1045300088E0F91216BFE508A2E092AF900840E0CB
:10454000640170061211A30244C7A3E06401600372
:104550000244C7900840E060030244C7121167128A
:1045600011A379011211AF0244C779120244C97430
:10457000F7121CC5900489E064076005790C0246B7
:1045800025EC4D7003024628C3EB940F400302460E
:1045900028C3EA9403EB94004003024628EAF8EBB0
:1045A000F9E875F005A4C8AEF02EFE75F005E9A493
:1045B0002EF974BC28F582740439F583E07004790F
:1045C000028062EA75F005A4CAA8F028F875F00523
:1045D000EBA428FB74B92AFA74043BFB7E008C829E
:1045E0008D83E0C0E0EEF8C3E498F895E0F9EA289E
:1045F000F8EB39F9E824D1F582E93400F583D0E00D
:10460000F00E8C828D83A3AC82AD83EEC3941040F8
:10461000CDEA24D3F582EB3400F5837401F07905FB
:10462000120F157900023D62791280F9C082C083B1
:10463000900489E064076005790C0246C3C3EB94DB
:104640000F5068C3EA9403EB9400505FEAF8EBF96B
:10465000E875F005A4C8ACF02CFC75F005E9A42CB5
:10466000F974BC28F582740439F583E0700479028A
:104670008051EA75F005A4CAA8F028F875F005EB9A
:10468000A428FB74B92AFA74043BFBEA24DCF58203
:10469000EB3400F583E064017015EA24F6F582EB53
:1046A0003400F5837406F07902801379128014EADD
:1046B00024DDF582EB3400F5837406F0790D120FDA
:1046C0001579000254BC74E8121CC574FB121C5509
:1046D0007403121CA1EAF0A3EBF07401121CA1EC0C
:1046E000F0A3EDF0E9851882851983F07429121C76
:1046F000A1E0FEA3E0FF742B121CA1E0F508A3E0EB
:10470000F509900851E0640170030248B37904127E
:104710001071E9640170030248B3900489E06409F0
:1047200070030248B3E0640A70030248B3E0640B0C
:1047300070030248B3E0640C70030248B3E0640DF8
:1047400070030248B37403121CA1E024FCF8A3E038
:1047500034FFF9C3E894FDE9943F4003024A3974F9
:1047600001121CA1E024FCF8A3E034FFF9C3E89493
:10477000FDE9943F4003024A397403121CA1C08230
:10478000C0837401121CA1E0F8A3E0F9D083D082A9
:10479000C3E098A3E0995003024A39741E121CA189
:1047A000E0F50AA3E0F50B851882851983E060091E
:1047B00064016003024A398009E50A450B7003026F
:1047C0004A39741D121CA1E0600764016003024AAB
:1047D000397420121CA1E0600764016003024A39A9
:1047E000C3E5089EE5099F5003024A397421121C53
:1047F000A1E0FAA3E0FBEA24FAF8EB34FFF9C3E8FE
:10480000947BE9940C4003024A397423121CA1E002
:10481000F8A3E0F97423121CA1E8F0A3E9F07423D3
:10482000121CA1E024FAF8A3E034FFF9C3E8947B5A
:10483000E9940C4003024A397423121CA1C3E09A84
:10484000A3E09B5003024A397425121CA1E0F8A38F
:10485000E0F97425121CA1E8F0A3E9F07425121CFC
:10486000A1C3E094F4A3E094014003024A39742701
:10487000121CA1E0F508A3E0F509E50824F6F8E527
:104880000934FFF9C3E89477E9940C4003024A39EC
:104890007901121071E96401700F9007E7E060136D
:1048A0006401600FE06404600A7940121071E964E9
:1048B0000170057921024C9685080C85090D740359
:1048C000780C121C42F50EF50F7425121CA1E02481
:1048D00001F514A3E03400F515E4F516F51774237B
:1048E000121CA1E0F8A3E0F9E8C333F8E933F98832
:1048F000108911E4F512F51378147910121926783D
:104900000C79141218E75069120F5DE96401700503
:10491000793A024C969004B6E060477423121CA1C9
:10492000E0FEA3E0FFEEC333FEEF33FF7AFF7BFF31
:10493000120F4B8A0C8B0D7403780C121C339004ED
:10494000B6E0F8C3E50C98E50D94004039C3EA9E43
:10495000EB9F5020EEF8EFF9121BCA8B0DEA450DC4
:104960007024851882851983E07020E50A450B7054
:104970001A024A39EAF8EBF9EEFAEFFB121BCA8B7E
:104980000DEA450D60DC793B024C96120F338A0C20
:104990008B0DAE0CAF0DEE4F70057909024C968E63
:1049A000828F83A3A3A3A3E0900858F07403121C82
:1049B000A1E0F8A3E0F9900852E8F0A3E9F074014F
:1049C000121CA1E0F8A3E0F9900854E8F0A3E9F084
:1049D000851882851983E0900857F0EEF8EFF97A90
:1049E000CF7B078A828B83E0C0E0E8245DF582E913
:1049F0003400F583D0E0F08A828B83A3AA82AB8354
:104A000088828983A3A882A983EA64D47003EB64B3
:104A10000770D0EE245DFCEF3400FDEEFAEFFB12E0
:104A20000F27EE2436F582EF3400F583E0C39402BD
:104A3000500CEEFAEFFB120F397912024C96850AF0
:104A400082850B83E09007C9F0850A82850B83A3DA
:104A5000E09007CAF0850A82850B83A3A3E0900744
:104A6000CBF0850A82850B83A3A3A3E09007CCF04B
:104A7000850A82850B83A3A3A3A3E09007CDF085CD
:104A80000A82850B83A3A3A3A3A3E09007CEF074AF
:104A900020121CA1E0900849F07420121CA1E070C3
:104AA0002D900476E090084AF0900477E090084B4F
:104AB000F0900478E090084CF0900479E090084D74
:104AC000F090047AE090084EF090047B802B9004E4
:104AD0007CE090084AF090047DE090084BF0900450
:104AE0007EE090084CF090047FE090084DF0900438
:104AF00080E090084EF0900481E090084FF0741D23
:104B0000121CA1E09007C8F0120F69EE2426F5826E
:104B1000EF3400F583121B37120E01EE2422F582CA
:104B2000EF3400F583121B377423121CA1E0F8A3A5
:104B3000E0F9EE242EF582EF3400F583E8F0A3E9E6
:104B4000F0EE2432F582EF3400F583E508F0A3E5BA
:104B500009F07425121CA1E0F8A3E0F9EE2430F569
:104B600082EF3400F583E8F0A3E9F0900859E0C043
:104B7000E0EE242AF582EF3400F583D0E0F0EE2455
:104B80002BF582EF3400F5837402F0120F99E9756A
:104B9000F00C84E5F02405C0E0EE2437F582EF3414
:104BA00000F583D0E0F09008567425F09004B6E04C
:104BB000C394024005790112112B790412105F9001
:104BC0000847EAF0A3EBF09008517401F090084711
:104BD000E0F8A3E0C82416F582E83400F58374B544
:104BE000F0A3740EF0900847E0F8A3E0C82414F591
:104BF00082E83400F5837417F0900489E0600302C2
:104C00004C941210EF8A0C8B0D8C0E8D0F7508A032
:104C1000750900750A00750B00780C7908121A4D99
:104C20007508FF7509FF750AFF780C7908121AAE2E
:104C3000900847E0F8A3E0F5838882A3A3780C12DC
:104C40001B1C900847E0F8A3E0C82406F582E8346E
:104C500000F583E4F0A3F0900854E0F508A3E0F534
:104C600009E4F50A780C7908121A4D900847E0F823
:104C7000A3E0C8240EF582E83400F583780C121BFB
:104C80001C8E828F83A3A3A3A3E0F9120E97120EAA
:104C90009D12104779007405121C6B023B80C08284
:104CA000C083900851E060087904121071E9700423
:104CB000790C8037900851E4F012107DE9702A9049
:104CC000048FE0640170187A207B00900488E0F97A
:104CD0001216E97A207B00900488E0F912166B7AAC
:104CE00000900488E0F91216BF79000254BC74E801
:104CF000121CC5900489E064086005790C024F44D9
:104D0000EC24FAF8ED34FFF9C3E8947BE9940C4005
:104D100003024E557418121CA1E0F516A3E0F51716
:104D2000E51624FAF8E51734FFF9C3E8947BE99413
:104D30000C4003024E55C3E5169CE5179D50030237
:104D40004E55741A121CA1E0F8A3E0F9741A121C53
:104D5000A1E8F0A3E9F0741A121CA1C3E094F4A333
:104D6000E094014003024E55741C121CA1E0FEA306
:104D7000E0FFEE24F6F8EF34FFF9C3E89477E99406
:104D80000C4003024E55C3EB940F507EC3EA9403CC
:104D9000EB94005075EAF8EBF9E875F005A4C8AC9F
:104DA000F02CFC75F005E9A42CF974BC28F582748C
:104DB0000439F583E0700479028051EA75F005A4A6
:104DC000CAA8F028F875F005EBA428FB74B92AF5F9
:104DD0001474043BF515E514246EF582E5153400D2
:104DE000F583E0600FE514246AF582E5153400F5DB
:104DF00083E06011E5142473F582E5153400F58332
:104E0000E06401700A793A024F447912024F448EED
:104E1000088F0974037808121C42F50AF50B741AFE
:104E2000121CA1E02401F510A3E03400F511E4F513
:104E300012F513E516C333F8E51733F9880C890D1D
:104E4000E4F50EF50F7810790C1219267808791010
:104E50001218E740057912024F449004B6E0C3945B
:104E6000024052851608851709E508C333F508E5A1
:104E70000933F5097AFF7BFF120F4B8A0A8B0B74FB
:104E800003780A121C339004B6E0F8C3E50A98E5EB
:104E90000B94005003024F5CC3EA9508EB95094060
:104EA00003024F47A808A909121BCA8B09EA450942
:104EB0006003024F5CE5142476F582E5153400F5B5
:104EC000837402F0E5142477F582E5153400F58348
:104ED000E4F0A3F0E5142430F582E5153400F58301
:104EE000E02407F8A3E03400F9E5142474F582E522
:104EF000153400F583E8F0A3E9F0E5142479F58290
:104F0000E5153400F583E516F0A3E517F0741A12E1
:104F10001CA1E0F8A3E0F9E514247BF582E5153443
:104F200000F583E8F0A3E9F0E514247DF582E515AA
:104F30003400F583EEF0A3EFF07900AA14AB15125C
:104F40000F157900023B80EAF8EBF9AA08AB0912C9
:104F50001BCA8B09EA45097003024EB5793B80E410
:104F600074F5121CC5EAFEEBFF900489E06408604A
:104F700005790C025093EE4F60158E828F83A3A3A8
:104F8000A3A3E054E07008120F2DE96401600579D5
:104F900012025093750A007AB57B0478B979048AB5
:104FA000828B83A3A3A3A3A3A3A3E064017030E82F
:104FB000246EF582E93400F583E0600FE8246AF599
:104FC00082E93400F583E06401600FE8247FF58214
:104FD000E93400F583E064017005793A02509305E5
:104FE0000AE82405F8E93401F9EA2405FAEB34016A
:104FF000FBE50AC3940340A77ACF7B07EE2405F8AC
:10500000EF3400F98E828F83E08A828B83F08E8268
:105010008F83A3AE82AF838A828B83A3AA82AB8362
:10502000E86E7002E96F70DC750A007508B57509E5
:10503000047EB97F04850882850983A3A3A3A3A363
:10504000A3A3E06401702BEE2430F582EF3400F569
:1050500083E02407F8A3E03400F9EE2480F582EF22
:105060003400F583E8F0A3E9F07901EEFAEFFB12E2
:105070000F15050AEE2405FEEF3401FFE5082405AF
:10508000F8E5093401F988088909E50AC394034061
:10509000A479007F03021D9774F3121CC590048944
:1050A000E064086005790C0252A2EC4D6024740D96
:1050B000121CA1E0F50AA3E0F50BE50A450B60120E
:1050C000740F121CA1E0F508A3E0F509E5084509F5
:1050D000700579120252A2C3EB940F40030251856E
:1050E000C3EA9403EB94004003025185EAF8EBF91C
:1050F000E875F005A4C8AEF02EFE75F005E9A42E03
:10510000F974BC28F582740439F583E070047902DF
:105110008075EA75F005A4CAA8F028F875F005EBCB
:10512000A428FB74B92AFE74043BFFEE24E3F58245
:10513000EF3400F583E07039EEF8EFF97A9C7B04E8
:105140008A828B83A3E0C0E0E824E4F582E934009E
:10515000F583D0E0F08A828B83A3AA82AB83888216
:105160008983A3A882A983EA64A47003EB64047012
:10517000CFEE24E4F582EF3400F583E0A2E0400AAC
:1051800079110252A279120252A2EEF8EFF9EC2440
:1051900008FAED3400FB8C828D83E0C0E0E8249BAC
:1051A000F582E93400F583D0E0F08C828D83A3ACE6
:1051B00082AD8388828983A3A882A983EA6C700266
:1051C000EB6D70D2850A82850B83E0C0E0EE24A3EC
:1051D000F582EF3400F583D0E0F0850A82850B83F9
:1051E000A3E0C0E0EE24A4F582EF3400F583D0E024
:1051F000F07C00A808A90988828983E0C0E0ECFA65
:10520000C3E49AFA95E0FBEE2AFAEF3BFBEA24D1DD
:10521000F582EB3400F583D0E0F00C88828983A31B
:10522000A882A983ECC3941040CDEE2493FAEF3406
:1052300000FB120FA5EE2487FAEF3400FB120FAB30
:1052400090048BE04480F0EE2462F582EF3400F5A8
:1052500083E4F0EE24D2F582EF3400F583E4F0EE3F
:1052600024D3F582EF3400F583E4F0EE2482F58256
:10527000EF3400F583E064017011EE24DCF582EF79
:105280003400F5837401F0790A800EEE24DCF58297
:10529000EF3400F583E4F07903EEFAEFFB120F151B
:1052A00079007F05021D97C082C083900489E06465
:1052B000086004790C8059C3EB940F5051C3EA94F1
:1052C00003EB94005048EAF8EBF9E875F005A4C840
:1052D000ACF02CFC75F005E9A42CF974BC28F5821F
:1052E000740439F583E07004790280247908EA7542
:1052F000F005A4CAA8F028F875F005EBA428FB7403
:10530000B92AFA74043BFB120F1579008002791256
:105310000254BC74EC121CC589088A0A8B0B12104B
:105320006B8A0C8B0DAE0CAF0D1210EF8A0C8B0D2F
:105330008C0E8D0F850A82850B837401F0E5086061
:105340000A74016508600479128071EE4F604C7830
:105350000C121E1D8E828F83A3A3121B2B1228C931
:105360007404121C6BE9603A75100B75110075120C
:1053700000751300780C121E1D8E828F83A3A3125A
:105380001B2B1229227404121C6B8A0C8B0D8C0EA1
:105390008D0F7810790C1218E74007A908120E49F2
:1053A0008018E50890048B7005E044018003E04418
:1053B00002F0850A82850B83E4F079007F0C021DE0
:1053C0009774EC121CC589088A0A8B0B12106B8A21
:1053D0000C8B0DAE0CAF0D1210EF8A0C8B0D8C0EDA
:1053E0008D0F850A82850B837401F0E508601174C6
:1053F000016508600B740265086005791202548F1C
:10540000EE4F604C780C121E1D8E828F83A3A31268
:105410001B2B1228C97404121C6BE9603A75100B1F
:10542000751100751200751300780C121E1D8E8206
:105430008F83A3A3121B2B1229227404121C6B8AC4
:105440000C8B0D8C0E8D0F7810790C1218E740071D
:10545000A908120E4F8036E508600B146010146026
:105460001514601A801F90048BE044048016900489
:105470008BE04408800E90048BE04410800690047A
:105480008BE04420F0850A82850B83E4F0790002EA
:1054900053BCC082C083E9F89007D4E0F9E8600EFD
:1054A00014700E7401F0E069700B79FF8009E480DC
:1054B000F47912800279008003F07900D083D082E1
:1054C00002011FC082C083E9F890085EE070047991
:1054D0000C800EE8600D14701090048E7401F07949
:1054E0000080D990048EE480F5791280F4C082C0E7
:1054F00083E9F8900489E0701AE8600D1470109048
:10550000048F7401F07900800C90048FE480F579A9
:10551000128002790C80A574F6121CC5EA4B601645
:10552000EC4D6012740A121CA1E0F508A3E0F50925
:10553000E508450970047912800F7808121E2112BF
:105540000FB77402121C6B7900023DDEC082C0836B
:10555000EA4B7004791280168A828B83E0A2E09075
:10556000049DE05004D2E08002C2E0F079000254D1
:10557000BCC082C083E9600E1470119007D9740119
:10558000F079000254BC9007D9E480F4791280F3DA
:10559000C082C083E9F8900489E064076004790C54
:1055A000800EE8600E1470119007DA7401F0790033
:1055B0000254BC9007DAE480F4791280F374F71295
:1055C0001CC5E9FFEAFEC394285008EF6009740186
:1055D0006F60047912805B900489E0600479218017
:1055E000511210DD120E3D75E1F17A297B417C7676
:1055F0007D7112115B74016F70137A01EEF9121252
:105600000979001211D3906190742480177A00EE0A
:10561000F912120979071211D39061907404F09075
:1056200061E874FFF0900489740BF079041211BBE7
:105630007900023D62C082C083900489E0600479F1
:105640002180671210DD120E3D75E1F17A017901BA
:105650001211F17A297B417C767D7112115B9004E5
:10566000ABE4F0FAF912120979001211D375D927B7
:1056700075D90075D925758291758381E0F5D9A317
:10568000E58264B67004E583648170F075E19590FD
:105690000489740DF0906182E0D2E5F0791912115D
:1056A000BB7A007B001210C579000254BC74F7125B
:1056B0001CC5E9FEC3942840047912803790048900
:1056C000E060047921802D1210DD120E3D75E1F1AC
:1056D0007A297B417C767D7112115B7A00EEF9129A
:1056E000120979001211D3900489740CF079031215
:1056F00011BB7900023D62C082C083900489E064DE
:105700000B600EE0640C6009E0640D600479218098
:1057100005120C6F79000254BCC082C083EA4B7042
:10572000057912025810900489E06005790C02583E
:10573000108A828B83E0F47060A3E0F4705B8A824D
:105740008B83A3A3E0F470518A828B83A3A3A3E08D
:10575000F470468A828B83A3A3A3A3E0F4703A8AF1
:10576000828B83A3A3A3A3A3E0F4702D900482E013
:10577000900476F0900483E0900477F0900484E045
:10578000900478F0900485E0900479F0900486E02D
:1057900090047AF09004878070900476E090048200
:1057A000F0900477E0900483F0900478E090048413
:1057B000F0900479E0900485F090047AE0900486FB
:1057C000F090047BE0900487F08A828B83E0900461
:1057D00076F08A828B83A3E0900477F08A828B83B1
:1057E000A3A3E0900478F08A828B83A3A3A3E09024
:1057F0000479F08A828B83A3A3A3A3E090047AF0B8
:105800008A828B83A3A3A3A3A3E090047BF07900F7
:105810000254BCC082C083C3EA94F5EB94014005F6
:1058200079120258E4900489E064086005E0640796
:105830007005790C0258E4C3EA9415EB9400500803
:1058400090085974070258D9EA24EBF8EB34FFF9B1
:10585000C3E8940AE99400500790085974068079C7
:10586000EA24E1F8EB34FFF9C3E89414E99400501A
:105870000790085974058061EA24CDF8EB34FFF9EC
:10588000C3E89419E99400500790085974048049BA
:10589000EA24B4F8EB34FFF9C3E89419E994005012
:1058A0000790085974038031EA249BF8EB34FFF920
:1058B000C3E89432E99400500790085974028019A3
:1058C000EA2469F8EB34FFF9C3E89464E9940090A2
:1058D0000859500474018001E4F09007EAEAF0A34B
:1058E000EBF079000254BC74F7121CC5E9FE90611C
:1058F00085E0F874016E7012E8C3940F50077401CC
:1059000028F9120E317900023D62EE7007E860F569
:1059100074FF80EC791280EF74F4121CC574FC12D1
:105920001C55902C10E493F46004790C804990612C
:1059300085E0851882851983F07508007509FF7563
:105940000AFF750BFF7808121AE7851882851983FC
:105950007808121B1C7508017509007808121E21B1
:105960007402121CA1AC82AD837A047B0B12174324
:105970007402121C6B79007404121C6B023496C002
:1059800082C083E9F8600E7401686009740268607F
:105990000479128007E89004A5F079000254BC74E1
:1059A000F6121CC5E9FB74FF6B700C90085A74FF6B
:1059B000F0A3E4F0F9804CEB600C14604914700320
:1059C000025A64025AA7EAC394084003025AA7E5A0
:1059D000AEC4540F54076A700353AE7F7508017547
:1059E0000900EA7808121C42A808E8F4F952F252B9
:1059F000F3E842FDE952ABEBF9EA90085AF0A3E96B
:105A0000F07900023DDEEA601814601A14601C147C
:105A1000601E146020146022146024146021025A55
:105A2000A790624380179062448012906245800D77
:105A300090624680089062478003906248E4F0E5F7
:105A4000AE54076A700353AEF7750801750900EA92
:105A50007808121C42A808E8F4F952F4E842FEE97A
:105A6000528D8093E5C6A2E7400E74036A60057408
:105A7000046A7004790C808BEA600924FD600A14C2
:105A8000600C802353F5FE800853F5F7800353F52F
:105A9000EF750801750900EA7808121C42E5084212
:105AA000FFF452AC0259F77912025A03C082C08344
:105AB000C3EB940F5051C3EA9403EB94005048EAAF
:105AC000F8EBF9E875F005A4C8ACF02CFC75F0050E
:105AD000E9A42CF974BC28F582740439F583E070CC
:105AE00004790280247916EA75F005A4CAA8F02882
:105AF000F875F005EBA428FB74B92AFA74043BFB93
:105B0000120F577900800279120254BC74F7121CEC
:105B1000C5E9FEC3EB940F5053C3EA9403EB940022
:105B2000504AEAF8EBF9E875F005A4C8ACF02CFC93
:105B300075F005E9A42CF974BC28F582740439F5D4
