:020000040000FA
:0600000002011A02282F84
:03002B00022F8C15
:03004300022F6326
:030053000228A2DE
:03007B00022FB0A1
:1000830002269BE5C754F84401F5C7790122000015
:100093000080FB120086B90003020104E479217891
:1000A30008B800028004F709D8FCE479297802B87B
:1000B30000028004F709D8FCE49002817889790D65
:1000C3008002F0A3D8FCD9FA781A90014A7A01BACF
:1000D30000028007E493A3F608DAF97A097B0F900C
:1000E300014B782B79028015E493A3AD82AE838A0A
:1000F300828B83F0A3AA82AB838D828E83D8E9D9C6
:10010300E775829775837F740012012C7582917550
:100113008300740012012C75D00075813F7518811E
:10012300751902759F00020096C09FF59FE473D076
:100133009F22D083D082C09FE493C0E0740193C018
:10014300E0740293F59F22014F0461048B0455046C
:10015300FF0000B4000028002800283075A000A08C
:1001630000A000A00000080008E001F0001000104B
:10017300001000100010001000500050005000103C
:10018300001000D0070000000000000F0001000570
:1001930000307507001000010081FF00000000FF20
:1001A300F3051106F905FF02020208025000A00040
:1001B3000000E80302C5820100004D8202B78201FC
:1001C3000000680F02B582010000BA0202B7820183
:1001D3000000690F026282010000D00202B78201AF
:1001E30000006A0F02AF82010000D20202B782014F
:1001F30000006B0F02B182080000D30202B7820134
:1002030000006C0F02B3820100006D0FFFFF0100BD
:10021300FF2002C582010000AC8202B78201000008
:10022300D20F02C182000000000002C3820300005B
:10023300B40301100110011001100110011001108D
:100243000110011001100110011001104712651275
:10025300411285139D137F13FF544920424C4520BF
:10026300416C6C0000000000000000000000110061
:10027300FF0012013589D004120135C6D0041201E2
:1002830035DCD0041201350BD10412013541D10400
:1002930012013558D1041201356FD104120135A270
:1002A300D104120135D9D1041201352CD204120123
:1002B3003543D2041201355AD20412013572D204E5
:1002C30012013589D204120135BAD204120135F56F
:1002D300D2041201351FD30412013549D30412018C
:1002E3003560D30412013577D3041201358ED3045C
:1002F300120135B7D304120135CAD304120135E014
:10030300D304120135F3D3041201351AD4041201B4
:1003130035FEBE0212013502C0021201352FC002A2
:100323001201357AC00212013585C002120135A8C7
:10033300C002120135BCC002120135EBC00212012A
:1003430035EDC00212013510C10212013516C20289
:100353001201355AC3021201351EC402120135F3CC
:10036300C40212013564C502120135F0C50212013F
:1003730035F3C5021201357BC602120135B6C6023A
:100383001201351DC70212013520C702120135576C
:10039300C70212013580C7021201352BC8021201B0
:1003A30035B5C80212013504C90212013511C9025B
:1003B30012013514C90212013574C90212013577CD
:1003C300C902120135B0C902120135FBC90212017B
:1003D300357ACA021201357DCA02120135C7CA0233
:1003E300120135CACA0212013541CB02120135444A
:1003F300CB02120135D3CB02120135D6CB02120147
:100403003565CC0212013575CC02120135A5CC023B
:10041300120135B2CC02120135B5CC0212013536C8
:10042300CD0212013543CD0212013531CE02120144
:1004330035E3CE02120135B3F501120135ABF601F6
:10044300120135DFF60112013561F7011201358121
:10045300F701120135C9F7011201351CF801120128
:100463003580F8011201350DF901120135C7F90183
:10047300120135D6FC0112013561FE0112013584EA
:10048300FE01120135FFB6041201359CB8041201B6
:1004930035ECB804120135BCB9041201351BBA049A
:1004A30012013529BA0412013552BA04120135A6D4
:1004B3009604120135CE9604120135FC96041201FE
:1004C300353397041201359197041201351F9904AE
:1004D3001201356A9904120135B59904120135F5F3
:1004E30099041201353B9A04120135699A041201E9
:1004F30035269B04120135309B041201353D9B04C4
:10050300120135709B041201353C9C0412013548DD
:100513009C04120135609C041201356A9C0412018B
:1005230035E89C0412013573DC0412013581DC04C7
:1005330012013599DC04120135B1DC04120135C90D
:10054300DC0412013512DF02120135BEDF02120193
:100553003539E0021201355AE10212013596E10202
:1005630012013530E202120135D9E202120135C01F
:10057300E30212013524E5021201357BE502120183
:1005830035FCE502120135ECE60212013539E702CA
:10059300120135BFE702120135F1E70212013505F9
:1005A300EA0212013547EA0212013565EA02120135
:1005B30035E8EA02120135BCEB0212013584EC0284
:1005C30012013591EE021201352BDE03120135FEC5
:1005D300DE03120135A7DF03120135F3DF03120136
:1005E30035AAE003120135C3E003120135DDE00350
:1005F3001201358DE10312013519E20312013505AC
:10060300E30312013534E30312013547E403120116
:10061300358FE40312013550E503120135B4E503C8
:1006230012013517E60312013547E603120135C1FE
:10063300E60312013564E803120135A0E803120151
:1006430035BCE80312013552DF0412013528C30417
:100653001201353EC30412013564C304120135800F
:10066300C4041201358AC404120135BFC504120142
:1006730035B7C604120135C1C604120135707A00BC
:10068300120135A07B00120135D37B001201351D09
:100693007C00120135E47D00120135008002120155
:1006A30035798002120135898002120135EB80020F
:1006B3001201357C81021201356282021201358EEC
:1006C3008202120135CB8202120135E2820212014B
:1006D300356E83021201357883021201358A830253
:1006E300120135C2830212013525840212013584B9
:1006F3008402120135C78402120135D28402120129
:1007030035DD840212013594850212013597850285
:100713001201359A85021201359D8502120135A019
:1007230085021201358A8602120135ED8602120115
:10073300354F8702120135ED87021201350D89020B
:10074300120135F48A02120135AD8C02120135898A
:100753008D021201353D8E021201357A910212018A
:10076300352892021201359793021201351795022B
:10077300120135BE95021201350796021201353E6C
:100783009602120135DB96021201356697021201B9
:1007930035AAEE02120135FFEE021201355EF002B8
:1007A3001201356EF0021201359BF002120135F78A
:1007B300F002120135FEF102120135C8F2021201F4
:1007C3003528F4021201356BF40212013510F502DB
:1007D3001201355DF50212013583F50212013591DF
:1007E300F70212013596F7021201359BF902120145
:1007F30035E8F9021201355BFA021201358EFA026D
:1008030012013530FB02120135D9FB0212013511F9
:10081300FC0212013514FC021201355CFC021201C8
:10082300359EFC02120135F5FC02120135CBC604DC
:10083300120135DEC604120135ECC604120135344B
:10084300C7041201354AC70412013591C7041201C6
:1008530035A5C80412013532C9041201357DC90416
:10086300120135BC6100120135CC61001201352F34
:1008730062001201357462001201352A630012010D
:10088300350564001201352E64001201355E6400E3
:100893001201359E66001201358568001201355D2F
:1008A3006A00120135A16B00120135086E001201B6
:1008B30035166F0012013568700012013572710030
:1008C300120135B47100120135EC71001201350EBD
:1008D3007200120135717200120135337700120173
:1008E30035CD77001201350B78001201352A7800D7
:1008F300120135847800120135847900120135091B
:100903007A0012013552AD021201355CAD021201BB
:100913003500AE0212013543AE0212013557AE0265
:100923001201358FAE02120135D8AE021201350124
:10093300AF0212013546AF021201358FAF02120129
:1009430035B7AF0212013540B002120135F9B002DA
:100953001201350FB1021201354BB1021201357389
:10096300B102120135ABB102120135DEB10212013F
:100973003515B20212013534B2021201355DB202ED
:10098300120135D6B202120135EBB2021201350063
:10099300B30212013515B3021201354AB302120133
:1009A3003584B302120135A8B30212013571B402C2
:1009B30012013587B402120135A6B402120135B90A
:1009C300B402120135CEB402120135E3B4021201AE
:1009D3003559B5021201356DB502120135C5B5029F
:1009E300120135D4B50212013530B6021201356A4F
:1009F300B6021201359FB602120135CBB6021201BF
:100A030035F9B6021201352CB70212013541B7028E
:100A130012013556B70212013586B702120135D1DC
:100A2300B70212013530B80212013571B802120152
:100A330035ADB802120135D8B80212013547B902F3
:100A430012013584B902120135AFB902120135DF43
:100A5300B9021201350ABA0212013534BA0212017F
:100A6300356BBA02120135A0BA02120135DDBA02A2
:100A730012013507BB0212013537BB021201356182
:100A8300BB021201358BBB02120135B6BB02120148
:100A930035DFBB0212013536BC0212013578BC02C8
:100AA300120135A3BC0212013507BD021201353113
:100AB300BD021201355CBD0212013587BD02120170
:100AC30035B7BD0212013500BE021201352ABE023E
:100AD3001201354FBE02120135D6BE021201350C8A
:100AE300D9041201355FD90412013554CF02120122
:100AF3003582CF02120135DDD002120135BDD1029C
:100B0300120135DCD10212013559D2021201359C92
:100B1300D20212013517D40212013586D402120112
:100B230035B1D60212013535D902120135E6D902A3
:100B3300120135DCDA021201357CDB021201357A4F
:100B4300DC02120135D4DD021201355FDE0212012F
:100B530035D4DE02120135D1D5041201353AD6045B
:100B63001201358ED604120135B0D604120135D7E1
:100B7300D60412013508D70412013529D70412010E
:100B83003592B204120135FFB20412013546B304A3
:100B93001201355EB4041201355AB5041201353D14
:100BA300B60412013587F303120135C9F3031201A9
:100BB300359BF40312013574F5031201356EF60308
:100BC30012013550F703120135B9F70312013550FD
:100BD300F8031201356DF80312013589F803120188
:100BE3003532F903120135A6F90312013512FA035E
:100BF30012013515FA031201353EFA03120135B815
:100C0300FA0312013551FB03120135B6FB0312013E
:100C130035CBFB0312013511FC031201352AFC030A
:100C23001201358FFC0312013592FC03120135B614
:100C3300FC03120135F2FC0312013530FD031201EE
:100C430035FAFD0312013569FE03120135A4FE03D3
:100C5300120135E2FE0312013512FF031201353989
:100C6300FF03120135A7FF031201350430001201FF
:100C7300355F3200120135713500120135AD350093
:100C8300120135DA3500120135CC36001201351761
:100C93003700120135623700120135743700120133
:100CA30035B43700120135F5370012013504380029
:100CB300120135393800120135873800120135B673
:100CC30038001201352E3900120135603900120146
:100CD300359C3900120135BF3900120135913A00B4
:100CE300120135C83A001201356A3B00120135F191
:100CF3003B00120135D93C00120135713F0012014E
:100D030035DD4000120135534100120135CF41005A
:100D13001201350E44001201354F4400120135F320
:100D230045001201351446001201355546001201E3
:100D3300354E47001201355B4900120135184A0050
:100D4300120135B24A001201358A5000120135DA18
:100D530050001201354C5300120135845400120126
:100D630035935600120135FF5600120135AD570079
:100D73001201357E5800120135AF5800120135D9E2
:100D83005800120135035900120135385900120178
:100D9300355D59001201357C5900120135A95900FE
:100DA300120135215A00120135995A00120135E317
:100DB3005A00120135055B00120135FF5B00120179
:100DC30035D35C00120135045D001201356B5D0003
:100DD3001201358B5D00120135985E00120135F862
:100DE3005E00120135DB5F001201356A60001201FB
:100DF30035956000120135DA60001201351E61007D
:100E03001201356D61001201358F6100120135E267
:100E1300FD0212013597FF021201354BB90312018E
:100E23003549BA03120135E2C00312013503C30386
:100E3300120135CEC40312013536C6031201359EA5
:100E4300AE011201354DAF011201357AAF01120126
:100E530035C0AF01120135D2AF0112013508B1011E
:100E630012013566B1011201358BB101120135C290
:100E7300B10112013558B301120135D2B301120188
:100E83003521B4011201359BB401120135F5B501C9
:100E930012013555B7011201355BB801120135BC9A
:100EA300B9011201350EBA011201357FBB011201DE
:100EB30035C4BD01120135BEBE01120135D7BE01D5
:100EC30012013535BF0112013554BF0112013573CB
:100ED300BF0112013576BF01120135A7C00112010E
:100EE300359FC1011201358BC2011201356DC3015A
:100EF300120135A0C30112013510C401120135825C
:100F0300C401120135FCC40112013552C50112019D
:100F1300352DC601120135F7C601120135CCC701C3
:100F2300120135ABC80112013536C901120135A4CE
:100F3300C90112013518CA0112013543CA01120150
:100F43003502CB0112013556CB0112013543CE01D7
:100F53001201358CCE01120135CFCE011201354875
:100F6300CF01120135E0CF01120135D1D0011201B9
:100F730035F6D0011201353CD10112013566D1019C
:100F8300120135AED10112013529D2011201358387
:100F9300D201120135ECD3011201359AD4011201A9
:100FA30035DBD401120135CA9C03120135189D03A8
:100FB300120135249D03120135029E0312013533BC
:100FC3009E03120135649E03120135E49E03120150
:100FD30035629F031201359A9F03120135EC9F037B
:100FE30012013529A00312013546A2031201356C03
:100FF300A40312013557A60312013541A8031201B8
:1010030035F8FF01120135709D04120135BBA104AF
:10101300120135FFA204120135768E031201352E1B
:101023009103120135349103120135EE930312013A
:1010330035BB9603120135F9A8041201359DA904A5
:101043001201356FAA0412013599AA04120135E77A
:10105300AC041201350BD50112013555D50112012E
:10106300351EE601120135A3E701120135C6E80179
:1010730012013537EF0112013532F0011201356FDC
:10108300F00112013592F001120135D4F001120181
:1010930035DDF001120135E7F001120135D5F1011B
:1010A300120135CBF20112013564F301120135430C
:1010B3009802120135429C02120135489C0212012A
:1010C3003583A3021201359CA8021201355ABF04CD
:1010D300120135F0BF0412013506C0041201357C3C
:1010E300C004120135F0C0041201352EC1041201EF
:1010F30035A2C1041201351BC20412013524C204F6
:1011030012013530C20412013545C2041201358380
:10111300C20412013599C204120135F8C204120146
:1011230035988704120135A58704120135BF87045A
:10113300120135FE87041201353C8804120135A1E2
:101143008804120135B68804120135C188041201DE
:1011530035CE8804120135E58804120135F388047D
:101163001201350289041201351789041201352C45
:1011730089041201353789041201354389041201A8
:10118300355089041201355F89041201356A8904D7
:101193001201358F89041201359489041201352E09
:1011A3008A04120135948A04120135A48A041201B7
:1011B30035B98A04120135CE8A04120135E88A044E
:1011C300120135038B04120135208B041201352BD8
:1011D3008B04120135E78B04120135D38C04120101
:1011E30035EF8C04120135068D04120135118D047F
:1011F300120135268D041201353A8D041201359BF7
:101203008D04120135A18D04120135A78D0412013D
:1012130035AD8D04120135C18D04120135E88D04FD
:10122300120135238E041201353C8E041201357CE4
:101233008E04120135AF8E0412013531E903120118
:101243003553E90312013533EA031201350AED037D
:1012530012013536EE031201355AEF031201350C34
:10126300F003120135ADF00312013521AB03120176
:1012730035A5AB0312013554AC03120135B3AD03ED
:10128300120135D4AF03120135C0B003120135F595
:10129300B00312013517B103120135C6B1031201B0
:1012A30035BEB303120135E7B30312013579B40335
:1012B300120135ABB403120135B8B4031201350F73
:1012C300B50312013535B503120135A2B703120177
:1012D30035A5B803120135FDB803120135008003AB
:1012E3001201350A8103120135F18103120135FB25
:1012F300810312013505820312013527820312018E
:1013030035338203120135CC8303120135FB83038A
:10131300120135178503120135708503120135D685
:101323008603120135B587031201351188031201B3
:10133300357E8803120135B98803120135F8880315
:10134300120135B18B03120135CB8B0312013557D3
:101353008C03120135658C03120135BE8C03120117
:1013630035CC8C031201353F8D03120135A38D0358
:10137300120135ED8D03120135FDD2031201351F24
:10138300D30312013545D5031201355AD80312018F
:101393003572D90312013525DA0312013507DB0350
:1013A3001201352CD40412013551D404120135C372
:1013B300D4041201352C8F04120135358F04120128
:1013C300353E8F04120135159004120135C6910480
:1013D300120135FC91041201353692041201356C69
:1013E3009204120135A69204120135DA9204120115
:1013F300350693041201354F930412013589930482
:10140300120135D293041201352A94041201355F77
:101413009404120135BA9404120135F494041201B0
:10142300354595041201357B9504120135B59504B4
:10143300120135E395041201350696041201356055
:10144300C60312013593C603120135D6C603120132
:1014530035E1C603120135ECC603120135F7C603A5
:1014630012013502C7031201356ECA031201354159
:10147300CB03120135BBCB0312013532CC0312016E
:10148300353FCC031201354CCC0312013556CC0346
:1014930012013560CC031201357CCC031201358C6B
:1014A300CC03120135CECC03120135F4CC03120167
:1014B30035FECC0312013508CD0312013512CD03DD
:1014C3001201351FCD0312013529CD031201353326
:1014D300CD031201353DCD0312013547CD03120172
:1014E3003591CD03120135AECD03120135CBCD03BA
:1014F300120135DBCD03120135E5CD031201354071
:10150300CE031201354DCE0312013511CF03120163
:10151300351BCF0312013525CF031201352FCF031E
:101523001201354CCF0312013569CF031201352D5A
:10153300D00312013537D00312013544D003120111
:101543003551D00312013572D0031201357BD0031C
:10155300120135A2D003120135C9D003120135EEB1
:10156300D003120135F7D00312013506D10312015E
:10157300351ED10312013527D10312013536D103AC
:1015830012013545D1031201354ED1031201355DE8
:10159300D1031201356DD1031201358CD103120130
:1015A3003599D103120135A6D103120135B6D10302
:1015B300120135C3D103120135D3D103120135E32F
:1015C300D103120135F3D10312013525D2031201E0
:1015D300352FD2031201353FD2031201354FD20307
:1015E3001201355CD20312013581D2031201358E0B
:1015F300D2031201359ED203120135A8D203120180
:1016030035B5D203120135BFD203120135CFD20350
:10161300120135D9D203120135E3D203120135F396
:10162300D203120135F57F0012013542A3041201E2
:10163300354CA3041201358AA304120135D3A30444
:101643001201350DA40412013563A404120135847B
:10165300A4041201358DA404120135D8A404120187
:101663003501A5041201350BA50412013515A50496
:1016730012013581A50412013517A6041201356143
:10168300A60412013591A6041201351AA70412010A
:10169300355AA70412013592A704120135B1A704E4
:1016A300120135BAA70412013585A804120135CFFA
:1016B300A8041201357CDB041201354BE00412014E
:1016C300359ACE04120135D0CE0412013506CF046B
:1016D3001201354FD004120135BADE04120135D0A0
:1016E300DE04120135DADE0412013524DF041201AF
:1016F3003513AE0412013528AE04120135D8AE04F9
:1017030012013518AF0412013531AF0412013565EA
:10171300AF04120135B2AF04120135E6AF04120172
:101723003528B0041201352CB20412013512E1043C
:101733001201353BE104120135D6DF04120135EF06
:10174300FF03120135AFFF01120135EEFF01120154
:1017530035EDFF0212013562DD0412013572DD043D
:1017630012013584DD0412013515DE0412013578CA
:10177300DA04120135FDDA0412013563DB041201C8
:1017830035F92F001201355CE1041201356CE104D7
:101793001201356FE104120135F87F001201356B38
:1017A300CC04120135F0CD0412013551CE041201DF
:1017B3003597CE0412013566BB0412013536BC04DD
:1017C300120135DEBC0412013580BD0412013565FA
:1017D300BE0412013578BE0412013581BE04120124
:1017E30035B8BE0412013504BF0412013524BF0409
:1017F3001201352EBF0412013550BF04120135C842
:101803008201120135438301120135E48301120180
:10181300351B85011201356A86011201358A86015D
:101823001201353387011201356E8F011201355FC5
:101833009601120135579F0112013590A001120143
:10184300352BAB01120135CAAB0112013584AD0151
:1018530012013542AE011201357BAE011201352270
:10186300DE041201358DDE0412013598DE04120107
:1018730035A8DE04120135B3DE041201356FD70437
:10188300120135BFD70412013548D804120135AE11
:10189300D804120135A7C904120135D1C9041201B4
:1018A3003597CA0412013572CB04120135F9CB0402
:1018B300120135008004120135BD8004120135F890
:1018C3008004120135208104120135828104120142
:1018D30035CE81041201352E8204120135C18204F2
:1018E300120135C083041201354F8504120135D22C
:1018F300850412013539860412013550860412011C
:10190300355A8704120135A0E004120135E6E004DC
:101913001201353EE104E76670100809E766700AB4
:101923000809E76670040809E76622E06670100894
:10193300A3E066700A08A3E066700408A3E06622C9
:10194300C3E7960809E7960809E7960809E7962288
:10195300C3E09608A3E09608A3E09608A3E09622C6
:10196300C008C3E096F50808A3E096420808A3E080
:1019730096420808A3E09645087001D3D0082208D0
:101983000808EAC0E0EBC0E086F0E7A4FA1809868D
:10199300F0E7A42AFA180986F0E7A42AFA180986B8
:1019A300F0E7A42AFA1986F0E7A4FBE5F02AFA196E
:1019B3000886F0E7A42BFBE5F03AFA190886F0E76E
:1019C300A42BFBE5F03AFA18180986F0E7A4C5F052
:1019D3002BFBE43AFA1908E7C5F0C6A426F6E5F0AE
:1019E3003BFBE43AFA1886F0E7A4F6E5F00826F69E
:1019F300E43B08F6E43A08F6D0E0FBD0E0FA22E450
:101A0300CFC0E0E4CEC0E0E4CDC0E0E4CCC0E075FC
:101A1300F020E626F608E633F608E633F608E63362
:101A2300F6181818EC33FCED33FDEE33FEEF33FFFD
:101A3300C3EC9709ED9709EE9709EF971919194028
:101A43000FFFEC97FC09ED97FD09EE97FE191906B8
:101A5300D5F0BFECF709EDF709EEF709EFF7191920
:101A630019D0E0FCD0E0FDD0E0FED0E0FF2260160C
:101A7300080808C6C313C618C613C618C613C61863
:101A8300C613C6D5E0EA22700908080822601618B2
:101A93001818C6C333C608C633C608C633C608C635
:101AA30033C6D5E0EA22E627F60809E637F6080941
:101AB300E637F60809E637F622E026F608A3E0360D
:101AC300F608A3E036F608A3E036F622E026F0088F
:101AD300A3E036F008A3E036F008A3E036F022C313
:101AE300E697F60809E697F60809E697F60809E681
:101AF30097F622C3E096F008A3E096F008A3E096D9
:101B0300F008A3E096F022E657F60809E657F60830
:101B130009E657F60809E657F622E056F608A3E069
:101B230056F608A3E056F608A3E056F622E056F070
:101B330008A3E056F008A3E056F008A3E056F0220D
:101B4300E046F608A3E046F608A3E046F608A3E05D
:101B530046F622E667F60809E667F60809E667F639
:101B63000809E667F622E0F608A3E0F608A3E0F624
:101B730008A3E0F622E6F008A3E6F008A3E6F008DF
:101B8300A3E6F022E0FAA3E0FBA3E0FCA3E0FD223E
:101B9300EAF0A3EBF0A3ECF0A3EDF022E0F8A3E06E
:101BA300F9A3E0FAA3E0FB22E8F0A3E9F0A3EAF04B
:101BB300A3EBF022CAC0E0E6F0A308DAFAD0E0FA19
:101BC30022CAC0E0E0A3C582CCC582C583CDC5834C
:101BD300F0A3C582CCC582C583CDC583DAE6D0E048
:101BE300CA22C3E498F8E499F9121C268026C3E4B8
:101BF3009AFAE49BFBE920E7E9121C26E498F8E44F
:101C030099F922C3E498F8E499F9121C26E498F8A8
:101C1300E499F9C3E49AFAE49BFB22EB20E7CFE9CA
:101C230020E7E0B90010BB0008E88AF084F8AAF0C6
:101C330022E4FBC8FA22EB70227B10C833C8C933F5
:101C4300C9335007C39AC3DBF280069A50012ADBDB
:101C5300EAC833F4C8C933F4C9FA2275F008E4C8F2
:101C630033C8C933C933C99AC99B5004C92AC93B6C
:101C7300D5F0ECFBC833F4C8E4C9FA22600D08C6FA
:101C8300A2E713C618C613C6D5E0F322600C08C634
:101C9300C313C618C613C6D5E0F422700422600D20
:101CA30018C6C333C608C633C6D5E0F418222518B0
:101CB30010AF08F518400C15198008F518400215E7
:101CC30019D2AF2200C0D0251810AF08F518500C58
:101CD30005198008F51850020519D2AFD0D0222576
:101CE30018F58210AF08F518400C15198008F5187F
:101CF30040021519D2AF851983222518F582E435E0
:101D030019F583222518F8E43519F9222518FAE480
:101D13003519FB222518FCE43519FD22E473251837
:101D2300C582C0E0E51934FFC583C0E0E518C3955B
:101D33008224F810AF08858319858218800885836B
:101D430019858218D2AFCEF0A3E520F0A37808E678
:101D530008F0A3DEFAEFF0A3E58124FAF8E608F031
:101D6300A3E608F0A3E608F0A30808E608F0A3E654
:101D730008F0A315811581D0E0FED0E0F815811598
:101D8300811581E8C0E0EEC0E0222518C582C0E0DD
:101D9300E51934FFC583C0E0E518C3958224F91023
:101DA300AF08858319858218800885831985821871
:101DB300D2AFCEF0A3E520F0A37808E608F0A3DEC7
:101DC300FAEFF0A3E58124FBF8E608F0A3E608F0B8
:101DD300A30808E608F0A3E608F0A315811581D04F
:101DE300E0FED0E0F815811581E8C0E0EEC0E02206
:101DF300851983851882E0A3FEE0A3F5207808E027
:101E0300A3F608DFFAE0A3FFE0A3C0E0E0A3C0E08D
:101E1300E0A3C0E0E0A3C0E0E0A3C0E010AF08850A
:101E230082188583198008858218858319D2AFD0DB
:101E330083D082020132851983851882E0A3FEE0F4
:101E4300A3F5207808E0A3F608DFFAE0A3FFE0A3F8
:101E5300C0E0E0A3C0E0E0A3C0E0E0A3C0E010AFB7
:101E6300088582188583198008858218858319D28D
:101E7300AFD083D08222C0D02518C582C0E0E51937
:101E830034FFC583C0E0E518C3958224F310AF087F
:101E93008583198582188008858319858218D2AFB6
:101EA300C8F0A3E9F0A3EAF0A3EBF0A37908E709EC
:101EB300F0A3D8FAECF0A3EDF0A3EEF0A3EFF0A3B8
:101EC300D0E0F0A3D0E0F0A3D0E0F0A3E520F0A3AE
:101ED300E5F0F0A322851983851882E0C0E0A3E032
:101EE300F9A3E0FAA3E0FBA37808E0F608A3DFFA7E
:101EF300E0FCA3E0FDA3E0FEA3E0FFA3E0C0E0A3BA
:101F0300E0C0E0A3E0F5D0A3E0F520A3E0A3F5F063
:101F130010AF088583198582188008858319858207
:101F230018D2AFD082D083D0E0F8D0E032740480EE
:101F330006740280027401C0E0F404121CE2D0E0D3
:101F4300121BB7227404800474028000CCC0E0ED3D
:101F5300C0E0E518C39CCCAD1950011D10AF068C31
:101F6300188D1980068C188D19D2AF121BC4D0E0BE
:101F7300FDD0E0FC22D083D082C5F0E493A3C5F06A
:101F8300C395F0F5F0E493A3C395F04005E5F004A1
:101F93008001E475F002A42582F582E5F03583F52E
:101FA30083E493A3C0E0E493C0E022D083D082E92A
:101FB300C0E0E493A3C386F0C5F095F0F908E49379
:101FC300A386F0C5F095F0700BE493A3C399400585
:101FD300E9048002A3E475F002A42582F582E5F00A
:101FE3003583F583D0E0F9E493A3C0E0E493C0E044
:101FF30022D083D082CCC0E0E493A3600612201EDB
:102003001470FAE493A3600612203D1470FAD0E032
:10201300FCE493A3C0E0E493C0E022C0E0E493A314
:10202300D39C5010E493A3C39C400AD0E0D0E0D0EB
:10203300E0022011A3A3A3D0E022C0E0E493A36CA9
:102043007009D0E0D0E0D0E0022011A3A3D0E022B9
:10205300D083D082ECC0E0EDC0E0E493A3FCE49332
:10206300A3FDED4C600D12209FEC24FFFCED34FF2B
:10207300FD80EFE493A3FCE493A3FDED4C600D120C
:1020830020DEEC24FFFCED34FFFD80EFD0E0FDD03B
:10209300E0FCE493A3C0E0E493C0E022C0E0C3E427
:1020A3009396087401939618400FE493667008089A
:1020B300740193661870007019A3A3C3E493960880
:1020C3007401939618A3A3400DD0E0D0E0D0E002B2
:1020D300208FA3A3A3A3A3A3D0E022C0E0C0F088D2
:1020E300F0E4936670080874019366187000A8F012
:1020F300A3A3700BD0F0D0E0D0E0D0E002208FA3F8
:06210300A3D0F0D0E022A1
:10210C0074F5121D8DEAFEEBFFEE2434F8EF34006B
:10211C00F988088909EE2435F582EF3400F583E05F
:10212C00F8EE2437F582EF3400F583E0F50AEC8500
:10213C000AF0A4FCAAF0850AF0EDA42AFDE82CF81C
:10214C00E43DF97A257B00121C26EA850882850974
:10215C0083F0F8740758F97401B900028004C33392
:10216C00D9FCFAE8131313541FF8EE28F8EF3400D7
:10217C00F9E8245DF582E93400F583E05A6008EE55
:10218C002434F582EF802CEE2434F582EF3400F504
:10219C0083E0C0E0EE2436F582EF3400F583E0F501
:1021AC00F0D0E084A8F0EE28F8EF3400F9E82438F9
:1021BC00F582E93400F583E0F97F04021E3974F5E9
:1021CC00121D8DEAFEEBFFEE2434F582EF3400F5A0
:1021DC0083E0C0E0EE2435F582EF3400F583D0E0E7
:1021EC00F08E828F83A3A3A3A3A3A3A3C082C083D7
:1021FC008E828F83A3A3A3A3A3E0F8A3E0F9D083DB
:10220C00D082E0C398F508A3E099F509EE247FF598
:10221C0082EF3400F583E064017069EE2480F5826E
:10222C00EF3400F583E0F8A3E0F98E828F83A3A34B
:10223C00A3A3A3A3A3E0FCA3E0FD8E828F83A3A39F
:10224C00A3A3A3E0FAA3E0FBC3EA9CEB9D5010C34D
:10225C00EC98ED99402EC3EA98EB995027800EC369
:10226C00EA98EB994007C3EC98ED9940177CCF7D29
:10227C0007EEFAEFFB120F3BEE247FF582EF3400F2
:10228C00F583E4F0EE2434F8EF3400F9E8FCE9FDD2
:10229C00EE2435F582EF3400F583E0F8EE2437F5C3
:1022AC0082EF3400F583E0F50AE508850AF0A4F521
:1022BC0008AAF0850AF0E509A42AF509E82508F82A
:1022CC00E43509F97A257B00121C26EA8C828D8371
:1022DC00F0F8740758F97401B900028004C333D9BB
:1022EC00FCFAE8131313541FF8EE28F8EF3400F936
:1022FC00E8245DF582E93400F583E05A6008EE24A9
:10230C0034F582EF802CEE2434F582EF3400F58323
:10231C00E0C0E0EE2436F582EF3400F583E0F5F012
:10232C00D0E084A8F0EE28F8EF3400F9E82438F572
:10233C0082E93400F583E0F9122F4F0221C5C082E7
:10234C00C083851882851983E0F8A3E0F9C3EA9C61
:10235C00EB9D5010C3EC98ED99401BC3EA98EB9998
:10236C005014800EC3EA98EB994007C3EC98ED9992
:10237C004004790180027900D083D08222EAC39C88
:10238C00FAEB9DFB2274EF121D8D900489E064081A
:10239C006005E06407702A9061C8E060249004B77F
:1023AC00E0F4601DE0F875F005A4C8AAF02AF974F1
:1023BC00B928FE740439FF8E828F83A3A3A3E07027
:1023CC00030224C1906060E0C0E0EE2468F582EF67
:1023DC003400F583D0E0F0750C62750D08750800BB
:1023EC00750900E5D914F50AE5D95403F50E601703
:1023FC007403650E605CE50A6010EE2467F582EFED
:10240C003400F583E070030224A690085DE06401BB
:10241C00602AEE2482F582EF3400F583E0600478C4
:10242C000480027800850A08E508C398FA95E0FB59
:10243C00120C7D8A088B09EA450970051212058079
:10244C0074EE2482F582EF3400F583E070048A0C7C
:10245C008B0DE50A6012850C82850D83F50BE5D991
:10246C00F0A3150BE50B70F6EE2482F582EF340029
:10247C00F583E0604474FC250AF50A780C121F34CD
:10248C00AC0AA90EEEFAEFFB120FFB7402121CC77A
:10249C00E97026AA08AB09121883793D8E828F83C6
:1024AC00A3A3A3A3E0FA7B00120B27EEFAEFFB1217
:1024BC000F6512105B7900807D7403650E60568584
:1024CC000A107511007810121F34AC0CAD0DAA084F
:1024DC00AB09120FD77402121CC7EE2468F582EFF9
:1024EC003400F583E064807004747F8001E0F50CA7
:1024FC00780C121F38E50EF50C780C121F38A90A4F
:10250C00AC08AD099004B7E0FA7B00120AE574023E
:10251C00121CC7801C900489E06408AC0CAD0D70D3
:10252C0009EEFAEFFB12102B8007EEFAEFFB1210FC
:10253C00C112121179017F0A021E3974F5121D8D18
:10254C0074FC121CB1EAFEEBFF8908A2AFE433F570
:10255C0009C2AF806AEE2463F8EF3400F97A007B8D
:10256C0000A2AFE433F50AC2AF88828983E0FCA3F2
:10257C00E0FDEC4D603A88828983E0FAA3E0FB8AA7
:10258C00828B83E0FCA3E0FD88828983ECF0A3EDD1
:10259C00F08A828B83E4F0A3F088828983E0FCA329
:1025AC00E0FDEC4D700A88828983A3A3E4F0A3F0CC
:1025BC00E50AA2E092AF1218839007D6E004F0EE81
:1025CC002463F582EF3400F583E0F8A3E0F9E849E1
:1025DC00603DEE2463F582EF3400F583E02402FACB
:1025EC00A3E03400FBEA2402F50AEB3400F50B7887
:1025FC000A121F348A828B83E0FCA3E0F9EEFAEF17
:10260C00FB120F957402121CC7E97003022561902E
:10261C0007D6E060639007D7E0F89007D6E0C39840
:10262C00500C7402650870509007D8E0604A8E8296
:10263C008F83A3A3A3A3E0851882851983F0A3E459
:10264C00F09007D6E0F87402121CFDE8F0A3E4F059
:10265C009007D6E0F89007D5E028F07402121CFD24
:10266C00AC82AD83851882851983AA82AB837901EC
:10267C00120AF19007D6E4F0E509A2E092AF7404D7
:10268C00121CC70221C500008521878522C622C0E5
:10269C00E0C0D0E8C0E0E9C0E0EAC0E0EBC0E0ECAC
:1026AC00C0E0EDC0E0EEC0E0C008C009C00AC00B3D
:1026BC00C082C083C0F0A2AFE433FEC2AF759B00F2
:1026CC00906182E0A2E05012E591A2E0500C75916D
:1026DC00FE740165217003122391E0A2E55051E5CF
:1026EC0091A2E5504B7591DF900489E06407600579
:1026FC00E06408702374016521703579019004B78A
:10270C00E0FA75F005A4CAA8F028FB74B92AFA748B
:10271C00043BFB1225478018E0640D70139004AB4A
:10272C00E004F064287002E4F07A00E0F912122F51
:10273C00906182E0A2E640030227E2E591A2E64026
:10274C00030227E27591BF900489E06405700812BA
:10275C0010F712110380031210FD75210012116F76
:10276C00E990048AF07900121151120E577A017B0C
:10277C0000900488E0F912168B907803E0644270A4
:10278C0055900861E014F0704DC2AF12279A007892
:10279C002AD0E0F618D0E0F6E59F540770057509CD
:1027AC00FF800375097FC4C0E07829E6F50808E6C8
:1027BC005509F509740B7808121C8FD0E02508F820
:1027CC00906270E0A2E740F8E8C333906272F09038
:1027DC006270E0D2E0F0906181E0A2E35009E5E99B
:1027EC00A2E3500375E9F7A3E0A2E75009E591A233
:1027FC00E7500375917FEEA2E092AFD0F0D083D07A
:10280C0082D00BD00AD009D008D0E0FED0E0FDD0A9
:10281C00E0FCD0E0FBD0E0FAD0E0F9D0E0F8D0D08A
:10282C00D0E032C0E0C0D0C082C083906183E0A20F
:10283C00E05009E5BFA2E0500375BFFEE0A2E150F5
:10284C0009E5BFA2E1500375BFFDE0A2E25009E526
:10285C00BFA2E2500375BFFBE0A2E35009E5BFA2A3
:10286C00E3500375BFF7E0A2E45009E5BFA2E450C2
:10287C000375BFEFE0A2E55009E5BFA2E550037573
:10288C00BFDFE0A2E65009E5BFA2E6500375BFBF6B
:10289C00D083D0828088C0E0C0D0E8C0E0E9C0E03E
:1028AC00EAC0E0EBC0E0ECC0E0EDC0E0C0F0E5A7B2
:1028BC00A2E6500FE5A1A2E6500953A7BF75A1BF30
:1028CC00122907E5A7A2E5500CE5A1A2E550065395
:1028DC00A7DF75A1DFE5A7A2E15009E5A1A2E150B0
:1028EC000375A1FDE5A7A2E2500CE5A1A2E25006FA
:1028FC0053A7FB75A1FBD0F002281874F8121D8D9C
:10290C00752101900489E06406701512107F8A828B
:10291C008B83A3A3A3A3A3A3E0FAA3E0FB1210E56C
:10292C00A2AFE433FED2AF90048FE0640170187A4A
:10293C00207B00900488E0F91217157A207B009018
:10294C000488E0F9121691906182E0D2E6F09008CA
:10295C005EE0602185C622801690048EE0640170D2
:10296C0008E5C654F84405F5C653BEFC122694740B
:10297C0001652160E4EEA2E092AF7F01021E3900F6
:10298C008E238F2485822885832785188285198339
:10299C00E0CEA3E0CF852882852783EBC9EAC8ED7A
:1029AC00CBECCA75F010C3E833C8E933C9EA33CAB3
:1029BC00EB33CBC3EA9EF526EB9FF525B35004AB66
:1029CC0025AA26EC33CCED33CDD5F0DAAE23AF24EB
:1029DC002274E9121D8D74F8121CB18518828519A8
:1029EC0083ECF0A3EDF08A088B09900489E024F7BE
:1029FC00C394055006750801022B7412107F8A0AC5
:102A0C008B0BAE0AAF0BEE4F7003022B71AC08AD03
:102A1C00097402121CFDAA82AB831211158E828FCF
:102A2C0083A3A3750CFF750DFF750EFF750F007852
:102A3C000C121B1D7402121CFD7510FF7511FF7515
:102A4C0012FF7513007810121B1D780C79101219D7
:102A5C0043502A780C7910121AE27508017509C8CE
:102A6C00750A00750B007808790C121943505285C1
:102A7C000C08850D09850E0A850F0B805075140105
:102A8C007515C87516007517008510088511098510
:102A9C00120A85130B7808790C121AE2781479084B
:102AAC00121943401C750800750900750A00750B56
:102ABC000178087910121AE27808790C121AA98098
:102ACC000C750801750900750A00750B00740978FE
:102ADC0008121A8A750C19F50DF50EF50F78087990
:102AEC000C121A028E828F83A3A3A3A3A3A3E0F8D4
:102AFC00A3E0F97AD07B03121C26880C890DE4F52F
:102B0C000EF50F7808790C121AA97406121CFDE048
:102B1C00F8A3E0F97AD07B03121C26E8FA8A0CE4BD
:102B2C00F50D7808790C12194350077808790C12B6
:102B3C001AE2900489E06408600AE064066005E02B
:102B4C006405702D750C0D780C7908121943402111
:102B5C00750CF4750DFF750EFF750FFF7808790C69
:102B6C00121AA9800C750800750900750A00750BFE
:102B7C0000851882851983E0F8A3E0F583888278B4
:102B8C0008121B787408121CC77F10021E3974F7C8
:102B9C00121D8D12112790085CE064017010906278
:102BAC0045E4F0A3F053F4F343FE0C5390F31210EE
:102BBC00D3E5C654804449F5C6E59E547F644970FC
:102BCC00F8906185740FF090085AE0F47002A3E05D
:102BDC00604E90085BE0600814601B14602E80400F
:102BEC0075080175090090085AE07808121C9EE5DA
:102BFC0008F45280802A75080175090090085AE083
:102C0C007808121C9EE508F4529080147508017522
:102C1C00090090085AE07808121C9EE508F452A0AE
:102C2C0079007F02021E3974F7121D8DE9FEEAFF4E
:102C3C0074016E700C7A807B00900488E0F9121697
:102C4C008B902FFCE493F46008E493F9120E45800A
:102C5C000953C680E59E547F70FA1210D990085C17
:102C6C00E064017003120E7590085AE0F47002A330
:102C7C00E0604B90085BE0600814601A14602C80D4
:102C8C003D75080175090090085AE07808121C9EE1
:102C9C00E5084280802875080175090090085AE003
:102CAC007808121C9EE5084290801375080175097E
:102CBC000090085AE07808121C9EE50842A01211F8
:102CCC002712107F8A088B09A808A909E849601502
:102CDC00E5E170FCE82414F582E93400F583E0F4B6
:102CEC006003E0F5E174016F700A7A01900488E0EA
:102CFC00F91216E5022C2E74ED121D8D8A088B0923
:102D0C008C0A8D0B7413121CFD780C121B6978083D
:102D1C00790C1219437510017511C87512007513D1
:102D2C000050127808790C121AE2781079081219EE
:102D3C004350168010780C7908121AE27810790C2E
:102D4C0012194340047901800279007F0C021E396C
:102D5C0074ED121D8D8A088B098C0A8D0B7413125D
:102D6C001CFD780C121B69780C7908121943401160
:102D7C007808790C121AE2AA08AB09AC0AAD0B80E0
:102D8C0022751000751100751200751301781079F9
:102D9C000C121AE278107908121AA9AA10AB11AC0D
:102DAC0012AD1380A68A828B837508FF7509FF7597
:102DBC000AFF750B007808121B307F04021E397451
:102DCC00F5121D8D8C828D837808121B698A828B7B
:102DDC00837808121AF6EA2404F8EB3400F98C8292
:102DEC008D83A3A3A3A3E0FCA3E0FD88828983C306
:102DFC00E09CF0A3E09DF088828983C3E09420A33B
:102E0C00E0944E40268A828B837508FF7509FF7506
:102E1C000AFF750BFF7808121ACF8A828B83A3A343
:102E2C00A3A3E02420F0A3E0344EF0022DB174F5FE
:102E3C00121D8DE9FE9007EAE0FAA3E0FBEEC33326
:102E4C00F8E433F9741328F582748239F583E02A97
:102E5C00F508A3E03BF5097808121F347A407B4251
:102E6C007C0F7D0012298C7402121CC78A088B09F6
:102E7C008C0A8D0B74107808121A71AA08AB097F92
:102E8C0004021E3974F1121D8D8A0C8B0D8C0E8D63
:102E9C000F740F121CFDE0FAA3E0FB7411121CFD61
:102EAC00E0F508A3E0F5097808121F34EA2401F5CF
:102EBC0008EB3400F509E4F50AF50B780C790812E7
:102ECC001982750871750902780C7908121982AA91
:102EDC000CAB0DAC0EAD0F12298C7402121CC78BEF
:102EEC0009EA450960047A0180027A00EC2AFCEDBB
:102EFC003400FD7413121CFDE0F8A3E0F9E8FEE9C0
:102F0C00FFECF8EDF97A717B02121C26880889090E
:102F1C008E828F837808121B78ECF8EDF97A717B2E
:102F2C0002121C268A088B0974057808121C9E8EC6
:102F3C00828F83A3A3A3A3E508F0A3E509F07F0880
:102F4C00021E39C082C083E9906000F0D083D08229
:102F5C0022C2AF02000022C0E074F2121E79A2AFAE
:102F6C00E433FED2AFC2C0E5D1A2E4500653D1EF98
:102F7C001217F9751A00EEA2E092AF7F01021ED86B
:102F8C00C0E0C0D0E8C0E0E9C0E0E5A8D2AFC2C75D
:102F9C00751A00A2E7A2E792AFD0E0F9D0E0F8D022
:102FAC00D0D0E032C0E0C0D0E8C0E0E9C0E0C082E0
:102FBC00C083A2AFE433F8D2AF758A00C2EB900E97
:102FCC00387401F0900E35E0700A751A0075F9002E
:102FDC00C285D285751A00E8A2E092AFD2AFD08339
:102FEC00D082D0E0F9D0E0F8D0D0D0E0320201327B
:102FFC00FFFFFFFFFFFFFFFF74F4121D21E9900498
:10300C0088F0121121907800E0C4540F5407640327
:10301C007004793F8002797F75080675090078087D
:10302C00121F347C767D047AEA7B0712176F7402C8
:10303C00121CC7900476E0F47049A3E0F47044A32A
:10304C00E0F4703FA3E0F4703AA3E0F47035A3E031
:10305C00F4703090780EE0900476F090780FE09059
:10306C000477F0907810E0900478F0907811E0906C
:10307C000479F0907812E090047AF0907813E09054
:10308C00047BF090047C74FFF0A3F0A3F0A3F0A3F6
:10309C00F0A3F0900476E0900482F0900477E09036
:1030AC000483F0900478E0900484F0900479E0902C
:1030BC000485F090047AE0900486F090047BE09014
:1030CC000487F09004A67406F0A3740DF0A3E4F04A
:1030DC00A37440F0A37401F09007DE74FFF0A3F02A
:1030EC00A3F0A3F0A3F0A3F09007DDE4F09007E4C5
:1030FC00F0A374A0F0A3E4F0A37403F0A37407F09E
:10310C00A3E4F0A37428F0A3E4F0A304F0A3E4F088
:10311C0090080DF090083374FFF0A3F0A3F0A3F027
:10312C00A3F0A3F0900832E4F090083904F0A3E483
:10313C00F0A3F0A37480F0A37402F0A37480F0A346
:10314C007402F0A3E4F0A304F0A3F0A3E4F0A374DE
:10315C0025F0A3E4F0A3F090084A74FFF0A3F0A3C9
:10316C00F0A3F0A3F0A3F0900849E4F09008500409
:10317C00F0A3E4F0A37480F0A37402F0A37480F0C5
:10318C00A37402F0A37425F0A3E4F0A3F0A37405D8
:10319C00F090085A74FFF0A3E4F090085CF09008EB
:1031AC005E04F090085F7490F0A37401F0120E6F3F
:1031BC00120C831210CD79017A617B08120FB39037
:1031CC000861E075F01484E5F004F0790C7A827BE8
:1031DC0008120FB3120FD17A00900488E0F912167E
:1031EC00E5907803E064427055900861E014F0704B
:1031FC004DC2AF12320200782AD0E0F618D0E0F6B9
:10320C00E59F540770057509FF800375097FC4C0DD
:10321C00E07829E6F50808E65509F509740B7808F5
:10322C00121C8FD0E02508F8906270E0A2E740F8FD
:10323C00E8C333906272F0906270E0D2E0F09004D8
:10324C00B3E4F0A3F07A80FB900488E0F912168BBB
:10325C0002388274F4121D21EAFEEBFFEEA2E0505C
:10326C004590048AE0C39480E0500FC333F8E433F4
:10327C00F974F328F582740F800EF4C333F8E43339
:10328C00F9740128F582741039F583E0F8A3E0F5A0
:10329C00838882121D1F7A00900488E0F91216E5CB
:1032AC00EE64010235655408700302334C900858E3
:1032BC00E0F875F005A4C8AAF02AF974B928FA74D4
:1032CC000439FB7508007808121F38EA2432F5829D
:1032DC00EB3400F583E0F508A3E0F50974047808F5
:1032EC00121C8F7808121F34EA2430F582EB34005C
:1032FC00F583121F4BEA242EF582EB3400F583E0A4
:10330C00F508A3E0C313F509E50813F508780812CE
:10331C001F347508C97509077808121F349007C83F
:10332C00E0FD7C008A828B83A3A3A3A3E0FA7B003D
:10333C007900120B217409121CC7EE640802356562
:10334C00EE541060407508007808121F38E4F50937
:10335C007808121F347808121F347808121F34753D
:10336C0008C97509077808121F349007C8E0FD7C5E
:10337C00007A007B007902120B217409121CC7EE33
:10338C006410023565EE540260407508007808122E
:10339C001F38E4F5097808121F347808121F3478A6
:1033AC0008121F347508C97509077808121F349064
:1033BC0007C8E0FD7C017A007B00793C120B21747C
:1033CC0009121CC7EE6402023565EE540470030248
:1033DC00347B9004B7E0F875F005A4C8AAF02AF97C
:1033EC0074B928FA740439FBEA242AF582EB340008
:1033FC00F583E0F5087808121F38EA2432F582EBE1
:10340C003400F583E0F508A3E0F50974047808129C
:10341C001C8F7808121F34EA2420F582EB3400F557
:10342C0083121F4BEA242EF582EB3400F583E0F572
:10343C0008A3E0C313F509E50813F5087808121F73
:10344C00347508C97509077808121F349007C8E04D
:10345C00FD7C018A828B83A3A3A3A3E0FA7B007972
:10346C0000120B217409121CC7EE6404023565EEC0
:10347C00544060407508007808121F38E4F509784C
:10348C0008121F347808121F347808121F3475087C
:10349C00C97509077808121F349007C8E0FD7C0134
:1034AC007A007B00793B120B217409121CC7EE6465
:1034BC0040023565EE5480603B90085FE0F8A3E075
:1034CC00F9E849602A79001216DF90085FE0F508E8
:1034DC00A3E0F509E4F50AF50B7808121F307A0021
:1034EC007B01900488E0F91217097404121CC7EED2
:1034FC0064808065EF5401600C79011216DFEEFADE
:10350C00EF64018056EF5402600AC2AF75C9AB7507
:10351C00C95B80FEEF5404600A122F5DEEFAEF6473
:10352C0004803890048FE064017033EE5420602ED8
:10353C00900489E024F9600314701B793F9004B760
:10354C00E0FA75F005A4CAA8F028FB74B92AFA743D
:10355C00043BFB120F6BEE6420FAEFFB80047A0045
:10356C007B0002388274F6121D21C3EA9411EB948D
:10357C000050047A1080027A20EA2408FAE434001D
:10358C00FB12187D8A088B09A808A909E849600A6A
:10359C00E82404FAE93400FB80047A007B00024141
:1035AC00CA74F6121D21EA2405FAEB3400FB12183A
:1035BC007D8A088B09A808A909E849600AE824054E
:1035CC00FAE93400FB80047A007B000241CAC08215
:1035DC00C083C2AF1210FDE5E170FC75E101120E63
:1035EC004B75E1F112112D120E3F79071211E7798B
:1035FC00011211ED790212115712118D1211C979A4
:10360C00001211DB79011211DB7A557B557C557D4B
:10361C000012113F9007C8E4F0A3F0A3F0A3F0A3AD
:10362C00F0A3F0A3F09007E4F0A3F0A3F09007E868
:10363C007407F09007E77403F09007EDE4F090073F
:10364C00ECF090080DF090083AF0900851F0120F41
:10365C0053121055120F7779001211F39007CF7493
:10366C00FFF0A3F0A3F0A3F0A3741FF0906012E49A
:10367C00F0A3F0906063F0752100900489F090073E
:10368C00D4F09007D5740CF09007D6E4F09007D7DF
:10369C0004F09007D8E4F09007D904F09007DAE42E
:1036AC00F090048BF0A3F090048EF090048F04F053
:1036BC009004A504F090085DE4F0D2AFF90258A88C
:1036CC00C082C083900476E08A828B83F09004776A
:1036DC00E08A828B83A3F0900478E08A828B83A3A8
:1036EC00A3F0900479E08A828B83A3A3A3F09004C7
:1036FC007AE08A828B83A3A3A3A3F090047BE08A55
:10370C00828B83A3A3A3A3A30258A5C082C0838AE0
:10371C00828B83E090047CF08A828B83A3E09004FC
:10372C007DF08A828B83A3A3E090047EF08A828B47
:10373C0083A3A3A3E090047FF08A828B83A3A3A32B
:10374C00A3E0900480F08A828B83A3A3A3A3A3E0BD
:10375C009004810258A5C082C083120E7BE97005CB
:10376C0012118D79000258A874F7121D21EAFEEB94
:10377C00FF8908120E7BE9702CE508600A7401655C
:10378C0008600A7912801E7C00790080047C007924
:10379C0001EEFAEFFB121199E9F8740368700479E1
:1037AC00078002790002414E74F7121D21EAFEEBEC
:1037BC00FF8908120E7BE9702DE508600A7401651B
:1037CC000860087912801F790080027901EEFAEF07
:1037DC00FB12119FE9F874046860057405687004A5
:1037EC00791F8002790002414E74F7121D21EAFE06
:1037FC00EBFF12119302414674F6121D21EA4B6045
:10380C0016EC4D6012740A121CFDE0F508A3E0F5ED
:10381C0009E508450970047912800F7808121F34E5
:10382C00120FC57402121CC779000241CA74F4123B
:10383C001D21EAFEEBFF8908900489E064096014FD
:10384C00E0640A600FE0640B600AE0640C6005E061
:10385C00640D7004790C801E12107F8B0BEA450BE3
:10386C00700BA908EEFAEFFB120FB3800990048BD2
:10387C00E04440F0790D7F04021DF374F6121D2113
:10388C00EA4B6003E970047912801CEAFEEBFF89B5
:10389C0008120FADE98E828F83F0A3AE82AF831531
:1038AC0008E50870EC79000241CA74F7121D218AF0
:1038BC00828B83E04433F0A3A882A983E04433F0E5
:1038CC008A828B83E0D2E6F0EA2403FCEB3400FD21
:1038DC008C828D83E0D2E4F0EA2402FEEB3400FF0C
:1038EC008E828F83E044C0F08C828D83E04403F0A1
:1038FC008E828F83E0440FF08A828B83E0448CF0BD
:10390C008C828D83E0D2E5F088828983E044CCF010
:10391C008C828D83E044CCF08E828F83E044300225
:10392C00414BC082C083789C790488828983A3E050
:10393C008A828B83F088828983A3A882A9838A8256
:10394C008B83A3AA82AB83E864A47003E96404703C
:10395C00D90258A674F7121D217409121CFDE0F847
:10396C00A3E0F99004A6E08A828B83F09004A7E090
:10397C00FAA3E0FB8C828D83EAF0A3EBF09004A910
:10398C00E0FAA3E0FB88828983EAF0A3EB02414BC7
:10399C00C082C083E9F8740168700B90085D7401F3
:1039AC00F079000258A8E8700690085DE480F1797F
:1039BC001280F074F7121D21C3EB940F5056C3EA1A
:1039CC009403EB9400504DEAF8EBF9E875F005A47C
:1039DC00C8ACF02CFC75F005E9A42CF974BC28F5E6
:1039EC0082740439F583E06027EAF8EBF9E875F0A6
:1039FC0005A4C8ACF02CFC75F005E9A42CF974B93D
:103A0C0028FE740439FF8E828F83A3A3A3E0700871
:103A1C007902804579128041EE24ECF582EF340076
:103A2C00F583E064017035EE24F2F582EF3400F595
:103A3C0083121F4BEE24F0F582EF3400F583121F36
:103A4C004BEE24EFF582EF3400F583E0FC790012A5
:103A5C000B397404121CC7790002414EEE24EDF5AB
:103A6C0082EF3400F583E07018790CEEFAEFFB125C
:103A7C000F29EE24EDF582EF3400F5837401F0800C
:103A8C00D6793A80D474F7121D21ECFEEDFFEE4F7F
:103A9C006026EA6005146015801E120E69E9F88E26
:103AAC00828F83F0748068700A793080088E828FE0
:103ABC0083E4F0790002414E791280F9C082C08310
:103ACC00E9FD8D82A882C3E4940F4003023B65E8B4
:103ADC00C394034003023B65E875F005A4C8ACF041
:103AEC002CF974BC28F582740439F583E0700479E0
:103AFC0002806874B928F8740439F9E8245DF582F9
:103B0C00E93400F583E08A828B83F0E8245EF58249
:103B1C00E93400F583E08A828B83A3F0E8245FF517
:103B2C0082E93400F583E08A828B83A3A3F0E82436
:103B3C0060F582E93400F583E08A828B83A3A3A32A
:103B4C00F0E82461F582E93400F583E08A828B8306
:103B5C00A3A3A3A3F07900800279120258A874F7EA
:103B6C00121D21900489E0640C701290618EE0F9B2
:103B7C00748069705E8C828D83747F8062C3EB94D9
:103B8C000F504CC3EA9403EB94005043EAF8EBF962
:103B9C00E875F005A4C8AEF02EFE75F005E9A42E6C
:103BAC00F974BC28F582740439F583E07004790249
:103BBC008030EA75F005A4CAA8F028F875F005EB7A
:103BCC00A428FB74212AF58274053BF583809F7928
:103BDC0012800F90048DE0F8E9C3988C828D83F0ED
:103BEC00790002414E74F7121D21E9FE74056E60D6
:103BFC002374136E601E74146E601974156E601449
:103C0C00741A6E600F74296E600A743B6E600579CD
:103C1C0012023CD6C3EB940F506AC3EA9403EB94A4
:103C2C00005061EAF8EBF9E875F005A4C8ACF02C8B
:103C3C00FC75F005E9A42CF974BC28F582740439E0
:103C4C00F583E070047902803DEA75F005A4CAA8FA
:103C5C00F028F875F005EBA428FB74B92AFA740463
:103C6C003BFBEA2469F582EB3400F583E0640170D8
:103C7C0038EA246AF582EB3400F583E064027008BC
:103C8C00793A804679128042EA24F6F582EB3400C8
:103C9C00F583EEF0EA241DF582EB3400F583E4F0B5
:103CAC00A3F07902120F35801FEA24F6F582EB346B
:103CBC0000F583EEF0EA241DF582EB3400F583E485
:103CCC00F0A3F07902120F29790002414E74E81228
:103CDC001D218A088B098917EC4D6014E9C3941CCB
:103CEC00500E7418121CFDE0FB600A74016B600529
:103CFC007912023F6CC3E509940F5042C3EA940356
:103D0C00E50994005038A808E875F005A4C8AAF095
:103D1C002AFA75F005E509A42AF974BC28F5827411
:103D2C000439F583E070047902801574B928FE74A7
:103D3C000439FF9007D5E0700A7907023F6C7912BD
:103D4C00023F6CEC24FEFCED34FFFD8C828D83E590
:103D5C0017F0EB7004740280027401A3F0EC24FEE3
:103D6C00FCED34FFFDEE2463FAEF3400FB120F9BE5
:103D7C009007D5E014F0900489E064086008E064D2
:103D8C00076003023F6A9004B7E065087002E5091A
:103D9C006003023F6A7900EEFAEFFB12254790614F
:103DAC00D0E07003023F6A9007D9E064016003021F
:103DBC003F6AEE241DF582EF3400F583E0F8A3E0B2
:103DCC00F9E8497003023F6AA2AFE433F516C2AFBB
:103DDC0012107F8A148B1512110F8A0C8B0D8C0EFE
:103DEC008D0F8A088B098C0A8D0B751001751100CB
:103DFC0075120075130078087910121AA978081238
:103E0C001F30851482851583A3A3121B87122D03E3
:103E1C007404121CC7E964016003023F64EE242E93
:103E2C00F582EF3400F583E02406F508A3E03400B6
:103E3C00F509E4F50AF50B780C7908121AA9780C37
:103E4C00121F30851482851583A3A3121B87122D94
:103E5C00037404121CC7E964016003023F64E51497
:103E6C002408F510E5153400F511851082F5831240
:103E7C001F47AA0CAB0DAC0EAD0F122D5C740412C7
:103E8C001CC7EE242EF508EF3400F509850882F5E1
:103E9C0083121F4B12298C7402121CC78A0C8B0DB7
:103EAC008C0E8D0F7410780C121A718E828F83A366
:103EBC00A3A3A3A3A3A3A3A3E0F8A3E0F98E828FEB
:103ECC0083A3A3A3A3A3E8F0A3E9F0E8250CF8E9E6
:103EDC00350DF98E828F83A3A3A3A3A3A3A3E8F02C
:103EEC00A3E9F0851082851183C082C08385088286
:103EFC00850983E0F508A3E0F509780C7908121917
:103F0C0082D083D082780C121ABC7508FF7509FF19
:103F1C00750AFF780C7908121B0A851482851583A3
:103F2C00A3A3E50CF0A3E50DF0A3E50EF0A3E4F0DC
:103F3C00EE2435F582EF3400F583E0C0E0EE243456
:103F4C00F582EF3400F583D0E0F0EEFAEFFB1221AE
:103F5C00CAAA14AB15121061E516A2E092AF790053
:103F6C007F10021DF374F5121D21E9FE8A098B0ADC
:103F7C00C3942840030240D9EAC39426400302406C
:103F8C00D9EB602D7401650A60277402650A602103
:103F9C007403650A601B7404650A60157405650A70
:103FAC00600F7406650A60097407650A60030240B5
:103FBC00D9900489E0600579210240761210FD1237
:103FCC000E5175E1F17A0179011212177A297B41B0
:103FDC007C767D711211817A00EEF912122F790024
:103FEC001211F99004A5E0F9120E6374022509F57B
:103FFC00D9850AD98509D9E50A602414606F146043
:10400C007D14602E1470030240981470030240A6B5
:10401C001470030240B41470030240C50240D9E589
:10402C0009600F758291758381FFE0F5D9A31FEFAD
:10403C0070F875E195EE9004ABF0E509A3F0E50A94
:10404C00A3F0A3E4F0A3F0A3F0A3F0A37480F0908A
:10405C0004897409F0906182E0D2E5F079191211AB
:10406C00E17A007B001210E5790002547FE50960CB
:10407C00C1F50875D90F1508E50860B680F5E50996
:10408C0060B0FD75D9551DED60A880F7E50960A2FB
:10409C00FC75D9FF1CEC609A80F7E5096094FB7500
:1040AC00D9001BEB608C80F7E5096086FA75D9F0B6
:1040BC001AEA700302403E80F4E509700302403EA8
:1040CC00F875D9AA18E8700302403E80F479128082
:1040DC009974F7121D21E9FEC394284004791280CB
:1040EC0057900489E060047921804D1210FD120E66
:1040FC005175E1F17A01790012121D7A297B417C0C
:10410C00767D711211817A00EEF912122F7900125C
:10411C0011F9EE9004ABF0A3E4F0A374FFF0A3E468
:10412C00F0A3F0A3F0A3F0A37480F0900489740AB8
:10413C00F079181211E179008008E98E828F83F0F2
:10414C0079007F01021DF374F6121D21900489E0A1
:10415C0064096009E0640A600479218061E5E1701A
:10416C00FC75E101E0640970147AAE7B0412122331
:10417C0079051211F979007A007B00802FE0640A2E
:10418C00702D7508B27509047808121F347CB07D47
:10419C00047AAE7B041212297402121CC779051220
:1041AC0011F979019004AEE0FAA3E0FB120B511265
:1041BC000E4B120E3F75E1F1900489E4F0F97F0289
:1041CC00021DF374F6121D21EAFEEBFF8908740B35
:1041DC00121CFDE0F509740C121CFDE0F8A3E0F9CB
:1041EC00E508605F74016508601574036508602F4D
:1041FC007402650860297404650860030242AAE829
:10420C004970030242AAE50960097401650960035B
:10421C000242AA740365086006740265087046EED3
:10422C002460FAEF34FFFBC3EA9461EB943F506EC9
:10423C00EC2460FAED34FFFBC3EA9461EB943F404D
:10424C0024805BEE24E0FAEF34FFFBC3EA94E1EB4D
:10425C00943F504AEC24E0FAED34FFFBC3EA94E1BE
:10426C00EB943F5039C3EC9EED9F4032740A121C04
:10427C00FDE0FA600574016A7024740F121CFDE0F5
:10428C00FC600F74016C600A74026C600574036C42
:10429C00700C740E121CFDE0FB74075B7005791238
:1042AC0002440B9007E4E064017005790C02440BA6
:1042BC00E5089007E7F074075BA3F0ECA3F0EA9035
:1042CC0007DD702FE4F0900476E09007DEF09004A8
:1042DC0077E09007DFF0900478E09007E0F090042E
:1042EC0079E09007E1F090047AE09007E2F0900416
:1042FC007B802E7401F090047CE09007DEF090043B
:10430C007DE09007DFF090047EE09007E0F09004F1
:10431C007FE09007E1F0900480E09007E2F09004D9
:10432C0081E09007E3F0740165087053E50990078C
:10433C00C8F088828983E09007C9F088828983A3BA
:10434C00E09007CAF088828983A3A3E09007CBF0A2
:10435C0088828983A3A3A3E09007CCF08882898309
:10436C00A3A3A3A3E09007CDF088828983A3A3A382
:10437C00A3A3E09007CEF09007E5E4F0A3807D7452
:10438C00046508704DE5099007C8F088828983E0C0
:10439C009007C9F088828983A3E09007CAF08882CD
:1043AC008983A3A3E09007CBF088828983A3A3A37E
:1043BC00E09007CCF088828983A3A3A3A3E09007A5
:1043CC00CDF088828983A3A3A3A3A3E09007CEF0AA
:1043DC008023EC70047900801974016C70047901ED
:1043EC00801074026C70047902800774036C700581
:1043FC0079031211A59007E5EEF0A3EFF079000216
:10440C0041CA74F6121D21E9FEC39420500BEE90A4
:10441C0007EDF06023EA4B700479128023E0F50875
:10442C007509007808121F34EAFCEBFD7AEE7B0765
:10443C001216317402121CC79007EC7401F079004B
:10444C000241CA74F0121D21E9FE900489E064094E
:10445C007003024578E0640A7003024578E0640B4F
:10446C007003024578E0640C7003024578E0640D3B
:10447C0070030245789007E7E0601664016012E073
:10448C006403600DE064026008E0640460030245AC
:10449C00EA9007DDE06007640160030245EA9007DB
:1044AC00E7E064036005E0640270109007E5C3E088
:1044BC0094A0A3E0940050030245EAEE7003024579
:1044CC00831460030245EA9007E4E0640170030280
:1044DC0045789007E7E0600964016005E0640470CA
:1044EC000B12108BE954FD60030245787901121010
:1044FC00739007DBEAF0A3EBF09007E47401F09003
:10450C000489E0706E12110F8A088B098C0A8D0BCE
:10451C00750C03750D00750E00750F007808790C7D
:10452C00121AA9750CFF750DFF750EFF7808790C22
:10453C00121B0A9007DBE0F8A3E0F5838882A3A3A3
:10454C007808121B789007DBE0F8A3E0C82406F586
:10455C0082E83400F583E4F0A3F0120E81E96010D8
:10456C007ADB7B071210799007E4E4F0792180055F
:10457C0012105B7900806B9007E4E060EFA2AFE46F
:10458C0033FFC2AF7ADB7B071210799007E4E4F0BB
:10459C00121091E970411210FD906182E0C2E6F0B8
:1045AC00E5E170FC75E1017591BF75E1F190048F47
:1045BC00E0640170187A207B00900488E0F91217EF
:1045CC00157A207B00900488E0F91216917A0090FD
:1045DC000488E0F91216E5EFA2E092AF809579120B
:1045EC0080937F08021DF374F7121D21EAFEEBFF86
:1045FC00120E69E9F88E828F83F0748068700479EA
:10460C00308002790002414E74F6121D21E9FEC37E
:10461C009420500BEE90080DF06023EA4B70047957
:10462C00128023E0F5087509007808121F34EAFCA3
:10463C00EBFD7A0E7B081216317402121CC7900720
:10464C00EC7401F079000241CA74F7121D21E9FEE5
:10465C00600574016E70457409121CFDE0FF600565
:10466C0074016F7037EA24FCF8EB34FFF9C3E8945B
:10467C00FDE9943F5026EC24FCF8ED34FFF9C3E837
:10468C0094FDE9943F5015C3EA9CEB9D400E740ACF
:10469C00121CFDE0F8600A7401686005791202478B
:1046AC004B90083AE064017005790C02474BEEA37D
:1046BC00F0E8900840F0EF900832702FE4F090048E
:1046CC0076E0900833F0900477E0900834F0900492
:1046DC0078E0900835F0900479E0900836F090047A
:1046EC007AE0900837F090047B802E7401F09004EF
:1046FC007CE0900833F090047DE0900834F0900456
:10470C007EE0900835F090047FE0900836F090043D
:10471C0080E0900837F0900481E0900838F0900821
:10472C003CEAF0A3EBF0A3ECF0A3EDF0E870047915
:10473C00008007740168700579011211AB790002D1
:10474C00414E74F0121D21E9FEEAFF900489E064E9
:10475C000970030248BEE0640A70030248BEE064BC
:10476C000B70030248BEE0640C70030248BEE064A8
:10477C000D70030248BE90083BE0600764016003C3
:10478C00024956900832E060076401600302495602
:10479C0090083CE024FCF8A3E034FFF9C3E894FD56
:1047AC00E9943F4003024956A3E024FCF8A3E0340B
:1047BC00FFF9C3E894FDE9943F4003024956900881
:1047CC003CC08290083EE0F8A3E0F9758308D082E3
:1047DC00C3E098A3E0995003024956EF60087401B6
:1047EC006F6003024956EE70030248B8146003026E
:1047FC00495690083AE0640170030248BE790212EF
:10480C001073900830EAF0A3EBF090083A7401F0C2
:10481C00900839F0EF900841F0900489E0600302B1
:10482C0048B3120EA512110F8A0C8B0D8C0E8D0F26
:10483C00750810750900750A00750B00780C79085D
:10484C00121AA97508FF7509FF750AFF780C79080B
:10485C00121B0A900830E0F8A3E0F5838882A3A32A
:10486C00780C121B78900830E0F8A3E0C82406F509
:10487C0082E83400F583E4F0A3F090083EE0F508FC
:10488C00A3E0F509E4F50A780C7908121AA9900846
:10489C0030E0F8A3E0C8240EF582E83400F5837804
:1048AC000C121B7812105B79000245EE90083AE06E
:1048BC007004792180F3A2AFE433F508C2AF7A30EB
:1048CC007B0812107990083AE4F0121091E97046C6
:1048DC001210FD906182E0C2E6F0E5E170FC75E13A
:1048EC00017591BF79011211ED75E1F190048FE022
:1048FC00640170187A207B00900488E0F912171577
:10490C007A207B00900488E0F91216917A009004CA
:10491C0088E0F91216E5E508A2E092AF900840E0B5
:10492C00640170061211C90248B3A3E0640160036C
:10493C000248B3900840E060030248B312118D1294
:10494C0011C979011211D50248B379120248B57414
:10495C00F7121D21900489E064076005790C024A66
:10496C0011EC4D7003024A14C3EB940F4003024A3E
:10497C0014C3EA9403EB94004003024A14EAF8EBE4
:10498C00F9E875F005A4C8AEF02EFE75F005E9A4A3
:10499C002EF974BC28F582740439F583E07004791F
:1049AC00028062EA75F005A4CAA8F028F875F00533
:1049BC00EBA428FB74B92AFA74043BFB7E008C82AE
:1049CC008D83E0C0E0EEF8C3E498F895E0F9EA28AE
:1049DC00F8EB39F9E824D1F582E93400F583D0E01D
:1049EC00F00E8C828D83A3AC82AD83EEC394104009
:1049FC00CDEA24D3F582EB3400F5837401F079050C
:104A0C00120F29790002414E791280F9C082C083BD
:104A1C00900489E064076005790C024AAFC3EB94FB
:104A2C000F5068C3EA9403EB9400505FEAF8EBF97B
:104A3C00E875F005A4C8ACF02CFC75F005E9A42CC5
:104A4C00F974BC28F582740439F583E0700479029A
:104A5C008051EA75F005A4CAA8F028F875F005EBAA
:104A6C00A428FB74B92AFA74043BFBEA24DCF58213
:104A7C00EB3400F583E064017015EA24F6F582EB63
:104A8C003400F5837406F07902801379128014EAED
:104A9C0024DDF582EB3400F5837406F0790D120FEA
:104AAC002979000258A874E8121D2174FB121CB15C
:104ABC007403121CFDEAF0A3EBF07401121CFDEC64
:104ACC00F0A3EDF0E9851882851983F07429121C86
:104ADC00FDE0FEA3E0FF742B121CFDE0F508A3E043
:104AEC00F509900851E064017003024C9F7904129F
:104AFC001085E964017003024C9F900489E06409FD
:104B0C007003024C9FE0640A7003024C9FE0640B3C
:104B1C007003024C9FE0640C7003024C9FE0640D28
:104B2C007003024C9F7403121CFDE024FCF8A3E0FC
:104B3C0034FFF9C3E894FDE9943F4003024E257419
:104B4C0001121CFDE024FCF8A3E034FFF9C3E89447
:104B5C00FDE9943F4003024E257403121CFDC082F4
:104B6C00C0837401121CFDE0F8A3E0F9D083D0825D
:104B7C00C3E098A3E0995003024E25741E121CFD4D
:104B8C00E0F50AA3E0F50B851882851983E060092E
:104B9C0064016003024E258009E50A450B7003028F
:104BAC004E25741D121CFDE0600764016003024E6B
:104BBC00257420121CFDE0600764016003024E2581
:104BCC00C3E5089EE5099F5003024E257421121C73
:104BDC00FDE0FAA3E0FBEA24FAF8EB34FFF9C3E8B2
:104BEC00947BE9940C4003024E257423121CFDE0C7
:104BFC00F8A3E0F97423121CFDE8F0A3E9F0742388
:104C0C00121CFDE024FAF8A3E034FFF9C3E8947B0E
:104C1C00E9940C4003024E257423121CFDC3E09A48
:104C2C00A3E09B5003024E257425121CFDE0F8A353
:104C3C00E0F97425121CFDE8F0A3E9F07425121CB0
:104C4C00FDC3E094F4A3E094014003024E257427C5
:104C5C00121CFDE0F508A3E0F509E50824F6F8E5DB
:104C6C000934FFF9C3E89477E9940C4003024E250C
:104C7C007901121085E96401700F9007E7E0601369
:104C8C006401600FE06404600A7940121085E964E5
:104C9C00017005792102508285080C85090D740379
:104CAC00780C121C9EF50EF50F7425121CFDE024D9
:104CBC0001F514A3E03400F515E4F516F51774238B
:104CCC00121CFDE0F8A3E0F9E8C333F8E933F988E6
:104CDC00108911E4F512F5137814791012198278F1
:104CEC000C79141219435069120F71E964017005A3
:104CFC00793A0250829004B6E060477423121CFD8E
:104D0C00E0FEA3E0FFEEC333FEEF33FF7AFF7BFF41
:104D1C00120F5F8A0C8B0D7403780C121C8F90048D
:104D2C00B6E0F8C3E50C98E50D94004039C3EA9E53
:104D3C00EB9F5020EEF8EFF9121C268B0DEA450D77
:104D4C007024851882851983E07020E50A450B7064
:104D5C001A024E25EAF8EBF9EEFAEFFB121C268B41
:104D6C000DEA450D60DC793B025082120F478A0C2C
:104D7C008B0DAE0CAF0DEE4F700579090250828E83
:104D8C00828F83A3A3A3A3E0900858F07403121C92
:104D9C00FDE0F8A3E0F9900852E8F0A3E9F0740103
:104DAC00121CFDE0F8A3E0F9900854E8F0A3E9F038
:104DBC00851882851983E0900857F0EEF8EFF97AA0
:104DCC00CF7B078A828B83E0C0E0E8245DF582E923
:104DDC003400F583D0E0F08A828B83A3AA82AB8364
:104DEC0088828983A3A882A983EA64D47003EB64C4
:104DFC000770D0EE245DFCEF3400FDEEFAEFFB12F1
:104E0C000F3BEE2436F582EF3400F583E0C39402B9
:104E1C00500CEEFAEFFB120F4D7912025082850AFC
:104E2C0082850B83E09007C9F0850A82850B83A3EA
:104E3C00E09007CAF0850A82850B83A3A3E0900754
:104E4C00CBF0850A82850B83A3A3A3E09007CCF05B
:104E5C00850A82850B83A3A3A3A3E09007CDF085DD
:104E6C000A82850B83A3A3A3A3A3E09007CEF074BF
:104E7C0020121CFDE0900849F07420121CFDE0701B
:104E8C002D900476E090084AF0900477E090084B5F
:104E9C00F0900478E090084CF0900479E090084D84
:104EAC00F090047AE090084EF090047B802B9004F4
:104EBC007CE090084AF090047DE090084BF0900460
:104ECC007EE090084CF090047FE090084DF0900448
:104EDC0080E090084EF0900481E090084FF0741D33
:104EEC00121CFDE09007C8F0120F7DEE2426F5820F
:104EFC00EF3400F583121B93120E15EE2422F5826B
:104F0C00EF3400F583121B937423121CFDE0F8A3FD
:104F1C00E0F9EE242EF582EF3400F583E8F0A3E9F6
:104F2C00F0EE2432F582EF3400F583E508F0A3E5CA
:104F3C0009F07425121CFDE0F8A3E0F9EE2430F51D
:104F4C0082EF3400F583E8F0A3E9F0900859E0C053
:104F5C00E0EE242AF582EF3400F583D0E0F0EE2465
:104F6C002BF582EF3400F5837402F0120FADE97566
:104F7C00F00C84E5F02405C0E0EE2437F582EF3424
:104F8C0000F583D0E0F09008567425F09004B6E05C
:104F9C00C3940240057901121151790412107390D7
:104FAC000847EAF0A3EBF09008517401F090084721
:104FBC00E0F8A3E0C82416F582E83400F58374C940
:104FCC00F0A3740EF0900847E0F8A3E0C82414F5A1
:104FDC0082E83400F5837417F0900489E0600302D2
:104FEC00508012110F8A0C8B0D8C0E8D0F7508A032
:104FFC00750900750A00750B00780C7908121AA94E
:10500C007508FF7509FF750AFF780C7908121B0AE1
:10501C00900847E0F8A3E0F5838882A3A3780C12EC
:10502C001B78900847E0F8A3E0C82406F582E83422
:10503C0000F583E4F0A3F0900854E0F508A3E0F544
:10504C0009E4F50A780C7908121AA9900847E0F8D7
:10505C00A3E0C8240EF582E83400F583780C121B0B
:10506C00788E828F83A3A3A3A3E0F9120EAB120E4A
:10507C00B112105B79007405121CC7023F6CC08220
:10508C00C083900851E060087904121085E970041F
:10509C00790C8037900851E4F0121091E9702A9045
:1050AC00048FE0640170187A207B00900488E0F98A
:1050BC001217157A207B00900488E0F91216917A69
:1050CC0000900488E0F91216E579000258A874E8FB
:1050DC00121D21900489E064086005790C0253309C
:1050EC00EC24FAF8ED34FFF9C3E8947BE9940C4016
:1050FC00030252417418121CFDE0F516A3E0F517DB
:10510C00E51624FAF8E51734FFF9C3E8947BE99423
:10511C000C4003025241C3E5169CE5179D50030257
:10512C005241741A121CFDE0F8A3E0F9741A121C17
:10513C00FDE8F0A3E9F0741A121CFDC3E094F4A38B
:10514C00E094014003025241741C121CFDE0FEA3CA
:10515C00E0FFEE24F6F8EF34FFF9C3E89477E99416
:10516C000C4003025241C3EB940F507EC3EA9403EC
:10517C00EB94005075EAF8EBF9E875F005A4C8ACAF
:10518C00F02CFC75F005E9A42CF974BC28F582749C
:10519C000439F583E0700479028051EA75F005A4B6
:1051AC00CAA8F028F875F005EBA428FB74B92AF509
:1051BC001474043BF515E514246EF582E5153400E2
:1051CC00F583E0600FE514246AF582E5153400F5EB
:1051DC0083E06011E5142473F582E5153400F58342
:1051EC00E06401700A793A02533079120253308E1E
:1051FC00088F0974037808121C9EF50AF50B741AB3
:10520C00121CFDE02401F510A3E03400F511E4F5C7
:10521C0012F513E516C333F8E51733F9880C890D2D
:10522C00E4F50EF50F7810790C12198278087910C4
:10523C00121943400579120253309004B6E0C3941E
:10524C00024052851608851709E508C333F508E5B1
:10525C000933F5097AFF7BFF120F5F8A0A8B0B74F7
:10526C0003780A121C8F9004B6E0F8C3E50A98E59F
:10527C000B94005003025348C3EA9508EB95094080
:10528C0003025333A808A909121C268B09EA450905
:10529C006003025348E5142476F582E5153400F5D5
:1052AC00837402F0E5142477F582E5153400F58358
:1052BC00E4F0A3F0E5142430F582E5153400F58311
:1052CC00E02407F8A3E03400F9E5142474F582E532
:1052DC00153400F583E8F0A3E9F0E5142479F582A0
:1052EC00E5153400F583E516F0A3E517F0741A12F2
:1052FC001CFDE0F8A3E0F9E514247BF582E51534F8
:10530C0000F583E8F0A3E9F0E514247DF582E515BA
:10531C003400F583EEF0A3EFF07900AA14AB15126C
:10532C000F297900023F6CEAF8EBF9AA08AB0912D5
:10533C001C268B09EA450970030252A1793B80E4D3
:10534C0074F5121D21EAFEEBFF900489E0640860FD
:10535C0005790C02547FEE4F60158E828F83A3A3C8
:10536C00A3A3E054E07008120F41E96401600579D1
:10537C001202547F750A007AB57B0478B979048AD5
:10538C00828B83A3A3A3A3A3A3A3E064017030E83F
:10539C00246EF582E93400F583E0600FE8246AF5A9
:1053AC0082E93400F583E06401600FE8247FF58224
:1053BC00E93400F583E064017005793A02547F0505
:1053CC000AE82405F8E93401F9EA2405FAEB34017A
:1053DC00FBE50AC3940340A77ACF7B07EE2405F8BC
:1053EC00EF3400F98E828F83E08A828B83F08E8279
:1053FC008F83A3AE82AF838A828B83A3AA82AB8373
:10540C00E86E7002E96F70DC750A007508B57509F5
:10541C00047EB97F04850882850983A3A3A3A3A373
:10542C00A3A3E06401702BEE2430F582EF3400F579
:10543C0083E02407F8A3E03400F9EE2480F582EF32
:10544C003400F583E8F0A3E9F07901EEFAEFFB12F2
:10545C000F29050AEE2405FEEF3401FFE5082405AB
:10546C00F8E5093401F988088909E50AC394034071
:10547C00A479007F03021DF374F3121D219004899B
:10548C00E064086005790C02568EEC4D6024740DB6
:10549C00121CFDE0F50AA3E0F50BE50A450B6012C2
:1054AC00740F121CFDE0F508A3E0F509E5084509A9
:1054BC007005791202568EC3EB940F40030255719E
:1054CC00C3EA9403EB94004003025571EAF8EBF93C
:1054DC00E875F005A4C8AEF02EFE75F005E9A42E13
:1054EC00F974BC28F582740439F583E070047902F0
:1054FC008075EA75F005A4CAA8F028F875F005EBDC
:10550C00A428FB74B92AFE74043BFFEE24E3F58255
:10551C00EF3400F583E07039EEF8EFF97A9C7B04F8
:10552C008A828B83A3E0C0E0E824E4F582E93400AE
:10553C00F583D0E0F08A828B83A3AA82AB83888226
:10554C008983A3A882A983EA64A47003EB64047022
:10555C00CFEE24E4F582EF3400F583E0A2E0400ABC
:10556C00791102568E791202568EEEF8EFF9EC2470
:10557C0008FAED3400FB8C828D83E0C0E0E8249BBC
:10558C00F582E93400F583D0E0F08C828D83A3ACF6
:10559C0082AD8388828983A3A882A983EA6C700276
:1055AC00EB6D70D2850A82850B83E0C0E0EE24A3FC
:1055BC00F582EF3400F583D0E0F0850A82850B8309
:1055CC00A3E0C0E0EE24A4F582EF3400F583D0E034
:1055DC00F07C00A808A90988828983E0C0E0ECFA75
:1055EC00C3E49AFA95E0FBEE2AFAEF3BFBEA24D1EE
:1055FC00F582EB3400F583D0E0F00C88828983A32C
:10560C00A882A983ECC3941040CDEE2493FAEF3416
:10561C0000FB120FB9EE2487FAEF3400FB120FBF18
:10562C0090048BE04480F0EE2462F582EF3400F5B8
:10563C0083E4F0EE24D2F582EF3400F583E4F0EE4F
:10564C0024D3F582EF3400F583E4F0EE2482F58266
:10565C00EF3400F583E064017011EE24DCF582EF89
:10566C003400F5837401F0790A800EEE24DCF582A7
:10567C00EF3400F583E4F07903EEFAEFFB120F2917
:10568C0079007F05021DF3C082C083900489E06419
:10569C00086004790C8059C3EB940F5051C3EA9401
:1056AC0003EB94005048EAF8EBF9E875F005A4C850
:1056BC00ACF02CFC75F005E9A42CF974BC28F5822F
:1056CC00740439F583E07004790280247908EA7552
:1056DC00F005A4CAA8F028F875F005EBA428FB7413
:1056EC00B92AFA74043BFB120F2979008002791253
:1056FC000258A874EC121D2189088A0A8B0B12100F
:10570C007F8A0C8B0DAE0CAF0D12110F8A0C8B0D0A
:10571C008C0E8D0F850A82850B837401F0E5086071
:10572C000A74016508600479128071EE4F604C7840
:10573C000C121F308E828F83A3A3121B87122D0392
:10574C007404121CC7E9603A75100B7511007512C0
:10575C0000751300780C121F308E828F83A3A31256
:10576C001B87122D5C7404121CC78A0C8B0D8C0EBB
:10577C008D0F7810790C1219434007A908120E5D91
:10578C008018E50890048B7005E044018003E04428
:10579C0002F0850A82850B83E4F079007F0C021DF0
:1057AC00F374EC121D2189088A0A8B0B12107F8A64
:1057BC000C8B0DAE0CAF0D12110F8A0C8B0D8C0EC9
:1057CC008D0F850A82850B837401F0E508601174D6
:1057DC00016508600B740265086005791202587B3C
:1057EC00EE4F604C780C121F308E828F83A3A31265
:1057FC001B87122D037404121CC7E9603A75100B39
:10580C00751100751200751300780C121F308E8202
:10581C008F83A3A3121B87122D5C7404121CC78ADE
:10582C000C8B0D8C0E8D0F7810790C1219434007D0
:10583C00A908120E638036E508600B146010146022
:10584C001514601A801F90048BE044048016900499
:10585C008BE04408800E90048BE04410800690048A
:10586C008BE04420F0850A82850B83E4F0790002FA
:10587C0057A8C082C083E9F89007D4E0F9E8600E1D
:10588C0014700E7401F0E069700B79FF8009E480EC
:10589C00F47912800279008003F07900D083D082F1
:1058AC00020132C082C083E9F890085EE07004798E
:1058BC000C800EE8600D14701090048E7401F07959
:1058CC000080D990048EE480F5791280F4C082C0F7
:1058DC0083E9F8900489E0701AE8600D1470109058
:1058EC00048F7401F07900800C90048FE480F579BA
:1058FC00128002790C80A574F6121D21EA4B6016F9
:10590C00EC4D6012740A121CFDE0F508A3E0F509D9
:10591C00E508450970047912800F7808121F3412BB
:10592C000FCB7402121CC779000241CAC082C0831B
:10593C00EA4B7004791280168A828B83E0A2E09085
:10594C00049DE05004D2E08002C2E0F079000258DD
:10595C00A8C082C083E9600E1470119007D974013D
:10596C00F079000258A89007D9E480F4791280F3FA
:10597C00C082C083E9F8900489E064076004790C64
:10598C00800EE8600E1470119007DA7401F0790043
:10599C000258A89007DAE480F4791280F374F712B5
:1059AC001D21E9FFEAFEC394285008EF6009740139
:1059BC006F60047912805B900489E0600479218027
:1059CC00511210FD120E5175E1F17A297B417C7652
:1059DC007D7112118174016F70137A01EEF912123C
:1059EC002F79001211F9906190742480177A00EECF
:1059FC00F912122F79071211F99061907404F0903A
:105A0C0061E874FFF0900489740BF079041211E1D1
:105A1C00790002414EC082C083900489E060047911
:105A2C002180671210FD120E5175E1F17A01790196
:105A3C001212177A297B417C767D711211819004A8
:105A4C00ABE4F0FAF912122F79001211F975D9277B
:105A5C0075D90075D925758291758381E0F5D9A327
:105A6C00E58264B67004E583648170F075E195900D
:105A7C000489740DF0906182E0D2E5F0791912116D
:105A8C00E17A007B001210E579000258A874F71235
:105A9C001D21E9FEC39428400479128037900489B3
:105AAC00E060047921802D1210FD120E5175E1F188
:105ABC007A297B417C767D711211817A00EEF91284
:105ACC00122F79001211F9900489740CF0790312D9
:105ADC0011E1790002414EC082C083900489E064D8
:105AEC000B600EE0640C6009E0640D6004792180A9
:105AFC0005120C8379000258A8C082C083EA4B704F
:105B0C00057912025BFC900489E06005790C025B5C
:105B1C00FC8A828B83E0F47060A3E0F4705B8A8271
:105B2C008B83A3A3E0F470518A828B83A3A3A3E09D
