:020000040000FA
:0600000002010702284B7B
:03002B00022CC3E1
:03003300022CA5F7
:03003B00022CE4B0
:03004300022C5933
:030053000228BEC2
:03006B00022C7FE5
:100083000226B7E5C754F84401F5C77901220000F9
:100093000080FB120086B900030200F1E4792178A5
:1000A30008B800028004F709D8FCE479297802B87B
:1000B30000028004F709D8FCE4900281782E790FBE
:1000C3008002F0A3D8FCD9FA7AAE7B10900137787E
:1000D3002B79028015E493A3AD82AE838A828B834E
:1000E300F0A3AA82AB838D828E83D8E9D9E7758288
:1000F300897583E274041201197582917583007402
:100103000012011975D00075813F751881751902A8
:10011300759F00020096C09FF59FE473D09F22D085
:1001230083D082C09FE493C0E0740193C0E0740263
:1001330093F59F223B044D0477044104FF0000B470
:10014300000028002800283075A000A000A000A00F
:100153000000080008E001F000100010001000107B
:10016300001000100050005000500010001000D08C
:10017300070000000000000F0001000500307507B4
:10018300001000010081FF00000000FFDF05FD05F6
:10019300E505FF02020208025000A0000000E80388
:1001A30002E282010000D08202DE820100000D1112
:1001B30002DC82010000BA0202DE820100000E119D
:1001C300029682010000D00202DE820100000F11BC
:1001D30002D682010000D20202DE82010000101169
:1001E30002D882080000D30202DE8201000011114E
:1001F30002DA820100001211FFFF0100FF2002E278
:1002030082010000D38202DE82010000771102E83E
:1002130082000000000002EA82030000B403ED0F35
:10022300ED0FED0FED0FED0FED0FED0FED0FED0FEB
:10023300ED0FED0FED0FED0F21123F121B125F13A8
:1002430077135913FF544920424C4520416C6C00ED
:10025300000000000000000000001100FF00120178
:1002630022EAD00412012227D1041201223DD10433
:100273001201226CD104120122A2D104120122B96B
:10028300D104120122D0D10412012203D20412019B
:10029300223AD2041201228DD204120122A4D204E2
:1002A300120122BBD204120122D3D204120122EA88
:1002B300D2041201221BD30412012256D3041201C9
:1002C3002280D304120122AAD304120122C1D3042F
:1002D300120122D8D304120122EFD30412012218EF
:1002E300D4041201222BD40412012241D40412019A
:1002F3002254D4041201227BD40412012252AD02EF
:1003030012012256AE0212012283AE02120122CE44
:10031300AE02120122D9AE02120122FCAE02120178
:100323002210AF021201223FAF0212012241AF029B
:1003330012012264AF021201226AB002120122AE3C
:10034300B10212012272B20212012247B302120158
:1003530022B8B30212012244B40212012247B402AA
:10036300120122CFB4021201220AB5021201227134
:10037300B50212012274B502120122ABB5021201B9
:1003830022D4B5021201227FB60212012209B7025A
:1003930012012258B70212012265B7021201226824
:1003A300B702120122C8B702120122CBB70212010F
:1003B3002204B8021201224FB802120122CEB8025F
:1003C300120122D1B8021201221BB9021201221E0C
:1003D300B90212012295B90212012298B90212013F
:1003E3002227BA021201222ABA02120122B9BA0240
:1003F300120122C9BA02120122F9BA02120122061B
:10040300BB0212012209BB021201228ABB021201A2
:100413002297BB0212012285BC0212012237BD02C0
:1004230012012211E50312012209E6031201223D02
:10043300E603120122BFE603120122DFE6031201E3
:100443002227E7031201227AE703120122DEE703E0
:100453001201226BE80312012225E903120122345F
:10046300EC03120122BFED03120122E2ED0312019C
:1004730022E3AA0412012280AC04120122D0AC04AC
:10048300120122A0AD04120122FFAD041201220DBC
:10049300AE0412012236AE041201220E8F041201A1
:1004A30022368F04120122648F041201229B8F04CF
:1004B300120122F98F04120122879104120122D220
:1004C30091041201221D92041201225D9204120171
:1004D30022A39204120122D192041201228E9304C8
:1004E300120122989304120122A59304120122D827
:1004F3009304120122A49404120122B09404120161
:1005030022C89404120122D29404120122509504A9
:100513001201224CDE041201225ADE04120122725D
:10052300DE041201228ADE04120122A2DE04120179
:100533002266CD0212012212CE021201228DCE02B8
:10054300120122AECF02120122EACF02120122844B
:10055300D0021201222DD10212012214D202120161
:100563002278D302120122CFD30212012250D402E5
:1005730012012240D5021201228DD502120122134B
:10058300D60212012245D60212012259D8021201C3
:10059300229BD802120122B9D8021201223CD902AD
:1005A30012012210DA02120122D8DA02120122E524
:1005B300DC02120122B5CF0312012288D0031201FB
:1005C3002231D1031201227DD10312012234D2033D
:1005D3001201224DD20312012267D2031201221704
:1005E300D303120122A3D3031201228FD4031201D6
:1005F30022BED403120122D1D50312012219D6033C
:10060300120122DAD6031201223ED703120122A1DC
:10061300D703120122D1D7031201224BD8031201AF
:1006230022EED9031201222ADA0312012246DA0347
:1006330012012226E1041201226BB304120122816A
:10064300B304120122A7B304120122C3B40412019A
:1006530022CDB40412012202B604120122FAB60416
:1006630012012204B704120122ACFA02120122DCA5
:10067300FB021201220FFC0212012259FC02120199
:100683002220FE021201220080021201227980023E
:10069300120122898002120122EB80021201227CC4
:1006A30081021201226282021201228E820212014F
:1006B30022CB8202120122E282021201226E830203
:1006C3001201227883021201228A8302120122C2BA
:1006D3008302120122258402120122848402120160
:1006E30022C78402120122D28402120122DD840273
:1006F3001201229485021201229785021201229A85
:1007030085021201229D8502120122A08502120197
:10071300228A8602120122ED86021201224F8702EB
:10072300120122ED87021201220D8902120122F425
:100733008A02120122AD8C02120122898D0212015A
:10074300223D8E021201227A910212012228920284
:10075300120122979302120122179502120122BE5F
:1007630095021201220796021201223E96021201FD
:1007730022DB9602120122669702120122FEDC029C
:1007830012012253DD02120122B2DE02120122C241
:10079300DE02120122EFDE021201224BDF021201FE
:1007A3002252E0021201221CE1021201227CE20227
:1007B300120122BFE20212012264E302120122B1FA
:1007C300E302120122D7E302120122E5E50212013C
:1007D30022EAE502120122EFE7021201223CE802BB
:1007E300120122AFE802120122E2E802120122847E
:1007F300E9021201222DEA0212012265EA02120124
:100803002268EA02120122B0EA02120122F2EA028B
:1008130012012249EB0212012299C404120122ACF3
:10082300C404120122BAC40412012202C504120133
:100833002218C5041201225FC50412012273C604E3
:1008430012012200C7041201224BC7041201224DD8
:10085300D5011201225DD501120122C0D501120179
:100863002205D601120122BBD60112012296D7011D
:10087300120122BFD701120122EFD7011201222F49
:10088300DA0112012216DC01120122EEDD0112014E
:100893002232DF0112012299E101120122A7E201B2
:1008A300120122F9E30112012203E501120122459B
:1008B300E5011201227DE5011201229FE5011201EA
:1008C3002202E601120122C4EA011201225EEB01B7
:1008D3001201229CEB01120122BBEB011201221532
:1008E300EC0112012215ED011201229AED01120110
:1008F3002201EE011201220BEE01120122AFEE01E1
:10090300120122F2EE0112012206EF011201223E30
:10091300EF0112012287EF01120122B0EF01120150
:1009230022F5EF011201223EF00112012266F001CD
:10093300120122EFF001120122A8F101120122BEDD
:10094300F101120122FAF10112012222F201120134
:10095300225AF2011201228DF201120122C4F20184
:10096300120122E3F2011201220CF301120122858A
:10097300F3011201229AF301120122AFF3011201D2
:1009830022C4F301120122F9F30112012233F4010B
:1009930012012257F40112012220F501120122361D
:1009A300F50112012255F50112012268F501120128
:1009B300227DF50112012292F50112012208F601AE
:1009C3001201221CF60112012274F6011201228384
:1009D300F601120122DFF60112012219F7011201B9
:1009E300224EF7011201227AF701120122A8F70120
:1009F300120122DBF701120122F0F7011201220595
:100A0300F80112012235F80112012280F8011201C6
:100A130022DFF80112012220F9011201225CF901FF
:100A230012012287F901120122F6F9011201223380
:100A3300FA011201225EFA011201228EFA01120159
:100A430022B9FA01120122E3FA011201221AFB016F
:100A53001201224FFB011201228CFB01120122B66B
:100A6300FB01120122E6FB0112012210FC0112011B
:100A7300223AFC0112012265FC011201228EFC01C3
:100A8300120122E5FC0112012227FD01120122526B
:100A9300FD01120122B6FD01120122E0FD01120146
:100AA300220BFE0112012236FE0112012266FE0113
:100AB300120122AFFE01120122D9FE01120122FE10
:100AC300FE0112012285FF01120122E5DA0412015F
:100AD3002238DB04120122A8BD02120122D6BD0274
:100AE30012012231BF0212012211C002120122306F
:100AF300C002120122ADC002120122F0C002120193
:100B0300226BC202120122DAC20212012205C502BD
:100B130012012289C7021201223AC80212012230AD
:100B2300C902120122D0C902120122CECA02120145
:100B33002228CC02120122B3CC0212012228CD02B8
:100B430012012232D6041201229BD604120122EF93
:100B5300D60412012211D70412012238D70412013C
:100B63002269D7041201228AD70412012276A6042D
:100B7300120122E3A6041201222AA704120122422F
:100B8300A8041201223EA90412012221AA0412017F
:100B9300220DEF031201224FEF0312012221F00372
:100BA300120122FAF003120122F4F103120122D6F8
:100BB300F2031201223FF303120122D6F3031201BF
:100BC30022F3F3031201220FF403120122B8F403F8
:100BD3001201222CF50312012298F5031201229B24
:100BE300F503120122C4F5031201223EF60312019A
:100BF30022D7F6031201223CF70312012251F70315
:100C030012012297F703120122B0F70312012215F2
:100C1300F80312012218F80312012260C104120121
:100C2300229CC104120122DAC104120122A4C204CB
:100C330012012213C3041201224EC3041201228C97
:100C4300C304120122BCC304120122E3C304120130
:100C53002251C404120122582D00120122B32F0085
:100C6300120122C532001201220133001201222E89
:100C730033001201222034001201226B34001201CE
:100C830022B63400120122C83400120122083500B2
:100C93001201224935001201225835001201228D1A
:100CA3003500120122DB35001201220A360012013F
:100CB30022823600120122B43600120122F03600DD
:100CC300120122133700120122E537001201221C00
:100CD3003800120122BE38001201224539001201E8
:100CE300222D3A00120122C53C00120122313E009E
:100CF300120122A73E00120122233F0012012262A9
:100D03004100120122A341001201224743001201B4
:100D130022684300120122A94300120122A24400C7
:100D2300120122AF46001201226C47001201220673
:100D33004800120122DE4D001201222E4E00120144
:100D430022A05000120122D85100120122E75300C1
:100D5300120122535400120122015500120122D222
:100D630055001201220356001201222D56001201D2
:100D7300225756001201228C5600120122B156004E
:100D8300120122D05600120122FD560012012275D3
:100D93005700120122ED57001201223758001201A9
:100DA30022595800120122535900120122275A00D6
:100DB300120122585A00120122BF5A00120122DFE7
:100DC3005A00120122EC5B001201224C5C0012015A
:100DD300222F5D00120122BE5D00120122E95D0097
:100DE3001201222E5E00120122725E00120122C144
:100DF3005E00120122E35E00120122F0CC04120114
:100E030022A5CE04120122D5AA03120122D3AB03D9
:100E13001201226CB2031201228DB4031201225873
:100E2300B603120122C0B703120122E0AE01120180
:100E3300228FAF01120122BCAF0112012202B001C5
:100E430012012214B0011201224AB101120122A897
:100E5300B101120122CDB10112012204B20112012A
:100E6300229AB30112012214B40112012263B401C4
:100E7300120122DDB40112012237B60112012297B9
:100E8300B7011201229DB801120122FEB90112011C
:100E93002250BA01120122C1BB0112012206BE0176
:100EA30012012200BF0112012219BF011201227790
:100EB300BF0112012296BF01120122B5BF01120127
:100EC30022B8BF01120122E9C001120122E1C101CE
:100ED300120122CDC201120122AFC301120122E28B
:100EE300C30112012252C401120122C4C40112011E
:100EF300223EC50112012294C5011201226FC601CF
:100F030012012239C7011201220EC801120122ED7A
:100F1300C80112012278C901120122E6C901120196
:100F2300225ACA0112012285CA0112012244CB01AD
:100F330012012298CB0112012285CE01120122CE89
:100F4300CE0112012211CF011201228ACF01120117
:100F53002222D00112012213D10112012238D10120
:100F63001201227ED101120122A8D101120122F025
:100F7300D1011201226BD201120122C5D201120149
:100F8300222ED401120122DCD4011201221DD5012B
:100F9300120122548E03120122A28E03120122AEE9
:100FA3008E031201228C8F03120122BD8F031201C3
:100FB30022EE8F031201226E9003120122EC9003A2
:100FC300120122249103120122769103120122B30A
:100FD3009103120122D09303120122F69503120109
:100FE30022E19703120122CB99031201224D2D0016
:100FF300120122D89504120122239A0412012267B6
:101003009B04120122008003120122B88203120101
:1010130022BE82031201227885031201224588032E
:101023001201225CA10412012200A204120122D2A5
:10103300A204120122FCA2041201224AA5041201F5
:1010430022105F001201225A5F0012012223700056
:10105300120122A87100120122CB72001201223C5C
:101063007900120122377A00120122747A001201E8
:1010730022977A00120122D97A00120122E27A0021
:10108300120122EC7A00120122DA7B00120122D033
:101093007C00120122697D00120122439802120191
:1010A30022429C02120122489C0212012283A302C3
:1010B3001201229CA80212012219BE04120122135A
:1010C300BF0412012287BF04120122C5BF0412010B
:1010D3002239C004120122B2C004120122BBC0048F
:1010E300120122C7C004120122DCC0041201221A19
:1010F300C10412012230C104120122008004120132
:10110300220D80041201222780041201226680042A
:10111300120122A480041201220981041201221E59
:101123008104120122298104120122368104120151
:10113300224D81041201225B81041201226A81047F
:101143001201227F81041201229481041201229F41
:101153008104120122AB8104120122B8810412011D
:1011630022C78104120122D28104120122F78104D1
:10117300120122FC8104120122968204120122FC34
:1011830082041201220C830412012221830412011E
:10119300223683041201225083041201226B83043A
:1011A3001201228883041201229383041201224F25
:1011B30084041201223B8504120122578504120183
:1011C300226E85041201227985041201228E850480
:1011D300120122A2850412012203860412012209AC
:1011E30086041201220F86041201221586041201BD
:1011F300222986041201225086041201228B8604BE
:10120300120122A48604120122E486041201221789
:101213008704120122BBDA03120122DDDA03120171
:1012230022BDDB0312012294DE03120122C0DF037D
:10123300120122E4E00312012296E1031201223794
:10124300E203120122AB9C031201222F9D03120120
:1012530022DE9D031201223D9F031201225EA103A0
:101263001201224AA2031201227FA203120122A128
:10127300A20312012250A30312012248A503120163
:101283002271A50312012203A60312012235A6032C
:1012930012012242A60312012299A603120122BFC0
:1012A300A6031201222CA9031201222FAA03120161
:1012B3002287AA0312012236EC0212012240ED0218
:1012C30012012227EE0212012231EE021201223B09
:1012D300EE021201225DEE0212012269EE021201F8
:1012E3002202F00212012231F0021201224DF10218
:1012F300120122A6F1021201220CF302120122EBC7
:10130300F30212012247F402120122B4F402120181
:1013130022EFF4021201222EF502120122E7F70254
:1013230012012201F8021201228DF8021201229BFE
:10133300F802120122F4F80212012202F902120148
:101343002275F902120122D9F90212012223FA02AB
:1013530012012287C403120122A9C403120122CF5E
:10136300C603120122E4C903120122FCCA031201BB
:1013730022AFCB0312012291CC031201228DD4049C
:10138300120122B2D40412012224D50412012294A0
:1013930087041201229D8704120122A687041201E9
:1013A300227D88041201222E8A04120122648A04F7
:1013B3001201229E8A04120122D48A041201220EEF
:1013C3008B04120122428B041201226E8B04120140
:1013D30022B78B04120122F18B041201223A8C04EE
:1013E300120122928C04120122C78C0412012222C0
:1013F3008D041201225C8D04120122AD8D041201B1
:1014030022E38D041201221D8E041201224B8E044D
:101413001201226E8E04120122EAB7031201221D69
:10142300B80312012260B8031201226BB803120140
:101433002276B80312012281B8031201228CB80369
:10144300120122F8BB03120122CBBC031201224575
:10145300BD03120122BCBD03120122C9BD03120147
:1014630022D6BD03120122E0BD03120122EABD030D
:1014730012012206BE0312012216BE0312012258D4
:10148300BE031201227EBE0312012288BE03120193
:101493002292BE031201229CBE03120122A9BE03A3
:1014A300120122B3BE03120122BDBE03120122C7E1
:1014B300BE03120122D1BE031201221BBF0312017C
:1014C3002238BF0312012255BF0312012265BF0355
:1014D3001201226FBF03120122CABF03120122D7D6
:1014E300BF031201229BC003120122A5C0031201F4
:1014F30022AFC003120122B9C003120122D6C003D6
:10150300120122F3C003120122B7C103120122C147
:10151300C103120122CEC103120122DBC103120156
:1015230022FCC10312012205C2031201222CC203B1
:1015330012012253C20312012278C2031201228133
:10154300C20312012290C203120122A8C203120194
:1015530022B1C203120122C0C203120122CFC2036D
:10156300120122D8C203120122E7C203120122F799
:10157300C20312012216C30312012223C303120161
:101583002230C30312012240C3031201224DC303BD
:101593001201225DC3031201226DC3031201227DD6
:1015A300C303120122AFC303120122B9C303120101
:1015B30022C9C303120122D9C303120122E6C303C2
:1015C3001201220BC40312012218C40312012228A0
:1015D300C40312012232C4031201223FC4031201C5
:1015E3002249C40312012259C40312012263C40312
:1015F3001201226DC4031201227DC403120122E2EF
:10160300E204120122AA9B04120122B49B041201D8
:1016130022F29B041201223B9C04120122759C04BA
:10162300120122CB9C04120122EC9C04120122F52C
:101633009C04120122409D04120122699D0412019F
:1016430022739D041201227D9D04120122E99D044F
:101653001201227F9E04120122C99E04120122F963
:101663009E04120122829F04120122C29F041201CE
:1016730022FA9F0412012219A00412012222A004BB
:10168300120122E8A00412012232A1041201225500
:10169300DD04120122E5E204120122FBCE04120151
:1016A3002231CF0412012267CF04120122B0D004E9
:1016B3001201221FE20412012235E2041201223F29
:1016C300E2041201224AAF041201225FAF041201A5
:1016D3002212B00412012252B0041201226BB00490
:1016E3001201229FB004120122ECB0041201222045
:1016F300B10412012262B1041201225EB304120189
:1017030022D3FF02120122FCFF02120122AAE104EA
:101713001201223BDF041201224CDF04120122AD2D
:10172300FF01120122ECFF01120122E47F001201EA
:1017330022F1DF0412012201E0041201221CE00461
:1017430012012284E00412012251DC04120122D688
:10175300DC041201223CDD041201226DD9041201C2
:101763002296D90412012201DA0412012252DA0468
:10177300120122ABDA0412012239CA041201224EE9
:10178300CA0412012264CB04120122D8CB04120131
:1017930022F2CB0412012209CC041201221CCC0434
:1017A30012012234CC0412012249CC041201226A10
:1017B300CC04120122BBCC041201220EB704120185
:1017C3002225B7041201229EB70412012273B80422
:1017D30012012245BA04120122AABA041201223AC2
:1017E300BB04120122B8BB0412012241BC04120142
:1017F30022D6BC0412012260BD041201226ABD0478
:1018030012012279BD041201228FBD04120122A20A
:10181300BD0412012202BE0412012216BE041201EB
:1018230022EF820112012285830112012226840103
:101833001201225D8501120122AC8601120122CC24
:101843008601120122758701120122B08F01120154
:1018530022A19601120122999F01120122D2A00115
:101863001201226DAB011201220CAC01120122C63E
:10187300AD0112012284AE01120122BDAE0112019B
:10188300228EE004120122F9E00412012204E10491
:1018930012012214E1041201221FE104120122D0D9
:1018A300D70412012220D804120122A9D80412015C
:1018B300220FD90412012275C7041201229FC70403
:1018C30012012265C80412012240C904120122C771
:1018D300C9041201223CF803120122F9F803120190
:1018E3002234F9031201225CF903120122BEF90327
:1018F3001201220AFA031201226AFA03120122FDDB
:10190300FA03120122FCFB031201228BFD031201D5
:10191300220EFE0312012275FE031201228CFE0326
:1019230012012296FF03120122B87F00120122D472
:10193300FF03E76670100809E766700A0809E7669F
:1019430070040809E76622E066701008A3E0667079
:101953000A08A3E066700408A3E06622C3E79608BA
:1019630009E7960809E7960809E79622C3E096086F
:10197300A3E09608A3E09608A3E09622C008C3E07C
:1019830096F50808A3E096420808A3E096420808E3
:10199300A3E09645087001D3D00822080808EAC0DE
:1019A300E0EBC0E086F0E7A4FA180986F0E7A42A82
:1019B300FA180986F0E7A42AFA180986F0E7A42A98
:1019C300FA1986F0E7A4FBE5F02AFA190886F0E78E
:1019D300A42BFBE5F03AFA190886F0E7A42BFBE504
:1019E300F03AFA18180986F0E7A4C5F02BFBE43A9D
:1019F300FA1908E7C5F0C6A426F6E5F03BFBE43A7E
:101A0300FA1886F0E7A4F6E5F00826F6E43B08F6B4
:101A1300E43A08F6D0E0FBD0E0FA22E4CFC0E0E4F9
:101A2300CEC0E0E4CDC0E0E4CCC0E075F020E62613
:101A3300F608E633F608E633F608E633F618181820
:101A4300EC33FCED33FDEE33FEEF33FFC3EC9709CC
:101A5300ED9709EE9709EF97191919400FFFEC97C6
:101A6300FC09ED97FD09EE97FE191906D5F0BFECB9
:101A7300F709EDF709EEF709EFF7191919D0E0FCAB
:101A8300D0E0FDD0E0FED0E0FF226016080808C6D3
:101A9300C313C618C613C618C613C618C613C6D5AD
:101AA300E0EA227009080808226016181818C6C34D
:101AB30033C608C633C608C633C608C633C6D5E020
:101AC300EA22E627F60809E637F60809E637F608B4
:101AD30009E637F622E026F608A3E036F608A3E087
:101AE30036F608A3E036F622E026F008A3E036F047
:101AF30008A3E036F008A3E036F022C3E697F60821
:101B030009E697F60809E697F60809E697F622C369
:101B1300E096F008A3E096F008A3E096F008A3E0AF
:101B230096F022E657F60809E657F60809E657F64F
:101B33000809E657F622E056F608A3E056F608A38E
:101B4300E056F608A3E056F622E056F008A3E05666
:101B5300F008A3E056F008A3E056F022E046F608AA
:101B6300A3E046F608A3E046F608A3E046F622E61D
:101B730067F60809E667F60809E667F60809E667FF
:101B8300F622E0F608A3E0F608A3E0F608A3E0F6E1
:101B930022E6F008A3E6F008A3E6F008A3E6F022A5
:101BA300E0FAA3E0FBA3E0FCA3E0FD22EAF0A3EB51
:101BB300F0A3ECF0A3EDF022E0F8A3E0F9A3E0FA40
:101BC300A3E0FB22E8F0A3E9F0A3EAF0A3EBF02201
:101BD300CAC0E0E6F0A308DAFAD0E0FA22CAC0E00D
:101BE300E0A3C582CCC582C583CDC583F0A3C582DE
:101BF300CCC582C583CDC583DAE6D0E0CA22C3E46F
:101C030098F8E499F9121C428026C3E49AFAE49BFB
:101C1300FBE920E7E9121C42E498F8E499F922C3AE
:101C2300E498F8E499F9121C42E498F8E499F9C3AA
:101C3300E49AFAE49BFB22EB20E7CFE920E7E0B943
:101C43000010BB0008E88AF084F8AAF022E4FBC87D
:101C5300FA22EB70227B10C833C8C933C93350074B
:101C6300C39AC3DBF280069A50012ADBEAC833F435
:101C7300C8C933F4C9FA2275F008E4C833C8C933B4
:101C8300C933C99AC99B5004C92AC93BD5F0ECFB97
:101C9300C833F4C8E4C9FA22600D08C6A2E713C624
:101CA30018C613C6D5E0F322600C08C6C313C618C2
:101CB300C613C6D5E0F422700422600D18C6C333E0
:101CC300C608C633C6D5E0F41822251810AF08F5A8
:101CD30018400C15198008F51840021519D2AF22C7
:101CE30000C0D0251810AF08F518500C051980084E
:101CF300F51850020519D2AFD0D0222518F582105D
:101D0300AF08F518400C15198008F518400215198D
:101D1300D2AF851983222518F582E43519F583227C
:101D23002518F8E43519F9222518FAE43519FB22A8
:101D33002518FCE43519FD22E4732518C582C0E09B
:101D4300E51934FFC583C0E0E518C3958224F81074
:101D5300AF088583198582188008858319858218C1
:101D6300D2AFCEF0A3E520F0A37808E608F0A3DE17
:101D7300FAEFF0A3E58124FAF8E608F0A3E608F009
:101D8300A3E608F0A30808E608F0A3E608F0A31505
:101D9300811581D0E0FED0E0F8158115811581E829
:101DA300C0E0EEC0E0222518C582C0E0E51934FF8B
:101DB300C583C0E0E518C3958224F910AF08858375
:101DC300198582188008858319858218D2AFCEF0D1
:101DD300A3E520F0A37808E608F0A3DEFAEFF0A36A
:101DE300E58124FBF8E608F0A3E608F0A30808E67B
:101DF30008F0A3E608F0A315811581D0E0FED0E03A
:101E0300F815811581E8C0E0EEC0E02285198385CD
:101E13001882E0A3FEE0A3F5207808E0A3F608DF2C
:101E2300FAE0A3FFE0A3C0E0E0A3C0E0E0A3C0E0CA
:101E3300E0A3C0E0E0A3C0E010AF0885821885836B
:101E4300198008858218858319D2AFD083D0820286
:101E5300011F851983851882E0A3FEE0A3F520788E
:101E630008E0A3F608DFFAE0A3FFE0A3C0E0E0A3E5
:101E7300C0E0E0A3C0E0E0A3C0E010AF0885821893
:101E83008583198008858218858319D2AFD083D0C2
:101E93008222C0D02518C582C0E0E51934FFC5836E
:101EA300C0E0E518C3958224F310AF088583198534
:101EB30082188008858319858218D2AFC8F0A3E9F8
:101EC300F0A3EAF0A3EBF0A37908E709F0A3D8FAAB
:101ED300ECF0A3EDF0A3EEF0A3EFF0A3D0E0F0A3BA
:101EE300D0E0F0A3D0E0F0A3E520F0A3E5F0F0A369
:101EF30022851983851882E0C0E0A3E0F9A3E0FA04
:101F0300A3E0FBA37808E0F608A3DFFAE0FCA3E074
:101F1300FDA3E0FEA3E0FFA3E0C0E0A3E0C0E0A3D5
:101F2300E0F5D0A3E0F520A3E0A3F5F010AF08851A
:101F330083198582188008858319858218D2AFD0CA
:101F430082D083D0E0F8D0E032740480067402803B
:101F5300027401C0E0F404121CFED0E0121BD32271
:101F63007404800474028000CCC0E0EDC0E0E51886
:101F7300C39CCCAD1950011D10AF068C188D198070
:101F8300068C188D19D2AF121BE0D0E0FDD0E0FC17
:101F930022D083D082C5F0E493A3C5F0C395F0F5B6
:101FA300F0E493A3C395F04005E5F0048001E475E4
:101FB300F002A42582F582E5F03583F583E493A34B
:101FC300C0E0E493C0E022D083D082E9C0E0E49390
:101FD300A3C386F0C5F095F0F908E493A386F0C592
:101FE300F095F0700BE493A3C3994005E9048002D4
:101FF300A3E475F002A42582F582E5F03583F58329
:10200300D0E0F9E493A3C0E0E493C0E022D083D00E
:1020130082CCC0E0E493A3600612203A1470FAE481
:1020230093A360061220591470FAD0E0FCE493A342
:10203300C0E0E493C0E022C0E0E493A3D39C50103B
:10204300E493A3C39C400AD0E0D0E0D0E002202D6B
:10205300A3A3A3D0E022C0E0E493A36C7009D0E073
:10206300D0E0D0E002202DA3A3D0E022D083D08201
:10207300ECC0E0EDC0E0E493A3FCE493A3FDED4CDE
:10208300600D1220BBEC24FFFCED34FFFD80EFE478
:1020930093A3FCE493A3FDED4C600D1220FAEC2412
:1020A300FFFCED34FFFD80EFD0E0FDD0E0FCE493D6
:1020B300A3C0E0E493C0E022C0E0C3E493960874B5
:1020C30001939618400FE4936670080874019366B1
:1020D3001870007019A3A3C3E49396087401939630
:1020E30018A3A3400DD0E0D0E0D0E00220ABA3A31F
:1020F300A3A3A3A3D0E022C0E0C0F088F0E49366DA
:1021030070080874019366187000A8F0A3A3700BFD
:10211300D0F0D0E0D0E0D0E00220ABA3A3D0F0D049
:02212300E022B8
:1021280074F5121DA9EAFEEBFFEE2434F8EF340033
:10213800F988088909EE2435F582EF3400F583E043
:10214800F8EE2437F582EF3400F583E0F50AEC85E4
:102158000AF0A4FCAAF0850AF0EDA42AFDE82CF800
:10216800E43DF97A257B00121C42EA85088285093C
:1021780083F0F8740758F97401B900028004C33376
:10218800D9FCFAE8131313541FF8EE28F8EF3400BB
:10219800F9E8245DF582E93400F583E05A6008EE39
:1021A8002434F582EF802CEE2434F582EF3400F5E8
:1021B80083E0C0E0EE2436F582EF3400F583E0F5E5
:1021C800F0D0E084A8F0EE28F8EF3400F9E82438DD
:1021D800F582E93400F583E0F97F04021E5574F5B1
:1021E800121DA9EAFEEBFFEE2434F582EF3400F568
:1021F80083E0C0E0EE2435F582EF3400F583D0E0CB
:10220800F08E828F83A3A3A3A3A3A3A3C082C083BA
:102218008E828F83A3A3A3A3A3E0F8A3E0F9D083BE
:10222800D082E0C398F508A3E099F509EE247FF57C
:1022380082EF3400F583E064017069EE2480F58252
:10224800EF3400F583E0F8A3E0F98E828F83A3A32F
:10225800A3A3A3A3A3E0FCA3E0FD8E828F83A3A383
:10226800A3A3A3E0FAA3E0FBC3EA9CEB9D5010C331
:10227800EC98ED99402EC3EA98EB995027800EC34D
:10228800EA98EB994007C3EC98ED9940177CCF7D0D
:1022980007EEFAEFFB120F27EE247FF582EF3400EA
:1022A800F583E4F0EE2434F8EF3400F9E8FCE9FDB6
:1022B800EE2435F582EF3400F583E0F8EE2437F5A7
:1022C80082EF3400F583E0F50AE508850AF0A4F505
:1022D80008AAF0850AF0E509A42AF509E82508F80E
:1022E800E43509F97A257B00121C42EA8C828D8339
:1022F800F0F8740758F97401B900028004C333D99F
:10230800FCFAE8131313541FF8EE28F8EF3400F919
:10231800E8245DF582E93400F583E05A6008EE248C
:1023280034F582EF802CEE2434F582EF3400F58307
:10233800E0C0E0EE2436F582EF3400F583E0F5F0F6
:10234800D0E084A8F0EE28F8EF3400F9E82438F556
:1023580082E93400F583E0F9122C450221E1C082BC
:10236800C083851882851983E0F8A3E0F9C3EA9C45
:10237800EB9D5010C3EC98ED99401BC3EA98EB997C
:102388005014800EC3EA98EB994007C3EC98ED9976
:102398004004790180027900D083D08222EAC39C6C
:1023A800FAEB9DFB2274EF121DA9900489E06408E2
:1023B8006005E06407702A9061C8E060249004B763
:1023C800E0F4601DE0F875F005A4C8AAF02AF974D5
:1023D800B928FE740439FF8E828F83A3A3A3E0700B
:1023E800030224DD906060E0C0E0EE2468F582EF2F
:1023F8003400F583D0E0F0750C62750D087508009F
:10240800750900E5D914F50AE5D95403F50E6017E6
:102418007403650E605CE50A6010EE2467F582EFD0
:102428003400F583E070030224C290085DE0640183
:10243800602AEE2482F582EF3400F583E0600478A8
:102448000480027800850A08E508C398FA95E0FB3D
:10245800120C698A088B09EA450970051211DF8098
:1024680074EE2482F582EF3400F583E070048A0C60
:102478008B0DE50A6012850C82850D83F50BE5D975
:10248800F0A3150BE50B70F6EE2482F582EF34000D
:10249800F583E0604474FC250AF50A780C121F5095
:1024A800AC0AA90EEEFAEFFB120FE77402121CE356
:1024B800E97026AA08AB091218A5793D8E828F8388
:1024C800A3A3A3A3E0FA7B00120B13EEFAEFFB120F
:1024D8000F511210477900807D7403650E60568590
:1024E8000A107511007810121F50AC0CAD0DAA0817
:1024F800AB09120FC37402121CE3EE2468F582EFD5
:102508003400F583E064807004747F8001E0F50C8A
:10251800780C121F54E50EF50C780C121F54A90AFA
:10252800AC08AD099004B7E0FA7B00120AD1740236
:10253800121CE3801C900489E06408AC0CAD0D709B
:1025480009EEFAEFFB1210178007EEFAEFFB1210F4
:10255800AD1211EB79017F0A021E5574F5121DA9FF
:1025680074FC121CCDEAFEEBFF8908A2AFE433F538
:1025780009C2AF806AEE2463F8EF3400F97A007B71
:1025880000A2AFE433F50AC2AF88828983E0FCA3D6
:10259800E0FDEC4D603A88828983E0FAA3E0FB8A8B
:1025A800828B83E0FCA3E0FD88828983ECF0A3EDB5
:1025B800F08A828B83E4F0A3F088828983E0FCA30D
:1025C800E0FDEC4D700A88828983A3A3E4F0A3F0B0
:1025D800E50AA2E092AF1218A59007D6E004F0EE43
:1025E8002463F582EF3400F583E0F8A3E0F9E849C5
:1025F800603DEE2463F582EF3400F583E02402FAAF
:10260800A3E03400FBEA2402F50AEB3400F50B786A
:102618000A121F508A828B83E0FCA3E0F9EEFAEFDE
:10262800FB120F817402121CE3E9700302257D90EE
:1026380007D6E060639007D7E0F89007D6E0C39824
:10264800500C7402650870509007D8E0604A8E827A
:102658008F83A3A3A3A3E0851882851983F0A3E43D
:10266800F09007D6E0F87402121D19E8F0A3E4F020
:102678009007D6E0F89007D5E028F07402121D19EB
:10268800AC82AD83851882851983AA82AB837901D0
:10269800120ADD9007D6E4F0E509A2E092AF7404CF
:1026A800121CE30221E100008521878522C622C091
:1026B800E0C0D0E8C0E0E9C0E0EAC0E0EBC0E0EC90
:1026C800C0E0EDC0E0EEC0E0C008C009C00AC00B21
:1026D800C082C083C0F0A2AFE433FEC2AF759B00D6
:1026E800906182E0A2E05012E591A2E0500C759151
:1026F800FE7401652170031223ADE0A2E55051E597
:1027080091A2E5504B7591DF900489E0640760055C
:10271800E06408702374016521703579019004B76D
:10272800E0FA75F005A4CAA8F028FB74B92AFA746F
:10273800043BFB1225638018E0640D70139004AB12
:10274800E004F064287002E4F07A00E0F91212095B
:10275800906182E0A2E640030227FEE591A2E640EE
:10276800030227FE7591BF900489E0640570081282
:1027780010D71210E380031210DD752100121149E1
:10278800E990048AF0790012112B120E437A017B2A
:1027980000900488E0F9121665907803E0644270AE
:1027A80055900861E014F0704DC2AF1227B600785A
:1027B8002AD0E0F618D0E0F6E59F540770057509B1
:1027C800FF800375097FC4C0E07829E6F50808E6AC
:1027D8005509F509740B7808121CABD0E02508F8E8
:1027E800906270E0A2E740F8E8C333906272F0901C
:1027F8006270E0D2E0F0906181E0A2E35009E5E97F
:10280800A2E3500375E9F7A3E0A2E75009E591A216
:10281800E7500375917FEEA2E092AFD0F0D083D05D
:1028280082D00BD00AD009D008D0E0FED0E0FDD08D
:10283800E0FCD0E0FBD0E0FAD0E0F9D0E0F8D0D06E
:10284800D0E032C0E0C0D0C082C083906183E0A2F3
:10285800E05009E5BFA2E0500375BFFEE0A2E150D9
:1028680009E5BFA2E1500375BFFDE0A2E25009E50A
:10287800BFA2E2500375BFFBE0A2E35009E5BFA287
:10288800E3500375BFF7E0A2E45009E5BFA2E450A6
:102898000375BFEFE0A2E55009E5BFA2E550037557
:1028A800BFDFE0A2E65009E5BFA2E6500375BFBF4F
:1028B800D083D0828088C0E0C0D0E8C0E0E9C0E022
:1028C800EAC0E0EBC0E0ECC0E0EDC0E0C0F0E5A796
:1028D800A2E6500FE5A1A2E6500953A7BF75A1BF14
:1028E800122923E5A7A2E5500CE5A1A2E55006535D
:1028F800A7DF75A1DFE5A7A2E15009E5A1A2E15094
:102908000375A1FDE5A7A2E2500CE5A1A2E25006DD
:1029180053A7FB75A1FBD0F002283474F8121DA947
:10292800752101900489E06406701512106B8A8283
:102938008B83A3A3A3A3A3A3E0FAA3E0FB1210C570
:10294800A2AFE433FED2AF90048FE0640170187A2E
:10295800207B00900488E0F91216E97A207B009029
:102968000488E0F912166B906182E0D2E6F09008D4
:102978005EE0602185C622801690048EE0640170B6
:1029880008E5C654F84405F5C653BEFC1226B074D3
:1029980001652160E4EEA2E092AF7F01021E5500BE
:1029A8008E238F248582288583278518828519831D
:1029B800E0CEA3E0CF852882852783EBC9EAC8ED5E
:1029C800CBECCA75F010C3E833C8E933C9EA33CA97
:1029D800EB33CBC3EA9EF526EB9FF525B35004AB4A
:1029E80025AA26EC33CCED33CDD5F0DAAE23AF24CF
:1029F8002274ED121DA98A088B098C0A8D0B741399
:102A0800121D19780C121B857808790C12195F753C
:102A180010017511C87512007513005012780879E5
:102A28000C121AFE7810790812195F501680107867
:102A38000C7908121AFE7810790C12195F40047983
:102A480001800279007F0C021E5574ED121DA98ABF
:102A5800088B098C0A8D0B7413121D19780C121B24
:102A680085780C790812195F40117808790C121AC8
:102A7800FEAA08AB09AC0AAD0B80227510007511CF
:102A8800007512007513017810790C121AFE78106F
:102A98007908121AC5AA10AB11AC12AD1380A68A18
:102AA800828B837508FF7509FF750AFF750B00781F
:102AB80008121B4C7F04021E5574F5121DA98C8246
:102AC8008D837808121B858A828B837808121B12E3
:102AD800EA2404F8EB3400F98C828D83A3A3A3A322
:102AE800E0FCA3E0FD88828983C3E09CF0A3E09D1D
:102AF800F088828983C3E09420A3E0944E40268A1C
:102B0800828B837508FF7509FF750AFF750BFF78BF
:102B180008121AEB8A828B83A3A3A3A3E02420F0D4
:102B2800A3E0344EF0022AA774F5121DA9E9FE901D
:102B380007EAE0FAA3E0FBEEC333F8E433F97435AF
:102B480028F582748239F583E02AF508A3E03BF57D
:102B5800097808121F507A407B427C0F7D001229A9
:102B6800A87402121CE38A088B098C0A8D0B741056
:102B78007808121A8DAA08AB097F04021E5574F151
:102B8800121DA98A0C8B0D8C0E8D0F740F121D1936
:102B9800E0FAA3E0FB7411121D19E0F508A3E0F5B3
:102BA800097808121F50EA2401F508EB3400F509EA
:102BB800E4F50AF50B780C790812199E75087175F9
:102BC8000902780C790812199EAA0CAB0DAC0EAD4F
:102BD8000F1229A87402121CE38B09EA4509600444
:102BE8007A0180027A00EC2AFCED3400FD7413129D
:102BF8001D19E0F8A3E0F9E8FEE9FFECF8EDF97A31
:102C0800717B02121C42880889098E828F8378089A
:102C1800121B94ECF8EDF97A717B02121C428A08B7
:102C28008B0974057808121CBA8E828F83A3A3A31C
:102C3800A3E508F0A3E509F07F08021E55C082C08D
:102C480083E9906000F0D083D08222C2AF020000F6
:102C580022C0E074F2121E95A2AFE433FED2AFC2D6
:102C6800C0E5D1A2E4500653D1EF12181BEEA2E042
:102C780092AF7F01021EF4C0E074F2121E95A2AF5B
:102C8800E433FED2AFE589A2E150031217737589C8
:102C980000C2C5EEA2E092AF7F01021EF4C0E0744C
:102CA800F2121E95A2AFE433FED2AFE58BA2E0503C
:102CB80003121773758B00C2E880D8C0E0C0D0E853
:102CC800C0E0E9C0E0E5A8D2AFC2C7A2E7A2E79298
:102CD800AFD0E0F9D0E0F8D0D0D0E032C0E0C0D03A
:102CE800E8C0E0E9C0E0C008C009C082C083A2AF64
:102CF800E433F9D2AF900FDAE0F8A3E06870085334
:102D08009AFBA374018025C2E9900FDAE0F50874F4
:102D1800012508F0745A2508F582E4340FF583E09C
:102D2800F5C1900FDAE0C394804002E4F0E9A2E034
:102D380092AFD083D082D009D008D0E0F9D0E0F8A3
:102D4800D0D0D0E03202011FFFFFFFFFFFFFFFFFDF
:102D580074F4121D3DE9900488F01210FB9078007D
:102D6800E0C4540F540764037004793F8002797FEC
:102D78007508067509007808121F507C767D047A5C
:102D8800EA7B071217497402121CE3900476E0F4F8
:102D98007049A3E0F47044A3E0F4703FA3E0F4703A
:102DA8003AA3E0F47035A3E0F4703090780EE09028
:102DB8000476F090780FE0900477F0907810E09027
:102DC8000478F0907811E0900479F0907812E0900F
:102DD800047AF0907813E090047BF090047C74FF00
:102DE800F0A3F0A3F0A3F0A3F0A3F0900476E09092
:102DF8000482F0900477E0900483F0900478E090E7
:102E08000484F0900479E0900485F090047AE090CE
:102E18000486F090047BE0900487F09004A6740682
:102E2800F0A3740DF0A3E4F0A37440F0A37401F0D0
:102E38009007DE74FFF0A3F0A3F0A3F0A3F0A3F0D3
:102E48009007DDE4F09007E4F0A374A0F0A3E4F0A9
:102E5800A37403F0A37407F0A3E4F0A37428F0A309
:102E6800E4F0A304F0A3E4F090080DF090083374A4
:102E7800FFF0A3F0A3F0A3F0A3F0A3F0900832E4CE
:102E8800F090083904F0A3E4F0A3F0A37480F0A351
:102E98007402F0A37480F0A37402F0A3E4F0A30416
:102EA800F0A3F0A3E4F0A37425F0A3E4F0A3F0905A
:102EB800084A74FFF0A3F0A3F0A3F0A3F0A3F090E6
:102EC8000849E4F090085004F0A3E4F0A37480F0FB
:102ED800A37402F0A37480F0A37402F0A37425F025
:102EE800A3E4F0A3F0A37405F090085A74FFF0A3CC
:102EF800E4F090085CF090085E04F090085F74902D
:102F0800F0A37401F0120E5B120C6F1210B9790164
:102F18007A617B08120F9F900861E075F01484E5D0
:102F2800F004F0790C7A827B08120F9F120FBD7A99
:102F380000900488E0F91216BF907803E0644270AC
:102F480055900861E014F0704DC2AF122F5600780A
:102F58002AD0E0F618D0E0F6E59F54077005750909
:102F6800FF800375097FC4C0E07829E6F50808E604
:102F78005509F509740B7808121CABD0E02508F840
:102F8800906270E0A2E740F8E8C333906272F09074
:102F98006270E0D2E0F09004B3E4F0A3F07A80FB32
:102FA800900488E0F91216650235D674F4121D3DB6
:102FB800EAFEEBFFEEA2E0504590048AE0C394805D
:102FC800E0500FC333F8E433F9749828F58274118C
:102FD800800EF4C333F8E433F974A628F58274112B
:102FE80039F583E0F8A3E0F5838882121D3B7A0067
:102FF800900488E0F91216BFEE64010232B9540851
:1030080070030230A0900858E0F875F005A4C8AA2B
:10301800F02AF974B928FA740439FB75080078089D
:10302800121F54EA2432F582EB3400F583E0F508E8
:10303800A3E0F50974047808121CAB7808121F5035
:10304800EA2430F582EB3400F583121F67EA242E58
:10305800F582EB3400F583E0F508A3E0C313F50926
:10306800E50813F5087808121F507508C97509078F
:103078007808121F509007C8E0FD7C008A828B8375
:10308800A3A3A3A3E0FA7B007900120B0D74091225
:103098001CE3EE64080232B9EE5410604075080073
:1030A8007808121F54E4F5097808121F507808129E
:1030B8001F507808121F507508C97509077808123B
:1030C8001F509007C8E0FD7C007A007B007902124F
:1030D8000B0D7409121CE3EE64100232B9EE5402AF
:1030E80060407508007808121F54E4F50978081242
:1030F8001F507808121F507808121F507508C9759C
:1031080009077808121F509007C8E0FD7C017A0073
:103118007B00793C120B0D7409121CE3EE64020269
:1031280032B9EE540470030231CF9004B7E0F87559
:10313800F005A4C8AAF02AF974B928FA740439FB6E
:10314800EA242AF582EB3400F583E0F508780812C2
:103158001F54EA2432F582EB3400F583E0F508A326
:10316800E0F50974047808121CAB7808121F50EABD
:103178002420F582EB3400F583121F67EA242EF52C
:1031880082EB3400F583E0F508A3E0C313F509E505
:103198000813F5087808121F507508C975090778CB
:1031A80008121F509007C8E0FD7C018A828B83A318
:1031B800A3A3A3E0FA7B007900120B0D7409121C7B
:1031C800E3EE64040232B9EE5440604075080078BA
:1031D80008121F54E4F5097808121F507808121FC6
:1031E800507808121F507508C97509077808121F0A
:1031F800509007C8E0FD7C017A007B00793B120BF8
:103208000D7409121CE3EE64400232B9EE5480607A
:103218003B90085FE0F8A3E0F9E849602A790012DA
:1032280016B990085FE0F508A3E0F509E4F50AF59A
:103238000B7808121F4C7A007B01900488E0F91281
:1032480016DD7404121CE3EE64808065EF5401609F
:103258000C79011216B9EEFAEF64018056EF5402A8
:10326800600AC2AF75C9AB75C95B80FEEF540460D4
:103278000A122C53EEFAEF6404803890048FE0644D
:10328800017033EE5420602E900489E024F9600325
:1032980014701B793F9004B7E0FA75F005A4CAA82A
:1032A800F028FB74B92AFA74043BFB120F57EE643A
:1032B80020FAEFFB80047A007B000235D674F61200
:1032C8001D3DC3EA9411EB940050047A1080027AF1
:1032D80020EA2408FAE43400FB12189F8A088B09B4
:1032E800A808A909E849600AE82404FAE93400FBB7
:1032F80080047A007B00023F1E74F6121D3DEA240A
:1033080005FAEB3400FB12189F8A088B09A808A954
:1033180009E849600AE82405FAE93400FB80047AE0
:10332800007B00023F1EC082C083C2AF1210DDE5E1
:10333800E170FC75E101120E3775E1F11211071207
:103348000E2B79071211C179011211C779021211D6
:10335800311211671211A379001211B579011211F6
:10336800B57A557B557C557D001211199007C8E434
:10337800F0A3F0A3F0A3F0A3F0A3F0A3F09007E468
:10338800F0A3F0A3F09007E87407F09007E7740340
:10339800F09007EDE4F09007ECF090080DF090083D
:1033A8003AF0900851F0120F3F121041120F637952
:1033B800001211CD9007CF74FFF0A3F0A3F0A3F093
:1033C800A3741FF0906012E4F0A3F0906063F075AE
:1033D8002100900489F09007D4F09007D5740CF080
:1033E8009007D6E4F09007D704F09007D8E4F0905F
:1033F80007D904F09007DAE4F090048BF0A3F0907A
:10340800048EF090048F04F09004A504F090085DF9
:10341800E4F0D2AFF90255FCC082C083900476E094
:103428008A828B83F0900477E08A828B83A3F09062
:103438000478E08A828B83A3A3F0900479E08A82DF
:103448008B83A3A3A3F090047AE08A828B83A3A33F
:10345800A3A3F090047BE08A828B83A3A3A3A3A3F6
:103468000255F9C082C0838A828B83E090047CF085
:103478008A828B83A3E090047DF08A828B83A3A346
:10348800E090047EF08A828B83A3A3A3E090047F5C
:10349800F08A828B83A3A3A3A3E0900480F08A829E
:1034A8008B83A3A3A3A3A3E09004810255F9C08250
:1034B800C083120E67E9700512116779000255FC86
:1034C80074F7121D3DEAFEEBFF8908120E67E970DA
:1034D8002CE508600A74016508600A7912801E7C70
:1034E80000790080047C007901EEFAEFFB12117379
:1034F800E9F87403687004790780027900023EA233
:1035080074F7121D3DEAFEEBFF8908120E67E97099
:103518002DE508600A7401650860087912801F7932
:103528000080027901EEFAEFFB121179E9F87404D0
:103538006860057405687004791F80027900023E8E
:10354800A274F7121D3DEAFEEBFF12116D023E9ABE
:1035580074F6121D3DEA4B6016EC4D6012740A12A7
:103568001D19E0F508A3E0F509E508450970047997
:1035780012800F7808121F50120FB17402121CE348
:103588007900023F1E74F4121D3DEAFEEBFF890824
:10359800900489E064096014E0640A600FE0640B39
:1035A800600AE0640C6005E0640D7004790C801E0C
:1035B80012106B8B0BEA450B700BA908EEFAEFFBA8
:1035C800120F9F800990048BE04440F0790D7F042E
:1035D800021E0F74F6121D3DEA4B6003E970047970
:1035E80012801CEAFEEBFF8908120F99E98E828F80
:1035F80083F0A3AE82AF831508E50870EC7900026A
:103608003F1E74F7121D3D8A828B83E04433F0A37A
:10361800A882A983E04433F08A828B83E0D2E6F063
:10362800EA2403FCEB3400FD8C828D83E0D2E4F0C5
:10363800EA2402FEEB3400FF8E828F83E044C0F060
:103648008C828D83E04403F08E828F83E0440FF0F8
:103658008A828B83E0448CF08C828D83E0D2E5F003
:1036680088828983E044CCF08C828D83E044CCF05E
:103678008E828F83E04430023E9FC082C083789C54
:10368800790488828983A3E08A828B83F08882897F
:1036980083A3A882A9838A828B83A3AA82AB83E8A7
:1036A80064A47003E9640470D90255FA74F7121D12
:1036B8003D7409121D19E0F8A3E0F99004A6E08A08
:1036C800828B83F09004A7E0FAA3E0FB8C828D83C1
:1036D800EAF0A3EBF09004A9E0FAA3E0FB88828962
:1036E80083EAF0A3EB023E9FC082C083E9F874012D
:1036F80068700B90085D7401F079000255FCE87061
:103708000690085DE480F1791280F074F7121D3D8F
:10371800C3EB940F5056C3EA9403EB9400504DEA60
:10372800F8EBF9E875F005A4C8ACF02CFC75F005C9
:10373800E9A42CF974BC28F582740439F583E06097
:1037480027EAF8EBF9E875F005A4C8ACF02CFC758D
:10375800F005E9A42CF974B928FE740439FF8E82A7
:103768008F83A3A3A3E07008790280457912804172
:10377800EE24ECF582EF3400F583E064017035EE59
:1037880024F2F582EF3400F583121F67EE24F0F57A
:1037980082EF3400F583121F67EE24EFF582EF34D1
:1037A80000F583E0FC7900120B257404121CE37900
:1037B80000023EA2EE24EDF582EF3400F583E070BE
:1037C80018790CEEFAEFFB120F15EE24EDF582EFE7
:1037D8003400F5837401F080D6793A80D474F712F6
:1037E8001D3DECFEEDFFEE4F6026EA600514601506
:1037F800801E120E55E9F88E828F83F074806870EF
:103808000A793080088E828F83E4F07900023EA224
:10381800791280F9C082C083E9FD8D82A882C3E451
:10382800940F40030238B9E8C3940340030238B93F
:10383800E875F005A4C8ACF02CF974BC28F58274BE
:103848000439F583E070047902806874B928F87443
:103858000439F9E8245DF582E93400F583E08A82C9
:103868008B83F0E8245EF582E93400F583E08A82F0
:103878008B83A3F0E8245FF582E93400F583E08ABE
:10388800828B83A3A3F0E82460F582E93400F583F2
:10389800E08A828B83A3A3A3F0E82461F582E9344C
:1038A80000F583E08A828B83A3A3A3A3F079008029
:1038B8000279120255FC74F7121D3D900489E064E8
:1038C8000C701290618EE0F9748069705E8C828D44
:1038D80083747F8062C3EB940F504CC3EA9403EB6C
:1038E80094005043EAF8EBF9E875F005A4C8AEF087
:1038F8002EFE75F005E9A42EF974BC28F58274042F
:1039080039F583E0700479028030EA75F005A4CABD
:10391800A8F028F875F005EBA428FB74212AF58295
:1039280074053BF583809F7912800F90048DE0F831
:10393800E9C3988C828D83F07900023EA274F71255
:103948001D3DE9FE74056E602374136E601E7414C9
:103958006E601974156E6014741A6E600F74296E97
:10396800600A743B6E60057912023A2AC3EB940F21
:10397800506AC3EA9403EB94005061EAF8EBF9E863
:1039880075F005A4C8ACF02CFC75F005E9A42CF979
:1039980074BC28F582740439F583E07004790280D8
:1039A8003DEA75F005A4CAA8F028F875F005EBA45F
:1039B80028FB74B92AFA74043BFBEA2469F582EB04
:1039C8003400F583E064017038EA246AF582EB3448
:1039D80000F583E064027008793A804679128042E3
:1039E800EA24F6F582EB3400F583EEF0EA241DF5BF
:1039F80082EB3400F583E4F0A3F07902120F218002
:103A08001FEA24F6F582EB3400F583EEF0EA241D74
:103A1800F582EB3400F583E4F0A3F07902120F1578
:103A28007900023EA274E8121D3D8A088B098917A5
:103A3800EC4D6014E9C3941C500E7418121D19E063
:103A4800FB600A74016B60057912023CC0C3E5098A
:103A5800940F5042C3EA9403E50994005038A8082B
:103A6800E875F005A4C8AAF02AFA75F005E509A4D6
:103A78002AF974BC28F582740439F583E070047956
:103A880002801574B928FE740439FF9007D5E070D8
:103A98000A7907023CC07912023CC0EC24FEFCED16
:103AA80034FFFD8C828D83E517F0EB70047402807F
:103AB800027401A3F0EC24FEFCED34FFFDEE246358
:103AC800FAEF3400FB120F879007D5E014F090044A
:103AD80089E064086008E064076003023CBE900463
:103AE800B7E065087002E5096003023CBE7900EEA4
:103AF800FAEFFB1225639061D0E07003023CBE90A0
:103B080007D9E064016003023CBEEE241DF582EF94
:103B18003400F583E0F8A3E0F9E8497003023CBEFD
:103B2800A2AFE433F516C2AF12106B8A148B1512CC
:103B380010EF8A0C8B0D8C0E8D0F8A088B098C0A5E
:103B48008D0B75100175110075120075130078083A
:103B58007910121AC57808121F4C851482851583AE
:103B6800A3A3121BA31229F97404121CE3E964012C
:103B78006003023CB8EE242EF582EF3400F583E0B2
:103B88002406F508A3E03400F509E4F50AF50B78F6
:103B98000C7908121AC5780C121F4C8514828515E9
:103BA80083A3A3121BA31229F97404121CE3E9646A
:103BB800016003023CB8E5142408F510E51534004B
:103BC800F511851082F583121F63AA0CAB0DAC0E9C
:103BD800AD0F122A527404121CE3EE242EF508EFDE
:103BE8003400F509850882F583121F671229A87425
:103BF80002121CE38A0C8B0D8C0E8D0F7410780C3E
:103C0800121A8D8E828F83A3A3A3A3A3A3A3A3A316
:103C1800E0F8A3E0F98E828F83A3A3A3A3A3E8F01F
:103C2800A3E9F0E8250CF8E9350DF98E828F83A316
:103C3800A3A3A3A3A3A3E8F0A3E9F08510828511A9
:103C480083C082C083850882850983E0F508A3E0E4
:103C5800F509780C790812199ED083D082780C1255
:103C68001AD87508FF7509FF750AFF780C790812CC
:103C78001B26851482851583A3A3E50CF0A3E50D07
:103C8800F0A3E50EF0A3E4F0EE2435F582EF34005E
:103C9800F583E0C0E0EE2434F582EF3400F583D0FC
:103CA800E0F0EEFAEFFB1221E6AA14AB1512104D64
:103CB800E516A2E092AF79007F10021E0F74F5128C
:103CC8001D3DE9FE8A098B0AC394284003023E2D54
:103CD800EAC394264003023E2DEB602D7401650A69
:103CE80060277402650A60217403650A601B740406
:103CF800650A60157405650A600F7406650A60092F
:103D08007407650A6003023E2D900489E060057916
:103D180021023DCA1210DD120E3D75E1F17A0179DA
:103D2800011211F17A297B417C767D7112115B7A3F
:103D380000EEF912120979001211D39004A5E0F9E6
:103D4800120E4F74022509F5D9850AD98509D9E5D6
:103D58000A602414606F14607D14602E14700302CE
:103D68003DEC147003023DFA147003023E0814700F
:103D780003023E19023E2DE509600F758291758395
:103D880081FFE0F5D9A31FEF70F875E195EE900477
:103D9800ABF0E509A3F0E50AA3F0A3E4F0A3F0A3D0
:103DA800F0A3F0A37480F09004897409F090618204
:103DB800E0D2E5F079191211BB7A007B001210C528
:103DC80079000251D3E50960C1F50875D90F1508C6
:103DD800E50860B680F5E50960B0FD75D9551DEDBB
:103DE80060A880F7E50960A2FC75D9FF1CEC609A11
:103DF80080F7E5096094FB75D9001BEB608C80F7B0
:103E0800E5096086FA75D9F01AEA7003023D9280D6
:103E1800F4E5097003023D92F875D9AA18E8700311
:103E2800023D9280F47912809974F7121D3DE9FEE3
:103E3800C39428400479128057900489E06004797B
:103E480021804D1210DD120E3D75E1F17A017900E5
:103E58001211F77A297B417C767D7112115B7A0009
:103E6800EEF912120979001211D3EE9004ABF0A307
:103E7800E4F0A374FFF0A3E4F0A3F0A3F0A3F0A38D
:103E88007480F0900489740AF079181211BB7900D3
:103E98008008E98E828F83F079007F01021E0F74FB
:103EA800F6121D3D900489E064096009E0640A6027
:103EB8000479218061E5E170FC75E101E064097035
:103EC800147AAE7B041211FD79051211D379007AA8
:103ED800007B00802FE0640A702D7508B275090414
:103EE8007808121F507CB07D047AAE7B041212034E
:103EF8007402121CE379051211D379019004AEE023
:103F0800FAA3E0FB120B3D120E37120E2B75E1F1EE
:103F1800900489E4F0F97F02021E0F74F6121D3D29
:103F2800EAFEEBFF8908740B121D19E0F509740C01
:103F3800121D19E0F8A3E0F9E508605F740165084F
:103F4800601574036508602F74026508602974049D
:103F580065086003023FFEE8497003023FFEE50979
:103F68006009740165096003023FFE740365086017
:103F780006740265087046EE2460FAEF34FFFBC34E
:103F8800EA9461EB943F506EEC2460FAED34FFFB49
:103F9800C3EA9461EB943F4024805BEE24E0FAEF9F
:103FA80034FFFBC3EA94E1EB943F504AEC24E0FA77
:103FB800ED34FFFBC3EA94E1EB943F5039C3EC9E28
:103FC800ED9F4032740A121D19E0FA600574016A07
:103FD8007024740F121D19E0FC600F74016C600AE4
:103FE80074026C600574036C700C740E121D19E079
:103FF800FB74075B7005791202415F9007E4E06487
:10400800017005790C02415FE5089007E7F0740735
:104018005BA3F0ECA3F0EA9007DD702FE4F09004C6
:1040280076E09007DEF0900477E09007DFF09004E8
:1040380078E09007E0F0900479E09007E1F09004D0
:104048007AE09007E2F090047B802E7401F09004EF
:104058007CE09007DEF090047DE09007DFF09004AC
:104068007EE09007E0F090047FE09007E1F0900494
:1040780080E09007E2F0900481E09007E3F074019B
:1040880065087053E5099007C8F088828983E09035
:1040980007C9F088828983A3E09007CAF0888289DB
:1040A80083A3A3E09007CBF088828983A3A3A3E02E
:1040B8009007CCF088828983A3A3A3A3E09007CDBF
:1040C800F088828983A3A3A3A3A3E09007CEF090EE
:1040D80007E5E4F0A3807D74046508704DE5099058
:1040E80007C8F088828983E09007C9F088828983AD
:1040F800A3E09007CAF088828983A3A3E09007CB46
:10410800F088828983A3A3A3E09007CCF0888289F2
:1041180083A3A3A3A3E09007CDF088828983A3A3F8
:10412800A3A3A3E09007CEF08023EC70047900806D
:104138001974016C70047901801074026C70047930
:1041480002800774036C7005790312117F9007E5EC
:10415800EEF0A3EFF07900023F1E74F6121D3DE960
:10416800FEC39420500BEE9007EDF06023EA4B70ED
:104178000479128023E0F5087509007808121F50A9
:10418800EAFCEBFD7AEE7B0712160B7402121CE3B5
:104198009007EC7401F07900023F1E74F0121D3D87
:1041A800E9FE900489E0640970030242CCE0640AE5
:1041B80070030242CCE0640B70030242CCE0640C52
:1041C80070030242CCE0640D70030242CC9007E712
:1041D800E0601664016012E06403600DE064026050
:1041E80008E06404600302433E9007DDE060076472
:1041F80001600302433E9007E7E064036005E06462
:104208000270109007E5C3E094A0A3E09400500367
:1042180002433EEE70030242D714600302433E900D
:1042280007E4E0640170030242CC9007E7E060090C
:1042380064016005E06404700B121077E954FD60B6
:10424800030242CC790112105F9007DBEAF0A3EB7E
:10425800F09007E47401F0900489E0706E1210EF9A
:104268008A088B098C0A8D0B750C03750D00750E69
:1042780000750F007808790C121AC5750CFF750DBA
:10428800FF750EFF7808790C121B269007DBE0F803
:10429800A3E0F5838882A3A37808121B949007DB18
:1042A800E0F8A3E0C82406F582E83400F583E4F0DA
:1042B800A3F0120E6DE960107ADB7B07121065908F
:1042C80007E4E4F0792180051210477900806B90AB
:1042D80007E4E060EFA2AFE433FFC2AF7ADB7B070D
:1042E8001210659007E4E4F012107DE97041121095
:1042F800DD906182E0C2E6F0E5E170FC75E10175F0
:1043080091BF75E1F190048FE0640170187A207B09
:1043180000900488E0F91216E97A207B009004885E
:10432800E0F912166B7A00900488E0F91216BFEFD4
:10433800A2E092AF8095791280937F08021E0F74D5
:10434800F7121D3DEAFEEBFF120E55E9F88E828F3B
:1043580083F07480687004793080027900023EA28C
:1043680074F6121D3DE9FEC39420500BEE90080D23
:10437800F06023EA4B700479128023E0F508750990
:10438800007808121F50EAFCEBFD7A0E7B08121623
:104398000B7402121CE39007EC7401F07900023FE1
:1043A8001E74F7121D3DE9FE600574016E704574B8
:1043B80009121D19E0FF600574016F7037EA24FCCB
:1043C800F8EB34FFF9C3E894FDE9943F5026EC2458
:1043D800FCF8ED34FFF9C3E894FDE9943F5015C3A8
:1043E800EA9CEB9D400E740A121D19E0F8600A74ED
:1043F80001686005791202449F90083AE0640170F0
:1044080005790C02449FEEA3F0E8900840F0EF9085
:104418000832702FE4F0900476E0900833F09004AE
:1044280077E0900834F0900478E0900835F0900434
:1044380079E0900836F090047AE0900837F090041C
:104448007B802E7401F090047CE0900833F0900497
:104458007DE0900834F090047EE0900835F09004F8
:104468007FE0900836F0900480E0900837F09004E0
:1044780081E0900838F090083CEAF0A3EBF0A3EC58
:10448800F0A3EDF0E8700479008007740168700506
:1044980079011211857900023EA274F0121D3DE9DE
:1044A800FEEAFF900489E064097003024612E064A2
:1044B8000A7003024612E0640B7003024612E064BD
:1044C8000C7003024612E0640D7003024612900855
:1044D8003BE06007640160030246AA900832E0608E
:1044E80007640160030246AA90083CE024FCF8A394
:1044F800E034FFF9C3E894FDE9943F40030246AA7B
:10450800A3E024FCF8A3E034FFF9C3E894FDE994A0
:104518003F40030246AA90083CC08290083EE0F85B
:10452800A3E0F9758308D082C3E098A3E09950030B
:104538000246AAEF600874016F60030246AAEE7093
:104548000302460C1460030246AA90083AE064018C
:104558007003024612790212105F900830EAF0A345
:10456800EBF090083A7401F0900839F0EF900841A8
:10457800F0900489E06003024607120E911210EFD2
:104588008A0C8B0D8C0E8D0F750810750900750A35
:1045980000750B00780C7908121AC57508FF7509A3
:1045A800FF750AFF780C7908121B26900830E0F88E
:1045B800A3E0F5838882A3A3780C121B949008309B
:1045C800E0F8A3E0C82406F582E83400F583E4F0B7
:1045D800A3F090083EE0F508A3E0F509E4F50A78B1
:1045E8000C7908121AC5900830E0F8A3E0C8240E28
:1045F800F582E83400F583780C121B941210477981
:104608000002434290083AE07004792180F3A2AF97
:10461800E433F508C2AF7A307B0812106590083A87
:10462800E4F012107DE970461210DD906182E0C25C
:10463800E6F0E5E170FC75E1017591BF79011211B1
:10464800C775E1F190048FE0640170187A207B004F
:10465800900488E0F91216E97A207B00900488E03B
:10466800F912166B7A00900488E0F91216BFE50873
:10467800A2E092AF900840E0640170061211A30214
:104688004607A3E064016003024607900840E06023
:10469800030246071211671211A379011211AF0222
:1046A8004607791202460974F7121D3D900489E005
:1046B80064076005790C024765EC4D700302476892
:1046C800C3EB940F4003024768C3EA9403EB9400DA
:1046D8004003024768EAF8EBF9E875F005A4C8AEAC
:1046E800F02EFE75F005E9A42EF974BC28F5827445
:1046F8000439F583E0700479028062EA75F005A454
:10470800CAA8F028F875F005EBA428FB74B92AFAB2
:1047180074043BFB7E008C828D83E0C0E0EEF8C31E
:10472800E498F895E0F9EA28F8EB39F9E824D1F5A6
:1047380082E93400F583D0E0F00E8C828D83A3AC3F
:1047480082AD83EEC3941040CDEA24D3F582EB34D6
:1047580000F5837401F07905120F157900023EA265
:10476800791280F9C082C083900489E064076005EB
:10477800790C024803C3EB940F5068C3EA9403EB27
:104788009400505FEAF8EBF9E875F005A4C8ACF0BE
:104798002CFC75F005E9A42CF974BC28F582740486
:1047A80039F583E0700479028051EA75F005A4CAEE
:1047B800A8F028F875F005EBA428FB74B92AFA7458
:1047C800043BFBEA24DCF582EB3400F583E064016A
:1047D8007015EA24F6F582EB3400F5837406F07957
:1047E80002801379128014EA24DDF582EB3400F597
:1047F800837406F0790D120F1579000255FC74E8E0
:10480800121D3D74FB121CCD7403121D19EAF0A38E
:10481800EBF07401121D19ECF0A3EDF0E985188294
:10482800851983F07429121D19E0FEA3E0FF742B8B
:10483800121D19E0F508A3E0F509900851E064019C
:1048480070030249F37904121071E96401700302DC
:1048580049F3900489E0640970030249F3E0640AAB
:1048680070030249F3E0640B70030249F3E0640C3F
:1048780070030249F3E0640D70030249F3740312F4
:104888001D19E024FCF8A3E034FFF9C3E894FDE91E
:10489800943F4003024B797401121D19E024FCF87F
:1048A800A3E034FFF9C3E894FDE9943F4003024BC9
:1048B800797403121D19C082C0837401121D19E096
:1048C800F8A3E0F9D083D082C3E098A3E09950031D
:1048D800024B79741E121D19E0F50AA3E0F50B8549
:1048E8001882851983E0600964016003024B7980AE
:1048F80009E50A450B7003024B79741D121D19E076
:10490800600764016003024B797420121D19E0608E
:104918000764016003024B79C3E5089EE5099F50CF
:1049280003024B797421121D19E0FAA3E0FBEA2473
:10493800FAF8EB34FFF9C3E8947BE9940C400302DE
:104948004B797423121D19E0F8A3E0F97423121DA2
:1049580019E8F0A3E9F07423121D19E024FAF8A36A
:10496800E034FFF9C3E8947BE9940C4003024B79E7
:104978007423121D19C3E09AA3E09B5003024B79DC
:104988007425121D19E0F8A3E0F97425121D19E821
:10499800F0A3E9F07425121D19C3E094F4A3E09480
:1049A800014003024B797427121D19E0F508A3E0B2
:1049B800F509E50824F6F8E50934FFF9C3E8947722
:1049C800E9940C4003024B797901121071E96401F2
:1049D800700F9007E7E060136401600FE064046003
:1049E8000A7940121071E9640170057921024DD6E7
:1049F80085080C85090D7403780C121CBAF50EF5A0
:104A08000F7425121D19E02401F514A3E03400F5F4
:104A180015E4F516F5177423121D19E0F8A3E0F94B
:104A2800E8C333F8E933F988108911E4F512F5136E
:104A38007814791012199E780C791412195F50693C
:104A4800120F5DE964017005793A024DD69004B6FB
:104A5800E060477423121D19E0FEA3E0FFEEC333A4
:104A6800FEEF33FF7AFF7BFF120F4B8A0C8B0D741E
:104A780003780C121CAB9004B6E0F8C3E50C98E57B
:104A88000D94004039C3EA9EEB9F5020EEF8EFF9F1
:104A9800121C428B0DEA450D7024851882851983F6
:104AA800E07020E50A450B701A024B79EAF8EBF939
:104AB800EEFAEFFB121C428B0DEA450D60DC793BE8
:104AC800024DD6120F338A0C8B0DAE0CAF0DEE4F84
:104AD80070057909024DD68E828F83A3A3A3A3E024
:104AE800900858F07403121D19E0F8A3E0F9900833
:104AF80052E8F0A3E9F07401121D19E0F8A3E0F9F7
:104B0800900854E8F0A3E9F0851882851983E090AD
:104B18000857F0EEF8EFF97ACF7B078A828B83E0AB
:104B2800C0E0E8245DF582E93400F583D0E0F08A3E
:104B3800828B83A3AA82AB8388828983A3A882A954
:104B480083EA64D47003EB640770D0EE245DFCEF55
:104B58003400FDEEFAEFFB120F27EE2436F582EF54
:104B68003400F583E0C39402500CEEFAEFFB120F09
:104B7800397912024DD6850A82850B83E09007C9E0
:104B8800F0850A82850B83A3E09007CAF0850A8224
:104B9800850B83A3A3E09007CBF0850A82850B835E
:104BA800A3A3A3E09007CCF0850A82850B83A3A377
:104BB800A3A3E09007CDF0850A82850B83A3A3A366
:104BC800A3A3E09007CEF07420121D19E0900849C5
:104BD800F07420121D19E0702D900476E090084AB8
:104BE800F0900477E090084BF0900478E090084C3F
:104BF800F0900479E090084DF090047AE090084E27
:104C0800F090047B802B90047CE090084AF090049C
:104C18007DE090084BF090047EE090084CF0900402
:104C28007FE090084DF0900480E090084EF09004EA
:104C380081E090084FF0741D121D19E09007C8F02C
:104C4800120F69EE2426F582EF3400F583121BAFAC
:104C5800120E01EE2422F582EF3400F583121BAF09
:104C68007423121D19E0F8A3E0F9EE242EF582EF63
:104C78003400F583E8F0A3E9F0EE2432F582EF344E
:104C880000F583E508F0A3E509F07425121D19E085
:104C9800F8A3E0F9EE2430F582EF3400F583E8F06C
:104CA800A3E9F0900859E0C0E0EE242AF582EF3439
:104CB80000F583D0E0F0EE242BF582EF3400F58385
:104CC8007402F0120F99E975F00C84E5F02405C020
:104CD800E0EE2437F582EF3400F583D0E0F0900859
:104CE800567425F09004B6E0C39402400579011289
:104CF800112B790412105F900847EAF0A3EBF090AB
:104D080008517401F0900847E0F8A3E0C82416F5AC
:104D180082E83400F58374B5F0A3740EF090084768
:104D2800E0F8A3E0C82414F582E83400F58374178A
:104D3800F0900489E06003024DD41210EF8A0C8BC6
:104D48000D8C0E8D0F7508A0750900750A00750B7E
:104D580000780C7908121AC57508FF7509FF750ADD
:104D6800FF780C7908121B26900847E0F8A3E0F5B5
:104D7800838882A3A3780C121B94900847E0F8A3B9
:104D8800E0C82406F582E83400F583E4F0A3F09047
:104D98000854E0F508A3E0F509E4F50A780C790869
:104DA800121AC5900847E0F8A3E0C8240EF582E877
:104DB8003400F583780C121B948E828F83A3A3A3EF
:104DC800A3E0F9120E97120E9D1210477900740590
:104DD800121CE3023CC0C082C083900851E0600806
:104DE8007904121071E97004790C8037900851E445
:104DF800F012107DE9702A90048FE0640170187A2F
:104E0800207B00900488E0F91216E97A207B009054
:104E18000488E0F912166B7A00900488E0F91216FB
:104E2800BF79000255FC74E8121D3D900489E064C6
:104E3800086005790C025084EC24FAF8ED34FFF987
:104E4800C3E8947BE9940C4003024F957418121D33
:104E580019E0F516A3E0F517E51624FAF8E5173476
:104E6800FFF9C3E8947BE9940C4003024F95C3E52E
:104E7800169CE5179D5003024F95741A121D19E0F0
:104E8800F8A3E0F9741A121D19E8F0A3E9F0741AEE
:104E9800121D19C3E094F4A3E094014003024F9556
:104EA800741C121D19E0FEA3E0FFEE24F6F8EF349F
:104EB800FFF9C3E89477E9940C4003024F95C3EBDC
:104EC800940F507EC3EA9403EB94005075EAF8EB14
:104ED800F9E875F005A4C8ACF02CFC75F005E9A458
:104EE8002CF974BC28F582740439F583E0700479D0
:104EF800028051EA75F005A4CAA8F028F875F005F3
:104F0800EBA428FB74B92AF51474043BF515E514D1
:104F1800246EF582E5153400F583E0600FE514246E
:104F28006AF582E5153400F583E06011E514247311
:104F3800F582E5153400F583E06401700A793A02D8
:104F4800508479120250848E088F097403780812ED
:104F58001CBAF50AF50B741A121D19E02401F51094
:104F6800A3E03400F511E4F512F513E516C333F8A0
:104F7800E51733F9880C890DE4F50EF50F781079EB
:104F88000C12199E7808791012195F4005791202DF
:104F980050849004B6E0C3940240528516088517E1
:104FA80009E508C333F508E50933F5097AFF7BFFFE
:104FB800120F4B8A0A8B0B7403780A121CAB9004ED
:104FC800B6E0F8C3E50A98E50B9400500302509C3C
:104FD800C3EA9508EB95094003025087A808A90978
:104FE800121C428B09EA4509600302509CE514240F
:104FF80076F582E5153400F5837402F0E51424771C
:10500800F582E5153400F583E4F0A3F0E5142430C7
:10501800F582E5153400F583E02407F8A3E03400B1
:10502800F9E5142474F582E5153400F583E8F0A356
:10503800E9F0E5142479F582E5153400F583E516E1
:10504800F0A3E517F0741A121D19E0F8A3E0F9E5CA
:1050580014247BF582E5153400F583E8F0A3E9F024
:10506800E514247DF582E5153400F583EEF0A3EF11
:10507800F07900AA14AB15120F157900023CC0EAAA
:10508800F8EBF9AA08AB09121C428B09EA4509702A
:1050980003024FF5793B80E474F5121D3DEAFEEBFF
:1050A800FF900489E064086005790C0251D3EE4F43
:1050B80060158E828F83A3A3A3A3E054E070081227
:1050C8000F2DE96401600579120251D3750A007A3F
:1050D800B57B0478B979048A828B83A3A3A3A3A39D
:1050E800A3A3E064017030E8246EF582E93400F58A
:1050F80083E0600FE8246AF582E93400F583E06410
:1051080001600FE8247FF582E93400F583E064014B
:105118007005793A0251D3050AE82405F8E9340103
:10512800F9EA2405FAEB3401FBE50AC3940340A726
:105138007ACF7B07EE2405F8EF3400F98E828F834F
:10514800E08A828B83F08E828F83A3AE82AF838ABC
:10515800828B83A3AA82AB83E86E7002E96F70DC4E
:10516800750A007508B57509047EB97F048508823B
:10517800850983A3A3A3A3A3A3A3E06401702BEED3
:105188002430F582EF3400F583E02407F8A3E034F7
:1051980000F9EE2480F582EF3400F583E8F0A3E906
:1051A800F07901EEFAEFFB120F15050AEE2405FE61
:1051B800EF3401FFE5082405F8E5093401F988080A
:1051C8008909E50AC3940340A479007F03021E0FEE
:1051D80074F3121D3D900489E064086005790C029F
:1051E80053E2EC4D6024740D121D19E0F50AA3E09A
:1051F800F50BE50A450B6012740F121D19E0F5084E
:10520800A3E0F509E5084509700579120253E2C3E0
:10521800EB940F40030252C5C3EA9403EB94004099
:10522800030252C5EAF8EBF9E875F005A4C8AEF038
:105238002EFE75F005E9A42EF974BC28F5827404D5
:1052480039F583E0700479028075EA75F005A4CA1F
:10525800A8F028F875F005EBA428FB74B92AFE74A9
:10526800043BFFEE24E3F582EF3400F583E0703968
:10527800EEF8EFF97A9C7B048A828B83A3E0C0E086
:10528800E824E4F582E93400F583D0E0F08A828BE3
:1052980083A3AA82AB8388828983A3A882A983EA8D
:1052A80064A47003EB640470CFEE24E4F582EF3459
:1052B80000F583E0A2E0400A79110253E279120274
:1052C80053E2EEF8EFF9EC2408FAED3400FB8C8297
:1052D8008D83E0C0E0E8249BF582E93400F583D0B3
:1052E800E0F08C828D83A3AC82AD8388828983A30E
:1052F800A882A983EA6C7002EB6D70D2850A828558
:105308000B83E0C0E0EE24A3F582EF3400F583D0F0
:10531800E0F0850A82850B83A3E0C0E0EE24A4F5C3
:1053280082EF3400F583D0E0F07C00A808A9098852
:10533800828983E0C0E0ECFAC3E49AFA95E0FBEED8
:105348002AFAEF3BFBEA24D1F582EB3400F583D04F
:10535800E0F00C88828983A3A882A983ECC3941007
:1053680040CDEE2493FAEF3400FB120FA5EE24870C
:10537800FAEF3400FB120FAB90048BE04480F0EEA0
:105388002462F582EF3400F583E4F0EE24D2F5824E
:10539800EF3400F583E4F0EE24D3F582EF3400F522
:1053A80083E4F0EE2482F582EF3400F583E06401B3
:1053B8007011EE24DCF582EF3400F5837401F07986
:1053C8000A800EEE24DCF582EF3400F583E4F079F0
:1053D80003EEFAEFFB120F1579007F05021E0FC0CE
:1053E80082C083900489E064086004790C8059C302
:1053F800EB940F5051C3EA9403EB94005048EAF839
:10540800EBF9E875F005A4C8ACF02CFC75F005E9DB
:10541800A42CF974BC28F582740439F583E070046F
:10542800790280247908EA75F005A4CAA8F028F85A
:1054380075F005EBA428FB74B92AFA74043BFB1237
:105448000F157900800279120255FC74EC121D3D8B
:1054580089088A0A8B0B12106B8A0C8B0DAE0CAF65
:105468000D1210EF8A0C8B0D8C0E8D0F850A82851C
:105478000B837401F0E508600A740165086004791B
:10548800128071EE4F604C780C121F4C8E828F8305
:10549800A3A3121BA31229F97404121CE3E9603AAE
:1054A80075100B751100751200751300780C121F1A
:1054B8004C8E828F83A3A3121BA3122A5274041248
:1054C8001CE38A0C8B0D8C0E8D0F7810790C121939
:1054D8005F4007A908120E498018E50890048B70F0
:1054E80005E044018003E04402F0850A82850B83CD
:1054F800E4F079007F0C021E0F74EC121D3D890840
:105508008A0A8B0B12106B8A0C8B0DAE0CAF0D1226
:1055180010EF8A0C8B0D8C0E8D0F850A82850B83FC
:105528007401F0E508601174016508600B74026588
:1055380008600579120255CFEE4F604C780C121FA7
:105548004C8E828F83A3A3121BA31229F974041211
:105558001CE3E9603A75100B75110075120075139C
:1055680000780C121F4C8E828F83A3A3121BA312E8
:105578002A527404121CE38A0C8B0D8C0E8D0F7842
:1055880010790C12195F4007A908120E4F8036E5F2
:1055980008600B14601014601514601A801F9004C2
:1055A8008BE04404801690048BE04408800E90043D
:1055B8008BE04410800690048BE04420F0850A823A
:1055C800850B83E4F079000254FCC082C083E9F8BB
:1055D8009007D4E0F9E8600E14700E7401F0E069E9
:1055E800700B79FF8009E480F479128002790080D9
:1055F80003F07900D083D08202011FC082C083E902
:10560800F890085EE07004790C800EE8600D147064
:105618001090048E7401F0790080D990048EE48093
:10562800F5791280F4C082C083E9F8900489E070AB
:105638001AE8600D14701090048F7401F0790080DE
:105648000C90048FE480F579128002790C80A5749F
:10565800F6121D3DEA4B6016EC4D6012740A121DDD
:1056680019E0F508A3E0F509E50845097004791281
:10567800800F7808121F50120FB77402121CE379BA
:1056880000023F1EC082C083EA4B70047912801664
:105698008A828B83E0A2E090049DE05004D2E080EF
:1056A80002C2E0F079000255FCC082C083E9600EB6
:1056B8001470119007D97401F079000255FC900715
:1056C800D9E480F4791280F3C082C083E9F89004A9
:1056D80089E064076004790C800EE8600E1470118C
:1056E8009007DA7401F079000255FC9007DAE4803B
:1056F800F4791280F374F7121D3DE9FFEAFEC394B2
:10570800285008EF600974016F60047912805B907B
:105718000489E06004792180511210DD120E3D7574
:10572800E1F17A297B417C767D7112115B74016FFE
:1057380070137A01EEF912120979001211D39061EF
:1057480090742480177A00EEF91212097907121161
:10575800D39061907404F09061E874FFF09004892C
:10576800740BF079041211BB7900023EA2C082C00A
:1057780083900489E06004792180671210DD120E9D
:105788003D75E1F17A0179011211F17A297B417CA9
:10579800767D7112115B9004ABE4F0FAF9121209EC
:1057A80079001211D375D92775D90075D925758255
:1057B80091758381E0F5D9A3E58264B67004E58329
:1057C800648170F075E195900489740DF0906182A0
:1057D800E0D2E5F079191211BB7A007B001210C5EE
:1057E80079000255FC74F7121D3DE9FEC394284068
:1057F8000479128037900489E060047921802D12A1
:1058080010DD120E3D75E1F17A297B417C767D71C0
:1058180012115B7A00EEF912120979001211D39075
:105828000489740CF079031211BB7900023EA2C0FE
:1058380082C083900489E0640B600EE0640C600908
:10584800E0640D600479218005120C6F790002551F
:10585800FCC082C083EA4B7005791202595090044B
:1058680089E06005790C0259508A828B83E0F470D4
:1058780060A3E0F4705B8A828B83A3A3E0F4705189
:105888008A828B83A3A3A3E0F470468A828B83A3C6
:10589800A3A3A3E0F4703A8A828B83A3A3A3A3A350
:1058A800E0F4702D900482E0900476F0900483E098
:1058B800900477F0900484E0900478F0900485E0F8
:1058C800900479F0900486E090047AF09004878040
:1058D80070900476E0900482F0900477E09004835E
:1058E800F0900478E0900484F0900479E0900485C6
:1058F800F090047AE0900486F090047BE0900487AE
:10590800F08A828B83E0900476F08A828B83A3E00E
:10591800900477F08A828B83A3A3E0900478F08ABE
:10592800828B83A3A3A3E0900479F08A828B83A35C
:10593800A3A3A3E090047AF08A828B83A3A3A3A3F2
:10594800A3E090047BF079000255FCC082C083C3B9
:10595800EA94F5EB940140057912025A24900489DF
:10596800E064086005E064077005790C025A24C3F6
:10597800EA9415EB940050089008597407025A19D4
:10598800EA24EBF8EB34FFF9C3E8940AE9940050F1
:105998000790085974068079EA24E1F8EB34FFF996
:1059A800C3E89414E994005007900859740580617D
:1059B800EA24CDF8EB34FFF9C3E89419E9940050D0
:1059C8000790085974048049EA24B4F8EB34FFF9C5
:1059D800C3E89419E994005007900859740380317A
:1059E800EA249BF8EB34FFF9C3E89432E9940050B9
:1059F8000790085974028019EA2469F8EB34FFF912
:105A0800C3E89464E9940090085950047401800133
:105A1800E4F09007EAEAF0A3EBF079000255FC7491
:105A2800F7121D3DE9FE906185E0F874016E701271
:105A3800E8C3940F5007740128F9120E3179000257
:105A48003EA2EE7007E860F574FF80EC791280EFF3
:105A580074F4121D3D74FC121CCD902D50E493F487
:105A68006004790C8049906185E0851882851983E6
:105A7800F07508007509FF750AFF750BFF780812A5
:105A88001B5F8518828519837808121B9475080195
:105A98007509007808121F507402121D19AC82ADE6
:105AA800837A547B0B12174F7402121CE37900742B
:105AB80004121CE30235D6C082C083E9F8600E7474
:105AC80001686009740268600479128007E890042C
:105AD800A5F079000255FC74F6121D3DE9FB74FF30
:105AE8006B700C90085A74FFF0A3E4F0F9804CEB4B
:105AF800600C146049147003025BA4025BE7EAC3FC
:105B080094084003025BE7E5AEC4540F54076A707B
:105B18000353AE7F750801750900EA7808121CBAAC
