:020000040000FA
:060000000201070227E3E4
:03002B00022C178D
:03003B00022C385C
:03004300022BF19C
:030053000228562A
:1000830002264FE5C754F84401F5C7790122000061
:100093000080FB120086B900030200F1E4792178A5
:1000A30008B800028004F709D8FCE479297802B87B
:1000B30000028004F709D8FCE49002817826790FC6
:1000C3008002F0A3D8FCD9FA7AA67B109001377886
:1000D3002B79028015E493A3AD82AE838A828B834E
:1000E300F0A3AA82AB838D828E83D8E9D9E7758288
:1000F300F47583DB7404120119758291758300749E
:100103000012011975D00075813F751881751902A8
:10011300759F00020096C09FF59FE473D09F22D085
:1001230083D082C09FE493C0E0740193C0E0740263
:1001330093F59F223B044D0477044104FF0000B470
:10014300000028002800283075A000A000A000A00F
:100153000000080008E001F000100010001000107B
:10016300001000100050005000500010001000D08C
:10017300070000000000000F0001000500307507B4
:10018300001000010081FF00000000FFDF05FD05F6
:10019300E505FF02020208025000A0000000E80388
:1001A30002A1820100004D82029D8201000005111F
:1001B30002AD82010000BA02029D82010000061115
:1001C30002A382010000D002029D820100000711F8
:1001D30002A582010000D202029D820100000811E3
:1001E30002A782080000D302029D820100000911C8
:1001F30002A9820100000A11FFFF0100FF2002A1F2
:10020300820100009882029D820100006F1102ABFF
:10021300820000000000029F82030000B403ED0F80
:10022300ED0FED0FED0FED0FED0FED0FED0FED0FEB
:10023300ED0FED0FED0FED0F21123F121B125F13A8
:1002430077135913FF544920424C4520416C6C00ED
:10025300000000000000000000001100FF00120178
:100263002233CE0412012270CE0412012286CE0460
:10027300120122B5CE04120122EBCE041201220296
:10028300CF0412012219CF041201224CCF04120110
:100293002283CF04120122D6CF04120122EDCF0410
:1002A30012012204D0041201221CD00412012233B1
:1002B300D00412012264D0041201229FD00412013F
:1002C30022C9D004120122F3D0041201220AD1045C
:1002D30012012221D10412012238D1041201226118
:1002E300D10412012274D1041201228AD104120111
:1002F300229DD104120122C4D10412012252AD0263
:1003030012012256AE0212012283AE02120122CE44
:10031300AE02120122D9AE02120122FCAE02120178
:100323002210AF021201223FAF0212012241AF029B
:1003330012012264AF021201226AB002120122AE3C
:10034300B10212012272B20212012247B302120158
:1003530022B8B30212012244B40212012247B402AA
:10036300120122CFB4021201220AB5021201227134
:10037300B50212012274B502120122ABB5021201B9
:1003830022D4B5021201227FB60212012209B7025A
:1003930012012258B70212012265B7021201226824
:1003A300B702120122C8B702120122CBB70212010F
:1003B3002204B8021201224FB802120122CEB8025F
:1003C300120122D1B8021201221BB9021201221E0C
:1003D300B90212012295B90212012298B90212013F
:1003E3002227BA021201222ABA02120122B9BA0240
:1003F300120122C9BA02120122F9BA02120122061B
:10040300BB0212012209BB021201228ABB021201A2
:100413002297BB0212012285BC0212012237BD02C0
:1004230012012211E50312012209E6031201223D02
:10043300E603120122BFE603120122DFE6031201E3
:100443002227E7031201227AE703120122DEE703E0
:100453001201226BE80312012225E903120122345F
:10046300EC03120122BFED03120122E2ED0312019C
:1004730022E3AA0412012280AC04120122D0AC04AC
:10048300120122A0AD04120122FFAD041201220DBC
:10049300AE0412012236AE041201220E8F041201A1
:1004A30022368F04120122648F041201229B8F04CF
:1004B300120122F98F04120122879104120122D220
:1004C30091041201221D92041201225D9204120171
:1004D30022A39204120122D192041201228E9304C8
:1004E300120122989304120122A59304120122D827
:1004F3009304120122A49404120122B09404120161
:1005030022C89404120122D29404120122509504A9
:100513001201220C7F001201221A7F0012012232E3
:100523007F001201224A7F00120122627F00120122
:100533002266CD0212012212CE021201228DCE02B8
:10054300120122AECF02120122EACF02120122844B
:10055300D0021201222DD10212012214D202120161
:100563002278D302120122CFD30212012250D402E5
:1005730012012240D5021201228DD502120122134B
:10058300D60212012245D60212012259D8021201C3
:10059300229BD802120122B9D8021201223CD902AD
:1005A30012012210DA02120122D8DA02120122E524
:1005B300DC02120122B5CF0312012288D0031201FB
:1005C3002231D1031201227DD10312012234D2033D
:1005D3001201224DD20312012267D2031201221704
:1005E300D303120122A3D3031201228FD4031201D6
:1005F30022BED403120122D1D50312012219D6033C
:10060300120122DAD6031201223ED703120122A1DC
:10061300D703120122D1D7031201224BD8031201AF
:1006230022EED9031201222ADA0312012246DA0347
:100633001201221DDA041201226BB304120122817A
:10064300B304120122A7B304120122C3B40412019A
:1006530022CDB40412012202B604120122FAB60416
:1006630012012204B704120122ACFA02120122DCA5
:10067300FB021201220FFC0212012259FC02120199
:100683002220FE021201220080021201227980023E
:10069300120122898002120122EB80021201227CC4
:1006A30081021201226282021201228E820212014F
:1006B30022CB8202120122E282021201226E830203
:1006C3001201227883021201228A8302120122C2BA
:1006D3008302120122258402120122848402120160
:1006E30022C78402120122D28402120122DD840273
:1006F3001201229485021201229785021201229A85
:1007030085021201229D8502120122A08502120197
:10071300228A8602120122ED86021201224F8702EB
:10072300120122ED87021201220D8902120122F425
:100733008A02120122AD8C02120122898D0212015A
:10074300223D8E021201227A910212012228920284
:10075300120122979302120122179502120122BE5F
:1007630095021201220796021201223E96021201FD
:1007730022DB9602120122669702120122FEDC029C
:1007830012012253DD02120122B2DE02120122C241
:10079300DE02120122EFDE021201224BDF021201FE
:1007A3002252E0021201221CE1021201227CE20227
:1007B300120122BFE20212012264E302120122B1FA
:1007C300E302120122D7E302120122E5E50212013C
:1007D30022EAE502120122EFE7021201223CE802BB
:1007E300120122AFE802120122E2E802120122847E
:1007F300E9021201222DEA0212012265EA02120124
:100803002268EA02120122B0EA02120122F2EA028B
:1008130012012249EB0212012299C404120122ACF3
:10082300C404120122BAC40412012202C504120133
:100833002218C5041201225FC50412012273C604E3
:1008430012012200C7041201224BC704120122F72E
:10085300D40112012207D5011201226AD501120126
:1008630022AFD50112012265D60112012240D70120
:1008730012012269D70112012299D701120122D94B
:10088300D901120122C0DB0112012298DD011201FC
:1008930022DCDE0112012243E10112012251E201B5
:1008A300120122A3E301120122ADE401120122EF9E
:1008B300E40112012227E50112012249E501120197
:1008C30022ACE5011201226EEA0112012208EB01BA
:1008D30012012246EB0112012265EB01120122BF34
:1008E300EB01120122BFEC0112012244ED011201BE
:1008F30022ABED01120122B5ED0112012259EE01E5
:100903001201229CEE01120122B0EE01120122E833
:10091300EE0112012231EF011201225AEF011201FD
:10092300229FEF01120122E8EF0112012210F001D0
:1009330012012299F00112012252F10112012268DF
:10094300F101120122A4F101120122CCF1011201E1
:100953002204F20112012237F2011201226EF20186
:100963001201228DF201120122B6F2011201222F8D
:10097300F30112012244F30112012259F30112017E
:10098300226EF301120122A3F301120122DDF3010E
:1009930012012201F401120122CAF401120122E020
:1009A300F401120122FFF40112012212F5011201D6
:1009B3002227F5011201223CF501120122B2F501B1
:1009C300120122C6F5011201221EF6011201222D87
:1009D300F60112012289F601120122C3F601120166
:1009E30022F8F60112012224F70112012252F70123
:1009F30012012285F7011201229AF701120122AF97
:100A0300F701120122DFF7011201222AF801120174
:100A13002289F801120122CAF80112012206F90102
:100A230012012231F901120122A0F901120122DD82
:100A3300F90112012208FA0112012238FA01120106
:100A43002263FA011201228DFA01120122C4FA0172
:100A5300120122F9FA0112012236FB01120122606E
:100A6300FB0112012290FB01120122BAFB011201C8
:100A730022E4FB011201220FFC0112012238FC01C6
:100A83001201228FFC01120122D1FC01120122FC6E
:100A9300FC0112012260FD011201228AFD011201F3
:100AA30022B5FD01120122E0FD0112012210FE0117
:100AB30012012259FE0112012283FE01120122A812
:100AC300FE011201222FFF01120122B6D6041201E8
:100AD3002209D704120122A8BD02120122D6BD02A7
:100AE30012012231BF0212012211C002120122306F
:100AF300C002120122ADC002120122F0C002120193
:100B0300226BC202120122DAC20212012205C502BD
:100B130012012289C7021201223AC80212012230AD
:100B2300C902120122D0C902120122CECA02120145
:100B33002228CC02120122B3CC0212012228CD02B8
:100B43001201227BD304120122E4D30412012238BE
:100B5300D4041201225AD40412012281D4041201B2
:100B630022B2D404120122D3D40412012276A604A1
:100B7300120122E3A6041201222AA704120122422F
:100B8300A8041201223EA90412012221AA0412017F
:100B9300220DEF031201224FEF0312012221F00372
:100BA300120122FAF003120122F4F103120122D6F8
:100BB300F2031201223FF303120122D6F3031201BF
:100BC30022F3F3031201220FF403120122B8F403F8
:100BD3001201222CF50312012298F5031201229B24
:100BE300F503120122C4F5031201223EF60312019A
:100BF30022D7F6031201223CF70312012251F70315
:100C030012012297F703120122B0F70312012215F2
:100C1300F80312012218F80312012260C104120121
:100C2300229CC104120122DAC104120122A4C204CB
:100C330012012213C3041201224EC3041201228C97
:100C4300C304120122BCC304120122E3C304120130
:100C53002251C404120122AC2C00120122072F00DE
:100C6300120122193200120122553200120122828E
:100C73003200120122743300120122BF3300120129
:100C8300220A34001201221C34001201225C3400B7
:100C93001201229D3400120122AC3400120122E120
:100CA30034001201222F35001201225E3500120199
:100CB30022D63500120122083600120122443600E2
:100CC3001201226736001201223937001201227005
:100CD3003700120122123800120122993800120142
:100CE30022813900120122193C00120122853D00A4
:100CF300120122FB3D00120122773E00120122B6AF
:100D03004000120122F740001201229B420012010F
:100D130022BC4200120122FD4200120122F64300CE
:100D2300120122034600120122C046001201225A78
:100D33004700120122324D00120122824D0012019E
:100D430022F44F001201222C51001201223B5300C6
:100D5300120122A753001201225554001201222628
:100D6300550012012257550012012281550012012C
:100D730022AB5500120122E0550012012205560054
:100D8300120122245600120122515600120122C9D7
:100D930056001201224157001201228B5700120103
:100DA30022AD5700120122A758001201227B5900DD
:100DB300120122AC5900120122135A0012012233EC
:100DC3005A00120122405B00120122A05B001201B3
:100DD30022835C00120122125D001201223D5D009C
:100DE300120122825D00120122C65D00120122154A
:100DF3005E00120122375E0012012239CA04120179
:100E030022EECB04120122D5AA03120122D3AB0393
:100E13001201226CB2031201228DB4031201225873
:100E2300B603120122C0B7031201228AAE011201D6
:100E33002239AF0112012266AF01120122ACAF01C8
:100E4300120122BEAF01120122F4B001120122529B
:100E5300B10112012277B101120122AEB1011201D7
:100E63002244B301120122BEB3011201220DB401C7
:100E730012012287B401120122E1B50112012241BC
:100E8300B70112012247B801120122A8B9011201C8
:100E930022FAB9011201226BBB01120122B0BD017A
:100EA300120122AABE01120122C3BE011201222194
:100EB300BF0112012240BF011201225FBF011201D3
:100EC3002262BF0112012293C0011201228BC101D0
:100ED30012012277C20112012259C3011201228C8D
:100EE300C301120122FCC3011201226EC4011201CB
:100EF30022E8C4011201223EC50112012219C601D2
:100F0300120122E3C601120122B8C701120122977E
:100F1300C80112012222C90112012290C901120142
:100F23002204CA011201222FCA01120122EECA01B0
:100F330012012242CB011201222FCE01120122788B
:100F4300CE01120122BBCE0112012234CF011201C4
:100F530022CCCF01120122BDD001120122E2D00125
:100F630012012228D10112012252D1011201229A27
:100F7300D10112012215D2011201226FD2011201F5
:100F830022D8D30112012286D401120122C7D4012F
:100F9300120122548E03120122A28E03120122AEE9
:100FA3008E031201228C8F03120122BD8F031201C3
:100FB30022EE8F031201226E9003120122EC9003A2
:100FC300120122249103120122769103120122B30A
:100FD3009103120122D09303120122F69503120109
:100FE30022E19703120122CB9903120122A12C00C3
:100FF300120122D89504120122239A0412012267B6
:101003009B04120122008003120122B88203120101
:1010130022BE82031201227885031201224588032E
:101023001201225CA10412012200A204120122D2A5
:10103300A204120122FCA2041201224AA5041201F5
:1010430022645E00120122AE5E00120122776F005D
:10105300120122FC70001201221F72001201229061
:1010630078001201228B7900120122C87900120143
:1010730022EB79001201222D7A00120122367A0026
:10108300120122407A001201222E7B001201222437
:101093007C00120122BD7C0012012243980212013E
:1010A30022429C02120122489C0212012283A302C3
:1010B3001201229CA80212012219BE04120122135A
:1010C300BF0412012287BF04120122C5BF0412010B
:1010D3002239C004120122B2C004120122BBC0048F
:1010E300120122C7C004120122DCC0041201221A19
:1010F300C10412012230C104120122008004120132
:10110300220D80041201222780041201226680042A
:10111300120122A480041201220981041201221E59
:101123008104120122298104120122368104120151
:10113300224D81041201225B81041201226A81047F
:101143001201227F81041201229481041201229F41
:101153008104120122AB8104120122B8810412011D
:1011630022C78104120122D28104120122F78104D1
:10117300120122FC8104120122968204120122FC34
:1011830082041201220C830412012221830412011E
:10119300223683041201225083041201226B83043A
:1011A3001201228883041201229383041201224F25
:1011B30084041201223B8504120122578504120183
:1011C300226E85041201227985041201228E850480
:1011D300120122A2850412012203860412012209AC
:1011E30086041201220F86041201221586041201BD
:1011F300222986041201225086041201228B8604BE
:10120300120122A48604120122E486041201221789
:101213008704120122BBDA03120122DDDA03120171
:1012230022BDDB0312012294DE03120122C0DF037D
:10123300120122E4E00312012296E1031201223794
:10124300E203120122AB9C031201222F9D03120120
:1012530022DE9D031201223D9F031201225EA103A0
:101263001201224AA2031201227FA203120122A128
:10127300A20312012250A30312012248A503120163
:101283002271A50312012203A60312012235A6032C
:1012930012012242A60312012299A603120122BFC0
:1012A300A6031201222CA9031201222FAA03120161
:1012B3002287AA0312012236EC0212012240ED0218
:1012C30012012227EE0212012231EE021201223B09
:1012D300EE021201225DEE0212012269EE021201F8
:1012E3002202F00212012231F0021201224DF10218
:1012F300120122A6F1021201220CF302120122EBC7
:10130300F30212012247F402120122B4F402120181
:1013130022EFF4021201222EF502120122E7F70254
:1013230012012201F8021201228DF8021201229BFE
:10133300F802120122F4F80212012202F902120148
:101343002275F902120122D9F90212012223FA02AB
:1013530012012287C403120122A9C403120122CF5E
:10136300C603120122E4C903120122FCCA031201BB
:1013730022AFCB0312012291CC03120122D6D10456
:10138300120122FBD1041201226DD2041201229414
:1013930087041201229D8704120122A687041201E9
:1013A300227D88041201222E8A04120122648A04F7
:1013B3001201229E8A04120122D48A041201220EEF
:1013C3008B04120122428B041201226E8B04120140
:1013D30022B78B04120122F18B041201223A8C04EE
:1013E300120122928C04120122C78C0412012222C0
:1013F3008D041201225C8D04120122AD8D041201B1
:1014030022E38D041201221D8E041201224B8E044D
:101413001201226E8E04120122EAB7031201221D69
:10142300B80312012260B8031201226BB803120140
:101433002276B80312012281B8031201228CB80369
:10144300120122F8BB03120122CBBC031201224575
:10145300BD03120122BCBD03120122C9BD03120147
:1014630022D6BD03120122E0BD03120122EABD030D
:1014730012012206BE0312012216BE0312012258D4
:10148300BE031201227EBE0312012288BE03120193
:101493002292BE031201229CBE03120122A9BE03A3
:1014A300120122B3BE03120122BDBE03120122C7E1
:1014B300BE03120122D1BE031201221BBF0312017C
:1014C3002238BF0312012255BF0312012265BF0355
:1014D3001201226FBF03120122CABF03120122D7D6
:1014E300BF031201229BC003120122A5C0031201F4
:1014F30022AFC003120122B9C003120122D6C003D6
:10150300120122F3C003120122B7C103120122C147
:10151300C103120122CEC103120122DBC103120156
:1015230022FCC10312012205C2031201222CC203B1
:1015330012012253C20312012278C2031201228133
:10154300C20312012290C203120122A8C203120194
:1015530022B1C203120122C0C203120122CFC2036D
:10156300120122D8C203120122E7C203120122F799
:10157300C20312012216C30312012223C303120161
:101583002230C30312012240C3031201224DC303BD
:101593001201225DC3031201226DC3031201227DD6
:1015A300C303120122AFC303120122B9C303120101
:1015B30022C9C303120122D9C303120122E6C303C2
:1015C3001201220BC40312012218C40312012228A0
:1015D300C40312012232C4031201223FC4031201C5
:1015E3002249C40312012259C40312012263C40312
:1015F3001201226DC4031201227DC4031201224D84
:10160300DC04120122AA9B04120122B49B041201DE
:1016130022F29B041201223B9C04120122759C04BA
:10162300120122CB9C04120122EC9C04120122F52C
:101633009C04120122409D04120122699D0412019F
:1016430022739D041201227D9D04120122E99D044F
:101653001201227F9E04120122C99E04120122F963
:101663009E04120122829F04120122C29F041201CE
:1016730022FA9F0412012219A00412012222A004BB
:10168300120122E8A00412012232A104120122262F
:10169300D90412012250DC0412012244CC041201A9
:1016A300227ACC04120122B0CC04120122F9CD0417
:1016B3001201228ADB04120122A0DB04120122AAF6
:1016C300DB041201224AAF041201225FAF041201AC
:1016D3002212B00412012252B0041201226BB00490
:1016E3001201229FB004120122ECB0041201222045
:1016F300B10412012262B1041201225EB304120189
:1017030022D3FF02120122FCFF02120122A1DA04FA
:10171300120122A5DC04120122E4DC041201220CD2
:10172300DD0412012216DB0412012226DB0412015E
:101733002238DB0412012281DB0412012222D804A5
:10174300120122A7D8041201220DD904120122FB8F
:101753007F001201220EB70412012225B7041201E1
:10176300229EB70412012273B80412012245BA045F
:10177300120122AABA041201223ABB04120122B8AE
:10178300BB0412012241BC04120122D6BC04120183
:101793002260BD041201226ABD0412012279BD0434
:1017A3001201228FBD04120122A2BD0412012202E2
:1017B300BE0412012216BE04120122B482011201D8
:1017C300222F8301120122D08301120122078501F6
:1017D3001201225686011201227686011201221F6E
:1017E30087011201225A8F011201224B9601120125
:1017F30022439F011201227CA00112012217AB0197
:10180300120122B6AB0112012270AD011201222E88
:10181300AE0112012267AE0112012257FF0112012C
:1018230022C2FF01120122CDFF01120122DDFF01BD
:10183300120122E8FF0112012219D50412012269C3
:10184300D504120122F2D50412012258D604120142
:101853002275C7041201229FC70412012265C8041E
:1018630012012240C904120122C7C9041201223CF9
:10187300F803120122F9F80312012234F9031201C9
:10188300225CF903120122BEF9031201220AFA03B0
:101893001201226AFA03120122FDFA03120122FC49
:1018A300FB031201228BFD031201220EFE03120120
:1018B3002275FE031201228CFE0312012296FF03FE
:1018C300120122D4FF03120122EEDC04E76670103A
:1018D3000809E766700A0809E76670040809E766FD
:1018E30022E066701008A3E066700A08A3E0667041
:1018F3000408A3E06622C3E7960809E7960809E708
:10190300960809E79622C3E09608A3E09608A3E0A9
:101913009608A3E09622C008C3E096F50808A3E062
:1019230096420808A3E096420808A3E0964508708B
:1019330001D3D00822080808EAC0E0EBC0E086F033
:10194300E7A4FA180986F0E7A42AFA180986F0E74B
:10195300A42AFA180986F0E7A42AFA1986F0E7A45C
:10196300FBE5F02AFA190886F0E7A42BFBE5F03A29
:10197300FA190886F0E7A42BFBE5F03AFA181809E0
:1019830086F0E7A4C5F02BFBE43AFA1908E7C5F0A3
:10199300C6A426F6E5F03BFBE43AFA1886F0E7A482
:1019A300F6E5F00826F6E43B08F6E43A08F6D0E05C
:1019B300FBD0E0FA22E4CFC0E0E4CEC0E0E4CDC047
:1019C300E0E4CCC0E075F020E626F608E633F6083E
:1019D300E633F608E633F6181818EC33FCED33FD5E
:1019E300EE33FEEF33FFC3EC9709ED9709EE97094A
:1019F300EF97191919400FFFEC97FC09ED97FD09B3
:101A0300EE97FE191906D5F0BFECF709EDF709EECD
:101A1300F709EFF7191919D0E0FCD0E0FDD0E0FE8B
:101A2300D0E0FF226016080808C6C313C618C61301
:101A3300C618C613C618C613C6D5E0EA227009082D
:101A43000808226016181818C6C333C608C633C65A
:101A530008C633C608C633C6D5E0EA22E627F60829
:101A630009E637F60809E637F60809E637F622E00D
:101A730026F608A3E036F608A3E036F608A3E03618
:101A8300F622E026F008A3E036F008A3E036F008DB
:101A9300A3E036F022C3E697F60809E697F60809AD
:101AA300E697F60809E697F622C3E096F008A3E066
:101AB30096F008A3E096F008A3E096F022E657F626
:101AC3000809E657F60809E657F60809E657F62225
:101AD300E056F608A3E056F608A3E056F608A3E09E
:101AE30056F622E056F008A3E056F008A3E056F0BD
:101AF30008A3E056F022E046F608A3E046F608A362
:101B0300E046F608A3E046F622E667F60809E6672C
:101B1300F60809E667F60809E667F622E0F608A381
:101B2300E0F608A3E0F608A3E0F622E6F008A3E651
:101B3300F008A3E6F008A3E6F022E0FAA3E0FBA393
:101B4300E0FCA3E0FD22EAF0A3EBF0A3ECF0A3EDAD
:101B5300F022E0F8A3E0F9A3E0FAA3E0FB22E8F027
:101B6300A3E9F0A3EAF0A3EBF022CAC0E0E6F0A3F6
:101B730008DAFAD0E0FA22CAC0E0E0A3C582CCC5F5
:101B830082C583CDC583F0A3C582CCC582C583CD71
:101B9300C583DAE6D0E0CA22C3E498F8E499F912DF
:101BA3001BDC8026C3E49AFAE49BFBE920E7E912F5
:101BB3001BDCE498F8E499F922C3E498F8E499F972
:101BC300121BDCE498F8E499F9C3E49AFAE49BFB6A
:101BD30022EB20E7CFE920E7E0B90010BB0008E8DB
:101BE3008AF084F8AAF022E4FBC8FA22EB70227B85
:101BF30010C833C8C933C9335007C39AC3DBF28053
:101C0300069A50012ADBEAC833F4C8C933F4C9FA87
:101C13002275F008E4C833C8C933C933C99AC99BCC
:101C23005004C92AC93BD5F0ECFBC833F4C8E4C956
:101C3300FA22600D08C6A2E713C618C613C6D5E07C
:101C4300F322600C08C6C313C618C613C6D5E0F446
:101C530022700422600D18C6C333C608C633C6D526
:101C6300E0F41822251810AF08F518400C15198058
:101C730008F51840021519D2AF2200C0D02518105C
:101C8300AF08F518500C05198008F518500205190E
:101C9300D2AFD0D0222518F58210AF08F518400C2A
:101CA30015198008F51840021519D2AF851983223A
:101CB3002518F582E43519F583222518F8E435193A
:101CC300F9222518FAE43519FB222518FCE4351905
:101CD300FD22E4732518C582C0E0E51934FFC583EE
:101CE300C0E0E518C3958224F810AF0885831985F1
:101CF30082188008858319858218D2AFCEF0A3E5B8
:101D030020F0A37808E608F0A3DEFAEFF0A3E5815C
:101D130024FAF8E608F0A3E608F0A3E608F0A3081F
:101D230008E608F0A3E608F0A315811581D0E0FECC
:101D3300D0E0F8158115811581E8C0E0EEC0E022FE
:101D43002518C582C0E0E51934FFC583C0E0E51856
:101D5300C3958224F910AF088583198582188008FA
:101D6300858319858218D2AFCEF0A3E520F0A3783E
:101D730008E608F0A3DEFAEFF0A3E58124FBF8E61A
:101D830008F0A3E608F0A30808E608F0A3E608F0C5
:101D9300A315811581D0E0FED0E0F815811581E807
:101DA300C0E0EEC0E022851983851882E0A3FEE03F
:101DB300A3F5207808E0A3F608DFFAE0A3FFE0A389
:101DC300C0E0E0A3C0E0E0A3C0E0E0A3C0E0E0A384
:101DD300C0E010AF088582188583198008858218B2
:101DE300858319D2AFD083D08202011F85198385E1
:101DF3001882E0A3FEE0A3F5207808E0A3F608DF4D
:101E0300FAE0A3FFE0A3C0E0E0A3C0E0E0A3C0E0EA
:101E1300E0A3C0E010AF0885821885831980088588
:101E23008218858319D2AFD083D08222C0D02518DF
:101E3300C582C0E0E51934FFC583C0E0E518C3954A
:101E43008224F310AF08858319858218800885835F
:101E530019858218D2AFC8F0A3E9F0A3EAF0A3EB87
:101E6300F0A37908E709F0A3D8FAECF0A3EDF0A307
:101E7300EEF0A3EFF0A3D0E0F0A3D0E0F0A3D0E026
:101E8300F0A3E520F0A3E5F0F0A3228519838518DC
:101E930082E0C0E0A3E0F9A3E0FAA3E0FBA37808A3
:101EA300E0F608A3DFFAE0FCA3E0FDA3E0FEA3E075
:101EB300FFA3E0C0E0A3E0C0E0A3E0F5D0A3E0F51A
:101EC30020A3E0A3F5F010AF08858319858218805D
:101ED30008858319858218D2AFD082D083D0E0F8E9
:101EE300D0E03274048006740280027401C0E0F40E
:101EF30004121C98D0E0121B6D2274048004740237
:101F03008000CCC0E0EDC0E0E518C39CCCAD195017
:101F1300011D10AF068C188D1980068C188D19D2EF
:101F2300AF121B7AD0E0FDD0E0FC22D083D082C573
:101F3300F0E493A3C5F0C395F0F5F0E493A3C39540
:101F4300F04005E5F0048001E475F002A42582F574
:101F530082E5F03583F583E493A3C0E0E493C0E026
:101F630022D083D082E9C0E0E493A3C386F0C5F016
:101F730095F0F908E493A386F0C5F095F0700BE4AF
:101F830093A3C3994005E9048002A3E475F002A476
:101F93002582F582E5F03583F583D0E0F9E493A358
:101FA300C0E0E493C0E022D083D082CCC0E0E493CD
:101FB300A36006121FD41470FAE493A36006121FE1
:101FC300F31470FAD0E0FCE493A3C0E0E493C0E020
:101FD30022C0E0E493A3D39C5010E493A3C39C409A
:101FE3000AD0E0D0E0D0E0021FC7A3A3A3D0E02231
:101FF300C0E0E493A36C7009D0E0D0E0D0E0021F0E
:10200300C7A3A3D0E022D083D082ECC0E0EDC0E030
:10201300E493A3FCE493A3FDED4C600D122055EC77
:1020230024FFFCED34FFFD80EFE493A3FCE493A3D2
:10203300FDED4C600D122094EC24FFFCED34FFFD0C
:1020430080EFD0E0FDD0E0FCE493A3C0E0E493C0D4
:10205300E022C0E0C3E49396087401939618400FFE
:10206300E49366700808740193661870007019A3EE
:10207300A3C3E49396087401939618A3A3400DD0C9
:10208300E0D0E0D0E0022045A3A3A3A3A3A3D0E024
:1020930022C0E0C0F088F0E49366700808740193EE
:1020A30066187000A8F0A3A3700BD0F0D0E0D0E0C6
:0C20B300D0E0022045A3A3D0F0D0E02232
:1020C00074F5121D43EAFEEBFFEE2434F8EF340002
:1020D000F988088909EE2435F582EF3400F583E0AC
:1020E000F8EE2437F582EF3400F583E0F50AEC854D
:1020F0000AF0A4FCAAF0850AF0EDA42AFDE82CF869
:10210000E43DF97A257B00121BDCEA85088285090B
:1021100083F0F8740758F97401B900028004C333DE
:10212000D9FCFAE8131313541FF8EE28F8EF340023
:10213000F9E8245DF582E93400F583E05A6008EEA1
:102140002434F582EF802CEE2434F582EF3400F550
:1021500083E0C0E0EE2436F582EF3400F583E0F54D
:10216000F0D0E084A8F0EE28F8EF3400F9E8243845
:10217000F582E93400F583E0F97F04021DEF74F580
:10218000121D43EAFEEBFFEE2434F582EF3400F536
:1021900083E0C0E0EE2435F582EF3400F583D0E033
:1021A000F08E828F83A3A3A3A3A3A3A3C082C08323
:1021B0008E828F83A3A3A3A3A3E0F8A3E0F9D08327
:1021C000D082E0C398F508A3E099F509EE247FF5E5
:1021D00082EF3400F583E064017069EE2480F582BB
:1021E000EF3400F583E0F8A3E0F98E828F83A3A398
:1021F000A3A3A3A3A3E0FCA3E0FD8E828F83A3A3EC
:10220000A3A3A3E0FAA3E0FBC3EA9CEB9D5010C399
:10221000EC98ED99402EC3EA98EB995027800EC3B5
:10222000EA98EB994007C3EC98ED9940177CCF7D75
:1022300007EEFAEFFB120F27EE247FF582EF340052
:10224000F583E4F0EE2434F8EF3400F9E8FCE9FD1E
:10225000EE2435F582EF3400F583E0F8EE2437F50F
:1022600082EF3400F583E0F50AE508850AF0A4F56D
:1022700008AAF0850AF0E509A42AF509E82508F876
:10228000E43509F97A257B00121BDCEA8C828D8308
:10229000F0F8740758F97401B900028004C333D907
:1022A000FCFAE8131313541FF8EE28F8EF3400F982
:1022B000E8245DF582E93400F583E05A6008EE24F5
:1022C00034F582EF802CEE2434F582EF3400F58370
:1022D000E0C0E0EE2436F582EF3400F583E0F5F05F
:1022E000D0E084A8F0EE28F8EF3400F9E82438F5BF
:1022F00082E93400F583E0F9122BDD022179C082F6
:10230000C083851882851983E0F8A3E0F9C3EA9CAD
:10231000EB9D5010C3EC98ED99401BC3EA98EB99E4
:102320005014800EC3EA98EB994007C3EC98ED99DE
:102330004004790180027900D083D08222EAC39CD4
:10234000FAEB9DFB2274EF121D43900489E06408B0
:102350006005E06407702A9061C8E060249004B7CB
:10236000E0F4601DE0F875F005A4C8AAF02AF9743D
:10237000B928FE740439FF8E828F83A3A3A3E07073
:1023800003022475906060E0C0E0EE2468F582EFFF
:102390003400F583D0E0F0750C62750D0875080007
:1023A000750900E5D914F50AE5D95403F50E60174F
:1023B0007403650E605CE50A6010EE2467F582EF39
:1023C0003400F583E0700302245A90085DE0640154
:1023D000602AEE2482F582EF3400F583E060047811
:1023E0000480027800850A08E508C398FA95E0FBA6
:1023F000120C698A088B09EA450970051211DF8001
:1024000074EE2482F582EF3400F583E070048A0CC8
:102410008B0DE50A6012850C82850D83F50BE5D9DD
:10242000F0A3150BE50B70F6EE2482F582EF340075
:10243000F583E0604474FC250AF50A780C121EEA64
:10244000AC0AA90EEEFAEFFB120FE77402121C7D24
:10245000E97026AA08AB0912183F793D8E828F8356
:10246000A3A3A3A3E0FA7B00120B13EEFAEFFB1277
:102470000F511210477900807D7403650E605685F8
:102480000A107511007810121EEAAC0CAD0DAA08E6
:10249000AB09120FC37402121C7DEE2468F582EFA3
:1024A0003400F583E064807004747F8001E0F50CF3
:1024B000780C121EEEE50EF50C780C121EEEA90A31
:1024C000AC08AD099004B7E0FA7B00120AD174029F
:1024D000121C7D801C900489E06408AC0CAD0D706A
:1024E00009EEFAEFFB1210178007EEFAEFFB12105D
:1024F000AD1211EB79017F0A021DEF74F5121D4335
:1025000074FC121C67EAFEEBFF8908A2AFE433F506
:1025100009C2AF806AEE2463F8EF3400F97A007BD9
:1025200000A2AFE433F50AC2AF88828983E0FCA33E
:10253000E0FDEC4D603A88828983E0FAA3E0FB8AF3
:10254000828B83E0FCA3E0FD88828983ECF0A3ED1D
:10255000F08A828B83E4F0A3F088828983E0FCA375
:10256000E0FDEC4D700A88828983A3A3E4F0A3F018
:10257000E50AA2E092AF12183F9007D6E004F0EE11
:102580002463F582EF3400F583E0F8A3E0F9E8492D
:10259000603DEE2463F582EF3400F583E02402FA17
:1025A000A3E03400FBEA2402F50AEB3400F50B78D3
:1025B0000A121EEA8A828B83E0FCA3E0F9EEFAEFAE
:1025C000FB120F817402121C7DE970030225159025
:1025D00007D6E060639007D7E0F89007D6E0C3988D
:1025E000500C7402650870509007D8E0604A8E82E3
:1025F0008F83A3A3A3A3E0851882851983F0A3E4A6
:10260000F09007D6E0F87402121CB3E8F0A3E4F0EF
:102610009007D6E0F89007D5E028F07402121CB3BA
:10262000AC82AD83851882851983AA82AB83790138
:10263000120ADD9007D6E4F0E509A2E092AF740437
:10264000121C7D02217900008521878522C622C0C7
:10265000E0C0D0E8C0E0E9C0E0EAC0E0EBC0E0ECF8
:10266000C0E0EDC0E0EEC0E0C008C009C00AC00B89
:10267000C082C083C0F0A2AFE433FEC2AF759B003E
:10268000906182E0A2E05012E591A2E0500C7591B9
:10269000FE740165217003122345E0A2E55051E567
:1026A00091A2E5504B7591DF900489E064076005C5
:1026B000E06408702374016521703579019004B7D6
:1026C000E0FA75F005A4CAA8F028FB74B92AFA74D8
:1026D000043BFB1224FB8018E0640D70139004ABE4
:1026E000E004F064287002E4F07A00E0F9121209C4
:1026F000906182E0A2E64003022796E591A2E640BF
:10270000030227967591BF900489E0640570081252
:1027100010D71210E380031210DD75210012114949
:10272000E990048AF0790012112B120E437A017B92
:1027300000900488E0F9121665907803E064427016
:1027400055900861E014F0704DC2AF12274E00782A
:102750002AD0E0F618D0E0F6E59F54077005750919
:10276000FF800375097FC4C0E07829E6F50808E614
:102770005509F509740B7808121C45D0E02508F8B6
:10278000906270E0A2E740F8E8C333906272F09084
:102790006270E0D2E0F0906181E0A2E35009E5E9E7
:1027A000A2E3500375E9F7A3E0A2E75009E591A27F
:1027B000E7500375917FEEA2E092AFD0F0D083D0C6
:1027C00082D00BD00AD009D008D0E0FED0E0FDD0F6
:1027D000E0FCD0E0FBD0E0FAD0E0F9D0E0F8D0D0D7
:1027E000D0E032C0E0C0D0C082C083906183E0A25C
:1027F000E05009E5BFA2E0500375BFFEE0A2E15042
:1028000009E5BFA2E1500375BFFDE0A2E25009E572
:10281000BFA2E2500375BFFBE0A2E35009E5BFA2EF
:10282000E3500375BFF7E0A2E45009E5BFA2E4500E
:102830000375BFEFE0A2E55009E5BFA2E5500375BF
:10284000BFDFE0A2E65009E5BFA2E6500375BFBFB7
:10285000D083D0828088C0E0C0D0E8C0E0E9C0E08A
:10286000EAC0E0EBC0E0ECC0E0EDC0E0C0F0E5A7FE
:10287000A2E6500FE5A1A2E6500953A7BF75A1BF7C
:102880001228BBE5A7A2E5500CE5A1A2E55006532E
:10289000A7DF75A1DFE5A7A2E15009E5A1A2E150FC
:1028A0000375A1FDE5A7A2E2500CE5A1A2E2500646
:1028B00053A7FB75A1FBD0F00227CC74F8121D437F
:1028C000752101900489E06406701512106B8A82EC
:1028D0008B83A3A3A3A3A3A3E0FAA3E0FB1210C5D9
:1028E000A2AFE433FED2AF90048FE0640170187A97
:1028F000207B00900488E0F91216E97A207B009092
:102900000488E0F912166B906182E0D2E6F090083C
:102910005EE0602185C622801690048EE06401701E
:1029200008E5C654F84405F5C653BEFC12264874A3
:1029300001652160E4EEA2E092AF7F01021DEF008D
:102940008E238F2485822885832785188285198385
:10295000E0CEA3E0CF852882852783EBC9EAC8EDC6
:10296000CBECCA75F010C3E833C8E933C9EA33CAFF
:10297000EB33CBC3EA9EF526EB9FF525B35004ABB2
:1029800025AA26EC33CCED33CDD5F0DAAE23AF2437
:102990002274ED121D438A088B098C0A8D0B741367
:1029A000121CB3780C121B1F7808790C1218F975D9
:1029B00010017511C875120075130050127808794E
:1029C0000C121A98781079081218F950168010789D
:1029D0000C7908121A987810790C1218F9400479B9
:1029E00001800279007F0C021DEF74ED121D438AF5
:1029F000088B098C0A8D0B7413121CB3780C121BF4
:102A00001F780C79081218F940117808790C121AFD
:102A100098AA08AB09AC0AAD0B802275100075119D
:102A2000007512007513017810790C121A9878103D
:102A30007908121A5FAA10AB11AC12AD1380A68AE6
:102A4000828B837508FF7509FF750AFF750B007887
:102A500008121AE67F04021DEF74F5121D438C82E2
:102A60008D837808121B1F8A828B837808121AAC18
:102A7000EA2404F8EB3400F98C828D83A3A3A3A38A
:102A8000E0FCA3E0FD88828983C3E09CF0A3E09D85
:102A9000F088828983C3E09420A3E0944E40268A84
:102AA000828B837508FF7509FF750AFF750BFF7828
:102AB00008121A858A828B83A3A3A3A3E02420F0A3
:102AC000A3E0344EF0022A3F74F5121D43E9FE9054
:102AD00007EAE0FAA3E0FBEEC333F8E433F974133A
:102AE00028F582748239F583E02AF508A3E03BF5E6
:102AF000097808121EEA7A407B427C0F7D00122979
:102B0000407402121C7D8A088B098C0A8D0B74108C
:102B10007808121A27AA08AB097F04021DEF74F186
:102B2000121D438A0C8B0D8C0E8D0F740F121CB36B
:102B3000E0FAA3E0FB7411121CB3E0F508A3E0F582
:102B4000097808121EEAEA2401F508EB3400F509B9
:102B5000E4F50AF50B780C790812193875087175C7
:102B60000902780C7908121938AA0CAB0DAC0EAD1D
:102B70000F1229407402121C7D8B09EA450960047A
:102B80007A0180027A00EC2AFCED3400FD74131205
:102B90001CB3E0F8A3E0F9E8FEE9FFECF8EDF97A00
:102BA000717B02121BDC880889098E828F8378086A
:102BB000121B2EECF8EDF97A717B02121BDC8A08ED
:102BC0008B0974057808121C548E828F83A3A3A3EB
:102BD000A3E508F0A3E509F07F08021DEFC082C05D
:102BE00083E9906000F0D083D08222C2AF0200005F
:102BF00022C0E074F2121E2FA2AFE433FED2AFC2A5
:102C0000C0E5D1A2E4500653D1EF1217B5EEA2E011
:102C100092AF7F01021E8EC0E0C0D0E8C0E0E9C0E4
:102C2000E0E5A8D2AFC2C7A2E7A2E792AFD0E0F931
:102C3000D0E0F8D0D0D0E032C0E0C0D0E8C0E0E9C9
:102C4000C0E0C008C009C082C083A2AFE433F9D29B
:102C5000AF900FD2E0F8A3E0687008539AFBA3741A
:102C6000018025C2E9900FD2E0F50874012508F033
:102C700074522508F582E4340FF583E0F5C1900F16
:102C8000D2E0C394804002E4F0E9A2E092AFD083A6
:102C9000D082D009D008D0E0F9D0E0F8D0D0D0E090
:102CA0003202011FFFFFFFFFFFFFFFFF74F4121C42
:102CB000D7E9900488F01210FB907800E0C4540F1C
:102CC000540764037004793F8002797F75080675A4
:102CD00009007808121EEA7C767D047AEA7B0712E6
:102CE000173D7402121C7D900476E0F47049A3E055
:102CF000F47044A3E0F4703FA3E0F4703AA3E0F46E
:102D00007035A3E0F4703090780EE0900476F09087
:102D1000780FE0900477F0907810E0900478F090CD
:102D20007811E0900479F0907812E090047AF090B5
:102D30007813E090047BF090047C74FFF0A3F0A380
:102D4000F0A3F0A3F0A3F0900476E0900482F0905A
:102D50000477E0900483F0900478E0900484F0908D
:102D60000479E0900485F090047AE0900486F09075
:102D7000047BE0900487F09004A67406F0A3740D21
:102D8000F0A3E4F0A37440F0A37401F09007DE74A4
:102D9000FFF0A3F0A3F0A3F0A3F0A3F09007DDE40D
:102DA000F09007E4F0A374A0F0A3E4F0A37403F0A0
:102DB000A37407F0A3E4F0A37428F0A3E4F0A30441
:102DC000F0A3E4F090080DF090083374FFF0A3F046
:102DD000A3F0A3F0A3F0A3F0900832E4F090083938
:102DE00004F0A3E4F0A3F0A37480F0A37402F0A3B2
:102DF0007480F0A37402F0A3E4F0A304F0A3F0A3A2
:102E0000E4F0A37425F0A3E4F0A3F090084A74FF63
:102E1000F0A3F0A3F0A3F0A3F0A3F0900849E4F02E
:102E200090085004F0A3E4F0A37480F0A37402F0BF
:102E3000A37480F0A37402F0A37425F0A3E4F0A3BC
:102E4000F0A37405F090085A74FFF0A3E4F0900822
:102E50005CF090085E04F090085F7490F0A3740139
:102E6000F0120E5B120C6F1210B979017A617B08B7
:102E7000120F9F900861E075F01484E5F004F0797A
:102E80000C7A827B08120F9F120FBD7A0090048883
:102E9000E0F91216BF907803E06442705590086123
:102EA000E014F0704DC2AF122EAA00782AD0E0F6DE
:102EB00018D0E0F6E59F540770057509FF8003758B
:102EC000097FC4C0E07829E6F50808E65509F50948
:102ED000740B7808121C45D0E02508F8906270E069
:102EE000A2E740F8E8C333906272F0906270E0D2DB
:102EF000E0F09004B3E4F0A3F07A80FB900488E063
:102F0000F912166502352A74F4121CD7EAFEEBFF9B
:102F1000EEA2E0504590048AE0C39480E0500FC3D5
:102F200033F8E433F9749028F5827411800EF4C3F9
:102F300033F8E433F9749E28F582741139F583E08F
:102F4000F8A3E0F5838882121CD57A00900488E00B
:102F5000F91216BFEE640102320D54087003022FFD
:102F6000F4900858E0F875F005A4C8AAF02AF9749E
:102F7000B928FA740439FB7508007808121EEEEAC5
:102F80002432F582EB3400F583E0F508A3E0F5097F
:102F900074047808121C457808121EEAEA2430F5F9
:102FA00082EB3400F583121F01EA242EF582EB3404
:102FB00000F583E0F508A3E0C313F509E50813F570
:102FC000087808121EEA7508C97509077808121EE4
:102FD000EA9007C8E0FD7C008A828B83A3A3A3A3A9
:102FE000E0FA7B007900120B0D7409121C7DEE646F
:102FF0000802320DEE541060407508007808121E69
:10300000EEE4F5097808121EEA7808121EEA78083C
:10301000121EEA7508C97509077808121EEA90079A
:10302000C8E0FD7C007A007B007902120B0D740968
:10303000121C7DEE641002320DEE540260407508E1
:10304000007808121EEEE4F5097808121EEA7808E6
:10305000121EEA7808121EEA7508C9750907780871
:10306000121EEA9007C8E0FD7C017A007B00793CE3
:10307000120B0D7409121C7DEE640202320DEE5427
:103080000470030231239004B7E0F875F005A4C87A
:10309000AAF02AF974B928FA740439FBEA242AF54B
:1030A00082EB3400F583E0F5087808121EEEEA247E
:1030B00032F582EB3400F583E0F508A3E0F50974FE
:1030C000047808121C457808121EEAEA2420F582CA
:1030D000EB3400F583121F01EA242EF582EB340055
:1030E000F583E0F508A3E0C313F509E50813F50837
:1030F0007808121EEA7508C97509077808121EEAD1
:103100009007C8E0FD7C018A828B83A3A3A3A3E080
:10311000FA7B007900120B0D7409121C7DEE640419
:1031200002320DEE544060407508007808121EEE21
:10313000E4F5097808121EEA7808121EEA780812E7
:103140001EEA7508C97509077808121EEA9007C8B3
:10315000E0FD7C017A007B00793B120B0D740912B3
:103160001C7DEE644002320DEE5480603B90085F9F
:10317000E0F8A3E0F9E849602A79001216B990084E
:103180005FE0F508A3E0F509E4F50AF50B7808120D
:103190001EE67A007B01900488E0F91216DD7404C3
:1031A000121C7DEE64808065EF5401600C79011281
:1031B00016B9EEFAEF64018056EF5402600AC2AF0E
:1031C00075C9AB75C95B80FEEF5404600A122BEB26
:1031D000EEFAEF6404803890048FE064017033EEFF
:1031E0005420602E900489E024F9600314701B7948
:1031F0003F9004B7E0FA75F005A4CAA8F028FB7464
:10320000B92AFA74043BFB120F57EE6420FAEFFB65
:1032100080047A007B0002352A74F6121CD7C3EAB8
:103220009411EB940050047A1080027A20EA24086A
:10323000FAE43400FB1218398A088B09A808A90996
:10324000E849600AE82404FAE93400FB80047A00C3
:103250007B00023E7274F6121CD7EA2405FAEB34A6
:1032600000FB1218398A088B09A808A909E84960E7
:103270000AE82405FAE93400FB80047A007B0002A6
:103280003E72C082C083C2AF1210DDE5E170FC75F2
:10329000E101120E3775E1F1121107120E2B7907B9
:1032A0001211C179011211C779021211311211677D
:1032B0001211A379001211B579011211B57A557B5B
:1032C000557C557D001211199007C8E4F0A3F0A3B6
:1032D000F0A3F0A3F0A3F0A3F09007E4F0A3F0A311
:1032E000F09007E87407F09007E77403F09007ED9B
:1032F000E4F09007ECF090080DF090083AF0900898
:1033000051F0120F3F121041120F6379001211CDCC
:103310009007CF74FFF0A3F0A3F0A3F0A3741FF005
:10332000906012E4F0A3F0906063F07521009004C7
:1033300089F09007D4F09007D5740CF09007D6E48C
:10334000F09007D704F09007D8E4F09007D904F084
:103350009007DAE4F090048BF0A3F090048EF090E4
:10336000048F04F09004A504F090085DE4F0D2AF5F
:10337000F9025550C082C083900476E08A828B8324
:10338000F0900477E08A828B83A3F0900478E08A3F
:10339000828B83A3A3F0900479E08A828B83A3A31A
:1033A000A3F090047AE08A828B83A3A3A3A3F09076
:1033B000047BE08A828B83A3A3A3A3A302554DC001
:1033C00082C0838A828B83E090047CF08A828B8324
:1033D000A3E090047DF08A828B83A3A3E090047E17
:1033E000F08A828B83A3A3A3E090047FF08A828B70
:1033F00083A3A3A3A3E0900480F08A828B83A3A37A
:10340000A3A3A3E090048102554DC082C083120E95
:1034100067E97005121167790002555074F7121CA4
:10342000D7EAFEEBFF8908120E67E9702CE5086009
:103430000A74016508600A7912801E7C0079008098
:10344000047C007901EEFAEFFB121173E9F87403C2
:10345000687004790780027900023DF674F7121C47
:10346000D7EAFEEBFF8908120E67E9702DE50860C8
:103470000A7401650860087912801F79008002795A
:1034800001EEFAEFFB121179E9F874046860057433
:1034900005687004791F80027900023DF674F71206
:1034A0001CD7EAFEEBFF12116D023DEE74F6121C02
:1034B000D7EA4B6016EC4D6012740A121CB3E0F5AB
:1034C00008A3E0F509E508450970047912800F7832
:1034D00008121EEA120FB17402121C7D7900023E1E
:1034E0007274F4121CD7EAFEEBFF8908900489E09D
:1034F00064096014E0640A600FE0640B600AE06431
:103500000C6005E0640D7004790C801E12106B8B4A
:103510000BEA450B700BA908EEFAEFFB120F9F8028
:103520000990048BE04440F0790D7F04021DA974DA
:10353000F6121CD7EA4B6003E970047912801CEA8A
:10354000FEEBFF8908120F99E98E828F83F0A3AEFC
:1035500082AF831508E50870EC7900023E7274F7BB
:10356000121CD78A828B83E04433F0A3A882A983FC
:10357000E04433F08A828B83E0D2E6F0EA2403FC55
:10358000EB3400FD8C828D83E0D2E4F0EA2402FE6D
:10359000EB3400FF8E828F83E044C0F08C828D83F9
:1035A000E04403F08E828F83E0440FF08A828B83A5
:1035B000E0448CF08C828D83E0D2E5F088828983B0
:1035C000E044CCF08C828D83E044CCF08E828F83FB
:1035D000E04430023DF3C082C083789C7904888245
:1035E0008983A3E08A828B83F088828983A3A8825F
:1035F000A9838A828B83A3AA82AB83E864A4700325
:10360000E9640470D902554E74F7121CD77409127C
:103610001CB3E0F8A3E0F99004A6E08A828B83F063
:103620009004A7E0FAA3E0FB8C828D83EAF0A3EB81
:10363000F09004A9E0FAA3E0FB88828983EAF0A372
:10364000EB023DF3C082C083E9F8740168700B900F
:10365000085D7401F07900025550E8700690085D2D
:10366000E480F1791280F074F7121CD7C3EB940F49
:103670005056C3EA9403EB9400504DEAF8EBF9E896
:1036800075F005A4C8ACF02CFC75F005E9A42CF984
:1036900074BC28F582740439F583E06027EAF8EBFE
:1036A000F9E875F005A4C8ACF02CFC75F005E9A4A8
:1036B0002CF974B928FE740439FF8E828F83A3A37A
:1036C000A3E070087902804579128041EE24ECF580
:1036D00082EF3400F583E064017035EE24F2F58268
:1036E000EF3400F583121F01EE24F0F582EF340071
:1036F000F583121F01EE24EFF582EF3400F583E02D
:10370000FC7900120B257404121C7D7900023DF631
:10371000EE24EDF582EF3400F583E07018790CEEBD
:10372000FAEFFB120F15EE24EDF582EF3400F5836E
:103730007401F080D6793A80D474F7121CD7ECFE6D
:10374000EDFFEE4F6026EA6005146015801E120E34
:1037500055E9F88E828F83F0748068700A79308022
:10376000088E828F83E4F07900023DF6791280F9A9
:10377000C082C083E9FD8D82A882C3E4940F400318
:1037800002380DE8C39403400302380DE875F005D4
:10379000A4C8ACF02CF974BC28F582740439F58304
:1037A000E070047902806874B928F8740439F9E883
:1037B000245DF582E93400F583E08A828B83F0E8AA
:1037C000245EF582E93400F583E08A828B83A3F0DE
:1037D000E8245FF582E93400F583E08A828B83A3D5
:1037E000A3F0E82460F582E93400F583E08A828B57
:1037F00083A3A3A3F0E82461F582E93400F583E014
:103800008A828B83A3A3A3A3F0790080027912029A
:10381000555074F7121CD7900489E0640C70129014
:10382000618EE0F9748069705E8C828D83747F8014
:1038300062C3EB940F504CC3EA9403EB94005043E3
:10384000EAF8EBF9E875F005A4C8AEF02EFE75F0C5
:1038500005E9A42EF974BC28F582740439F583E0D7
:10386000700479028030EA75F005A4CAA8F028F83F
:1038700075F005EBA428FB74212AF58274053BF54D
:1038800083809F7912800F90048DE0F8E9C3988CB3
:10389000828D83F07900023DF674F7121CD7E9FEA1
:1038A00074056E602374136E601E74146E60197458
:1038B000156E6014741A6E600F74296E600A743B82
:1038C0006E6005791202397EC3EB940F506AC3EA29
:1038D0009403EB94005061EAF8EBF9E875F005A465
:1038E000C8ACF02CFC75F005E9A42CF974BC28F5E3
:1038F00082740439F583E070047902803DEA75F042
:1039000005A4CAA8F028F875F005EBA428FB74B943
:103910002AFA74043BFBEA2469F582EB3400F58350
:10392000E064017038EA246AF582EB3400F583E044
:1039300064027008793A804679128042EA24F6F5EA
:1039400082EB3400F583EEF0EA241DF582EB3400BF
:10395000F583E4F0A3F07902120F21801FEA24F628
:10396000F582EB3400F583EEF0EA241DF582EB34AA
:1039700000F583E4F0A3F07902120F157900023DFF
:10398000F674E8121CD78A088B098917EC4D60146D
:10399000E9C3941C500E7418121CB3E0FB600A7447
:1039A000016B60057912023C14C3E509940F504283
:1039B000C3EA9403E50994005038A808E875F005B7
:1039C000A4C8AAF02AFA75F005E509A42AF974BC7E
:1039D00028F582740439F583E07004790280157447
:1039E000B928FE740439FF9007D5E0700A79070200
:1039F0003C147912023C14EC24FEFCED34FFFD8CE7
:103A0000828D83E517F0EB7004740280027401A3C9
:103A1000F0EC24FEFCED34FFFDEE2463FAEF3400FD
:103A2000FB120F879007D5E014F0900489E064083A
:103A30006008E064076003023C129004B7E0650888
:103A40007002E5096003023C127900EEFAEFFB1206
:103A500024FB9061D0E07003023C129007D9E0642F
:103A6000016003023C12EE241DF582EF3400F58361
:103A7000E0F8A3E0F9E8497003023C12A2AFE43396
:103A8000F516C2AF12106B8A148B151210EF8A0C48
:103A90008B0D8C0E8D0F8A088B098C0A8D0B75107F
:103AA0000175110075120075130078087910121A4B
:103AB0005F7808121EE6851482851583A3A3121B66
:103AC0003D1229917404121C7DE964016003023CDB
:103AD0000CEE242EF582EF3400F583E02406F50881
:103AE000A3E03400F509E4F50AF50B780C79081227
:103AF0001A5F780C121EE6851482851583A3A31223
:103B00001B3D1229917404121C7DE96401600302BB
:103B10003C0CE5142408F510E5153400F51185106A
:103B200082F583121EFDAA0CAB0DAC0EAD0F12294F
:103B3000EA7404121C7DEE242EF508EF3400F5091A
:103B4000850882F583121F011229407402121C7D20
:103B50008A0C8B0D8C0E8D0F7410780C121A278E18
:103B6000828F83A3A3A3A3A3A3A3A3A3E0F8A3E0AB
:103B7000F98E828F83A3A3A3A3A3E8F0A3E9F0E8BF
:103B8000250CF8E9350DF98E828F83A3A3A3A3A397
:103B9000A3A3E8F0A3E9F0851082851183C082C059
:103BA00083850882850983E0F508A3E0F509780C90
:103BB0007908121938D083D082780C121A727508DD
:103BC000FF7509FF750AFF780C7908121AC0851471
:103BD00082851583A3A3E50CF0A3E50DF0A3E50E04
:103BE000F0A3E4F0EE2435F582EF3400F583E0C075
:103BF000E0EE2434F582EF3400F583D0E0F0EEFA05
:103C0000EFFB12217EAA14AB1512104DE516A2E0AF
:103C100092AF79007F10021DA974F5121CD7E9FE3E
:103C20008A098B0AC394284003023D81EAC3942683
:103C30004003023D81EB602D7401650A6027740228
:103C4000650A60217403650A601B7404650A6015C7
:103C50007405650A600F7406650A60097407650AD1
:103C60006003023D81900489E060057921023D1ED8
:103C70001210DD120E3D75E1F17A0179011211F198
:103C80007A297B417C767D7112115B7A00EEF91204
:103C9000120979001211D39004A5E0F9120E4F74A5
:103CA000022509F5D9850AD98509D9E50A602414C0
:103CB000606F14607D14602E147003023D40147018
:103CC00003023D4E147003023D5C147003023D6D0F
:103CD000023D81E509600F758291758381FFE0F5F2
:103CE000D9A31FEF70F875E195EE9004ABF0E509EC
:103CF000A3F0E50AA3F0A3E4F0A3F0A3F0A3F0A3DC
:103D00007480F09004897409F0906182E0D2E5F04B
:103D100079191211BB7A007B001210C5790002518B
:103D200027E50960C1F50875D90F1508E50860B6E3
:103D300080F5E50960B0FD75D9551DED60A880F7E7
:103D4000E50960A2FC75D9FF1CEC609A80F7E509D3
:103D50006094FB75D9001BEB608C80F7E5096086E9
:103D6000FA75D9F01AEA7003023CE680F4E50970AE
:103D700003023CE6F875D9AA18E87003023CE68015
:103D8000F47912809974F7121CD7E9FEC394284085
:103D90000479128057900489E060047921804D12E3
:103DA00010DD120E3D75E1F17A0179001211F77AFA
:103DB000297B417C767D7112115B7A00EEF912123B
:103DC0000979001211D3EE9004ABF0A3E4F0A374D0
:103DD000FFF0A3E4F0A3F0A3F0A3F0A37480F090AD
:103DE0000489740AF079181211BB79008008E98EF1
:103DF000828F83F079007F01021DA974F6121CD70F
:103E0000900489E064096009E0640A600479218013
:103E100061E5E170FC75E101E0640970147AAE7B44
:103E2000041211FD79051211D379007A007B00800C
:103E30002FE0640A702D7508B27509047808121E07
:103E4000EA7CB07D047AAE7B041212037402121C69
:103E50007D79051211D379019004AEE0FAA3E0FB5D
:103E6000120B3D120E37120E2B75E1F1900489E40E
:103E7000F0F97F02021DA974F6121CD7EAFEEBFFCF
:103E80008908740B121CB3E0F509740C121CB3E022
:103E9000F8A3E0F9E508605F740165086015740334
:103EA0006508602F74026508602974046508600362
:103EB000023F52E8497003023F52E509600974016C
:103EC00065096003023F5274036508600674026569
:103ED000087046EE2460FAEF34FFFBC3EA9461EB0E
:103EE000943F506EEC2460FAED34FFFBC3EA94611A
:103EF000EB943F4024805BEE24E0FAEF34FFFBC3F9
:103F0000EA94E1EB943F504AEC24E0FAED34FFFBF5
:103F1000C3EA94E1EB943F5039C3EC9EED9F4032ED
:103F2000740A121CB3E0FA600574016A7024740FFD
:103F3000121CB3E0FC600F74016C600A74026C60C8
:103F40000574036C700C740E121CB3E0FB74075BF9
:103F5000700579120240B39007E4E06401700579BE
:103F60000C0240B3E5089007E7F074075BA3F0ECA0
:103F7000A3F0EA9007DD702FE4F0900476E090075C
:103F8000DEF0900477E09007DFF0900478E090078F
:103F9000E0F0900479E09007E1F090047AE0900777
:103FA000E2F090047B802E7401F090047CE0900796
:103FB000DEF090047DE09007DFF090047EE0900753
:103FC000E0F090047FE09007E1F0900480E090073B
:103FD000E2F0900481E09007E3F07401650870530B
:103FE000E5099007C8F088828983E09007C9F088C6
:103FF000828983A3E09007CAF088828983A3A3E023
:104000009007CBF088828983A3A3A3E09007CCF02C
:1040100088828983A3A3A3A3E09007CDF088828937
:1040200083A3A3A3A3A3E09007CEF09007E5E4F059
:10403000A3807D74046508704DE5099007C8F08879
:10404000828983E09007C9F088828983A3E0900782
:10405000CAF088828983A3A3E09007CBF088828985
:1040600083A3A3A3E09007CCF088828983A3A3A3B2
:10407000A3E09007CDF088828983A3A3A3A3A3E044
:104080009007CEF08023EC70047900801974016CE5
:1040900070047901801074026C70047902800774D6
:1040A000036C7005790312117F9007E5EEF0A3EF22
:1040B000F07900023E7274F6121CD7E9FEC3942018
:1040C000500BEE9007EDF06023EA4B7004791280FC
:1040D00023E0F5087509007808121EEAEAFCEBFDFA
:1040E0007AEE7B0712160B7402121C7D9007EC749B
:1040F00001F07900023E7274F0121CD7E9FE9004C0
:1041000089E064097003024220E0640A70030242FD
:1041100020E0640B7003024220E0640C7003024252
:1041200020E0640D70030242209007E7E06016640F
:10413000016012E06403600DE064026008E0640462
:1041400060030242929007DDE060076401600302B1
:1041500042929007E7E064036005E064027010900B
:1041600007E5C3E094A0A3E094005003024292EE5E
:10417000700302422B1460030242929007E4E06451
:104180000170030242209007E7E0600964016005C6
:10419000E06404700B121077E954FD6003024220C2
:1041A000790112105F9007DBEAF0A3EBF09007E4CF
:1041B0007401F0900489E0706E1210EF8A088B0988
:1041C0008C0A8D0B750C03750D00750E00750F00B4
:1041D0007808790C121A5F750CFF750DFF750EFFCC
:1041E0007808790C121AC09007DBE0F8A3E0F58399
:1041F0008882A3A37808121B2E9007DBE0F8A3E0C7
:10420000C82406F582E83400F583E4F0A3F0120E2A
:104210006DE960107ADB7B071210659007E4E4F02B
:10422000792180051210477900806B9007E4E060E7
:10423000EFA2AFE433FFC2AF7ADB7B0712106590C9
:1042400007E4E4F012107DE970411210DD90618204
:10425000E0C2E6F0E5E170FC75E1017591BF75E142
:10426000F190048FE0640170187A207B009004883C
:10427000E0F91216E97A207B00900488E0F9121622
:104280006B7A00900488E0F91216BFEFA2E092AFBB
:104290008095791280937F08021DA974F7121CD7AC
:1042A000EAFEEBFF120E55E9F88E828F83F07480E0
:1042B000687004793080027900023DF674F6121CB1
:1042C000D7E9FEC39420500BEE90080DF06023EA6E
:1042D0004B700479128023E0F50875090078081204
:1042E0001EEAEAFCEBFD7A0E7B0812160B74021232
:1042F0001C7D9007EC7401F07900023E7274F71295
:104300001CD7E9FE600574016E70457409121CB378
:10431000E0FF600574016F7037EA24FCF8EB34FFAE
:10432000F9C3E894FDE9943F5026EC24FCF8ED3401
:10433000FFF9C3E894FDE9943F5015C3EA9CEB9D57
:10434000400E740A121CB3E0F8600A74016860053C
:1043500079120243F390083AE064017005790C0287
:1043600043F3EEA3F0E8900840F0EF900832702F8E
:10437000E4F0900476E0900833F0900477E0900841
:1043800034F0900478E0900835F0900479E09008DB
:1043900036F090047AE0900837F090047B802E7419
:1043A00001F090047CE0900833F090047DE09008E8
:1043B00034F090047EE0900835F090047FE090089F
:1043C00036F0900480E0900837F0900481E0900887
:1043D00038F090083CEAF0A3EBF0A3ECF0A3EDF08A
:1043E000E870047900800774016870057901121182
:1043F000857900023DF674F0121CD7E9FEEAFF90C1
:104400000489E064097003024566E0640A700302EF
:104410004566E0640B7003024566E0640C700302BD
:104420004566E0640D700302456690083BE0600756
:10443000640160030245FE900832E0600764016099
:10444000030245FE90083CE024FCF8A3E034FFF9A9
:10445000C3E894FDE9943F40030245FEA3E024FC39
:10446000F8A3E034FFF9C3E894FDE9943F40030268
:1044700045FE90083CC08290083EE0F8A3E0F97544
:104480008308D082C3E098A3E09950030245FEEF71
:10449000600874016F60030245FEEE700302456020
:1044A0001460030245FE90083AE06401700302457F
:1044B00066790212105F900830EAF0A3EBF09008E2
:1044C0003A7401F0900839F0EF900841F0900489B7
:1044D000E0600302455B120E911210EF8A0C8B0D07
:1044E0008C0E8D0F750810750900750A00750B008C
:1044F000780C7908121A5F7508FF7509FF750AFFB5
:10450000780C7908121AC0900830E0F8A3E0F5831F
:104510008882A3A3780C121B2E900830E0F8A3E049
:10452000C82406F582E83400F583E4F0A3F090088F
:104530003EE0F508A3E0F509E4F50A780C790812E5
:104540001A5F900830E0F8A3E0C8240EF582E83442
:1045500000F583780C121B2E121047790002429648
:1045600090083AE07004792180F3A2AFE433F508B3
:10457000C2AF7A307B0812106590083AE4F012104E
:104580007DE970461210DD906182E0C2E6F0E5E15F
:1045900070FC75E1017591BF79011211C775E1F1E8
:1045A00090048FE0640170187A207B00900488E00A
:1045B000F91216E97A207B00900488E0F912166B54
:1045C0007A00900488E0F91216BFE508A2E092AFE5
:1045D000900840E0640170061211A302455BA3E05D
:1045E0006401600302455B900840E0600302455BA4
:1045F0001211671211A379011211AF02455B7912F2
:1046000002455D74F7121CD7900489E064076005C9
:10461000790C0246B9EC4D70030246BCC3EB940F13
:1046200040030246BCC3EA9403EB940040030246F5
:10463000BCEAF8EBF9E875F005A4C8AEF02EFE75FB
:10464000F005E9A42EF974BC28F582740439F583C9
:10465000E0700479028062EA75F005A4CAA8F02827
:10466000F875F005EBA428FB74B92AFA74043BFB37
:104670007E008C828D83E0C0E0EEF8C3E498F8956C
:10468000E0F9EA28F8EB39F9E824D1F582E93400B9
:10469000F583D0E0F00E8C828D83A3AC82AD83EEE7
:1046A000C3941040CDEA24D3F582EB3400F5837433
:1046B00001F07905120F157900023DF6791280F9A3
:1046C000C082C083900489E064076005790C0247CA
:1046D00057C3EB940F5068C3EA9403EB9400505F08
:1046E000EAF8EBF9E875F005A4C8ACF02CFC75F01D
:1046F00005E9A42CF974BC28F582740439F583E02B
:10470000700479028051EA75F005A4CAA8F028F86F
:1047100075F005EBA428FB74B92AFA74043BFBEA94
:1047200024DCF582EB3400F583E064017015EA24A3
:10473000F6F582EB3400F5837406F0790280137984
:10474000128014EA24DDF582EB3400F5837406F060
:10475000790D120F15790002555074E8121CD774A8
:10476000FB121C677403121CB3EAF0A3EBF0740194
:10477000121CB3ECF0A3EDF0E9851882851983F0E3
:104780007429121CB3E0FEA3E0FF742B121CB3E0EB
:10479000F508A3E0F509900851E0640170030249AF
:1047A000477904121071E9640170030249479004CB
:1047B00089E064097003024947E0640A7003024912
:1047C00047E0640B7003024947E0640C7003024940
:1047D00047E0640D70030249477403121CB3E024E0
:1047E000FCF8A3E034FFF9C3E894FDE9943F4003EB
:1047F000024ACD7401121CB3E024FCF8A3E034FF9C
:10480000F9C3E894FDE9943F4003024ACD740312D2
:104810001CB3C082C0837401121CB3E0F8A3E0F99A
:10482000D083D082C3E098A3E0995003024ACD74AC
:104830001E121CB3E0F50AA3E0F50B85188285195A
:1048400083E0600964016003024ACD8009E50A45FE
:104850000B7003024ACD741D121CB3E060076401A3
:104860006003024ACD7420121CB3E060076401604B
:1048700003024ACDC3E5089EE5099F5003024ACDD5
:104880007421121CB3E0FAA3E0FBEA24FAF8EB343B
:10489000FFF9C3E8947BE9940C4003024ACD7423EA
:1048A000121CB3E0F8A3E0F97423121CB3E8F0A3E0
:1048B000E9F07423121CB3E024FAF8A3E034FFF902
:1048C000C3E8947BE9940C4003024ACD7423121C84
:1048D000B3C3E09AA3E09B5003024ACD7425121C97
:1048E000B3E0F8A3E0F97425121CB3E8F0A3E9F0F3
:1048F0007425121CB3C3E094F4A3E09401400302B6
:104900004ACD7427121CB3E0F508A3E0F509E508C9
:1049100024F6F8E50934FFF9C3E89477E9940C40EC
:1049200003024ACD7901121071E96401700F9007FA
:10493000E7E060136401600FE06404600A794012EC
:104940001071E9640170057921024D2A85080C85F2
:10495000090D7403780C121C54F50EF50F74251212
:104960001CB3E02401F514A3E03400F515E4F516BA
:10497000F5177423121CB3E0F8A3E0F9E8C333F889
:10498000E933F988108911E4F512F51378147910D8
:10499000121938780C79141218F95069120F5DE960
:1049A00064017005793A024D2A9004B6E0604774BC
:1049B00023121CB3E0FEA3E0FFEEC333FEEF33FF90
:1049C0007AFF7BFF120F4B8A0C8B0D7403780C124D
:1049D0001C459004B6E0F8C3E50C98E50D94004042
:1049E00039C3EA9EEB9F5020EEF8EFF9121BDC8BE7
:1049F0000DEA450D7024851882851983E07020E545
:104A00000A450B701A024ACDEAF8EBF9EEFAEFFB11
:104A1000121BDC8B0DEA450D60DC793B024D2A123E
:104A20000F338A0C8B0DAE0CAF0DEE4F700579096C
:104A3000024D2A8E828F83A3A3A3A3E0900858F08F
:104A40007403121CB3E0F8A3E0F9900852E8F0A355
:104A5000E9F07401121CB3E0F8A3E0F9900854E8FF
:104A6000F0A3E9F0851882851983E0900857F0EEED
:104A7000F8EFF97ACF7B078A828B83E0C0E0E824E5
:104A80005DF582E93400F583D0E0F08A828B83A360
:104A9000AA82AB8388828983A3A882A983EA64D48B
:104AA0007003EB640770D0EE245DFCEF3400FDEE84
:104AB000FAEFFB120F27EE2436F582EF3400F58370
:104AC000E0C39402500CEEFAEFFB120F3979120298
:104AD0004D2A850A82850B83E09007C9F0850A82FA
:104AE000850B83A3E09007CAF0850A82850B83A318
:104AF000A3E09007CBF0850A82850B83A3A3A3E0F4
:104B00009007CCF0850A82850B83A3A3A3A3E09032
:104B100007CDF0850A82850B83A3A3A3A3A3E0900E
:104B200007CEF07420121CB3E0900849F0742012F4
:104B30001CB3E0702D900476E090084AF090047762
:104B4000E090084BF0900478E090084CF0900479E5
:104B5000E090084DF090047AE090084EF090047BCD
:104B6000802B90047CE090084AF090047DE090084F
:104B70004BF090047EE090084CF090047FE09008A9
:104B80004DF0900480E090084EF0900481E0900891
:104B90004FF0741D121CB3E09007C8F0120F69EEBD
:104BA0002426F582EF3400F583121B49120E01EE24
:104BB0002422F582EF3400F583121B497423121C62
:104BC000B3E0F8A3E0F9EE242EF582EF3400F5838C
:104BD000E8F0A3E9F0EE2432F582EF3400F583E546
:104BE00008F0A3E509F07425121CB3E0F8A3E0F97E
:104BF000EE2430F582EF3400F583E8F0A3E9F0907D
:104C00000859E0C0E0EE242AF582EF3400F583D0A5
:104C1000E0F0EE242BF582EF3400F5837402F012FD
:104C20000F99E975F00C84E5F02405C0E0EE243717
:104C3000F582EF3400F583D0E0F09008567425F04B
:104C40009004B6E0C394024005790112112B790457
:104C500012105F900847EAF0A3EBF090085174013E
:104C6000F0900847E0F8A3E0C82416F582E8340085
:104C7000F58374B5F0A3740EF0900847E0F8A3E054
:104C8000C82414F582E83400F5837417F090048981
:104C9000E06003024D281210EF8A0C8B0D8C0E8DF4
:104CA0000F7508A0750900750A00750B00780C795E
:104CB00008121A5F7508FF7509FF750AFF780C79ED
:104CC00008121AC0900847E0F8A3E0F5838882A391
:104CD000A3780C121B2E900847E0F8A3E0C8240626
:104CE000F582E83400F583E4F0A3F0900854E0F591
:104CF00008A3E0F509E4F50A780C7908121A5F9028
:104D00000847E0F8A3E0C8240EF582E83400F583F4
:104D1000780C121B2E8E828F83A3A3A3A3E0F9121B
:104D20000E97120E9D12104779007405121C7D0219
:104D30003C14C082C083900851E0600879041210CE
:104D400071E97004790C8037900851E4F012107DFD
:104D5000E9702A90048FE0640170187A207B00903B
:104D60000488E0F91216E97A207B00900488E0F9C3
:104D700012166B7A00900488E0F91216BF790002CF
:104D8000555074E8121CD7900489E06408600579D6
:104D90000C024FD8EC24FAF8ED34FFF9C3E8947B09
:104DA000E9940C4003024EE97418121CB3E0F516A6
:104DB000A3E0F517E51624FAF8E51734FFF9C3E880
:104DC000947BE9940C4003024EE9C3E5169CE51779
:104DD0009D5003024EE9741A121CB3E0F8A3E0F9E7
:104DE000741A121CB3E8F0A3E9F0741A121CB3C3CE
:104DF000E094F4A3E094014003024EE9741C121CF9
:104E0000B3E0FEA3E0FFEE24F6F8EF34FFF9C3E8C9
:104E10009477E9940C4003024EE9C3EB940F507E63
:104E2000C3EA9403EB94005075EAF8EBF9E875F0E7
:104E300005A4C8ACF02CFC75F005E9A42CF974BCF1
:104E400028F582740439F583E0700479028051EA10
:104E500075F005A4CAA8F028F875F005EBA428FBA6
:104E600074B92AF51474043BF515E514246EF58223
:104E7000E5153400F583E0600FE514246AF582E55A
:104E8000153400F583E06011E5142473F582E5150F
:104E90003400F583E06401700A793A024FD8791240
:104EA000024FD88E088F0974037808121C54F50A33
:104EB000F50B741A121CB3E02401F510A3E03400C2
:104EC000F511E4F512F513E516C333F8E51733F9D8
:104ED000880C890DE4F50EF50F7810790C1219384D
:104EE000780879101218F940057912024FD8900409
:104EF000B6E0C394024052851608851709E508C339
:104F000033F508E50933F5097AFF7BFF120F4B8A69
:104F10000A8B0B7403780A121C459004B6E0F8C3A0
:104F2000E50A98E50B94005003024FF0C3EA950898
:104F3000EB95094003024FDBA808A909121BDC8B83
:104F400009EA45096003024FF0E5142476F582E58D
:104F5000153400F5837402F0E5142477F582E51525
:104F60003400F583E4F0A3F0E5142430F582E51570
:104F70003400F583E02407F8A3E03400F9E51424B5
:104F800074F582E5153400F583E8F0A3E9F0E51443
:104F90002479F582E5153400F583E516F0A3E517CD
:104FA000F0741A121CB3E0F8A3E0F9E514247BF5C1
:104FB00082E5153400F583E8F0A3E9F0E514247DDB
:104FC000F582E5153400F583EEF0A3EFF07900AA41
:104FD00014AB15120F157900023C14EAF8EBF9AA8C
:104FE00008AB09121BDC8B09EA45097003024F4923
:104FF000793B80E474F5121CD7EAFEEBFF9004893C
:10500000E064086005790C025127EE4F60158E822E
:105010008F83A3A3A3A3E054E07008120F2DE964CB
:105020000160057912025127750A007AB57B047870
:10503000B979048A828B83A3A3A3A3A3A3A3E06467
:10504000017030E8246EF582E93400F583E0600FEA
:10505000E8246AF582E93400F583E06401600FE832
:10506000247FF582E93400F583E064017005793A24
:10507000025127050AE82405F8E93401F9EA240574
:10508000FAEB3401FBE50AC3940340A77ACF7B0710
:10509000EE2405F8EF3400F98E828F83E08A828B4C
:1050A00083F08E828F83A3AE82AF838A828B83A3A9
:1050B000AA82AB83E86E7002E96F70DC750A007536
:1050C00008B57509047EB97F04850882850983A324
:1050D000A3A3A3A3A3A3E06401702BEE2430F58265
:1050E000EF3400F583E02407F8A3E03400F9EE2460
:1050F00080F582EF3400F583E8F0A3E9F07901EE62
:10510000FAEFFB120F15050AEE2405FEEF3401FF3E
:10511000E5082405F8E5093401F988088909E50A54
:10512000C3940340A479007F03021DA974F3121CE9
:10513000D7900489E064086005790C025336EC4D81
:105140006024740D121CB3E0F50AA3E0F50BE50A28
:10515000450B6012740F121CB3E0F508A3E0F509CB
:10516000E508450970057912025336C3EB940F40E8
:1051700003025219C3EA9403EB940040030252194C
:10518000EAF8EBF9E875F005A4C8AEF02EFE75F06C
:1051900005E9A42EF974BC28F582740439F583E07E
:1051A000700479028075EA75F005A4CAA8F028F8A1
:1051B00075F005EBA428FB74B92AFE74043BFFEEDE
:1051C00024E3F582EF3400F583E07039EEF8EFF96F
:1051D0007A9C7B048A828B83A3E0C0E0E824E4F518
:1051E00082E93400F583D0E0F08A828B83A3AA821F
:1051F000AB8388828983A3A882A983EA64A470030D
:10520000EB640470CFEE24E4F582EF3400F583E024
:10521000A2E0400A79110253367912025336EEF8B1
:10522000EFF9EC2408FAED3400FB8C828D83E0C0AA
:10523000E0E8249BF582E93400F583D0E0F08C822D
:105240008D83A3AC82AD8388828983A3A882A9833E
:10525000EA6C7002EB6D70D2850A82850B83E0C028
:10526000E0EE24A3F582EF3400F583D0E0F0850A68
:1052700082850B83A3E0C0E0EE24A4F582EF340026
:10528000F583D0E0F07C00A808A90988828983E032
:10529000C0E0ECFAC3E49AFA95E0FBEE2AFAEF3BA1
:1052A000FBEA24D1F582EB3400F583D0E0F00C88E2
:1052B000828983A3A882A983ECC3941040CDEE24F5
:1052C00093FAEF3400FB120FA5EE2487FAEF3400B7
:1052D000FB120FAB90048BE04480F0EE2462F58269
:1052E000EF3400F583E4F0EE24D2F582EF3400F5DC
:1052F00083E4F0EE24D3F582EF3400F583E4F0EE9E
:105300002482F582EF3400F583E064017011EE240D
:10531000DCF582EF3400F5837401F0790A800EEE3B
:1053200024DCF582EF3400F583E4F07903EEFAEF44
:10533000FB120F1579007F05021DA9C082C0839062
:105340000489E064086004790C8059C3EB940F5021
:1053500051C3EA9403EB94005048EAF8EBF9E8757E
:10536000F005A4C8ACF02CFC75F005E9A42CF97488
:10537000BC28F582740439F583E070047902802436
:105380007908EA75F005A4CAA8F028F875F005EBCD
:10539000A428FB74B92AFA74043BFB120F15790098
:1053A0008002791202555074EC121CD789088A0ABF
:1053B0008B0B12106B8A0C8B0DAE0CAF0D1210EF15
:1053C0008A0C8B0D8C0E8D0F850A82850B837401E0
:1053D000F0E508600A74016508600479128071EED6
:1053E0004F604C780C121EE68E828F83A3A3121B93
:1053F0003D1229917404121C7DE9603A75100B75F9
:105400001100751200751300780C121EE68E828F43
:1054100083A3A3121B3D1229EA7404121C7D8A0C7B
:105420008B0D8C0E8D0F7810790C1218F94007A98E
:1054300008120E498018E50890048B7005E04401BD
:105440008003E04402F0850A82850B83E4F0790052
:105450007F0C021DA974EC121CD789088A0A8B0BD9
:1054600012106B8A0C8B0DAE0CAF0D1210EF8A0C64
:105470008B0D8C0E8D0F850A82850B837401F0E5F0
:1054800008601174016508600B7402650860057995
:1054900012025523EE4F604C780C121EE68E828F5E
:1054A00083A3A3121B3D1229917404121C7DE96091
:1054B0003A75100B751100751200751300780C12F7
:1054C0001EE68E828F83A3A3121B3D1229EA740469
:1054D000121C7D8A0C8B0D8C0E8D0F7810790C129E
:1054E00018F94007A908120E4F8036E508600B1422
:1054F000601014601514601A801F90048BE044043F
:10550000801690048BE04408800E90048BE04410D9
:10551000800690048BE04420F0850A82850B83E4AA
:10552000F07900025450C082C083E9F89007D4E0BB
:10553000F9E8600E14700E7401F0E069700B79FFE9
:105540008009E480F47912800279008003F0790008
:10555000D083D08202011FC082C083E9F890085E28
:10556000E07004790C800EE8600D14701090048EC9
:105570007401F0790080D990048EE480F57912806E
:10558000F4C082C083E9F8900489E0701AE8600DE5
:1055900014701090048F7401F07900800C90048FC7
:1055A000E480F579128002790C80A574F6121CD77C
:1055B000EA4B6016EC4D6012740A121CB3E0F50859
:1055C000A3E0F509E508450970047912800F780811
:1055D000121EEA120FB77402121C7D7900023E728D
:1055E000C082C083EA4B7004791280168A828B8352
:1055F000E0A2E090049DE05004D2E08002C2E0F01E
:105600007900025550C082C083E9600E1470119079
:1056100007D97401F079000255509007D9E480F45D
:10562000791280F3C082C083E9F8900489E06407AE
:105630006004790C800EE8600E1470119007DA7423
:1056400001F079000255509007DAE480F479128075
:10565000F374F7121CD7E9FFEAFEC394285008EF51
:10566000600974016F60047912805B900489E060C6
:1056700004792180511210DD120E3D75E1F17A2975
:105680007B417C767D7112115B74016F70137A011E
:10569000EEF912120979001211D3906190742480EE
:1056A000177A00EEF912120979071211D39061905E
:1056B0007404F09061E874FFF0900489740BF07941
:1056C000041211BB7900023DF6C082C083900489A8
:1056D000E06004792180671210DD120E3D75E1F162
:1056E0007A0179011211F17A297B417C767D711260
:1056F000115B9004ABE4F0FAF9121209790012116F
:10570000D375D92775D90075D9257582917583818F
:10571000E0F5D9A3E58264B67004E583648170F096
:1057200075E195900489740DF0906182E0D2E5F006
:1057300079191211BB7A007B001210C5790002554D
:105740005074F7121CD7E9FEC394284004791280E4
:1057500037900489E060047921802D1210DD120E4B
:105760003D75E1F17A297B417C767D7112115B7A7E
:1057700000EEF912120979001211D3900489740C09
:10578000F079031211BB7900023DF6C082C083900C
:105790000489E0640B600EE0640C6009E0640D6055
:1057A0000479218005120C6F7900025550C082C027
:1057B00083EA4B700579120258A4900489E06005D1
:1057C000790C0258A48A828B83E0F47060A3E0F421
:1057D000705B8A828B83A3A3E0F470518A828B83EF
:1057E000A3A3A3E0F470468A828B83A3A3A3A3E0C0
:1057F000F4703A8A828B83A3A3A3A3A3E0F4702D51
:10580000900482E0900476F0900483E0900477F0B6
:10581000900484E0900478F0900485E0900479F09E
:10582000900486E090047AF090048780709004766B
:10583000E0900482F0900477E0900483F090047884
:10584000E0900484F0900479E0900485F090047A6C
:10585000E0900486F090047BE0900487F08A828BCD
:1058600083E0900476F08A828B83A3E0900477F043
:105870008A828B83A3A3E0900478F08A828B83A32F
:10588000A3A3E0900479F08A828B83A3A3A3A3E06F
:1058900090047AF08A828B83A3A3A3A3A3E090044D
:1058A0007BF07900025550C082C083C3EA94F5EBC7
:1058B000940140057912025978900489E0640860E7
:1058C00005E064077005790C025978C3EA9415EB7A
:1058D00094005008900859740702596DEA24EBF8B7
:1058E000EB34FFF9C3E8940AE99400500790085993
:1058F00074068079EA24E1F8EB34FFF9C3E89414E4
:10590000E99400500790085974058061EA24CDF8A5
:10591000EB34FFF9C3E89419E99400500790085953
:1059200074048049EA24B4F8EB34FFF9C3E894190D
:10593000E99400500790085974038031EA249BF8D9
:10594000EB34FFF9C3E89432E9940050079008590A
:1059500074028019EA2469F8EB34FFF9C3E894640F
:10596000E99400900859500474018001E4F0900714
:10597000EAEAF0A3EBF0790002555074F7121CD755
:10598000E9FE906185E0F874016E7012E8C3940F2F
:105990005007740128F9120E317900023DF6EE70BD
:1059A00007E860F574FF80EC791280EF74F4121C44
:1059B000D774FC121C67902CA4E493F46004790C57
:1059C0008049906185E0851882851983F07508000B
:1059D0007509FF750AFF750BFF7808121AF985180B
:1059E000828519837808121B2E75080175090078C5
:1059F00008121EEA7402121CB3AC82AD837A297BB2
:105A00000B1217437402121C7D79007404121C7D62
:105A100002352AC082C083E9F8600E74016860090B
:105A2000740268600479128007E89004A5F0790098
:105A300002555074F6121CD7E9FB74FF6B700C9082
:105A4000085A74FFF0A3E4F0F9804CEB600C14608A
:105A500049147003025AF8025B3BEAC394084003FE
:105A6000025B3BE5AEC4540F54076A700353AE7F2C
:105A7000750801750900EA7808121C54A808E8F4B2
:105A8000F952F252F3E842FDE952ABEBF9EA900821
:105A90005AF0A3E9F07900023E72EA601814601A25
:105AA00014601C14601E14602014602214602414FE
:105AB0006021025B3B9062438017906244801290A9
:105AC0006245800D90624680089062478003906234
:105AD00048E4F0E5AE54076A700353AEF775080169
:105AE000750900EA7808121C54A808E8F4F952F481
:105AF000E842FEE9528D8093E5C6A2E7400E7403AA
:105B00006A600574046A7004790C808BEA60092469
:105B1000FD600A14600C802353F5FE800853F5F7EE
:105B2000800353F5EF750801750900EA7808121C27
:105B300054E50842FFF452AC025A8B7912025A978C
