:020000040000FA
:0600000002011A02281B98
:03002B00022FD0D1
:03003300022FA8F1
:0300530002288EF2
:03006B00022F4F12
:03007B00022F77DA
:10008300022687E5C754F84401F5C7790122000029
:100093000080FB120086B90003020104E479217891
:1000A30008B800028004F709D8FCE479297802B87B
:1000B30000028004F709D8FCE4900281787A790879
:1000C3008002F0A3D8FCD9FA781A90014A7A01BACF
:1000D30000028007E493A3F608DAF97AFA7B099021
:1000E300014B787B79078015E493A3AD82AE838AB5
:1000F300828B83F0A3AA82AB838D828E83D8E9D9C6
:10010300E77582B975838B740412012C758291751E
:100113008300740012012C75D00075814F7518810E
:10012300751902759F00020096C09FF59FE473D076
:100133009F22D083D082C09FE493C0E0740193C018
:10014300E0740293F59F2201FF0000B40000280031
:100153002800283075A000A000A000A0000008001F
:1001630008E001F000100010001000100010001053
:100173000050005000500010001000D00700000095
:100183000000000F0001000500307507001000019A
:100193000081FF00000000FFC309E109C909FF0254
:1001A300020208025000A0000000E80302F28301EB
:1001B3000000C58302EC83010000510A02E48301BD
:1001C3000000B30202EC83010000520A02E0830143
:1001D3000000C90202EC83010000530A02FE8301FE
:1001E3000000CB0202EC83010000540A02DC830806
:1001F3000000CC0202EC83010000550A02DA8301FD
:100203000000560AFF0100FF2002F283010000B63E
:100213008302EC83010000BA0A02DE8300000000BF
:100223000002E6830300001903990F990F990F99B0
:100233000F990F990F990F990F990F990F990F997B
:100243000F990F2D1245122712FFFF0A0953656EEE
:10025300736F72546167051250002003020A000293
:100263000105544920424C452053656E736F72203B
:1002730054616700D007E803E803E803E803E803F1
:100283004F1400007F1485148B14971491149D143C
:10029300A314A914AF1412416363656C2E20446147
:1002A3007461000A416363656C2E20436F6E662E92
:1002B300000A0A416363656C2E20506572696F649E
:1002C3000002F283010000C88302EC8301000048AE
:1002D3000B10D581010000730702E683030000764B
:1002E3000702E883010000490B02EC83010000557B
:1002F3000B10E5810300007C0702E8830100005630
:100303000B02EC83010000630B10F5810300006412
:100313000B02E883010000650B124261726F6D2EC0
:100323002044617461000A4261726F6D2E20436F35
:100333006E662E00024261726F6D2E2043616C69FE
:1003430062722E000A0A4261726F6D2E205065722E
:10035300696F640002F283010000CB8302EC830126
:100363000000CB0B1035820100007F0702E68303F8
:100373000000830702E883010000CC0B02EC830139
:100383000000D80B104582030000890702E88301AF
:100393000000D90B02EC83010000F60B1065820309
:1003A3000000F70B02E883010000F80B02EC830165
:1003B3000000E60B1055820100008A0702E6830362
:1003C30000009A0702E883010000E70B12436F6EF7
:1003D3006E2E20506172616D730008436F6E6E2E36
:1003E30020506172616D7320526571000844697316
:1003F300636F6E6E656374205265710002F2830150
:100403000000D18302EC830100007E0C10A5820161
:100413000000A20702E683030000A80702E88301A5
:1004230000007F0C02EC830100008C0C10B58202EB
:100433000000AE0702E8830100008D0C02EC83018B
:1004430000009E0C108582020000B60702E88301BB
:1004530000009F0C020202020202020202010D00CE
:100463000000100102F283010000BF8302EC83014C
:100473000000060D02D683010000B70702EC8301DA
:100483000000070D02D8830100004A8302EC8301B8
:100493000000080D02E283010000408302EC8301A7
:1004A30000000A0D02FC83010000938002EC83012B
:1004B30000000B0D02FA83010000458302EC830167
:1004C3000000090D02EE830100004F8302EC83015B
:1004D30000000C0D02EA83010000818002EC83011D
:1004E30000000D0D020284010000D58202EC83019D
:1004F30000000E0D0204840100000F0D01E8030546
:100503003F100A124779726F2044617461000A47F1
:1005130079726F20436F6E662E000A0A4779726FF5
:1005230020506572696F640002F283010000B38397
:1005330002EC83010000B50D10B5800100007B08BB
:1005430002E683030000810802E883010000B60D80
:1005530002EC83010000C00D1045810300008708F1
:1005630002E883010000C10D02EC83010000CC0D01
:1005730010D580030000CD0D02E883010000CE0DED
:100583000380000080700061801248756D69642EDD
:100593002044617461000A48756D69642E20436FBD
:1005A3006E662E000A0A48756D69642E20506572C6
:1005B300696F640002F283010000CE8302EC8301C1
:1005C30000003B0E108581010000120902E683033F
:1005D3000000160902E8830100003C0E02EC8301CF
:1005E3000000480E1015820300001C0902E8830175
:1005F3000000490E02EC83010000560E10758203C1
:100603000000570E02E883010000580E1254656D76
:10061300702E2044617461000A54656D702E20436E
:100623006F6E662E000A1E54656D702E2050657223
:10063300696F640002F283010000B08302EC83015E
:100643000000BE0E10B5810100001F0902E68303FE
:100653000000230902E883010000BF0E02EC8301BE
:100663000000CA0E10A581030000290902E88301D6
:100673000000CB0E02EC83010000D70E109581031E
:100683000000D80E02E883010000D90E124D616705
:100693006E2E2044617461000A4D61676E2E204303
:1006A3006F6E662E000A0A4D61676E2E20506572CA
:1006B300696F640002F283010000BC8302EC8301D2
:1006C30000003E0F1065810100002C0902E6830340
:1006D3000000320902E8830100003F0F02EC8301AE
:1006E30000004A0F105581030000380902E8830116
:1006F30000004B0F02EC83010000570F10358103FC
:100703000000580F02E883010000590FFF00013079
:100713007503020106000000000000000000000055
:1007230000000000000000000000000000000000C6
:1007330000FFFF0600800CE803104B657920507220
:100743006573732053746174650002F283010000C2
:10075300B98302EC83010000EB0F02F88300000071
:10076300E80902E683030000E90902E883010000C7
:10077300EC0F02546573742044617461000A54657C
:10078300737420436F6E6669670002F28301000091
:10079300C28302EC83010000241010E580030000F3
:1007A300F10902E883010000251002EC8301000037
:1007B3002F10102581030000F90902E883010000CE
:1007C3003010120135ABF503120135C2F5031201E6
:1007D30035F3F5031201352EF60312013558F603EE
:1007E30012013582F60312013599F603120135B071
:1007F300F603120135C7F603120135F0F6031201B1
:100803003503F70312013519F7031201352CF703EA
:1008130012013553F703120135A2D002120135A696
:10082300D102120135DED10212013501D2021201C9
:10083300350CD2021201352FD2021201353ED302FA
:1008430012013513D4021201358ED402120135166A
:10085300D50212013551D50212013588D502120194
:100863003516D602120135EFD6021201354FD702E3
:100873001201355AD702120135D9D702120135DCDC
:10088300D702120135DFD7021201356ED8021201E9
:100893003571D802120135A1D802120135CBD80225
:1008A300120135B9D9021201356BDA021201351181
:1008B3009D03120135399D03120135679D03120112
:1008C300359E9D03120135FC9D03120135479E039E
:1008D300120135929E03120135D29E03120135187F
:1008E3009F03120135469F0312013503A003120132
:1008F300350DA0031201351AA0031201354DA003D3
:1009030012013519A10312013525A1031201353D49
:10091300A10312013547A103120135AF8704120168
:1009230035BD8704120135D58704120135ED8704DF
:10093300120135008002120135AC80021201352705
:1009430081021201354882021201358482021201AA
:10095300352D830212013514840212013578850284
:10096300120135CF8502120135508602120135403E
:1009730087021201358D8702120135138802120195
:1009830035458802120135598A021201359B8A02C4
:10099300120135B98A021201353C8B02120135105E
:1009A3008C02120135D88C0212013500800312012A
:1009B30035D380031201357C8103120135CF8103C6
:1009C3001201357F82031201350B8303120135F7C0
:1009D300830312013526840312013539850312017D
:1009E300358185031201355686031201359286033C
:1009F300120135AE8603120135358B0412013563BE
:100A0300FC0212013579FC021201359FFC0212012E
:100A130035BBFD02120135C5FD02120135FAFE0296
:100A2300120135F2FF02120135CA9203120135FA9F
:100A330093031201352D94031201357794031201A8
:100A4300353E96031201359FD20112013509D301B8
:100A530012013568D40112013578D401120135A58C
:100A6300D401120135FCD401120135A5D5011201BF
:100A730035ACD60112013576D701120135D6D8012E
:100A830012013519D901120135BED9011201350BF5
:100A9300DA0112013531DA011201353FDC011201AD
:100AA3003544DC0112013549DE0112013596DE01C0
:100AB30012013509DF011201353CDF01120135DE78
:100AC300DF0112013587E001120135BFE001120198
:100AD30035C2E0011201350AE1011201354AE10193
:100AE300120135A1E1011201350CE3031201352492
:100AF300E3031201356CE30312013582E3031201B0
:100B030035C9E303120135DDE4031201356AE50358
:100B1300120135B5E503120135EC4C00120135F82D
:100B23004C00120135334D00120135784D0012018E
:100B330035384E00120135BE4E00120135234F00E9
:100B43001201354F4F00120135884F00120135C68F
:100B53005100120135AA53001201359055001201BC
:100B630035D35600120135215900120135335A008D
:100B73001201357E5B001201358E5C00120135AB2C
:100B83005C00120135E65C00120135085D001201BC
:100B9300356B5D001201352C6200120135C1620014
:100BA3001201351263001201353963001201358BCE
:100BB3006300120135A963001201350364001201B9
:100BC30035EC6400120135626600120135E66600F9
:100BD300120135CEA103120135D8A1031201351B31
:100BE300A20312013536A203120135C6A203120174
:100BF30035EEA2031201352BA30312013562A303C1
:100C03001201358BA30312013500A403120135151C
:100C1300A4031201352AA4031201355BA4031201B4
:100C2300356FA40312013594A403120135CEA40336
:100C3300120135FAA40312013532A503120135B1AD
:100C4300A503120135FAA50312013524A6031201E7
:100C5300354FA603120135968604120135A1B80259
:100C6300120135CFB8021201351DBA02120135FD4A
:100C7300BA021201351CBB0212013599BB021201E3
:100C830035DCBB0212013532BD02120135F3BD0260
:100C93001201357AC0021201351BC102120135114E
:100CA300C2021201350EC30212013568C4021201D9
:100CB30035F3C4021201358D8104120135F6810426
:100CC3001201354A8204120135718204120135A2E0
:100CD3008204120135EBC10312013558C20312011C
:100CE300359FC203120135B7C303120135B3C403E1
:100CF30012013596C503120135DFE40212013521D5
:100D0300E502120135F3E502120135CCE6021201C8
:100D130035C6E702120135A8E80212013511E902CE
:100D2300120135C7E9021201353BEA02120135A768
:100D3300EA02120135D0EA021201354AEB0212012E
:100D430035E3EB0212013548EC021201355DEC028A
:100D5300120135A3EC02120135BCEC02120135215C
:100D6300ED0212013524ED0212013513E0031201E5
:100D7300353BE00312013579E00312013537E10316
:100D83001201359EE103120135BAE103120135E286
:100D9300E10312013512E20312013521E2031201CC
:100DA300359EE203120135C4E2031201358EE201DE
:100DB3001201356CE4011201359EE601120135DAA8
:100DC300E60112013507E701120135F1E7011201CE
:100DD300353CE80112013587E80112013599E80134
:100DE300120135D9E8011201350EE9011201355C12
:100DF300E9011201358BE901120135AEE901120156
:100E030035FBE90112013580EA011201359AEC0143
:100E1300120135D9EE011201351AEF01120135BC69
:100E2300F001120135FDF00112013570F1011201DB
:100E330035C6F1011201358CAB021201358AAC02C1
:100E430012013523B30212013544B5021201350FE5
:100E5300B70212013577B8021201354D670012014E
:100E630035FC67001201352968001201356F6800EF
:100E7300120135AF6900120135456B00120135BF10
:100E83006B00120135DA6B00120135556C0012014B
:100E930035AF6D001201350F6F001201351570006B
:100EA3001201357671001201358F7100120135ED93
:100EB3007100120135DB72001201350E730012014D
:100EC300357E7300120135F8730012013542740048
:100ED3001201350C7500120135E17500120135C0A0
:100EE30076001201354B7700120135B977001201F4
:100EF300352D780012013558780012013517790025
:100F03001201357C7A00120135997A00120135B845
:100F13007A00120135A97B00120135CE7B00120144
:100F230035F87B00120135737C00120135CD7C004E
:100F3300120135367E00120135E47E00120135259B
:100F43007F00120135F0F1011201353EF201120169
:100F5300354AF20112013528F30112013559F30123
:100F63001201358AF3011201350AF40112013542E7
:100F7300F40112013594F401120135D1F401120187
:100F830035EEF60112013514F901120135FFFA01AC
:100F9300120135E9FC01120135F0FF01120135158B
:100FA30099011201354599011201351EA001120163
:100FB30035A3A101120135A0A70112013588A801AB
:100FC300120135C5A801120135E8A801120135192E
:100FD300A90112013522A9011201352CA90112011F
:100FE300351AAA0112013510AB011201350684012D
:100FF3001201350588011201350B880112013546AE
:101003008F011201355F9401120135D6D20312010B
:10101300356CD30312013582D303120135F8D303A0
:101023001201356CD403120135AAD4031201351E03
:10103300D50312013597D503120135A0D50312014B
:1010430035ACD503120135C1D503120135FFD503E4
:1010530012013515D60312013574D6031201355822
:10106300C60312013565C6031201357FC60312019B
:1010730035BEC603120135FCC60312013561C70331
:1010830012013576C70312013581C7031201358E6C
:10109300C703120135A5C703120135B3C7031201F4
:1010A30035BEC703120135CAC703120135D9C703B9
:1010B300120135E4C70312013507C803120135AE27
:1010C300C803120135BEC803120135D8C803120183
:1010D30035F5C80312013511C90312013536C903A9
:1010E30012013541C90312013556C9031201356A8C
:1010F300C903120135CBC903120135D1C90312014A
:1011030035D7C903120135DDC903120135F5C9030A
:1011130012013528CA03120135629D02120135E618
:101123009D02120135959E02120135F49F021201B0
:101133003515A20212013501A30212013536A302AD
:1011430012013558A30212013507A402120135FF1B
:10115300A50212013528A602120135BAA602120110
:1011630035ECA602120135F9A60212013550A70289
:1011730012013576A702120135E3A902120135E601
:10118300AA021201353EAB02120135F18E021201A1
:1011930035FB8F02120135E29002120135EC900209
:1011A3001201350E91021201351A9102120135B363
:1011B3009202120135E29202120135FE93021201EC
:1011C30035579402120135BD95021201359C9602E2
:1011D300120135F89602120135659702120135A006
:1011E3009702120135DF9702120135989A02120114
:1011F30035B29A021201353E9B021201354C9B0215
:10120300120135A59B02120135B39B02120135264B
:101213009C021201358A9C02120135D49C021201F0
:101223003574C50212013596C502120135BCC702D9
:10123300120135D1CA02120135E9CB021201359CE4
:10124300CC021201357ECD0212013510F9031201D1
:101253003535F903120135A7F903120135E9F40213
:10126300120135F2F402120135FBF402120135D2F8
:10127300F50212013583F702120135B9F7021201A3
:1012830035F3F70212013529F80212013563F8022A
:1012930012013597F802120135C3F8021201350C19
:1012A300F90212013546F9021201358FF9021201D2
:1012B30035E7F9021201351CFA0212013577FA02F9
:1012C300120135B1FA0212013502FB02120135385F
:1012D300FB0212013572FB02120135A0FB0212015F
:1012E30035C3FB02120135008A041201352C8A042E
:1012F300120135878A04120135918A04120135A13E
:101303008A0412013548ED021201355DED02120126
:1013130035B9ED0212013524EE021201356CEE02ED
:10132300120135DEEE021201350DEF021201351BFB
:10133300EF021201357DEF02120135BBEF021201FC
:1013430035D6EF0212013571F0021201351AF1029E
:101353001201359DF102120135D6F10212013561F8
:10136300F202120135B8F20212013517F30212012B
:101373003529F3021201354FF30212013558F302F6
:10138300120135B2F4021201352A84041201350820
:101393008504120135EBEA0312013530EB03120128
:1013A3003576EB0312013508ED0312013586880407
:1013B300120135A18804120135B1880412013508E0
:1013C3008904120135557F00120135238703120169
:1013D3003543870312013549880312013595880384
:1013E300120135B5880312013508890312013575D9
:1013F3008903120135BB89031201351F8A031201C8
:1014030035CB8C031201354C8D03120135E8820470
:101413001201351983041201354383041201356324
:101423008304120135C1830412013567C00112011F
:101433003527C30112013515C70112013547C7010D
:1014430012013572C70112013566C801120135E96F
:10145300C801120135C1C901120135ECC9011201DC
:101463003517CA0112013542CA011201356DCA018D
:10147300120135A4CA01120135CFCA01120135FA8E
:10148300CA01120135A1CB0112013546CC0112016B
:1014930035EDCC0112013592CD011201353BCE0160
:1014A300120135E2CE011201358ACF0112013557FF
:1014B300D001120135E5D001120135AAD101120183
:1014C3003532B40312013585B403120135AEB403CA
:1014D30012013564B503120135CDB503120135DBB5
:1014E300B60312013588B8031201355D8D0312016D
:1014F30035B08D03120135D98D03120135FA8E03F0
:101503001201358D8F03120135DC90031201358DE5
:101513009203120135A5CA03120135F8CA03120159
:101523003515CB03120135EACB031201356BCC031E
:1015330012013542CD03120135B5CE03120135F147
:1015430097031201351698031201355198031201BE
:1015530035AB8A0412013500300012013511330016
:10156300120135A434001201354F3500120135F252
:1015730035001201358A3600120135B936001201E1
:1015830035723B00120135093C00120135453D001F
:10159300120135AD3D00120135613E0012013517D0
:1015A3004100120135514100120135BB41001201C6
:1015B30035194200120135774200120135D4420039
:1015C300120135C343001201350944001201354E9F
:1015D3004400120135714400120135B8450012016F
:1015E30035CC4500120135D54600120135144700AC
:1015F300120135404700120135934700120135B4FB
:101603004700120135F24700120135384A00120132
:1016130035794A00120135144B001201357F4B0016
:10162300120135B84C0012013558BD03120135AB18
:10163300BD03120135D4BD031201358ABE03120165
:1016430035F3BE0312013501C003120135AEC103E8
:10165300120135CEF303120135DEF30312013523F4
:10166300F40312013501F50312013599F503120153
:101673003565F70312013598F703120135B6F70301
:101683001201354FF8031201356CF803120135FED0
:10169300F803120135ABFF0312013564850412010F
:1016A300357485041201358885041201359086044A
:1016B3001201350CDD03120135B6DD03120135F8D5
:1016C300DF031201354CED0312013566ED03120100
:1016D30035C9ED0312013537EE03120135EDEE0383
:1016E3001201350CEF031201351CEF031201355BB8
:1016F300EF0312013598EF03120135B5FA03120116
:1017030035EFFA0312013562FB03120135ACFB031B
:10171300120135EBFB03120135FDFB0312013532D8
:10172300FC0312013556FC03120135A5FC0312011B
:1017330035D7FC0312013569FD03120135E5FD03BD
:10174300120135A4D603120135B8D603120135E1CF
:10175300D6031201350AD703120135D2D70312017A
:10176300351DD803120135D4D90312013500800485
:10177300120135338004120135AF8004120135CFD5
:1017830080041201353481041201357C8104120175
:10179300357F810412013577A60312013590A60324
:1017A30012013526A70312013517A8031201356C60
:1017B300AA03120135ACAA03120135EEAA031201E2
:1017C30035AAEF03120135BBEF0312013504F00311
:1017D30012013530F00312013550F003120135EFD9
:1017E300F003120135C2F103120135F7FD031201B3
:1017F3003546FE03120135D6FE0312013560FF03A1
:10180300120135F87F00120135DFE503120135C6F9
:10181300E70312013532E8031201357DE8031201B3
:10182300359FAF03120135F2AF031201351BB0032D
:10183300120135D1B0031201353AB1031201354813
:10184300B203120135F5B3031201350CAB031201D8
:10185300355FAB0312013588AB031201353EAC0390
:10186300120135A7AC03120135B5AD031201356280
:10187300AF03120135C5B80312013518B9031201BC
:101883003541B903120135F7B90312013560BA03C3
:101893001201356EBB031201351BBD03120135D492
:1018A300F1031201353BF203120135F8F203120181
:1018B3003576F303120135E6D90312013519DA033C
:1018C30012013521DB0312013545DC03120135DC3E
:1018D300DA02120135B8DB02120135FFDB02120115
:1018E300353CDC02120135AADC0212013504DD02AB
:1018F30012013574DD021201354CDE021201353F4F
:10190300DF02120135B6DF0212013559E10212017D
:1019130035E6E10212013559E202120135D5E20240
:10192300120135ECE20212013519E402120135739A
:10193300E40212013528AD01120135C0B1011201D3
:1019430035B1B401120135DAB401120135F1B40134
:101953001201351AB501120135CCB501120135B0AA
:10196300B701120135EAB8011201351EBE01120199
:101973003557BE011201359BBE01120135A7BF01C8
:1019830012013580E803120135D3E803120135381B
:10199300E90312013504EA03120135AEEA03120129
:1019A30035548904120135E5CE0312013538CF03CE
:1019B30012013561CF03120135FDCF0312013554F6
:1019C300D00312013557D10312013599D203120105
:1019D30035C4FF011201358DFF03E066701008A3C3
:1019E300E066700A08A3E066700408A3E06622C3F9
:1019F300E7960809E7960809E7960809E79622C3D8
:101A0300E09608A3E09608A3E09608A3E09622C018
:101A130008C3E096F50808A3E096420808A3E096F9
:101A2300420808A3E09645087001D3D008220808AD
:101A330008EAC0E0EBC0E086F0E7A4FA180986F0F4
:101A4300E7A42AFA180986F0E7A42AFA180986F007
:101A5300E7A42AFA1986F0E7A4FBE5F02AFA1908A5
:101A630086F0E7A42BFBE5F03AFA190886F0E7A421
:101A73002BFBE5F03AFA18180986F0E7A4C5F02B1A
:101A8300FBE43AFA1908E7C5F0C6A426F6E5F03BED
:101A9300FBE43AFA1886F0E7A4F6E5F00826F6E444
:101AA3003B08F6E43A08F6D0E0FBD0E0FA22E4CFB4
:101AB300C0E0E4CEC0E0E4CDC0E0E4CCC0E075F02B
:101AC30020E626F608E633F608E633F608E633F6AC
:101AD300181818EC33FCED33FDEE33FEEF33FFC380
:101AE300EC9709ED9709EE9709EF97191919400F2C
:101AF300FFEC97FC09ED97FD09EE97FE191906D542
:101B0300F0BFECF709EDF709EEF709EFF71919192B
:101B1300D0E0FCD0E0FDD0E0FED0E0FF226016086C
:101B23000808C6C313C618C613C618C613C618C6F4
:101B330013C6D5E0EA2270090808082260161818AF
:101B430018C6C333C608C633C608C633C608C63369
:101B5300C6D5E0EA22E627F60809E637F60809E6DD
:101B630037F60809E637F622E026F608A3E036F64C
:101B730008A3E036F608A3E036F622E026F008A331
:101B8300E036F008A3E036F008A3E036F022C3E61F
:101B930097F60809E697F60809E697F60809E6971F
:101BA300F622C3E096F008A3E096F008A3E096F0CF
:101BB30008A3E096F022E657F60809E657F6080967
:101BC300E657F60809E657F622E056F608A3E0566C
:101BD300F608A3E056F608A3E056F622E056F0080E
:101BE300A3E056F008A3E056F008A3E056F022E085
:101BF300F608A3E0F608A3E0F608A3E0F622E6F071
:101C030008A3E6F008A3E6F008A3E6F022E0FAA3AF
:101C1300E0FBA3E0FCA3E0FD22EAF0A3EBF0A3ECDE
:101C2300F0A3EDF022E0F8A3E0F9A3E0FAA3E0FBD0
:101C330022E8F0A3E9F0A3EAF0A3EBF022CAC0E0A4
:101C4300E6F0A308DAFAD0E0FA22CAC0E0E0A3C5BE
:101C530082CCC582C583CDC583F0A3C582CCC582A2
:101C6300C583CDC583DAE6D0E0CA22C3E498F8E49D
:101C730099F9121CAF8026C3E49AFAE49BFBE9208E
:101C8300E7E9121CAFE498F8E499F922C3E498F861
:101C9300E499F9121CAFE498F8E499F9C3E49AFAC9
:101CA300E49BFB22EB20E7CFE920E7E0B90010BB80
:101CB3000008E88AF084F8AAF022E4FBC8FA22EBD1
:101CC30070227B10C833C8C933C9335007C39AC3C2
:101CD300DBF280069A50012ADBEAC833F4C8C93321
:101CE300F4C9FA2275F008E4C833C8C933C933C943
:101CF3009AC99B5004C92AC93BD5F0ECFBC833F4FD
:101D0300C8E4C9FA22600D08C6A2E713C618C613B1
:101D1300C6D5E0F322600C08C6C313C618C613C6A3
:101D2300D5E0F422700422600D18C6C333C608C67A
:101D330033C6D5E0F41822251810AF08F518400C67
:101D430015198008F51840021519D2AF2200C0D02A
:101D5300251810AF08F518500C05198008F5185010
:101D6300020519D2AFD0D0222518F58210AF08F59D
:101D730018400C15198008F51840021519D2AF85C3
:101D83001983222518F582E43519F583222518F8DD
:101D9300E43519F9222518FAE43519FB222518FC34
:101DA300E43519FD22E4732518C582C0E0E5193432
:101DB300FFC583C0E0E518C3958224F810AF0885FA
:101DC30083198582188008858319858218D2AFCE3E
:101DD300F0A3E520F0A37808E608F0A3DEFAEFF01D
:101DE300A3E58124FAF8E608F0A3E608F0A3E608E1
:101DF300F0A30808E608F0A3E608F0A3158115810F
:101E0300D0E0FED0E0F8158115811581E8C0E0EE41
:101E1300C0E0222518C582C0E0E51934FFC583C0A0
:101E2300E0E518C3958224F910AF088583198582EC
:101E3300188008858319858218D2AFCEF0A3E520D8
:101E4300F0A37808E608F0A3DEFAEFF0A3E5812417
:101E5300FBF8E608F0A3E608F0A30808E608F0A3F9
:101E6300E608F0A315811581D0E0FED0E0F81581D6
:101E73001581E8C0E0EEC0E022851983851882E071
:101E8300A3FEE0A3F5207808E0A3F608DFFAE0A3B9
:101E9300FFE0A3C0E0E0A3C0E0E0A3C0E0E0A3C094
:101EA300E0E0A3C0E010AF0885821885831980089D
:101EB300858218858319D2AFD083D08202013285FF
:101EC3001983851882E0A3FEE0A3F5207808E0A338
:101ED300F608DFFAE0A3FFE0A3C0E0E0A3C0E0E080
:101EE300A3C0E0E0A3C0E010AF0885821885831982
:101EF3008008858218858319D2AFD083D08222C00F
:101F0300D02518C582C0E0E51934FFC583C0E0E5DC
:101F130018C3958224F310AF08858319858218802E
:101F230008858319858218D2AFC8F0A3E9F0A3EA24
:101F3300F0A3EBF0A37908E709F0A3D8FAECF0A338
:101F4300EDF0A3EEF0A3EFF0A3D0E0F0A3D0E0F028
:101F5300A3D0E0F0A3E520F0A3E5F0F0A3228519D8
:101F630083851882E0C0E0A3E0F9A3E0FAA3E0FBD5
:101F7300A37808E0F608A3DFFAE0FCA3E0FDA3E002
:101F8300FEA3E0FFA3E0C0E0A3E0C0E0A3E0F5D040
:101F9300A3E0F520A3E0A3F5F010AF08858319852E
:101FA30082188008858319858218D2AFD082D083A6
:101FB300D0E0F8D0E0327404800674028002740129
:101FC300C0E0F404121D6BD0E0121C4022740480A4
:101FD3000474028000CCC0E0EDC0E0E518C39CCCE3
:101FE300AD1950011D10AF068C188D1980068C1881
:101FF3008D19D2AF121C4DD0E0FDD0E0FC22D0836E
:10200300D082E9C0E0E493A3C386F0C5F095F0F96C
:1020130008E493A386F0C5F095F0700BE493A3C393
:10202300994005E9048002A3E475F002A42582F532
:1020330082E5F03583F583D0E0F9E493A3C0E0E4CF
:1020430093C0E022D083D082ECC0E0EDC0E0E49303
:10205300A3FCE493A3FDED4C600D122093EC24FF4D
:10206300FCED34FFFD80EFE493A3FCE493A3FDEDCB
:102073004C600D1220D2EC24FFFCED34FFFD80EF09
:10208300D0E0FDD0E0FCE493A3C0E0E493C0E02201
:10209300C0E0C3E49396087401939618400FE49349
:1020A30066700808740193661870007019A3A3C3BF
:1020B300E49396087401939618A3A3400DD0E0D03F
:1020C300E0D0E0022083A3A3A3A3A3A3D0E022C074
:1020D300E0C0F088F0E49366700808740193661812
:1020E3007000A8F0A3A3700BD0F0D0E0D0E0D0E054
:0A20F300022083A3A3D0F0D0E02266
:1021000074F5121E16EAFEEBFFEE2434F8EF3400ED
:10211000F988088909EE2435F582EF3400F583E06B
:10212000F8EE2437F582EF3400F583E0F50AEC850C
:102130000AF0A4FCAAF0850AF0EDA42AFDE82CF828
:10214000E43DF97A257B00121CAFEA8508828509F7
:1021500083F0F8740758F97401B900028004C3339E
:10216000D9FCFAE8131313541FF8EE28F8EF3400E3
:10217000F9E8245DF582E93400F583E05A6008EE61
:102180002434F582EF802CEE2434F582EF3400F510
:1021900083E0C0E0EE2436F582EF3400F583E0F50D
:1021A000F0D0E084A8F0EE28F8EF3400F9E8243805
:1021B000F582E93400F583E0F97F04021EC274F56C
:1021C000121E16EAFEEBFFEE2434F582EF3400F522
:1021D00083E0C0E0EE2435F582EF3400F583D0E0F3
:1021E000F08E828F83A3A3A3A3A3A3A3C082C083E3
:1021F0008E828F83A3A3A3A3A3E0F8A3E0F9D083E7
:10220000D082E0C398F508A3E099F509EE247FF5A4
:1022100082EF3400F583E064017069EE2480F5827A
:10222000EF3400F583E0F8A3E0F98E828F83A3A357
:10223000A3A3A3A3A3E0FCA3E0FD8E828F83A3A3AB
:10224000A3A3A3E0FAA3E0FBC3EA9CEB9D5010C359
:10225000EC98ED99402EC3EA98EB995027800EC375
:10226000EA98EB994007C3EC98ED9940177CDC7D28
:1022700004EEFAEFFB120EF7EE247FF582EF340046
:10228000F583E4F0EE2434F8EF3400F9E8FCE9FDDE
:10229000EE2435F582EF3400F583E0F8EE2437F5CF
:1022A00082EF3400F583E0F50AE508850AF0A4F52D
:1022B00008AAF0850AF0E509A42AF509E82508F836
:1022C000E43509F97A257B00121CAFEA8C828D83F4
:1022D000F0F8740758F97401B900028004C333D9C7
:1022E000FCFAE8131313541FF8EE28F8EF3400F942
:1022F000E8245DF582E93400F583E05A6008EE24B5
:1023000034F582EF802CEE2434F582EF3400F5832F
:10231000E0C0E0EE2436F582EF3400F583E0F5F01E
:10232000D0E084A8F0EE28F8EF3400F9E82438F57E
:1023300082E93400F583E0F9122F3B0221B9C08213
:10234000C083851882851983E0F8A3E0F9C3EA9C6D
:10235000EB9D5010C3EC98ED99401BC3EA98EB99A4
:102360005014800EC3EA98EB994007C3EC98ED999E
:102370004004790180027900D083D08222EAC39C94
:10238000FAEB9DFB2274EF121E169003A2E0640884
:102390006005E06407702A9061C8E060249003D073
:1023A000E0F4601DE0F875F003A4C8AAF02AF974FF
:1023B000D228FE740339FF8E828F83A3A3A3E0701B
:1023C000030224B5906060E0C0E0EE2468F582EF7F
:1023D0003400F583D0E0F0750C45750D05750800E7
:1023E000750900E5D914F50AE5D95403F50E60170F
:1023F0007403650E605CE50A6010EE2467F582EFF9
:102400003400F583E0700302249A900540E06401F3
:10241000602AEE2482F582EF3400F583E0600478D0
:102420000480027800850A08E508C398FA95E0FB65
:10243000120DBF8A088B09EA450970051210FB804E
:1024400074EE2482F582EF3400F583E070048A0C88
:102450008B0DE50A6012850C82850D83F50BE5D99D
:10246000F0A3150BE50B70F6EE2482F582EF340035
:10247000F583E0604474FC250AF50A780C121FBD50
:10248000AC0AA90EEEFAEFFB120F937402121D5064
:10249000E97026AA08AB091218A5793D8E828F83B0
:1024A000A3A3A3A3E0FA7B00120C93EEFAEFFB12B6
:1024B0000F0F120FA5790080747403650E605685A6
:1024C0000A107511007810121FBDAC0CAD0DAA08D2
:1024D000AB09120F6F7402121D50EE2468F582EFE3
:1024E0003400F583E064807004747F8001E0F50CB3
:1024F000780C121FC1E50EF50C780C121FC1A90A49
:10250000AC08AD099003D0E0FA7B00120C577402BE
:10251000121D5080139003A2E06408600BAC0CAD58
:102520000DEEFAEFFB120FFF12110779017F0A027D
:102530001EC274F5121E1674FC121D3AEAFEEBFF61
:102540008908A2AFE433F509C2AF806AEE2463F8CC
:10255000EF3400F97A007B00A2AFE433F50AC2AF92
:1025600088828983E0FCA3E0FDEC4D603A88828993
:1025700083E0FAA3E0FB8A828B83E0FCA3E0FD8882
:10258000828983ECF0A3EDF08A828B83E4F0A3F0E0
:1025900088828983E0FCA3E0FDEC4D700A88828983
:1025A00083A3A3E4F0A3F0E50AA2E092AF1218A57A
:1025B0009004E3E004F0EE2463F582EF3400F58349
:1025C000E0F8A3E0F9E849603DEE2463F582EF34DA
:1025D00000F583E02402FAA3E03400FBEA2402F5CC
:1025E0000AEB3400F50B780A121FBD8A828B83E058
:1025F000FCA3E0F9EEFAEFFB120F337402121D5048
:10260000E9700302254C9004E3E060639004E4E089
:10261000F89004E3E0C398500C7402650870509081
:1026200004E5E0604A8E828F83A3A3A3A3E085180C
:1026300082851983F0A3E4F09004E3E0F8740212B9
:102640001D86E8F0A3E4F09004E3E0F89004E2E0F3
:1026500028F07402121D86AC82AD8385188285191C
:1026600083AA82AB837901120C639004E3E4F0E562
:1026700009A2E092AF7404121D500221B9000000BB
:102680008521878522C622C0E0C0D0E8C0E0E9C02D
:10269000E0EAC0E0EBC0E0ECC0E0EDC0E0EEC0E09E
:1026A000C008C009C00AC00BC082C083C0F0A2AF7E
:1026B000E433FEC2AF759B00906182E0A2E050124D
:1026C000E591A2E0500C7591FE7401652170031232
:1026D0002385E0A2E55051E591A2E5504B7591DFCD
:1026E0009003A2E064076005E0640870237401654C
:1026F00021703579019003D0E0FA75F003A4CAA8DF
:10270000F028FB74D22AFA74033BFB12253280189E
:10271000E0640D70139003C4E004F064287002E4D8
:10272000F07A00E0F912110D906182E0A2E6400318
:102730000227CEE591A2E640030227CE7591BF9015
:1027400003A2E064057008121035121041800312D4
:10275000103B75210012109BE99003A3F079001241
:10276000108F120E6D7A017B009003A1E0F9121315
:102770005F907803E064427055900544E014F07077
:102780004DC2AF12278600782AD0E0F618D0E0F6C6
:10279000E59F540770057509FF800375097FC4C064
:1027A000E07829E6F50808E65509F509740B78087C
:1027B000121D18D0E02508F8906270E0A2E740F8FA
:1027C000E8C333906272F0906270E0D2E0F0906102
:1027D00081E0A2E35009E5E9A2E3500375E9F7A31C
:1027E000E0A2E75009E591A2E7500375917FEEA2C0
:1027F000E092AFD0F0D083D082D00BD00AD009D0F5
:1028000008D0E0FED0E0FDD0E0FCD0E0FBD0E0FA64
:10281000D0E0F9D0E0F8D0D0D0E032C0E0C0D0C0F5
:1028200082C083906183E0A2E05009E5BFA2E0503E
:102830000375BFFEE0A2E15009E5BFA2E1500375B8
:10284000BFFDE0A2E25009E5BFA2E2500375BFFB65
:10285000E0A2E35009E5BFA2E3500375BFF7E0A291
:10286000E45009E5BFA2E4500375BFEFE0A2E550D4
:1028700009E5BFA2E5500375BFDFE0A2E65009E518
:10288000BFA2E6500375BFBFD083D0828088C0E06E
:10289000C0D0E8C0E0E9C0E0EAC0E0EBC0E0ECC0D6
:1028A000E0EDC0E0C0F0E5A7A2E6500FE5A1A2E68A
:1028B000500953A7BF75A1BF1228F3E5A7A2E550A1
:1028C0000CE5A1A2E5500653A7DF75A1DFE5A7A29D
:1028D000E15009E5A1A2E1500375A1FDE5A7A2E23F
:1028E000500CE5A1A2E2500653A7FB75A1FBD0F066
:1028F00002280474F8121E167521019003A2E064E8
:10290000067015120FC38A828B83A3A3A3A3A3A36C
:10291000E0FAA3E0FB121023A2AFE433FED2AF90A3
:1029200003A8E0640170187A207B009003A1E0F90D
:102930001213EF7A207B009003A1E0F91213659047
:102940006182E0D2E6F0900541E0602185C62280F8
:10295000169003A7E064017008E5C654F84405F535
:10296000C653BEFC1226807401652160E4EEA2E02D
:1029700092AF7F01021EC2008E238F24858228859C
:102980008327851882851983E0CEA3E0CF8528822E
:10299000852783EBC9EAC8EDCBECCA75F010C3E814
:1029A00033C8E933C9EA33CAEB33CBC3EA9EF52611
:1029B000EB9FF525B35004AB25AA26EC33CCED33C1
:1029C000CDD5F0DAAE23AF242274E9121E1674F8C6
:1029D000121D3A851882851983ECF0A3EDF08A0860
:1029E0008B099003A2E024F7C394055006750801F3
:1029F000022B60120FC38A0A8B0BAE0AAF0BEE4F8D
:102A00007003022B5DAC08AD097402121D86AA8208
:102A1000AB831210538E828F83A3A3750CFF750DA9
:102A2000FF750EFF750F00780C121BCC7402121D7F
:102A3000867510FF7511FF7512FF7513007810125F
:102A40001BCC780C79101219F2502A780C791012DC
:102A50001B917508017509C8750A00750B00780887
:102A6000790C1219F25052850C08850D09850E0A51
:102A7000850F0B80507514017515C87516007517F4
:102A80000085100885110985120A85130B780879CD
:102A90000C121B91781479081219F2401C75080069
:102AA000750900750A00750B0178087910121B91E1
:102AB0007808790C121B58800C750801750900758F
:102AC0000A00750B0074097808121B39750C19F58A
:102AD0000DF50EF50F7808790C121AB18E828F83DE
:102AE000A3A3A3A3A3A3E0F8A3E0F97AD07B0312E6
:102AF0001CAF880C890DE4F50EF50F7808790C12DF
:102B00001B587406121D86E0F8A3E0F97AD07B0307
:102B1000121CAFE8FA8A0CE4F50D7808790C12194A
:102B2000F250077808790C121B919003A2E0640818
:102B3000600AE064066005E06405702D750C0D7890
:102B40000C79081219F24021750CF4750DFF750E01
:102B5000FF750FFF7808790C121B58800C75080060
:102B6000750900750A00750B00851882851983E0C8
:102B7000F8A3E0F58388827808121C017408121DFE
:102B8000507F10021EC274F7121E161210659005B7
:102B90003FE064017010906245E4F0A3F053F4F359
:102BA00043FE0C5390F3121011E5C654804449F5CE
:102BB000C6E59E547F644970F8906185740FF0906B
:102BC000053DE0F47002A3E0604E90053EE0600831
:102BD00014601B14602E8040750801750900900573
:102BE0003DE07808121D27E508F45280802A750818
:102BF0000175090090053DE07808121D27E508F4ED
:102C00005290801475080175090090053DE0780820
:102C1000121D27E508F452A079007F02021EC2743B
:102C2000F7121E16E9FEEAFF74016E700C7A807BC3
:102C3000009003A1E0F912135F902FF8E493F46081
:102C400008E493F9120E61800953C680E59E547F13
:102C500070FA12101790053FE064017003120E79AC
:102C600090053DE0F47002A3E0604B90053EE0600B
:102C70000814601A14602C803D75080175090090D5
:102C8000053DE07808121D27E50842808028750878
:102C90000175090090053DE07808121D27E50842FE
:102CA00090801375080175090090053DE0780812C1
:102CB0001D27E50842A0121065120FC38A088B0970
:102CC000A808A909E8496015E5E170FCE82414F5B5
:102CD00082E93400F583E0F46003E0F5E174016F0C
:102CE000700A7A019003A1E0F91213B9022C1A7448
:102CF000ED121E168A088B098C0A8D0B7413121D97
:102D000086780C121BF27808790C1219F2751001F2
:102D10007511C875120075130050127808790C12DD
:102D20001B91781079081219F250168010780C79DE
:102D300008121B917810790C1219F2400479018065
:102D40000279007F0C021EC274ED121E168A088BD7
:102D5000098C0A8D0B7413121D86780C121BF278E5
:102D60000C79081219F240117808790C121B91AAFB
:102D700008AB09AC0AAD0B80227510007511007507
:102D800012007513017810790C121B9178107908D4
:102D9000121B58AA10AB11AC12AD1380A68A828BFD
:102DA000837508FF7509FF750AFF750B0078081217
:102DB0001BDF7F04021EC274F5121E168C828D83E7
:102DC0007808121BF28A828B837808121BA5EA24EA
:102DD00004F8EB3400F98C828D83A3A3A3A3E0FC59
:102DE000A3E0FD88828983C3E09CF0A3E09DF08886
:102DF000828983C3E09420A3E0944E40268A828B8C
:102E0000837508FF7509FF750AFF750BFF780812B7
:102E10001B7E8A828B83A3A3A3A3E02420F0A3E0DC
:102E2000344EF0022D9D74F5121E16E9FE9004F743
:102E3000E0FAA3E0FBEEC333F8E433F974F528F5C8
:102E400082748039F583E02AF508A3E03BF5097820
:102E500008121FBD7A407B427C0F7D0012297874D6
:102E600002121D508A088B098C0A8D0B7410780889
:102E7000121B20AA08AB097F04021EC274F1121EA5
:102E8000168A0C8B0D8C0E8D0F740F121D86E0FAB6
:102E9000A3E0FB7411121D86E0F508A3E0F50978A4
:102EA00008121FBDEA2401F508EB3400F509E4F52A
:102EB0000AF50B780C7908121A3175087175090238
:102EC000780C7908121A31AA0CAB0DAC0EAD0F12AA
:102ED00029787402121D508B09EA450960047A01B1
:102EE00080027A00EC2AFCED3400FD7413121D867A
:102EF000E0F8A3E0F9E8FEE9FFECF8EDF97A717B80
:102F000002121CAF880889098E828F837808121CF0
:102F100001ECF8EDF97A717B02121CAF8A088B097B
:102F200074057808121D278E828F83A3A3A3A3E5BF
:102F300008F0A3E509F07F08021EC2C082C083E941
:102F4000906000F0D083D08222C2AF02000022C085
:102F5000E074F2121F02A2AFE433FED2AFE589A201
:102F6000E05003121785758900C2C5EEF8EEA2E0A5
:102F700092AF7F01021F61C0E074F2121F02A2AF84
:102F8000E433FED2AFE58AA2E64006E58AA2E75026
:102F900003121785758A00758A00C2EBEEF8EEA25F
:102FA000E092AF7F01021F61C0E0C0D0E8C0E0E95D
:102FB000C0E0A2AFE433F8D2AF758B00C2E8E8F905
:102FC000E8A2E092AFD0E0F9D0E0F8D0D0D0E03283
:102FD000C0E0C0D0E8C0E0E9C0E0A2AFE433F8D27E
:102FE000AFC2C7751A00E8F9E8A2E092AFD0E0F9E5
:102FF000D0E0F8D0D0D0E032FFFFFFFFFFFFFFFFAF
:1030000074EE121DAA74FA121D3A8A0A8B0BE9FF9C
:103010008C088D097E00850A0C850B0D780C12201A
:1030200001000410DD3248306B308A30AD30D030D2
:10303000F330243147315E318E313E326132843299
:10304000B232DD32DD32B73174016F70198508821A
:10305000850983E0C39403500D850882850983E0C8
:10306000900DAEF080027E1802330574026F701569
:10307000850882850983E0F8A3E0F9900DAFE8F0B8
:10308000A3E9F080027E1802330574016F70198580
:103090000882850983E0C39402500D850882850962
:1030A00083E09007C0F080027E1802330574016F40
:1030B0007019850882850983E0C39405500D850841
:1030C00082850983E09007C1F080027E18023305F3
:1030D00074016F7019850882850983E0C3940250DA
:1030E0000D850882850983E09007C2F080027E1872
:1030F00002330574106F7027750C10750D00780C75
:10310000121FBDAC08AD097AC37B0712130B740202
:10311000121D508A0C8B0D850C82850D8380027EDA
:103120001802330574016F7019850882850983E0E0
:10313000C39402500D850882850983E09007D3F07F
:1031400080027E1802330574016F700D8508828538
:103150000983E0900DB2F080027E180233057404FA
:103160006F702690835C780C121BF28508828509AB
:1031700083780C121A025011850882850983121C6B
:10318000289007D5121C3480027E18023305EF7098
:1031900021120A11E970131215CFE9F50C795012BA
:1031A000192FE9F50D1215BD800A9008687401F019
:1031B00080027E1802330574076F707D750E0675E8
:1031C0000F00780E121FBD850882850983A3AC828B
:1031D000AD837402121D981213117402121D508ACD
:1031E000108B1185100E85110F7C007D00AA18AB85
:1031F00019850882850983E0F9121563E9F50CE564
:103200000CC3940A502F120A11E97015A90C12155B
:10321000D5E9F50D795012192FE9F50E1215BD807B
:103220001A750D007469250CF5827408350DF58347
:103230007401F080067E0280027E1802330574015C
:103240006F7019850882850983E0C39402500D854B
:103250000882850983E09007D4F080027E1802334B
:103260000574016F7019850882850983E0C3940A8B
:10327000500D850882850983E0900DB1F080027EB3
:103280001802330574016F7025850882850983E073
:10329000C394074019850882850983E0C3941150BF
:1032A0000D850882850983E0900DB3F080577E1864
:1032B000805374016F7022900867E0F50C850882D6
:1032C000850983E0900867F0E50C7039900867E0A5
:1032D000640170311215BD802C7E188028C3E50A68
:1032E0009427E50B9400501B74026F7016850882BA
:1032F000850983E0FCA3E0FDAA0AAB0B1208AFE945
:10330000FE80027E02EEF97406121D507F0A021E34
:103310007C74EC121DAA74DA121D3A890D8A128B84
:10332000138C0A8D0B743A121D86E0F50C90831CE9
:10333000AC18AD197406121C4DAC18AD19AA12AB1D
:1033400013A90D121563E9FEEEC3940A400302347B
:1033500083EEF912159FE9FF900DAEE06402700450
:10336000740180027400F5087808121FC1AD0CEFDB
:10337000FCEEF9AA0AAB0B1216117401121D507C57
:10338000147D0079007412121D981213238A0E8B7B
:103390000F850E08850F097412121DA07A1075F0A2
:1033A00006EEA42424F9121929E9703B7C1079FF58
:1033B0007412121D98121383E9702C7422121D8648
:1033C000AC82AD837A0475F006EEA42425F91219B7
:1033D00029E9F5087412121DA0EFA2E0E433F9AA5E
:1033E0000AAB0B120939E97406121DA07A0C74702D
:1033F0002EF9121929E970797406121D9812159385
:10340000750E00E50EC394045067E50EF87900E8E8
:1034100075F003A4C8AAF075F000A42AFA75F003A9
:10342000E9A42AF97406121D86E58228F508E583C9
:1034300039F509850882850983E0F8A3E0F9E849B0
:10344000602B850882850983A3A3E0F51075110020
:103450007810121FBD850882850983E0FCA3E0FD7A
:10346000AA0AAB0B120B9D7402121D50E9050E80C7
:1034700092EFA2E1500D9007BFE0F9AA0AAB0B1240
:103480000BA3E97404650C700F900DAEE06402703C
:1034900007AA0AAB0B12160B79007426121D507F77
:1034A0000C021E7C74F2121DAA890BEAFEEBFF8C43
:1034B000088D09750A0AE50B600C14600914604454
:1034C000146064023548EEFAEFFB1215B1E9F50A13
:1034D000E50AC3940A5071E5084509606B750C064E
:1034E000750D00780C121FBDEEFCEFFDAA08AB09AC
:1034F00012130B7402121D508A0C8B0D850C8285E1
:103500000D838044EEFAEFFB1215ABE9F50AE50AEC
:10351000C3940A5033E5084509602DAA08AB09A9F0
:103520000A1215A5E98021EEFAEFFB1215B7E9F5AD
:103530000AE50AC3940A5010E5084509600AAA087A
:10354000AB09A90A1215A5E9A90A7F06021E7C7417
:10355000F2121DAA8A0C8B0DE9FE7F1574FF650C13
:10356000700474FF650D702A750800E508C3940A9D
:103570005014EEFC7A027B00A908121581E9600262
:103580007F00050880E5EE60627AF97B15120DA1D7
:103590008059AA0CAB0D120D838A0A8B0B850A0881
:1035A000850B09E508450960407C007D00E508249D
:1035B00005FAE43509FB850882850983A3A3A3A343
:1035C000E0F9121563E9F50AE50AC3940A500EEE14
:1035D000FC7A027B00A90A121581E97F00EE600BDC
:1035E000AA08AB091215F980027F14EFF97F0602D1
:1035F0001E7C74EE121DAA8A0E8B0F8C0A8D0B7422
:1036000012121D86E0F50CA3E0F50D75081574FF88
:10361000650E700474FF650F701E7E00EEC3940A81
:103620005061AC0CAD0DAA0AAB0BEEF9121587E98F
:1036300060037508000E80E4AA0EAB0F120D838A9A
:10364000108B11AE10AF11EE4F60357C007D00EE97
:103650002405FAE43FFB8E828F83A3A3A3A3E0F9A2
:10366000121563E9F509E509C3940A5016AC0CADCF
:103670000DAA0AAB0BA909121587E975080080038A
:10368000750814A9087F0A021E7C74F7121DAAEAA5
:10369000FEEBFF9007D9EEF0A3EFF09007BFE0FC40
:1036A0007D007A267B001208AFE9F5089007BFE09D
:1036B000F9120B197F01021E7C74F2121DAA74EC20
:1036C000121D3A8A0A8B0B850A82850B83A3A3E01D
:1036D00024FA7003023AF824FD700302397514705D
:1036E000030237A914601024FD700302391D147001
:1036F000030239B3023B66AE0AAF0B9007D9E0F87C
:10370000A3E0F9E84960669007D9E0F8A3E0F58303
:103710008882E0F8A3E0F9E8496052EE240CF582D3
:10372000E43FF583E0F5087808121FC1EE240BF59D
:1037300082E43FF583E0F98E828F83A3A3A3A3A342
:10374000A3A3A3A3E0FCA3E0FDEE2403FAE43FFB64
:103750009007D9E0F8A3E0F5838882E0F8A3E0F5CC
:10376000838882121DA87401121D5080398E828FA9
:1037700083A3A3A3A3A3A3A3A3A3121FD49007D59A
:10378000121C1012094B7402121D50E960187901C5
:103790008E828F83A3A3A3A3A3A3A3A3A3E0FAA3CF
:1037A000E0FB120945E9023B66AE0AAF0B8E828F41
:1037B00083A3E060030238CB8E828F83A3A3A3A3ED
:1037C000A3E0A2E040030238CB900873E0F8A3E046
:1037D000F9E84960030238CB7C0E7D007900AA1815
:1037E000AB191213238A088B09AA08AB09EE240C23
:1037F000F582E43FF583E0F8A3E0F9E84960367527
:1038000008067509007808121FBDEE240CF582E445
:103810003FF583E02410FCA3E03400FD7402121D88
:103820009812130B7402121D508A088B09850882A6
:10383000850983804F8E828F83A3A3A3E0FAA3E040
:10384000FB120D838A0C8B0D850C08850D09E5088C
:103850004509602D750C06750D00780C121FBDE52D
:10386000082405FCE43509FD7402121D9812130B9F
:103870007402121D508A0C8B0D850C82850D83807D
:1038800003023B668E828F83A3A3A3A3A3E0A2E2DD
:103890005004D2F08002C2F0A2F0E433F879007450
:1038A0000C121D86E048F0A3E049F0EEFCEFFDAA03
:1038B00018AB19121599E970127A027B009007BFB4
:1038C000E0F912135FE97900023B689007D9E0F84C
:1038D000A3E0F9E84960439007D9E0F8A3E0F58355
:1038E0008882A3A3E0F8A3E0F9E849602D8E828FD7
:1038F00083A3E0FC79018E828F83A3A3A3E0FAA3C4
:10390000E0FB9007D9E0F8A3E0F5838882A3A3E069
:10391000F8A3E0F5838882121DA8023B66AE0AAFC9
:103920000B9007D9E0F8A3E0F9E84960459007D982
:10393000E0F8A3E0F5838882A3A3E0F8A3E0F9E828
:1039400049602F850A82850B83A3E0FC79028E8271
:103950008F83A3A3A3E0FAA3E0FB9007D9E0F8A329
:10396000E0F5838882A3A3E0F8A3E0F583888212C0
:103970001DA8023B66AE0AAF0B7C007D00EE24045E
:10398000FAE43FFB8E828F83A3A3A3E0F9121563B1
:10399000E9F508E508C3940A5016EE240AFCE43F52
:1039A000FD7A0475F006E508A42425F9121923E927
:1039B000023B66AE0AAF0B9007D4E06018900DB1E1
:1039C000E0F98E828F83A3A3A3E0FAA3E0FB1209A0
:1039D00045E9023B66900DAEE0701579058E828F49
:1039E00083A3A3A3E0FAA3E0FB120945E9023B6627
:1039F0008E828F83A3A3A3E0FAA3E0FB120D838A38
:103A00000C8B0D850C08850D098E828F83A3A3A3D3
:103A1000A3A3A3A3E0A2E05071E50845096068856F
:103A20000882850983A3A3A3A3E0605E8E828F83AF
:103A3000A3A3A3A3A3A3A3A3A3E0F8A3E0F9E8C4CB
:103A4000540FF87900E85401F8E95400F9E8A2E0CD
:103A50004038740E121DA0E5082405FAE43509FB70
:103A6000850882850983A3A3A3A3E0F9121563E95E
:103A7000701879038E828F83A3A3A3E0FAA3E0FBDF
:103A8000120945E9023B66023B66EE2405FCE43F71
:103A9000FD850882850983A3A3A3A3E0F98E828F05
:103AA00083A3A3A3E0FAA3E0FB1216059007D9E0D5
:103AB000F8A3E0F9E849603E9007D9E0F8A3E0F503
:103AC000838882A3A3E0F8A3E0F9E84960287C009A
:103AD00079008E828F83A3A3A3E0FAA3E0FB900773
:103AE000D9E0F8A3E0F5838882A3A3E0F8A3E0F58A
:103AF000838882121DA8806E120A11E970689008EE
:103B000068E06401701A1215CFE9FE90086874002D
:103B1000F07C0A7D0079007A697B08121323803CCF
:103B20007E00EEC3940A50348E087509007469252E
:103B300008F58274083509F583E06401701BEEF91D
:103B40001215D5E9F88E0875090074692508F58203
:103B500074083509F5837400F00E80C67950121987
:103B60002FE9FE1215BD79017414121D507F060253
:103B70001E7C74F3121DAA74F2121D3A8909EAFE22
:103B8000EBFF8C0CAC18AD197A0E75F006E509A4A4
:103B90002420F9121929E970647C0679FFAA18AB70
:103BA00019121383E97056740C121D86E0F8A3E015
:103BB000F9E8F508E50C6005EE42088004EEF452E1
:103BC0000885080A750B00740C121D86E0650A70E2
:103BD00004A3E0650B6022E508F87900740C121D5F
:103BE00086E8F0A3E9F0AC18AD197A0E75F006E599
:103BF00009A42420F9121923E979018002790074BB
:103C00000E121D507F05021E7C74F0121DAA74E670
:103C1000121D3A890B8A0C8B0DECFEEDFF740C1211
:103C20001DA07A0E75F006E50BA42420F9121929BF
:103C3000E96003023D397C0679FF740C121D98126D
:103C40001383E96003023D39AC18AD197A0C747026
:103C5000250BF9121929E96003023D35750A00AAFE
:103C600018AB19121593E50C450D702E7C0C7900DC
:103C7000AA18AB19121383E96003023D1B7C0C7D6B
:103C8000007900AA18AB191213238A088B0985083A
:103C900082850983750A01023D1BAC18AD19AA0C77
:103CA000AB0D12158D8A0E8B0F850E08850F09E559
:103CB0000845097030EE4F601BAC18AD197A007BD7
:103CC0000012158D8A0E8B0FA80EA90F880889097E
:103CD000E849700479008063850882850983E50CD2
:103CE000F0A3E50DF0850882850983A3A3E0F879A8
:103CF00000EE687002EF696022EEC0E08508828500
:103D00000983A3A3D0E0F0EE4F700D8508828509EA
:103D1000837400F0A37400F0750A01E50A6016AA26
:103D200018AB19121593AC18AD197A0C7470250BD9
:103D3000F9121923E9790180027900741A121D50D1
:103D40007F08021E7C74F7121DAAEAFEEBFF7B00BF
:103D5000EBC39404504EEBF87900E875F003A4C867
:103D6000AAF075F000A42AFA75F003E9A42AF9EC88
:103D700028F582ED39F583E06E7003A3E06F7021C2
:103D8000EBF87900E875F003A4C8AAF075F000A478
:103D90002AFA75F003E9A42AF9EC28FAED39FB8038
:103DA000070B80AC7A007B007F01021E7C74F71247
:103DB0001DAA7F00EFC394044003023E5CEFF87934
:103DC00000E875F003A4C8ACF075F000A42CFC75F5
:103DD000F003E9A42CF9EA28F582EB39F583E0F445
:103DE000FCA3E0F4FDEFF87900E875F003A4C8AE99
:103DF000F075F000A42EFE75F003E9A42EF9EA2870
:103E0000F582EB39F583ECF0A3EDF0EFF87900E8FB
:103E100075F003A4C8ACF075F000A42CFC75F00399
:103E2000E9A42CF9EA28F582EB39F583A3A3E0F4A1
:103E3000C0E0EFF87900E875F003A4C8ACF075F0C5
:103E400000A42CFC75F003E9A42CF9EA28F582EB18
:103E500039F583A3A3D0E0F00F023DB47F01021E29
:103E60007C74F0121DAA74F4121D3AEAFEEBFF8C6A
:103E7000088D09900873E0F8A3E0F9E849702CEE8A
:103E80004F6006E50845097005790102410DEEFA1B
:103E9000EFFB1215B1E9900DB4F0900DB4E0C394AE
:103EA0000A40081215C3E9900DB4F0900DB4E0C3B8
:103EB000940A400302410B900873E0F8A3E0F9E88C
:103EC000496003023F57EEFCEFFD7A0E75F0069055
:103ED0000DB4E0A42420F9121923E9F50C7C0C7D23
:103EE0000079FFAA18AB191213238A0E8B0F850EC7
:103EF0000A850F0BAC18AD197A0C900DB4E0247044
:103F0000F9121923E9F50D750E0E750F00780E12D2
:103F10001FBDEEFCEFFD900DB4E0F87900E875F000
:103F20000EA4C8AAF075F000A42AFA75F00EE9A450
:103F30002AF974DB28FA740739FB12130B74021286
:103F40001D508A0E8B0FA80EA90F900873E508F07C
:103F5000A3E509F0024107900873E0F8A3E0C82444
:103F600006F582C83400F583E0F8A3E0F9E849607B
:103F700043900873E0F8A3E0C82406F582C8340033
:103F8000F583E0FCA3E0FD7A1B75F006900DB4E02C
:103F9000A42421F9121923E9F8900873E0F9A3E0A9
:103FA000C92406F582C93400F5837400F0A37400B7
:103FB000F0024107900873E0F8A3E0C8240AF582F4
:103FC000C83400F583E0F8A3E0F9E84960439008BD
:103FD00073E0F8A3E0C8240AF582C83400F583E052
:103FE000FCA3E0FD7A1B75F006900DB4E0A424223A
:103FF000F9121923E9F8900873E0F9A3E0C9240A3B
:10400000F582C93400F5837400F0A37400F0024116
:1040100007900873E0F8A3E0C8240CF582C83400C8
:10402000F583E0F8A3E0F9E8496043900873E0F80D
:10403000A3E0C8240CF582C83400F583E0FCA3E0BB
:10404000FD7A1075F006900DB4E0A42423F912193E
:1040500023E9F8900873E0F9A3E0C9240CF582C9BC
:104060003400F5837400F0A37400F0024107900857
:1040700073E0F8A3E0C82408F582C83400F583E0B3
:10408000F8A3E0F9E849606F900873E0F8A3E0C88E
:104090002408F582C83400F583E0FCA3E0FD7A1023
:1040A00075F006900DB4E0A42424F9121923E9F563
:1040B0000A900873E0F8A3E0C82408F582C8340029
:1040C000F583E02410FCA3E03400FD7A0475F006CB
:1040D000900DB4E0A42425F9121923E9F89008738F
:1040E000E0F9A3E0C92408F582C93400F58374001F
:1040F000F0A37400F08010900867E06003121617B8
:104100001215FF79018006790080027901740C1282
:104110001D507F08021E7C74F7121DAA74F2121D36
:104120003AE9FEAC18AD197A0E75F006EEA424201B
:10413000F9121929E9700E740C121D86E0F8A3E03B
:10414000F9E8F980027900740E121D507F01021EF9
:104150007C74F4121DAA74F2121D3A8909EAFEEB6E
:10416000FFE509C3940A5004EE4F700479028041C0
:10417000AC18AD197A0E75F006E509A42420F912E1
:104180001929E9F508E5087026750A06750B007807
:104190000A121FBD7402121DA0EEFAEFFB12130BE0
:1041A0007402121D508A0A8B0B850A82850B83A923
:1041B00008740E121D507F04021E7C74F4121DAA96
:1041C000EAFEEBFF750800E508C3940A5044750A3F
:1041D00006750B00780A121FBDEEFCEFFDE508F82E
:1041E0007900E875F00EA4C8AAF075F000A42AFAC8
:1041F00075F00EE9A42AF974E128FA740739FB1264
:10420000131D7402121D50E96004A90880060508F8
:1042100080B5790A7F04021E7C74F4121DAAEAFE9E
:10422000EBFF750800E508C3940A5044750A06754B
:104230000B00780A121FBDEEFCEFFDE508F87900CF
:10424000E875F00EA4C8AAF075F000A42AFA75F07B
:104250000EE9A42AF974DB28FA740739FB12131D3E
:104260007402121D50E96004A9088006050880B593
:10427000790A7F04021E7C74F7121DAA74F0121DC5
:104280003AEAFEEBFF750800E508C3940A5039AC22
:1042900018AD197A1075F006E508A42423F912194F
:1042A00029E970207C1079FFAA18AB19121383E951
:1042B0007012EEFCEFFDAA18AB1912091BE970048D
:1042C000A9088006050880C0790A7410121D507F65
:1042D00001021E7C74F4121DAA750800E508C3943F
:1042E0000A40030243B2E508F87900E875F00EA42D
:1042F000C8AAF075F000A42AFA75F00EE9A42AF90C
:1043000074DB28FC740739FD7A0E75F006E508A405
:104310002420F9121929E970030243AD7C067D00BF
:1043200079FFE508FA7B00EA75F00EA4CAA8F075DB
:10433000F000A428F875F00EEBA428FB74DB2AFA31
:1043400074073BFB1213238A0A8B0BAE0AAF0B7C5C
:10435000067D0079FFE508FA7B00EA75F00EA4CA35
:10436000A8F075F000A428F875F00EEBA428FB74F3
:10437000E12AFA74073BFB1213238A0A8B0BAC0A5F
:10438000AD0BE508F87900E875F00EA4C8AAF07541
:10439000F000A42AFA75F00EE9A42AF974E728F5CA
:1043A00082740739F5837400F0A37400F0050802E5
:1043B00042DC900867E060031216171215FF7F04B5
:1043C000021E7C74F7121DAA7E00EEC3940A5032BE
:1043D0007C0679FFEEFA7B00EA75F00EA4CAA8F01D
:1043E00075F000A428F875F00EEBA428FB74DB2A06
:1043F000FA74073BFB121383E96004EEF980050EA3
:1044000080C8790A7F01021E7C74F7121DAA7E0003
:104410007F00EFC3940A502F7C0679FFEFFA7B00F0
:10442000EA75F00EA4CAA8F075F000A428F875F09B
:104430000EEBA428FB74DB2AFA74073BFB121383F0
:10444000E970010E0F80CBEEF97F01021E7C74F73C
:10445000121DAA7E007F00EFC3940A500DEE700A71
:10446000EFF91215D5E9FE0F80EDEEF97F01021E7E
:104470007C74F0121DAA74CB121D3A8909900DB4F8
:10448000E06509701D7A017B009007BFE0F9121307
:1044900065E97A027B009007BFE0F9121365E91223
:1044A00016237427121DA07A0E75F006E509A424C0
:1044B00020F9121929E960030245A97C0679FF74E5
:1044C00027121D98121383E960030245A97C0E7D13
:1044D0000079FF7427121D981213238A0A8B0B850B
:1044E0000A0C850B0D7C1B7D0079FF740C121D9846
:1044F0001213238A0E8B0F850E0A850F0B7C0C7D01
:104500000079FFAA18AB191213238A0E8B0FAE0E77
:10451000AF0F7427121DA07A0E75F006E509A424CA
:1045200020F9121923E9F508740C121DA07A1B75E5
:10453000F006E509A42421F9121923E94208740CB4
:10454000121DA07A1B75F006E509A42422F91219A0
:1045500023E94208740C121DA07A1075F006E509D3
:10456000A42423F9121923E94208740C121DA07A1D
:104570001075F006E509A42424F9121923E942086C
:10458000740C121DA07A0475F006E509A42425F91F
:10459000121923E94208AC18AD197A0C7470250978
:1045A000F9121923E942088003750800A908743537
:1045B000121D507F08021E7C74F7121DAAE9FEEE40
:1045C0009007BFF01215BD7F01021E7C74F2121D10
:1045D000AA890AEAFEEBFFEE5400F8EF5480F9E8EE
:1045E0004960359007BFE0F91213478A0C8B0DA87C
:1045F0000CA90D88088909E8496012AA08AB0912BC
:1046000015E7E96008AA08AB09121335E9EE640062
:10461000FAEF6480FB0246D0EE5402602D7C007DF0
:10462000007A007B00121599E960187A017B0090EE
:1046300007BFE0F912135FE9EE6402FAEF6400FBD2
:104640000246D07A027B000246D0EEA2E0507D9076
:104650000873E0F8A3E0F5838882A3A3A3E0FAA39C
:10466000E0FB12161DE9605E9007D9E0F8A3E0F9BF
:10467000E84960459007D9E0F8A3E0F5838882A374
:10468000A3E0F8A3E0F9E849602F7C0079019008E5
:1046900073E0F8A3E0F5838882A3A3A3E0FAA3E084
:1046A000FB9007D9E0F8A3E0F5838882A3A3E0F8A4
:1046B000A3E0F5838882121DA8121623EE6401FA86
:1046C000EF6400FB800A7A017B0080047A007B00A3
:1046D0007F06021E7C74F7121DAAEAFEEBFF750826
:1046E000018E828F83E02450601314601924E170DE
:1046F0001CEEFAEFFB12157BE9F5088010EEFAEFDD
:10470000FB1215ED8007EEFAEFFB1215F3A9087FF7
:1047100001021E7C74F7121DAAEAFEEBFF8E828F47
:1047200083A3A3A3A3E0641E701179008E828F83FC
:10473000A3A3E0FAA3E0FB121569E97F01021E7C46
:1047400074F6121DAAEAFEEBFF8E828F83A3A3A349
:10475000A3E0703A8E088F09850882850983A3A398
:10476000A3A3A3A3A3121FD4850882850983A3A3AF
:10477000A3A3A3E0FCA3E0FD850882850983A3A38E
:10478000E0FAA3E0FB12156F7402121D50E97F02DC
:10479000021E7C74F7121DAAEAFEEBFF9007BFE031
:1047A000F98E828F83A3E0FAA3E0FB120BA3E97FCB
:1047B00001021E7CC082C08374FF121D3A1215C90B
:1047C000E9C39402400B8518828519837402F08036
:1047D00009851882851983740AF0AC18AD197A011D
:1047E0007905120A29E97401121D50D083D0820282
:1047F000013274F2121DAA74E8121D3AEAFEEBFFB0
:10480000890A8C088D097C187D007900AA18AB19DB
:104810001213238A0C8B0DAC0CAD0D8518828519F3
:1048200083EEF0A3EFF09007C1E0C0E07402121D28
:1048300086D0E0F09007C2E0C0E07403121D86D07D
:10484000E0F0900DB3E0C0E07417121D86D0E0F0E8
:104850007415121D86E054FEF8A3E054FFF9900D84
:10486000B2E0A2E0E433FA7B00E84AF8E94BF974DD
:1048700015121D86E8F0A3E9F0900DB2E0A2E15018
:1048800004D2F08002C2F07415121D86E054FDFAC5
:10489000A3E054FFFBA2F0E433F87900E828F8E93C
:1048A00033F9EA48F8EB49F97415121D86E8F0A3CC
:1048B000E9F0900DB2E0A2E35004D2F08002C2F021
:1048C0007415121D86E054F7FAA3E054FFFBA2F022
:1048D000E433F50C750D007403780C121D27EA45BE
:1048E0000CF8EB450DF97415121D86E8F0A3E9F0FC
:1048F000900DB2E0A2E45004D2F08002C2F0741530
:10490000121D86E054EFFAA3E054FFFBA2F0E4335B
:10491000F50C750D007404780C121D27EA450CF88F
:10492000EB450DF97415121D86E8F0A3E9F0900D22
:10493000B2E0A2E55004D2F08002C2F07415121D5C
:1049400086E054DFFAA3E054FFFBA2F0E433F50C59
:10495000750D007405780C121D27EA450CF8EB451F
:104960000DF97415121D86E8F0A3E9F0900DB2E080
:10497000A2E25004D2F08002C2F07415121D86E04B
:1049800054FBFAA3E054FFFBA2F0E433F50C750DE1
:10499000007402780C121D27EA450CF8EB450DF95E
:1049A0007415121D86E8F0A3E9F09007C2E0602AB2
:1049B000750C10750D00780C121FBD7CC37D07743B
:1049C00006121D86AA82AB8312130B7402121D50AD
:1049D0008A0C8B0D850C82850D839007D3E06012C5
:1049E000E50A600E7415121D86E04402F0A3E0444F
:1049F00000F09007D3E06006780179008004780029
:104A000079007414121D86E048F09007C0E060063B
:104A1000780479008004780079007414121D86E00F
:104A200048F0AC08AD09AA18AB1912093FE974188F
:104A3000121D507F06021E7C74F7121DAAEAFEEBBF
:104A4000FF7508009007D3E06006780179008004C4
:104A500078007900E842089007C0E06006780479A1
:104A600000800478007900E84208A908EEFAEFFB1C
:104A70001209F9E97F01021E7C74EE121DAA74E589
:104A8000121D3A8A0C8B0DE9FF8C088D09742D12CA
:104A90001D86E0F50A74086509700A75F006EFA432
:104AA0002422FE800875F006EFA42421FE7C1B7DE5
:104AB000007900AA18AB191213238A108B118510E4
:104AC0000E85110FAC18AD197A1BEEF9121929E9F0
:104AD0007038741A121D86E0C39407402D741A12A0
:104AE0001D86E0C394115022E50AF50B780B121FC6
:104AF000C17401121DA0E508A2E0E433F9AA0CABD1
:104B00000D1209517401121D50E9741B121D507FC2
:104B10000A021E7C74F7121DAA120C1BE97E00EE1D
:104B2000C3940A50557C0679FFEEFA7B00EA75F0D3
:104B30000EA4CAA8F075F000A428F875F00EEBA436
:104B400028FB74DB2AFA74073BFB121383E97027F6
:104B5000EEF87900E875F00EA4C8AAF075F000A48C
:104B60002AFA75F00EE9A42AF974DB28FA740739D9
:104B7000FB7900120C21E90E80A57F01021E7C74D6
:104B8000F6121DAA74FD121D3AEAFEEBFF9008759D
:104B9000E0F8A3E0F9E849703975087775090878F5
:104BA00008121FBD7508027509007808121FBD752F
:104BB00008E67509837808121FBD7CFF7DFF7A0126
:104BC0007B00120A6B7406121D50900875EAF0A360
:104BD000EBF0900875E0F8A3E0F9E8497003024CA7
:104BE0009CE4F508F5097808121FBD7404121D90A5
:104BF000880889097808121FBD7404121D9088085E
:104C000089097808121FBD900877121FD479029085
:104C10000875E0FCA3E0FDEEFAEFFB120B917408BF
:104C2000121D50E9704A851882851983E0FA7B00CD
:104C30007401121D86E0F87900E4C8F9EA28F50845
:104C4000EB39F509E508450960267808121FBD9083
:104C50000875E0F8A3E0F5838882A3A3A3A3E0FC92
:104C6000A3E0FDEEFAEFFB12156F7402121D50E97E
:104C7000E4F508F5097808121FBD900877121FD4D3
:104C80007CFF7DFF900875E0FAA3E0FB120A7774C1
:104C900004121D50900875EAF0A3EBF0900875E03F
:104CA000F8A3E0F9E84970047901800279007403FF
:104CB000121D507F02021E7CC082C083900873E0E8
:104CC000F8A3E0F9E8496017900873E0FAA3E0FB65
:104CD000121335E9F89008737400F0A37400F09093
:104CE0000DB4740AF0D083D082020132C082C08336
:104CF000E9900AB9F0024F7B74F7121DAAE99002FD
:104D0000E1F07C197D037AFF7BFF120BA99002E290
:104D100074FFF0A3F0A3E4F0A3F07905120B319037
:104D200002E1E0F9120A537AC77B0B120D717F0181
:104D3000021E7C74F4121DAA8A088B09EB54806051
:104D4000309002E1E0F91213478A0A8B0BAE0AAFEA
:104D50000BEE4F60138E828F83E064B07003120BF2
:104D600049EEFAEFFB121335AA08E5096480FB80CF
:104D7000047A007B00024F4A74F2121DAA74FC12DE
:104D80001D3AEAFEEBFFEE4F60387402121D86EE0C
:104D9000F0A3EF1251AFECF0A3ED1251AFAA82AB2A
:104DA00083120A4DE9F50870737412121D86125DA4
:104DB00063E50A450B60658E828F83124E26EE4FA7
:104DC000700575080280557A067B001213A18A0CC3
:104DD0008B0DA80CA90DE8497005750813803D8856
:104DE000828983E4124E30A3A3EEF0A3EF1261FC9C
:104DF000E50AF0A3E50BF09002E7124EB89002E747
:104E00006017E0FCA3E08003EAFCEBFD8C828D835D
:104E1000124EB870F38C828D83125C88A9087404DA
:104E2000121D500263FEA3A3A3A3E0FEA3E0FF2292
:104E3000F0A3F0888289832274F2121DAA890AE9FC
:104E400075F017A4FEAFF09002E6E4F09002E412D1
:104E50004EB8600A1213A79002E4E4F0A3F0EEFA51
:104E6000EFFB1213A18A088B09EA4509602FEEFCBB
:104E7000EFFD79001213239002E4E508F0A3E509A1
:104E8000F07B008008124EA2E4F0A3F00BEBC39578
:104E90000A40F2E50A9002E6F079008002791302F6
:104EA00063FEEB75F017A4F8A9F09002E4E028FA8D
:104EB000A3E0398A82F58322125A1EEA4B2274F447
:104EC000121DAA750800750900740C121D86126166
:104ED000D0FEE9FF800CE5082401F508E50934005F
:104EE000F509C3E5089CE5099D503285080A850946
:104EF0000B7403780A121D27EA250AF8EB350BF923
:104F000088828983A3A3A3A3A3A3125D63EE650A8A
:104F10007003EF650B70BFE8FAE9FB80047A007B51
:104F200000802774F4121DAA7900EAA2E0501B75D4
:104F300008107509837808121FBD7C047D007ABBB8
:104F40007B0A120B2B7402121D507F04021E7CC0C0
:104F500082C0839002E7124F82601C88828983A3FB
:104F6000A3E06A7003A3E06B8882898370E8A3A33F
:104F7000A3A3125A1A80047A007B00D083D0820245
:104F800001321264D1E8492274EE121DAA74FC1297
:104F90001D3AEAFEEBFF851882851983E4F0A3F041
:104FA000EE2402125C6CEE240512519DEE2404F5F1
:104FB0000EEF125582E024FE603924FC604624FE88
:104FC000605224FE605E24FE70030250A224FE7034
:104FD0000302511A24FE700302512924FE700302B9
:104FE000513824FC700302514724FE7003025156CD
:104FF0000251939003007417F0A3E41251B7120703
:10500000CB025193851882851983AC82AD83120B34
:105010004F025163851882851983AC82AD83120BD0
:1050200055025163850C08850D097402121D86AC6A
:1050300082AD83850882850983125A1A120A718A01
:105040000C8B0DAC0CAD0DEC4D6042E4F50CF50D88
:10505000780C121FBD750C00750D03780C121FBD66
:10506000750C01750D03780C121FBD7408121D8696
:10507000121FD47916125A14120B917408121D5073
:10508000E9F50C700B125A101207E3800F750C0132
:105090008508828509831251A5125C88850C080257
:1050A00051667402121D86AC82AD83850C82850D1B
:1050B00083125A1A120A718A108B11AC10AD11ECBE
:1050C0004D6043850C82850D83A3A3121FD47510F8
:1050D000007511037810121FBD751001751103784A
:1050E00010121FBD7408121D86121FD47916125A91
:1050F00014120B917408121D50E9F509700B125A25
:10510000101207E9800F750901850C82850D831245
:1051100051A5125C88850908804C85188285198301
:10512000AC82AD83120B5B803A851882851983AC03
:1051300082AD83120B61802B851882851983AC8226
:10514000AD83120B67801C851882851983AC82ADF4
:1051500083120B6D800D851882851983AC82AD8317
:10516000120B73E9F508E50860298E828F83A3E0AE
:105170006414601F850E82850F83E0900300125136
:10518000AF1264CD900301125C88E508A31251B7F9
:105190001207C5EEFAEFFB120AEF025B74F50CEF93
:1051A0003400F50D221264D185188285198322F00E
:1051B00085188285198322F07C007D03850A82850B
:1051C0000B83125A1E2274EE121DAA74FC121D3A91
:1051D0008A0A8B0B8C0E8D0FEA2405F508EB340040
:1051E000F5097C157D0079007A007B03121323E515
:1051F000082402F50CE5091251A08518828519834F
:105200008582108583117810121FBD85088285095B
:1052100083A3A3A3A31256CA121FBDE5082405F554
:1052200010E5093400F5117810121FBD850C828538
:105230000D83125A24120A6B7406121D508A108BA9
:1052400011AE10AF11E50A2402F50AE50B125C6FEE
:10525000EE4F700302538C80177402121D86125A8F
:105260001A88828983EAF0A3EBF0900300E004F04F
:10527000900300E0C39405400302538CE4F510F55D
:10528000117810121FBD7510E97511027810121FE8
:10529000BD7510EA7511027810121FBD7406121D3B
:1052A00086121FD47910EEFCEFFD125A14120B91E6
:1052B0007408121D50E9705E850882850983A3A3D6
:1052C000A3A3A3A3A3E0F89002E9E06870481256F4
:1052D000CA121FBD7CEA7D02E5082408FAE50934FC
:1052E00000FB12131D7402121D50E960298E828F7B
:1052F00083A3A3A3A3125A1A900300E0F51074022B
:105300007810121D2774012510F58274033511F5EC
:1053100083EAF0A3EBF07402121D86858210858368
:10532000117810121FBD7402121D86121FD4850C35
:1053300082850D831264E2120A777404121D508A6A
:10534000108B11AE10AF11900300E0F51075110035
:1053500074027810121D2774002510F8740335119B
:10536000F988828983A3124EB87003025250E82450
:1053700003F8E93400F9EE4F60030252598882893C
:105380008374FFF0A3F0900300E004F0900300E0CA
:10539000600A125A101207D77900800B850882859F
:1053A0000983125C7F790A025B7474EA121DAA7485
:1053B000FE121D3A8C128D13EA2405F50CEB1266D1
:1053C0004C124E2A750800750900EA2402F510EB0C
:1053D0003400F51185188285198385820A85830B2F
:1053E000780A121FBD850C82850D83A3A3A3A31287
:1053F000558C121FBDE50C2405F50AE50D125C6FF6
:10540000780A121FBD850C82850D831264E0120A92
:105410006B7406121D508A0A8B0BEA450B7003024F
:10542000553DEA2404F50EEB125582124E2A8A826B
:105430008B83A3A3A3E0F9851082851183125A1AE6
:10544000120A59E9F509600302553DE4F514F51512
:105450007814121FBD7514E97515027814121FBD5A
:105460007514EA7515027814121FBD7406121D8694
:10547000121FD47913AC0AAD0B85108285118312EB
:105480005A1A120B917408121D50E9F509600302B3
:10549000553D9002E9E0F8E5087009E02402900328
:1054A00001F08017900301E0FCE82402FAE43400E4
:1054B000FBEA6C7001EB6003025541850882AA8209
:1054C0001256C194141256B95073850E82850F83FB
:1054D000E0C0E074022A125579D0E0F00508850E8C
:1054E00082850F83A3E0C0E085080A7402250A12B2
:1054F0005579D0E0F005089002E912558C121FBDD5
:105500007CEA7D0285080A7402250AFA74033400D5
:10551000FB12130B7402121D509002E9E02508F5EE
:105520000874FF6E700374FF6F6012EE24010EEFBB
:105530003400FFE508C3941450030253D4E5086017
:1055400013125905851082851183125A1A1207DD2C
:1055500079008014E509700375090A8512828513A4
:1055600083EEF0A3EFF0A9097402121D507F0E0222
:105570001E7C85080C7402250CF58274033400F53A
:1055800083223400F50F850E82F5832212620F22EA
:1055900074EE121DAA74FE121D3A8C0E8D0FEA24B1
:1055A00005F50CEB1251A0750B00900300E4F0F52B
:1055B0000AEA2402F508EB3400F50980499003005B
:1055C000E0FA9002E9E0F81256C194171256B94079
:1055D0000D900300E0F87416C3989002E9F012569B
:1055E000CA121FBD7CEA7D0274012AFA74033400DA
:1055F000FB12130B7402121D509002E9E0F89003A5
:1056000000E028F0050AE50C2416F582E50D125598
:105610007DE0F8E50AC39840030256A2900300E03B
:10562000C39416507DE50AC333F8E433F9E50C283A
:10563000FEE50D39FF851882851983AC82AD838E16
:10564000828F83125A1A120A718A108B11AC10AD14
:1056500011EC4D7005750B018043E4F510F51178E0
:1056600010121FBD7510E97511027810121FBD755B
:1056700010EA7511027810121FBD7406121D8612F1
:105680001FD47916850882850983125A1A120B9144
:105690007408121D50E9F50B70030255BD125C7BB6
:1056A00080107C007D03850882850983125A1A12B6
:1056B00007EFA90B7402025B76E99400C365D0334F
:1056C00022EA28F8E43400F9E822E0F51075110028
:1056D00078102274EA121DAA74FC121D3A8A0C8BEF
:1056E0000D8C128D13EA2405F50AEB125C6F750818
:1056F00000750900E50A2402F510E50B3400F511E8
:105700007402121D8685820E85830F780E121FBDCE
:10571000850A82850B83A3A3A3A31261BB121FBDBD
:10572000E50A2405F50EE50B3400F50F780E121F7F
:10573000BD851082851183125C75125A14120A6B92
:105740007406121D508A0E8B0FAE0EAF0FE50C249F
:1057500002F50EE50D3400F50F80408882898374D0
:10576000FFF0050812557274FFF005089002E9E099
:10577000F50C750D00780C121FBD7CEA7D028508C2
:105780000C7402250CFA74033400FB12130B740220
:10579000121D509002E9E02508F508EE4F60718E69
:1057A000828F83A3A3A3E0F9850E82850F83125A0B
:1057B0001A120A59E9F509EE240412519DE97044C0
:1057C000E4F514F5157814121FBD7514E97515026A
:1057D0007814121FBD7514EA7515027814121FBDD6
:1057E0007408121D86121FD47911EEFCEFFD850E90
:1057F00082850F83125A1A120B917408121D50E9F8
:10580000F5096027850C82850D831258FB125C8890
:10581000E50870030258E1125905850E82850F8351
:10582000125A1A1207F579000258F6850882AA82E0
:10583000EA9002E97009E02404900301F08022E07C
:10584000F8900301E0F514E82404FCE43400FDECD6
:1058500065147001ED70C01256C194121256B95001
:10586000B6850C82850D83E0C0E074022A1255795A
:10587000D0E0F00508850C82850D83A3E0C0E0121E
:105880005572D0E012591785820C85830D780C1261
:105890001FBD7404121D86121FD4851082851183CA
:1058A0001264E2120A777404121D508A0C8B0DAE3A
:1058B0000CAF0D85080C7402250CF874033400F944
:1058C000EE4F700302575B851882851983E088824A
:1058D0008983125917A3E0C0E0125572D0E0025735
:1058E00069E509700375090A850A82850B831258D8
:1058F000FB125C88A909740402556A1264D18512EE
:105900008285138322900301E0F5F0E5088490037B
:1059100000F07C007D0322F005088518828519833C
:105920002274EC121DAA74FE121D3A8A088B098C8F
:105930000E8D0FEA2405FEEB3400FF8518828519D1
:1059400083AC82AD838E828F83125A1A120A718AB7
:105950000A8B0BEE241812519DEA450B7003025975
:10596000EB125B5D5032851882851983125A1A1228
:105970000B858A108B11EA4511606B7912AC0AAD68
:105980000B850882850983125A1A85108285118336
:10599000121DA8E9F50A7058E4F50AF50B780A1209
:1059A0001FBD8E828F83A3A3E0F50A780A121FBD64
:1059B000EE2403125C6C780A121FBD8E828F831254
:1059C0005A24120B977406121D50E9F50A702185AE
:1059D0000C82850D83E0701F850882850983125A29
:1059E0001A1207FB8011750A0E8009750A018004DE
:1059F000E50A6003125C7B850C82850D83E0600400
:105A000079008002A90A7402121D507F0C021E7CCC
:105A10007C007D03850A82850B83125A1E22E0FAE0
:105A2000A3E0FB22E0FCA3E0FD8508828509831248
:105A30005A1E2274EE121DAA74FE121D3A8A088B99
:105A4000098C0C8D0DEA2405FEEB3400FF750E0069
:105A5000851882851983AC82AD838E828F83125A1A
:105A60001A120A718A0A8B0BEA450B7003025B4912
:105A7000125B5D5035851882851983125A1A120BF4
:105A8000858A0E8B0FEA450F605E7912AC0AAD0B6A
:105A9000850882850983125A1A850E82850F831222
:105AA0001DA8E9F50E6003025B4C85088285098319
:105AB000125D63AA0AFB120B798A108B11A810A938
:105AC00011E849701E7AFF7BFF120B798A108B1147
:105AD000A810A911E849606C88828983E50AF0A3BF
:105AE000E50BF0750A008007750E0E805F050A90C1
:105AF00002E6E0FAE50AC39A504AE50A75F017A4EF
:105B0000FAABF088828983A3A3E02AFAA3E03BFBE7
:105B10008A828B83125C75EC4D70D2750A17750BF7
:105B200000780A121FBDEEFCEFFD12130B74021277
