:020000040000FA
:06000000020107022123AA
:03002B0002255952
:0300430002253162
:03005300022196F1
:03007B0002257EDD
:10008300021F8FE5C754F84401F5C7790122000028
:100093000080FB120086B900030200F1E4792178A5
:1000A30008B800028004F709D8FCE479297802B87B
:1000B30000028004F709D8FCE4900281789379095F
:1000C3008002F0A3D8FCD9FA7A137B0B900137781E
:1000D300F179038015E493A3AD82AE838A828B8387
:1000E300F0A3AA82AB838D828E83D8E9D9E7758288
:1000F300787583BB7403120119758291758300743B
:100103000012011975D00075813F751881751902A8
:10011300759F00020096C09FF59FE473D09F22D085
:1001230083D082C09FE493C0E0740193C0E0740263
:1001330093F59F220809534A4D2E4550470512084F
:10014300000800020A00020106424C45425244479D
:10015300000000000000000000000000000039045F
:1001630000003F04FF0000B40000280028002830EE
:1001730075A000A000A000A00000080008E001F0A6
:10018300001000100010001000100010005000506C
:1001930000500010001000D0070000000000000F06
:1001A3000001000500307507001000010081FF0009
:1001B300000000FF490667064F06FF02020208021D
:1001C3005000A0000000E803029A8101000086812C
:1001D300029E810100009A0B02A481010000B70274
:1001E300029E810100009B0B02A681010000CD024B
:1001F300029E810100009C0B02A881010000CF0236
:10020300029E810100009D0B02AA81080000D0021A
:10021300029E810100009E0B02AC810100009F0B36
:10022300FF0100FF20029A810100008381029E8169
:10023300010000030C02AE81000000000002A28155
:100243000300001D03130C130C130C130C130C13DA
:100253000C130C130C130C130C130C130C130C9521
:100263000EAD0E8F0EFFFF02020202020202020215
:10027300010D0000001001029A810100008081023B
:100283009E81010000460C02B48101000061070257
:100293009E81010000470C02B28101000017810218
:1002A3009E81010000480C02B081010000FB800226
:1002B3009E81010000490C029481010000B9800273
:1002C3009E810100004A0C0292810100008380029A
:1002D3009E810100004B0C029081010000A7800267
:1002E3009E810100004C0C028E810100009580026A
:1002F3009E810100004D0C028C81010000098102E6
:100303009E810100004E0C029C810100004F0C01F4
:10031300053F100AFF0001307503020106000000CB
:1003230000000000000000000000000000000000CA
:10033300000000000000000000FFFF0600800CE842
:1003430003020A4368617261637465726973746955
:10035300632031000243686172616374657269737B
:100363007469632032000843686172616374657263
:100373006973746963203300104368617261637445
:100383006572697374696320340002436861726142
:10039300637465726973746963203500029A81011D
:1003A30000007D81029E81010000210D02BA8103BC
:1003B3000000040B02A081010000220D029E8101B6
:1003C3000000330D02BC81010000050B02A0810176
:1003D3000000340D029E81010000450D02BE810222
:1003E3000000060B02A081010000460D029E810160
:1003F3000000570D02C081000000070B02A2810319
:100403000000080B02A081010000580D029E81012B
:100413000000690D02C2810400000E0B02A08101DD
:1004230000006A0D12012297F00212012271F202FA
:100433001201228BF3021201228EF302120122B265
:10044300F302120122F0F302120122E6AE031201BB
:1004530022FDAE031201222EAF0312012269AF0364
:1004630012012293AF03120122BDAF03120122D462
:10047300AF03120122EBAF0312012202B0031201F8
:10048300222BB0031201223EB00312012254B00307
:1004930012012267B0031201228EB003120122EA75
:1004A300B202120122EEB30212012226B402120199
:1004B3002249B40212012254B40212012277B40277
:1004C30012012286B5021201225BB602120122D664
:1004D300B6021201225EB70212012299B70212017B
:1004E30022D0B7021201225EB80212012237B902EA
:1004F30012012297B902120122A2B902120122218A
:10050300BA0212012224BA0212012227BA021201EC
:1005130022B6BA02120122B9BA02120122E9BA02C0
:1005230012012213BB0212012201BC02120122B3E7
:10053300BC0212012200800312012228800312014F
:10054300225680031201228D8003120122EB8003C5
:10055300120122368103120122818103120122C179
:100563008103120122078203120122358203120141
:1005730022F28203120122FC820312012209830365
:100583001201223C83031201220884031201221464
:1005930084031201222C84031201223684031201E4
:1005A3002215B70312012223B7031201223BB7031B
:1005B30012012253B70312012272DA011201221E21
:1005C300DB0112012299DB01120122BADC011201C3
:1005D30022F6DC011201229FDD0112012286DE01D7
:1005E300120122EADF0112012241E001120122C2BB
:1005F300E001120122B2E101120122FFE101120125
:100603002285E201120122B7E201120122CBE401A9
:100613001201220DE5011201222BE501120122AE86
:10062300E50112012282E6011201224AE7011201C9
:1006330022A5DE0212012278DF0212012221E0024A
:1006430012012274E00212012224E102120122B0FB
:10065300E1021201229CE202120122CBE202120108
:1006630022DEE30212012226E402120122FBE4024B
:1006730012012237E50212012253E502120122720E
:10068300BA031201222092031201223692031201AD
:10069300225C9203120122789303120122829303B4
:1006A300120122B79403120122AF950312012270A3
:1006B300EB02120122A0EC02120122D3EC0212017E
:1006C300221DED02120122E4EE0212012220BB01DF
:1006D3001201228ABB01120122E9BC01120122F993
:1006E300BC0112012226BD011201227DBD011201AE
:1006F3002226BE011201222DBF01120122F7BF01E2
:1007030012012257C1011201229AC1011201223F93
:10071300C2011201228CC201120122B2C2011201D2
:1007230022C0C401120122C5C401120122CAC6019A
:1007330012012217C7011201228AC701120122BD29
:10074300C7011201225FC80112012208C901120167
:100753002240C90112012243C9011201228BC9019E
:10076300120122CBC90112012222CA01120122FF66
:10077300A40312012217A5031201225FA50312018C
:100783002275A503120122BCA503120122D0A603E0
:100793001201225DA703120122A8A703120122CC92
:1007A30025001201220726001201224C2600120105
:1007B300220C2700120122922700120122F72700A0
:1007C3001201222328001201225C28001201229A1E
:1007D3002A001201227E2C00120122642E00120133
:1007E30022A72F00120122F5310012012207330044
:1007F3001201225234001201226235001201227FBB
:100803003500120122BA3500120122DC3500120133
:10081300223F3600120122003B00120122953B00C9
:10082300120122E63B001201220D3C001201225F5D
:100833003C001201227D3C00120122D73C00120130
:1008430022C03D00120122363F00120122BA3F00AE
:10085300120122BD8403120122C784031201220A5A
:100863008503120122258503120122B58503120196
:1008730022DD85031201221A860312012251860307
:100883001201227A8603120122EF86031201220447
:1008930087031201221987031201224A87031201D7
:1008A300225E8703120122838703120122BD87037D
:1008B300120122E98703120122758803120122A083
:1008C3008803120122E9880312012213890312010A
:1008D300223E8903120122FCB503120122E99A0286
:1008E300120122179B02120122659C02120122456A
:1008F3009D02120122649D02120122E19D02120156
:1009030022249E021201227A9F021201223BA0029C
:10091300120122C2A20212012263A302120122596E
:10092300A40212012256A502120122B0A60212014C
:10093300223BA70212012245B203120122AEB203E7
:1009430012012202B30312012229B3031201225A14
:10095300B303120122668903120122D38903120110
:10096300221A8A03120122328B031201222E8C03D4
:10097300120122118D0312012227C70212012269DB
:10098300C7021201223BC80212012214C90212013A
:10099300220ECA02120122F0CA0212012259CB020C
:1009A3001201220FCC0212012283CC02120122EF88
:1009B300CC0212012218CD0212012292CD021201A1
:1009C300222BCE0212012290CE02120122A5CE02C8
:1009D300120122EBCE0212012204CF02120122697C
:1009E300CF021201226CCF021201222D9F031201AA
:1009F30022559F03120122939F0312012251A00348
:100A0300120122B8A003120122D4A003120122FC76
:100A1300A0031201222CA1031201223BA103120104
:100A230022B8A103120122DEA1031201220FCB017E
:100A3300120122EDCC011201221FCF011201225B10
:100A4300CF0112012288CF0112012272D0011201BB
:100A530022BDD00112012208D1011201221AD101B3
:100A63001201225AD1011201228FD101120122DD7A
:100A7300D1011201220CD2011201222FD201120143
:100A8300227CD20112012201D3011201221BD501C2
:100A93001201225AD7011201229BD7011201223DD2
:100AA300D9011201227ED901120122F1D9011201C9
:100AB3002247DA01120122D48D02120122D28E02C0
:100AC3001201226B95021201228C97021201225706
:100AD3009902120122BF9A02120122CD590012017A
:100AE300227C5A00120122C25A00120122025C0027
:100AF300120122985D00120122125E001201222DC2
:100B03005E00120122A85E0012012202600012019F
:100B130022626100120122686200120122C963008D
:100B2300120122E263001201224064001201222E0C
:100B33006500120122616500120122D165001201D4
:100B4300224B66001201229566001201225F6700A4
:100B53001201223468001201221369001201229E3D
:100B630069001201220C6A00120122806A0012013C
:100B730022AB6A001201226A6B00120122CF6C00C1
:100B8300120122EC6C001201220B6D00120122FCF7
:100B93006D00120122216E001201224B6E00120120
:100BA30022C66E00120122206F00120122897000FA
:100BB3001201223771001201227871001201220002
:100BC30080021201224E80021201225A8002120177
:100BD300223881021201226981021201229A8102C2
:100BE3001201221A8202120122528202120122A44B
:100BF3008202120122E18202120122FE8402120108
:100C0300222487021201220F8902120122F98A0289
:100C1300120122F67F00120122D69601120122064A
:100C23009701120122DF9D01120122649F0112012B
:100C33002261A50112012249A60112012286A60101
:100C4300120122A9A601120122DAA601120122E34E
:100C5300A601120122EDA601120122DBA701120156
:100C630022D1A801120122C78101120122C68501E6
:100C7300120122CC8501120122078D0112012220CB
:100C83009201120122B99503120122B396031201B4
:100C930022279703120122659703120122D9970392
:100CA3001201225298031201225B98031201226758
:100CB30098031201227C9803120122BA98031201AD
:100CC30022D09803120122D38D03120122E08D0357
:100CD300120122FA8D03120122398E0312012277A7
:100CE3008E03120122DC8E03120122F18E03120104
:100CF30022FC8E03120122098F03120122208F038B
:100D03001201222E8F03120122398F031201224571
:100D13008F03120122548F031201225F8F031201EA
:100D230022828F0312012229900312012239900398
:100D33001201225390031201227090031201228C9C
:100D43009003120122B19003120122BC90031201FD
:100D530022D19003120122E590031201224691034E
:100D63001201224C910312012252910312012258C3
:100D73009103120122709103120122A39103120124
:100D830022AD7100120122317200120122E07200C1
:100D93001201223F74001201226076001201224CDC
:100DA3007700120122817700120122A3770012013A
:100DB300225278001201224A7A00120122737A0029
:100DC300120122057B00120122377B00120122440B
:100DD3007B001201229B7B00120122C17B001201C6
:100DE300222E7E00120122317F00120122897F0010
:100DF30012012263E9011201226DEA011201225458
:100E0300EB011201225EEB0112012280EB011201C0
:100E1300228CEB0112012225ED0112012254ED0176
:100E230012012270EE01120122C9EE011201222FDA
:100E3300F0011201220EF1011201226AF1011201E5
:100E430022D7F10112012212F20112012251F20101
:100E53001201220AF50112012224F501120122B026
:100E6300F501120122BEF50112012217F60112014A
:100E73002225F60112012298F601120122FCF60145
:100E830012012246F701120122BCA702120122DE3F
:100E9300A70212012204AA0212012219AD021201B1
:100EA3002231AE02120122E4AE02120122C6AF02C7
:100EB300120122A0B003120122C5B003120122378E
:100EC300B1031201222BD70212012234D7021201DD
:100ED300223DD70212012214D802120122C5D902DF
:100EE300120122FBD90212012235DA021201226B0E
:100EF300DA02120122A5DA02120122D9DA02120160
:100F03002205DB021201224EDB0212012288DB02E0
:100F1300120122D1DB0212012229DC021201225E1C
:100F2300DC02120122B9DC02120122F3DC021201FB
:100F33002244DD021201227ADD02120122B4DD0213
:100F4300120122E2DD0212012205DE02120122EC6D
:100F5300B70312012218B80312012273B803120156
:100F6300227DB8031201228DB80312012290CF0211
:100F7300120122A5CF0212012201D0021201226C1A
:100F8300D002120122B4D00212012226D102120190
:100F93002255D10212012263D102120122C5D102CC
:100FA30012012203D2021201221ED202120122B91D
:100FB300D20212012262D302120122E5D3021201EC
:100FC300221ED402120122A9D40212012200D50248
:100FD3001201225FD50212012271D502120122975A
:100FE300D502120122A0D502120122F4D602120167
:100FF3002297B803120122A0B3031201227EB40385
:101003001201228BAA03120122D0AA031201221673
:10101300AB03120122A8AC03120122F6BA03120198
:101023002211BB0312012221BB03120122C8E502D4
:10103300120122E8E502120122EEE6021201223A2F
:10104300E7021201225AE702120122ADE70212015E
:10105300221AE80212012260E802120122C4E80205
:10106300120122DAB4031201220BB5031201223555
:10107300B50312012293B50312012287F50212016F
:1010830022ACF502120122E8B90312012221400029
:10109300120122B441001201225F42001201220216
:1010A30043001201229A4300120122534800120105
:1010B30022EA4800120122264A001201228E4A0027
:1010C300120122424B00120122F84D00120122327A
:1010D3004E001201229C4E00120122FA4E00120110
:1010E30022584F00120122B54F00120122A45000D2
:1010F300120122EA50001201222F51001201225242
:101103005100120122995200120122AD5200120124
:1011130022B65300120122F553001201222154007A
:10112300120122745400120122955400120122D399
:1011330054001201221957001201225A57001201BA
:1011430022F557001201226058001201229959001A
:1011530012012213BC0312012226A203120122F15F
:10116300A403120122D77F001201222BFF021201D6
:10117300223BFF0212012252FF02120122CEFF0282
:10118300120122269C03120122D09C031201221277
:101193009F03120122F97F00120122E9FF011201CC
:1011A30022CFF70112012241FB011201226CFB0144
:1011B300120122BCFB0112012284FC01120122E86C
:1011C300FC011201221AFD0112012261FD0112012B
:1011D30022DAFE01120122F6FE0112012204FF01AE
:1011E30012012223FF0112012252FF011201228167
:1011F300FF011201228FFF01120122AFFF01120131
:101203002240B903120122B9B903120122D8B9034A
:10121300120122ECAC0312012253AD03120122107E
:10122300AE031201228EAE031201220099031201B2
:10123300223399031201223B9A031201225F9B037B
:1012430012012224BD0212012200BE021201224712
:10125300BE0212012284BE02120122F2BE02120158
:10126300224CBF02120122BCBF0212012294C0020F
:1012730012012287C102120122FEC102120122A120
:10128300C3021201222EC402120122A1C4021201BE
:10129300221DC50212012234C50212012261C602B7
:1012A300120122BBC602120122E9AA011201228104
:1012B300AF01120122AAAF01120122D3AF01120121
:1012C3002285B00112012269B201120122A3B301E6
:1012D300120122D7B80112012210B90112012254BE
:1012E300B90112012260BA01120122D2A70312012D
:1012F30022EAA7031201223FA80312012242A803F4
:1013030012012234A9031201228CA90312012232F1
:10131300AA0312012254AA031201226CFA02120137
:1013230022BFFA02120122DCFA02120122CAFB02D4
:1013330012012257FC0212012282FD02120122EE47
:10134300FE02120122CDBB03120122BDFF011201D5
:1013530022DCFF02E066701008A3E066700A08A3AF
:10136300E066700408A3E06622C3E7960809E796DF
:101373000809E7960809E79622C3E09608A3E096D2
:1013830008A3E09608A3E09622C008C3E096F508F8
:1013930008A3E096420808A3E096420808A3E09653
:1013A30045087001D3D00822080808EAC0E0EBC062
:1013B300E086F0E7A4FA180986F0E7A42AFA1809E8
:1013C30086F0E7A42AFA180986F0E7A42AFA198610
:1013D300F0E7A4FBE5F02AFA190886F0E7A42BFB53
:1013E300E5F03AFA190886F0E7A42BFBE5F03AFAA0
:1013F30018180986F0E7A4C5F02BFBE43AFA19089C
:10140300E7C5F0C6A426F6E5F03BFBE43AFA1886F6
:10141300F0E7A4F6E5F00826F6E43B08F6E43A081C
:10142300F6D0E0FBD0E0FA226016080808C6C31322
:10143300C618C613C618C613C618C613C6D5E0EA1F
:10144300227009080808226016181818C6C333C684
:1014530008C633C608C633C608C633C6D5E0EA2273
:10146300E627F60809E637F60809E637F60809E637
:1014730037F622E026F608A3E036F608A3E036F6B0
:1014830008A3E036F622E026F008A3E036F008A32E
:10149300E036F008A3E036F022C3E697F60809E643
:1014A30097F60809E697F60809E697F622C3E09649
:1014B300F008A3E096F008A3E096F008A3E096F006
:1014C30022E657F60809E657F60809E657F608092B
:1014D300E657F622E056F608A3E056F608A3E056D0
:1014E300F608A3E056F622E056F008A3E056F0080B
:1014F300A3E056F008A3E056F022E0F608A3E0F6D6
:1015030008A3E0F608A3E0F622E6F008A3E6F00855
:10151300A3E6F008A3E6F022E0FAA3E0FBA3E0FCD5
:10152300A3E0FD22EAF0A3EBF0A3ECF0A3EDF0229D
:10153300E0F8A3E0F9A3E0FAA3E0FB22E8F0A3E9D3
:10154300F0A3EAF0A3EBF022CAC0E0E6F0A308DAC6
:10155300FAD0E0FA22CAC0E0E0A3C582CCC582C5B6
:1015630083CDC583F0A3C582CCC582C583CDC58396
:10157300DAE6D0E0CA22C3E498F8E499F91215BA7E
:101583008026C3E49AFAE49BFBE920E7E91215BA43
:10159300E498F8E499F922C3E498F8E499F9121568
:1015A300BAE498F8E499F9C3E49AFAE49BFB22EBD2
:1015B30020E7CFE920E7E0B90010BB0008E88AF094
:1015C30084F8AAF022E4FBC8FA22EB70227B10C84D
:1015D30033C8C933C9335007C39AC3DBF280069AB1
:1015E30050012ADBEAC833F4C8C933F4C9FA2275B7
:1015F300F008E4C833C8C933C933C99AC99B500436
:10160300C92AC93BD5F0ECFBC833F4C8E4C9FA22B4
:10161300600D08C6A2E713C618C613C6D5E0F322A9
:10162300600C08C6C313C618C613C6D5E0F42270EF
:101633000422600D18C6C333C608C633C6D5E0F40A
:101643001822251810AF08F518400C15198008F555
:101653001840021519D2AF2200C0D0251810AF08C8
:10166300F518500C05198008F51850020519D2AF6A
:10167300D0D0222518F58210AF08F518400C1519A3
:101683008008F51840021519D2AF85198322251851
:10169300F582E43519F583222518F8E43519F92282
:1016A3002518FAE43519FB222518FCE43519FD2227
:1016B300E4732518C582C0E0E51934FFC583C0E093
:1016C300E518C3958224F810AF088583198582181D
:1016D3008008858319858218D2AFCEF0A3E520F068
:1016E300A37808E608F0A3DEFAEFF0A3E58124FA75
:1016F300F8E608F0A3E608F0A3E608F0A30808E676
:1017030008F0A3E608F0A315811581D0E0FED0E030
:10171300F8158115811581E8C0E0EEC0E022251897
:10172300C582C0E0E51934FFC583C0E0E518C39561
:101733008224F910AF088583198582188008858370
:1017430019858218D2AFCEF0A3E520F0A37808E67E
:1017530008F0A3DEFAEFF0A3E58124FBF8E608F036
:10176300A3E608F0A30808E608F0A3E608F0A3152B
:10177300811581D0E0FED0E0F815811581E8C0E045
:10178300EEC0E022851983851882E0A3FEE0A3F56D
:10179300207808E0A3F608DFFAE0A3FFE0A3C0E0A7
:1017A300E0A3C0E0E0A3C0E0E0A3C0E0E0A3C0E0AA
:1017B30010AF088582188583198008858218858370
:1017C30019D2AFD083D08202011F85198385188275
:1017D300E0A3FEE0A3F5207808E0A3F608DFFAE033
:1017E300A3FFE0A3C0E0E0A3C0E0E0A3C0E0E0A368
:1017F300C0E010AF08858218858319800885821898
:10180300858319D2AFD083D08222C0D02518C58258
:10181300C0E0E51934FFC583C0E0E518C395822411
:10182300F310AF088583198582188008858319858D
:101833008218D2AFC8F0A3E9F0A3EAF0A3EBF0A3B8
:101843007908E709F0A3D8FAECF0A3EDF0A3EEF0E2
:10185300A3EFF0A3D0E0F0A3D0E0F0A3D0E0F0A397
:10186300E520F0A3E5F0F0A322851983851882E033
:10187300C0E0A3E0F9A3E0FAA3E0FBA37808E0F655
:1018830008A3DFFAE0FCA3E0FDA3E0FEA3E0FFA3CF
:10189300E0C0E0A3E0C0E0A3E0F5D0A3E0F520A31F
:1018A300E0A3F5F010AF08858319858218800885B9
:1018B3008319858218D2AFD082D083D0E0F8D0E0EC
:1018C3003274048006740280027401C0E0F40412CE
:1018D3001676D0E012154B22740480047402800043
:1018E300CCC0E0EDC0E0E518C39CCCAD1950011DA0
:1018F30010AF068C188D1980068C188D19D2AF1273
:101903001558D0E0FDD0E0FC22D083D082E9C0E0BE
:10191300E493A3C386F0C5F095F0F908E493A38696
:10192300F0C5F095F0700BE493A3C3994005E90467
:101933008002A3E475F002A42582F582E5F03583E5
:10194300F583D0E0F9E493A3C0E0E493C0E022D0B0
:1019530083D082ECC0E0EDC0E0E493A3FCE493A366
:10196300FDED4C600D12199EEC24FFFCED34FFFDE0
:1019730080EFE493A3FCE493A3FDED4C600D1219F7
:10198300DDEC24FFFCED34FFFD80EFD0E0FDD0E083
:10199300FCE493A3C0E0E493C0E022C0E0C3E4937B
:1019A30096087401939618400FE4936670080874C0
:1019B3000193661870007019A3A3C3E49396087487
:1019C30001939618A3A3400DD0E0D0E0D0E0021914
:1019D3008EA3A3A3A3A3A3D0E022C0E0C0F088F00A
:1019E300E4936670080874019366187000A8F0A366
:1019F300A3700BD0F0D0E0D0E0D0E002198EA3A307
:101A0300D0F0D0E02274F5121721EAFEEBFFEE24AA
:101A130034F8EF3400F988088909EE2435F582EFAC
:101A23003400F583E0F8EE2437F582EF3400F583D4
:101A3300E0F50AEC850AF0A4FCAAF0850AF0EDA40F
:101A43002AFDE82CF8E43DF97A257B001215BAEA61
:101A5300850882850983F0F8740758F97401B90081
:101A6300028004C333D9FCFAE8131313541FF8EEAE
:101A730028F8EF3400F9E8245DF582E93400F583B2
:101A8300E05A6008EE2434F582EF802CEE2434F51E
:101A930082EF3400F583E0C0E0EE2436F582EF34C4
:101AA30000F583E0F5F0D0E084A8F0EE28F8EF34F9
:101AB30000F9E82438F582E93400F583E0F97F047E
:101AC3000217CD74F5121721EAFEEBFFEE2434F56D
:101AD30082EF3400F583E0C0E0EE2435F582EF3485
:101AE30000F583D0E0F08E828F83A3A3A3A3A3A3E7
:101AF300A3C082C0838E828F83A3A3A3A3A3E0F892
:101B0300A3E0F9D083D082E0C398F508A3E099F568
:101B130009EE247FF582EF3400F583E064017069F8
:101B2300EE2480F582EF3400F583E0F8A3E0F98E2C
:101B3300828F83A3A3A3A3A3A3A3E0FCA3E0FD8EAF
:101B4300828F83A3A3A3A3A3E0FAA3E0FBC3EA9C2E
:101B5300EB9D5010C3EC98ED99402EC3EA98EB9996
:101B63005027800EC3EA98EB994007C3EC98ED9990
:101B730040177CE07D04EEFAEFFB120B71EE247F3D
:101B8300F582EF3400F583E4F0EE2434F8EF34000B
:101B9300F9E8FCE9FDEE2435F582EF3400F583E046
:101BA300F8EE2437F582EF3400F583E0F50AE50813
:101BB300850AF0A4F508AAF0850AF0E509A42AF538
:101BC30009E82508F8E43509F97A257B001215BAE6
:101BD300EA8C828D83F0F8740758F97401B9000216
:101BE3008004C333D9FCFAE8131313541FF8EE2807
:101BF300F8EF3400F9E8245DF582E93400F583E079
:101C03005A6008EE2434F582EF802CEE2434F582FA
:101C1300EF3400F583E0C0E0EE2436F582EF3400C4
:101C2300F583E0F5F0D0E084A8F0EE28F8EF340077
:101C3300F9E82438F582E93400F583E0F912251D2B
:101C4300021AC1C082C083851882851983E0F8A374
:101C5300E0F9C3EA9CEB9D5010C3EC98ED99401B4F
:101C6300C3EA98EB995014800EC3EA98EB994007A6
:101C7300C3EC98ED994004790180027900D083D0B8
:101C83008222EAC39CFAEB9DFB2274EF1217219088
:101C930003A6E064086005E06407702A9061C8E069
:101CA30060249003D4E0F4601DE0F875F003A4C849
:101CB300AAF02AF974D628FE740339FF8E828F8323
:101CC300A3A3A3E07003021DBD906060E0C0E0EE3B
:101CD3002468F582EF3400F583D0E0F0750C497584
:101CE3000D05750800750900E5D914F50AE5D95401
:101CF30003F50E60177403650E605CE50A6010EE71
:101D03002467F582EF3400F583E07003021DA2908F
:101D13000544E06401602AEE2482F582EF3400F585
:101D230083E06004780480027800850A08E508C32C
:101D330098FA95E0FB120A3F8A088B09EA45097075
:101D430005120D638074EE2482F582EF3400F5836F
:101D5300E070048A0C8B0DE50A6012850C82850DF8
:101D630083F50BE5D9F0A3150BE50B70F6EE248292
:101D7300F582EF3400F583E0604474FC250AF50A2C
:101D8300780C1218C8AC0AA90EEEFAEFFB120C0D70
:101D9300740212165BE97026AA08AB0912121979AC
:101DA3003D8E828F83A3A3A3A3E0FA7B00120913C2
:101DB300EEFAEFFB120B89120C1F79008074740387
:101DC300650E6056850A1075110078101218C8AC9C
:101DD3000CAD0DAA08AB09120BE9740212165BEEE7
:101DE3002468F582EF3400F583E064807004747F27
:101DF3008001E0F50C780C1218CCE50EF50C780C8C
:101E03001218CCA90AAC08AD099003D4E0FA7B0000
:101E13001208D7740212165B80139003A6E06408BD
:101E2300600BAC0CAD0DEEFAEFFB120C79120D6FDB
:101E330079017F0A0217CD74F512172174FC12166B
:101E430045EAFEEBFF8908A2AFE433F509C2AF8090
:101E53006AEE2463F8EF3400F97A007B00A2AFE462
:101E630033F50AC2AF88828983E0FCA3E0FDEC4D21
:101E7300603A88828983E0FAA3E0FB8A828B83E05D
:101E8300FCA3E0FD88828983ECF0A3EDF08A828BCA
:101E930083E4F0A3F088828983E0FCA3E0FDEC4DAA
:101EA300700A88828983A3A3E4F0A3F0E50AA2E081
:101EB30092AF1212199004E7E004F0EE2463F58266
:101EC300EF3400F583E0F8A3E0F9E849603DEE2440
:101ED30063F582EF3400F583E02402FAA3E03400D3
:101EE300FBEA2402F50AEB3400F50B780A1218C852
:101EF3008A828B83E0FCA3E0F9EEFAEFFB120BADD1
:101F0300740212165BE97003021E549004E7E0604A
:101F1300639004E8E0F89004E7E0C398500C74027F
:101F2300650870509004E9E0604A8E828F83A3A312
:101F3300A3A3E0851882851983F0A3E4F09004E756
:101F4300E0F87402121691E8F0A3E4F09004E7E0DD
:101F5300F89004E6E028F07402121691AC82AD8387
:101F6300851882851983AA82AB8379011208E390CD
:101F730004E7E4F0E509A2E092AF740412165B02F1
:101F83001AC10000008521878522C622C0E0C0D087
:101F9300E8C0E0E9C0E0EAC0E0EBC0E0ECC0E0ED9F
:101FA300C0E0EEC0E0C008C009C00AC00BC082C0D8
:101FB30083C0F0A2AFE433FEC2AF759B0090618291
:101FC300E0A2E05012E591A2E0500C7591FE74017D
:101FD30065217003121C8DE0A2E55051E591A2E545
:101FE300504B7591DF9003A6E064076005E0640839
:101FF300702374016521703579019003D4E0FA757B
:10200300F003A4CAA8F028FB74D62AFA74033BFB96
:10201300121E3A8018E0640D70139003C8E004F0B8
:1020230064287002E4F07A00E0F9120D7590618281
:10203300E0A2E640030220D6E591A2E64003022097
:10204300D67591BF9003A6E064057008120CA31225
:102053000CAF8003120CA9752100120D03E9900344
:10206300A7F07900120CF7120AE77A017B009003BC
:10207300A5E0F9120FC7907803E06442705590050C
:1020830048E014F0704DC2AF12208E00782AD0E0E1
:10209300F618D0E0F6E59F540770057509FF800335
:1020A30075097FC4C0E07829E6F50808E65509F507
:1020B30009740B7808121623D0E02508F890627093
:1020C300E0A2E740F8E8C333906272F0906270E0F8
:1020D300D2E0F0906181E0A2E35009E5E9A2E35088
:1020E3000375E9F7A3E0A2E75009E591A2E75003DE
:1020F30075917FEEA2E092AFD0F0D083D082D00B67
:10210300D00AD009D008D0E0FED0E0FDD0E0FCD06A
:10211300E0FBD0E0FAD0E0F9D0E0F8D0D0D0E03264
:10212300C0E0C0D0C082C083906183E0A2E05009C8
:10213300E5BFA2E0500375BFFEE0A2E15009E5BF91
:10214300A2E1500375BFFDE0A2E25009E5BFA2E2A0
:10215300500375BFFBE0A2E35009E5BFA2E35003C0
:1021630075BFF7E0A2E45009E5BFA2E4500375BFD1
:10217300EFE0A2E55009E5BFA2E5500375BFDFE03C
:10218300A2E65009E5BFA2E6500375BFBFD083D0D6
:10219300828088C0E0C0D0E8C0E0E9C0E0EAC0E0E7
:1021A300EBC0E0ECC0E0EDC0E0C0F0E5A7A2E65074
:1021B3000FE5A1A2E6500953A7BF75A1BF1221FBEA
:1021C300E5A7A2E5500CE5A1A2E5500653A7DF75EC
:1021D300A1DFE5A7A2E15009E5A1A2E1500375A1A2
:1021E300FDE5A7A2E2500CE5A1A2E2500653A7FB2E
:1021F30075A1FBD0F002210C74F81217217521018F
:102203009003A6E064067015120C3D8A828B83A3AB
:10221300A3A3A3A3A3E0FAA3E0FB120C91A2AFE450
:1022230033FED2AF9003ACE0640170187A207B00D8
:102233009003A5E0F91210517A207B009003A5E0EA
:10224300F9120FCD906182E0D2E6F0900545E0608F
:102253002185C62280169003ABE064017008E5C6B1
:1022630054F84405F5C653BEFC121F88740165215A
:1022730060E4EEA2E092AF7F010217CD008E238FC0
:1022830024858228858327851882851983E0CEA338
:10229300E0CF852882852783EBC9EAC8EDCBECCA5A
:1022A30075F010C3E833C8E933C9EA33CAEB33CB5B
:1022B300C3EA9EF526EB9FF525B35004AB25AA266A
:1022C300EC33CCED33CDD5F0DAAE23AF242274ED6D
:1022D3001217218A088B098C0A8D0B74131216911D
:1022E300780C1214FD7808790C12136C75100175B3
:1022F30011C875120075130050127808790C121466
:102303009C7810790812136C50168010780C790899
:1023130012149C7810790C12136C4004790180021A
:1023230079007F0C0217CD74ED1217218A088B09EF
:102333008C0A8D0B7413121691780C1214FD780C01
:10234300790812136C40117808790C12149CAA08AE
:10235300AB09AC0AAD0B8022751000751100751224
:10236300007513017810790C12149C7810790812F7
:102373001463AA10AB11AC12AD1380A68A828B83AF
:102383007508FF7509FF750AFF750B0078081214AD
:10239300EA7F040217CD74F51217218C828D83789E
:1023A300081214FD8A828B8378081214B0EA24047D
:1023B300F8EB3400F98C828D83A3A3A3A3E0FCA3E1
:1023C300E0FD88828983C3E09CF0A3E09DF08882CE
:1023D3008983C3E09420A3E0944E40268A828B83B2
:1023E3007508FF7509FF750AFF750BFF780812144E
:1023F300898A828B83A3A3A3A3E02420F0A3E034E0
:102403004EF002237F74F5121721E9FE9004FBE0DE
:10241300FAA3E0FBEEC333F8E433F974DB28F58267
:10242300748039F583E02AF508A3E03BF5097808C1
:102433001218C87A407B427C0F7D001222807402FE
:1024430012165B8A088B098C0A8D0B74107808129C
:10245300142BAA08AB097F040217CD74F1121721BC
:102463008A0C8B0D8C0E8D0F740F121691E0FAA34C
:10247300E0FB7411121691E0F508A3E0F509780862
:102483001218C8EA2401F508EB3400F509E4F50A4B
:10249300F50B780C79081213AB750871750902787E
:1024A3000C79081213ABAA0CAB0DAC0EAD0F1222B4
:1024B30080740212165B8B09EA450960047A018075
:1024C300027A00EC2AFCED3400FD7413121691E03D
:1024D300F8A3E0F9E8FEE9FFECF8EDF97A717B0285
:1024E3001215BA880889098E828F83780812150C11
:1024F300ECF8EDF97A717B021215BA8A088B09742C
:102503000578081216328E828F83A3A3A3A3E5084E
:10251300F0A3E509F07F080217CDC082C083E990DC
:102523006000F0D083D08222C2AF02000022C0E05C
:1025330074F212180DA2AFE433FED2AFC2C0E5D1DC
:10254300A2E4500653D1EF1211FBEEF8EEA2E09293
:10255300AF7F0102186CC0E0C0D0E8C0E0E9C0E082
:10256300A2AFE433F8D2AFC2C7E8F9E8A2E092AF72
:10257300D0E0F9D0E0F8D0D0D0E032C0E0C0D0E86D
:10258300C0E0E9C0E0C082C083A2AFE433F8D2AFB9
:10259300758A00C2EB9008597401F0900856E070F8
:1025A3000775F900C285D285E8F9E8A2E092AFD2B7
:1025B300AFD083D082D0E0F9D0E0F8D0D0D0E032F1
:1025C400FFFFFFFFFFFFFFFF74F71216B5E990024C
:1025D400E5F07C1D7D037AFF7BFF1208299002E65B
:1025E40074FFF0A3F0A3E4F0A3F079051207B1900F
:1025F40002E5E0F91206D97A477B081209F17F0156
:1026040002178774F41216B58A088B09EB5480609C
:10261400309002E5E0F9120FAF8A0A8B0BAE0AAFD5
:102624000BEE4F60138E828F83E064B07003120749
:10263400C9EEFAEFFB120F9DAA08E5096480FB803E
:10264400047A007B0002281E74F21216B574FC1280
:102654001645EAFEEBFFEE4F60387402121691EE57
:10266400F0A3EF122A83ECF0A3ED122A83AA82AB23
:10267400831206D3E9F50870737412121691123698
:1026840037E50A450B60658E828F831226FAEE4F7A
:10269400700575080280557A067B0012100F8A0CAB
:1026A4008B0DA80CA90DE8497005750813803D88A9
:1026B400828983E4122704A3A3EEF0A3EF123AD095
:1026C400E50AF0A3E50BF09002EB12278C9002EBE5
:1026D4006017E0FCA3E08003EAFCEBFD8C828D83B1
:1026E40012278C70F38C828D8312355CA9087404D4
:1026F40012165B023CD2A3A3A3A3E0FEA3E0FF2235
:10270400F0A3F0888289832274F21216B5890AE94B
:1027140075F017A4FEAFF09002EAE4F09002E8121C
:10272400278C600A1210159002E8E4F0A3F0EEFA88
:10273400EFFB12100F8A088B09EA4509602FEEFCA3
:10274400EFFD7900120F8B9002E8E508F0A3E5098C
:10275400F07B008008122776E4F0A3F00BEBC3951E
:102764000A40F2E50A9002EAF07900800279130245
:102774003CD2EB75F017A4F8A9F09002E8E028FA2F
:10278400A3E0398A82F583221232F2EA4B2274F4EE
:102794001216B5750800750900740C121691123AD8
:1027A400A4FEE9FF800CE5082401F508E5093400DE
:1027B400F509C3E5089CE5099D503285080A850999
:1027C4000B7403780A121632EA250AF8EB350BF972
:1027D40088828983A3A3A3A3A3A3123637EE650A31
:1027E4007003EF650B70BFE8FAE9FB80047A007BA5
:1027F40000802774F41216B57900EAA2E0501B7524
:10280400084475098178081218C87C047D007A048C
:102814007B0C1207AB740212165B7F04021787C08D
:1028240082C0839002EB122856601C88828983A39D
:10283400A3E06A7003A3E06B8882898370E8A3A392
:10284400A3A31232EE80047A007B00D083D08202EC
:10285400011F123DA5E8492274EE1216B574FC124C
:102864001645EAFEEBFF851882851983E4F0A3F090
:10287400EE2402123540EE2405122A71EE2404F5EA
:102884000EEF122E56E024FE603924FC604624FE2E
:10289400605224FE605E24FE700302297624FE70DA
:1028A400030229EE24FE70030229FD24FE700302B4
:1028B4002A0C24FC7003022A1B24FE7003022A2A19
:1028C400022A679003047417F0A3E4122A8B1204FB
:1028D40051022A67851882851983AC82AD83120759
:1028E400CF022A37851882851983AC82AD831207FB
:1028F400D5022A37850C08850D097402121691AC8D
:1029040082AD838508828509831232EE1206F78A26
:102914000C8B0DAC0CAD0DEC4D6042E4F50CF50DDB
:10292400780C1218C8750C04750D03780C1218C8AD
:10293400750C05750D03780C1218C87408121691DD
:102944001218DF79161232E8120811740812165B95
:10295400E9F50C700B1232E4120469800F750C0156
:10296400850882850983122A7912355C850C080250
:102974002A3A7402121691AC82AD83850C82850DBD
:10298400831232EE1206F78A108B11AC10AD11ECE3
:102994004D6043850C82850D83A3A31218DF751047
:1029A4000475110378101218C87510057511037891
:1029B400101218C874081216911218DF7916123200
:1029C400E8120811740812165BE9F509700B12324B
:1029D400E412046F800F750901850C82850D831242
:1029E4002A7912355C850908804C851882851983FB
:1029F400AC82AD831207DB803A851882851983ACDB
:102A040082AD831207E1802B851882851983AC82FD
:102A1400AD831207E7801C851882851983AC82ADCB
:102A2400831207ED800D851882851983AC82AD83EE
:102A34001207F3E9F508E50860298E828F83A3E085
:102A44006414601F850E82850F83E0900304122AAC
:102A540083123DA190030512355CE508A3122A8B6D
:102A640012044BEEFAEFFB120775023448F50CEF33
:102A74003400F50D22123DA585188285198322F0B4
:102A840085188285198322F07C047D03850A82855A
:102A94000B831232F22274EE1216B574FC12164530
:102AA4008A0A8B0B8C0E8D0FEA2405F508EB340093
:102AB400F5097C157D0079007A047B03120F8BE500
:102AC400082402F50CE509122A74851882851983F5
:102AD40085821085831178101218C88508828509AB
:102AE40083A3A3A3A3122F9E1218C8E5082405F5F7
:102AF40010E5093400F51178101218C8850C828588
:102B04000D831232F81206F1740612165B8A108BCA
:102B140011AE10AF11E50A2402F50AE50B12354394
:102B2400EE4F7003022C6080177402121691123259
:102B3400EE88828983EAF0A3EBF0900304E004F0CA
:102B4400900304E0C394054003022C60E4F510F5FF
:102B54001178101218C87510ED751102781012183A
:102B6400C87510EE75110278101218C87406121682
:102B7400911218DF7910EEFCEFFD1232E812081101
:102B8400740812165BE9705E850882850983A3A325
:102B9400A3A3A3A3A3E0F89002EDE0687048122F6A
:102BA4009E1218C87CEE7D02E5082408FAE5093473
:102BB40000FB120F85740212165BE960298E828F66
:102BC40083A3A3A3A31232EE900304E0F5107402CE
:102BD400781012163274052510F58274033511F538
:102BE40083EAF0A3EBF074021216918582108583B8
:102BF4001178101218C874021216911218DF850C7D
:102C040082850D83123DB61206FD740412165B8A8A
:102C1400108B11AE10AF11900304E0F51075110084
:102C24007402781012163274042510F874033511E6
:102C3400F988828983A312278C7003022B24E82449
:102C440003F8E93400F9EE4F6003022B2D888289E2
:102C54008374FFF0A3F0900304E004F0900304E015
:102C6400600A1232E412045D7900800B85088285C3
:102C74000983123553790A02344874EA1216B5747A
:102C8400FE1216458C128D13EA2405F50CEB123F47
:102C9400201226FE750800750900EA2402F510EBDF
:102CA4003400F51185188285198385820A85830B82
:102CB400780A1218C8850C82850D83A3A3A3A312D6
:102CC4002E601218C8E50C2405F50AE50D123543EB
:102CD400780A1218C8850C82850D83123DB4120639
:102CE400F1740612165B8A0A8B0BEA450B70030219
:102CF4002E11EA2404F50EEB122E561226FE8A82B9
:102D04008B83A3A3A3E0F98510828511831232EE8D
:102D14001206DFE9F5096003022E11E4F514F51536
:102D240078141218C87514ED75150278141218C8A1
:102D34007514EE75150278141218C87406121691DB
:102D44001218DF7913AC0AAD0B851082851183123A
:102D540032EE120811740812165BE9F509600302D9
:102D64002E119002EDE0F8E5087009E024029003CA
:102D740005F08017900305E0FCE82402FAE434002F
:102D8400FBEA6C7001EB6003022E15850882AA82AF
:102D9400122F959414122F8D5073850E82850F83F4
:102DA400E0C0E074062A122E4DD0E0F00508850E2E
:102DB40082850F83A3E0C0E085080A7406250A1201
:102DC4002E4DD0E0F005089002ED122E601218C8C6
:102DD4007CEE7D0285080A7406250AFA7403340021
:102DE400FB120F73740212165B9002EDE02508F5D6
:102DF4000874FF6E700374FF6F6012EE24010EEF0F
:102E04003400FFE508C394145003022CA8E50860BD
:102E1400131231D98510828511831232EE120463A4
:102E240079008014E509700375090A8512828513F7
:102E340083EEF0A3EFF0A909740212165B7F0E0271
:102E4400178785080C7406250CF58274033400F585
:102E540083223400F50F850E82F58322123AE32291
:102E640074EE1216B574FE1216458C0E8D0FEA24FC
:102E740005F50CEB122A74750B00900304E4F0F5CD
:102E84000AEA2402F508EB3400F5098049900304AA
:102E9400E0FA9002EDE0F8122F959417122F8D406E
:102EA4000D900304E0F87416C3989002EDF0122F0D
:102EB4009E1218C87CEE7D0274052AFA740334004D
:102EC400FB120F73740212165B9002EDE0F890038C
:102ED40004E028F0050AE50C2416F582E50D122E0F
:102EE40051E0F8E50AC3984003022F76900304E00A
:102EF400C39416507DE50AC333F8E433F9E50C288E
:102F0400FEE50D39FF851882851983AC82AD838E69
:102F1400828F831232EE1206F78A108B11AC10AD39
:102F240011EC4D7005750B018043E4F510F5117833
:102F3400101218C87510ED75110278101218C875A2
:102F440010EE75110278101218C874061216911238
:102F540018DF79168508828509831232EE1208116A
:102F6400740812165BE9F50B7003022E9112354FAB
:102F740080107C047D038508828509831232EE1259
:102F84000475A90B740202344AE99400C365D03372
:102F940022EA28F8E43400F9E822E0F5107511007B
:102FA40078102274EA1216B574FC1216458A0C8B3A
:102FB4000D8C128D13EA2405F50AEB1235437508BE
:102FC40000750900E50A2402F510E50B3400F5113B
:102FD400740212169185820E85830F780E1218C81A
:102FE400850A82850B83A3A3A3A3123A8F1218C860
:102FF400E50A2405F50EE50B3400F50F780E1218DA
:10300400C88510828511831235491232E81206F1FF
:10301400740612165B8A0E8B0FAE0EAF0FE50C24EE
:1030240002F50EE50D3400F50F8040888289837423
:10303400FFF00508122E4674FFF005089002EDE03B
:10304400F50C750D00780C1218C87CEE7D0285080D
:103054000C7406250CFA74033400FB120F7374020B
:1030640012165B9002EDE02508F508EE4F60718EB4
:10307400828F83A3A3A3E0F9850E82850F83123286
:10308400EE1206DFE9F509EE2404122A71E9704410
:10309400E4F514F51578141218C87514ED751502B5
:1030A40078141218C87514EE75150278141218C81D
:1030B40074081216911218DF7911EEFCEFFD850EDB
:1030C40082850F831232EE120811740812165BE91E
:1030D400F5096027850C82850D831231CF12355C8A
:1030E400E50870030231B51231D9850E82850F834C
:1030F4001232EE12047B79000231CA850882AA8258
:10310400EA9002ED7009E02404900305F08022E0C7
:10311400F8900305E0F514E82404FCE43400FDEC25
:1031240065147001ED70C0122F959412122F8D50FA
:10313400B6850C82850D83E0C0E074062A122E4DFC
:10314400D0E0F00508850C82850D83A3E0C0E01271
:103154002E46D0E01231EB85820C85830D780C125B
:1031640018C874041216911218DF85108285118311
:10317400123DB61206FD740412165B8A0C8B0DAE5A
:103184000CAF0D85080C7406250CF874033400F993
:10319400EE4F700302302F851882851983E08882F0
:1031A40089831231EBA3E0C0E0122E46D0E0023056
:1031B4003DE509700375090A850A82850B8312317E
:1031C400CF12355CA9097404022E3E123DA5851266
:1031D4008285138322900305E0F5F0E508849003CB
:1031E40004F07C047D0322F0050885188285198388
:1031F4002274EC1216B574FE1216458A088B098CDB
:103204000E8D0FEA2405FEEB3400FF851882851924
:1032140083AC82AD838E828F831232EE1206F78ADC
:103224000A8B0BEE2418122A71EA450B7003023242
:10323400BF12343150328518828519831232EE124E
:1032440008058A108B11EA4511606B7912AC0AAD3E
:103254000B8508828509831232EE851082851183DD
:103264001216B3E9F50A7058E4F50AF50B780A1258
:1032740018C88E828F83A3A3E0F50A780A1218C8AF
:10328400EE2403123540780A1218C88E828F8312F6
:1032940032F8120817740612165BE9F50A702185D4
:1032A4000C82850D83E0701F8508828509831232A4
:1032B400EE1204818011750A0E8009750A018004DA
:1032C400E50A600312354F850C82850D83E06004A6
:1032D40079008002A90A740212165B7F0C02178718
:1032E4007C047D03850A82850B831232F222E0FA84
:1032F400A3E0FB22E0FCA3E0FD850882850983129C
:1033040032F22274EE1216B574FE1216458A088B38
:10331400098C0C8D0DEA2405FEEB3400FF750E00BC
:10332400851882851983AC82AD838E828F83123295
:10333400EE1206F78A0A8B0BEA450B700302341D62
:1033440012343150358518828519831232EE1208F1
:10335400058A0E8B0FEA450F605E7912AC0AAD0B3D
:103364008508828509831232EE850E82850F8312C9
:1033740016B3E9F50E6003023420850882850983BB
:10338400123637AA0AFB1207F98A108B11A810A962
:1033940011E849701E7AFF7BFF1207F98A108B111E
:1033A400A810A911E849606C88828983E50AF0A312
:1033B400E50BF0750A008007750E0E805F050A9014
:1033C40002EAE0FAE50AC39A504AE50A75F017A43E
:1033D400FAABF088828983A3A3E02AFAA3E03BFB3B
:1033E4008A828B83123549EC4D70D2750A17750B9E
:1033F40000780A1218C8EEFCEFFD120F7374021263
:10340400165BEEFCEFFD8508828509831232EE120D
:1034140004878014750E098003750E01123D9D8585
:103424000C82850D8312355CA90E022F88E50824D1
:1034340002F508E5093400F5098A828B83A3A3A366
:10344400E0A2E522740412165B7F0A02178774EC6B
:103454001216B58C108D11EA2405F50CEB122A74A2
:10346400750F00EA2402F50AEB123543850A82F54A
:10347400831232EE1207F98A088B09EA45097003B0
:10348400023535750E008071850C82850D83E064EC
:1034940001704F8E828F83A3A31218DF8E828F83D5
:1034A400A3A3A3A3E0F51275130078121218C8EEB3
:1034B4002405F512EF3400F51378121218C81232ED
:1034C400E8120817740612165BE9F50F6014850CF0
:1034D40082850D83E4F0123D9D851082851183124F
:1034E400355C7C177D007900EEFAEFFB120F8B8EB2
:1034F400828F83E4F0A3F0050E9002EAE0F8E50E73
:10350400C398501EE50E75F017A4F8A9F08508823B
:10351400850983A3A3123F2A123549EC4D600302A7
:10352400348C85088285098374FFF0A3F0E50F705D
:10353400061232E812048DA90F0232DFF50AEF34C5
:1035440000F50B22A3E0FCA3E0FD228E828F831200
:103554003DA5850E82850F83E8F0A3E9F022C082A1
:10356400C0839002E6E06A7003A3E06B70067AE61B
:103574007B0280047A007B0002284FC082C08378DB
:10358400008C828D83E06A7003A3E06B7010E87591
:10359400F003A4F8A9F0EC28FAED39FB8015088CA7
:1035A400828D83A3A3A3E06A7003A3E06B60DF7A38
:1035B400007B0002284F74F61216B51207C38A82E4
:1035C4008B83E582458370067A007B008007A3A382
:1035D400A3A31232EE023C4E74F21216B5E9FE7445
:1035E4000E1216911236377410121691123AAF8CCD
:1035F400828D83E064027036A3123DABF50CA3E028
:10360400F9A80C74026870037429697021750C029E
:10361400750D00780C1218C878081218C8780A12A8
:1036240018C8EEF912083B740612165B8002790181
:10363400023CD2E0F50AA3E0F50B2274E81216B5B9
:1036440074FB121645E9851882851983F08A168B56
:1036540017ECFEEDFF751000741D121691123DA1BA
:10366400741D12169112355C8E828F83A3A3A3E07E
:10367400A2E4502D741D1216911232EE1208058A1E
:10368400828B83E58245837003023A80790AEEFCDB
:10369400EFFDAA16AB171216B3E9F5106003023A50
:1036A40083741F121691123AAF74211216911236B6
:1036B400377423121691E0F50EA3E0F50F8E828F76
:1036C40083E064026003023A2EA3123DA1850882BE
:1036D400850983A3858212858313EE2406122A7139
:1036E40088828983E0FAA3E0F9EA2400F514E43936
:1036F400F515781412195201000028012823370700
:10370400000228E8370328553700291F3901294AC0
:10371400390229EB3803291F390429C9392E3AE51E
:103724000E450F6003023A29850C82850D83123AF7
:10373400A4FAE9FB8A828B83E0850A82850B8312D3
:103744003ADA1218C88A828B83A3E0FCA3E0023918
:10375400B3E50E450F6003023A29850A82850B837F
:103764007401F0123AB7850882850983F07C007DE4
:10377400008E828F83A3A3A3A3E02401FAA3E034E1
:1037840000FB1206F7EA4B60418A828B83E0240235
:10379400F8850A82850B83E028F0EA2404F8EB34E8
:1037A40000F988828983E0851282851383123AECBA
:1037B400123ADA1218C88A828B83123548E5082433
:1037C40003FAE5093400FB0239B8850A82850B83C4
:1037D400E02404F07C047D007900AA12AB13120FDC
:1037E4008B023A83E50E450F6003023A29123AB779
:1037F400FEA3E0FF850A82850B837404F0EE85083E
:1038040082850983F0EF851282851383F074031295
:103814001691AC82AD83EEFAEFFB1206F78A0C8B9D
:103824000DEA450D70030238CC8A828B83A3A31260
:1038340026FA740112169185820E85830F780E1272
:1038440018C874051216911218DF7CFF7DFF12064A
:10385400FD740412165B8B0FEA450F7033850C82DE
:10386400850D83123A8F1218C8850C82850D83A3A7
:103874001218DF7C027D007AB67B8112052974045C
:1038840012165BE9700A740112169174FFF0A3F02A
:103894008E828F83E064027039750C02750D007896
:1038A4000C1218C88E828F83123548E5082404FA56
:1038B400E5093400FB120F73740212165B850A8249
:1038C400850B83E0240280097401121691EEF0A3A3
:1038D400EFF07401121691123AA0F07401121691CD
:1038E400A3123A98023A23E50E450F6003023A29DF
:1038F400850C82850D83123549AA16AB1712082F41
:10390400850A82850B837402F0EA8508828509831F
:10391400F0851282851383EB023A26E50E450F608B
:1039240003023A29123AB7F8A3E0F9850A82850B13
:10393400837402F0E8850882850983F0E9851282A0
:10394400851383023A26850C82850D831232EE128A
:103954000F6DEAFC8C82A882C3950EE4950F405F3C
:10396400E8650E7002E50F70047C008022851882E1
:10397400851983E0FAE50E2AFAE50F3400FBC3EA61
:1039840098EB94005003E08005E50ECCC39CFCEC5E
:10399400850A82850B83F08C0A750B00780A12184D
:1039A400C8850C82850D83E0250EFCA3E0350FFD50
:1039B400AA08AB09120F73740212165B023A8375DC
:1039C4001007023A83E50E450F705A850C82850D67
:1039D40083123DA1850A82850B8374071227061280
:1039E4003A98122706A3E0851282851383F0E8240F
:1039F40002FAE93400FB8A828B83123A98123AC79E
:103A0400123AA0A3123AD0123AA9F0E82405F8E930
:103A14003400F988828983123AA9A3123AECA3A349
:103A2400A3A3F0805A75100B8055741D12169112C1
:103A340032EE1207C38A828B83E5824583603D128E
:103A44003DA1880C890DE8450D6031780E1218C827
:103A5400780A1218C878081218C87406121691E069
:103A6400F9EEFCEFFDAA16AB17850C82850D8312C7
:103A740016B3740612165BE9F510800375100EA9CF
:103A840010740512165B7F10021787E0F50E750F90
:103A940000780E22E085088285098322123AF622F4
:103AA400123DA5E822123AF6A3A322E0F508A3E00A
:103AB400F50922850C82850D83E0F8A3E0F583885F
:103AC40082E022A3A3F08A828B83A322F0888289D6
:103AD40083A3A3A3A322F08A828B83123AE322E076
:103AE400F50A750B00780A22F088828983A3123ABA
:103AF400F622E0850882850983A3A32274EE1216B8
:103B0400B574FE1216458A0A8B0BECFAEDFB74149D
:103B1400121691E0F510A3E0F5117416121691E057
:103B2400FE7418121691E0F50EA3E0F50F851882C5
:103B3400851983AC82AD831206F78A0C8B0DEA4596
:103B44000D60498518828519831232EE1207C38AE3
:103B5400828B83E5824583602FA3A3123AAFE508E5
:103B640045096024780E1218C878101218C8EEF9A6
:103B7400AC0CAD0DAA0AAB0B85088285098312161D
:103B8400B3740412165B8006790E80027901022F49
:103B94008874F61216B574FE121645740C1216913A
:103BA400123AA4851882851983F07401121691E9DA
:103BB400F0E4F508F50978081218C87508027808C1
:103BC4001218C8740412169185820885830978082E
:103BD4001218C8120817740612165B740212165BC8
:103BE400806874F71216B5EAFEEBFF89087C1D7D28
:103BF4000312082FEA5402600BA908EEFAEFFB1235
:103C040006EB8002790102260274F61216B574FFDF
:103C14006A700374FF6B70168C828D83123C53E4BC
:103C2400F08C828D83A3A3A3123C53A380181207A4
:103C3400FF8A088B09A808A909E849600D888289C8
:103C44008374FF122704A3A3E4F07F02021787748E
:103C5400FFF0A3F08C828D83A3A32274F61216B511
:103C64001207FF8A828B83E58245836006A3A3E063
:103C7400FA80027A007B0080D174F21216B58A08A9
:103C84008B09ECFEEDFF740E121691E0F50A120793
:103C9400FF8A0C8B0DA80CA90DE8497026EEFCEFE9
:103CA400FD7AFF7BFF1207FF8A0C8B0DA80CA90D70
:103CB400E84970047911801688828983E508F0A3A5
:103CC400E509F088828983A3A3E50AF079007F06D9
:103CD40002178774EE1216B5EAFEEBFF8C088D0905
:103CE400890C7414121691123DA1741612169112B5
:103CF40032EE750D00E8496003023D957402650CCF
:103D04006003023D907412121691123DABFCA3E0C5
:103D1400F9EC2400F50EE439F50FEAF4F8EBF4F9C4
:103D2400EC58F8E50F59F9E849705CE5082406F801
:103D3400ED3400F9880A890B8882F583123DB612A6
:103D4400082F8A108B11E50E65107004E50F6511BC
:103D54006042780E1218C8850A82850B83123DB61C
:103D6400120835740212165BE9F50D7027780E12ED
:103D740018C8850882850983A3A3123DB412084D8F
:103D8400740212165B800D750D808008750D0D8010
:103D940003750D0BA90D02344D8E828F83123DA540
:103DA40022E0F8A3E0F922123DA588828983E0226B
:103DB400A3A3E0FCA3E0FDEEFAEFFB2274E81216E5
:103DC400B574E7121645851882851983EAF0A3EBCA
:103DD400F08C168D17890E75080075090074311260
:103DE4001691E0F512A3E0F5137433121691E0F581
:103DF40014A3E0F5157435121691E0F50FE5097575
:103E0400F003A4F8A9F0851882851983123F2AE0EB
:103E1400F47003A3E0F47003023F0DEE2402F50CEA
:103E2400EF123F20E07003023F0D85160A85170B41
:103E3400780A1218C8AC14AD15AA12AB131207B73E
:103E4400740212165B8A0A8B0BEA450B7003023F5D
:103E54000DE4F510F51178101218C87406121691B5
:103E640085821085831178101218C874091216916E
:103E740085821085831178101218C88512828513E3
:103E840083A3A3A3A31218DF7914AC0AAD0B8E820B
:103E94008F831232EE120811740812165BE97069EE
:103EA400850A82850B83A3A3A3A3123DA1740212E6
:103EB400169112355C850C82850D83E0A2E05018C2
:103EC400A90E7402121691AC82AD838E828F831276
:103ED40032EE12070FE94208850C82850D83E0A2B9
:103EE400E15026E50FF50A780A1218CCA90E7403DE
:103EF400121691AC82AD838E828F831232EE12073A
:103F040009740112165BE942080509E509C3940224
:103F14005003023E01A9087419023A873400F50DD2
:103F2400850C82F58322E028FEA3E039FF8E828F80
:103F3400832274F21216B5EAFEEBFF890B74016555
:103F44000B600E7402650B706A7901120A0FE97036
:103F540062EEFAEFFB1207F98A088B09EA45096059
:103F640047750A00800B7C177D007900120F8B05C2
:103F74000A9002EAE0F8E50AC3985021E50A75F0D0
:103F840017A4F8A9F0850882850983A3A3E028FA79
:103F9400A3E039FB8A828B8312285670C985088274
:103FA40085098374FFF0A3F07C1D7D03EEFAEFFB1B
:103FB400120829023CD274F21216B58A088B09EC55
:103FC400FEEDFF740E121691123637900C02E0F4D7
:103FD400603D7A097B00120F97EA4B60328A828B2C
:103FE4008374B1F0A3E4123AC9A3123AC7A3E50853
:103FF400F0A3E509124016EEF0A3EF124016A3A3B6
:10400400E50AF0A3E50BF0900C02E0F9120FA3020D
:104014003CD2F08A828B83A3A3A3A3A32274EC12C1
:1040240016B574DA121645890D8A128B138C0A8D13
:104034000B743A121691E0F50C90813EAC18AD1950
:104044007406121558AC18AD19AA12AB13A90D12A7
:104054001093E9FEEEC3940A4003024193EEF91271
:1040640010C9E9FF900CEEE0640270047401800250
:104074007400F50878081218CCAD0CEFFCEEF9AA20
:104084000AAB0B12113B740112165B7C147D007990
:104094000074121216A3120F8B8A0E8B0F850E0852
:1040A400850F0974121216AB7A1075F006EEA4246B
:1040B40024F912129DE9703B7C1079FF74121216D8
:1040C400A3120FEBE9702C7422121691AC82AD830B
:1040D4007A0475F006EEA42425F912129DE9F50878
:1040E40074121216ABEFA2E0E433F9AA0AAB0B1276
:1040F40005BFE974061216AB7A0C74702EF912120D
:104104009DE9707974061216A31210BD750E00E5B0
:104114000EC394045067E50EF87900E875F003A423
:10412400C8AAF075F000A42AFA75F003E9A42AF9E4
:104134007406121691E58228F508E58339F5098598
:104144000882850983E0F8A3E0F9E849602B850833
:1041540082850983A3A3E0F5107511007810121865
:10416400C8850882850983E0FCA3E0FDAA0AAB0B9D
:1041740012081D740212165BE9050E8092EFA2E18B
:10418400500D900769E0F9AA0AAB0B120823E974F1
:1041940004650C700F900CEEE064027007AA0AAB81
:1041A4000B1211357900742612165B7F0C021787E7
:1041B40074F21216B5890BEAFEEBFF8C088D0975B3
:1041C4000A0AE50B600C146009146044146064026C
:1041D4004258EEFAEFFB1210DBE9F50AE50AC39444
:1041E4000A5071E5084509606B750C06750D007879
:1041F4000C1218C8EEFCEFFDAA08AB09120F737479
:104204000212165B8A0C8B0D850C82850D8380440B
:10421400EEFAEFFB1210D5E9F50AE50AC3940A5049
:1042240033E5084509602DAA08AB09A90A1210CF85
:10423400E98021EEFAEFFB1210E1E9F50AE50AC381
:10424400940A5010E5084509600AAA08AB09A90AAE
:104254001210CFE9A90A7F0602178774F21216B565
:104264008A0C8B0DE9FE7F1574FF650C700474FFD6
:10427400650D702A750800E508C3940A5014EEFC15
:104284007A027B00A9081210ABE960027F000508DE
:1042940080E5EE60627A237B11120A218059AA0C10
:1042A400AB0D120A038A0A8B0B850A08850B09E5F4
:1042B40008450960407C007D00E5082405FAE435E2
:1042C40009FB850882850983A3A3A3A3E0F912103F
:1042D40093E9F50AE50AC3940A500EEEFC7A027BD0
:1042E40000A90A1210ABE97F00EE600BAA08AB0923
:1042F40012112380027F14EFF97F0602178774EEF0
:104304001216B58A0E8B0F8C0A8D0B74121216912D
:10431400E0F50CA3E0F50D75081574FF650E700447
:1043240074FF650F701E7E00EEC3940A5061AC0CDE
:10433400AD0DAA0AAB0BEEF91210B1E960037508D2
:10434400000E80E4AA0EAB0F120A038A108B11AE82
:1043540010AF11EE4F60357C007D00EE2405FAE4C9
:104364003FFB8E828F83A3A3A3A3E0F9121093E9EA
:10437400F509E509C3940A5016AC0CAD0DAA0AABB5
:104384000BA9091210B1E97508008003750814A976
:10439400087F0A02178774F21216B574EC121645D8
:1043A4008A0A8B0B850A82850B83A3A3E024FA7007
:1043B400030247D924FD70030246561470030244D5
:1043C4008A14601024FD70030245FE147003024633
:1043D40094024847AE0AAF0B900783E0F8A3E0F9D4
:1043E400E8496066900783E0F8A3E0F5838882E0FB
:1043F400F8A3E0F9E8496052EE240CF582E43FF5B5
:1044040083E0F50878081218CCEE240BF582E43F1B
:10441400F583E0F98E828F83A3A3A3A3A3A3A3A30D
:10442400A3E0FCA3E0FDEE2403FAE43FFB90078342
:10443400E0F8A3E0F5838882E0F8A3E0F5838882BE
:104444001216B3740112165B80398E828F83A3A374
:10445400A3A3A3A3A3A3A31218DF90077F12151B82
:104464001205D1740212165BE9601879018E828FED
:1044740083A3A3A3A3A3A3A3A3A3E0FAA3E0FB1290
:1044840005CBE9024847AE0AAF0B8E828F83A3E0C7
:1044940060030245AC8E828F83A3A3A3A3A3E0A2EF
:1044A400E040030245AC90081DE0F8A3E0F9E849B8
:1044B40060030245AC7C0E7D007900AA18AB19128A
:1044C4000F8B8A088B09AA08AB09EE240CF582E449
:1044D4003FF583E0F8A3E0F9E8496036750806750E
:1044E400090078081218C8EE240CF582E43FF5831D
:1044F400E02410FCA3E03400FD74021216A3120F92
:1045040073740212165B8A088B09850882850983F5
:10451400804F8E828F83A3A3A3E0FAA3E0FB120A49
:10452400038A0C8B0D850C08850D09E50845096087
:104534002D750C06750D00780C1218C8E5082405B5
:10454400FCE43509FD74021216A3120F73740212EF
:10455400165B8A0C8B0D850C82850D8380030248C3
:10456400478E828F83A3A3A3A3A3E0A2E25004D225
:10457400F08002C2F0A2F0E433F87900740C121651
:1045840091E048F0A3E049F0EEFCEFFDAA18AB1966
:104594001210C3E970127A027B00900769E0F912E5
:1045A4000FC7E97900024849900783E0F8A3E0F9CE
:1045B400E8496043900783E0F8A3E0F5838882A389
:1045C400A3E0F8A3E0F9E849602D8E828F83A3E08D
:1045D400FC79018E828F83A3A3A3E0FAA3E0FB906E
:1045E4000783E0F8A3E0F5838882A3A3E0F8A3E0BF
:1045F400F58388821216B3024847AE0AAF0B9007C0
:1046040083E0F8A3E0F9E8496045900783E0F8A364
:10461400E0F5838882A3A3E0F8A3E0F9E849602FDA
:10462400850A82850B83A3E0FC79028E828F83A3A3
:10463400A3A3E0FAA3E0FB900783E0F8A3E0F583EB
:104644008882A3A3E0F8A3E0F58388821216B3025C
:104654004847AE0AAF0B7C007D00EE2404FAE43F29
:10466400FB8E828F83A3A3A3E0F9121093E9F508CC
:10467400E508C3940A5016EE240AFCE43FFD7A04CC
:1046840075F006E508A42425F9121297E9024847B3
:10469400AE0AAF0B90077EE06018900CEFE0F98E45
:1046A400828F83A3A3A3E0FAA3E0FB1205CBE90264
:1046B4004847900CEEE0701579058E828F83A3A392
:1046C400A3E0FAA3E0FB1205CBE90248478E828FF0
:1046D40083A3A3A3E0FAA3E0FB120A038A0C8B0DC5
:1046E400850C08850D098E828F83A3A3A3A3A3A39E
:1046F400A3E0A2E05071E508450960688508828559
:104704000983A3A3A3A3E0605E8E828F83A3A3A3E4
:10471400A3A3A3A3A3A3E0F8A3E0F9E8C4540FF868
:104724007900E85401F8E95400F9E8A2E04038744B
:104734000E1216ABE5082405FAE43509FB85088258
:10474400850983A3A3A3A3E0F9121093E970187950
:10475400038E828F83A3A3A3E0FAA3E0FB1205CB0D
:10476400E9024847024847EE2405FCE43FFD85087A
:1047740082850983A3A3A3A3E0F98E828F83A3A3D5
:10478400A3E0FAA3E0FB12112F900783E0F8A3E063
:10479400F9E849603E900783E0F8A3E0F583888256
:1047A400A3A3E0F8A3E0F9E84960287C0079008E2F
:1047B400828F83A3A3A3E0FAA3E0FB900783E0F82E
:1047C400A3E0F5838882A3A3E0F8A3E0F5838882BD
:1047D4001216B3806E120697E97068900812E064AE
:1047E40001701A1210F9E9FE9008127400F07C0AA4
:1047F4007D0079007A137B08120F8B803C7E00EEDB
:10480400C3940A50348E0875090074132508F58280
:1048140074083509F583E06401701BEEF91210FF8A
:10482400E9F88E0875090074132508F582740835B3
:1048340009F5837400F00E80C679501212A3E9FEC4
:104844001210E77901741412165B7F06021787743D
:10485400F31216B574F21216458909EAFEEBFF8CC1
:104864000CAC18AD197A0E75F006E509A42420F9EC
:1048740012129DE970647C0679FFAA18AB19120F15
:10488400EBE97056740C121691E0F8A3E0F9E8F520
:1048940008E50C6005EE42088004EEF45208850831
:1048A4000A750B00740C121691E0650A7004A3E0FB
:1048B400650B6022E508F87900740C121691E8F093
:1048C400A3E9F0AC18AD197A0E75F006E509A42435
:1048D40020F9121297E9790180027900740E1216F8
:1048E4005B7F0502178774F01216B574E61216453D
:1048F400890B8A0C8B0DECFEEDFF740C1216AB7A4F
:104904000E75F006E50BA42420F912129DE960034C
:10491400024A1A7C0679FF740C1216A3120FEBE9F3
:104924006003024A1AAC18AD197A0C7470250BF99D
:1049340012129DE96003024A16750A00AA18AB19FF
:104944001210BDE50C450D702E7C0C7900AA18AB35
:1049540019120FEBE960030249FC7C0C7D0079001D
:10496400AA18AB19120F8B8A088B0985088285094E
:1049740083750A010249FCAC18AD19AA0CAB0D12DF
:1049840010B78A0E8B0F850E08850F09E5084509B7
:104994007030EE4F601BAC18AD197A007B0012101A
:1049A400B78A0E8B0FA80EA90F88088909E84970E9
:1049B4000479008063850882850983E50CF0A3E50A
:1049C4000DF0850882850983A3A3E0F87900EE68D9
:1049D4007002EF696022EEC0E0850882850983A336
:1049E400A3D0E0F0EE4F700D850882850983740032
:1049F400F0A37400F0750A01E50A6016AA18AB1951
:104A04001210BDAC18AD197A0C7470250BF9121282
:104A140097E9790180027900741A12165B7F080203
:104A2400178774F71216B5EAFEEBFF7B00EBC3940D
:104A340004504EEBF87900E875F003A4C8AAF075A9
:104A4400F000A42AFA75F003E9A42AF9EC28F58207
:104A5400ED39F583E06E7003A3E06F7021EBF87914
:104A640000E875F003A4C8AAF075F000A42AFA754A
:104A7400F003E9A42AF9EC28FAED39FB80070B804E
:104A8400AC7A007B007F0102178774F71216B57F9A
:104A940000EFC394044003024B3DEFF87900E8753E
:104AA400F003A4C8ACF075F000A42CFC75F003E985
:104AB400A42CF9EA28F582EB39F583E0F4FCA3E0B1
:104AC400F4FDEFF87900E875F003A4C8AEF075F0D2
:104AD40000A42EFE75F003E9A42EF9EA28F582EB72
:104AE40039F583ECF0A3EDF0EFF87900E875F00305
:104AF400A4C8ACF075F000A42CFC75F003E9A42C58
:104B0400F9EA28F582EB39F583A3A3E0F4C0E0EFDA
:104B1400F87900E875F003A4C8ACF075F000A42C93
:104B2400FC75F003E9A42CF9EA28F582EB39F58346
:104B3400A3A3D0E0F00F024A957F0102178774F017
:104B44001216B574F4121645EAFEEBFF8C088D09B3
:104B540090081DE0F8A3E0F9E849702CEE4F6006D8
:104B6400E508450970057901024DEEEEFAEFFB12F6
:104B740010DBE9900CF2F0900CF2E0C3940A4008C8
:104B84001210EDE9900CF2F0900CF2E0C3940A409C
:104B940003024DEC90081DE0F8A3E0F9E849600336
:104BA400024C38EEFCEFFD7A0E75F006900CF2E044
:104BB400A42420F9121297E9F50C7C0C7D0079FFEE
:104BC400AA18AB19120F8B8A0E8B0F850E0A850F4C
:104BD4000BAC18AD197A0C900CF2E02470F9121297
:104BE40097E9F50D750E0E750F00780E1218C8EEC4
:104BF400FCEFFD900CF2E0F87900E875F00EA4C823
:104C0400AAF075F000A42AFA75F00EE9A42AF97442
:104C14008528FA740739FB120F73740212165B8A23
:104C24000E8B0FA80EA90F90081DE508F0A3E50947
:104C3400F0024DE890081DE0F8A3E0C82406F582D0
:104C4400C83400F583E0F8A3E0F9E849604390082C
:104C54001DE0F8A3E0C82406F582C83400F583E01B
:104C6400FCA3E0FD7A1B75F006900CF2E0A424216D
:104C7400F9121297E9F890081DE0F9A3E0C9240697
:104C8400F582C93400F5837400F0A37400F0024D7A
:104C9400E890081DE0F8A3E0C8240AF582C83400AF
:104CA400F583E0F8A3E0F9E849604390081DE0F8D3
:104CB400A3E0C8240AF582C83400F583E0FCA3E02D
:104CC400FD7A1B75F006900CF2E0A42422F912126E
:104CD40097E9F890081DE0F9A3E0C9240AF582C910
:104CE4003400F5837400F0A37400F0024DE89008DA
:104CF4001DE0F8A3E0C8240CF582C83400F583E075
:104D0400F8A3E0F9E849604390081DE0F8A3E0C87F
:104D1400240CF582C83400F583E0FCA3E0FD7A108E
:104D240075F006900CF2E0A42423F9121297E9F826
:104D340090081DE0F9A3E0C9240CF582C93400F5FC
:104D4400837400F0A37400F0024DE890081DE0F8AD
:104D5400A3E0C82408F582C83400F583E0F8A3E092
:104D6400F9E849606F90081DE0F8A3E0C82408F54D
:104D740082C83400F583E0FCA3E0FD7A1075F006E8
:104D8400900CF2E0A42424F9121297E9F50A900891
:104D94001DE0F8A3E0C82408F582C83400F583E0D8
:104DA4002410FCA3E03400FD7A0475F006900CF2A4
:104DB400E0A42425F9121297E9F890081DE0F9A35C
:104DC400E0C92408F582C93400F5837400F0A374A3
:104DD40000F08010900811E06003121141121129B3
:104DE40079018006790080027901740C12165B7FC8
:104DF4000802178774F71216B574F2121645E9FE05
:104E0400AC18AD197A0E75F006EEA42420F912122E
:104E14009DE9700E740C121691E0F8A3E0F9E8F91C
:104E240080027900740E12165B7F0102178774F4F6
:104E34001216B574F21216458909EAFEEBFFE5096C
:104E4400C3940A5004EE4F700479028041AC18AD4B
:104E5400197A0E75F006E509A42420F912129DE9C9
:104E6400F508E5087026750A06750B00780A12180D
:104E7400C874021216ABEEFAEFFB120F737402122F
:104E8400165B8A0A8B0B850A82850B83A908740E2C
:104E940012165B7F0402178774F41216B5EAFEEB50
:104EA400FF750800E508C3940A5044750A06750B9B
:104EB40000780A1218C8EEFCEFFDE508F87900E85E
:104EC40075F00EA4C8AAF075F000A42AFA75F00EC5
:104ED400E9A42AF9748B28FA740739FB120F857434
:104EE4000212165BE96004A9088006050880B579FA
:104EF4000A7F0402178774F41216B5EAFEEBFF75F5
:104F04000800E508C3940A5044750A06750B007836
:104F14000A1218C8EEFCEFFDE508F87900E875F010
:104F24000EA4C8AAF075F000A42AFA75F00EE9A43C
:104F34002AF9748528FA740739FB120F8574021252
:104F4400165BE96004A9088006050880B5790A7F24
:104F54000402178774F71216B574F0121645EAFEA8
:104F6400EBFF750800E508C3940A5039AC18AD1975
:104F74007A1075F006E508A42423F912129DE9704D
:104F8400207C1079FFAA18AB19120FEBE97012EE0E
:104F9400FCEFFDAA18AB191205A1E97004A9088059
:104FA40006050880C0790A741012165B7F01021787
:104FB4008774F41216B5750800E508C3940A400313
:104FC400025093E508F87900E875F00EA4C8AAF039
:104FD40075F000A42AFA75F00EE9A42AF97485285C
:104FE400FC740739FD7A0E75F006E508A42420F94F
:104FF40012129DE9700302508E7C067D0079FFE554
:1050040008FA7B00EA75F00EA4CAA8F075F000A4B3
:1050140028F875F00EEBA428FB74852AFA74073B74
:10502400FB120F8B8A0A8B0BAE0AAF0B7C067D003A
:1050340079FFE508FA7B00EA75F00EA4CAA8F075BA
:10504400F000A428F875F00EEBA428FB748B2AFA60
:1050540074073BFB120F8B8A0A8B0BAC0AAD0BE572
:1050640008F87900E875F00EA4C8AAF075F000A459
:105074002AFA75F00EE9A42AF9749128F5827407C6
:1050840039F5837400F0A37400F00508024FBD9055
:105094000811E060031211411211297F04021787DD
:1050A40074F71216B57E00EEC3940A50327C06796A
:1050B400FFEEFA7B00EA75F00EA4CAA8F075F000C2
:1050C400A428F875F00EEBA428FB74852AFA74075B
:1050D4003BFB120FEBE96004EEF980050E80C87902
:1050E4000A7F0102178774F71216B57E007F00EF5E
:1050F400C3940A502F7C0679FFEFFA7B00EA75F01F
:105104000EA4CAA8F075F000A428F875F00EEBA45C
:1051140028FB74852AFA74073BFB120FEBE9700134
:105124000E0F80CBEEF97F0102178774F71216B5C4
:105134007E007F00EFC3940A500DEE700AEFF9125F
:1051440010FFE9FE0F80EDEEF97F0102178774F07E
:105154001216B574CB1216458909900CF2E0650954
:10516400701D7A017B00900769E0F9120FCDE97A8E
:10517400027B00900769E0F9120FCDE912114D741A
:10518400271216AB7A0E75F006E509A42420F9124D
:10519400129DE9600302528A7C0679FF7427121675
:1051A400A3120FEBE9600302528A7C0E7D0079FFA3
:1051B40074271216A3120F8B8A0A8B0B850A0C858F
:1051C4000B0D7C1B7D0079FF740C1216A3120F8B40
:1051D4008A0E8B0F850E0A850F0B7C0C7D0079FFE0
:1051E400AA18AB19120F8B8A0E8B0FAE0EAF0F7469
:1051F400271216AB7A0E75F006E509A42420F912DD
:105204001297E9F508740C1216AB7A1B75F006E5D3
:1052140009A42421F9121297E94208740C1216AB5E
:105224007A1B75F006E509A42422F9121297E942C3
:1052340008740C1216AB7A1075F006E509A4242341
:10524400F9121297E94208740C1216AB7A1075F031
:1052540006E509A42424F9121297E94208740C12F1
:1052640016AB7A0475F006E509A42425F912129701
:10527400E94208AC18AD197A0C74702509F91212B8
:1052840097E942088003750800A908743512165B73
:105294007F0802178774F71216B5E9FEEE900769C6
:1052A400F01210E77F0102178774F21216B5890A0B
:1052B400EAFEEBFFEE5400F8EF5480F9E84960355C
:1052C400900769E0F9120FAF8A0C8B0DA80CA90D99
:1052D40088088909E8496012AA08AB09121111E982
:1052E4006008AA08AB09120F9DE9EE6400FAEF64A6
:1052F40080FB0253B1EE5402602D7C007D007A00E5
:105304007B001210C3E960187A017B00900769E002
:10531400F9120FC7E9EE6402FAEF6400FB0253B11D
:105324007A027B000253B1EEA2E0507D90081DE0AA
:10533400F8A3E0F5838882A3A3A3E0FAA3E0FB1219
:105344001147E9605E900783E0F8A3E0F9E849605B
:1053540045900783E0F8A3E0F5838882A3A3E0F8EF
:10536400A3E0F9E849602F7C00790190081DE0F87A
:10537400A3E0F5838882A3A3A3E0FAA3E0FB90074C
:1053840083E0F8A3E0F5838882A3A3E0F8A3E0F523
:105394008388821216B312114DEE6401FAEF640091
:1053A400FB800A7A017B0080047A007B007F06027E
:1053B400178774F71216B5EAFEEBFF7508018E82A3
:1053C4008F83E02450601314601924E1701CEEFAFA
:1053D400EFFB1210A5E9F5088010EEFAEFFB1211AD
:1053E400178007EEFAEFFB12111DA9087F010217BF
:1053F4008774F71216B5EAFEEBFF8E828F83A3A3A0
:10540400A3A3E0641E701179008E828F83A3A3E0AE
:10541400FAA3E0FB121099E97F0102178774F612D0
:1054240016B5EAFEEBFF8E828F83A3A3A3A3E070DD
:105434003A8E088F09850882850983A3A3A3A3A3B1
:10544400A3A31218DF850882850983A3A3A3A3A3BA
:10545400E0FCA3E0FD850882850983A3A3E0FAA309
:10546400E0FB12109F740212165BE97F0202178799
:1054740074F71216B5EAFEEBFF900769E0F98E8225
:105484008F83A3E0FAA3E0FB120823E97F0102174C
:1054940087C082C08374FF1216451210F3E9C394C7
:1054A40002400B8518828519837402F080098518DF
:1054B40082851983740AF0AC18AD197A0179051242
:1054C40006AFE9740112165BD083D08202011F7407
:1054D400F21216B574E8121645EAFEEBFF890A8C3F
:1054E400088D097C187D007900AA18AB19120F8B5E
:1054F4008A0C8B0DAC0CAD0D851882851983EEF0EA
:10550400A3EFF090076BE0C0E07402121691D0E0B4
:10551400F090076CE0C0E07403121691D0E0F090B4
:105524000CF1E0C0E07417121691D0E0F07415127B
:105534001691E054FEF8A3E054FFF9900CF0E0A2B9
:10554400E0E433FA7B00E84AF8E94BF974151216E3
:1055540091E8F0A3E9F0900CF0E0A2E15004D2F05D
:105564008002C2F07415121691E054FDFAA3E054BF
:10557400FFFBA2F0E433F87900E828F8E933F9EA0C
:1055840048F8EB49F97415121691E8F0A3E9F09084
:105594000CF0E0A2E35004D2F08002C2F0741512C1
:1055A4001691E054F7FAA3E054FFFBA2F0E433F5BC
:1055B4000C750D007403780C121632EA450CF8EBE6
:1055C400450DF97415121691E8F0A3E9F0900CF06A
:1055D400E0A2E45004D2F08002C2F07415121691D5
:1055E400E054EFFAA3E054FFFBA2F0E433F50C75AA
:1055F4000D007404780C121632EA450CF8EB450DD4
:10560400F97415121691E8F0A3E9F0900CF0E0A2F9
:10561400E55004D2F08002C2F07415121691E054E1
:10562400DFFAA3E054FFFBA2F0E433F50C750D00A0
:105634007405780C121632EA450CF8EB450DF97432
:1056440015121691E8F0A3E9F0900CF0E0A2E250F4
:1056540004D2F08002C2F07415121691E054FBFAE1
:10566400A3E054FFFBA2F0E433F50C750D007402C3
:10567400780C121632EA450CF8EB450DF974151244
:105684001691E8F0A3E9F090076CE0602A750C101D
:10569400750D00780C1218C87C6D7D0774061216FF
:1056A40091AA82AB83120F73740212165B8A0C8B5D
:1056B4000D850C82850D8390077DE06012E50A60FC
:1056C4000E7415121691E04402F0A3E04400F09029
:1056D400077DE06006780179008004780079007421
:1056E40014121691E048F090076AE0600678047995
:1056F400008004780079007414121691E048F0AC2C
:1057040008AD09AA18AB191205C5E9741812165B7D
:105714007F0602178774F71216B5EAFEEBFF7508C9
:105724000090077DE06006780179008004780079B4
:1057340000E8420890076AE0600678047900800473
:1057440078007900E84208A908EEFAEFFB12067F18
:10575400E97F0102178774EE1216B574E512164537
:105764008A0C8B0DE9FF8C088D09742D121691E0BB
:10577400F50A74086509700A75F006EFA42422FE80
:10578400800875F006EFA42421FE7C1B7D007900BF
:10579400AA18AB19120F8B8A108B1185100E851164
:1057A4000FAC18AD197A1BEEF912129DE97038741A
:1057B4001A121691E0C39407402D741A121691E040
:1057C400C394115022E50AF50B780B1218CC74011E
:1057D4001216ABE508A2E0E433F9AA0CAB0D1205EE
:1057E400D7740112165BE9741B12165B7F0A021749
:1057F4008774F71216B512089BE97E00EEC3940A6B
:1058040050557C0679FFEEFA7B00EA75F00EA4CAC7
:10581400A8F075F000A428F875F00EEBA428FB742A
:10582400852AFA74073BFB120FEBE97027EEF8792F
:1058340000E875F00EA4C8AAF075F000A42AFA7561
:10584400F00EE9A42AF9748528FA740739FB790063
:105854001208A1E90E80A57F0102178774F61216BB
:10586400B574FD121645EAFEEBFF90081FE0F8A39D
:10587400E0F9E849703975082175090878081218A3
:10588400C875080275090078081218C87508A27549
:10589400098178081218C87CFF7DFF7A017B001209
:1058A40006F1740612165B90081FEAF0A3EBF09061
:1058B400081FE0F8A3E0F9E849700302597DE4F514
:1058C40008F50978081218C8740412169B88088908
:1058D4000978081218C8740412169B880889097874
:1058E400081218C89008211218DF790290081FE0E6
:1058F400FCA3E0FDEEFAEFFB120811740812165B2C
:10590400E9704A851882851983E0FA7B00740112D4
:105914001691E0F87900E4C8F9EA28F508EB39F5BE
:1059240009E5084509602678081218C890081FE0A0
:10593400F8A3E0F5838882A3A3A3A3E0FCA3E0FD7E
:10594400EEFAEFFB12109F740212165BE9E4F508FD
:10595400F50978081218C89008211218DF7CFF7D19
:10596400FF90081FE0FAA3E0FB1206FD7404121670
:105974005B90081FEAF0A3EBF090081FE0F8A3E0A7
:10598400F9E8497004790180027900740312165B06
:105994007F02021787C082C08390081DE0F8A3E04D
:1059A400F9E849601790081DE0FAA3E0FB120F9D87
:1059B400E9F890081D7400F0A37400F0900CF274E0
:1059C4000AF0D083D08202011FC082C0839061900C
:1059D4007404F0A37448F0A37402F09061807440DE
:1059E400F09061BC7403F09061877419F090626563
:1059F400741BF0906249E0C3941390619C400A7454
:105A040009F090606674018007740DF0906066E49C
:105A1400F090619A7433F0A37455F09061A0743AD5
:105A2400F0900543E064017009C2919003AA746781
:105A340080059003AA7461F09025CAE4939061866E
:105A4400F09025C4E493F46027E493540FF8906134
:105A540085E0686012E5C654804449F5C6E59E5465
:105A64007F644970F8E8F053C680E59E547F70FA6D
:105A74007905120D57025BFBC082C083E5A8F85379
:105A8400A87E906181E4F0A3F0A3F0C2BA539AFE19
:105A9400C289759B00C2C275E90075910075BF008B
:105AA40075A91175B905906181F0A374C0F0A3E4E0
:105AB400F0D2BA439A0174805842A8025BFBC082B8
:105AC400C08374F81216459003A8E0F8A3E0F9E83F
:105AD400497003025BF09003A8E054406023790806
:105AE400851882851983AA82AB83120BCB85188211
:105AF400851983AA82AB831208BF9003A8E054BF20
:105B0400F0E054806010790C7A697B05120BCB901D
:105B140003A8E0547FF0E0A2E0503190619A74331E
:105B2400F0A37455F09061A0743AF0900543E064DA
:105B3400017009C2919003AA746780059003AA7446
