:020000040000FA
:10400000D086FFFF0B00007C42424242FFFFFFFFD1
:10401000FFFFFFFFFFFFFFFFFFFFFFFFFFFFFFFFB0
:10402000000102030405060708090A0BFFFFFFFF52
:1040300002481002567BFFFFFFFFFFFFFFFFFFFF5D
:10404000FFFFFFFFFFFFFFFFFFFFFFFFFFFFFFFF80
:10405000FFFFFFFFFFFFFFFFFFFFFF025E20FFFFED
:10406000FFFFFF025DFCFFFFFFFFFFFFFFFFFFFF02
:10407000FFFFFFFFFFFFFFFFFFFFFFFFFFFFFFFF50
:10408000FFFFFF0256EEFFFFFFFFFFFFFFFFFFFFF7
:10409000FFFFFFFFFFFFFFFFFFFFFF025DAFFFFF1F
:1040A000FFFFFFFFFFFFFFFFFFFFFF025DD5FFFFE9
:1040B000FFFFFF0254E701FF0000B40000280028C2
:1040C00000283075A000A000A000A0000008000893
:1040D000E001F000100010001000100010001000AF
:1040E00050005000500010001000D00700000000E9
:1040F00000000F00010005003075070010000100EE
:1041000081FF00000000FF426060604860FF020223
:104110000208025000A0000000E803023F840100F2
:10412000001584023B84010000600A023184010012
:1041300000B202023B84010000610A022F840100E8
:1041400000C802023B84010000620A022B840100C5
:1041500000CA02023B84010000630A0229840800AD
:1041600000CB02023B84010000640A023784010094
:1041700000650AFF0100FF20023F84010000038464
:10418000023B84010000C90A0247840000000000CD
:104190000233840300001803186618661866186650
:1041A000186618661866186618661866186618661F
:1041B0001866AC68C468A668FFFF0A0953656E7389
:1041C0006F72546167051250002003020A00020159
:1041D00005544920424C452053656E736F7220543C
:1041E000616700D007E803E803E803E803E803BCDD
:1041F0006A0000C26AC86ACE6ADA6AD46AE06AE60D
:104200006AEC6AF26A12416363656C2E2044617441
:1042100061000A416363656C2E20436F6E662E0059
:104220000A0A416363656C2E20506572696F6400F1
:10423000023F84010000FA83023B84010000570B17
:1042400010D5810100007207023384030000750756
:10425000023984010000580B023B84010000640B0A
:1042600010E5810300007B07023984010000650B23
:10427000023B84010000720B10F581030000730BF8
:10428000023984010000740B124261726F6D2E209E
:1042900044617461000A4261726F6D2E20436F6E3B
:1042A000662E00024261726F6D2E2043616C69625E
:1042B000722E000A0A4261726F6D2E20506572697B
:1042C0006F6400023F840100001884023B840100F7
:1042D00000DA0B1035820100007E070233840300F0
:1042E000008207023984010000DB0B023B840100DD
:1042F00000E70B10458203000088070239840100A3
:1043000000E80B023B84010000050C1065820300ED
:1043100000060C023984010000070C023B840100F6
:1043200000F50B1055820100008907023384030059
:10433000009907023984010000F60B12436F6E6E7C
:104340002E20506172616D730008436F6E6E2E20D7
:10435000506172616D732052657100084469736326
:104360006F6E6E6563742052657100023F840100B8
:10437000001B84023B840100008D0C10A58201000B
:1043800000A107023384030000A70702398401005B
:10439000008E0C023B840100009B0C10B5820200D1
:1043A00000AD070239840100009C0C023B8401002F
:1043B00000AD0C10C582020000B50702398401006F
:1043C00000AE0C020202020202020202010D000013
:1043D000001001023F840100000084023B840100C0
:1043E00000150D022184010000B607023B84010084
:1043F00000160D0223840100008E83023B8401001D
:1044000000170D0225840100009D83023B840100FA
:1044100000190D022784010000A180023B840100E5
:10442000001A0D022D840100009383023B840100D9
:1044300000180D0235840100009883023B840100BE
:10444000001B0D024D84010000B380023B8401007B
:10445000001C0D0245840100000583023B8401001D
:10446000001D0D0249840100001E0D01E803053FF7
:10447000100A124779726F2044617461000A47790B
:10448000726F20436F6E662E000A0A4779726F20A2
:10449000506572696F6400023F84010000FD830271
:1044A0003B84010000C40D1055810100007A080210
:1044B00033840300008008023984010000C50D0226
:1044C0003B84010000CF0D10E58003000086080248
:1044D0003984010000D00D023B84010000DB0D1087
:1044E0001581030000DC0D023984010000DD0D039D
:1044F00080000080700061801248756D69642E2014
:1045000044617461000A48756D69642E20436F6EC2
:10451000662E000A0A48756D69642E20506572691E
:104520006F6400023F840100001284023B8401009A
:10453000004A0E1065810100001109023384030056
:104540000015090239840100004B0E023B84010072
:1045500000570E1095810300001B090239840100E9
:1045600000580E023B84010000650E101582030006
:1045700000660E023984010000670E1254656D70EA
:104580002E2044617461000A54656D702E20436FC3
:104590006E662E000A1E54656D702E20506572697D
:1045A0006F6400023F840100001E84023B8401000E
:1045B00000CD0E10D5820100001E090233840300D5
:1045C000002209023984010000CE0E023B84010062
:1045D00000D90E10E5820300002809023984010089
:1045E00000DA0E023B84010000E60E10F5820300A3
:1045F00000E70E023984010000E80E124D61676E7B
:104600002E2044617461000A4D61676E2E20436F55
:104610006E662E000A0A4D61676E2E205065726923
:104620006F6400023F840100000F84023B8401009C
:10463000004D0F1005820100002B09023384030096
:104640000031090239840100004E0F023B84010051
:1046500000590F10B58103000037090239840100A9
:10466000005A0F023B84010000660F10A581030071
:1046700000670F023984010000680F1C023F8401AB
:1046800000000C84023B84010000CD0F105080021A
:10469000000038090233840300003A09023984011A
:1046A00000001383023B84010000CD0F10608002E4
:1046B00000003909023384030000400902398401F3
:1046C00000002083FFFFFF00013075030201060098
:1046D00000000000000000000000000000000000DA
:1046E0000000000000000000000000FFFF06008046
:1046F0000CE803104B657920507265737320537476
:1047000061746500023F840100000684023B84015D
:1047100000004510024384000000F70902338403BF
:104720000000F80902398401000046100254657344
:10473000742044617461000A5465737420436F6E81
:1047400066696700023F840100000984023B84011E
:1047500000007E1010F580030000000A0239840179
:1047600000007F10023B8401000089101035810396
:104770000000080A0239840100008A10E5C754F8D5
:104780004404F5C779012200000080FB12477CB980
:1047900000030247FAE479447808B800028004F77D
:1047A00009D8FCE4794C7802B800028004F709D8F3
:1047B000FCE4900280788A79088002F0A3D8FCD9C2
:1047C000FA78439040B67A01BA00028007E493A3D6
:1047D000F608DAF97A097B0A9040B778C67907803B
:1047E00015E493A3AD82AE838A828B83F0A3AA8261
:1047F000AB838D828E83D8E9D9E775823F7583A418
:104800007404124822758287758347740012482207
:1048100075D00075814F754180754202759F000209
:10482000478CC09FF59FE473D09F22D083D082C075
:104830009FE493C0E0740193C0E0740293F59F225B
:10484000E066701008A3E066700A08A3E0667004D2
:1048500008A3E06622C3E7960809E7960809E796E9
:104860000809E79622C3E09608A3E09608A3E0961D
:1048700008A3E09622C021C3E096F52108A3E096A4
:10488000422108A3E096422108A3E0964521700149
:10489000D3D02122080808EAC0E0EBC0E086F0E7A8
:1048A000A4FA180986F0E7A42AFA180986F0E7A402
:1048B0002AFA180986F0E7A42AFA1986F0E7A4FB79
:1048C000E5F02AFA190886F0E7A42BFBE5F03AFA9E
:1048D000190886F0E7A42BFBE5F03AFA18180986C8
:1048E000F0E7A4C5F02BFBE43AFA1908E7C5F0C6D7
:1048F000A426F6E5F03BFBE43AFA1886F0E7A4F6C6
:10490000E5F00826F6E43B08F6E43A08F6D0E0FBCA
:10491000D0E0FA22E4CFC0E0E4CEC0E0E4CDC0E0D5
:10492000E4CCC0E075F020E626F608E633F608E6AB
:1049300033F608E633F6181818EC33FCED33FDEEC9
:1049400033FEEF33FFC3EC9709ED9709EE9709EFBC
:1049500097191919400FFFEC97FC09ED97FD09EE27
:1049600097FE191906D5F0BFECF709EDF709EEF738
:1049700009EFF7191919D0E0FCD0E0FDD0E0FED026
:10498000E0FF226016080808C6C313C618C613C67F
:1049900018C613C618C613C6D5E0EA22700908085F
:1049A00008226016181818C6C333C608C633C608CE
:1049B000C633C608C633C6D5E0EA22E627F608099C
:1049C000E637F60809E637F60809E637F622E02664
:1049D000F608A3E036F608A3E036F608A3E036F6BC
:1049E00022E026F008A3E036F008A3E036F008A3A2
:1049F000E036F022C3E697F60809E697F60809E6DE
:104A000097F60809E697F622C3E096F008A3E09629
:104A1000F008A3E096F008A3E096F022E657F60827
:104A200009E657F60809E657F60809E657F622E0C0
:104A300056F608A3E056F608A3E056F608A3E0569B
:104A4000F622E056F008A3E056F008A3E056F0087E
:104A5000A3E056F022E0F608A3E0F608A3E0F6088B
:104A6000A3E0F622E6F008A3E6F008A3E6F008A328
:104A7000E6F022E0FAA3E0FBA3E0FCA3E0FD22EADB
:104A8000F0A3EBF0A3ECF0A3EDF022E0F8A3E0F943
:104A9000A3E0FAA3E0FB22E8F0A3E9F0A3EAF0A385
:104AA000EBF022CAC0E0E6F0A308DAFAD0E0FA227E
:104AB000CAC0E0E0A3C582CCC582C583CDC583F062
:104AC000A3C582CCC582C583CDC583DAE6D0E0CA52
:104AD00022C3E498F8E499F9124B128026C3E49AB1
:104AE000FAE49BFBE920E7E9124B12E498F8E49919
:104AF000F922C3E498F8E499F9124B12E498F8E427
:104B000099F9C3E49AFAE49BFB22EB20E7CFE92072
:104B1000E7E0B90010BB0008E88AF084F8AAF022A8
:104B2000E4FBC8FA22EB70227B10C833C8C933C932
:104B3000335007C39AC3DBF280069A50012ADBEA9E
:104B4000C833F4C8C933F4C9FA2275F008E4C8338D
:104B5000C8C933C933C99AC99B5004C92AC93BD5AE
:104B6000F0ECFBC833F4C8E4C9FA22600D08C6A211
:104B7000E713C618C613C6D5E0F322600C08C6C3F7
:104B800013C618C613C6D5E0F422700422600D18AF
:104B9000C6C333C608C633C6D5E0F4182225411073
:104BA000AF08F541400C15428008F541400215421E
:104BB000D2AF2200C0D0254110AF08F541500C05FE
:104BC000428008F54150020542D2AFD0D0222541A3
:104BD000F58210AF08F541400C15428008F54140C0
:104BE000021542D2AF854283222541F582E4354247
:104BF000F583222541F8E43542F9222541FAE435CE
:104C000042FB222541FCE43542FD22E4732541C5E7
:104C100082C0E0E54234FFC583C0E0E541C3958230
:104C200024F810AF0885834285824180088583423D
:104C3000858241D2AFCEF0A3E520F0A37821E6082B
:104C4000F0A3DEFAEFF0A3E58124FAF8E608F0A37A
:104C5000E608F0A3E608F0A30808E608F0A3E608D3
:104C6000F0A315811581D0E0FED0E0F81581158103
:104C70001581E8C0E0EEC0E0222541C582C0E0E534
:104C80004234FFC583C0E0E541C3958224F910AFEB
:104C9000088583428582418008858342858241D28E
:104CA000AFCEF0A3E520F0A37821E608F0A3DEFA6A
:104CB000EFF0A3E58124FBF8E608F0A3E608F0A3F3
:104CC0000808E608F0A3E608F0A315811581D0E0F6
:104CD000FED0E0F815811581E8C0E0EEC0E0228545
:104CE0004283854182E0A3FEE0A3F5207821E0A382
:104CF000F608DFFAE0A3FFE0A3C0E0E0A3C0E0E035
:104D0000A3C0E0E0A3C0E0E0A3C0E010AF0885824C
:104D1000418583428008858241858342D2AFD0831A
:104D2000D082024828854283854182E0A3FEE0A329
:104D3000F5207821E0A3F608DFFAE0A3FFE0A3C0A6
:104D4000E0E0A3C0E0E0A3C0E0E0A3C0E010AF0853
:104D50008582418583428008858241858342D2AF26
:104D6000D083D08222C0D02541C582C0E0E5423444
:104D7000FFC583C0E0E541C3958224F310AF0885E9
:104D800083428582418008858342858241D2AFC8B3
:104D9000F0A3E9F0A3EAF0A3EBF0A37921E709F08F
:104DA000A3D8FAECF0A3EDF0A3EEF0A3EFF0A3D0BC
:104DB000E0F0A3D0E0F0A3D0E0F0A3E520F0A3E57D
:104DC000F0F0A322854283854182E0C0E0A3E0F9B0
:104DD000A3E0FAA3E0FBA37821E0F608A3DFFAE062
:104DE000FCA3E0FDA3E0FEA3E0FFA3E0C0E0A3E09E
:104DF000C0E0A3E0F5D0A3E0F520A3E0A3F5F01018
:104E0000AF0885834285824180088583428582413F
:104E1000D2AFD082D083D0E0F8D0E03274048006E4
:104E2000740280027401C0E0F404124BCED0E01290
:104E30004AA3227404800474028000CCC0E0EDC058
:104E4000E0E541C39CCCAD4250011D10AF068C4142
:104E50008D4280068C418D42D2AF124AB0D0E0FD27
:104E6000D0E0FC22D083D082E9C0E0E493A3C386E3
:104E7000F0C5F095F0F908E493A386F0C5F095F03D
:104E8000700BE493A3C3994005E9048002A3E47581
:104E9000F002A42582F582E5F03583F583D0E0F9B0
:104EA000E493A3C0E0E493C0E022D083D082ECC0BE
:104EB000E0EDC0E0E493A3FCE493A3FDED4C600DB2
:104EC000124EF6EC24FFFCED34FFFD80EFE493A3DB
:104ED000FCE493A3FDED4C600D124F35EC24FFFC78
:104EE000ED34FFFD80EFD0E0FDD0E0FCE493A3C003
:104EF000E0E493C0E022C0E0C3E493960874019319
:104F00009618400FE4936670080874019366187051
:104F1000007019A3A3C3E49396087401939618A391
:104F2000A3400DD0E0D0E0D0E0024EE6A3A3A3A3BF
:104F3000A3A3D0E022C0E0C0F088F0E4936670083C
:104F40000874019366187000A8F0A3A3700BD0F04A
:104F5000D0E0D0E0D0E0024EE6A3A3D0F0D0E02233
:104F600074F5124C79EAFEEBFFEE2434F8EF3400CE
:104F7000F988218922EE2435F582EF3400F583E0AB
:104F8000F8EE2437F582EF3400F583E0F523EC8565
:104F900023F0A4FCAAF08523F0EDA42AFDE82CF868
:104FA000E43DF97A257B00124B12EA8521828522A5
:104FB00083F0F8740758F97401B900028004C33310
:104FC000D9FCFAE8131313541FF8EE28F8EF340055
:104FD000F9E8245DF582E93400F583E05A6008EED3
:104FE0002434F582EF802CEE2434F582EF3400F582
:104FF00083E0C0E0EE2436F582EF3400F583E0F57F
:10500000F0D0E084A8F0EE28F8EF3400F9E8243876
:10501000F582E93400F583E0F97F04024D2574F54B
:10502000124C79EAFEEBFFEE2434F582EF3400F502
:1050300083E0C0E0EE2435F582EF3400F583D0E064
:10504000F08E828F83A3A3A3A3A3A3A3C082C08354
:105050008E828F83A3A3A3A3A3E0F8A3E0F9D08358
:10506000D082E0C398F521A3E099F522EE247FF5E4
:1050700082EF3400F583E064017069EE2480F582EC
:10508000EF3400F583E0F8A3E0F98E828F83A3A3C9
:10509000A3A3A3A3A3E0FCA3E0FD8E828F83A3A31D
:1050A000A3A3A3E0FAA3E0FBC3EA9CEB9D5010C3CB
:1050B000EC98ED99402EC3EA98EB995027800EC3E7
:1050C000EA98EB994007C3EC98ED9940177CDB7D9B
:1050D00004EEFAEFFB126576EE247FF582EF3400E2
:1050E000F583E4F0EE2434F8EF3400F9E8FCE9FD50
:1050F000EE2435F582EF3400F583E0F8EE2437F541
:1051000082EF3400F583E0F523E5218523F0A4F553
:1051100021AAF08523F0E522A42AF522E82521F82A
:10512000E43522F97A257B00124B12EA8C828D83BA
:10513000F0F8740758F97401B900028004C333D938
:10514000FCFAE8131313541FF8EE28F8EF3400F9B3
:10515000E8245DF582E93400F583E05A6008EE2426
:1051600034F582EF802CEE2434F582EF3400F583A1
:10517000E0C0E0EE2436F582EF3400F583E0F5F090
:10518000D0E084A8F0EE28F8EF3400F9E82438F5F0
:1051900082E93400F583E0F9125D9B025019C08268
:1051A000C083854182854283E0F8A3E0F9C3EA9C8D
:1051B000EB9D5010C3EC98ED99401BC3EA98EB9916
:1051C0005014800EC3EA98EB994007C3EC98ED9910
:1051D0004004790180027900D083D08222EAC39C06
:1051E000FAEB9DFB2274EF124C799003A1E0640866
:1051F0006005E06407702A9061C8E060249003CFE6
:10520000E0F4601DE0F875F003A4C8AAF02AF97470
:10521000D128FE740339FF8E828F83A3A3A3E0708D
:1052200003025315906060E0C0E0EE2468F582EF61
:105230003400F583D0E0F07525447526057521000E
:10524000752200E5D914F523E5D95403F527601735
:1052500074036527605CE5236010EE2467F582EF38
:105260003400F583E070030252FA90053FE06401D8
:10527000602AEE2482F582EF3400F583E060047842
:105280000480027800852321E521C398FA95E0FB8C
:1052900012643E8A218B22EA4522700512677A80C9
:1052A00074EE2482F582EF3400F583E070048A25E1
:1052B0008B26E5236012852582852683F524E5D992
:1052C000F0A31524E52470F6EE2482F582EF340075
:1052D000F583E0604474FC2523F5237825124E20E5
:1052E000AC23A927EEFAEFFB1266127402124BB33D
:1052F000E97026AA21AB22126ED6793D8E828F8369
:10530000A3A3A3A3E0FA7B00126312EEFAEFFB1251
:10531000658E126624790080747403652760568553
:105320002329752A007829124E20AC25AD26AA2102
:10533000AB221265EE7402124BB3EE2468F582EFD5
:105340003400F583E064807004747F8001E0F5250B
:105350007825124E24E527F5257825124E24A92319
:10536000AC21AD229003CFE0FA7B001262D674022A
:10537000124BB380139003A1E06408600BAC25AD21
:1053800026EEFAEFFB12667E12678679017F0A022B
:105390004D2574F5124C7974FC124B9DEAFEEBFF1F
:1053A0008921A2AFE433F522C2AF806AEE2463F80C
:1053B000EF3400F97A007B00A2AFE433F523C2AFEB
:1053C00088828983E0FCA3E0FDEC4D603A88828905
:1053D00083E0FAA3E0FB8A828B83E0FCA3E0FD88F4
:1053E000828983ECF0A3EDF08A828B83E4F0A3F052
:1053F00088828983E0FCA3E0FDEC4D700A888289F5
:1054000083A3A3E4F0A3F0E523A2E092AF126ED64B
:105410009004E2E004F0EE2463F582EF3400F583BB
:10542000E0F8A3E0F9E849603DEE2463F582EF344B
:1054300000F583E02402FAA3E03400FBEA2402F53D
:1054400023EB3400F5247823124E208A828B83E0EC
:10545000FCA3E0F9EEFAEFFB1265B27402124BB353
:10546000E970030253AC9004E2E060639004E3E06F
:10547000F89004E2E0C398500C74026521705090DB
:1054800004E4E0604A8E828F83A3A3A3A3E0854156
:1054900082854283F0A3E4F09004E2E0F874021203
:1054A0004BE9E8F0A3E4F09004E2E0F89004E1E0D6
:1054B00028F07402124BE9AC82AD838541828542AB
:1054C00083AA82AB8379011262E29004E2E4F0E500
:1054D00022A2E092AF7404124BB3025019FFFFFFF7
:1054E0008544878545C622C0E0C0D0E8C0E0E9C059
:1054F000E0EAC0E0EBC0E0ECC0E0EDC0E0EEC0E010
:10550000C021C022C023C024C082C083C0F0A2AF8B
:10551000E433FEC2AF759B00906182E0A2E05012BE
:10552000E591A2E0500C7591FE7401654470031280
:1055300051E5E0A2E55051E591A2E5504B7591DFB0
:105540009003A1E064076005E064087023740165BE
:1055500044703579019003CFE0FA75F003A4CAA82E
:10556000F028FB74D12AFA74033BFB125392801883
:10557000E0640D70139003C3E004F064287002E44B
:10558000F07A00E0F912678C906182E0A2E64003B5
:1055900002562EE591A2E6400302562E7591BF9069
:1055A00003A1E0640570081266B41266C08003129D
:1055B00066BA75440012671AE99003A2F0790012E6
:1055C000670E1264EC7A017B009003A0E0F9126987
:1055D000DE907803E064427055900543E014F0706B
:1055E0004DC2AF1255E600784DD0E0F618D0E0F687
:1055F000E59F540770057522FF800375227FC4C0A4
:10560000E0784CE6F52108E65522F522740B782166
:10561000124B7BD0E02521F8906270E0A2E740F8C1
:10562000E8C333906272F0906270E0D2E0F0906173
:1056300081E0A2E35009E5E9A2E3500375E9F7A38D
:10564000E0A2E75009E591A2E7500375917FEEA231
:10565000E092AFD0F0D083D082D024D023D022D01B
:1056600021D0E0FED0E0FDD0E0FCD0E0FBD0E0FABD
:10567000D0E0F9D0E0F8D0D0D0E032C0E0C0D0C067
:1056800082C083906183E0A2E05009E5BFA2E050B0
:105690000375BFFEE0A2E15009E5BFA2E15003752A
:1056A000BFFDE0A2E25009E5BFA2E2500375BFFBD7
:1056B000E0A2E35009E5BFA2E3500375BFF7E0A203
:1056C000E45009E5BFA2E4500375BFEFE0A2E55046
:1056D00009E5BFA2E5500375BFDFE0A2E65009E58A
:1056E000BFA2E6500375BFBFD083D0828088C0E0E0
:1056F000C0D0E8C0E0E9C0E0EAC0E0EBC0E0ECC048
:10570000E0EDC0E0C0F0E5A7A2E6500FE5A1A2E6FB
:10571000500953A7BF75A1BF125753E5A7A2E55083
:105720000CE5A1A2E5500653A7DF75A1DFE5A7A20E
:10573000E15009E5A1A2E1500375A1FDE5A7A2E2B0
:10574000500CE5A1A2E2500653A7FB75A1FBD0F0D7
:1057500002566474F8124C797544019003A1E06418
:105760000670151266428A828B83A3A3A3A3A3A308
:10577000E0FAA3E0FB1266A2A2AFE433FED2AF9040
:1057800003A7E0640170187A207B009003A0E0F981
:10579000126A687A207B009003A0E0F91269E49015
:1057A0006182E0D2E6F0900540E0602185C6458048
:1057B000169003A6E064017008E5C654F84405F5A8
:1057C000C653BEFC1254E07401654460E4EEA2E0EE
:1057D00092AF7F01024D25FF8E468F4785824B8514
:1057E000834A854182854283E0CEA3E0CF854B8208
:1057F000854A83EBC9EAC8EDCBECCA75F010C3E863
:1058000033C8E933C9EA33CAEB33CBC3EA9EF5495F
:10581000EB9FF548B35004AB48AA49EC33CCED33C9
:10582000CDD5F0DAAE46AF472274E9124C7974F860
:10583000124B9D854182854283ECF0A3EDF08A21D5
:105840008B229003A1E024F7C39405500675210133
:105850000259C01266428A238B24AE23AF24EE4F36
:1058600070030259BDAC21AD227402124BE9AA8229
:10587000AB831266D28E828F83A3A37525FF752614
:10588000FF7527FF7528007825124A2F7402124BE6
:10589000E97529FF752AFF752BFF752C00782912F1
:1058A0004A2F78257929124855502A7825792912C6
:1058B00049F47521017522C87523007524007821EB
:1058C0007925124855505285252185262285272382
:1058D0008528248050752D01752EC8752F007530D0
:1058E00000852921852A22852B23852C247821795E
:1058F000251249F4782D7921124855401C75210054
:10590000752200752300752401782179291249F444
:10591000782179251249BB800C752101752200750B
:1059200023007524007409782112499C752519F506
:1059300026F527F528782179251249148E828F8340
:10594000A3A3A3A3A3A3E0F8A3E0F97AD07B031257
:105950004B1288258926E4F527F528782179251228
:1059600049BB7406124BE9E0F8A3E0F97AD07B0357
:10597000124B12E8FA8A25E4F52678217925124897
:10598000555007782179251249F49003A1E0640865
:10599000600AE064066005E06405702D75250D78E9
:1059A00025792112485540217525F47526FF752764
:1059B000FF7528FF782179251249BB800C752100DD
:1059C000752200752300752400854182854283E09D
:1059D000F8A3E0F58388827821124A647408124B98
:1059E000B37F10024D2574F7124C791266E49005CE
:1059F0003EE064017010906245E4F0A3F053F4F3CC
:105A000043FE0C5390F3126690E5C654804449F56A
:105A1000C6E59E547F644970F8906185740FF090DC
:105A2000053CE0F47002A3E0604E90053DE06008A4
:105A300014601B14602E80407521017522009005B2
:105A40003CE07821124B8AE521F45280802A7521AE
:105A50000175220090053CE07821124B8AE521F483
:105A60005290801475210175220090053CE0782148
:105A7000124B8AE521F452A079007F02024D257471
:105A8000F7124C79E9FEEAFF74016E700C7A807BA4
:105A9000009003A0E0F91269DE906FFCE493F460DB
:105AA00008E493F91264E0800953C680E59E547FB0
:105AB00070FA12669690053EE0640170031264F875
:105AC00090053CE0F47002A3E0604B90053DE0607F
:105AD0000814601A14602C803D7521017522009015
:105AE000053CE07821124B8AE5214280802875210F
:105AF0000175220090053CE07821124B8AE5214295
:105B000090801375210175220090053CE0782112E8
:105B10004B8AE52142A01266E41266428A218B225A
:105B2000A821A922E8496015E5E170FCE82414F5F4
:105B300082E93400F583E0F46003E0F5E174016F7D
:105B4000700A7A019003A0E0F9126A32025A7A745C
:105B5000ED124C798A218B228C238D247413124BE5
:105B6000E97825124A557821792512485575290179
:105B7000752AC8752B00752C0050127821792512D2
:105B800049F47829792112485550168010782579E2
:105B9000211249F478297925124855400479018069
:105BA0000279007F0C024D2574ED124C798A218B0D
:105BB000228C238D247413124BE97825124A5578D0
:105BC0002579211248554011782179251249F4AAE6
:105BD00021AB22AC23AD248022752900752A0075E3
:105BE0002B00752C01782979251249F4782979211F
:105BF0001249BBAA29AB2AAC2BAD2C80A68A828B7A
:105C0000837521FF7522FF7523FF7524007821120B
:105C10004A427F04024D2574F5124C798C828D83A3
:105C20007821124A558A828B837821124A08EA2405
:105C300004F8EB3400F98C828D83A3A3A3A3E0FCCA
:105C4000A3E0FD88828983C3E09CF0A3E09DF088F7
:105C5000828983C3E09420A3E0944E40268A828BFD
:105C6000837521FF7522FF7523FF7524FF782112AC
:105C700049E18A828B83A3A3A3A3E02420F0A3E0BD
:105C8000344EF0025BFD74F5124C79E9FE9004F697
:105C9000E0FAA3E0FBEEC333F8E433F9740528F52A
:105CA00082748139F583E02AF521A3E03BF522785F
:105CB00021124E207A407B427C0F7D001257D8740F
:105CC00002124BB38A218B228C238D2474107821ED
:105CD000124983AA21AB227F04024D2574F1124C94
:105CE000798A258B268C278D28740F124BE9E0FAD0
:105CF000A3E0FB7411124BE9E0F521A3E0F5227853
:105D000021124E20EA2401F521EB3400F522E4F5BE
:105D100023F5247825792112489475217175220282
:105D200078257921124894AA25AB26AC27AD2812F4
:105D300057D87402124BB38B22EA452260047A01D1
:105D400080027A00EC2AFCED3400FD7413124BE95A
:105D5000E0F8A3E0F9E8FEE9FFECF8EDF97A717BF1
:105D600002124B12882189228E828F837821124A57
:105D700064ECF8EDF97A717B02124B128A218B22C6
:105D800074057821124B8A8E828F83A3A3A3A3E587
:105D900021F0A3E522F07F08024D25C082C083E9EF
:105DA000906000F0D083D08222C2AF02000022C0F7
:105DB000E074F2124D65A2AFE433FED2AFE589A2E2
:105DC000E05003126D80758900C2C5EEA2E092AF6B
:105DD0007F01024DC4C0E074F2124D65A2AFE433FE
:105DE000FED2AFE58AA2E64006E58AA2E75003129A
:105DF0006D80758A00758A00C2EB80CFC0E0C0D08C
:105E0000E8C0E0E9C0E0E5A8D2AF758B00C2E8A227
:105E1000E7A2E792AFD0E0F9D0E0F8D0D0D0E032FE
:105E2000C0E0C0D0E8C0E0E9C0E0E5A8D2AFC2C79A
:105E3000754300A2E7A2E792AFD0E0F9D0E0F8D036
:105E4000D0D0E03212482B688C0412482B7F8C048F
:105E500012482BB08C0412482BEB8C0412482B15E3
:105E60008D0412482B3F8D0412482B568D04124886
:105E70002B6D8D0412482B848D0412482BAD8D049C
:105E800012482BC08D0412482BD68D0412482BE9E2
:105E90008D0412482B108E0412482B0080031248E8
:105EA0002B04810312482B3C810312482B5F810392
:105EB00012482B6A810312482B8D810312482B9CB8
:105EC000820312482B71830312482BEC8303124880
:105ED0002B74840312482BAF840312482BE68403EF
:105EE00012482B74850312482B4D860312482BADA4
:105EF000860312482BB8860312482B3787031248B3
:105F00002B3A870312482B3D870312482BCC87037B
:105F100012482BCF870312482BFF870312482B29E7
:105F2000880312482B17890312482BC9890312488A
:105F30002B27B50312482B4FB50312482B7DB50311
:105F400012482BB4B50312482B12B60312482B5D2E
:105F5000B60312482BA8B60312482BE8B603124822
:105F60002B2EB70312482B5CB70312482B19B8032A
:105F700012482B23B80312482B30B80312482B6366
:105F8000B80312482B2FB90312482B3BB903124810
:105F90002B53B90312482B5DB90312482B39A204C5
:105FA00012482B47A20412482B5FA20412482B77F9
:105FB000A20412482B00800212482BAC8002124827
:105FC0002B27810212482B48820212482B8482021E
:105FD00012482B2D830212482B14840212482B786E
:105FE000850212482BCF850212482B508602124898
:105FF0002B40870212482B8D870212482B138802F0
:1060000012482B45880212482B598A0212482B9BB2
:106010008A0212482BB98A0212482B3C8B02124882
:106020002B108C0212482BD88C0212482B13A2037F
:1060300012482BE6A20312482B8FA30312482BE22F
:10604000A30312482B92A40312482B1EA503124847
:106050002B0AA60312482B39A60312482B4CA70380
:1060600012482B94A70312482B69A80312482BA5AA
:10607000A80312482BC1A80312482BBBA304124843
:106080002BB0E60312482BC6E60312482BECE603BE
:1060900012482B08E80312482B12E80312482B473A
:1060A000E90312482B3FEA0312482B00B0031248C1
:1060B0002B30B10312482B63B10312482BADB1034F
:1060C00012482B74B30312482B00700012482B6A3D
:1060D000700012482BC9710012482BD97100124868
:1060E0002B06720012482B5D720012482B067300BB
:1060F00012482B0D740012482BD7740012482B370E
:10610000760012482B7A760012482B1F770012482F
:106110002B6C770012482B92770012482BA0790045
:1061200012482BA5790012482BAA7B0012482BF7A6
:106130007B0012482B6A7C0012482B9D7C00124881
:106140002B3F7D0012482BE87D0012482B207E005B
:1061500012482B237E0012482B6B7E0012482BAB7B
:106160007E0012482B027F0012482B58FA03124877
:106170002B70FA0312482BB8FA0312482BCEFA03FD
:1061800012482B15FB0312482B29FC0312482BB68F
:10619000FC0312482B01FD0312482B00800112481A
:1061A0002B0C800112482B47800112482B8C800158
:1061B00012482B4C810112482BD2810112482B37F7
:1061C000820112482B63820112482B9C82011248E3
:1061D0002BDA840112482BBE860112482BA48801B9
:1061E00012482BE7890112482B358C0112482B47A6
:1061F0008D0112482B928E0112482BA28F0112485A
:106200002BBF8F0112482BFA8F0112482B1C9001D3
:1062100012482B7F900112482B40950112482BD534
:10622000950112482B26960112482B4D96011248D3
:106230002B9F960112482BBD960112482B179701F0
:1062400012482B00980112482B76990112482BFA1C
:10625000990112482BE4B90312482BEEB9031248F6
:106260002B31BA0312482B4CBA0312482BDCBA0369
:1062700012482B04BB0312482B41BB0312482B7856
:10628000BB0312482BA1BB0312482B16BC031248B8
:106290002B2BBC0312482B40BC0312482B71BC03B0
:1062A00012482B85BC0312482BAABC0312482BE4CE
:1062B000BC0312482B10BD0312482B48BD031248E3
:1062C0002BC7BD0312482B10BE0312482B3ABE0346
:1062D00012482B65BE0312482B349E0412482B3BF8
:1062E000E20212482B69E20212482BB7E30212487D
:1062F0002B97E40212482BB6E40212482B33E50236
:1063000012482B76E50212482BCCE60212482B8D60
:10631000E70212482B14EA0212482BB5EA0212488F
:106320002BABEB0212482BA8EC0212482B02EE0218
:1063300012482B8DEE0212482BAA970412482B13F9
:10634000980412482B67980412482B8E9804124820
:106350002BBF980412482B19C30312482B86C30382
:1063600012482BCDC30312482BE5C40312482BE17E
:10637000C50312482BC4C60312482B3A8A0312489D
:106380002B7C8A0312482B4E8B0312482B278C033D
:1063900012482B218D0312482B038E0312482B6CBD
:1063A0008E0312482B228F0312482B968F0312481C
:1063B0002B02900312482B2B900312482BA590031D
:1063C00012482B3E910312482BA3910312482BB87D
:1063D000910312482BFE910312482B179203124887
:1063E0002B7C920312482B7F920312482B7FF403DD
:1063F00012482BA7F40312482BE5F40312482BA3F1
:10640000F50312482B0AF60312482B26F60312480E
:106410002B4EF60312482B7EF60312482B8DF60303
:1064200012482B0AF70312482B30F70312482BB5FA
:10643000EF0112482B93F10112482BC5F3011248CA
:106440002B01F40112482B2EF40112482B18F501F0
:1064500012482B63F50112482BAEF50112482BC0F0
:10646000F50112482B00F60112482B35F6011248AF
:106470002B83F60112482BB2F60112482BD5F601F8
:1064800012482B22F70112482BA7F70112482BC103
:10649000F90112482B00FC0112482B41FC01124863
:1064A0002BE3FD0112482B24FE0112482B97FE011D
:1064B00012482BEDFE0112482B26D50212482B2440
:1064C000D60212482BBDDC0212482BDEDE02124837
:1064D0002BA9E00212482B11E20212482B619A010B
:1064E00012482B109B0112482B3D9B0112482B8315
:1064F0009B0112482BC39C0112482B599E01124844
:106500002BD39E0112482BEE9E0112482B699F014E
:1065100012482BC3A00112482B23A20112482B2999
:10652000A30112482B8AA40112482BA3A4011248EC
:106530002B01A50112482BEFA50112482B22A60121
:1065400012482B92A60112482B0CA70112482B5679
:10655000A70112482B20A80112482BF5A8011248C8
:106560002BD4A90112482B5FAA0112482BCDAA01F6
:1065700012482B41AB0112482B6CAB0112482B2B5C
:10658000AC0112482B90AD0112482BADAD01124861
:106590002BCCAD0112482BBDAE0112482BE2AE014F
:1065A00012482B0CAF0112482B87AF0112482BE188
:1065B000AF0112482B4AB10112482BF8B101124821
:1065C0002B39B20112482B52C70212482BA0C70226
:1065D00012482BACC70212482B8AC80212482BBBA8
:1065E000C80212482BECC80212482B6CC902124890
:1065F0002BA4C90212482BF6C90212482B33CA0237
:1066000012482B50CC0212482B76CE0212482B6136
:10661000D00212482B4BD20212482BEF7F001248B7
:106620002BA2DB0112482BD2DB0112482BABE2017B
:1066300012482B30E40112482B2DEA0112482B1589
:10664000EB0112482B52EB0112482B75EB0112485B
:106650002BA6EB0112482BAFEB0112482BB9EB0133
:1066600012482BA7EC0112482B9DED0112482B6913
:10667000B20112482B68B60112482B6EB6011248BF
:106680002BA9BD0112482BC2C20112482B09D0030D
:1066900012482B9FD00312482BB5D00312482B2B46
:1066A000D10312482B9FD10312482BDDD10312488E
:1066B0002B51D20312482BCAD20312482BD3D20338
:1066C00012482BDFD20312482BF4D20312482B328C
:1066D000D30312482B48D30312482BA7D3031248E5
:1066E0002B86C70312482B93C70312482BADC70351
:1066F00012482BECC70312482B2AC80312482B8FD1
:10670000C80312482BA4C80312482BAFC803124871
:106710002BBCC80312482BD3C80312482BE1C80373
:1067200012482BECC80312482BF8C80312482B0759
:10673000C90312482B12C90312482B35C90312484A
:106740002BDCC90312482BECC90312482B06CA03E1
:1067500012482B23CA0312482B3FCA0312482B644A
:10676000CA0312482B6FCA0312482B84CA0312486B
:106770002B98CA0312482BF9CA0312482BFFCA03ED
:1067800012482B05CB0312482B0BCB0312482B23AB
:10679000CB0312482B56CB0312482B629D021248A2
:1067A0002BE69D0212482B959E0212482BF49F0265
:1067B00012482B15A20212482B01A30212482B36B5
:1067C000A30212482B58A30212482B07A402124816
:1067D0002BFFA50212482B28A60212482BBAA602AC
:1067E00012482BECA60212482BF9A60212482B5095
:1067F000A70212482B76A70212482BE3A9021248DF
:106800002BE6AA0212482B3EAB0212482BF18E0255
:1068100012482BFB8F0212482BE2900212482BECFD
:10682000900212482B0E910212482B1A9102124824
:106830002BB3920212482BE2920212482BFE9302D3
:1068400012482B57940212482BBD950212482B9CDC
:10685000960212482BF8960212482B6597021248AE
:106860002BA0970212482BDF970212482B989A020E
:1068700012482BB29A0212482B3E9B0212482B4C14
:106880009B0212482BA59B0212482BB39B02124875
:106890002B269C0212482B8A9C0212482BD49C0265
:1068A00012482B0EEF0212482B30EF0212482B56E3
:1068B000F10212482B6BF40212482B83F5021248A6
:1068C0002B36F60212482B18F70212482B8291043D
:1068D00012482BA7910412482B19920412482B99A5
:1068E0009A0312482BA29A0312482BAB9A03124820
:1068F0002B829B0312482B339D0312482B699D0367
:1069000012482BA39D0312482BD99D0312482B1329
:106910009E0312482B479E0312482B739E03124876
:106920002BBC9E0312482BF69E0312482B3F9F035D
:1069300012482B979F0312482BCC9F0312482B27FA
:10694000A00312482B61A00312482BB2A0031248E7
:106950002BE8A00312482B22A10312482B50A103BD
:1069600012482B73A10312482B10A30412482B3C8E
:10697000A30412482B97A30412482BA1A304124886
:106980002BB1A30412482B3CFA0212482B46FA0200
:1069900012482B84FA0212482BCDFA0212482B0718
:1069A000FB0212482B5DFB0212482B7EFB021248B1
:1069B0002B87FB0212482BD2FB0212482BFBFB0257
:1069C00012482B05FC0212482B71FC0212482B07BF
:1069D000FD0212482B51FD0212482B81FD02124884
:1069E0002B0AFE0212482B4AFE0212482B82FE029C
:1069F00012482B94FE0212482BB3FE0212482BBC05
:106A0000FE0212482B87FF0212482B51A0041248A5
:106A10002BA5880412482BDB880412482B1189040B
:106A200012482B5A8A0412482B68FF0312482B7E07
:106A3000FF0312482B88FF0312482BD2FF03124892
:106A40002BB4A40412482B8DBE0312482BA2BE0304
:106A500012482B52BF0312482B92BF0312482BAB94
:106A6000BF0312482BDFBF0312482B2CC003124870
:106A70002B60C00312482BA2C00312482BA6C203EE
:106A800012482B0CC30312482B48A10412482B7147
:106A9000A10412482B9AA10412482BB2A104124857
:106AA0002BF4A10412482B8CAB0212482BECAD0244
:106AB00012482B8FB10212482BBFB10212482B9300
:106AC000B20212482BBBB30212482B4DB40212483B
:106AD0002BAFB40212482B1EB50212482B92B502FE
:106AE00012482B01B60212482B73B60212482BF63D
:106AF000B60212482B85B70212482BD4B7021248AF
:106B00002B82B80212482B61DB0312482BA6DB0351
:106B100012482BCFDB0312482B58DC0312482B9B67
:106B2000DC0312482B7EDD0312482BEDDE031248F6
:106B30002BD3CB0312482B18CC0312482B41CC0388
:106B400012482B17CD0312482B6DCD0312482B5D35
:106B5000CE0312482BD0CF0312482BDCED03124892
:106B60002B21EE0312482B3EEE0312482BD5EE03E9
:106B700012482B23EF0312482BD9EF0312482B1492
:106B8000F10312482B78F70312482B9DF7031248A4
:106B90002BC7F70312482BB1FF0212482B78C7010D
:106BA00012482BDCC90112482B8DCB0112482B8FC8
:106BB000CC0112482B18CD0112482B9CCD01124854
:106BC0002BC1CD0112482BFAD00112482B6ED101F6
:106BD00012482B5FD20112482B99D20112482BD9AF
:106BE000D20112482B8CD40112482BDFD401124859
:106BF0002B28D50112482B96D50112482BC8D50158
:106C000012482BE0D50112482BF5D60112482B056E
:106C1000D70112482B20D80112482B42D801124824
:106C20002B78D80112482B1CDA0112482B5BDA01B1
:106C300012482B7DDB0112482BD7D30312482B1CA3
:106C4000D40312482B45D40312482BCED403124848
:106C50002B11D50312482BF4D50312482B63D7030D
:106C600012482BC4940412482BD4940412482B0DC0
:106C7000950412482BCF950412482B05990412480D
:106C80002B3A990412482B57990412482BCE990499
:106C900012482BEE990412482BBBA50412482BC6B0
:106CA000A50412482BD2A50412482B17FF01124845
:106CB0002B27FF0112482B36FF0112482BEAFF0158
:106CC00012482B4D9F0412482BD29F0412482B3898
:106CD000A00412482B948A0412482BA88A04124854
:106CE0002BE28A0412482B378B0412482BD08B04DA
:106CF00012482BF38B0412482BFF8B0412482B32C3
:106D00008C0412482BA89B0412482BE39B041248C6
:106D10002B4E9C0412482B829C0412482BB89C04D6
:106D200012482BE09C0412482B589A0412482B8CD2
:106D30009A0412482BB59A0412482B2C9B04124833
:106D40002B9B9B0412482B87860412482BA1860498
:106D500012482BC9860412482BF0860412482B8B4C
:106D6000870412482BCB870412482B4996041248FB
:106D70002B71960412482BE3960412482BFD9604BF
:106D800012482B55970412482B9E970412482BA1AA
:106D9000970412482B49EA0312482B57EA0312487A
:106DA0002BD0EA0312482B9DEB0312482B56ED0320
:106DB00012482B9BED0312482BC9ED0312482B22DE
:106DC0008E0412482B288E0412482B6E8E04124813
:106DD0002BA28E0412482BBA8E0412482B3B8F0430
:106DE00012482BF79C0412482B429D0412482B9DFD
:106DF0009D0412482B0B9E0412482BF87F0012486A
:106E00002B52840412482BDD850412482B3E860445
:106E100012482B84860412482B26DF0312482B6B62
:106E2000DF0312482B94DF0312482B1DE0031248A6
:106E30002B60E00312482B43E10312482BB2E2031C
:106E400012482B9CD70312482BE1D70312482B0A78
:106E5000D80312482B93D80312482BD6D8031248D4
:106E60002BB9D90312482B28DB0312482BEBE20382
:106E700012482B30E30312482B59E30312482BE24C
:106E8000E30312482B25E40312482B08E5031248BC
:106E90002B77E60312482B36A90312482B73A9035C
:106EA00012482B8FA90312482B57AA0312482B3CD8
:106EB000AB0312482BCFAC0312482B3BAD03124857
:106EC0002B21AE0312482BA8AE0312482BBCAF03F4
:106ED00012482B27930412482B77930412482B0057
:106EE000940412482B66940412482B2BFD0312487D
:106EF0002B55FD0312482B1BFE0312482BF6FE03F5
:106F000012482BA3920312482B60930312482B9B29
:106F1000930312482BC3930312482B259403124862
:106F20002B71940312482BD1940312482B649503C0
:106F300012482B63960312482BF2970312482B75C5
:106F4000980312482BDC980312482BF3980312483D
:106F50002BFD990312482B3B9A0312482B73B9025D
:106F600012482BD3BC0212482B5BBE0212482BAB3B
:106F7000BE0212482BC2BE0212482BE1BE021248CA
:106F80002B5FBF0212482BEFC00212482BD3C10265
:106F900012482BDFC50212482BAFC60212482BD372
:106FA0008F0412482B18900412482B6C900412483E
:106FB0002BEA900412482B49910412482B13A50484
:106FC00012482B39F10312482B7EF10312482BABE8
:106FD000F10312482B21F20312482B5CF2031248F2
:106FE0002B32F30312482B46F40312482B71A504ED
:106FF00012482B9DA504FFFFFFFFFFFFFFFFFFFFD0
:1070000074F6124C0D9002D174FEF0A304F09002BD
:10701000D4F09002D3F07A018A21752200740278AC
:1070200021124B8A74D12521F874023522F9EA889D
:10703000828983700774FEF0A304800474FFF0A3B8
:10704000F088828983A3A3A3F088828983A3A3F015
:107050000AEAC3940240C17A147B611261687A62C1
:107060007B611263F07900027C4274F2124C0DEAEB
:10707000FEEBFF8E828F83127672605212719F1226
:1070800071BE7524007823124E208A828B83A3124E
:107090004E377C027D007A3F7B84125F227404129B
:1070A0004BB3E9702E8521828522831271BE78232D
:1070B000124E208A828B83A3124E377C027D007A87
:1070C0003D7B84125F227404124BB3E97005790290
:1070D00002719A900AC6127672600CC3E498FAE4C0
:1070E00099FB1271AF5005790102719A7A067B0003
:1070F000126A1A8A238B24EA4524700579130271D7
:107100009A7A007B008040900AC6127B838A258B86
:107110002674037825124B8A852182852283E025F7
:1071200025F8A3E035268882F583A3A3A3A3ECF07A
:10713000A3EDF0900AC6E02401F0A3E03400F0EAE9
:1071400024010AEB3400FB1271AF40BB852382851A
:107150002483E4F0A3F0752104F5227821124E2057
:10716000EEFCEFFD12798C12698A7402124BB39017
:1071700002D91276729002D96017E0FAA3E0800378
:10718000E8FAE9FB8A828B8312767270F38A828B2B
:1071900083E523F0A3E524F079007F06024CDFEEBF
:1071A0002402F521EF3400F522852182F583228E19
:1071B000828F83E0F8A3E0F9C3EA98EB9922127B6F
:1071C000A48A828B83E0F52322C082C083E9900ADF
:1071D000C5F0D083D08202482874F7124C0DE9FE26
:1071E00074145E60047C018007EEA2E650097C0006
:1071F000791012641A800AA2E040047902800279B0
:10720000007F01024CDF74F7124C0D8921ECFEED7A
:10721000FFE9A2E550097C01791012641A803C74E0
:10722000885521602B74085521FC791012641AE9E5
:107230006027EE2418F582EF3400F583E0601CEE41
:107240002417F582EF3400F583E06401600B800BB6
:10725000E9A2E1400479038002790080A474F41269
:107260004C0D74E9124B9DEAFEEBFF8921E4F523F6
:10727000F5247823124E207523027823124E2075B0
:1072800023477524847823124E207CFF7DFF7A01EA
:107290007B001260EA7406124BB38A828B83E5820C
:1072A00045836056127D25854182854283E8F0A39F
:1072B000E9F07402124BE97404F014124BE9740102
:1072C000F07404124BE9E4F07405124BE974FFF01A
:1072D0007406124BE974FFF0E521F5227822124E74
:1072E0002479007401124BE9AC82AD83EEFAEFFB16
:1072F0001261027401124BB3800279017417124BB0
:10730000B37F04024CDF74EA124C0D8A2B8B2C8C59
:10731000298D2A9002D9E0F521A3E0F522741612F6
:107320004BE9E0F52DA3E0F52E7418124BE9E0F5DA
:1073300023A3E0F524800D852182852283E0F521B9
:10734000A3E0F522E521452270030274047E007F4C
:1073500000E5212404F527E5223400F5288008EE15
:1073600024010EEF3400FF852182852283127D27C0
:10737000C3EE98EF9950C08E258F2674037825129E
:107380004B8A852782852883E02525F525A3E035CE
:1073900026F526852582F583127D25C3E8952BE900
:1073A000952C40BBC3E52998E52A9940B2E52345D1
:1073B0002460237823124E20782D124E20852582BA
:1073C000852683E0FC7D00A3127BA0125F2274045B
:1073D000124BB3E96089741A124BE9127672601E7F
:1073E000852782852883E0FAA3E0F5838A82A3A318
:1073F000A3A3127BA088828983EAF0A3EBF0AA25DD
:10740000AB2680047A007B007F0E024CDF74EE1204
:107410004C0DECFEEDFF9002D9E0FCA3E0800A8C5D
:10742000828D83127D29E8FCE9FDEC4D7003027426
:10743000CE8C828D83127D25882189228882F583D6
:10744000A3A3A3A3E0F525A3E0F526C3EA9525EBC6
:10745000952640CB8C828D83A3A3E0F527A3E0F58E
:1074600028E5252527F8E5263528F9C3EA98EB997C
:1074700050AD752300752400800CE5232401F5230D
:10748000E5243400F524C3E5239527E52495285009
:107490008E85232985242A74037829124B8AE521B5
:1074A0002529F8E522352AF988828983A3A3A3A395
:1074B000E06A7003A3E06B70C1EE4F600B8E828FA9
:1074C00083E525F0A3E526F0E8FAE9FB80047A00DD
:1074D0007B007F0A024CDF74F0124C0D74FE124BDD
:1074E0009DEAFEEBFF7521007522008541828542F1
:1074F00083E4F0A3F0EE2404F525EF3400F52685AF
:107500002582F583127D2FA385822385832474FF32
:107510006A700374FF6B603D85418285428385827A
:10752000218583227821124E208E828F83E0F521DF
:107530007522007821124E20852382852483124EE5
:1075400037EA24010AEB3400FB1260EA7406124B9E
:10755000B38A218B228E828F83127DDF124E20858B
:107560002382852483124E377C027D007A3F7B8400
:10757000125F227404124BB3E970288E828F83E06D
:10758000F5277827124E20852382852483124E37D3
:107590007C027D007A3D7B84125F227404124BB31F
:1075A000E9600B852582852683127BA080458E822B
:1075B0008F83E0F5277827124E2085238285248348
:1075C000124E377C027D007A3B7B84125F2274046A
:1075D000124BB3E960367412124BE9127BA0E5211D
:1075E0004522600F854182854283E06A7003A3E0F3
:1075F0006B600512610E801F852182852283A3A303
:10760000A3A3E024FFFAA3E034FF800A8525828546
:107610002683E0FAA3E0FB7414124BE9127D29885B
:10762000828983E58245836005EAF0A3EBF0AA2115
:10763000AB227402027D37C082C0839002D91276D9
:1076400072602888828983A3A3A3A3E0FCA3E0F54A
:10765000838C82A3A3A3A3E06A7003A3E06B888258
:10766000898370DAA3A3127BA080047A007B0002D6
:1076700071D2E0F8A3E0F9E8492274F2124C0D74DB
:10768000FE124B9DEAFEEBFF8C218D228923854162
:1076900082854283AC82AD83126150E9F524706F1C
:1076A000E52360107C017910EEFAEFFB12641AE911
:1076B000F524705BAC21AD22EEFAEFFB125E92E98D
:1076C000F524704B8541828542831277197410121C
:1076D0004BE9E0F52174FF65216034EE2402F525C5
:1076E000EF3400F5267825124E2075251E752600EC
:1076F0007825124E20EEFCEFFD7A5C7B6112618CE6
:107700007404124BB38E828F83A3A3A3E521F0A947
:10771000247402124BB302719AE0FEA3E0FF2274BC
:10772000F5124C0D74FE124B9DEAFEEBFF8C218D81
:10773000228923854182854283AC82AD83126150C8
:10774000741769601DE523600E7C017910EEFAEF75
:10775000FB12641AE9700BAC21AD22EEFAEFFB12BA
:107760005E8C7402124BB37F03024CDF74F6124C32
:107770000DEAFEEBFF1260FCEA4B600FEE24FFF80F
:10778000EF34FFF9EA28FAEB398003EEFAEFFB0257
:107790007C4274F0124C0D74E3124B9D8A218B22B3
:1077A000127B72E0F528741E652870541261568AA7
:1077B000238B24EA45247003027985EA2403F52506
:1077C000EB3400F526E4F527F5287827124E208EB5
:1077D000828F83E0FD7C00AA21AB2285258285264D
:1077E00083E0F91261867402124BB3E9F52712792E
:1077F0008C12619285258285268374FFF00279853B
:10780000900AC5E0F4606BE528C394195064E5283C
:10781000C313F52375240074027823124B8A740075
:107820002523F874803524F9E824FCFAE934FFFBB9
:107830008A258B268A82F583127BA0EA4B6033E887
:1078400024FEF582E934FFF58312767260248C827F
:107850008D83A38582238583248C828D83E0F970B8
:107860000B852382852483E06401700B74126528E4
:10787000600579060279877404124BE985822785B1
:1078800083287827124E208C828D83A3A3A3124EC7
:10789000378C828D83A3A3A3A3A3127B838523822A
:1078A000852483E0FA852582852683127997124CF8
:1078B0000B7404124BB3E9F5276003027985740455
:1078C000124BE9AC82AD83AA21AB228E828F83E07A
:1078D000C313F52575260074027825124B8A74FEB1
:1078E0002525F582747F3526F583127997124C0B86
:1078F000E9F52770368E828F83E0FD74046D700386
:107900000279857404124BE98582238583247823C8
:10791000124E207C00AA21AB22900AC5E0F9126128
:10792000867402124BB3E9F527805A852382852499
:1079300083E070518E828F83E0854182854283F09F
:107940007403124BE9E9F08E828F83E0F8740468C7
:10795000600D7406686008740868600374106874C9
:1079600004124BE9127D297401124BE9E8F0A3E9F6
:10797000F0854182854283AC82AD83AA21AB22127D
:107980005E44752700A927741D027D37E523240274
:10799000FAE5243400FB22E0F8A3E0F58388822294
:1079A000790002482874F0124C0D74EA124B9D8A3B
:1079B000258B268C828D83127BA0752300127B720F
:1079C000C3E09AA3E09B4004EA4B70057901027B77
:1079D0006D854182854283E4F0E4F521F52278212A
:1079E000124E207821124E207821124E208E828F46
:1079F00083127B831260EA7406124BB38A218B22B6
:107A0000A821A922E8497003027ACC88828983A33D
:107A1000AA82AB83E82404F521E93400F5228541EC
:107A200082854283E06003027ADD88828983E06494
:107A300002700B7401124BE97401F0027AEA7401CE
:107A4000124BE97402F0127B8975F012A4F885F0EC
:107A500024A924E58228F582E58339F583A3A3ECE4
:107A6000F0A3EDF07527107528007827124E20122C
:107A70007B7F7402124BE9E075F012A4F8A9F0E5DF
:107A80008228F8E58339F9E82404FAE93400FB1286
:107A9000698A7402124BB3854182854283E004F007
:107AA000700F852182852283E0F47003A3E0F470D7
:107AB00003752301852182852283E02401FAA3E056
:107AC0003400FBE523A2E040030279D98541828599
:107AD0004283E06003027B60790A027B6D740112CD
:107AE0004BE9E064016003027A4688828983E0649E
:107AF0000270D9127B89F527752800740278271245
:107B00004B8AE5822527F582E5833528F583A3A3F3
:107B1000ECF0A3EDF07527027528007827124E20AF
:107B2000127B7F7402124BE9E0F52774027827126A
:107B30004B8AE5822527F8E5833528F9E82404FAFD
:107B4000E93400FB12698A7402124BB385418285C5
:107B50004283E004F0C394054003027AB1027AA2A2
:107B6000AC82AD83AA25AB26125E50790074160252
:107B70007D37EC2402FEED3400FF8E828F83228A53
:107B8000828B83E0FCA3E0FD22852182852283E0B5
:107B9000FCA3E0FD854182854283E0228E828F83B3
:107BA000127BA422E0FAA3E0FB2274F6124C0D1221
:107BB0007C544004EA4B700479018039E4F521F5E6
:107BC000227821124E208C828D83A3A3A3A3E0F5FB
:107BD000217821124E20127C47124E20EEFCEFFD40
:107BE0001260EA7406124BB38B22EA4522700479C4
:107BF0000A80027900804B74F6124C0D127C5440BE
:107C000004EA4B700479018039E4F521F5227821EA
:107C1000124E208C828D83A3A3A3A3E0F5217821AB
:107C2000124E20127C47124E20EEFCEFFD1260EA4D
:107C30007406124BB38B22EA45227004790A800243
:107C400079007F02024CDFEC2405F521ED3400F5CC
:107C5000227821228C828D83A3A31277198C828DA6
:107C600083127BA4C3EE9AEF9B2274F6124C0DEAAA
:107C7000FEEBFF8C828D837C007D00127BA0126066
:107C8000F08A828B83E582458370047901800CA39E
:107C9000A3A3E0F9EEFAEFFB1260D880A574F0120E
:107CA0004C0D8A238B24ECFEEDFF75250080020528
:107CB00025EE2416F582EF3400F583E0F8E525C3C0
:107CC00098505EE525C333F8E433F9EE28F521EF4B
:107CD00039F5227C007D00852182F583127BA0127C
:107CE00060F08A828B83E5824583701685218285C8
:107CF0002283127D298E828F83E8F0A3E9F0790137
:107D00008021A3A3A3E0F9AA23AB241260D8E960E1
:107D10009E852182852283127D2FEAF0A3EBF080DD
:107D20000279008015A3A3A3A3E0F8A3E0F922122F
:107D30007BA48E828F8322124BB37F08024CDF74A8
:107D4000F0124C0DECFEEDFF8E828F83127D291216
:107D5000719FC3E098A3E0994004E8497004790159
:107D6000807AEE2405F525EF3400F526EE2404F59F
:107D700023EF3400F524852382F583127DDF124E34
:107D8000207825124E207C027D007A3F7B84125F92
:107D9000227404124BB3E970047910803FE4F52794
:107DA0007827124E20852382852483E0F5237524CD
:107DB000007823124E207825124E208521828522BC
:107DC00083127B83127B9C1260EA7406124BB38B86
:107DD00022EA45227004790A80027900027D3AE0A5
:107DE000F52775280078272274F4124C0D8A218B10
:107DF00022ECFEEDFF7C007D00127B9C1260F08A7D
:107E0000828B83E5824583700479018010EEFCEF5C
:107E1000FDA3A3A3E0F9AA21AB221260DE02730145
:107E20000279A074F6124C0DECFEEDFF1261568A39
:107E3000218B22A821A922E849602BEE4F60098EF0
:107E4000828F83E8F0A3E9F088828983A3A3E0F816
:107E500074FE6870047917800F74FF6870047900ED
:107E60008006791680027902027C4274F6124C0D6B
:107E70007521009002D1E06A7003A3E06B70167563
:107E8000220074027821124B8A74D12521FA7402DF
:107E90003522FB80137521019002D5E06A7003A39F
:107EA000E06B60DB7A007B00027C4274F4124C0DC4
:107EB000EA4B604BEA2402F521EB1271A5E0F8745D
:107EC000FF68603B74FE686036EA2403FEEB340012
:107ED000FFE4F523F5247823124E207D1E7C178ABB
:107EE000828B83127D2FE0F91261867402124BB3EC
:107EF00085218285228374FEF08E828F8304F002B6
:107F0000730174F0124C0D8A238B24892574FE654D
:107F100023700474FF65247003027FECE970301253
:107F200061568B22EA45226003027FEC7AFF7BFFD9
:107F30001261568A218B22A821A922E849700302E6
:107F40007FEC88828983E523F0A3E524027FEB742C
:107F5000016525701D1261568A218B22A821A92254
:107F6000E8497003027FEC8882898374FFF0A3F0F4
:107F70008021740265257074790112640EE9706CB9
:107F8000AA23AB241261568A218B22A821A922E8B8
:107F9000496059E82402FEE93400FF8E828F83E0B5
:107FA000FA74FF6A6046E82403F521E93400F522FB
:107FB00074FE6A6022E4F527F5287827124E207DAA
:107FC0001E7C14AA23AB24852182852283E0F9122A
:107FD00061867402124BB3EEFAEFFB1261928521B7
:107FE0008285228374FFF08E828F83F0027D3A02B5
:107FF0004828FFFFFFFFFFFF854387C2AF024828E5
:10800000C082C083E9900AC8F002828F74F7124CD4
:108010000DE99002E0F07C187D037AFF7BFF12628D
:10802000289002E174FFF0A3F0A3E4F0A3F0790537
:108030001261B09002E0E0F91260D27A467B6212DF
:1080400063F07F01024CDF74F4124C0D8A218B2205
:10805000EB548060309002E0E0F91269C68A238B0D
:1080600024AE23AF24EE4F60138E828F83E064B082
:1080700070031261C8EEFAEFFB1269B4AA21E5227F
:108080006480FB80047A007B0002825E74F2124CF2
:108090000D74FC124B9DEAFEEBFFEE4F603874024C
:1080A000124BE9EEF0A3EF1284C3ECF0A3ED1284BF
:1080B000C3AA82AB831260CCE9F5217073741212EB
:1080C0004BE9129077E523452460658E828F8312F9
:1080D000813AEE4F700575210280557A067B0012B9
:1080E0006A1A8A258B26A825A926E84970057521D4
:1080F00013803D88828983E4128144A3A3EEF0A318
:10810000EF129510E523F0A3E524F09002E612812A
:10811000CC9002E66017E0FCA3E08003EAFCEBFDF4
:108120008C828D831281CC70F38C828D83128F9C14
:10813000A9217404124BB3029712A3A3A3A3E0FED8
:10814000A3E0FF22F0A3F0888289832274F2124C0C
:108150000D8923E975F017A4FEAFF09002E5E4F075
:108160009002E31281CC600A126A209002E3E4F0EC
:10817000A3F0EEFAEFFB126A1A8A218B22EA45225B
:10818000602FEEFCEFFD79001269A29002E3E52179
:10819000F0A3E522F07B0080081281B6E4F0A3F0A2
:1081A0000BEBC3952340F2E5239002E5F0790080C4
:1081B000027913029712EB75F017A4F8A9F0900258
:1081C000E3E028FAA3E0398A82F58322128D32EAAD
:1081D0004B2274F4124C0D752100752200740C12A0
:1081E0004BE91294E4FEE9FF800CE5212401F5211E
:1081F000E5223400F522C3E5219CE5229D5032851D
:10820000212385222474037823124B8AEA2523F83C
:10821000EB3524F988828983A3A3A3A3A3A3129097
:1082200077EE65237003EF652470BFE8FAE9FB8001
:10823000047A007B00802774F4124C0D7900EAA2C6
:10824000E0501B7521647522837821124E207C0436
:108250007D007ACA7B0A1261AA7402124BB37F04B2
:10826000024CDFC082C0839002E6128296601C88B6
:10827000828983A3A3E06A7003A3E06B8882898369
:1082800070E8A3A3A3A3128D2E80047A007B00D0F4
:1082900083D0820248281297E5E8492274EE124CF6
:1082A0000D74FC124B9DEAFEEBFF854182854283F3
:1082B000E4F0A3F0EE2402128F80EE24051284B1C4
:1082C000EE2404F527EF128896E024FE603924FCA2
:1082D000604624FE605224FE605E24FE700302832A
:1082E000B624FE700302842E24FE700302843D2413
:1082F000FE700302844C24FC700302845B24FE7035
:108300000302846A0284A79002FF7417F0A3E412A8
:1083100084CB125E4A0284A7854182854283AC8267
:10832000AD831261CE028477854182854283AC821F
:10833000AD831261D40284778525218526227402BB
:10834000124BE9AC82AD83852182852283128D2E6A
:108350001260F08A258B26AC25AD26EC4D6042E4F8
:10836000F525F5267825124E207525FF752602780D
:1083700025124E207525007526037825124E20748F
:1083800008124BE9124E377916128D2812621074BA
:1083900008124BB3E9F525700B128D24125E628032
:1083A0000F7525018521828522831284B9128F9C45
:1083B00085252102847A7402124BE9AC82AD838553
:1083C0002582852683128D2E1260F08A298B2AAC95
:1083D00029AD2AEC4D6043852582852683A3A3120F
:1083E0004E377529FF752A027829124E207529000B
:1083F000752A037829124E207408124BE9124E3761
:108400007916128D281262107408124BB3E9F52206
:10841000700B128D24125E68800F752201852582F3
:108420008526831284B9128F9C852221804C854138
:1084300082854283AC82AD831261DA803A854182C3
:10844000854283AC82AD831261E0802B85418285B9
:108450004283AC82AD831261E6801C8541828542F5
:1084600083AC82AD831261EC800D854182854283AD
:10847000AC82AD831261F2E9F521E52160298E829B
:108480008F83A3E06414601F852782852883E09092
:1084900002FF1284C31297E1900300128F9CE52122
:1084A000A31284CB125E44EEFAEFFB12616E028ED1
:1084B00088F525EF3400F526221297E5854182855F
:1084C000428322F085418285428322F07CFF7D0237
:1084D000852382852483128D322274EE124C0D7412
:1084E000FC124B9D8A238B248C278D28EA2405F5CA
:1084F00021EB3400F5227C157D0079007AFF7B02A8
:108500001269A2E5212402F525E5221284B48541F1
:108510008285428385822985832A7829124E208587
:108520002182852283A3A3A3A31289DE124E20E514
:10853000212405F529E5223400F52A7829124E2058
:10854000852582852683128D381260EA7406124BC7
:10855000B38A298B2AAE29AF2AE5232402F523E525
:1085600024128F83EE4F70030286A08017740212CC
:108570004BE9128D2E88828983EAF0A3EBF09002FA
:10858000FFE004F09002FFE0C3940540030286A0E0
:10859000E4F529F52A7829124E207529E8752A0272
:1085A0007829124E207529E9752A027829124E2061
:1085B0007406124BE9124E377910EEFCEFFD128D66
:1085C000281262107408124BB3E9705E852182850F
:1085D0002283A3A3A3A3A3A3A3E0F89002E8E068E7
:1085E00070481289DE124E207CE97D02E5212408C4
:1085F000FAE5223400FB12699C7402124BB3E96065
:10860000298E828F83A3A3A3A3128D2E9002FFE055
:10861000F52974027829124B8A74002529F5827491
:1086200003352AF583EAF0A3EBF07402124BE985D7
:10863000822985832A7829124E207402124BE9126E
:108640004E378525828526831297F61260F67404CC
:10865000124BB38A298B2AAE29AF2A9002FFE0F58C
:1086600029752A0074027829124B8A74FF2529F88B
:108670007402352AF988828983A31281CC7003029F
:108680008564E82403F8E93400F9EE4F60030285BD
:108690006D8882898374FFF0A3F09002FFE004F0FC
:1086A0009002FFE0600A128D24125E567900800B62
:1086B000852182852283128F93790A028E8874EA3B
:1086C000124C0D74FE124B9D8C2B8D2CEA2405F55B
:1086D00025EB12996012813E752100752200EA2473
:1086E00002F529EB3400F52A854182854283858293
:1086F000238583247823124E20852582852683A313
:10870000A3A3A31288A0124E20E5252405F523E596
:1087100026128F837823124E208525828526831288
:1087200097F41260EA7406124BB38A238B24EA454D
:10873000247003028851EA2404F527EB128896126C
:10874000813E8A828B83A3A3A3E0F9852982852AAF
:1087500083128D2E1260D8E9F5226003028851E45D
:10876000F52DF52E782D124E20752DE8752E0278F8
:108770002D124E20752DE9752E02782D124E207483
:1087800006124BE9124E377913AC23AD24852982AA
:10879000852A83128D2E1262107408124BB3E9F5EC
:1087A0002260030288519002E8E0F8E5217009E0B8
:1087B0002402900300F08017900300E0FCE82402FC
:1087C000FAE43400FBEA6C7001EB60030288558523
:1087D0002182AA821289D594141289CD50738527DB
:1087E00082852883E0C0E074012A12888DD0E0F0F1
:1087F0000521852782852883A3E0C0E08521237495
:1088000001252312888DD0E0F005219002E812881E
:10881000A0124E207CE97D0285212374012523FAD4
:1088200074033400FB12698A7402124BB39002E89D
:10883000E02521F52174FF6E700374FF6F6012EE66
:1088400024010EEF3400FFE521C394145003028687
:10885000E8E5216013128C19852982852A83128DFF
:108860002E125E5C79008014E522700375220A8561
:108870002B82852C83EEF0A3EFF0A9227402124B19
:10888000B37F0E024CDF85212574012525F5827406
:10889000033400F583223400F528852782F58322EE
:1088A0001295232274EE124C0D74FE124B9D8C27F0
:1088B0008D28EA2405F525EB1284B4752400900276
:1088C000FFE4F0F523EA2402F521EB3400F52280E1
:1088D000499002FFE0FA9002E8E0F81289D5941777
:1088E0001289CD400D9002FFE0F87416C3989002F3
:1088F000E8F01289DE124E207CE97D0274002AFA2B
:1089000074033400FB12698A7402124BB39002E8BC
:10891000E0F89002FFE028F00523E5252416F58213
:10892000E526128891E0F8E523C39840030289B652
:108930009002FFE0C39416507DE523C333F8E4337F
:10894000F9E52528FEE52639FF854182854283AC7D
:1089500082AD838E828F83128D2E1260F08A298BD6
:108960002AAC29AD2AEC4D70057524018043E4F54D
:1089700029F52A7829124E207529E8752A027829C6
:10898000124E207529E9752A027829124E207406A4
:10899000124BE9124E377916852182852283128D7A
:1089A0002E1262107408124BB3E9F524700302888A
:1089B000D1128F8F80107CFF7D02852182852283DA
:1089C000128D2E125E6EA9247402028E8AE9940022
:1089D000C365D03322EA28F8E43400F9E822E0F550
:1089E00029752A0078292274EA124C0D74FC124B66
:1089F0009D8A258B268C2B8D2CEA2405F523EB12E2
:108A00008F83752100752200E5232402F529E524D2
:108A10003400F52A7402124BE98582278583287871
:108A200027124E20852382852483A3A3A3A3129417
:108A3000CF124E20E5232405F527E5243400F52840
:108A40007827124E20852982852A83128F89128DDC
:108A5000281260EA7406124BB38A278B28AE27AF20
:108A600028E5252402F527E5263400F528804088EE
:108A700082898374FFF0052112888674FFF0052136
:108A80009002E8E0F5257526007825124E207CE955
:108A90007D0285212574012525FA74033400FB121B
:108AA000698A7402124BB39002E8E02521F521EEA9
:108AB0004F60718E828F83A3A3A3E0F985278285FF
:108AC0002883128D2E1260D8E9F522EE2404128438
:108AD000B1E97044E4F52DF52E782D124E20752D58
:108AE000E8752E02782D124E20752DE9752E02782C
:108AF0002D124E207408124BE9124E377911EEFCFC
:108B0000EFFD852782852883128D2E12621074084E
:108B1000124BB3E9F5226027852582852683128CC6
:108B20000F128F9CE5217003028BF5128C1985279B
:108B300082852883128D2E125E747900028C0A853C
:108B40002182AA82EA9002E87009E02404900300DE
:108B5000F08022E0F8900300E0F52DE82404FCE426
:108B60003400FDEC652D7001ED70C01289D59412B2
:108B70001289CD50B6852582852683E0C0E0740138
:108B80002A12888DD0E0F00521852582852683A3D1
:108B9000E0C0E0128886D0E0128C2B858225858388
:108BA000267825124E207404124BE9124E3785297F
:108BB00082852A831297F61260F67404124BB38AE8
:108BC000258B26AE25AF2685212574012525F87431
:108BD000033400F9EE4F7003028A6F8541828542AB
:108BE00083E088828983128C2BA3E0C0E012888600
:108BF000D0E0028A7DE522700375220A85238285F2
:108C00002483128C0F128F9CA922740402887E1276
:108C100097E5852B82852C8322900300E0F5F0E513
:108C200021849002FFF07CFF7D0222F00521854126
:108C3000828542832274EC124C0D74FE124B9D8A85
:108C4000218B228C278D28EA2405FEEB3400FF853A
:108C50004182854283AC82AD838E828F83128D2EBA
:108C60001260F08A238B24EE24181284B1EA452482
:108C70007003028CFF128E715032854182854283CF
:108C8000128D2E1262048A298B2AEA452A606B799A
:108C900012AC23AD24852182852283128D2E852955
:108CA00082852A83124C0BE9F5237058E4F523F5ED
:108CB000247823124E208E828F83A3A3E0F523789D
:108CC00023124E20EE2403128F807823124E208E22
:108CD000828F83128D381262167406124BB3E9F537
:108CE000237021852582852683E0701F852182855A
:108CF0002283128D2E125E7A801175230E800975E3
:108D000023018004E5236003128F8F852582852649
:108D100083E0600479008002A9237402124BB37FC0
:108D20000C024CDF7CFF7D02852382852483128D1B
:108D30003222E0FAA3E0FB22E0FCA3E0FD852182E1
:108D4000852283128D322274EE124C0D74FE124B6A
:108D50009D8A218B228C258D26EA2405FEEB34008A
:108D6000FF752700854182854283AC82AD838E8268
:108D70008F83128D2E1260F08A238B24EA45247093
:108D800003028E5D128E71503585418285428312B9
:108D90008D2E1262048A278B28EA4528605E79129C
:108DA000AC23AD24852182852283128D2E852782D6
:108DB000852883124C0BE9F5276003028E6085211C
:108DC00082852283129077AA23FB1261F88A298B6D
:108DD0002AA829A92AE849701E7AFF7BFF1261F8A8
:108DE0008A298B2AA829A92AE849606C8882898364
:108DF000E523F0A3E524F0752300800775270E8096
:108E00005F05239002E5E0FAE523C39A504AE52383
:108E100075F017A4FAABF088828983A3A3E02AFA3D
:108E2000A3E03BFB8A828B83128F89EC4D70D27555
:108E300023177524007823124E20EEFCEFFD1269F3
:108E40008A7402124BB3EEFCEFFD852182852283EA
:108E5000128D2E125E8080147527098003752701FC
:108E60001297DD852582852683128F9CA92702898A
:108E7000C8E5212402F521E5223400F5228A828BFF
:108E800083A3A3A3E0A2E5227404124BB37F0A02DA
:108E90004CDF74EC124C0D8C298D2AEA2405F52543
:108EA000EB1284B4752800EA2402F523EB128F83B9
:108EB000852382F583128D2E1261F88A218B22EA96
:108EC00045227003028F7575270080718525828584
:108ED0002683E06401704F8E828F83A3A3124E37E6
:108EE0008E828F83A3A3A3A3E0F52B752C00782B90
:108EF000124E20EE2405F52BEF3400F52C782B12C2
:108F00004E20128D281262167406124BB3E9F52812
:108F10006014852582852683E4F01297DD852982F9
:108F2000852A83128F9C7C177D007900EEFAEFFB77
:108F30001269A28E828F83E4F0A3F005279002E5E8
:108F4000E0F8E527C398501EE52775F017A4F8A9A7
:108F5000F0852182852283A3A312996A128F89EC5E
:108F60004D6003028ECC85218285228374FFF0A39D
:108F7000F0E5287006128D28125E86A928028D1F42
:108F8000F523EF3400F52422A3E0FCA3E0FD228EBC
:108F9000828F831297E5852782852883E8F0A3E9ED
:108FA000F022C082C0839002E1E06A7003A3E06B0C
:108FB00070067AE17B0280047A007B0002828FC017
:108FC00082C08378008C828D83E06A7003A3E06B9B
:108FD0007010E875F003A4F8A9F0EC28FAED39FB5D
:108FE0008015088C828D83A3A3A3E06A7003A3E09D
:108FF0006B60DF7A007B0002828F74F6124C0D12D8
:1090000061C28A828B83E582458370067A007B0089
:109010008007A3A3A3A3128D2E02968E74F2124C86
:109020000DE9FE740E124BE91290777410124BE9A1
:109030001294EF8C828D83E064027036A31297EB5A
:10904000F525A3E0F9A825740268700374296970F6
:10905000217525027526007825124E207821124EA2
:10906000207823124E20EEF912623A7406124BB3A6
:1090700080027901029712E0F523A3E0F52422741F
:10908000E8124C0D74FB124B9DE9854182854283A9
:10909000F08A2F8B30ECFEEDFF752900741D124B0A
:1090A000E91297E1741D124BE9128F9C8E828F8317
:1090B000A3A3A3E0A2E4502D741D124BE9128D2E40
:1090C0001262048A828B83E582458370030294C016
:1090D000790AEEFCEFFDAA2FAB30124C0BE9F52913
:1090E00060030294C3741F124BE91294EF742112AF
:1090F0004BE91290777423124BE9E0F527A3E0F5D2
:10910000288E828F83E06402600302946EA312971C
:10911000E1852182852283A385822B85832CEE2401
:10912000061284B188828983E0FAA3E0F9EA240078
:10913000F52DE439F52E782D124EAA0100002801F4
:109140002863910700022828920328959100295F3F
:109150009301298A9302292B9303295F93042909F8
:10916000946E94E5274528600302946985258285DD
:1091700026831294E4FAE9FB8A828B83E0852382BA
:1091800085248312951A124E208A828B83A3E0FCD9
:10919000A3E00293F3E52745286003029469852341
:1091A000828524837401F01294F7852182852283BD
:1091B000F07C007D008E828F83A3A3A3A3E0240113
:1091C000FAA3E03400FB1260F0EA4B60418A828B24
:1091D00083E02402F8852382852483E028F0EA24B2
:1091E00004F8EB3400F988828983E0852B82852C92
:1091F0008312952C12951A124E208A828B83128F1D
:1092000088E5212403FAE5223400FB0293F8852344
:1092100082852483E02404F07C047D007900AA2B5D
:10922000AB2C1269A20294C3E5274528600302947F
:10923000691294F7FEA3E0FF8523828524837404DA
:10924000F0EE852182852283F0EF852B82852C83A9
:10925000F07403124BE9AC82AD83EEFAEFFB1260BF
:10926000F08A258B26EA4526700302930C8A828BAE
:1092700083A3A312813A7401124BE9858227858367
:10928000287827124E207405124BE9124E377CFFC6
:109290007DFF1260F67404124BB38B28EA452870E8
:1092A000338525828526831294CF124E2085258210
:1092B000852683A3124E377C027D007A3D7B841283
:1092C0005F227404124BB3E9700A7401124BE97403
:1092D000FFF0A3F08E828F83E0640270397525025F
:1092E0007526007825124E208E828F83128F88E596
:1092F000212404FAE5223400FB12698A7402124B1D
:10930000B3852382852483E0240280097401124BF3
:10931000E9EEF0A3EFF07401124BE91294E0F0745F
:1093200001124BE9A31294D8029463E52745286003
:1093300003029469852582852683128F89AA2FAB23
:109340003012622E8523828524837402F0EA8521FF
:1093500082852283F0852B82852C83EB029466E53F
:1093600027452860030294691294F7F8A3E0F98571
:1093700023828524837402F0E8852182852283F08C
:10938000E9852B82852C8302946685258285268338
:10939000128D2E126984EAFC8C82A882C39527E480
:1093A0009528405FE865277002E52870047C0080FE
:1093B00022854182854283E0FAE5272AFAE52834AE
:1093C00000FBC3EA98EB94005003E08005E527CC4E
:1093D000C39CFCEC852382852483F08C23752400B8
:1093E0007823124E20852582852683E02527FCA33D
:1093F000E03528FDAA21AB2212698A7402124BB310
:109400000294C37529070294C3E5274528705A853D
:1094100025828526831297E185238285248374071C
:109420001281461294D8128146A3E0852B82852CA6
:1094300083F0E82402FAE93400FB8A828B831294D9
:10944000D81295071294E0A31295101294E9F0E84F
:109450002405F8E93400F9888289831294E9A3127B
:10946000952CA3A3A3A3F0805A75290B8055741DD6
:10947000124BE9128D2E1261C28A828B83E58245DE
:1094800083603D1297E188258926E845266031787A
:1094900027124E207823124E207821124E20740677
:1094A000124BE9E0F9EEFCEFFDAA2FAB30852582E7
:1094B000852683124C0B7406124BB3E9F529800301
:1094C00075290EA9297405124BB37F10024CDFE0F9
:1094D000F527752800782722E085218285228322BE
:1094E000129536221297E5E822129536A3A322E0C0
:1094F000F521A3E0F52222852582852683E0F8A3C5
:10950000E0F5838882E022A3A3F08A828B83A322E2
:10951000F088828983A3A3A3A322F08A828B83127B
:10952000952322E0F523752400782322F088828990
:1095300083A312953622E0852182852283A3A3226C
:1095400074EE124C0D74FE124B9D8A238B24ECFAA0
:10955000EDFB7414124BE9E0F529A3E0F52A74162B
:10956000124BE9E0FE7418124BE9E0F527A3E0F591
:1095700028854182854283AC82AD831260F08A25C2
:109580008B26EA45266049854182854283128D2ECD
:109590001261C28A828B83E5824583602FA3A31266
:1095A00094EFE521452260247827124E2078291275
:1095B0004E20EEF9AC25AD26AA23AB248521828569
:1095C0002283124C0B7404124BB38006790E800276
:1095D00079010289C874F6124C0D74FE124B9D7409
:1095E0000C124BE91294E4854182854283F07401A8
:1095F000124BE9E9F0E4F521F5227821124E2075AD
:1096000021027821124E207404124BE985822185B3
:1096100083227821124E201262167406124BB37404
:1096200002124BB3806874F7124C0DEAFEEBFF890F
:10963000217C187D0312622EEA5402600BA921EEF0
:10964000FAEFFB1260E48002790102804274F612A4
:109650004C0D74FF6A700374FF6B70168C828D83DF
:10966000129693E4F08C828D83A3A3A3129693A306
:1096700080181261FE8A218B22A821A922E8496064
:109680000D8882898374FF128144A3A3E4F07F02D2
:10969000024CDF74FFF0A3F08C828D83A3A32274AD
:1096A000F6124C0D1261FE8A828B83E5824583603F
:1096B00006A3A3E0FA80027A007B0080D174F21244
:1096C0004C0D8A218B22ECFEEDFF740E124BE9E06B
:1096D000F5231261FE8A258B26A825A926E8497064
:1096E00026EEFCEFFD7AFF7BFF1261FE8A258B26BA
:1096F000A825A926E84970047911801688828983F3
:10970000E521F0A3E522F088828983A3A3E523F075
:1097100079007F06024CDF74EE124C0DEAFEEBFF7F
:109720008C218D2289257414124BE91297E174164D
:10973000124BE9128D2E752600E84960030297D579
:109740007402652560030297D07412124BE91297D8
:10975000EBFCA3E0F9EC2400F527E439F528EAF462
:10976000F8EBF4F9EC58F8E52859F9E849705CE5AC
:10977000212406F8ED3400F9882389248882F583B2
:109780001297F612622E8A298B2AE5276529700422
:10979000E528652A60427827124E20852382852499
:1097A000831297F61262347402124BB3E9F52670F5
:1097B000277827124E20852182852283A3A3129722
:1097C000F412624C7402124BB3800D75268080082F
:1097D00075260D800375260BA926028E8D8E828F2D
:1097E000831297E522E0F8A3E0F9221297E5888238
:1097F0008983E022A3A3E0FCA3E0FDEEFAEFFB22C5
:1098000074E8124C0D74E7124B9D854182854283AA
:10981000EAF0A3EBF08C2F8D30892775210075229B
:10982000007431124BE9E0F52BA3E0F52C743312F0
:109830004BE9E0F52DA3E0F52E7435124BE9E0F588
:1098400028E52275F003A4F8A9F0854182854283BA
:1098500012996AE0F47003A3E0F4700302994DEEEC
:109860002402F525EF129960E0700302994D852FCF
:10987000238530247823124E20AC2DAD2EAA2BAB9D
:109880002C1261B67402124BB38A238B24EA45244E
:10989000700302994DE4F529F52A7829124E2074B7
:1098A00006124BE985822985832A7829124E207475
:1098B00009124BE985822985832A7829124E208551
:1098C0002B82852C83A3A3A3A3124E377914AC2338
:1098D000AD248E828F83128D2E1262107408124B6B
:1098E000B3E97069852382852483A3A3A3A3129778
:1098F000E17402124BE9128F9C852582852683E054
:10990000A2E05018A9277402124BE9AC82AD838EF5
:10991000828F83128D2E126108E94221852582856E
:109920002683E0A2E15026E528F5237823124E2471
:10993000A9277403124BE9AC82AD838E828F831208
:109940008D2E1261027401124BB3E942210522E50A
:1099500022C394025003029841A92174190294C7AA
:109960003400F526852582F58322E028FEA3E03920
:10997000FF8E828F832274F2124C0DEAFEEBFF8978
:109980002474016524600E74026524706A790112E2
:10999000640EE97062EEFAEFFB1261F88A218B2205
:1099A000EA45226047752300800B7C177D00790013
:1099B0001269A205239002E5E0F8E523C39850213F
:1099C000E52375F017A4F8A9F0852182852283A3E9
:1099D000A3E028FAA3E039FB8A828B831282967077
:1099E000C985218285228374FFF0A3F07C187D0352
:1099F000EEFAEFFB12622802971274F2124C0D8AF3
:109A0000218B22ECFEEDFF740E124BE91290779041
:109A10000AC8E0F4603D7A097B001269AEEA4B6047
:109A2000328A828B8374B1F0A3E4129509A3129554
:109A300007A3E521F0A3E522129A56EEF0A3EF1258
:109A40009A56A3A3E523F0A3E524F0900AC8E0F911
:109A50001269BA029712F08A828B83A3A3A3A3A3ED
:109A600022C082C0839061907404F0A37448F0A374
:109A70007402F09061807440F09061BC7403F090C7
:109A800061877419F0906265741BF0906249E0C3BD
:109A9000941390619C400A7409F090606674018090
:109AA00007740DF0906066E4F090619A7433F0A34F
:109AB0007455F09061A0743AF090053EE064017036
:109AC00009C2919003A5746780059003A57461F0A5
:109AD000906FFAE493906186F0906FFCE493F460E9
