:020000040000FA
:060000000201070220A727
:03002B000224DBD1
:03003B000224FCA0
:030043000224B5DF
:0300530002211A6D
:10008300021F13E5C754F84401F5C77901220000A4
:100093000080FB120086B900030200F1E479427884
:1000A30008B800028004F709D8FCE4794A7802B85A
:1000B30000028004F709D8FCE4900281780E790BE2
:1000C3008002F0A3D8FCD9FA7A8E7B0C90013778A2
:1000D300F179038015E493A3AD82AE838A828B8387
:1000E300F0A3AA82AB838D828E83D8E9D9E7758288
:1000F30005758397740312011975829175830074D2
:100103000012011975D00075814F75408175410248
:10011300759F00020096C09FF59FE473D09F22D085
:1001230083D082C09FE493C0E0740193C0E0740263
:1001330093F59F220809534A4D2E4550470512084F
:10014300000800020A00020106424C45425244479D
:100153000000000000000000000000000000330465
:1001630000003904FF0000B40000280028002830F4
:1001730075A000A000A000A00000080008E001F0A6
:10018300001000100010001000100010005000506C
:1001930000500010001000D0070000000000000F06
:1001A3000001000500307507001000010081FF0009
:1001B300000000FF430661064906FF02020208022F
:1001C3005000A0000000E80302B281010000858115
:1001D300029C81010000150D02A281010000B702FB
:1001E300029C81010000160D02A481010000CD02D2
:1001F300029C81010000170D02A681010000CF02BD
:10020300029C81010000180D02A881080000D002A1
:10021300029C81010000190D02AA810100001A0D40
:10022300FF0100FF2002B2810100008281029C8154
:100233000100007E0D02AC81000000000002A081DD
:100243000300001D030D0C0D0C0D0C0D0C0D0C0DFE
:100253000C0D0C0D0C0D0C0D0C0D0C0D0C0D0C8F51
:100263000EA70E890EFFFF02020202020202020221
:10027300010D000000100102B2810100007981022A
:100283009C81010000C10D02B081010000610702E1
:100293009C81010000C20D02AE81010000178102A2
:1002A3009C81010000C30D029281010000FB8002CA
:1002B3009C81010000C40D029081010000B98002FD
:1002C3009C81010000C50D028E8101000083800224
:1002D3009C81010000C60D028C81010000A78002F1
:1002E3009C81010000C70D028A81010000958002F4
:1002F3009C81010000C80D02888101000009810270
:100303009C81010000C90D029881010000CA0D0102
:10031300053F100AFF0001307503020106000000CB
:1003230000000000000000000000000000000000CA
:10033300000000000000000000FFFF0600800CE842
:1003430003020A4368617261637465726973746955
:10035300632031000243686172616374657269737B
:100363007469632032000843686172616374657263
:100373006973746963203300104368617261637445
:100383006572697374696320340002436861726142
:1003930063746572697374696320350002B2810105
:1003A30000007C81029C810100009C0E02B6810347
:1003B30000007F0C029E810100009D0E029C8101C2
:1003C3000000AE0E02B881010000800C029E810184
:1003D3000000AF0E029C81010000C00E02BA810230
:1003E3000000810C029E81010000C10E029C81016C
:1003F3000000D20E02BC81000000820C02A0810327
:100403000000830C029E81010000D30E029C810137
:100413000000E40E02BE81040000890C029E8101EB
:100423000000E50E12012204EA02120122AEEB02E1
:100433001201227DEC021201229FEC02120122D74B
:10044300EC02120122B48B03120122CB8B031201A3
:1004530022FC8B03120122378C03120122618C03CD
:100463001201228B8C03120122A28C03120122B9E6
:100473008C03120122D08C03120122F98C03120186
:10048300220C8D03120122228D03120122358D03CA
:100493001201225C8D0312012250A4021201225484
:1004A300A5021201228CA502120122AFA50212019C
:1004B30022BAA502120122DDA502120122ECA60234
:1004C300120122C1A7021201223CA802120122C476
:1004D300A802120122FFA80212012236A902120168
:1004E30022C4A9021201229DAA02120122FDAA021C
:1004F30012012208AB0212012287AB021201228AE7
:10050300AB021201228DAB021201221CAC021201BA
:10051300221FAC021201224FAC0212012279AC025B
:1005230012012267AD0212012219AE021201221D2D
:10053300D80212012245D80212012273D8021201F5
:1005430022AAD80212012208D90212012253D90287
:100553001201229ED902120122DED90212012224A3
:10056300DA0212012252DA021201220FDB02120115
:100573002219DB0212012226DB0212012259DB02BD
:1005830012012225DC0212012231DC02120122496E
:10059300DC0212012253DC021201223A93031201FC
:1005A30022489303120122609303120122789303DA
:1005B30012012228B501120122D4B5011201224FE2
:1005C300B60112012270B701120122ACB701120168
:1005D3002255B8011201223CB901120122A0BA012D
:1005E300120122F7BA0112012278BB01120122681B
:1005F300BC01120122B5BC011201223BBD01120153
:10060300226DBD0112012281BF01120122C3BF016C
:10061300120122E1BF0112012264C001120122383A
:10062300C10112012200C20112012263C60212019A
:100633002236C702120122DFC70212012232C80288
:10064300120122E2C8021201226EC9021201225AC9
:10065300CA0212012289CA021201229CCB02120190
:1006630022E4CB02120122B9CC02120122F5CC0200
:1006730012012211CD02120122449503120122F626
:10068300ED021201220CEE0212012232EE021201DD
:10069300224EEF0212012258EF021201228DF002C4
:1006A30012012285F102120122F6D2021201222640
:1006B300D40212012259D402120122A3D40212013C
:1006C300226AD602120122D6950112012240960116
:1006D3001201229F9701120122AF9701120122DC1E
:1006E3009701120122339801120122DC98011201B1
:1006F30022E39901120122AD9A011201220D9C01FC
:10070300120122509C01120122F59C011201224286
:100713009D01120122689D01120122769F0112019F
:10072300227B9F0112012280A101120122CDA1018E
:1007330012012240A20112012273A2011201221509
:10074300A301120122BEA301120122F6A301120189
:1007530022F9A30112012241A40112012281A40161
:10076300120122D8A40112012200800312012218CF
:10077300800312012260800312012276800312019A
:1007830022BD8003120122D181031201225E820362
:10079300120122A98203120122702500120122AB49
:1007A3002500120122F02500120122B026001201B9
:1007B300223627001201229B2700120122C727009D
:1007C3001201220028001201223E2A0012012222D5
:1007D3002C00120122082E001201224B2F001201BD
:1007E30022993100120122AB3200120122F63300AA
:1007F3001201220635001201222335001201225E66
:100803003500120122803500120122E33500120166
:1008130022A43A00120122393B001201228A3B0032
:10082300120122B13B00120122033C0012012221DA
:100833003C001201227B3C00120122643D001201A4
:1008430022DA3E001201225E3F00120122DADC02AC
:10085300120122E4DC0212012227DD0212012242EC
:10086300DD02120122D2DD02120122FADD0212019F
:100873002237DE021201226EDE0212012297DE020D
:100883001201220CDF0212012221DF0212012236A1
:10089300DF0212012267DF021201227BDF02120153
:1008A30022A0DF02120122DADF0212012206E00295
:1008B30012012292E002120122BDE002120122067D
:1008C300E10212012230E1021201225BE102120174
:1008D30022D4FE021201220080021201222E800283
:1008E3001201227C81021201225C82021201227B0C
:1008F3008202120122F882021201223B83021201B8
:1009030022918402120122528502120122D9870206
:100913001201227A88021201227089021201226DC9
:100923008A02120122C78B02120122528C02120187
:10093300220B8F03120122748F03120122C88F032B
:10094300120122EF8F03120122209003120122834E
:10095300E102120122F0E10212012237E202120146
:10096300224FE3021201224BE4021201222EE5027E
:100973001201228AAE02120122CCAE021201229E81
:10098300AF0212012277B00212012271B1021201E9
:100993002253B202120122BCB20212012272B3022A
:1009A300120122E6B30212012252B4021201227B87
:1009B300B402120122F5B4021201228EB502120111
:1009C30022F3B50212012208B6021201224EB60228
:1009D30012012267B602120122CCB602120122CF03
:1009E300B602120122DBFB0212012203FC021201F6
:1009F3002241FC02120122FFFC0212012266FD02C7
:100A030012012282FD02120122AAFD02120122DA40
:100A1300FD02120122E9FD0212012266FE02120109
:100A2300228CFE02120122C5A501120122A3A701F5
:100A3300120122D5A90112012211AA011201223E9B
:100A4300AA0112012228AB0112012273AB01120188
:100A530022BEAB01120122D0AB0112012210AC0164
:100A630012012245AC0112012293AC01120122C2F0
:100A7300AC01120122E5AC0112012232AD011201D7
:100A830022B7AD01120122D1AF0112012210B2012E
:100A930012012251B201120122F3B30112012234D5
:100AA300B401120122A7B401120122FDB401120103
:100AB3002288EE0112012286EF011201221FF601A4
:100AC30012012240F8011201220BFA0112012273D2
:100AD300FB01120122C53F001201227440001201E2
:100AE30022BA4000120122FA41001201229043006F
:100AF3001201220A4400120122254400120122A0FD
:100B03004400120122FA45001201225A4700120141
:100B130022604800120122C14900120122DA490071
:100B2300120122384A00120122264B0012012259D7
:100B33004B00120122C94B00120122434C00120147
:100B4300228D4C00120122574D001201222C4E001F
:100B53001201220B4F00120122964F0012012204B0
:100B63005000120122785000120122A350001201FA
:100B730022625100120122C75200120122E45200E4
:100B8300120122035300120122F45300120122190D
:100B93005400120122435400120122BE54001201D8
:100BA300221855001201228156001201222F5700EC
:100BB300120122705700120122B4E0011201220235
:100BC300E1011201220EE101120122ECE101120105
:100BD300221DE2011201224EE201120122CEE201A4
:100BE30012012206E30112012258E30112012295A8
:100BF300E301120122B2E501120122D8E701120139
:100C030022C3E901120122ADEB0112012265250085
:100C1300120122C38101120122F38101120122CCAC
:100C23008801120122518A011201224E9001120100
:100C33002236910112012273910112012296910130
:100C4300120122C79101120122D09101120122DA6D
:100C53009101120122C89201120122BE93011201D5
:100C630022A057001201229F5B00120122A55B0004
:100C7300120122E06200120122F96700120122949C
:100C8300F8021201228EF90212012202FA02120163
:100C93002240FA02120122B4FA021201222DFB02AF
:100CA30012012236FB0212012242FB0212012257D9
:100CB300FB0212012295FB02120122ABFB0212017D
:100CC300229DFB01120122AAFB01120122C4FB0196
:100CD30012012203FC0112012241FC01120122A68E
:100CE300FC01120122BBFC01120122C6FC0112010C
:100CF30022D3FC01120122EAFC01120122F8FC01B9
:100D030012012203FD011201220FFD011201221E15
:100D1300FD0112012229FD011201224CFD011201E4
:100D230022F3FD0112012203FE011201221DFE0125
:100D33001201223AFE0112012256FE011201227B08
:100D4300FE0112012286FE011201229BFE01120105
:100D530022AFFE0112012210FF0112012216FF0130
:100D63001201221CFF0112012222FF011201223A69
:100D7300FF011201226DFF011201228AD201120129
:100D8300220ED301120122BDD3011201221CD5016F
:100D93001201223DD70112012229D8011201225E3C
:100DA300D80112012280D8011201222FD901120188
:100DB3002227DB0112012250DB01120122E2DB01B7
:100DC30012012214DC0112012221DC01120122781A
:100DD300DC011201229EDC011201220BDF01120150
:100DE300220EE00112012266E00112012219C40160
:100DF30012012223C5011201220AC6011201221483
:100E0300C60112012236C60112012242C601120195
:100E130022DBC7011201220AC80112012226C901DD
:100E23001201227FC901120122E5CA01120122C463
:100E3300CB0112012220CC011201228DCC0112011F
:100E430022C8CC0112012207CD01120122C0CF0119
:100E5300120122DACF0112012266D001120122749B
:100E6300D001120122CDD001120122DBD0011201E7
:100E7300224ED101120122B2D101120122FCD10171
:100E83001201222299021201224499021201226ABA
:100E93009B021201227F9E02120122979F021201DE
:100EA300224AA0021201222CA1021201225A7E0020
:100EB3001201227F7E00120122F17E00120122E93B
:100EC300BE02120122F2BE02120122FBBE02120175
:100ED30022D2BF0212012283C102120122B9C1022E
:100EE300120122F3C10212012229C202120122635A
:100EF300C20212012297C202120122C3C2021201CC
:100F0300220CC30212012246C3021201228FC30222
:100F1300120122E7C3021201221CC402120122772A
:100F2300C402120122B1C40212012202C50212013B
:100F33002238C50212012272C502120122A0C50283
:100F4300120122C3C5021201221194031201223D90
:100F53009403120122989403120122A29403120112
:100F630022B2940312012286CD0212012290CD02F5
:100F7300120122CECD0212012217CE0212012251FA
:100F8300CE02120122A7CE02120122C8CE02120102
:100F930022D1CE021201221CCF0212012245CF021E
:100FA3001201224FCF02120122BBCF0212012251A2
:100FB300D0021201229BD002120122CBD0021201D5
:100FC3002254D10212012294D102120122CCD10265
:100FD300120122DED102120122FDD10212012206E8
:100FE300D202120122CCD202120122A196031201D3
:100FF300226A9103120122C58903120122FB89038C
:10100300120122318A031201227A8B031201223741
:1010130096031201224D96031201225796031201E1
:1010230022F0E50212012205E602120122B8E602CD
:10103300120122F8E60212012211E70212012245EF
:10104300E70212012292E702120122C6E70212010D
:101053002208E8021201226192031201228A9203FA
:10106300120122B39203120122F59203120122D339
:101073008203120122F88203120122A197031201B3
:1010830022B96C001201226A6E001201226C6F00F9
:10109300120122F56F00120122797000120122B2AF
:1010A3007300120122267400120122177500120127
:1010B300225175001201229175001201224477001A
:1010C300120122977700120122E077001201224ECB
:1010D3007800120122807800120122987800120110
:1010E30022AD7900120122BD7900120122D87A00C3
:1010F300120122FA7A00120122307B00120122D45B
:101103007C00120122137D00120122357E001201A0
:1011130022EDFF021201225897031201229797032F
:10112300120122EAFF01120122C89503120122D8FB
:101133009503120122EA95031201222E960312014E
:1011430022669003120122EB9003120122519103B4
:10115300120122FDFF0112012232980312012225FE
:10116300F502120122B5F50212012233F602120131
:1011730022BCF60212012251F702120122DBF7020E
:10118300120122E5F702120122F4F7021201220AE8
:10119300F8021201221DF8021201227DF802120147
:1011A3002291F802120122BC940312012227950313
:1011B3001201223995031201226E8D03120122BE00
:1011C3008D03120122478E03120122AD8E031201F9
:1011D300227585031201229F85031201226586036E
:1011E300120122408703120122F3B602120122B038
:1011F300B702120122EBB70212012213B802120145
:101203002275B802120122C1B80212012221B902C9
:10121300120122B4B902120122B3BA02120122420C
:10122300BC02120122C5BC021201222CBD02120112
:101233002243BD021201224DBE021201228BBE02C5
:10124300120122D38C021201223B9002120122923C
:101253009002120122B190021201222F9102120177
:1012630022BF9202120122A39302120122AF97021C
:101273001201227F9802120122B28703120122C8AF
:101283008703120122F58703120122B28803120198
:1012930022008903120122808903120122A18903FA
:1012A3001201228FF102120122D4F102120122F162
:1012B300F102120122A7F202120122FAF202120132
:1012C30022D8F302120122ECF402120122E897035E
:1012D300120122149803E066701008A3E066700AF6
:1012E30008A3E066700408A3E06622C3E796080932
:1012F300E7960809E7960809E79622C3E09608A34C
:10130300E09608A3E09608A3E09622C021C3E096E6
:10131300F52108A3E096422108A3E096422108A301
:10132300E09645217001D3D02122080808EAC0E0E5
:10133300EBC0E086F0E7A4FA180986F0E7A42AFADE
:10134300180986F0E7A42AFA180986F0E7A42AFA0E
:101353001986F0E7A4FBE5F02AFA190886F0E7A45A
:101363002BFBE5F03AFA190886F0E7A42BFBE5F02E
:101373003AFA18180986F0E7A4C5F02BFBE43AFA09
:101383001908E7C5F0C6A426F6E5F03BFBE43AFAF4
:101393001886F0E7A4F6E5F00826F6E43B08F6E441
:1013A3003A08F6D0E0FBD0E0FA226016080808C637
:1013B300C313C618C613C618C613C618C613C6D594
:1013C300E0EA227009080808226016181818C6C334
:1013D30033C608C633C608C633C608C633C6D5E007
:1013E300EA22E627F60809E637F60809E637F6089B
:1013F30009E637F622E026F608A3E036F608A3E06E
:1014030036F608A3E036F622E026F008A3E036F02D
:1014130008A3E036F008A3E036F022C3E697F60807
:1014230009E697F60809E697F60809E697F622C350
:10143300E096F008A3E096F008A3E096F008A3E096
:1014430096F022E657F60809E657F60809E657F636
:101453000809E657F622E056F608A3E056F608A375
:10146300E056F608A3E056F622E056F008A3E0564D
:10147300F008A3E056F008A3E056F022E0F608A334
:10148300E0F608A3E0F608A3E0F622E6F008A3E6F8
:10149300F008A3E6F008A3E6F022E0FAA3E0FBA33A
:1014A300E0FCA3E0FD22EAF0A3EBF0A3ECF0A3ED54
:1014B300F022E0F8A3E0F9A3E0FAA3E0FB22E8F0CE
:1014C300A3E9F0A3EAF0A3EBF022CAC0E0E6F0A39D
:1014D30008DAFAD0E0FA22CAC0E0E0A3C582CCC59C
:1014E30082C583CDC583F0A3C582CCC582C583CD18
:1014F300C583DAE6D0E0CA22C3E498F8E499F91286
:10150300153C8026C3E49AFAE49BFBE920E7E91241
:10151300153CE498F8E499F922C3E498F8E499F9BE
:1015230012153CE498F8E499F9C3E49AFAE49BFBB6
:1015330022EB20E7CFE920E7E0B90010BB0008E881
:101543008AF084F8AAF022E4FBC8FA22EB70227B2B
:1015530010C833C8C933C9335007C39AC3DBF280F9
:10156300069A50012ADBEAC833F4C8C933F4C9FA2E
:101573002275F008E4C833C8C933C933C99AC99B73
:101583005004C92AC93BD5F0ECFBC833F4C8E4C9FD
:10159300FA22600D08C6A2E713C618C613C6D5E023
:1015A300F322600C08C6C313C618C613C6D5E0F4ED
:1015B30022700422600D18C6C333C608C633C6D5CD
:1015C300E0F41822254010AF08F540400C15418087
:1015D30008F54040021541D2AF2200C0D02540108B
:1015E300AF08F540500C05418008F5405002054115
:1015F300D2AFD0D0222540F58210AF08F540400C81
:1016030015418008F54040021541D2AF8541832240
:101613002540F582E43541F583222540F8E4354140
:10162300F9222540FAE43541FB222540FCE435410B
:10163300FD22E4732540C582C0E0E54134FFC58344
:10164300C0E0E540C3958224F810AF088583418547
:1016530082408008858341858240D2AFCEF0A3E5E6
:1016630020F0A37821E608F0A3DEFAEFF0A3E581EA
:1016730024FAF8E608F0A3E608F0A3E608F0A308C6
:1016830008E608F0A3E608F0A315811581D0E0FE73
:10169300D0E0F8158115811581E8C0E0EEC0E022A5
:1016A3002540C582C0E0E54134FFC583C0E0E54085
:1016B300C3958224F910AF08858341858240800851
:1016C300858341858240D2AFCEF0A3E520F0A37895
:1016D30021E608F0A3DEFAEFF0A3E58124FBF8E6A8
:1016E30008F0A3E608F0A30808E608F0A3E608F06C
:1016F300A315811581D0E0FED0E0F815811581E8AE
:10170300C0E0EEC0E022854183854082E0A3FEE095
:10171300A3F5207821E0A3F608DFFAE0A3FFE0A316
:10172300C0E0E0A3C0E0E0A3C0E0E0A3C0E0E0A32A
:10173300C0E010AF088582408583418008858240E0
:10174300858341D2AFD083D08202011F8541838537
:101753004082E0A3FEE0A3F5207821E0A3F608DFB2
:10176300FAE0A3FFE0A3C0E0E0A3C0E0E0A3C0E091
:10177300E0A3C0E010AF08858240858341800885DF
:101783008240858341D2AFD083D08222C0D025400E
:10179300C582C0E0E54134FFC583C0E0E540C395A1
:1017A3008224F310AF0885834185824080088583B6
:1017B30041858240D2AFC8F0A3E9F0A3EAF0A3EBDE
:1017C300F0A37921E709F0A3D8FAECF0A3EDF0A395
:1017D300EEF0A3EFF0A3D0E0F0A3D0E0F0A3D0E0CD
:1017E300F0A3E520F0A3E5F0F0A322854183854033
:1017F30082E0C0E0A3E0F9A3E0FAA3E0FBA3782131
:10180300E0F608A3DFFAE0FCA3E0FDA3E0FEA3E01B
:10181300FFA3E0C0E0A3E0C0E0A3E0F5D0A3E0F5C0
:1018230020A3E0A3F5F010AF0885834185824080B3
:1018330008858341858240D2AFD082D083D0E0F83F
:10184300D0E03274048006740280027401C0E0F4B4
:10185300041215F8D0E01214CD227404800474022B
:101863008000CCC0E0EDC0E0E540C39CCCAD41506E
:10187300011D10AF068C408D4180068C408D41D2F6
:10188300AF1214DAD0E0FDD0E0FC22D083D082E99D
:10189300C0E0E493A3C386F0C5F095F0F908E493A0
:1018A300A386F0C5F095F0700BE493A3C3994005AC
:1018B300E9048002A3E475F002A42582F582E5F031
:1018C3003583F583D0E0F9E493A3C0E0E493C0E06B
:1018D30022D083D082ECC0E0EDC0E0E493A3FCE42B
:1018E30093A3FDED4C600D121920EC24FFFCED34A5
:1018F300FFFD80EFE493A3FCE493A3FDED4C600DA7
:1019030012195FEC24FFFCED34FFFD80EFD0E0FD06
:10191300D0E0FCE493A3C0E0E493C0E022C0E0C3C2
:10192300E49396087401939618400FE49366700845
:1019330008740193661870007019A3A3C3E4939607
:10194300087401939618A3A3400DD0E0D0E0D0E033
:10195300021910A3A3A3A3A3A3D0E022C0E0C0F065
:1019630088F0E4936670080874019366187000A801
:10197300F0A3A3700BD0F0D0E0D0E0D0E0021910B8
:07198300A3A3D0F0D0E02285
:10198C0074F51216A3EAFEEBFFEE2434F8EF3400E4
:10199C00F988218922EE2435F582EF3400F583E0B5
:1019AC00F8EE2437F582EF3400F583E0F523EC856F
:1019BC0023F0A4FCAAF08523F0EDA42AFDE82CF872
:1019CC00E43DF97A257B0012153CEA8521828522BB
:1019DC0083F0F8740758F97401B900028004C3331A
:1019EC00D9FCFAE8131313541FF8EE28F8EF34005F
:1019FC00F9E8245DF582E93400F583E05A6008EEDD
:101A0C002434F582EF802CEE2434F582EF3400F58B
:101A1C0083E0C0E0EE2436F582EF3400F583E0F588
:101A2C00F0D0E084A8F0EE28F8EF3400F9E8243880
:101A3C00F582E93400F583E0F97F0402174F74F561
:101A4C001216A3EAFEEBFFEE2434F582EF3400F518
:101A5C0083E0C0E0EE2435F582EF3400F583D0E06E
:101A6C00F08E828F83A3A3A3A3A3A3A3C082C0835E
:101A7C008E828F83A3A3A3A3A3E0F8A3E0F9D08362
:101A8C00D082E0C398F521A3E099F522EE247FF5EE
:101A9C0082EF3400F583E064017069EE2480F582F6
:101AAC00EF3400F583E0F8A3E0F98E828F83A3A3D3
:101ABC00A3A3A3A3A3E0FCA3E0FD8E828F83A3A327
:101ACC00A3A3A3E0FAA3E0FBC3EA9CEB9D5010C3D5
:101ADC00EC98ED99402EC3EA98EB995027800EC3F1
:101AEC00EA98EB994007C3EC98ED9940177CE07DA0
:101AFC0004EEFAEFFB120B6BEE247FF582EF340051
:101B0C00F583E4F0EE2434F8EF3400F9E8FCE9FD59
:101B1C00EE2435F582EF3400F583E0F8EE2437F54A
:101B2C0082EF3400F583E0F523E5218523F0A4F55D
:101B3C0021AAF08523F0E522A42AF522E82521F834
:101B4C00E43522F97A257B0012153CEA8C828D83D0
:101B5C00F0F8740758F97401B900028004C333D942
:101B6C00FCFAE8131313541FF8EE28F8EF3400F9BD
:101B7C00E8245DF582E93400F583E05A6008EE2430
:101B8C0034F582EF802CEE2434F582EF3400F583AB
:101B9C00E0C0E0EE2436F582EF3400F583E0F5F09A
:101BAC00D0E084A8F0EE28F8EF3400F9E82438F5FA
:101BBC0082E93400F583E0F91224A1021A45C082AF
:101BCC00C083854082854183E0F8A3E0F9C3EA9C99
:101BDC00EB9D5010C3EC98ED99401BC3EA98EB9920
:101BEC005014800EC3EA98EB994007C3EC98ED991A
:101BFC004004790180027900D083D08222EAC39C10
:101C0C00FAEB9DFB2274EF1216A39003A6E0640876
:101C1C006005E06407702A9061C8E060249003D4EA
:101C2C00E0F4601DE0F875F003A4C8AAF02AF9747A
:101C3C00D628FE740339FF8E828F83A3A3A3E07092
:101C4C0003021D41906060E0C0E0EE2468F582EF75
:101C5C003400F583D0E0F075254975260575210013
:101C6C00752200E5D914F523E5D95403F52760173F
:101C7C0074036527605CE5236010EE2467F582EF42
:101C8C003400F583E07003021D26900544E06401E6
:101C9C00602AEE2482F582EF3400F583E06004784C
:101CAC000480027800852321E521C398FA95E0FB96
:101CBC00120A398A218B22EA45227005120D5D80A9
:101CCC0074EE2482F582EF3400F583E070048A25EB
:101CDC008B26E5236012852582852683F524E5D99C
:101CEC00F0A31524E52470F6EE2482F582EF34007F
:101CFC00F583E0604474FC2523F523782512184AFB
:101D0C00AC23A927EEFAEFFB120C0774021215DDB7
:101D1C00E97026AA21AB221211BF793D8E828F83E6
:101D2C00A3A3A3A3E0FA7B0012090DEEFAEFFB12BA
:101D3C000B83120C19790080747403652760568527
:101D4C002329752A00782912184AAC25AD26AA2118
:101D5C00AB22120BE374021215DDEE2468F582EF50
:101D6C003400F583E064807004747F8001E0F52515
:101D7C00782512184EE527F525782512184EA9233B
:101D8C00AC21AD229003D4E0FA7B001208D174028E
:101D9C001215DD80139003A6E06408600BAC25AD32
:101DAC0026EEFAEFFB120C73120D6979017F0A0211
:101DBC00174F74F51216A374FC1215C7EAFEEBFF4D
:101DCC008921A2AFE433F522C2AF806AEE2463F816
:101DDC00EF3400F97A007B00A2AFE433F523C2AFF5
:101DEC0088828983E0FCA3E0FDEC4D603A8882890F
:101DFC0083E0FAA3E0FB8A828B83E0FCA3E0FD88FE
:101E0C00828983ECF0A3EDF08A828B83E4F0A3F05B
:101E1C0088828983E0FCA3E0FDEC4D700A888289FE
:101E2C0083A3A3E4F0A3F0E523A2E092AF1211BFC9
:101E3C009004E7E004F0EE2463F582EF3400F583C0
:101E4C00E0F8A3E0F9E849603DEE2463F582EF3455
:101E5C0000F583E02402FAA3E03400FBEA2402F547
:101E6C0023EB3400F524782312184A8A828B83E002
:101E7C00FCA3E0F9EEFAEFFB120BA774021215DDCE
:101E8C00E97003021DD89004E7E060639004E8E079
:101E9C00F89004E7E0C398500C74026521705090E0
:101EAC0004E9E0604A8E828F83A3A3A3A3E085405C
:101EBC0082854183F0A3E4F09004E7E0F874021209
:101ECC001613E8F0A3E4F09004E7E0F89004E6E0E1
:101EDC0028F07402121613AC82AD838540828541C2
:101EEC0083AA82AB8379011208DD9004E7E4F0E564
:101EFC0022A2E092AF74041215DD021A4500000014
:101F0C008542878543C622C0E0C0D0E8C0E0E9C066
:101F1C00E0EAC0E0EBC0E0ECC0E0EDC0E0EEC0E019
:101F2C00C021C022C023C024C082C083C0F0A2AF95
:101F3C00E433FEC2AF759B00906182E0A2E05012C8
:101F4C00E591A2E0500C7591FE740165427003128C
:101F5C001C11E0A2E55051E591A2E5504B7591DFC3
:101F6C009003A6E064076005E064087023740165C3
:101F7C0042703579019003D4E0FA75F003A4CAA835
:101F8C00F028FB74D62AFA74033BFB121DBE801892
:101F9C00E0640D70139003C8E004F064287002E450
:101FAC00F07A00E0F9120D6F906182E0A2E6400336
:101FBC0002205AE591A2E6400302205A7591BF9087
:101FCC0003A6E064057008120C9D120CA980031284
:101FDC000CA3754200120CFDE99003A7F0790012D6
:101FEC000CF1120AE17A017B009003A5E0F9120FC3
:101FFC00C1907803E064427055900548E014F0708D
:10200C004DC2AF12201200784BD0E0F618D0E0F69B
:10201C00E59F540770057522FF800375227FC4C0AD
:10202C00E0784AE6F52108E65522F522740B782172
:10203C001215A5D0E02521F8906270E0A2E740F8D7
:10204C00E8C333906272F0906270E0D2E0F090617D
:10205C0081E0A2E35009E5E9A2E3500375E9F7A397
:10206C00E0A2E75009E591A2E7500375917FEEA23B
:10207C00E092AFD0F0D083D082D024D023D022D025
:10208C0021D0E0FED0E0FDD0E0FCD0E0FBD0E0FAC7
:10209C00D0E0F9D0E0F8D0D0D0E032C0E0C0D0C071
:1020AC0082C083906183E0A2E05009E5BFA2E050BA
:1020BC000375BFFEE0A2E15009E5BFA2E150037534
:1020CC00BFFDE0A2E25009E5BFA2E2500375BFFBE1
:1020DC00E0A2E35009E5BFA2E3500375BFF7E0A20D
:1020EC00E45009E5BFA2E4500375BFEFE0A2E55050
:1020FC0009E5BFA2E5500375BFDFE0A2E65009E594
:10210C00BFA2E6500375BFBFD083D0828088C0E0E9
:10211C00C0D0E8C0E0E9C0E0EAC0E0EBC0E0ECC051
:10212C00E0EDC0E0C0F0E5A7A2E6500FE5A1A2E605
:10213C00500953A7BF75A1BF12217FE5A7A2E55097
:10214C000CE5A1A2E5500653A7DF75A1DFE5A7A218
:10215C00E15009E5A1A2E1500375A1FDE5A7A2E2BA
:10216C00500CE5A1A2E2500653A7FB75A1FBD0F0E1
:10217C0002209074F81216A37542019003A6E06435
:10218C00067015120C378A828B83A3A3A3A3A3A377
:10219C00E0FAA3E0FB120C8BA2AFE433FED2AF90BB
:1021AC0003ACE0640170187A207B009003A5E0F981
:1021BC001210457A207B009003A5E0F9120FC7900E
:1021CC006182E0D2E6F0900545E0602185C643804F
:1021DC00169003ABE064017008E5C654F84405F5AD
:1021EC00C653BEFC121F0C7401654260E4EEA2E003
:1021FC0092AF7F0102174F008E448F45858249852F
:10220C008348854082854183E0CEA3E0CF85498217
:10221C00854883EBC9EAC8EDCBECCA75F010C3E86E
:10222C0033C8E933C9EA33CAEB33CBC3EA9EF5476B
:10223C00EB9FF546B35004AB46AA47EC33CCED33D9
:10224C00CDD5F0DAAE44AF452274ED1216A38A2137
:10225C008B228C238D247413121613782512147F61
:10226C00782179251212EE752901752AC8752B0073
:10227C00752C0050127821792512141E7829792199
:10228C001212EE501680107825792112141E78291E
:10229C0079251212EE40047901800279007F0C023C
:1022AC00174F74ED1216A38A218B228C238D247464
:1022BC0013121613782512147F782579211212EE39
:1022CC0040117821792512141EAA21AB22AC23AD22
:1022DC00248022752900752A00752B00752C017835
:1022EC0029792512141E782979211213E5AA29AB14
:1022FC002AAC2BAD2C80A68A828B837521FF75228C
:10230C00FF7523FF752400782112146C7F040217CB
:10231C004F74F51216A38C828D83782112147F8A48
:10232C00828B837821121432EA2404F8EB3400F9FE
:10233C008C828D83A3A3A3A3E0FCA3E0FD888289F8
:10234C0083C3E09CF0A3E09DF088828983C3E09472
:10235C0020A3E0944E40268A828B837521FF752240
:10236C00FF7523FF7524FF782112140B8A828B834F
:10237C00A3A3A3A3E02420F0A3E0344EF002230394
:10238C0074F51216A3E9FE9004FBE0FAA3E0FBEE51
:10239C00C333F8E433F974DB28F582748039F583A0
:1023AC00E02AF521A3E03BF522782112184A7A4065
:1023BC007B427C0F7D0012220474021215DD8A21EF
:1023CC008B228C238D24741078211213ADAA21AB8F
:1023DC00227F0402174F74F11216A38A258B268CC8
:1023EC00278D28740F121613E0FAA3E0FB74111258
:1023FC001613E0F521A3E0F522782112184AEA24FD
:10240C0001F521EB3400F522E4F523F52478257948
:10241C002112132D75217175220278257921121341
:10242C002DAA25AB26AC27AD281222047402121556
:10243C00DD8B22EA452260047A0180027A00EC2AC4
:10244C00FCED3400FD7413121613E0F8A3E0F9E868
:10245C00FEE9FFECF8EDF97A717B0212153C88214C
:10246C0089228E828F83782112148EECF8EDF97A02
:10247C00717B0212153C8A218B227405782112156E
:10248C00B48E828F83A3A3A3A3E521F0A3E522F04E
:10249C007F0802174FC082C083E9906000F0D083A0
:1024AC00D08222C2AF02000022C0E074F212178F59
:1024BC00A2AFE433FED2AFC2C0E5D1A2E4500653C2
:1024CC00D1EF1211A1EEA2E092AF7F010217EEC084
:1024DC00E0C0D0E8C0E0E9C0E0E5A8D2AFC2C7A236
:1024EC00E7A2E792AFD0E0F9D0E0F8D0D0D0E0325C
:1024FC00C0E0C0D0E8C0E0E9C0E0C021C022C0828A
:10250C00C083A2AFE433F9D2AF9009D0E0F8A3E0D6
:10251C00687008539AFBA374018025C2E99009D016
:10252C00E0F52174012521F074502521F582E43465
:10253C0009F583E0F5C19009D0E0C394804002E432
:10254C00F0E9A2E092AFD083D082D022D021D0E0AB
:10255C00F9D0E0F8D0D0D0E03202011FFFFFFFFF2E
:10256C00FFFFFFFF74F7121637E99002E5F07C1DB0
:10257C007D037AFF7BFF1208239002E674FFF0A321
:10258C00F0A3E4F0A3F079051207AB9002E5E0F9B3
:10259C001206D37A417B081209EB7F0102170974EA
:1025AC00F41216378A218B22EB548060309002E5AE
:1025BC00E0F9120FA98A238B24AE23AF24EE4F60CF
:1025CC00138E828F83E064B070031207C3EEFAEFB0
:1025DC00FB120F97AA21E5226480FB80047A007B12
:1025EC00000227C274F212163774FC1215C7EAFEE9
:1025FC00EBFFEE4F60387402121613EEF0A3EF12DD
:10260C002A27ECF0A3ED122A27AA82AB831206CD5F
:10261C00E9F521707374121216131235DBE523459C
:10262C002460658E828F8312269EEE4F7005752175
:10263C000280557A067B001210038A258B26A8256A
:10264C00A926E8497005752113803D88828983E4A9
:10265C001226A8A3A3EEF0A3EF123A74E523F0A37D
:10266C00E524F09002EB1227309002EB6017E0FCAF
:10267C00A3E08003EAFCEBFD8C828D831227307083
:10268C00F38C828D83123500A92174041215DD029E
:10269C003C76A3A3A3A3E0FEA3E0FF22F0A3F08863
:1026AC008289832274F21216378923E975F017A4F4
:1026BC00FEAFF09002EAE4F09002E8122730600AD4
:1026CC001210099002E8E4F0A3F0EEFAEFFB1210FE
:1026DC00038A218B22EA4522602FEEFCEFFD790064
:1026EC00120F859002E8E521F0A3E522F07B008033
:1026FC000812271AE4F0A3F00BEBC3952340F2E584
:10270C00239002EAF0790080027913023C76EB7593
:10271C00F017A4F8A9F09002E8E028FAA3E0398AAF
:10272C0082F58322123296EA4B2274F41216377514
:10273C002100752200740C121613123A48FEE9FFA0
:10274C00800CE5212401F521E5223400F522C3E5B6
:10275C00219CE5229D503285212385222474037807
:10276C00231215B4EA2523F8EB3524F988828983E2
:10277C00A3A3A3A3A3A31235DBEE65237003EF651C
:10278C002470BFE8FAE9FB80047A007B0080277490
:10279C00F41216377900EAA2E0501B752144752219
:1027AC0081782112184A7C047D007A7F7B0D1207F8
:1027BC00A574021215DD7F04021709C082C0839034
:1027CC0002EB1227FA601C88828983A3A3E06A704B
:1027DC0003A3E06B8882898370E8A3A3A3A31232BE
:1027EC009280047A007B00D083D08202011F123DBC
:1027FC0049E8492274EE12163774FC1215C7EAFE2A
:10280C00EBFF854082854183E4F0A3F0EE240212B5
:10281C0034E4EE2405122A15EE2404F527EF122DCC
:10282C00FAE024FE603924FC604624FE605224FE4B
:10283C00605E24FE700302291A24FE7003022992A2
:10284C0024FE70030229A124FE70030229B024FC8B
:10285C0070030229BF24FE70030229CE022A0B90BA
:10286C0003047417F0A3E4122A2F12044B022A0B50
:10287C00854082854183AC82AD831207C90229DB76
:10288C00854082854183AC82AD831207CF0229DB60
:10289C008525218526227402121613AC82AD838500
:1028AC0021828522831232921206F18A258B26AC64
:1028BC0025AD26EC4D6042E4F525F5267825121859
:1028CC004A752504752603782512184A7525057551
:1028DC002603782512184A740812161312186179F7
:1028EC001612328C12080B74081215DDE9F52570DE
:1028FC000B123288120463800F75250185218285A5
:10290C002283122A1D1235008525210229DE74022C
:10291C00121613AC82AD83852582852683123292E2
:10292C001206F18A298B2AAC29AD2AEC4D6043851D
:10293C002582852683A3A3121861752904752A03A1
:10294C00782912184A752905752A03782912184A0C
:10295C007408121613121861791612328C12080BA5
:10296C0074081215DDE9F522700B12328812046915
:10297C00800F752201852582852683122A1D12352A
:10298C0000852221804C854082854183AC82AD83B9
:10299C001207D5803A854082854183AC82AD831283
:1029AC0007DB802B854082854183AC82AD83120787
:1029BC00E1801C854082854183AC82AD831207E7A0
:1029CC00800D854082854183AC82AD831207EDE991
:1029DC00F521E52160298E828F83A3E06414601FAA
:1029EC00852782852883E0900304122A27123D450F
:1029FC00900305123500E521A3122A2F120445EE8F
:102A0C00FAEFFB12076F0233ECF525EF3400F526D5
:102A1C0022123D4985408285418322F08540828582
:102A2C00418322F07C047D0385238285248312322A
:102A3C00962274EE12163774FC1215C78A238B2457
:102A4C008C278D28EA2405F521EB3400F5227C1522
:102A5C007D0079007A047B03120F85E5212402F5B1
:102A6C0025E522122A188540828541838582298595
:102A7C00832A782912184A852182852283A3A3A34D
:102A8C00A3122F4212184AE5212405F529E5223418
:102A9C0000F52A782912184A852582852683123258
:102AAC009C1206EB74061215DD8A298B2AAE29AF0F
:102ABC002AE5232402F523E5241234E7EE4F7003B4
:102ACC00022C048017740212161312329288828917
:102ADC0083EAF0A3EBF0900304E004F0900304E02D
:102AEC00C394054003022C04E4F529F52A78291235
:102AFC00184A7529ED752A02782912184A7529EE9B
:102B0C00752A02782912184A7406121613121861C3
:102B1C007910EEFCEFFD12328C12080B74081215B2
:102B2C00DDE9705E852182852283A3A3A3A3A3A3E1
:102B3C00A3E0F89002EDE0687048122F4212184A98
:102B4C007CEE7D02E5212408FAE5223400FB120F0D
:102B5C007F74021215DDE960298E828F83A3A3A3F3
:102B6C00A3123292900304E0F5297402782912150D
:102B7C00B474052529F5827403352AF583EAF0A38C
:102B8C00EBF0740212161385822985832A78291298
:102B9C00184A740212161312186185258285268331
:102BAC00123D5A1206F774041215DD8A298B2AAECF
:102BBC0029AF2A900304E0F529752A0074027829BC
:102BCC001215B474042529F87403352AF9888289FE
:102BDC0083A31227307003022AC8E82403F8E934CF
:102BEC0000F9EE4F6003022AD18882898374FFF0CA
:102BFC00A3F0900304E004F0900304E0600A1232A6
:102C0C00881204577900800B852182852283123427
:102C1C00F7790A0233EC74EA12163774FE1215C7F0
:102C2C008C2B8D2CEA2405F525EB123EC41226A222
:102C3C00752100752200EA2402F529EB3400F52AEF
:102C4C0085408285418385822385832478231218CD
:102C5C004A852582852683A3A3A3A3122E041218CA
:102C6C004AE5252405F523E5261234E778231218C6
:102C7C004A852582852683123D581206EB7406126E
:102C8C0015DD8A238B24EA45247003022DB5EA2432
:102C9C0004F527EB122DFA1226A28A828B83A3A3AA
:102CAC00A3E0F9852982852A831232921206D9E98A
:102CBC00F5226003022DB5E4F52DF52E782D1218B2
:102CCC004A752DED752E02782D12184A752DEE755C
:102CDC002E02782D12184A740612161312186179E6
:102CEC0013AC23AD24852982852A831232921208D3
:102CFC000B74081215DDE9F5226003022DB5900264
:102D0C00EDE0F8E5217009E02402900305F080174E
:102D1C00900305E0FCE82402FAE43400FBEA6C7052
:102D2C0001EB6003022DB9852182AA82122F3994FE
:102D3C0014122F315073852782852883E0C0E074EC
:102D4C00062A122DF1D0E0F00521852782852883F3
:102D5C00A3E0C0E085212374062523122DF1D0E0D9
:102D6C00F005219002ED122E0412184A7CEE7D0221
:102D7C0085212374062523FA74033400FB120F6D8E
:102D8C0074021215DD9002EDE02521F52174FF6E21
:102D9C00700374FF6F6012EE24010EEF3400FFE538
:102DAC0021C394145003022C4CE521601312317D85
:102DBC00852982852A8312329212045D790080144F
:102DCC00E522700375220A852B82852C83EEF0A3F5
:102DDC00EFF0A92274021215DD7F0E02170985216E
:102DEC002574062525F58274033400F583223400FE
:102DFC00F528852782F58322123A872274EE121663
:102E0C003774FE1215C78C278D28EA2405F525EB9F
:102E1C00122A18752400900304E4F0F523EA240226
:102E2C00F521EB3400F5228049900304E0FA90027E
:102E3C00EDE0F8122F399417122F31400D90030446
:102E4C00E0F87416C3989002EDF0122F4212184A53
:102E5C007CEE7D0274052AFA74033400FB120F6DAC
:102E6C0074021215DD9002EDE0F8900304E028F0F6
:102E7C000523E5252416F582E526122DF5E0F8E567
:102E8C0023C3984003022F1A900304E0C3941650F6
:102E9C007DE523C333F8E433F9E52528FEE526392F
:102EAC00FF854082854183AC82AD838E828F8312F5
:102EBC0032921206F18A298B2AAC29AD2AEC4D707C
:102ECC00057524018043E4F529F52A782912184A5E
:102EDC007529ED752A02782912184A7529EE752A7A
:102EEC0002782912184A74061216131218617916F0
:102EFC0085218285228312329212080B74081215D6
:102F0C00DDE9F5247003022E351234F380107C04B5
:102F1C007D0385218285228312329212046FA924AB
:102F2C0074020233EEE99400C365D03322EA28F828
:102F3C00E43400F9E822E0F529752A007829227496
:102F4C00EA12163774FC1215C78A258B268C2B8D2A
:102F5C002CEA2405F523EB1234E7752100752200C9
:102F6C00E5232402F529E5243400F52A740212160F
:102F7C0013858227858328782712184A8523828512
:102F8C002483A3A3A3A3123A3312184AE5232405DE
:102F9C00F527E5243400F528782712184A8529826C
:102FAC00852A831234ED12328C1206EB740612153C
:102FBC00DD8A278B28AE27AF28E5252402F527E5E7
:102FCC00263400F52880408882898374FFF005211F
:102FDC00122DEA74FFF005219002EDE0F52575261F
:102FEC0000782512184A7CEE7D0285212574062571
:102FFC0025FA74033400FB120F6D74021215DD9068
:10300C0002EDE02521F521EE4F60718E828F83A3B6
:10301C00A3A3E0F98527828528831232921206D960
:10302C00E9F522EE2404122A15E97044E4F52DF595
:10303C002E782D12184A752DED752E02782D12183A
:10304C004A752DEE752E02782D12184A7408121638
:10305C00131218617911EEFCEFFD85278285288308
:10306C0012329212080B74081215DDE9F522602752
:10307C00852582852683123173123500E521700374
:10308C0002315912317D85278285288312329212A2
:10309C000475790002316E852182AA82EA9002EDD4
:1030AC007009E02404900305F08022E0F8900305F9
:1030BC00E0F52DE82404FCE43400FDEC652D7001F2
:1030CC00ED70C0122F399412122F3150B685258213
:1030DC00852683E0C0E074062A122DF1D0E0F005BD
:1030EC0021852582852683A3E0C0E0122DEAD0E05D
:1030FC0012318F858225858326782512184A74040F
:10310C00121613121861852982852A83123D5A12D0
:10311C0006F774041215DD8A258B26AE25AF26859D
:10312C00212574062525F874033400F9EE4F70033D
:10313C00022FD3854082854183E0888289831231B6
:10314C008FA3E0C0E0122DEAD0E0022FE1E522705F
:10315C000375220A8523828524831231731235006C
:10316C00A9227404022DE2123D49852B82852C8301
:10317C0022900305E0F5F0E52184900304F07C0433
:10318C007D0322F005218540828541832274EC1257
:10319C00163774FE1215C78A218B228C278D28EACC
:1031AC002405FEEB3400FF854082854183AC82AD63
:1031BC00838E828F831232921206F18A238B24EE35
:1031CC002418122A15EA452470030232631233D5EF
:1031DC0050328540828541831232921207FF8A2930
:1031EC008B2AEA452A606B7912AC23AD24852182A7
:1031FC00852283123292852982852A83121635E91B
:10320C00F5237058E4F523F524782312184A8E829E
:10321C008F83A3A3E0F523782312184AEE2403121C
:10322C0034E4782312184A8E828F8312329C12084F
:10323C001174061215DDE9F523702185258285268A
:10324C0083E0701F85218285228312329212047BC7
:10325C00801175230E80097523018004E52360031A
:10326C001234F3852582852683E060047900800280
:10327C00A92374021215DD7F0C0217097C047D034F
:10328C0085238285248312329622E0FAA3E0FB2266
:10329C00E0FCA3E0FD852182852283123296227404
:1032AC00EE12163774FE1215C78A218B228C258DCF
:1032BC0026EA2405FEEB3400FF7527008540828545
:1032CC004183AC82AD838E828F831232921206F1CF
:1032DC008A238B24EA452470030233C11233D55060
:1032EC00358540828541831232921207FF8A278BE3
:1032FC0028EA4528605E7912AC23AD2485218285AD
:10330C002283123292852782852883121635E9F59D
:10331C002760030233C48521828522831235DBAA00
:10332C0023FB1207F38A298B2AA829A92AE84970BA
:10333C001E7AFF7BFF1207F38A298B2AA829A92A58
:10334C00E849606C88828983E523F0A3E524F07555
:10335C002300800775270E805F05239002EAE0FAB0
:10336C00E523C39A504AE52375F017A4FAABF0880D
:10337C00828983A3A3E02AFAA3E03BFB8A828B8396
:10338C001234EDEC4D70D27523177524007823128E
:10339C00184AEEFCEFFD120F6D74021215DDEEFCF7
:1033AC00EFFD8521828522831232921204818014D2
:1033BC007527098003752701123D418525828526D5
:1033CC0083123500A927022F2CE5212402F521E5D3
:1033DC00223400F5228A828B83A3A3A3E0A2E522E8
:1033EC0074041215DD7F0A02170974EC1216378C5F
:1033FC00298D2AEA2405F525EB122A18752800EAEE
:10340C002402F523EB1234E7852382F583123292E2
:10341C001207F38A218B22EA452270030234D975F4
:10342C0027008071852582852683E06401704F8E8C
:10343C00828F83A3A31218618E828F83A3A3A3A36D
:10344C00E0F52B752C00782B12184AEE2405F52B81
:10345C00EF3400F52C782B12184A12328C1208110A
:10346C0074061215DDE9F5286014852582852683FE
:10347C00E4F0123D41852982852A831235007C17A0
:10348C007D007900EEFAEFFB120F858E828F83E4BC
:10349C00F0A3F005279002EAE0F8E527C398501E48
:1034AC00E52775F017A4F8A9F0852182852283A35E
:1034BC00A3123ECE1234EDEC4D6003023430852164
:1034CC008285228374FFF0A3F0E528700612328CFB
:1034DC00120487A928023283F523EF3400F5242245
:1034EC00A3E0FCA3E0FD228E828F83123D49852749
:1034FC0082852883E8F0A3E9F022C082C083900281
:10350C00E6E06A7003A3E06B70067AE67B02800447
:10351C007A007B000227F3C082C08378008C828DF6
:10352C0083E06A7003A3E06B7010E875F003A4F8F5
:10353C00A9F0EC28FAED39FB8015088C828D83A359
:10354C00A3A3E06A7003A3E06B60DF7A007B000248
:10355C0027F374F61216371207BD8A828B83E58225
:10356C00458370067A007B008007A3A3A3A31232C5
:10357C0092023BF274F2121637E9FE740E12161315
:10358C001235DB7410121613123A538C828D83E0B1
:10359C0064027036A3123D4FF525A3E0F9A82574FB
:1035AC0002687003742969702175250275260078EC
:1035BC002512184A782112184A782312184AEEF963
:1035CC0012083574061215DD80027901023C76E092
:1035DC00F523A3E0F5242274E812163774FB1215B8
:1035EC00C7E9854082854183F08A2F8B30ECFEED54
:1035FC00FF752900741D121613123D45741D121609
:10360C00131235008E828F83A3A3A3E0A2E4502D66
:10361C00741D1216131232921207FF8A828B83E5E5
:10362C008245837003023A24790AEEFCEFFDAA2F3F
:10363C00AB30121635E9F5296003023A27741F12D4
:10364C001613123A5374211216131235DB7423120B
:10365C001613E0F527A3E0F5288E828F83E0640231
:10366C0060030239D2A3123D45852182852283A3B2
:10367C0085822B85832CEE2406122A158882898359
:10368C00E0FAA3E0F9EA2400F52DE439F52E782DC3
:10369C001218D4010000280128C736070002288C14
:1036AC00370328F9360029C3380129EE3802298F4F
:1036BC00380329C33804296D39D239E527452860E8
:1036CC00030239CD852582852683123A48FAE9FB17
:1036DC008A828B83E0852382852483123A7E12189A
:1036EC004A8A828B83A3E0FCA3E0023957E5274585
:1036FC002860030239CD8523828524837401F0125E
:10370C003A5B852182852283F07C007D008E828F3E
:10371C0083A3A3A3A3E02401FAA3E03400FB1206C5
:10372C00F1EA4B60418A828B83E02402F885238284
:10373C00852483E028F0EA2404F8EB3400F988822D
:10374C008983E0852B82852C83123A90123A7E1263
:10375C00184A8A828B831234ECE5212403FAE52281
:10376C003400FB02395C852382852483E02404F039
:10377C007C047D007900AA2BAB2C120F85023A2712
:10378C00E527452860030239CD123A5BFEA3E0FF22
:10379C008523828524837404F0EE8521828522831F
:1037AC00F0EF852B82852C83F07403121613AC82F8
:1037BC00AD83EEFAEFFB1206F18A258B26EA45263D
:1037CC0070030238708A828B83A3A312269E740125
:1037DC00121613858227858328782712184A7405B8
:1037EC001216131218617CFF7DFF1206F774041277
:1037FC0015DD8B28EA4528703385258285268312B2
:10380C003A3312184A852582852683A31218617CC7
:10381C00027D007A9A7B8112052374041215DDE96E
:10382C00700A740112161374FFF0A3F08E828F834A
:10383C00E064027039752502752600782512184A45
:10384C008E828F831234ECE5212404FAE5223400B5
:10385C00FB120F6D74021215DD852382852483E023
:10386C00240280097401121613EEF0A3EFF0740118
:10387C00121613123A44F07401121613A3123A3CA6
:10388C000239C7E527452860030239CD8525828595
:10389C0026831234EDAA2FAB30120829852382859A
:1038AC0024837402F0EA852182852283F0852B82A1
:1038BC00852C83EB0239CAE527452860030239CDF4
:1038CC00123A5BF8A3E0F98523828524837402F015
:1038DC00E8852182852283F0E9852B82852C830261
:1038EC0039CA852582852683123292120F67EAFC2B
:1038FC008C82A882C39527E49528405FE8652770E1
:10390C0002E52870047C008022854082854183E09A
:10391C00FAE5272AFAE5283400FBC3EA98EB940071
:10392C005003E08005E527CCC39CFCEC8523828505
:10393C002483F08C23752400782312184A85258261
:10394C00852683E02527FCA3E03528FDAA21AB22A0
:10395C00120F6D74021215DD023A27752907023A0F
:10396C0027E5274528705A852582852683123D45F3
:10397C0085238285248374071226AA123A3C1226C8
:10398C00AAA3E0852B82852C83F0E82402FAE93483
:10399C0000FB8A828B83123A3C123A6B123A44A394
:1039AC00123A74123A4DF0E82405F8E93400F9881B
:1039BC00828983123A4DA3123A90A3A3A3A3F08059
:1039CC005A75290B8055741D121613123292120758
:1039DC00BD8A828B83E5824583603D123D458825F7
:1039EC008926E845266031782712184A7823121860
:1039FC004A782112184A7406121613E0F9EEFCEFFD
:103A0C00FDAA2FAB308525828526831216357406C8
:103A1C001215DDE9F529800375290EA92974051203
:103A2C0015DD7F10021709E0F5277528007827228D
:103A3C00E085218285228322123A9A22123D49E89E
:103A4C0022123A9AA3A322E0F521A3E0F5222285C3
:103A5C002582852683E0F8A3E0F5838882E022A303
:103A6C00A3F08A828B83A322F088828983A3A3A3E9
:103A7C00A322F08A828B83123A8722E0F5237524E5
:103A8C0000782322F088828983A3123A9A22E08557
:103A9C002182852283A3A32274EE12163774FE12A0
:103AAC0015C78A238B24ECFAEDFB7414121613E061
:103ABC00F529A3E0F52A7416121613E0FE741812F9
:103ACC001613E0F527A3E0F528854082854183ACE9
:103ADC0082AD831206F18A258B26EA45266049853C
:103AEC0040828541831232921207BD8A828B83E514
:103AFC00824583602FA3A3123A53E521452260240B
:103B0C00782712184A782912184AEEF9AC25AD26F6
:103B1C00AA23AB24852182852283121635740412C4
:103B2C0015DD8006790E80027901022F2C74F612B5
:103B3C00163774FE1215C7740C121613123A4885F8
:103B4C004082854183F07401121613E9F0E4F521EB
:103B5C00F522782112184A752102782112184A741C
:103B6C0004121613858221858322782112184A1299
:103B7C00081174061215DD74021215DD806874F7D5
:103B8C00121637EAFEEBFF89217C1D7D03120829F2
:103B9C00EA5402600BA921EEFAEFFB1206E5800253
:103BAC0079010225A674F612163774FF6A70037435
:103BBC00FF6B70168C828D83123BF7E4F08C828D38
:103BCC0083A3A3A3123BF7A380181207F98A218BB6
:103BDC0022A821A922E849600D8882898374FF12EA
:103BEC0026A8A3A3E4F07F0202170974FFF0A3F048
:103BFC008C828D83A3A32274F61216371207F98ACE
:103C0C00828B83E58245836006A3A3E0FA80027A67
:103C1C00007B0080D174F21216378A218B22ECFEC5
:103C2C00EDFF740E121613E0F5231207F98A258B9B
:103C3C0026A825A926E8497026EEFCEFFD7AFF7B25
:103C4C00FF1207F98A258B26A825A926E8497004B6
:103C5C007911801688828983E521F0A3E522F0880A
:103C6C00828983A3A3E523F079007F0602170974E8
:103C7C00EE121637EAFEEBFF8C218D228925741487
:103C8C00121613123D457416121613123292752623
:103C9C0000E8496003023D39740265256003023D6A
:103CAC00347412121613123D4FFCA3E0F9EC2400ED
:103CBC00F527E439F528EAF4F8EBF4F9EC58F8E5D3
:103CCC002859F9E849705CE5212406F8ED3400F92F
:103CDC00882389248882F583123D5A1208298A295F
:103CEC008B2AE52765297004E528652A6042782728
:103CFC0012184A852382852483123D5A12082F7488
:103D0C00021215DDE9F5267027782712184A85214D
:103D1C0082852283A3A3123D581208477402121500
:103D2C00DD800D752680800875260D800375260BA9
:103D3C00A9260233F18E828F83123D4922E0F8A32B
:103D4C00E0F922123D4988828983E022A3A3E0FC9A
:103D5C00A3E0FDEEFAEFFB2274E812163774E712BB
:103D6C0015C7854082854183EAF0A3EBF08C2F8D3B
:103D7C003089277521007522007431121613E0F575
:103D8C002BA3E0F52C7433121613E0F52DA3E0F5FC
:103D9C002E7435121613E0F528E52275F003A4F8FD
:103DAC00A9F0854082854183123ECEE0F47003A3D6
:103DBC00E0F47003023EB1EE2402F525EF123EC48E
:103DCC00E07003023EB1852F23853024782312182E
:103DDC004AAC2DAD2EAA2BAB2C1207B174021215C6
:103DEC00DD8A238B24EA45247003023EB1E4F529D5
:103DFC00F52A782912184A74061216138582298519
:103E0C00832A782912184A74091216138582298577
:103E1C00832A782912184A852B82852C83A3A3A385
:103E2C00A31218617914AC23AD248E828F831232C5
:103E3C009212080B74081215DDE9706985238285CE
:103E4C002483A3A3A3A3123D4574021216131235A7
:103E5C0000852582852683E0A2E05018A9277402EC
:103E6C00121613AC82AD838E828F8312329212079C
:103E7C0009E94221852582852683E0A2E15026E5C9
:103E8C0028F523782312184EA9277403121613ACA5
:103E9C0082AD838E828F83123292120703740112C9
:103EAC0015DDE942210522E522C394025003023DAF
:103EBC00A5A9217419023A2B3400F526852582F523
:103ECC008322E028FEA3E039FF8E828F832274F2D6
:103EDC00121637EAFEEBFF892474016524600E7418
:103EEC00026524706A7901120A09E97062EEFAEF30
:103EFC00FB1207F38A218B22EA45226047752300C7
:103F0C00800B7C177D007900120F8505239002EA47
:103F1C00E0F8E523C3985021E52375F017A4F8A920
:103F2C00F0852182852283A3A3E028FAA3E039FB44
:103F3C008A828B831227FA70C98521828522837429
:103F4C00FFF0A3F07C1D7D03EEFAEFFB12082302B9
:103F5C003C7674F21216378A218B22ECFEEDFF743C
:103F6C000E1216131235DB900D7DE0F4603D7A09CC
:103F7C007B00120F91EA4B60328A828B8374B1F012
:103F8C00A3E4123A6DA3123A6BA3E521F0A3E52248
:103F9C00123FBAEEF0A3EF123FBAA3A3E523F0A3AE
:103FAC00E524F0900D7DE0F9120F9D023C76F08A2D
:103FBC00828B83A3A3A3A3A322C082C0839061900E
:103FCC007404F0A37448F0A37402F0906180744000
:103FDC00F09061BC7403F09061877419F090626585
:103FEC00741BF0906249E0C3941390619C400A7476
:103FFC0009F090606674018007740DF0906066E4BF
:10400C00F090619A7433F0A37455F09061A0743AF7
:10401C00F0900543E064017009C2919003AA7467A3
:10402C0080059003AA7461F090256EE493906186EC
:10403C00F0902568E493F46027E493540FF89061B2
:10404C0085E0686012E5C654804449F5C6E59E5487
:10405C007F644970F8E8F053C680E59E547F70FA8F
:10406C007905120D510241F3C082C083E5A8F853C3
:10407C00A87E906181E4F0A3F0A3F0C2BA539AFE3B
:10408C00C289759B00C2C275E90075910075BF00AD
:10409C0075A91175B905906181F0A374C0F0A3E402
:1040AC00F0D2BA439A0174805842A80241F3C082FC
:1040BC00C08374F81215C79003A8E0F8A3E0F9E8E0
:1040CC004970030241E89003A8E05440602379084A
:1040DC00854082854183AA82AB83120BC5854082C1
:1040EC00854183AA82AB831208B99003A8E054BF20
:1040FC00F0E054806010790C7A697B05120BC59046
:10410C0003A8E0547FF0E0A2E0503190619A743340
:10411C00F0A37455F09061A0743AF0900543E064FC
:10412C00017009C2919003AA746780059003AA7468
:10413C0061F01208BF9003A8E054FEF0E054026056
:10414C003190619A743FF0A3745AF09061A0747F1F
:10415C00F0900543E064017009D2919003AA747148
:10416C0080059003AA746AF01208BF9003A8E0546B
:10417C00FDF0E05404601390256CE493906186F09C
:10418C001208C59003A8E054FBF0E05408601390AB
:10419C00256DE493906186F01208C59003A8E05455
:1041AC00F7F0E05410601390256EE493906186F064
:1041BC001208C59003A8E054EFF0E05420600A12F6
:1041CC0008C59003A8E054DFF0A3E05401600D1281
:1041DC000AED1208CB9003A9E054FEF074081215F6
:1041EC00DD0241F3F0A3F0D083D08202011F74EC06
:1041FC0012163774F41215C7854082854183AC8240
:10420C00AD8375838175827574041214DA90256CF4
:10421C0093F46003024386907808E0C39402500341
:10422C000243667404121613AC82AD8375838175D8
:10423C00822A74081214DA85408285418385822B88
:10424C0085832C7404121613AC82AD837527FF750D
:10425C0028FF7FFF7E007525487526788015740829
:10426C006E70030242FA74096E70030242FA740A09
:10427C006E607B852582852683782112147F8C8243
:10428C008D83A922E523C9F8882974187821121383
:10429C00ADE5294521F8C3E098A3E09985258285F1
:1042AC002683782112147F40188C828D83741878A1
:1042BC00211213ADE5294521F8E0C398F8A3E0805D
:1042CC001C741878211213ADE5294521FAE9FB8CF1
:1042DC00828D83E0F8A3E0F9EAC398F8EB99F9C36F
:1042EC00E89527E99528500688278928EEFF0EE5E2
:1042FC00252404F525E5263400F526EEC394135049
:10430C000302426A74FF6527700474FF65286023FA
:10431C008F21740278211215B474482521F582740A
:10432C00783522F583782112147F852B82852C8396
:10433C00E521F0EC2402FCED3400FD852B82852C6C
:10434C0083A385822B85832C740C121613E5826C47
:10435C007003E5836D6003024258752101752200DC
:10436C00782112184A7402121613AC82AD837A5B50
:10437C007B0912114774021215DD740C1215DD7FC6
:10438C000C021709C082C0839061AE7468F0A374EC
:10439C006AF090624574FBF0A304F053F4FD43FE05
:1043AC00029005437401F09061A0E0643A90619A28
:1043BC0070237433F0A37455F09061A0743AF074C8
:1043CC000164017009C2919003AA7467802890035C
:1043DC00AA74618021743FF0A3745AF09061A074A8
:1043EC007FF0740164017009D2919003AA747180FA
:1043FC00059003AA746A0241F27F08021709C08271
:10440C00C0839004F5E06401700A9004FAE0600443
:10441C00790C800279000241F3C082C08375E1F10E
:10442C009004F8E0605B14600914605F146057142A
:10443C00705E120AFF9004EEE0F97AEF7B04120C26
:10444C00D37AD67BBE7C897D8E120D097A557B552D
:10445C007C557D00120CDF9004F9E0F9120CEB791D
:10446C0001120D459004ECE0F8A3E0C82416F58287
:10447C00E83400F5837417F0A3740BF07900024153
:10448C00F3120B0580AF120B0B80AA120B1180A537
:10449C00791280EA74F012163775D90D9004D9E0B0
:1044AC00A2E0E4331313F89004EEE0C4333354C0A9
:1044BC00484401F5D978EC790488828983A3A3A3B5
:1044CC00E0F5D988828983A3A882A983E864F27075
:1044DC0003E9640470E378D9790488828983A3E0C2
:1044EC00F5D988828983A3A882A983E864DF700345
:1044FC00E9640470E575E1959004D9E0F97ADA7B0A
:10450C0004120CD9900D9F74B1F0A3740AF0A3742B
:10451C000DF0A3740CF0A3740DF0A3740CF0A37441
:10452C000DF0A3740CF0A374B7F0A3740AF0A37489
:10453C000DF0A3740CF0A374CFF0A3740AF0900DDB
:10454C00AD740DF0A3740CF0A3740DF0A3740CF007
:10455C00A3740DF0A3740CF0A3740DF0A3740CF001
:10456C00A3740DF0A3740CF0A3740DF0A3740CF0F1
:10457C009004F8E064019004EC7012E0F8A3E0F50C
:10458C00838882A3A37521007522088010E0F8A30C
:10459C00E0F5838882A3A37521047522007523009E
:1045AC0075240078211213F87525FF7526FF7527E1
:1045BC00FF752800782179251214469004ECE0F858
:1045CC00A3E0C8240EF582E83400F5837821121498
:1045DC008E9004ECE0F8A3E0C82414F582E83400D3
:1045EC00F5837413F09003A67402F002440574F77B
:1045FC001216379004FEE02407F5D99004EEE0C4BF
:10460C00333354C0F5D978EC790488828983A3A319
:10461C00A3E0F5D988828983A3A882A983E864F2F0
:10462C007003E9640470E39004FEE0601F78EC7999
:10463C0004FAE82413F582E93400F583E0F5D9880F
:10464C00828983A3A882A9831AEA70E690051EE0EA
:10465C002407F5D99004EEE0C4333354C04404F578
:10466C00D978EC790488828983A3A3A3E0F5D9884F
:10467C00828983A3A882A983E864F27003E96404A5
:10468C0070E390051EE0601F78EC7904FAE824339F
:10469C00F582E93400F583E0F5D988828983A3A8F3
:1046AC0082A9831AEA70E675E195900D9F74BDF0AE
:1046BC00A3740AF0A3740DF0A3740CF0A3740DF0A2
:1046CC00A3740CF0A3740DF0A3740CF0A374B7F0E6
:1046DC00A3740AF0A3740DF0A3740CF0A374CFF0C0
:1046EC00A3740AF0900DAD740DF0A3740CF0A374C8
:1046FC000DF0A3740CF0A3740DF0A3740CF0A37460
:10470C000DF0A3740CF0A3740DF0A3740CF0A3744F
:10471C000DF0A3740CF09004ECE0F8A3E0C8240EA8
:10472C00F582E83400F58374FFF0A3F0A3F0A3F056
:10473C009004ECE0F8A3E0C82414F582E83400F50A
:10474C00837412F09003A67401F0FF02170974F73A
:10475C001216379004FEE02407F5D99004EEE0C45D
:10476C00333354C04402F5D978EC790488828983B8
:10477C00A3A3A3E0F5D988828983A3A882A983E89F
:10478C0064F27003E9640470E39004FEE0601F7847
:10479C00EC7904FAE82413F582E93400F583E0F5AA
:1047AC00D988828983A3A882A9831AEA70E675E165
:1047BC0095900D9F74C9F0A3740AF0A374C9F0A36B
:1047CC00740AF0A374C9F0A3740AF0A374C9F0A31B
:1047DC00740AF0A374C9F0A3740AF0A374C9F0A30B
:1047EC00740AF0A374CFF0A3740AF0900DAD740D9D
:1047FC00F0A3740CF0A3740DF0A3740CF0A3740D5F
:10480C00F0A3740CF0A3740DF0A3740CF0A3740D4E
:10481C00F0A3740CF0A3740DF0A3740CF09004ECE2
:10482C00E0F8A3E0C8240EF582E83400F58374FFA9
:10483C00F0A3F0A3F0A3F09004ECE0F8A3E0C824FC
:10484C0014F582E83400F5837414F09003A6740414
:10485C00F0024B2174F71216379004FEE02407F592
:10486C00D99004EEE0C4333354C04406F5D978EC47
:10487C00790488828983A3A3A3E0F5D988828983EC
:10488C00A3A882A983E864F27003E9640470E3903E
:10489C0004FEE0601F78EC7904FAE82413F582E951
:1048AC003400F583E0F5D988828983A3A882A98393
:1048BC001AEA70E690051EE02407F5D99004EEE0A4
:1048CC00C4333354C04404F5D978EC790488828914
:1048DC0083A3A3A3E0F5D988828983A3A882A983A3
:1048EC00E864F27003E9640470E390051EE0601F55
:1048FC0078EC7904FAE82433F582E93400F583E0A6
:10490C00F5D988828983A3A882A9831AEA70E675EF
:10491C00E195900D9F74C3F0A3740AF0A3740DF08D
:10492C00A3740CF0A3740DF0A3740CF0A3740DF02D
:10493C00A3740CF0A3740DF0A3740CF0A3740DF01D
:10494C00A3740CF0A374CFF0A3740AF0900DAD74A3
:10495C000DF0A3740CF0A3740DF0A3740CF0A374FD
:10496C000DF0A3740CF0A3740DF0A3740CF0A374ED
:10497C000DF0A3740CF0A3740DF0A3740CF0900460
:10498C00ECE0F8A3E0C8240EF582E83400F583745B
:10499C00FFF0A3F0A3F0A3F09004ECE0F8A3E0C8C0
:1049AC002414F582E83400F5837415F09003A67492
:1049BC0003F0024B21C082C0839004ECE0F8A3E02A
:1049CC00C82406F582E83400F583E40241F074F75C
:1049DC001216379003D4E0F875F003A4C8AAF02A95
:1049EC00F974D628F8740339F9E82405FAE9340087
:1049FC00FB8A828B83E0FCA3E0FD88828983A3A3DE
:104A0C00A3A3A3A3A3A3A3ECF0A3EDF088828983B3
:104A1C00A3A3A3A3A3A3A3E024FFF8A3E034FFF96B
:104A2C008A828B83E8F0A3E9F0024B2174F712160B
:104A3C0037EAFEEBFF9061D0E06003024B1575D9AD
:104A4C000E75D90375D904EE248BF582EF3400F57D
:104A5C0083E5822408F8E5833400F9E0F5D9A3E86E
:104A6C0065827003E9658370F2EE2483F582EF347E
:104A7C0000F583E5822404F8E5833400F9E0F5D9E8
:104A8C00A3E865827003E9658370F275E195790896
:104A9C00EE248BFAEF3400FB120BB97904EE24836D
:104AAC00FAEF3400FB120BB97C00EEF8EFF9ECFADC
:104ABC00C3E49AFA95E0FBEE2AFAEF3BFBEA248A70
:104ACC00F582EB3400F583E0C0E0E824AAF582E936
:104ADC003400F583D0E0F00C88828983A3A882A9E6
:104AEC0083ECC3940840C7EE246FF582EF3400F5D5
:104AFC0083E0F8A3E0F9EE2471F582EF3400F5833E
:104B0C00E8F0A3E9F07901800279008008F0EEA2C8
:104B1C00E092AF79007F01021709C082C08375D97A
:104B2C000275D90375D90575E195EA246FF582EB09
:104B3C003400F583E0F8A3E0F9EA2471F582EB3454
:104B4C0000F583E8F0A3E9F079010241F374F61261
:104B5C001637EAFEEBFF9005497406F0752149758E
:104B6C002205782112184A7C017903120C01740277
:104B7C001215DD75D90675D903758249758305E063
:104B8C00F5D9A3E582644E7004E583640570F07575
:104B9C00E1959003A6E06408701EEE246FF582EF99
:104BAC003400F583E0F8A3E0F9EE2471F582EF34DC
:104BBC0000F583E8F0A3E9F07901024E2774F612B0
:104BCC001637EAFEEBFF9061D0E070667801900535
:104BDC0049740BF09003A6E06407701975214975B0
:104BEC002205782112184A7C017903120C017402F7
:104BFC001215DD7805740128F5D975D9037582492C
:104C0C00758305E8FAE0F5D9A31AEA70F875E19511
:104C1C00EE246FF582EF3400F583E0F8A3E0F9EEB3
:104C2C002471F582EF3400F583E8F0A3E9F0790103
:104C3C0080027900024E2774F7121637EAFEEBFF5A
:104C4C0075D90375D90375D90DEE24DDF582EF34D2
:104C5C0000F583E0F5D975E1957904120D0FEE247A
:104C6C006FF582EF3400F583E0F8A3E0F9EE2471E0
:104C7C00F582EF3400F583E8F0A3E9F07901024BFB
:104C8C002174F6121637EAFEEBFF9061D0E0F8744F
:104C9C0080C398FAEE2482F582EF3400F583E0604D
:104CAC0004780480027800E8240BF8EAC3985003D7
:104CBC00024D527D09900549EDF0EE24E2F8EF34F7
:104CCC0000F97A4A7B057C0888828983E08A828B8A
:104CDC0083F088828983A3A882A9838A828B83A389
:104CEC00AA82AB831CEC70E0EE2482F582EF3400D8
:104CFC00F583E0601D752149752205782112184A4B
:104D0C007C097903EEFAEFFB120C0174021215DD2B
:104D1C007D0D74012DF5D975D903758249758305FF
:104D2C008D21E0F5D9A31521E52170F675E1957972
:104D3C0004120D0FEE241DF582EF3400F583E4F020
:104D4C00A3F0790180027900024E2774F61216370F
:104D5C00EAFEEBFF9061D0E0F87480C398FAEE2481
:104D6C0082F582EF3400F583E060047804800278E9
:104D7C0000E82408F8EAC3985003024E2578069000
:104D8C000549740CF09003C3E090054AF09003C4FD
:104D9C00E090054BF09003C5E090054CF09003C6F5
:104DAC00E090054DF09003C7E090054EF0EE2482A4
:104DBC00F582EF3400F583E0601B752149752205FF
:104DCC00782112184A7C067903EEFA120C0174024F
:104DDC001215DD780A740128F5D975D90375824945
:104DEC007583058821E0F5D9A31521E52170F675A9
:104DFC00E1957904120D0FEE246FF582EF3400F576
:104E0C0083E0F8A3E0F9EE2471F582EF3400F5832A
:104E1C00E8F0A3E9F07901800279007F020217091A
:104E2C0074F6121637EAFEEBFF9061D0E0F874804E
:104E3C00C398FAEE2482F582EF3400F583E0600427
:104E4C00780480027800E82404F8EAC3985003023E
:104E5C004F067802900549E8F0EE24F4F582EF3421
:104E6C0000F583E090054AF0EE2482F582EF3400E1
:104E7C00F583E0601B752149752205782112184ACB
:104E8C007C027903EEFA120C0174021215DD78061D
:104E9C00740128F5D975D903758249758305882164
:104EAC00E0F5D9A31521E52170F675E195EE247393
:104EBC00F582EF3400F583E4F0EE247FF582EF34D5
:104ECC0000F583E4F0EE241DF582EF3400F583E465
:104EDC00F0A3F07904120D0FEE240DF582EF3400DF
:104EEC00F583E0F8A3E0F9EE2471F582EF3400F5D8
:104EFC0083E8F0A3E9F0790180027900024E27746F
:104F0C00F61216379061D0E0F87480C398FCEA244E
:104F1C0082F582EB3400F583E0600478048002783B
:104F2C0000E82404F8ECC398405B790290054974BE
:104F3C0007F0EA24F5F582EB3400F583E090054A9E
:104F4C00F0EA2482F582EB3400F583E060187521D9
:104F5C0049752205782112184A7C0209120C017439
:104F6C00021215DD7906740129F5D975D9037582FC
:104F7C0049758305E9F8E0F5D9A318E870F875E1EF
:104F8C0095790180027900024E2774F5121637E9E3
:104F9C00FCA2AFE433F523C2AF7D0080010DEA24FF
:104FAC006EF582EB3400F583E0F8EDC398501A8D62
:104FBC0021EA2521F8EB3400F9E8246AF582E9347A
:104FCC0000F583E06C70D68024EA246EF8EB340094
:104FDC00F9E0FEEA2EFAEB3400FBEA246AF582EBE8
:104FEC003400F583ECF088828983E004F0E523A299
:104FFC00E092AF7F0302170974F6121637A2AFE4E2
:10500C0033FDC2AFEA246EF582EB3400F583E01475
:10501C00F07C0060368C21EA2521F8EB3400F9E8AD
:10502C00246BF582E93400F583E0C0E0E8246AF5EE
:10503C0082E93400F583D0E0F00CEA246EF582EBC3
:10504C003400F583E0F8ECC39840CAEA246DF5828D
:10505C00EB3400F58374FFF0EA2469F582EB34003D
:10506C00F583E4F0EDA2E092AF024E27C082C0833C
:10507C00E5A8F8C2AFEA246AF582EB3400F583E9BF
:10508C00F0EA2469F582EB3400F583E4F0E8A2E75A
:10509C00A2E792AF0241F374F3121637EAFEEBFF6C
:1050AC00ECFAEDFB8A828B83A3A3A3A3E0541FF03D
:1050BC00EE2436F582EF3400F583E4F0F523EEFCB4
:1050CC00EFFD8A828B83E0C0E0EC245DF582ED3449
:1050DC0000F583D0E0F0752400E52333333354F826
:1050EC00F5258A828B83E0F521752200E524782151
:1050FC00121595E521A2E0502FEE2436F8EF34007E
:10510C00F988828983E0F521EE2521F521EF340021
:10511C00F522E5212438F582E5223400F583E525D6
:10512C00F088828983E004F005240525E524C394E6
:10513C000840AF05238A828B83A3AA82AB838C821F
:10514C008D83A3AC82AD83E523C394055003025039
:10515C00CE7F0502170974F71216379003D2E0645C
:10516C000170030252C07A009003D8E0600302522F
:10517C00C07401F0A3E4F0A3F090043804F09004A0
:10518C003DF09003DBE4F0A3F0A3F0A3F09003E573
:10519C0004F090040BE4F09003EEF0A3F0A3F0A362
:1051AC00F0A3F0A3F0A3F0900455F0900449F09014
:1051BC00043E7480F0A3E4F0900444F09004C0F03A
:1051CC00A3F0A3F0A3F0A3F0A3F0A3F0A3F090043A
:1051DC00C9F0900458F09004A8F0A3F0A3F0A3F049
:1051EC00A3F0A3F0A3F0A3F0A3F0A3F09004B4F009
:1051FC009004B6F09004B2F09004CCF0A3F0A3F0BD
:10520C00A3F0A3F0A3F0A3F0A3F078D27903E824E1
:10521C006EF582E93400F58374FFF00A8882898385
:10522C00A3A882A983EAC3940440E37AD27B0378CF
:10523C00E0790488828983E0C0E0EA2461F582EB9E
:10524C003400F583D0E0F088828983A3A882A983F7
:10525C008A828B83A3AA82AB83E864E57003E9643A
:10526C000470D07AD27B0378B9790388828983A3BE
:10527C00E0C0E0EA24E6F582EB3400F583D0E0F000
:10528C0088828983A3A882A9838A828B83A3AA821A
:10529C00AB83E864C17003E9640370CF9003D2E080
:1052AC0004F0640170089003DAE09003D4F07AD62D
:1052BC007B0380047A007B00024B21C082C0839068
:1052CC0003D9E4F09003D8F09003D2F0A3F0A374C8
:1052DC00FFF075E1F10241F3C082C08378007900E0
:1052EC009003D9E0600478D6790388828983A3A3DC
:1052FC00A3A3E0F90241F374F6121637EAFEEBFFB2
:10530C00EE2463F582EF3400F583E0F8A3E0F9E8CE
:10531C004970030253A8EE2463F8EF3400F97A00C5
:10532C007B00A2AFE433F521C2AF88828983E0FC15
:10533C00A3E0FDEC4D603A88828983E0FAA3E0FBA0
:10534C008A828B83E0FCA3E0FD88828983ECF0A346
:10535C00EDF08A828B83E4F0A3F088828983E0FCF1
:10536C00A3E0FDEC4D700A88828983A3A3E4F0A32B
:10537C00F0E521A2E092AF1211BF9004E6E004F038
:10538C009004E7E004F0EE2463F582EF3400F5833B
:10539C00E0F8A3E0F9E84960030253228E828F8380
:1053AC00A3A3A3E0600F8E828F83A3A3A3E4F0904A
:1053BC0003D3E014F09003D2E014F070069003D401
:1053CC0074FFF08E828F83A3A3E4F09004E5E07069
:1053DC000D9003D3E0640170057900120CF1EEFA24
:1053EC00EFFB120C31024E2774F7121637EAFEEB64
:1053FC00FF8E828F83A3A3A3A3E0FA7B0012090D77
:10540C00EEFAEFFB120B83120C19024B21C082C077
:10541C008378B9790388828983A3E4F088828983AD
:10542C00A3A882A983E864C17003E9640370E690C1
:10543C0003BA74010241F274F6121637EAFEEBFF5E
:10544C00EC2403F8ED3400F988218922EC2407F8C8
:10545C00ED3400F9E8FCE9FD8C828D83E0F8A3E0E3
:10546C00F9852182852283E0FAA3E0FB12153CEE3C
:10547C00240DF582EF3400F583E8F0A3E9F08C827B
:10548C008D83E0F8A3E0F9852182852283E0FAA3DD
:10549C00E0FB12153C8B22EA45226013EE240DF53D
:1054AC0082EF3400F583E02401F0A3E03400F00235
:1054BC004E2774F6121637EAFEEBFFEE242EF58219
:1054CC00EF3400F583E0FCA3E0FD780079FAECFA08
:1054DC00EDFB12153CEE246FF582EF3400F583E8FA
:1054EC00F0A3E9F0780079FAECFAEDFB12153C8B9D
:1054FC0022EA45226013EE246FF582EF3400F58327
:10550C00E02401F0A3E03400F0024E2774EC1216F4
:10551C0037EAFEEBFF7414121613782112147F1263
:10552C000CB58A258B268C278D28752902752A00A7
:10553C00752B00752C00782579291213E57529FF38
:10554C00752AFF752BFF78257929121446782512B8
:10555C0018468E828F83E0F8A3E0F5838882A3A39C
:10556C0012149D12225574041215DDE960030256C3
:10557C007C8E828F83E02402F8A3E03400F9E8FAF1
:10558C00E9FB8A828B83782112140B8A828B8375B8
:10559C0021FF7522FF7523FF752400782112146CEE
:1055AC00EE240BF582EF3400F583C082C0838E822B
:1055BC008F83A3A3A3A3A3E02401F8A3E03400F9F1
:1055CC00D083D082E0687003A3E069700579010292
:1055DC00567E8E828F83A3A3A3A3A3A3A3E024014F
:1055EC00F0A3E03400F0EE2473F582EF3400F58381
:1055FC00E064017036EE2474F582EF3400F583E03C
:10560C00F8A3E0F98E828F83A3A3A3A3A3A3A3E0A3
:10561C00687003A3E0697013EE2474F582EF340014
:10562C00F583E02401F0A3E03400F0EE247FF58252
:10563C00EF3400F583E064017036EE2480F582EFE0
:10564C003400F583E0F8A3E0F98E828F83A3A3A343
:10565C00A3A3A3A3E0687003A3E0697013EE2480F6
:10566C00F582EF3400F583E02401F0A3E03400F080
:10567C00790002438B74F6121637E9FEECFFEA242C
:10568C0062F582EB3400F583E06401600302572A73
:10569C009061D0E0F521EA2482F582EB3400F583A9
:1056AC00E060047804800278007480C39521FC9536
:1056BC00E0FDEF28F8E43400F9E82402F8E93400BE
:1056CC00F9EC98ED99A2D265D033404E740A1216BB
:1056DC0013E0F521A3E0F522EA2482F582EB3400F5
:1056EC00F583E06015782112184AEFFCEEF9120CE4
:1056FC000174021215DD74042FFF74012FF5D98E7D
:10570C00D9EF600F852182852283F8E0F5D9A318A3
:10571C00E870F875E195790080067907800279FFC9
:10572C00024E2774F7121637A2AFE433FEC2AF8ACB
:10573C00828B83E0F8A3E0F9E8498A828B83600AC4
:10574C00A3A3E0F8A3E0F5838882ECF0A3EDF08A44
:10575C00828B83A3A3ECF0A3EDF08C828D83E4F019
:10576C00A3024B1974F7121637E96021F88C828D5D
:10577C0083E08A828B83F08C828D83A3AC82AD8391
:10578C008A828B83A3AA82AB8318E870E0ECFAEDD3
:10579C00FB024B2174F4121637907803E0644270CC
:1057AC0055900548E014F0704DC2AF1257BA00780E
:1057BC004BD0E0F618D0E0F6E59F54077005752243
:1057CC00FF800375227FC4C0E0784AE6F52108E625
:1057DC005522F522740B78211215A5D0E02521F85D
:1057EC00906270E0A2E740F8E8C333906272F090E8
:1057FC006270E0D2E0F09003D4E0F47003025B9AA4
:10580C00E0F875F003A4C8AAF02AF974D628FE743F
:10581C000339FFEE2401F582EF3401F583E0F8A3A0
:10582C00E0F9E849601EEE2401F582EF3401F583BE
:10583C00E0FAA3E0FBEE2400F582EF3401F583E0FF
:10584C00F9120FC18E828F83A3A3A3A3A3A3A3E0FA
:10585C00F8A3E0F98E828F83A3A3A3A3A3E8F0A3FC
:10586C00E9F0906054E09003ADF0906055E0900347
:10587C00AEF0906056E09003AFF0906057E090036C
:10588C00B0F0906058E09003B1F0906059E0900354
:10589C00B2F090605AE09003B3F090605BE090033C
:1058AC00B4F090605CE0FC9003B5F090605DE0FBC0
:1058BC009003B6F090605EE0FD9003B7F090605FEF
:1058CC00E0FA9003B8F09003B3E08C212521F8E4C2
:1058DC003400F98D21E82521F8E93400F98B21E811
:1058EC002521F8E93400F98A21E82521FAE9340068
:1058FC00FBEE24F6F582EF3400F583E02AF0A3E00A
:10590C003BF08C21EE24F8F582EF3400F583E02592
:10591C0021F0A3E03400F0EE24FAF582EF3400F528
:10592C0083E02401F0A3E03400F0EE24FEF582EFD6
:10593C003400F583E0F8A3E0F9E849604290600098
:10594C00E0C333FCE433FDE82CF582E93DF583E05C
:10595C002AF0A3E03BF0906000E0FA9003B5E0FC85
:10596C00EAC333FAE433FBE82AF8E93BF9E8244AC2
:10597C00F582E93400F583E02CF0A3E03400F090DC
:10598C0003B3E070119003B6E0700BA3E07007A3B3
:10599C00E07003025A978E828F83A3A3A3A3A3E084
:1059AC00F8A3E0F9EE240DF582EF3400F583E0283E
:1059BC00F8A3E039F9EE240BF582EF3400F583E817
:1059CC00F0A3E9F0EE240FF582EF3400F583E4F058
:1059DC00EE241CF582EF3400F583E06401701EEEBA
:1059EC002420F582EF3400F583E0F8A3E0F9EE24EF
:1059FC001DF582EF3400F583E8F0A3E9F09003AED7
:105A0C00E06052EE241CF582EF3400F5837401F053
:105A1C00EE2469F582EF3400F583E07038EE2473E0
:105A2C00F582EF3400F583E0702BEE247FF582EFE6
:105A3C003400F583E0701EEE2420F582EF3400F57F
:105A4C0083E0F8A3E0F9EE241DF582EF3400F58332
:105A5C00E8F0A3E9F0906062E07003025B4A8E828A
:105A6C008F83E0F8A3E0F9E82406FCE93400FDE8B4
:105A7C002402FAE93400FB120CAF8E828F83E0F81B
:105A8C00A3E0C82412F582E8025B509003B5E060F5
:105A9C003AEE240FF582EF3400F583E4F0EE241C8B
:105AAC00F582EF3400F583E064017040EE2420F5BC
:105ABC0082EF3400F583E0F8A3E0F9EE241DF582C3
:105ACC00EF3400F583E8F0A3E98020EE24FCF582A6
:105ADC00EF3400F583E02401F0A3E03400F0EE2471
:105AEC001DF582EF3400F583E4F0A3F0EE240BF502
:105AFC0082EF3400F583E0F8A3E0F98E828F83A364
:105B0C00A3A3A3A3E0687003A3E0696003025A098E
:105B1C00EE240FF582EF3400F583E060128E828F55
:105B2C0083A3A3A3A3A3E064057002A3E06004799C
