:020000040000FA
:10080000BB96FFFF0A00007C41414141FFFFFFFF13
:10081000FFFFFFFFFFFFFFFFFFFFFFFFFFFFFFFFE8
:10082000000102030405060708090A0BFFFFFFFF8A
:10083000021010021E7BFFFFFFFFFFFFFFFFFFFF05
:10084000FFFFFFFFFFFFFFFFFFFFFFFFFFFFFFFFB8
:10085000FFFFFFFFFFFFFFFFFFFFFF022620FFFF5D
:10086000FFFFFF0225FCFFFFFFFFFFFFFFFFFFFF72
:10087000FFFFFFFFFFFFFFFFFFFFFFFFFFFFFFFF88
:10088000FFFFFF021EEEFFFFFFFFFFFFFFFFFFFF67
:10089000FFFFFFFFFFFFFFFFFFFFFF0225AFFFFF8F
:1008A000FFFFFFFFFFFFFFFFFFFFFF0225D5FFFF59
:1008B000FFFFFF021CE701FF0000B4000028002832
:1008C00000283075A000A000A000A00000080008CB
:1008D000E001F000100010001000100010001000E7
:1008E00050005000500010001000D0070000000021
:1008F00000000F0001000500307507001000010026
:1009000081FF00000000FF422860284828FF020203
:100910000208025000A0000000E803023B8401002E
:10092000001A84023784010000600A022D8401004D
:1009300000B202023784010000610A02298401002A
:1009400000C802023784010000620A022784010005
:1009500000CA02023784010000630A0233840800DF
:1009600000CB02023784010000640A0241840100C6
:1009700000650AFF0100FF20023B84010000FF83A5
:10098000023784010000C90A02438400000000000D
:10099000022F840300001803182E182E182E182E6C
:1009A000182E182E182E182E182E182E182E182E17
:1009B000182EAC30C430A630FFFF0A0953656E73A1
:1009C0006F72546167051250002003020A00020191
:1009D00005544920424C452053656E736F72205474
:1009E000616700D007E803E803E803E803E803BC15
:1009F000320000C232C832CE32DA32D432E032E6CD
:100A000032EC32F23212416363656C2E2044617421
:100A100061000A416363656C2E20436F6E662E0091
:100A20000A0A416363656C2E20506572696F640029
:100A3000023B84010000F683023784010000570B5B
:100A400010D5810100007207022F84030000750792
:100A5000023184010000580B023784010000640B4E
:100A600010E5810300007B07023184010000650B63
:100A7000023784010000720B10F581030000730B34
:100A8000023184010000740B124261726F6D2E20DE
:100A900044617461000A4261726F6D2E20436F6E73
:100AA000662E00024261726F6D2E2043616C696296
:100AB000722E000A0A4261726F6D2E2050657269B3
:100AC0006F6400023B840100000E84023784010041
:100AD00000DA0B1035820100007E07022F8403002C
:100AE000008207023184010000DB0B023784010021
:100AF00000E70B10458203000088070231840100E3
:100B000000E80B023784010000050C106582030029
:100B100000060C023184010000070C02378401003A
:100B200000F50B1055820100008907022F84030095
:100B3000009907023184010000F60B12436F6E6EBC
:100B40002E20506172616D730008436F6E6E2E200F
:100B5000506172616D73205265710008446973635E
:100B60006F6E6E6563742052657100023B840100F4
:100B70000014840237840100008D0C10A58201004E
:100B800000A107022F84030000A70702318401009F
:100B9000008E0C0237840100009B0C10B58202000D
:100BA00000AD070231840100009C0C023784010073
:100BB00000AD0C10C582020000B5070231840100AF
:100BC00000AE0C020202020202020202010D00004B
:100BD000001001023B84010000FC83023784010005
:100BE00000150D022A83010000B6070237840100B8
:100BF00000160D0245840100008E83023784010037
:100C000000170D021F840100009D8302378401003C
:100C100000190D022184010000A180023784010027
:100C2000001A0D022384010000938302378401001F
:100C300000180D022B840100009883023784010004
:100C4000001B0D024984010000B3800237840100BB
:100C5000001C0D0235840100000583023784010069
:100C6000001D0D0225840100001E0D01E803053F53
:100C7000100A124779726F2044617461000A477943
:100C8000726F20436F6E662E000A0A4779726F20DA
:100C9000506572696F6400023B84010000F98302B1
:100CA0003784010000C40D1055810100007A08024C
:100CB0002F840300008008023184010000C50D026A
:100CC0003784010000CF0D10E58003000086080284
:100CD0003184010000D00D023784010000DB0D10CB
:100CE0001581030000DC0D023184010000DD0D03DD
:100CF00080000080700061801248756D69642E204C
:100D000044617461000A48756D69642E20436F6EFA
:100D1000662E000A0A48756D69642E205065726956
:100D20006F6400023B8401000011840237840100DB
:100D3000004A0E1065810100001109022F84030092
:100D40000015090231840100004B0E0237840100B6
:100D500000570E1095810300001B09023184010029
:100D600000580E023784010000650E101582030042
:100D700000660E023184010000670E1254656D702A
:100D80002E2044617461000A54656D702E20436FFB
:100D90006E662E000A1E54656D702E2050657269B5
:100DA0006F6400023B840100001784023784010055
:100DB00000CD0E10D5820100001E09022F84030011
:100DC000002209023184010000CE0E0237840100A6
:100DD00000D90E10E58203000028090231840100C9
:100DE00000DA0E023784010000E60E10F5820300DF
:100DF00000E70E023184010000E80E124D61676EBB
:100E00002E2044617461000A4D61676E2E20436F8D
:100E10006E662E000A0A4D61676E2E20506572695B
:100E20006F6400023B840100000B840237840100E0
:100E3000004D0F1005820100002B09022F840300D2
:100E40000031090231840100004E0F023784010095
:100E500000590F10B58103000037090231840100E9
:100E6000005A0F023784010000660F10A5810300AD
:100E700000670F023184010000680F1C023B8401EF
:100E800000000884023784010000CD0F105080025A
:100E900000003809022F840300003A09023184015E
:100EA00000001383023784010000CD0F1060800220
:100EB00000003909022F8403000040090231840137
:100EC00000002083FFFFFF000130750302010600D0
:100ED0000000000000000000000000000000000012
:100EE0000000000000000000000000FFFF0600807E
:100EF0000CE803104B6579205072657373205374AE
:100F000061746500023B84010000028402378401A1
:100F100000004510023F84000000F709022F8403FF
:100F20000000F80902318401000046100254657384
:100F3000742044617461000A5465737420436F6EB9
:100F400066696700023B8401000005840237840162
:100F500000007E1010F580030000000A02318401B9
:100F600000007F10023784010000891010358103D2
:100F70000000080A0231840100008A10E5C754F815
:100F80004405F5C779012200000080FB120F7CB9EF
:100F90000003020FFAE479447808B800028004F7ED
:100FA00009D8FCE4794C7802B800028004F709D82B
:100FB000FCE4900280788A79088002F0A3D8FCD9FA
:100FC000FA78439008B67A01BA00028007E493A346
:100FD000F608DAF97A097B0A9008B778C6790780AB
:100FE00015E493A3AD82AE838A828B83F0A3AA8299
:100FF000AB838D828E83D8E9D9E77582E97583DB6F
:10100000740712102275828775830F7400121022E4
:1010100075D00075814F754180754202759F000241
:101020000F8CC09FF59FE473D09F22D083D082C0E5
:101030009FE493C0E0740193C0E0740293F59F2293
:10104000E066701008A3E066700A08A3E06670040A
:1010500008A3E06622C3E7960809E7960809E79621
:101060000809E79622C3E09608A3E09608A3E09655
:1010700008A3E09622C021C3E096F52108A3E096DC
:10108000422108A3E096422108A3E0964521700181
:10109000D3D02122080808EAC0E0EBC0E086F0E7E0
:1010A000A4FA180986F0E7A42AFA180986F0E7A43A
:1010B0002AFA180986F0E7A42AFA1986F0E7A4FBB1
:1010C000E5F02AFA190886F0E7A42BFBE5F03AFAD6
:1010D000190886F0E7A42BFBE5F03AFA1818098600
:1010E000F0E7A4C5F02BFBE43AFA1908E7C5F0C60F
:1010F000A426F6E5F03BFBE43AFA1886F0E7A4F6FE
:10110000E5F00826F6E43B08F6E43A08F6D0E0FB02
:10111000D0E0FA22E4CFC0E0E4CEC0E0E4CDC0E00D
:10112000E4CCC0E075F020E626F608E633F608E6E3
:1011300033F608E633F6181818EC33FCED33FDEE01
:1011400033FEEF33FFC3EC9709ED9709EE9709EFF4
:1011500097191919400FFFEC97FC09ED97FD09EE5F
:1011600097FE191906D5F0BFECF709EDF709EEF770
:1011700009EFF7191919D0E0FCD0E0FDD0E0FED05E
:10118000E0FF226016080808C6C313C618C613C6B7
:1011900018C613C618C613C6D5E0EA227009080897
:1011A00008226016181818C6C333C608C633C60806
:1011B000C633C608C633C6D5E0EA22E627F60809D4
:1011C000E637F60809E637F60809E637F622E0269C
:1011D000F608A3E036F608A3E036F608A3E036F6F4
:1011E00022E026F008A3E036F008A3E036F008A3DA
:1011F000E036F022C3E697F60809E697F60809E616
:1012000097F60809E697F622C3E096F008A3E09661
:10121000F008A3E096F008A3E096F022E657F6085F
:1012200009E657F60809E657F60809E657F622E0F8
:1012300056F608A3E056F608A3E056F608A3E056D3
:10124000F622E056F008A3E056F008A3E056F008B6
:10125000A3E056F022E0F608A3E0F608A3E0F608C3
:10126000A3E0F622E6F008A3E6F008A3E6F008A360
:10127000E6F022E0FAA3E0FBA3E0FCA3E0FD22EA13
:10128000F0A3EBF0A3ECF0A3EDF022E0F8A3E0F97B
:10129000A3E0FAA3E0FB22E8F0A3E9F0A3EAF0A3BD
:1012A000EBF022CAC0E0E6F0A308DAFAD0E0FA22B6
:1012B000CAC0E0E0A3C582CCC582C583CDC583F09A
:1012C000A3C582CCC582C583CDC583DAE6D0E0CA8A
:1012D00022C3E498F8E499F91213128026C3E49A21
:1012E000FAE49BFBE920E7E9121312E498F8E49989
:1012F000F922C3E498F8E499F9121312E498F8E497
:1013000099F9C3E49AFAE49BFB22EB20E7CFE920AA
:10131000E7E0B90010BB0008E88AF084F8AAF022E0
:10132000E4FBC8FA22EB70227B10C833C8C933C96A
:10133000335007C39AC3DBF280069A50012ADBEAD6
:10134000C833F4C8C933F4C9FA2275F008E4C833C5
:10135000C8C933C933C99AC99B5004C92AC93BD5E6
:10136000F0ECFBC833F4C8E4C9FA22600D08C6A249
:10137000E713C618C613C6D5E0F322600C08C6C32F
:1013800013C618C613C6D5E0F422700422600D18E7
:10139000C6C333C608C633C6D5E0F41822254110AB
:1013A000AF08F541400C15428008F5414002154256
:1013B000D2AF2200C0D0254110AF08F541500C0536
:1013C000428008F54150020542D2AFD0D0222541DB
:1013D000F58210AF08F541400C15428008F54140F8
:1013E000021542D2AF854283222541F582E435427F
:1013F000F583222541F8E43542F9222541FAE43506
:1014000042FB222541FCE43542FD22E4732541C51F
:1014100082C0E0E54234FFC583C0E0E541C3958268
:1014200024F810AF08858342858241800885834275
:10143000858241D2AFCEF0A3E520F0A37821E60863
:10144000F0A3DEFAEFF0A3E58124FAF8E608F0A3B2
:10145000E608F0A3E608F0A30808E608F0A3E6080B
:10146000F0A315811581D0E0FED0E0F8158115813B
:101470001581E8C0E0EEC0E0222541C582C0E0E56C
:101480004234FFC583C0E0E541C3958224F910AF23
:10149000088583428582418008858342858241D2C6
:1014A000AFCEF0A3E520F0A37821E608F0A3DEFAA2
:1014B000EFF0A3E58124FBF8E608F0A3E608F0A32B
:1014C0000808E608F0A3E608F0A315811581D0E02E
:1014D000FED0E0F815811581E8C0E0EEC0E022857D
:1014E0004283854182E0A3FEE0A3F5207821E0A3BA
:1014F000F608DFFAE0A3FFE0A3C0E0E0A3C0E0E06D
:10150000A3C0E0E0A3C0E0E0A3C0E010AF08858284
:10151000418583428008858241858342D2AFD08352
:10152000D082021028854283854182E0A3FEE0A399
:10153000F5207821E0A3F608DFFAE0A3FFE0A3C0DE
:10154000E0E0A3C0E0E0A3C0E0E0A3C0E010AF088B
:101550008582418583428008858241858342D2AF5E
:10156000D083D08222C0D02541C582C0E0E542347C
:10157000FFC583C0E0E541C3958224F310AF088521
:1015800083428582418008858342858241D2AFC8EB
:10159000F0A3E9F0A3EAF0A3EBF0A37921E709F0C7
:1015A000A3D8FAECF0A3EDF0A3EEF0A3EFF0A3D0F4
:1015B000E0F0A3D0E0F0A3D0E0F0A3E520F0A3E5B5
:1015C000F0F0A322854283854182E0C0E0A3E0F9E8
:1015D000A3E0FAA3E0FBA37821E0F608A3DFFAE09A
:1015E000FCA3E0FDA3E0FEA3E0FFA3E0C0E0A3E0D6
:1015F000C0E0A3E0F5D0A3E0F520A3E0A3F5F01050
:10160000AF08858342858241800885834285824177
:10161000D2AFD082D083D0E0F8D0E032740480061C
:10162000740280027401C0E0F4041213CED0E01200
:1016300012A3227404800474028000CCC0E0EDC0C8
:10164000E0E541C39CCCAD4250011D10AF068C417A
:101650008D4280068C418D42D2AF1212B0D0E0FD97
:10166000D0E0FC22D083D082E9C0E0E493A3C3861B
:10167000F0C5F095F0F908E493A386F0C5F095F075
:10168000700BE493A3C3994005E9048002A3E475B9
:10169000F002A42582F582E5F03583F583D0E0F9E8
:1016A000E493A3C0E0E493C0E022D083D082ECC0F6
:1016B000E0EDC0E0E493A3FCE493A3FDED4C600DEA
:1016C0001216F6EC24FFFCED34FFFD80EFE493A34B
:1016D000FCE493A3FDED4C600D121735EC24FFFCE8
:1016E000ED34FFFD80EFD0E0FDD0E0FCE493A3C03B
:1016F000E0E493C0E022C0E0C3E493960874019351
:101700009618400FE4936670080874019366187089
:10171000007019A3A3C3E49396087401939618A3C9
:10172000A3400DD0E0D0E0D0E00216E6A3A3A3A32F
:10173000A3A3D0E022C0E0C0F088F0E49366700874
:101740000874019366187000A8F0A3A3700BD0F082
:10175000D0E0D0E0D0E00216E6A3A3D0F0D0E022A3
:1017600074F5121479EAFEEBFFEE2434F8EF34003E
:10177000F988218922EE2435F582EF3400F583E0E3
:10178000F8EE2437F582EF3400F583E0F523EC859D
:1017900023F0A4FCAAF08523F0EDA42AFDE82CF8A0
:1017A000E43DF97A257B00121312EA852182852215
:1017B00083F0F8740758F97401B900028004C33348
:1017C000D9FCFAE8131313541FF8EE28F8EF34008D
:1017D000F9E8245DF582E93400F583E05A6008EE0B
:1017E0002434F582EF802CEE2434F582EF3400F5BA
:1017F00083E0C0E0EE2436F582EF3400F583E0F5B7
:10180000F0D0E084A8F0EE28F8EF3400F9E82438AE
:10181000F582E93400F583E0F97F0402152574F5BB
:10182000121479EAFEEBFFEE2434F582EF3400F572
:1018300083E0C0E0EE2435F582EF3400F583D0E09C
:10184000F08E828F83A3A3A3A3A3A3A3C082C0838C
:101850008E828F83A3A3A3A3A3E0F8A3E0F9D08390
:10186000D082E0C398F521A3E099F522EE247FF51C
:1018700082EF3400F583E064017069EE2480F58224
:10188000EF3400F583E0F8A3E0F98E828F83A3A301
:10189000A3A3A3A3A3E0FCA3E0FD8E828F83A3A355
:1018A000A3A3A3E0FAA3E0FBC3EA9CEB9D5010C303
:1018B000EC98ED99402EC3EA98EB995027800EC31F
:1018C000EA98EB994007C3EC98ED9940177CDB7DD3
:1018D00004EEFAEFFB122D76EE247FF582EF340052
:1018E000F583E4F0EE2434F8EF3400F9E8FCE9FD88
:1018F000EE2435F582EF3400F583E0F8EE2437F579
:1019000082EF3400F583E0F523E5218523F0A4F58B
:1019100021AAF08523F0E522A42AF522E82521F862
:10192000E43522F97A257B00121312EA8C828D832A
:10193000F0F8740758F97401B900028004C333D970
:10194000FCFAE8131313541FF8EE28F8EF3400F9EB
:10195000E8245DF582E93400F583E05A6008EE245E
:1019600034F582EF802CEE2434F582EF3400F583D9
:10197000E0C0E0EE2436F582EF3400F583E0F5F0C8
:10198000D0E084A8F0EE28F8EF3400F9E82438F528
:1019900082E93400F583E0F912259B021819C08210
:1019A000C083854182854283E0F8A3E0F9C3EA9CC5
:1019B000EB9D5010C3EC98ED99401BC3EA98EB994E
:1019C0005014800EC3EA98EB994007C3EC98ED9948
:1019D0004004790180027900D083D08222EAC39C3E
:1019E000FAEB9DFB2274EF1214799003A1E06408D6
:1019F0006005E06407702A9061C8E060249003CF1E
:101A0000E0F4601DE0F875F003A4C8AAF02AF974A8
:101A1000D128FE740339FF8E828F83A3A3A3E070C5
:101A200003021B15906060E0C0E0EE2468F582EFD1
:101A30003400F583D0E0F075254475260575210046
:101A4000752200E5D914F523E5D95403F52760176D
:101A500074036527605CE5236010EE2467F582EF70
:101A60003400F583E07003021AFA90053FE0640148
:101A7000602AEE2482F582EF3400F583E06004787A
:101A80000480027800852321E521C398FA95E0FBC4
:101A9000122C3E8A218B22EA45227005122F7A8071
:101AA00074EE2482F582EF3400F583E070048A2519
:101AB0008B26E5236012852582852683F524E5D9CA
:101AC000F0A31524E52470F6EE2482F582EF3400AD
:101AD000F583E0604474FC2523F523782512162055
:101AE000AC23A927EEFAEFFB122E1274021213B3E5
:101AF000E97026AA21AB221236D6793D8E828F83D9
:101B0000A3A3A3A3E0FA7B00122B12EEFAEFFB12C1
:101B10002D8E122E247900807474036527605685FB
:101B20002329752A007829121620AC25AD26AA2172
:101B3000AB22122DEE74021213B3EE2468F582EF7D
:101B40003400F583E064807004747F8001E0F52543
:101B50007825121624E527F5257825121624A923C1
:101B6000AC21AD229003CFE0FA7B00122AD674029A
:101B70001213B380139003A1E06408600BAC25AD91
:101B800026EEFAEFFB122E7E122F8679017F0A02D3
:101B9000152574F512147974FC12139DEAFEEBFFFF
:101BA0008921A2AFE433F522C2AF806AEE2463F844
:101BB000EF3400F97A007B00A2AFE433F523C2AF23
:101BC00088828983E0FCA3E0FDEC4D603A8882893D
:101BD00083E0FAA3E0FB8A828B83E0FCA3E0FD882C
:101BE000828983ECF0A3EDF08A828B83E4F0A3F08A
:101BF00088828983E0FCA3E0FDEC4D700A8882892D
:101C000083A3A3E4F0A3F0E523A2E092AF1236D6BB
:101C10009004E2E004F0EE2463F582EF3400F583F3
:101C2000E0F8A3E0F9E849603DEE2463F582EF3483
:101C300000F583E02402FAA3E03400FBEA2402F575
:101C400023EB3400F52478231216208A828B83E05C
:101C5000FCA3E0F9EEFAEFFB122DB274021213B3FB
:101C6000E97003021BAC9004E2E060639004E3E0DF
:101C7000F89004E2E0C398500C7402652170509013
:101C800004E4E0604A8E828F83A3A3A3A3E085418E
:101C900082854283F0A3E4F09004E2E0F87402123B
:101CA00013E9E8F0A3E4F09004E2E0F89004E1E046
:101CB00028F074021213E9AC82AD8385418285421B
:101CC00083AA82AB837901122AE29004E2E4F0E570
:101CD00022A2E092AF74041213B3021819FFFFFF9F
:101CE0008544878545C622C0E0C0D0E8C0E0E9C091
:101CF000E0EAC0E0EBC0E0ECC0E0EDC0E0EEC0E048
:101D0000C021C022C023C024C082C083C0F0A2AFC3
:101D1000E433FEC2AF759B00906182E0A2E05012F6
:101D2000E591A2E0500C7591FE74016544700312B8
:101D300019E5E0A2E55051E591A2E5504B7591DF20
:101D40009003A1E064076005E064087023740165F6
:101D500044703579019003CFE0FA75F003A4CAA866
:101D6000F028FB74D12AFA74033BFB121B928018F3
:101D7000E0640D70139003C3E004F064287002E483
:101D8000F07A00E0F9122F8C906182E0A2E6400325
:101D9000021E2EE591A2E64003021E2E7591BF9011
:101DA00003A1E064057008122EB4122EC080031245
:101DB0002EBA754400122F1AE99003A2F07900128E
:101DC0002F0E122CEC7A017B009003A0E0F9123167
:101DD000DE907803E064427055900543E014F070A3
:101DE0004DC2AF121DE600784DD0E0F618D0E0F6F7
:101DF000E59F540770057522FF800375227FC4C0DC
:101E0000E0784CE6F52108E65522F522740B78219E
:101E100012137BD0E02521F8906270E0A2E740F831
:101E2000E8C333906272F0906270E0D2E0F09061AB
:101E300081E0A2E35009E5E9A2E3500375E9F7A3C5
:101E4000E0A2E75009E591A2E7500375917FEEA269
:101E5000E092AFD0F0D083D082D024D023D022D053
:101E600021D0E0FED0E0FDD0E0FCD0E0FBD0E0FAF5
:101E7000D0E0F9D0E0F8D0D0D0E032C0E0C0D0C09F
:101E800082C083906183E0A2E05009E5BFA2E050E8
:101E90000375BFFEE0A2E15009E5BFA2E150037562
:101EA000BFFDE0A2E25009E5BFA2E2500375BFFB0F
:101EB000E0A2E35009E5BFA2E3500375BFF7E0A23B
:101EC000E45009E5BFA2E4500375BFEFE0A2E5507E
:101ED00009E5BFA2E5500375BFDFE0A2E65009E5C2
:101EE000BFA2E6500375BFBFD083D0828088C0E018
:101EF000C0D0E8C0E0E9C0E0EAC0E0EBC0E0ECC080
:101F0000E0EDC0E0C0F0E5A7A2E6500FE5A1A2E633
:101F1000500953A7BF75A1BF121F53E5A7A2E550F3
:101F20000CE5A1A2E5500653A7DF75A1DFE5A7A246
:101F3000E15009E5A1A2E1500375A1FDE5A7A2E2E8
:101F4000500CE5A1A2E2500653A7FB75A1FBD0F00F
:101F5000021E6474F81214797544019003A1E064C0
:101F6000067015122E428A828B83A3A3A3A3A3A378
:101F7000E0FAA3E0FB122EA2A2AFE433FED2AF90B0
:101F800003A7E0640170187A207B009003A0E0F9B9
:101F90001232687A207B009003A0E0F91231E490BD
:101FA0006182E0D2E6F0900540E0602185C6458080
:101FB000169003A6E064017008E5C654F84405F5E0
:101FC000C653BEFC121CE07401654460E4EEA2E05E
:101FD00092AF7F01021525FF8E468F4785824B8584
:101FE000834A854182854283E0CEA3E0CF854B8240
:101FF000854A83EBC9EAC8EDCBECCA75F010C3E89B
:1020000033C8E933C9EA33CAEB33CBC3EA9EF54997
:10201000EB9FF548B35004AB48AA49EC33CCED3301
:10202000CDD5F0DAAE46AF472274E912147974F8D0
:1020300012139D854182854283ECF0A3EDF08A2145
:102040008B229003A1E024F7C3940550067521016B
:102050000221C0122E428A238B24AE23AF24EE4FDE
:1020600070030221BDAC21AD2274021213E9AA82D1
:10207000AB83122ED28E828F83A3A37525FF752684
:10208000FF7527FF752800782512122F740212138E
:10209000E97529FF752AFF752BFF752C0078291229
:1020A000122F78257929121055502A78257929126E
:1020B00011F47521017522C875230075240078215B
:1020C00079251210555052852521852622852723F2
:1020D0008528248050752D01752EC8752F00753008
:1020E00000852921852A22852B23852C2478217996
:1020F000251211F4782D7921121055401C752100FC
:10210000752200752300752401782179291211F4B4
:10211000782179251211BB800C752101752200757B
:1021200023007524007409782112119C752519F576
:1021300026F527F528782179251211148E828F83B0
:10214000A3A3A3A3A3A3E0F8A3E0F97AD07B03128F
:10215000131288258926E4F527F528782179251298
:1021600011BB74061213E9E0F8A3E0F97AD07B03FF
:10217000121312E8FA8A25E4F5267821792512103F
:10218000555007782179251211F49003A1E06408D5
:10219000600AE064066005E06405702D75250D7821
:1021A00025792112105540217525F47526FF7527D4
:1021B000FF7528FF782179251211BB800C7521004D
:1021C000752200752300752400854182854283E0D5
:1021D000F8A3E0F583888278211212647408121340
:1021E000B37F1002152574F7121479122EE49005AE
:1021F0003EE064017010906245E4F0A3F053F4F304
:1022000043FE0C5390F3122E90E5C654804449F5DA
:10221000C6E59E547F644970F8906185740FF09014
:10222000053CE0F47002A3E0604E90053DE06008DC
:1022300014601B14602E80407521017522009005EA
:102240003CE0782112138AE521F45280802A75211E
:102250000175220090053CE0782112138AE521F4F3
:102260005290801475210175220090053CE0782180
:1022700012138AE521F452A079007F020215257419
:10228000F7121479E9FEEAFF74016E700C7A807B14
:10229000009003A0E0F91231DE9037FCE493F46083
:1022A00008E493F9122CE0800953C680E59E547F20
:1022B00070FA122E9690053EE064017003122CF81D
:1022C00090053CE0F47002A3E0604B90053DE060B7
:1022D0000814601A14602C803D752101752200904D
:1022E000053CE0782112138AE5214280802875217F
:1022F0000175220090053CE0782112138AE5214205
:1023000090801375210175220090053CE078211220
:10231000138AE52142A0122EE4122E428A218B223A
:10232000A821A922E8496015E5E170FCE82414F52C
:1023300082E93400F583E0F46003E0F5E174016FB5
:10234000700A7A019003A0E0F912323202227A7404
:10235000ED1214798A218B228C238D24741312138D
:10236000E978251212557821792512105575290121
:10237000752AC8752B00752C00501278217925120A
:1023800011F478297921121055501680107825798A
:10239000211211F478297925121055400479018011
:1023A0000279007F0C02152574ED1214798A218BB5
:1023B000228C238D2474131213E978251212557878
:1023C0002579211210554011782179251211F4AA8E
:1023D00021AB22AC23AD248022752900752A00751B
:1023E0002B00752C01782979251211F4782979218F
:1023F0001211BBAA29AB2AAC2BAD2C80A68A828BEA
:10240000837521FF7522FF7523FF75240078211243
:1024100012427F0402152574F51214798C828D8383
:1024200078211212558A828B837821121208EA24AD
:1024300004F8EB3400F98C828D83A3A3A3A3E0FC02
:10244000A3E0FD88828983C3E09CF0A3E09DF0882F
:10245000828983C3E09420A3E0944E40268A828B35
:10246000837521FF7522FF7523FF7524FF782112E4
:1024700011E18A828B83A3A3A3A3E02420F0A3E02D
:10248000344EF00223FD74F5121479E9FE9004F63F
:10249000E0FAA3E0FBEEC333F8E433F9740528F562
:1024A00082748139F583E02AF521A3E03BF5227897
:1024B000211216207A407B427C0F7D00121FD874B7
:1024C000021213B38A218B228C238D24741078215D
:1024D000121183AA21AB227F0402152574F1121474
:1024E000798A258B268C278D28740F1213E9E0FA40
:1024F000A3E0FB74111213E9E0F521A3E0F52278C3
:1025000021121620EA2401F521EB3400F522E4F52E
:1025100023F52478257921121094752171752202F2
:1025200078257921121094AA25AB26AC27AD281264
:102530001FD874021213B38B22EA452260047A0179
:1025400080027A00EC2AFCED3400FD74131213E9CA
:10255000E0F8A3E0F9E8FEE9FFECF8EDF97A717B29
:1025600002121312882189228E828F8378211212FF
:1025700064ECF8EDF97A717B021213128A218B2236
:102580007405782112138A8E828F83A3A3A3A3E5F7
:1025900021F0A3E522F07F08021525C082C083E95F
:1025A000906000F0D083D08222C2AF02000022C02F
:1025B000E074F2121565A2AFE433FED2AFE589A252
:1025C000E05003123580758900C2C5EEA2E092AFDB
:1025D0007F010215C4C0E074F2121565A2AFE433A6
:1025E000FED2AFE58AA2E64006E58AA2E7500312D2
:1025F0003580758A00758A00C2EB80CFC0E0C0D0FC
:10260000E8C0E0E9C0E0E5A8D2AF758B00C2E8A25F
:10261000E7A2E792AFD0E0F9D0E0F8D0D0D0E03236
:10262000C0E0C0D0E8C0E0E9C0E0E5A8D2AFC2C7D2
:10263000754300A2E7A2E792AFD0E0F9D0E0F8D06E
:10264000D0D0E03212102B65C40712102B7CC407C7
:1026500012102BADC40712102BE8C40712102B1256
:10266000C50712102B3CC50712102B53C5071210BB
:102670002B6AC50712102B81C50712102BAAC5079C
:1026800012102BBDC50712102BD3C50712102BE655
:10269000C50712102B0DC60712102BB0CE06121054
:1026A0002BB4CF0612102BECCF0612102B0FD00636
:1026B00012102B1AD00612102B3DD00612102B4CE4
:1026C000D10612102B21D20612102B9CD20612100A
:1026D0002B24D30612102B5FD30612102B96D30691
:1026E00012102B24D40612102BFDD40612102B5DD1
:1026F000D50612102B68D50612102BE7D50612103E
:102700002BEAD50612102BEDD50612102B7CD6061F
:1027100012102B7FD60612102BAFD60612102BD913
:10272000D60612102BC7D70612102B79D806121016
:102730002B38F10612102B60F10612102B8EF106C9
:1027400012102BC5F10612102B23F20612102B6E5D
:10275000F20612102BB9F20612102BF9F206121023
:102760002B3FF30612102B6DF30612102B2AF406E2
:1027700012102B34F40612102B41F40612102B7495
:10278000F40612102B40F50612102B4CF506121011
:102790002B64F50612102B6EF50612102BF6D907D6
:1027A00012102B04DA0712102B1CDA0712102B342C
:1027B000DA0712102BDCCB0512102B88CC05121077
:1027C0002B03CD0512102B24CE0512102B60CE0545
:1027D00012102B09CF0512102BF0CF0512102B541D
:1027E000D10512102BABD10512102B2CD2051210D3
:1027F0002B1CD30512102B69D30512102BEFD30518
:1028000012102B21D40512102B35D60512102B7760
:10281000D60512102B95D60512102B18D7051210BD
:102820002BECD70512102BB4D80512102BEAD806C2
:1028300012102BBDD90612102B66DA0612102BB916
:10284000DA0612102B69DB0612102BF5DB061210CC
:102850002BE1DC0612102B10DD0612102B23DE06F6
:1028600012102B6BDE0612102B40DF0612102B7C91
:10287000DF0612102B98DF0612102B65DB071210F3
:102880002B97A30712102BADA30712102BD3A3076E
:1028900012102BEFA40712102BF9A40712102B2EE5
:1028A000A60712102B26A70712102B11EC061210E8
:1028B0002B41ED0612102B74ED0612102BBEED0607
:1028C00012102B85EF0612102B8BAC0512102BF576
:1028D000AC0512102B54AE0512102B64AE0512106D
:1028E0002B91AE0512102BE8AE0512102B91AF05FF
:1028F00012102B98B00512102B62B10512102BC2CA
:10290000B20512102B05B30512102BAAB305121035
:102910002BF7B30512102B1DB40512102B2BB60587
:1029200012102B30B60512102B35B80512102B8261
:10293000B80512102BF5B80512102B28B905121086
:102940002BCAB90512102B73BA0512102BABBA059E
:1029500012102BAEBA0512102BF6BA0512102B3638
:10296000BB0512102B8DBB0512102B3FB7071210A1
:102970002B57B70712102B9FB70712102BB5B707AD
:1029800012102BFCB70712102B10B90712102B9D39
:10299000B90712102BE8B90712102B00B00412105F
:1029A0002B0CB00412102B47B00412102B8CB00467
:1029B00012102B4CB10412102BD2B10412102B3771
:1029C000B20412102B63B20412102B9CB20412102A
:1029D0002BDAB40412102BBEB60412102BA4B804C8
:1029E00012102BE7B90412102B35BC0412102B4720
:1029F000BD0412102B92BE0412102BA2BF041210A1
:102A00002BBFBF0412102BFABF0412102B1CC004E2
:102A100012102B7FC00412102B40C50412102BD5AE
:102A2000C50412102B26C60412102B4DC60412101A
:102A30002B9FC60412102BBDC60412102B17C704FF
:102A400012102B00C80412102B76C90412102BFA96
:102A5000C90412102BF5F50612102BFFF506121003
:102A60002B42F60612102B5DF60612102BEDF60621
:102A700012102B15F70612102B52F70612102B8985
:102A8000F70612102BB2F70612102B27F8061210B9
:102A90002B3CF80612102B51F80612102B82F80668
:102AA00012102B96F80612102BBBF80612102BF5FD
:102AB000F80612102B21F90612102B59F9061210E4
:102AC0002BD8F90612102B21FA0612102B4BFA06FE
:102AD00012102B76FA0612102BE2FE0512102BAF05
:102AE000B60612102BDDB60612102B2BB8061210EC
:102AF0002B0BB90612102B2AB90612102BA7B906F8
:102B000012102BEAB90612102B40BB0612102B0133
:102B1000BC0612102B88BE0612102B29BF061210FD
:102B20002B1FC00612102B1CC10612102B76C206DA
:102B300012102B01C30612102BA7CF0712102B1057
:102B4000D00712102B64D00712102B8BD007121055
:102B50002BBCD00712102B00800712102B6D8007A2
:102B600012102BB4800712102BCC810712102BC827
:102B7000820712102BAB830712102B78F704121068
:102B80002BBAF70412102B8CF80412102B65F904E1
:102B900012102B5FFA0412102B41FB0412102BAA07
:102BA000FB0412102B60FC0412102BD4FC04121036
:102BB0002B40FD0412102B69FD0412102BE3FD04C1
:102BC00012102B7CFE0412102BE1FE0412102BF6C7
:102BD000FE0412102B3CFF0412102B55FF041210A0
:102BE0002BBAFF0412102BBDFF0412102B66B10785
:102BF00012102B8EB10712102BCCB10712102B8A9A
:102C0000B20712102BF1B20712102B0DB3071210DE
:102C10002B35B30712102B65B30712102B74B307B3
:102C200012102BF1B30712102B17B40712102B7AC6
:102C3000BC0512102B58BE0512102B8AC0051210AD
:102C40002BC6C00512102BF3C00512102BDDC105D9
:102C500012102B28C20512102B73C20512102B85DF
:102C6000C20512102BC5C20512102BFAC205121094
:102C70002B48C30512102B77C30512102B9AC305DE
:102C800012102BE7C30512102B6CC40512102B86F3
:102C9000C60512102BC5C80512102B06C905121047
:102CA0002BA8CA0512102BE9CA0512102B5CCB0504
:102CB00012102BB2CB0512102B9AA90612102B98CA
:102CC000AA0612102B31B10612102B52B3061210A5
:102CD0002B1DB50612102B85B60612102B61CA04E7
:102CE00012102B10CB0412102B3DCB0412102B838F
:102CF000CB0412102BC3CC0412102B59CE0412108B
:102D00002BD3CE0412102BEECE0412102B69CF045D
:102D100012102BC3D00412102B23D20412102B2913
:102D2000D30412102B8AD40412102BA3D404121033
:102D30002B01D50412102BEFD50412102B22D60430
:102D400012102B92D60412102B0CD70412102B56F3
:102D5000D70412102B20D80412102BF5D80412100F
:102D60002BD4D90412102B5FDA0412102BCDDA0405
:102D700012102B41DB0412102B6CDB0412102B2BD6
:102D8000DC0412102B90DD0412102BADDD041210A8
:102D90002BCCDD0412102BBDDE0412102BE2DE045E
:102DA00012102B0CDF0412102B87DF0412102BE102
:102DB000DF0412102B4AE10412102BF8E104121068
:102DC0002B39E20412102BC69B0612102B149C0602
:102DD00012102B209C0612102BFE9C0612102B2F7B
:102DE0009D0612102B609D0612102BE09D061210FE
:102DF0002B189E0612102B6A9E0612102BA79E06F9
:102E000012102BC4A00612102BEAA20612102BD50A
:102E1000A40612102BBFA60612102BFBFF051210E2
:102E20002B78980512102BA8980512102B819F055E
:102E300012102B06A10512102B03A70512102BEB65
:102E4000A70512102B28A80512102B4BA80512104D
:102E50002B7CA80512102B85A80512102B8FA80516
:102E600012102B7DA90512102B73AA0512102B69C5
:102E7000E20412102B68E60412102B6EE604121006
:102E80002BA9ED0412102BC2F20412102BF08C07A8
:102E900012102B868D0712102B9C8D0712102B12EF
:102EA0008E0712102B868E0712102BC48E0712105D
:102EB0002B388F0712102BB18F0712102BBA8F07E8
:102EC00012102BC68F0712102BDB8F0712102B1935
:102ED000900712102B2F900712102B8E90071210B4
:102EE0002B6D840712102B7A840712102B94840701
:102EF00012102BD3840712102B11850712102B767A
:102F0000850712102B8B850712102B968507121040
:102F10002BA3850712102BBA850712102BC8850723
:102F200012102BD3850712102BDF850712102BEE02
:102F3000850712102BF9850712102B1C860712101B
:102F40002BC3860712102BD3860712102BED860792
:102F500012102B0A870712102B26870712102B4BF3
:102F6000870712102B56870712102B6B870712103A
:102F70002B7F870712102BE0870712102BE687079D
:102F800012102BEC870712102BF2870712102B0A56
:102F9000880712102B3D880712102B3EE9051210EE
:102FA0002BC2E90512102B71EA0512102BD0EB058C
:102FB00012102BF1ED0512102BDDEE0512102B1265
:102FC000EF0512102B34EF0512102BE3EF05121052
:102FD0002BDBF10512102B04F20512102B96F205D3
:102FE00012102BC8F20512102BD5F20512102B2C43
:102FF000F30512102B52F30512102BBFF50512101A
:103000002BC2F60512102B1AF70512102BCDDA057C
:1030100012102BD7DB0512102BBEDC0512102BC8AB
:10302000DC0512102BEADC0512102BF6DC05121061
:103030002B8FDE0512102BBEDE0512102BDADF05FA
:1030400012102B33E00512102B99E10512102B788A
:10305000E20512102BD4E20512102B41E3051210E9
:103060002B7CE30512102BBBE30512102B74E60535
:1030700012102B8EE60512102B1AE70512102B28C2
:10308000E70512102B81E70512102B8FE7051210B0
:103090002B02E80512102B66E80512102BB0E8058C
:1030A00012102B82C30612102BA4C30612102BCAB7
:1030B000C50612102BDFC80612102BF7C906121016
:1030C0002BAACA0612102B8CCB0612102B7FC90715
:1030D00012102BA4C90712102B16CA0712102B6846
:1030E000F70512102B71F70512102B7AF705121045
:1030F0002B51F80512102B02FA0512102B38FA0585
:1031000012102B72FA0512102BA8FA0512102BE2DE
:10311000FA0512102B16FB0512102B42FB0512109C
:103120002B8BFB0512102BC5FB0512102B0EFC057B
:1031300012102B66FC0512102B9BFC0512102BF6AF
:10314000FC0512102B30FD0512102B81FD0512100D
:103150002BB7FD0512102BF1FD0512102B1FFE05DC
:1031600012102B42FE0512102B2AFF0612102B56AE
:10317000FF0612102BB1FF0612102BBBFF06121018
:103180002BCBFF0612102B9CE60612102BA6E60690
:1031900012102BE4E60612102B2DE70612102B67F7
:1031A000E70612102BBDE70612102BDEE706121001
:1031B0002BE7E70612102B32E80612102B5BE8060D
:1031C00012102B65E80612102BD1E80612102B679F
:1031D000E90612102BB1E90612102BE1E9061210D4
:1031E0002B6AEA0612102BAAEA0612102BE2EA0654
:1031F00012102BF4EA0612102B13EB0612102B1CE4
:10320000EB0612102BE7EB0612102B35D707121026
:103210002BA2C00712102BD8C00712102B0EC1070B
:1032200012102B57C20712102BCDDA0712102BE306
:10323000DA0712102BEDDA0712102B37DB0712100A
:103240002B5EDC0712102B9EFA0612102BB3FA0627
:1032500012102B63FB0612102BA3FB0612102BBCC3
:10326000FB0612102BF0FB0612102B3DFC06121071
:103270002B71FC0612102BB3FC0612102BB7FE06A6
:1032800012102B1DFF0612102B2CD80712102B55D5
:10329000D80712102B7ED80712102B96D8071210C1
:1032A0002BD8D80712102B00800612102B60820634
:1032B00012102B03860612102B33860612102B07D2
:1032C000870612102B2F880612102BC188061210A9
:1032D0002B23890612102B92890612102B068A06C0
:1032E00012102B758A0612102BE78A0612102B6A11
:1032F0008B0612102BF98B0612102B488C0612101D
:103300002BF68C0612102B48980712102B8D98075D
:1033100012102BB6980712102B3F990712102B8210
:10332000990712102B659A0712102BD49B071210C5
:103330002BBA880712102BFF880712102B28890739
:1033400012102BFE890712102B548A0712102B44DF
:103350008B0712102BB78C0712102BC3AA07121061
:103360002B08AB0712102B25AB0712102BBCAB0799
:1033700012102B0AAC0712102BC0AC0712102BFB3B
:10338000AD0712102B5FB40712102B84B407121074
:103390002BAEB40712102B1BDD0712102B4E840529
:1033A00012102BB2860512102B63880512102B65A4
:1033B000890512102BEE890512102B728A05121046
:1033C0002B978A0512102BD08D0512102B448E05D9
:1033D00012102B358F0512102B6F8F0512102BAF8B
:1033E0008F0512102B62910512102BB5910512104A
:1033F0002BFE910512102B6C920512102B9E92053C
:1034000012102BB6920512102BCB930512102BDB4A
:10341000930512102BF6940512102B189505121017
:103420002B4E950512102BF2960512102B31970595
:1034300012102B53980512102BBE900712102B035D
:10344000910712102B2C910712102BB59107121017
:103450002BF8910712102BDB920712102B4A9407BE
:1034600012102BC1CC0712102BD1CC0712102B0A33
:10347000CD0712102BCCCD0712102B02D107121042
:103480002B37D10712102B54D10712102BCBD10799
:1034900012102BEBD10712102BD5FF0612102BE0C8
:1034A000FF0612102BECFF0612102B1DD90712106D
:1034B0002B2DD90712102B3CD90712102BF0D9074E
:1034C00012102B31D60712102BB6D60712102B1C58
:1034D000D70712102B91C20712102BA5C20712108A
:1034E0002BDFC20712102B34C30712102BCDC307DA
:1034F00012102BF0C30712102BFCC30712102B2F36
:10350000C40712102BA5D30712102BE0D3071210FB
:103510002B4BD40712102B7FD40712102BB5D407D6
:1035200012102BDDD40712102B55D20712102B8945
:10353000D20712102BB2D20712102B29D307121068
:103540002B98D30712102B84BE0712102B9EBE0798
:1035500012102BC6BE0712102BEDBE0712102B88BF
:10356000BF0712102BC8BF0712102B46CE07121030
:103570002B6ECE0712102BE0CE0712102BFACE07BF
:1035800012102B52CF0712102B9BCF0712102B9E1D
:10359000CF0712102B30A70712102B3EA7071210CF
:1035A0002BB7A70712102B84A80712102B3DAA07D0
:1035B00012102B82AA0712102BB0AA0712102B1F71
:1035C000C60712102B25C60712102B6BC607121048
:1035D0002B9FC60712102BB7C60712102B38C70730
:1035E00012102BF4D40712102B3FD50712102B9A70
:1035F000D50712102B08D60712102BF83F00121017
:103600002B4FBC0712102BDABD0712102B3BBE0745
:1036100012102B81BE0712102B0D9C0712102B527B
:103620009C0712102B7B9C0712102B049D07121075
:103630002B479D0712102B2A9E0712102B999F07CC
:1036400012102B83940712102BC8940712102BF121
:10365000940712102B7A950712102BBD95071210A4
:103660002BA0960712102B0F980712102BD29F0732
:1036700012102B17A00712102B40A00712102BC9F5
:10368000A00712102B0CA10712102BEFA10712108C
:103690002B5EA30712102B0DE00612102B4AE0063A
:1036A00012102B66E00612102B2EE10612102B13BF
:1036B000E20612102B72E30612102BDEE306121044
:1036C0002BC4E40612102B4BE50612102B58E6060D
:1036D00012102B24CB0712102B74CB0712102BFDCA
:1036E000CB0712102B63CC0712102B12BA07121043
:1036F0002B3CBA0712102B02BB0712102BDDBB07A5
:1037000012102B00380012102BBD380012102BF8AD
:10371000380012102B20390012102B8239001210A1
:103720002BCE390012102B2E3A0012102BC13A006A
:1037300012102BC03B0012102B4F3D0012102BD249
:103740003D0012102B393E0012102B503E0012107B
:103750002B5A3F0012102B983F0012102BE78D06BA
:1037600012102B47910612102BCF920612102B1F0E
:10377000930612102B36930612102B559306121037
:103780002BD3930612102B63950612102B47960627
:1037900012102B539A0612102B239B0612102BD0BB
:1037A000C70712102B15C80712102B69C807121073
:1037B0002BE7C80712102B46C90712102BBDDC07D8
:1037C00012102B20AE0712102B65AE0712102B9291
:1037D000AE0712102B08AF0712102B43AF071210C1
:1037E0002B19B00712102B2DB10712102B62DD0719
:1037F00012102BE1FF04FFFFFFFFFFFFFFFFFFFFA2
:1038000074F412140D74FC12139D7E00900989E467
:10381000F0900986F07F7D752104752200782112D1
:10382000162074021214037A007B00EFF91234C0E0
:1038300074021213B39083B278211212558541821B
:1038400085428378211210407019900986E0600F3C
:10385000F9123718EFF9123718900986E48001EF52
:10386000F0801885418285428312128BE8494A4BC9
:103870007004EFFE8005EFF91237180FEFC3947F45
:103880004095900986E07026EE7018797D12370613
:103890009009877404F0A3E4F0900989E060197935
:1038A000008017F012371EEEF9123730800AEE60F2
:1038B00004F912371212371E790102397874F7129F
:1038C000140D74FC12139DE9FE854182854283E448
:1038D000F0A3F0A37410F0A3E4F0AC41AD42FAFB06
:1038E00012373C900989E07005EE900986F0740467
:1038F0001213B37F010214DF74F712140D74FC125B
:10390000139D854182854283E4F0A3F0A3F0A3F0E8
:10391000AC41AD42FAFB900986E0F912373C80CE0B
:1039200074F412140D74FF12139D8921900989E01B
:1039300070321234CC7E007F00752301752400782C
:10394000231216207402121403EEFAEFFBA92112BF
:1039500034C074021213B3854182854283E0F4605F
:10396000089009897401F0800B0EEE70010FC3EF0F
:10397000940840C57401800274041213B37F0402DA
:1039800014DF74F412140D74FF12139D89217E004C
:103990007F0075230175240078231216207402120B
:1039A0001403EEFAEFFBA9211234C074021213B310
:1039B000854182854283E0F46007A9211237128095
:1039C0000B0EEE70010FC3EF940840C680A674F48E
:1039D00012140D74FC12139D7EFC7F077521047573
:1039E000220078211216207402121403EEFAEFFB63
:1039F000900986E0F91234C074021213B39083AABE
:103A00007821121255854182854283782112104017
:103A1000700AEE24FCFEEF123AB650C0EE2404F811
:103A2000E43FF9900987E8F0A3E9F002397874F4EB
:103A300012140D74FC12139D8922EAFEEBFF8C21F7
:103A4000EE24FCFEEF123AB640657523047524009F
:103A500078231216207402121403EEFAEFFBA92247
:103A60001234C074021213B374021213E9E0F8A303
:103A7000E0F9854182854283852123E06523700238
:103A8000A3E0700AEEC398FAEF9400FB8025E95496
:103A90008070ADE82404FAE439FBC3EE9AEF9B4052
:103AA0000EEEC398F8EF99F9E824FCFEE980967AC7
:103AB000007B0002397834FFFFC3EE9404EF9400DA
:103AC0002274EC12140D74FC12139D8923EAFEEB90
:103AD000FF8C2485418285428374FFF0A3F0741823
:103AE0001213E9E0F525A3E0F526A8254480F97432
:103AF000021213E9E8F0A3E9F0EE28F521EF3526EC
:103B0000F522AC41AD42AA21FBA92312373C740235
:103B10001213E9123BB012373C7402782512137B62
:103B2000E525F527900989E0705B741A1213E9E026
:103B3000F525A3E0F526852729752A007829121690
:103B400020AC25AD268E298F2A7402782912137B8A
:103B500085232BF52C7409782B12138AE529240070
:103B6000FAE52A352CFB1234C674021213B37827F7
:103B7000121624AC25AD26EEFAEFFBA92312373638
:103B800074011213B3852425E5258541828542837E
:103B9000F0A37480123BB412373C85418285428386
:103BA000123BB012373C74041213B37F0C0214DFC3
:103BB000A3E0547FF0AC41AD42AA21AB22A923225D
:103BC00074EA12140D74F812139D89297526FF7476
:103BD0007D6529700575257E800375257D75230417
:103BE000752400900987E024FCFEA3E0023CC28516
:103BF0004182854283A3E054806003023CB1854149
:103C000082854283852621E065217002A3E070034E
:103C1000023CB1854182854283E0F526FCAA23ABB4
:103C200024A9251237248B22EA45226003023CB1E5
:103C300074021213E9123D46F521EF99F522882D01
:103C4000892E752700752800752B04752C00782B9C
:103C50001216207406121403E5212527FAE52235F1
:103C600028FB900986E0F91234C074021213B37471
:103C700004121403E5232527FAE5243528FBA9259A
:103C800012373CE5272404F527E43528F528C3E559
:103C90002D9527E52E952850AF74021213E9E024E4
:103CA00004F8A3E03400F9E52328F523E52439F5E9
:103CB0002474021213E9123D46F8EF99F9E824FC46
:103CC000FEE9123AB6405B900989E0706F752104F5
:103CD00075220078211216207402121403EEFAEFF6
:103CE000FBA9291234C074021213B38541828542A4
:103CF00083E0F47003A3E0F46003023BEF7402126C
:103D000013E9E0F8A3E0F954806007EE24FCFEEF2D
:103D100080B0E82404F8500109C3EE98EF9950915F
:103D2000801AA925123706900989E0700A90098740
:103D3000E523F0A3E524F0A9291237127408121321
:103D4000B37F0E0214DFE0F8A3E0F9EEC39822740B
:103D5000F012140D74FC12139D89248A218B22EC1D
:103D6000FEEDFF74141213E9E0F5238012E521241F
:103D700004F521E43522F522EE2404FE50010F85DE
:103D8000232574FF2525F52304603D752704752838
:103D90000078271216207402121403AA21AB22A95C
:103DA000241234C074021213B37827121620EEFCCA
:103DB000EFFD74021213FB12319C74021213B3E96B
:103DC00070AB9009897401F074041213B37F080278
:103DD00014DF74F112140D89278A218B22ECFEED79
:103DE000FF900989E0704D75230175240078231236
:103DF00016208A238B247402782312137B8925F5DD
:103E0000267409782512138AE5232400FAE524355F
:103E100026FB1234C674021213B3752301782312E1
:103E20001624EEFCEFFDAA21AB22A9271237367427
:103E3000011213B37F070214DFC082C08312370060
:103E4000E97004790180027900D083D082021028C1
:103E500074F012140D74FF12139D89218A228C2391
:103E60008D24123F4A1237248A258B26AE25AF2691
:103E7000EE4F605475270080427525017526007845
:103E8000251216207402121403EEFAEFFB90098635
:103E9000E0F91234C074021213B385418285428363
:103EA000E0F8852725E5232525F582E43524F583EB
:103EB000E06870140EEE70010F0527E527C3952208
:103EC00040B7E5226527607B852225E5252403F898
:103ED000E43400F97A047B0012130A8827892874D5
:103EE00002782712138A852725852826900987E0DE
:103EF0002525F8A3E03526F9E82404500109C394E8
:103F000001E99408400B12370C900986E0F912374A
:103F10003078231216207825121620123F4A1237C5
:103F20002A74041213B3900989E06004790A801599
:103F3000E5252404F8E43526F9900987E028F0A364
:103F4000E039F079007401023DCAAC21900987E0A4
:103F5000FAA3E0FB900986E0F92274F412140D89AB
:103F6000238A24ECFEEDFFAC23123F4C123724EAE7
:103F70004B60208524217522007821121620EEFC4A
:103F8000EFFD900986E0F91234C074021213B37980
:103F9000008002790A02397D74EC12140DE9FE7476
:103FA000BA29C3941A4004790280488E25E4F52684
:103FB000F527F528740B782512119C900987E0F5F8
:103FC00021A3E0F522E4F523F5249083EA78291271
:103FD00012557821792912109478257921121055DB
:103FE000400F12370C900986E0F9123730790080C3
:103FF00002790A023BABFFFF854387C2AF0210285C
:020000040002F8
:10300000C082C083E9900AC8F002B28F74F712142C
:103010000DE99002E0F07C187D037AFF7BFF122A15
:10302000289002E174FFF0A3F0A3E4F0A3F0790587
:103030001229B09002E0E0F91228D27A467B2A12D7
:103040002BF07F010214DF74F412140D8A218B22FD
:10305000EB548060309002E0E0F91231C68A238B95
:1030600024AE23AF24EE4F60138E828F83E064B0D2
:1030700070031229C8EEFAEFFB1231B4AA21E5223F
:103080006480FB80047A007B0002B25E74F212144A
:103090000D74FC12139DEAFEEBFFEE4F60387402D4
:1030A0001213E9EEF0A3EF12B4C3ECF0A3ED12B4E7
:1030B000C3AA82AB831228CCE9F521707374121273
:1030C00013E912C077E523452460658E828F831251
:1030D000B13AEE4F700575210280557A067B0012D9
:1030E000321A8A258B26A825A926E849700575215C
:1030F00013803D88828983E412B144A3A3EEF0A338
:10310000EF12C510E523F0A3E524F09002E612B11A
:10311000CC9002E66017E0FCA3E08003EAFCEBFD44
:103120008C828D8312B1CC70F38C828D8312BF9C04
:10313000A92174041213B302C712A3A3A3A3E0FE30
:10314000A3E0FF22F0A3F0888289832274F2121494
:103150000D8923E975F017A4FEAFF09002E5E4F0C5
:103160009002E312B1CC600A1232209002E3E4F044
:10317000A3F0EEFAEFFB12321A8A218B22EA4522E3
:10318000602FEEFCEFFD79001231A29002E3E52101
:10319000F0A3E522F07B00800812B1B6E4F0A3F0C2
:1031A0000BEBC3952340F2E5239002E5F079008014
:1031B00002791302C712EB75F017A4F8A9F0900278
:1031C000E3E028FAA3E0398A82F5832212BD32EACD
:1031D0004B2274F412140D752100752200740C1228
:1031E00013E912C4E4FEE9FF800CE5212401F52176
:1031F000E5223400F522C3E5219CE5229D5032856D
:1032000021238522247403782312138AEA2523F8C4
:10321000EB3524F988828983A3A3A3A3A3A312C0B7
:1032200077EE65237003EF652470BFE8FAE9FB8051
:10323000047A007B00802774F412140D7900EAA24E
:10324000E0501B75216475228378211216207C04BE
:103250007D007ACA7B0A1229AA74021213B37F0472
:103260000214DFC082C0839002E612B296601C880E
:10327000828983A3A3E06A7003A3E06B88828983B9
:1032800070E8A3A3A3A312BD2E80047A007B00D014
:1032900083D08202102812C7E5E8492274EE121486
:1032A0000D74FC12139DEAFEEBFF8541828542837B
:1032B000E4F0A3F0EE240212BF80EE240512B4B1B4
:1032C000EE2404F527EF12B896E024FE603924FCC2
:1032D000604624FE605224FE605E24FE700302B34A
:1032E000B624FE700302B42E24FE700302B43D2403
:1032F000FE700302B44C24FC700302B45B24FE7025
:103300000302B46A02B4A79002FF7417F0A3E41298
:10331000B4CB12264A02B4A7854182854283AC828F
:10332000AD831229CE02B477854182854283AC8277
:10333000AD831229D402B477852521852622740213
:103340001213E9AC82AD8385218285228312BD2EC2
:103350001228F08A258B26AC25AD26EC4D6042E480
:10336000F525F52678251216207525FF7526027895
:10337000251216207525007526037825121620744F
:10338000081213E9121637791612BD28122A107482
:10339000081213B3E9F525700B12BD2412266280C2
:1033A0000F75250185218285228312B4B912BF9C35
:1033B00085252102B47A74021213E9AC82AD8385AB
:1033C000258285268312BD2E1228F08A298B2AACED
:1033D00029AD2AEC4D6043852582852683A3A3125F
:1033E00016377529FF752A027829121620752900CB
:1033F000752A03782912162074081213E912163759
:10340000791612BD28122A1074081213B3E9F52296
:10341000700B12BD24122668800F7522018525824B
:1034200085268312B4B912BF9C852221804C854128
:1034300082854283AC82AD831229DA803A8541824B
:10344000854283AC82AD831229E0802B8541828541
:103450004283AC82AD831229E6801C85418285427D
:1034600083AC82AD831229EC800D85418285428335
:10347000AC82AD831229F2E9F521E52160298E8223
:103480008F83A3E06414601F852782852883E090E2
:1034900002FF12B4C312C7E190030012BF9CE521E2
:1034A000A312B4CB122644EEFAEFFB12296E02BE31
:1034B00088F525EF3400F5262212C7E5854182857F
:1034C000428322F085418285428322F07CFF7D0287
:1034D00085238285248312BD322274EE12140D746A
:1034E000FC12139D8A238B248C278D28EA2405F552
:1034F00021EB3400F5227C157D0079007AFF7B02F8
:103500001231A2E5212402F525E52212B4B4854149
:103510008285428385822985832A7829121620850F
:103520002182852283A3A3A3A312B9DE121620E56C
:10353000212405F529E5223400F52A7829121620E0
:1035400085258285268312BD381228EA7406121357
:10355000B38A298B2AAE29AF2AE5232402F523E575
:103560002412BF83EE4F700302B6A08017740212BC
:1035700013E912BD2E88828983EAF0A3EBF0900252
:10358000FFE004F09002FFE0C39405400302B6A000
:10359000E4F529F52A78291216207529E8752A02FA
:1035A00078291216207529E9752A02782912162021
:1035B00074061213E91216377910EEFCEFFD12BDF6
:1035C00028122A1074081213B3E9705E85218285CF
:1035D0002283A3A3A3A3A3A3A3E0F89002E8E06837
:1035E000704812B9DE1216207CE97D02E52124081C
:1035F000FAE5223400FB12319C74021213B3E96025
:10360000298E828F83A3A3A3A312BD2E9002FFE075
:10361000F5297402782912138A74002529F5827419
:1036200003352AF583EAF0A3EBF074021213E9855F
:10363000822985832A782912162074021213E9122E
:10364000163785258285268312C7F61228F674045C
:103650001213B38A298B2AAE29AF2A9002FFE0F514
:1036600029752A007402782912138A74FF2529F813
:103670007402352AF988828983A312B1CC700302BF
:10368000B564E82403F8E93400F9EE4F600302B5AD
:103690006D8882898374FFF0A3F09002FFE004F04C
:1036A0009002FFE0600A12BD241226567900800BBA
:1036B00085218285228312BF93790A02BE8874EA2B
:1036C00012140D74FE12139D8C2B8D2CEA2405F51B
:1036D00025EB12C96012B13E752100752200EA2463
:1036E00002F529EB3400F52A8541828542838582E3
:1036F000238583247823121620852582852683A39B
:10370000A3A3A312B8A0121620E5252405F523E5EE
:103710002612BF83782312162085258285268312E0
:10372000C7F41228EA74061213B38A238B24EA45DD
:1037300024700302B851EA2404F527EB12B896125C
:10374000B13E8A828B83A3A3A3E0F9852982852ACF
:103750008312BD2E1228D8E9F522600302B851E485
:10376000F52DF52E782D121620752DE8752E027880
:103770002D121620752DE9752E02782D1216207443
:10378000061213E91216377913AC23AD248529826A
:10379000852A8312BD2E122A1074081213B3E9F57C
:1037A00022600302B8519002E8E0F8E5217009E0D8
:1037B0002402900300F08017900300E0FCE824024C
:1037C000FAE43400FBEA6C7001EB600302B8558543
:1037D0002182AA8212B9D5941412B9CD50738527CB
:1037E00082852883E0C0E074012A12B88DD0E0F011
:1037F0000521852782852883A3E0C0E085212374E5
:1038000001252312B88DD0E0F005219002E812B80E
:10381000A01216207CE97D0285212374012523FA5C
:1038200074033400FB12318A74021213B39002E85D
:10383000E02521F52174FF6E700374FF6F6012EEB6
:1038400024010EEF3400FFE521C39414500302B6A7
:10385000E8E521601312BC19852982852A8312BDEF
:103860002E12265C79008014E522700375220A85E9
:103870002B82852C83EEF0A3EFF0A92274021213A1
:10388000B37F0E0214DF85212574012525F582748E
:10389000033400F583223400F528852782F583223E
:1038A00012C5232274EE12140D74FE12139D8C2780
:1038B0008D28EA2405F525EB12B4B4752400900296
:1038C000FFE4F0F523EA2402F521EB3400F5228031
:1038D000499002FFE0FA9002E8E0F812B9D5941797
:1038E00012B9CD400D9002FFE0F87416C398900213
:1038F000E8F012B9DE1216207CE97D0274002AFA83
:1039000074033400FB12318A74021213B39002E87C
:10391000E0F89002FFE028F00523E5252416F58263
:10392000E52612B891E0F8E523C398400302B9B642
:103930009002FFE0C39416507DE523C333F8E433CF
:10394000F9E52528FEE52639FF854182854283ACCD
:1039500082AD838E828F8312BD2E1228F08A298B2E
:103960002AAC29AD2AEC4D70057524018043E4F59D
:1039700029F52A78291216207529E8752A0278294E
:103980001216207529E9752A027829121620740664
:103990001213E9121637791685218285228312BD0A
:1039A0002E122A1074081213B3E9F524700302B81A
:1039B000D112BF8F80107CFF7D02852182852283FA
:1039C00012BD2E12266EA924740202BE8AE994004A
:1039D000C365D03322EA28F8E43400F9E822E0F5A0
:1039E00029752A0078292274EA12140D74FC121326
:1039F0009D8A258B268C2B8D2CEA2405F523EB1232
:103A0000BF83752100752200E5232402F529E524F2
:103A10003400F52A74021213E985822785832878F9
:103A200027121620852382852483A3A3A3A312C46F
:103A3000CF121620E5232405F527E5243400F528C8
:103A40007827121620852982852A8312BF8912BD04
:103A5000281228EA74061213B38A278B28AE27AFE0
:103A600028E5252402F527E5263400F5288040883E
:103A700082898374FFF0052112B88674FFF0052156
:103A80009002E8E0F52575260078251216207CE9DD
:103A90007D0285212574012525FA74033400FB126B
:103AA000318A74021213B39002E8E02521F521EE69
:103AB0004F60718E828F83A3A3A3E0F9852782854F
:103AC000288312BD2E1228D8E9F522EE240412B460
:103AD000B1E97044E4F52DF52E782D121620752DE0
:103AE000E8752E02782D121620752DE9752E0278B4
:103AF0002D12162074081213E91216377911EEFCF4
:103B0000EFFD85278285288312BD2E122A107408A6
:103B10001213B3E9F522602785258285268312BC1E
:103B20000F12BF9CE521700302BBF512BC1985275B
:103B30008285288312BD2E122674790002BC0A8564
:103B40002182AA82EA9002E87009E024049003002E
:103B5000F08022E0F8900300E0F52DE82404FCE476
:103B60003400FDEC652D7001ED70C012B9D59412D2
:103B700012B9CD50B6852582852683E0C0E0740158
:103B80002A12B88DD0E0F00521852582852683A3F1
:103B9000E0C0E012B886D0E012BC2B858225858378
:103BA00026782512162074041213E9121637852977
:103BB00082852A8312C7F61228F674041213B38A78
:103BC000258B26AE25AF2685212574012525F87481
:103BD000033400F9EE4F700302BA6F8541828542CB
:103BE00083E08882898312BC2BA3E0C0E012B886F0
:103BF000D0E002BA7DE522700375220A8523828512
:103C0000248312BC0F12BF9CA922740402B87E1236
:103C1000C7E5852B82852C8322900300E0F5F0E533
:103C200021849002FFF07CFF7D0222F00521854176
:103C3000828542832274EC12140D74FE12139D8A45
:103C4000218B228C278D28EA2405FEEB3400FF858A
:103C50004182854283AC82AD838E828F8312BD2EDA
:103C60001228F08A238B24EE241812B4B1EA4524DA
:103C7000700302BCFF12BE715032854182854283BF
:103C800012BD2E122A048A298B2AEA452A606B79F2
:103C900012AC23AD2485218285228312BD2E852975
:103CA00082852A8312140BE9F5237058E4F523F575
:103CB0002478231216208E828F83A3A3E0F5237825
:103CC00023121620EE240312BF8078231216208EB2
:103CD000828F8312BD38122A1674061213B3E9F5C7
:103CE000237021852582852683E0701F85218285AA
:103CF000228312BD2E12267A801175230E8009753B
:103D000023018004E523600312BF8F852582852669
:103D100083E0600479008002A92374021213B37F48
:103D20000C0214DF7CFF7D0285238285248312BD73
:103D30003222E0FAA3E0FB22E0FCA3E0FD85218231
:103D400085228312BD322274EE12140D74FE1213FA
:103D50009D8A218B228C258D26EA2405FEEB3400DA
:103D6000FF752700854182854283AC82AD838E82B8
:103D70008F8312BD2E1228F08A238B24EA452470EB
:103D80000302BE5D12BE71503585418285428312A9
:103D9000BD2E122A048A278B28EA4528605E7912F4
:103DA000AC23AD2485218285228312BD2E852782F6
:103DB00085288312140BE9F527600302BE60852174
:103DC0008285228312C077AA23FB1229F88A298BC5
:103DD0002AA829A92AE849701E7AFF7BFF1229F830
:103DE0008A298B2AA829A92AE849606C88828983B4
:103DF000E523F0A3E524F0752300800775270E80E6
:103E00005F05239002E5E0FAE523C39A504AE523D3
:103E100075F017A4FAABF088828983A3A3E02AFA8D
:103E2000A3E03BFB8A828B8312BF89EC4D70D27575
:103E300023177524007823121620EEFCEFFD1231B3
:103E40008A74021213B3EEFCEFFD85218285228372
:103E500012BD2E1226808014752709800375270154
:103E600012C7DD85258285268312BF9CA92702B94A
:103E7000C8E5212402F521E5223400F5228A828B4F
:103E800083A3A3A3E0A2E52274041213B37F0A0262
:103E900014DF74EC12140D8C298D2AEA2405F52503
:103EA000EB12B4B4752800EA2402F523EB12BF83A9
:103EB000852382F58312BD2E1229F88A218B22EAEE
:103EC0004522700302BF75752700807185258285A4
:103ED0002683E06401704F8E828F83A3A31216376E
:103EE0008E828F83A3A3A3A3E0F52B752C00782BE0
:103EF000121620EE2405F52BEF3400F52C782B124A
:103F0000162012BD28122A1674061213B3E9F528DA
:103F10006014852582852683E4F012C7DD85298219
:103F2000852A8312BF9C7C177D007900EEFAEFFB97
:103F30001231A28E828F83E4F0A3F005279002E570
:103F4000E0F8E527C398501EE52775F017A4F8A9F7
:103F5000F0852182852283A3A312C96A12BF89EC4E
:103F60004D600302BECC85218285228374FFF0A3BD
:103F7000F0E528700612BD28122686A92802BD1F6A
:103F8000F523EF3400F52422A3E0FCA3E0FD228E0C
:103F9000828F8312C7E5852782852883E8F0A3E90D
:103FA000F022C082C0839002E1E06A7003A3E06B5C
:103FB00070067AE17B0280047A007B0002B28FC037
:103FC00082C08378008C828D83E06A7003A3E06BEB
:103FD0007010E875F003A4F8A9F0EC28FAED39FBAD
:103FE0008015088C828D83A3A3A3E06A7003A3E0ED
:103FF0006B60DF7A007B0002B28F74F612140D1230
:1040000029C28A828B83E582458370067A007B0011
:104010008007A3A3A3A312BD2E02C68E74F21214AE
:104020000DE9FE740E1213E912C07774101213E931
:1040300012C4EF8C828D83E064027036A312C7EB4A
:10404000F525A3E0F9A82574026870037429697046
:104050002175250275260078251216207821121662
:10406000207823121620EEF9122A3A74061213B39E
:104070008002790102C712E0F523A3E0F52422743F
:10408000E812140D74FB12139DE985418285428369
:10409000F08A2F8B30ECFEEDFF752900741D121392
:1040A000E912C7E1741D1213E912BF9C8E828F833F
:1040B000A3A3A3E0A2E4502D741D1213E912BD2E98
:1040C000122A048A828B83E5824583700302C4C06E
:1040D000790AEEFCEFFDAA2FAB3012140BE9F5299B
:1040E000600302C4C3741F1213E912C4EF742112D7
:1040F00013E912C07774231213E9E0F527A3E0F562
:10410000288E828F83E06402600302C46EA312C70C
:10411000E1852182852283A385822B85832CEE2451
:104120000612B4B188828983E0FAA3E0F9EA240098
:10413000F52DE439F52E782D1216AA01000028017C
:104140002863C10700022828C2032895C100295FFF
:10415000C301298AC302292BC303295FC304290988
:10416000C46EC4E5274528600302C469852582859D
:10417000268312C4E4FAE9FB8A828B83E0852382DA
:1041800085248312C51A1216208A828B83A3E0FC31
:10419000A3E002C3F3E5274528600302C469852331
:1041A000828524837401F012C4F7852182852283DD
:1041B000F07C007D008E828F83A3A3A3A3E0240163
:1041C000FAA3E03400FB1228F0EA4B60418A828BAC
:1041D00083E02402F8852382852483E028F0EA2402
:1041E00004F8EB3400F988828983E0852B82852CE2
:1041F0008312C52C12C51A1216208A828B8312BF15
:1042000088E5212403FAE5223400FB02C3F8852364
:1042100082852483E02404F07C047D007900AA2BAD
:10422000AB2C1231A202C4C3E5274528600302C4A7
:104230006912C4F7FEA3E0FF8523828524837404FA
:10424000F0EE852182852283F0EF852B82852C83F9
:10425000F074031213E9AC82AD83EEFAEFFB12287F
:10426000F08A258B26EA4526700302C30C8A828BCE
:1042700083A3A312B13A74011213E98582278583BF
:1042800028782712162074051213E91216377CFFBE
:104290007DFF1228F674041213B38B28EA452870A8
:1042A0003385258285268312C4CF12162085258268
:1042B000852683A31216377C027D007A397B84120F
:1042C000272274041213B3E9700A74011213E974FB
:1042D000FFF0A3F08E828F83E064027039752502AF
:1042E00075260078251216208E828F8312BF88E5EE
:1042F000212404FAE5223400FB12318A74021213DD
:10430000B3852382852483E024028009740112137B
:10431000E9EEF0A3EFF074011213E912C4E0F074B7
:10432000011213E9A312C4D802C463E5274528602B
:104330000302C46985258285268312BF89AA2FAB13
:1043400030122A2E8523828524837402F0EA852187
:1043500082852283F0852B82852C83EB02C466E55F
:10436000274528600302C46912C4F7F8A3E0F98561
:1043700023828524837402F0E8852182852283F0DC
:10438000E9852B82852C8302C46685258285268358
:1043900012BD2E123184EAFC8C82A882C39527E4D8
:1043A0009528405FE865277002E52870047C00804E
:1043B00022854182854283E0FAE5272AFAE52834FE
:1043C00000FBC3EA98EB94005003E08005E527CC9E
:1043D000C39CFCEC852382852483F08C2375240008
:1043E0007823121620852582852683E02527FCA3C5
:1043F000E03528FDAA21AB2212318A74021213B3D0
:1044000002C4C375290702C4C3E5274528705A852D
:10441000258285268312C7E185238285248374073C
:1044200012B14612C4D812B146A3E0852B82852C66
:1044300083F0E82402FAE93400FB8A828B8312C4F9
:10444000D812C50712C4E0A312C51012C4E9F0E8DF
:104450002405F8E93400F98882898312C4E9A3129B
:10446000C52CA3A3A3A3F0805A75290B8055741DF6
:104470001213E912BD2E1229C28A828B83E582456E
:1044800083603D12C7E188258926E845266031789A
:10449000271216207823121620782112162074066F
:1044A0001213E9E0F9EEFCEFFDAA2FAB308525826F
:1044B00085268312140B74061213B3E9F5298003C1
:1044C00075290EA92974051213B37F100214DFE0B9
:1044D000F527752800782722E0852182852283220E
:1044E00012C5362212C7E5E82212C536A3A322E080
:1044F000F521A3E0F52222852582852683E0F8A315
:10450000E0F5838882E022A3A3F08A828B83A32232
:10451000F088828983A3A3A3A322F08A828B8312CB
:10452000C52322E0F523752400782322F0888289B0
:1045300083A312C53622E0852182852283A3A3228C
:1045400074EE12140D74FE12139D8A238B24ECFA60
:10455000EDFB74141213E9E0F529A3E0F52A7416B3
:104560001213E9E0FE74181213E9E0F527A3E0F551
:1045700028854182854283AC82AD831228F08A254A
:104580008B26EA4526604985418285428312BD2EED
:104590001229C28A828B83E5824583602FA3A312EE
:1045A000C4EFE521452260247827121620782912CD
:1045B0001620EEF9AC25AD26AA23AB2485218285F1
:1045C000228312140B74041213B38006790E800236
:1045D000790102B9C874F612140D74FE12139D7499
:1045E0000C1213E912C4E4854182854283F0740100
:1045F0001213E9E9F0E4F521F5227821121620756D
:104600002102782112162074041213E98582218573
:1046100083227821121620122A1674061213B374FC
:10462000021213B3806874F712140DEAFEEBFF89CF
:10463000217C187D03122A2EEA5402600BA921EE78
:10464000FAEFFB1228E48002790102B04274F612FC
:10465000140D74FF6A700374FF6B70168C828D8367
:1046600012C693E4F08C828D83A3A3A312C693A3F6
:1046700080181229FE8A218B22A821A922E84960EC
:104680000D8882898374FF12B144A3A3E4F07F02F2
:104690000214DF74FFF0A3F08C828D83A3A3227435
:1046A000F612140D1229FE8A828B83E582458360FF
:1046B00006A3A3E0FA80027A007B0080D174F21294
:1046C000140D8A218B22ECFEEDFF740E1213E9E02B
:1046D000F5231229FE8A258B26A825A926E84970EC
:1046E00026EEFCEFFD7AFF7BFF1229FE8A258B2642
:1046F000A825A926E8497004791180168882898343
:10470000E521F0A3E522F088828983A3A3E523F0C5
:1047100079007F060214DF74EE12140DEAFEEBFF3F
:104720008C218D22892574141213E912C7E17416A5
:104730001213E912BD2E752600E849600302C7D5A1
:1047400074026525600302C7D074121213E912C700
:10475000EBFCA3E0F9EC2400F527E439F528EAF4B2
:10476000F8EBF4F9EC58F8E52859F9E849705CE5FC
:10477000212406F8ED3400F9882389248882F58302
:1047800012C7F6122A2E8A298B2AE527652970047A
:10479000E528652A60427827121620852382852421
:1047A0008312C7F6122A3474021213B3E9F5267085
:1047B000277827121620852182852283A3A312C77A
:1047C000F4122A4C74021213B3800D7526808008EF
:1047D00075260D800375260BA92602BE8D8E828F4D
:1047E0008312C7E522E0F8A3E0F92212C7E5888228
:1047F0008983E022A3A3E0FCA3E0FDEEFAEFFB2215
:1048000074E812140D74E712139D8541828542836A
:10481000EAF0A3EBF08C2F8D3089277521007522EB
:104820000074311213E9E0F52BA3E0F52C74331278
:1048300013E9E0F52DA3E0F52E74351213E9E0F548
:1048400028E52275F003A4F8A9F08541828542830A
:1048500012C96AE0F47003A3E0F4700302C94DEEDC
:104860002402F525EF12C960E0700302C94D852FBF
:10487000238530247823121620AC2DAD2EAA2BAB25
:104880002C1229B674021213B38A238B24EA45240E
:10489000700302C94DE4F529F52A7829121620740F
:1048A000061213E985822985832A78291216207435
:1048B000091213E985822985832A78291216208511
:1048C0002B82852C83A3A3A3A31216377914AC23C0
:1048D000AD248E828F8312BD2E122A1074081213FB
:1048E000B3E97069852382852483A3A3A3A312C798
:1048F000E174021213E912BF9C852582852683E0AC
:10490000A2E05018A92774021213E9AC82AD838E7D
:10491000828F8312BD2E122908E9422185258285C6
:104920002683E0A2E15026E528F5237823121624F9
:10493000A92774031213E9AC82AD838E828F831290
:10494000BD2E12290274011213B3E942210522E59A
:1049500022C39402500302C841A921741902C4C79A
:104960003400F526852582F58322E028FEA3E03970
:10497000FF8E828F832274F212140DEAFEEBFF8900
:104980002474016524600E74026524706A79011232
:104990002C0EE97062EEFAEFFB1229F88A218B22C5
:1049A000EA45226047752300800B7C177D00790063
:1049B0001231A205239002E5E0F8E523C3985021C7
:1049C000E52375F017A4F8A9F0852182852283A339
:1049D000A3E028FAA3E039FB8A828B8312B2967097
:1049E000C985218285228374FFF0A3F07C187D03A2
:1049F000EEFAEFFB122A2802C71274F212140D8A83
:104A0000218B22ECFEEDFF740E1213E912C0779099
:104A10000AC8E0F4603D7A097B001231AEEA4B60CF
:104A2000328A828B8374B1F0A3E412C509A312C544
:104A300007A3E521F0A3E52212CA56EEF0A3EF1278
:104A4000CA56A3A3E523F0A3E524F0900AC8E0F931
:104A50001231BA02C712F08A828B83A3A3A3A3A345
:104A600022C082C0839061907404F0A37448F0A3C4
:104A70007402F09061807440F09061BC7403F09017
:104A800061877419F0906265741BF0906249E0C30D
:104A9000941390619C400A7409F0906066740180E0
:104AA00007740DF0906066E4F090619A7433F0A39F
:104AB0007455F09061A0743AF090053EE064017086
:104AC00009C2919003A5746780059003A57461F0F5
:104AD0009037FAE493906186F09037FCE493F460A9
:104AE00027E493540FF8906185E0686012E5C6549E
:104AF000804449F5C6E59E547F644970F8E8F05358
:104B0000C680E59E547F70FA7905122F6E02CCBCE8
:104B1000C082C083E9540FF9906185E0696012E5B5
:104B2000C654804449F5C6E59E547F644970F8E94F
:104B3000F053C680E59E547F70FA02CCBCC082C0A0
:104B400083E5A8F853A87E906181E4F0A3F0A3F078
:104B5000C2BA539AFEC289759B00C2C275E900753C
:104B6000910075BF0075A91175B905906181F0A319
:104B700074C0F0A3E4F0D2BA439A0174805842A8FA
:104B800002CCBCC082C08374F812139D9003A3E0D2
:104B9000F8A3E0F9E849700302CCB19003A3E05414
:104BA0004060237908854182854283AA82AB8312C3
:104BB0002DD0854182854283AA82AB83122ABE9082
:104BC00003A3E054BFF0E054806010790C7A647B5A
:104BD00005122DD09003A3E0547FF0E0A2E0503105
:104BE00090619A7433F0A37455F09061A0743AF018
:104BF00090053EE064017009C2919003A57467803E
:104C0000059003A57461F0122AC49003A3E054FE3A
:104C1000F0E05402603190619A743FF0A3745AF04E
:104C20009061A0747FF090053EE064017009D2911C
:104C30009003A5747180059003A5746AF0122AC4CC
:104C40009003A3E054FDF0E0540460139037F8E4BF
:104C500093906186F0122ACA9003A3E054FBF0E01F
:104C6000540860139037F9E493906186F0122ACAD1
:104C70009003A3E054F7F0E0541060139037FAE487
:104C800093906186F0122ACA9003A3E054EFF0E0FB
:104C90005420600A122ACA9003A3E054DFF0A3E074
:104CA0005401600D122CF8122AD09003A4E054FE97
:104CB000F074081213B302CCBCF0A3F0D083D082FE
:104CC00002102874EC12140D74F412139D854182A5
:104CD000854283AC82AD837583837582A27404128E
:104CE00012B09037F893F4600302CE4F907808E04A
:104CF000C39402500302CE2F74041213E9AC82ADA8
:104D00008375838375823274081212B0854182855F
:104D1000428385822B85832C74041213E9AC82AD07
:104D2000837527FF7528FF7FFF7E00752548752650
:104D300078801574086E700302CDC374096E700319
:104D400002CDC3740A6E607B852582852683782117
:104D50001212558C828D83A922E523C9F888297403
:104D6000187821121183E5294521F8C3E098A3E0C2
:104D700099852582852683782112125540188C82C8
:104D80008D8374187821121183E5294521F8E0C339
:104D900098F8A3E0801C74187821121183E5294546
:104DA00021FAE9FB8C828D83E0F8A3E0F9EAC3984D
:104DB000F8EB99F9C3E89527E995285006882789E3
:104DC00028EEFF0EE5252404F525E5263400F5261A
:104DD000EEC39413500302CD3374FF65277004743F
:104DE000FF652860238F217402782112138A74488A
:104DF0002521F58274783522F583782112125585A4
:104E00002B82852C83E521F0EC2402FCED3400FD9F
:104E1000852B82852C83A385822B85832C740C1291
:104E200013E9E5826C7003E5836D600302CD2175A3
:104E30002101752200782112162074021213E9ACA8
:104E400082AD837AFE7B0D1234C674021213B374E2
:104E50000C1213B37F0C0214DFC082C0839061AECA
:104E60007468F0A3746AF090624574FBF0A304F0D8
:104E700053F4FD43FE0290053E7401F09061A0E002
:104E8000643A90619A70237433F0A37455F0906182
:104E9000A0743AF0740164017009C2919003A57482
:104EA0006780289003A574618021743FF0A3745A31
:104EB000F09061A0747FF0740164017009D2919048
:104EC00003A5747180059003A5746A02CCBB7F08AA
:104ED0000214DFC082C0839004F0E06401700A9085
:104EE00004F5E06004790C8002790002CCBCC08239
:104EF000C08375E1F19004F3E0605B146009146015
:104F00005F14605714705E122D0A9004E9E0F97A7C
:104F1000EA7B04122EF07AD67BBE7C897D8E122F1E
:104F2000267A557B557C557D00122EFC9004F4E0CA
:104F3000F9122F087901122F629004E7E0F8A3E03C
:104F4000C82416F582E83400F5837422F0A3742D8A
:104F5000F0790002CCBC122D1080AF122D1680AA61
:104F6000122D1C80A5791280EA74F012140D75D9E7
:104F70000D9004D4E0A2E0E4331313F89004E9E0C8
:104F8000C4333354C0484401F5D978E779048882A2
:104F90008983A3A3A3E0F5D988828983A3A882A9E2
:104FA00083E864ED7003E9640470E378D4790488DD
:104FB000828983A3E0F5D988828983A3A882A98303
:104FC000E864DA7003E9640470E575E1959004D44F
:104FD000E0F97AD57B04122EF6900AEA74B6F0A3B3
:104FE000742CF0A37418F0A3742EF0A37418F0A31B
:104FF000742EF0A37418F0A3742EF0A374BCF0A365
:10500000742CF0A37418F0A3742EF0A374D4F0A33E
:10501000742CF0900AF87418F0A3742EF0A374188E
:10502000F0A3742EF0A37418F0A3742EF0A37418D8
:10503000F0A3742EF0A37418F0A3742EF0A37418C8
:10504000F0A3742EF09004F3E064019004E7701272
:10505000E0F8A3E0F5838882A3A3752100752208F8
:105060008010E0F8A3E0F5838882A3A3752104757E
:10507000220075230075240078211211CE7525FFBA
:105080007526FF7527FF7528007821792512121CD7
:105090009004E7E0F8A3E0C8240EF582E83400F5B8
:1050A0008378211212649004E7E0F8A3E0C8241486
:1050B000F582E83400F5837413F09003A17402F0D4
:1050C00002CECE74F712140D9004F9E02407F5D93E
:1050D0009004E9E0C4333354C0F5D978E779048803
:1050E000828983A3A3A3E0F5D988828983A3A882B8
:1050F000A983E864ED7003E9640470E39004F9E0C7
:10510000601F78E77904FAE82413F582E93400F5A2
:1051100083E0F5D988828983A3A882A9831AEA70DB
:10512000E6900519E02407F5D99004E9E0C433338B
:1051300054C04404F5D978E7790488828983A3A30D
:10514000A3E0F5D988828983A3A882A983E864EDC6
:105150007003E9640470E3900519E0601F78E77953
:1051600004FAE82433F582E93400F583E0F5D988C0
:10517000828983A3A882A9831AEA70E675E19590D3
:105180000AEA74C2F0A3742CF0A37418F0A3742E6E
:10519000F0A37418F0A3742EF0A37418F0A3742E67
:1051A000F0A374BCF0A3742CF0A37418F0A3742EB5
:1051B000F0A374D4F0A3742CF0900AF87418F0A340
:1051C000742EF0A37418F0A3742EF0A37418F0A337
:1051D000742EF0A37418F0A3742EF0A37418F0A327
:1051E000742EF0A37418F0A3742EF09004E7E0F886
:1051F000A3E0C8240EF582E83400F58374FFF0A321
:10520000F0A3F0A3F09004E7E0F8A3E0C82414F5BD
:1052100082E83400F5837412F09003A17401F0FF6A
:105220000214DF74F712140D9004F9E02407F5D985
:105230009004E9E0C4333354C04402F5D978E779E7
:105240000488828983A3A3A3E0F5D988828983A3F4
:10525000A882A983E864ED7003E9640470E3900414
:10526000F9E0601F78E77904FAE82413F582E9345D
:1052700000F583E0F5D988828983A3A882A9831ADF
:10528000EA70E675E195900AEA74CEF0A3742CF00A
:10529000A374CEF0A3742CF0A374CEF0A3742CF0FE
:1052A000A374CEF0A3742CF0A374CEF0A3742CF0EE
:1052B000A374CEF0A3742CF0A374D4F0A3742CF0D8
:1052C000900AF87418F0A3742EF0A37418F0A37465
