:020000040000FA
:0600000002011A02212B8F
:03002B000226B6F4
:030033000226980A
:0300530002219EE9
:03006B0002266FFB
:10008300021F97E5C754F84401F5C7790122000020
:100093000080FB120086B90003020104E47944786E
:1000A30002B800028004F709D8FCE479467802B864
:1000B30000028004F709D8FCE490028178F5790DF9
:1000C3008002F0A3D8FCD9FA784390014A7A01BAA6
:1000D30000028007E493A3F608DAF97A757B0F90A0
:1000E300014B78D779018015E493A3AD82AE838A5F
:1000F300828B83F0A3AA82AB838D828E83D8E9D9C6
:10010300E775823F7583CF740312012C7582917555
:100113008300740012012C75D00075814F754181E5
:10012300754202759F00020096C09FF59FE473D04D
:100133009F22D083D082C09FE493C0E0740193C018
:10014300E0740293F59F2201AD03BF03E903B303F8
:10015300FF0000B4000028002800283075A000A08C
:1001630000A000A00000080008E001F0001000104B
:10017300001000100010001000500050005000103C
:10018300001000D0070000000000000F0001000570
:1001930000307507001000010081FF00000000FF20
:1001A300020202A882010000988202A282010000DA
:1001B300CD0F029E82010000B20202A28201000062
:1001C300CE0F02A682010000C802FFFF0100FF203C
:1001D30002A8820100009B8202A282010000FC0FA0
:1001E30002AE82000000000002A082030000A5030B
:1001F3001B0B1B0B1B0B1B0B1B0B1B0B1B0B1B0BCC
:100203001B0B1B0B1B0B1B0B1B0B010D1F0DFB0CEC
:10021300FFFF01E803053F10020AFF00FEFF120182
:1002230035ADC503120135C3C503120135F2C5034C
:1002330012013528C6031201353FC6031201355694
:10024300C6031201358DC603120135E0C603120140
:1002530035F7C60312013588BD031201359FBD036F
:10026300120135D0BD031201350BBE031201353522
:10027300BE031201355FBE0312013576BE031201C0
:10028300358DBE03120135A4BE03120135CDBE0365
:10029300120135E0BE03120135F6BE03120135200B
:1002A300BF0312013535AA0212013539AB0212011F
:1002B3003566AB02120135BCAB02120135DFAB026E
:1002C300120135F3AB02120135F5AB0212013518F9
:1002D300AC0212013527AD02120135EBAD0212015A
:1002E30035C0AE0212013531AF02120135BDAF0286
:1002F300120135C0AF0212013548B0021201358335
:10030300B002120135EAB002120135EDB00212015A
:100313003524B1021201354DB102120135F8B10293
:1003230012013582B202120135D1B202120135DE59
:10033300B202120135E1B20212013541B3021201D8
:10034300354CB302120135CBB302120135CEB302E1
:10035300120135E1B302120135E4B3021201357320
:10036300B4021201358DB4021201359DB40212019B
:1003730035CDB402120135DAB402120135DDB4020F
:100383001201355EB5021201354CB602120135FE7B
:10039300B602120135FFCB02120135F7CC0212016E
:1003A300352BCD02120135ADCD02120135CDCD0273
:1003B30012013515CE0212013568CE02120135CC79
:1003C300CE0212013559CF0212013513D0021201A8
:1003D3003522D302120135ADD402120135D0D40235
:1003E3001201353CA703120135D9A8031201353D8B
:1003F300A9031201359CA903120135AAA90312010D
:1004030035D3A9031201354EFA0212013576FA02E9
:10041300120135A4FA02120135DBFA021201353951
:10042300FB0212013584FB02120135CFFB021201DC
:10043300350FFC0212013555FC0212013583FC0213
:1004430012013540FD021201354AFD0212013557F2
:10045300FD021201358AFD0212013556FE02120118
:100463003562FE021201357AFE0212013584FE0264
:1004730012013502FF0212013575CB0312013583D8
:10048300CB031201359BCB03120135B3CB0312010E
:1004930035CBCB0312013522EE01120135CEEE012D
:1004A30012013549EF011201356AF001120135A637
:1004B300F0011201354FF10112013536F20112013B
:1004C300359AF301120135F1F30112013572F4018A
:1004D30012013562F501120135AFF501120135350F
:1004E300F60112013567F6011201357BF80112019D
:1004F30035BDF801120135DBF8011201357DF90133
:1005030012013545FA0112013552FC01120135E79A
:10051300AA03120135FDAA0312013523AB0312010D
:10052300353FAC0312013549AC031201357EAD03EF
:1005330012013576AE031201357996031201351D8A
:1005430097031201355097031201359A970312014D
:10055300355D9903120135E9AE0112013562AF0130
:1005630012013572AF0112013560B0011201356A13
:10057300B0011201358FB0011201359AB001120199
:100583003584B101120135E7B1011201359DB20184
:1005930012013584B4011201353DB601120135193A
:1005A300B701120135CDB7011201350ABB011201A2
:1005B30035B8BB0112013527BD01120135A7BE01B4
:1005C3001201354EBF0112013597BF01120135CE1D
:1005D300BF011201356BC001120135F6C0011201D2
:1005E30035D3C10112013528C20112013587C30178
:1005F30012013597C301120135C4C3011201351B22
:10060300C401120135C4C401120135CBC501120165
:100613003595C601120135F5C70112013538C801F8
:10062300120135DDC80112013503C901120135116B
:10063300CB0112013516CB011201351BCD0112017D
:100643003568CD01120135DBCD011201350ECE0126
:10065300120135B0CE0112013559CF011201359186
:10066300CF0112013594CF01120135DCCF01120104
:10067300351ED00112013575D001120135B9B10310
:10068300120135CCB103120135DAB103120135225F
:10069300B20312013538B2031201357FB2031201DE
:1006A3003593B30312013520B4031201356BB40340
:1006B300120135C86100120135D861001201353BC2
:1006C30062001201358062001201353663001201A7
:1006D300351164001201353A64001201356A640071
:1006E300120135AA660012013591680012013569BD
:1006F3006A00120135AD6B00120135146E00120150
:1007030035226F001201357470001201357E7100BD
:10071300120135C07100120135F871001201351A4A
:1007230072001201357D72001201353F770012010C
:1007330035D477001201352878001201354F78003F
:100743001201358D7800120135AC7800120135069F
:100753007900120135067A001201358B7A001201F5
:10076300350080031201350A8003120135B280037C
:10077300120135F58003120135108103120135A0F2
:100783008103120135C8810312013500820312016E
:10079300353782031201356082031201359A8203D1
:1007A300120135AF82031201357C83031201359F99
:1007B3008303120135C18303120135D6830312016A
:1007C300355C84031201359684031201350E8503CB
:1007D300120135578503120135818503120135ACAA
:1007E300850312013561C80312013500800212012D
:1007F300352E800212013589810212013569820288
:10080300120135888202120135058302120135482F
:100813008302120135C384021201353285021201AB
:10082300355D8702120135E18902120135928A0290
:10083300120135888B02120135288C0212013526EC
:100843008D02120135B18D021201350EC70312015B
:100853003577C703120135CBC703120135FAC70336
:100863001201351BC803120135FA9A0312013567C9
:100873009B03120135AE9B03120135C69C03120183
:1008830035C29D03120135A59E0312013537ED02D2
:1008930012013579ED0212013552EE021201354C87
:1008A300EF021201352EF00212013597F002120108
:1008B30035B3F1021201351FF20212013522F202A1
:1008C3001201354BF202120135C5F2021201356AEB
:1008D300F3021201357FF302120135C5F30212014F
:1008E30035DEF302120135E1F3021201356BFC012F
:1008F300120135A7FC01120135E5FC01120135AFE8
:10090300FD011201351EFE0112013559FE011201CE
:100913003597FE01120135C7FE01120135EEFE01C6
:100923001201355CFF011201359EFF01120135B83A
:100933008201120135D78401120135BA86011201F1
:1009430035F68601120135238701120135EA870145
:100953001201353588011201358088011201359263
:100963008801120135D2880112013506890112016D
:1009730035548901120135858901120135A8890190
:100983001201352F8A01120135178B01120135042B
:100993008C01120135FD8C011201350C8F011201FE
:1009A30035AE9401120135FE94011201357597019C
:1009B3001201358EB90312013543BB03120135C44D
:1009C3004400120135734500120135A045001201A0
:1009D30035EA4500120135204700120135B64800BB
:1009E3001201352B49001201356C4900120135BE45
:1009F30049001201352F4B00120135744D001201CD
:100A0300356E4E001201358D4E00120135AC4E008D
:100A1300120135AF4E00120135E04F00120135D8F7
:100A23005000120135C45100120135345200120135
:100A330035A652001201352D53001201350854001A
:100A4300120135DD5400120135BC55001201354742
:100A53005600120135B5560012013529570012010F
:100A630035545700120135135800120135005B004D
:100A7300120135495B001201358C5B00120135050B
:100A83005C001201359D5C001201358E5D00120180
:100A930035B35D00120135F95D00120135235E00A7
:100AA3001201356B5E00120135E65E00120135401E
:100AB3005F00120135A96000120135576100120170
:100AC30035986100120135619C02120135AF9C0219
:100AD300120135BB9C02120135999D02120135CAE0
:100AE3009D02120135FB9D021201357B9E0212010C
:100AF30035B39E02120135059F02120135429F0252
:100B03001201355FA10212013585A302120135706E
:100B1300A5021201355AA702120135EF7F00120117
:100B230035D485031201351F8A03120135638B0304
:100B3300120135CEDF0112013586E2011201358C37
:100B4300E20112013546E50112013513E8011201F4
:100B5300355F9103120135039203120135D59203D8
:100B6300120135FF92031201354D9503120135E44D
:100B730026001201352E27001201356F35001201B0
:100B830035F43600120135173800120135883E005E
:100B9300120135833F00120135C03F00120135E3D6
:100BA3003F001201352540001201352F400012018C
:100BB300351D4100120135134200120135AC4200CC
:100BC3001201356EA30312013504A4031201351A71
:100BD300A40312013590A40312013504A5031201E5
:100BE3003542A503120135B6A5031201352FA6031D
:100BF30012013538A60312013544A60312013559F3
:100C0300A60312013597A603120135ADA6031201FF
:100C1300350CA70312013505F40212013512F40253
:100C23001201352CF4021201356BF402120135A9BD
:100C3300F4021201350EF50212013523F5021201F9
:100C4300353AF50212013548F50212013557F5021E
:100C53001201356CF50212013581F5021201358C52
:100C6300F50212013598F502120135A5F5021201BC
:100C730035B4F502120135BFF502120135E4F50270
:100C83001201358BF602120135A0F602120135B5B9
:100C9300F602120135CFF602120135EAF60212010D
:100CA3003507F70212013512F702120135CEF702AA
:100CB300120135BAF802120135DFF802120135EAE2
:100CC300F802120135FFF80212013513F90212017D
:100CD3003574F9021201357AF90212013580F902ED
:100CE30012013586F9021201359EF902120135D13E
:100CF300F9021201356FB70212013591B7021201E1
:100D03003571B80212013548BB0212013574BC02B9
:100D130012013598BD021201354ABE02120135EBAC
:100D2300BE02120135378E02120135BB8E0212014B
:100D3300356A8F02120135C99002120135EA920217
:100D4300120135D693021201350B94021201352D8F
:100D53009402120135DC9402120135D49602120179
:100D630035FD96021201358F9702120135C19702A4
:100D7300120135CE97021201352598021201354B27
:100D83009802120135B89A02120135BB9B02120177
:100D930035139C0212013562D1011201356CD20167
:100DA30012013553D3011201355DD3011201357F91
:100DB300D3011201358BD30112013524D501120160
:100DC3003553D5011201356FD601120135C8D6014D
:100DD3001201352ED8011201350DD90112013569E1
:100DE300D901120135D6D90112013511DA011201E7
:100DF3003550DA0112013509DD0112013523DD0118
:100E0300120135AFDD01120135BDDD0112013516C9
:100E1300DE0112013524DE0112013597DE011201D4
:100E230035FBDE0112013545DF0112013532BF0307
:100E330012013557BF03120135C9BF03120135EB48
:100E4300E502120135F4E502120135FDE502120156
:100E530035D4E60212013585E802120135BBE802FA
:100E6300120135F5E8021201352BE902120135654D
:100E7300E90212013599E902120135C5E9021201AD
:100E8300350EEA0212013548EA0212013591EA02EF
:100E9300120135E9EA021201351EEB02120135791E
:100EA300EB02120135B3EB0212013504EC0212011D
:100EB300353AEC0212013574EC0212013597EC025B
:100EC300120135FCCD0312013528CE0312013583FF
:100ED300CE031201358DCE031201359DCE031201CF
:100EE30035FBD50212013505D60212013543D60270
:100EF3001201358CD602120135C6D6021201351CF9
:100F0300D7021201353DD702120135C2D9021201AF
:100F130035CBD90212013516DA021201353FDA0256
:100F230012013549DA02120135B5DA021201354BE5
:100F3300DB0212013595DB02120135C5DB0212011A
:100F4300354EDC021201358EDC02120135C6DC029D
:100F5300120135D8DC02120135F7DC02120135002B
:100F6300DD02120135CBDD021201357ECA03120107
:100F73003599BB03120135CFBB0312013505BC0301
:100F83001201354EBD03120135A7CE03120135BD43
:100F9300CE03120135C7CE0312013511CF0312015F
:100FA30035F27A00120135077B00120135B77B0059
:100FB300120135F77B00120135107C001201354414
:100FC3007C00120135917C00120135C57C001201B1
:100FD30035077D001201350B7F00120135717F004B
:100FE3001201358AFF0212013514C4031201353D83
:100FF300C40312013566C40312013501C50312018E
:101003003519C5031201355BC503120135A68B03E0
:10101300120135E58B031201356E8C031201358302
:101023008C03120135CE8C03120135028D0312019C
:1010330035418D03120135508D03120135028E03A4
:101043001201355B8E03120135AA8E03120135009E
:101053008F03120135F58F03120135EA9003120154
:10106300352791031201357E7F001201358E9901D8
:101073001201350E9C01120135819D011201357E4D
:101083009E01120135079F011201358B9F01120149
:1010930035B09F0112013500A00112013595A3015E
:1010A30012013509A401120135F5A4011201352FEE
:1010B300A5011201356FA5011201351AA70112010D
:1010C300354BA7011201359EA701120135E7A70190
:1010D30012013555A80112013587A8011201359F68
:1010E300A801120135B4A901120135C4A9011201E5
:1010F30035E2AA0112013504AB011201353AAB0105
:10110300120135E3AC011201355CAD011201359BCF
:10111300AD01120135B2AE0112013546CD03120104
:101123003557CD0312013597CF03120135D6CF03BF
:10113300120135DE7F0012013564CC0312013574D0
:10114300CC031201358CCC0312013540CD031201BF
:10115300357AC903120135FFC90312013565CA0384
:10116300120135D7C00312013500C10312013566E0
:10117300C10312013586C103120135D7C103120120
:101183003530C2031201356AC2031201356DC20341
:1011930012013580AE0312013595AE03120135AB52
:1011A300AF031201352DB003120135A1B0031201B3
:1011B30035BBB003120135D2B003120135E5B003DC
:1011C300120135FDB00312013512B103120135339B
:1011D300B10312013584B103120135679F03120174
:1011E300357E9F03120135F79F03120135CCA0030F
:1011F3001201359EA20312013503A3031201355ACE
:10120300A303120135F87F0012013559B703120108
:1012130035E4B80312013545B9031201358BB9031F
:1012230012013577C203120135C7C20312013550CB
:10123300C303120135B6C30312013595B40312017A
:1012430035BFB40312013585B50312013560B6030A
:10125300120135E7B603120135F5DD02120135B28D
:10126300DE02120135EDDE0212013515DF02120135
:101273003577DF02120135C3DF0212013523E002A5
:10128300120135B6E002120135B5E102120135440F
:10129300E302120135C7E3021201352EE402120103
:1012A3003545E4021201354FE5021201358DE502A1
:1012B300120135C5C102120135BAC20212013582CB
:1012C300C302120135BBC50212013586C6021201E3
:1012D30035A9C602120135DEC80212013530C90232
:1012E300120135C4C902120135EDCA021201358A51
:1012F300CB0212013516D003120135E0CF031201E0
:101303003542D0031201356AD003E766701008092D
:10131300E766700A0809E76670040809E76622E0D1
:1013230066701008A3E066700A08A3E066700408FC
:10133300A3E06622C3E7960809E7960809E796083B
:1013430009E79622C3E09608A3E09608A3E096086F
:10135300A3E09622C021C3E096F52108A3E09642BC
:101363002108A3E096422108A3E09645217001D30A
:10137300D02122080808EAC0E0EBC0E086F0E7A429
:10138300FA180986F0E7A42AFA180986F0E7A42ACE
:10139300FA180986F0E7A42AFA1986F0E7A4FBE510
:1013A300F02AFA190886F0E7A42BFBE5F03AFA19BC
:1013B3000886F0E7A42BFBE5F03AFA18180986F043
:1013C300E7A4C5F02BFBE43AFA1908E7C5F0C6A475
:1013D30026F6E5F03BFBE43AFA1886F0E7A4F6E5D7
:1013E300F00826F6E43B08F6E43A08F6D0E0FBD032
:1013F300E0FA22E4CFC0E0E4CEC0E0E4CDC0E0E414
:10140300CCC0E075F020E626F608E633F608E633AE
:10141300F608E633F6181818EC33FCED33FDEE331B
:10142300FEEF33FFC3EC9709ED9709EE9709EF97AA
:10143300191919400FFFEC97FC09ED97FD09EE9779
:10144300FE191906D5F0BFECF709EDF709EEF70918
:10145300EFF7191919D0E0FCD0E0FDD0E0FED0E0A1
:10146300FF226016080808C6C313C618C613C61899
:10147300C613C618C613C6D5E0EA227009080808C1
:10148300226016181818C6C333C608C633C608C662
:1014930033C608C633C6D5E0EA22E627F60809E6CE
:1014A30037F60809E637F60809E637F622E026F6A6
:1014B30008A3E036F608A3E036F608A3E036F622E2
:1014C300E026F008A3E036F008A3E036F008A3E036
:1014D30036F022C3E697F60809E697F60809E69779
:1014E300F60809E697F622C3E096F008A3E096F023
:1014F30008A3E096F008A3E096F022E657F6080961
:10150300E657F60809E657F60809E657F622E056C5
:10151300F608A3E056F608A3E056F608A3E056F64D
:1015230022E056F008A3E056F008A3E056F008A323
:10153300E056F022E667F60809E667F60809E6676B
:10154300F60809E667F622E0F608A3E0F608A3E04A
:10155300F608A3E0F622E6F008A3E6F008A3E6F017
:1015630008A3E6F022E0FAA3E0FBA3E0FCA3E0FD7E
:1015730022EAF0A3EBF0A3ECF0A3EDF022E0F8A352
:10158300E0F9A3E0FAA3E0FB22E8F0A3E9F0A3EA81
:10159300F0A3EBF022CAC0E0E6F0A308DAFAD0E049
:1015A300FA22CAC0E0E0A3C582CCC582C583CDC5FB
:1015B30083F0A3C582CCC582C583CDC583DAE6D0CB
:1015C300E0CA22C3E498F8E499F91216078026C307
:1015D300E49AFAE49BFBE920E7E9121607E498F89A
:1015E300E499F922C3E498F8E499F9121607E49808
:1015F300F8E499F9C3E49AFAE49BFB22EB20E7CFE2
:10160300E920E7E0B90010BB0008E88AF084F8AAF3
:10161300F022E4FBC8FA22EB70227B10C833C8C95E
:1016230033C9335007C39AC3DBF280069A50012AA9
:10163300DBEAC833F4C8C933F4C9FA2275F008E405
:10164300C833C8C933C933C99AC99B5004C92AC905
:101653003BD5F0ECFBC833F4C8E4C9FA22600D08AB
:10166300C6A2E713C618C613C6D5E0F322600C085A
:10167300C6C313C618C613C6D5E0F422700422608D
:101683000D18C6C333C608C633C6D5E0F4182225E1
:101693004110AF08F541400C15428008F541400266
:1016A3001542D2AF2200C0D0254110AF08F54150FA
:1016B3000C05428008F54150020542D2AFD0D0223A
:1016C3002541F58210AF08F541400C15428008F51D
:1016D3004140021542D2AF854283222541F582E47F
:1016E3003542F583222541F8E43542F9222541FAB2
:1016F300E43542FB222541FCE43542FD22E4732517
:1017030041C582C0E0E54234FFC583C0E0E541C383
:10171300958224F810AF088583428582418008852D
:101723008342858241D2AFCEF0A3E520F0A3782196
:10173300E608F0A3DEFAEFF0A3E58124FAF8E60861
:10174300F0A3E608F0A3E608F0A30808E608F0A370
:10175300E608F0A315811581D0E0FED0E0F81581ED
:1017630015811581E8C0E0EEC0E0222541C582C0A5
:10177300E0E54234FFC583C0E0E541C3958224F927
:1017830010AF088583428582418008858342858224
:1017930041D2AFCEF0A3E520F0A37821E608F0A371
:1017A300DEFAEFF0A3E58124FBF8E608F0A3E608F0
:1017B300F0A30808E608F0A3E608F0A31581158155
:1017C300D0E0FED0E0F815811581E8C0E0EEC0E07E
:1017D30022854283854182E0A3FEE0A3F5207821A0
:1017E300E0A3F608DFFAE0A3FFE0A3C0E0E0A3C0B4
:1017F300E0E0A3C0E0E0A3C0E0E0A3C0E010AF08D6
:101803008582418583428008858241858342D2AFA8
:10181300D083D082020132854283854182E0A3FED8
:10182300E0A3F5207821E0A3F608DFFAE0A3FFE0C8
:10183300A3C0E0E0A3C0E0E0A3C0E0E0A3C0E010E9
:10184300AF08858241858342800885824185834232
:10185300D2AFD083D08222C0D02541C582C0E0E57B
:101863004234FFC583C0E0E541C3958224F310AF42
:10187300088583428582418008858342858241D2DF
:10188300AFC8F0A3E9F0A3EAF0A3EBF0A37921E753
:1018930009F0A3D8FAECF0A3EDF0A3EEF0A3EFF078
:1018A300A3D0E0F0A3D0E0F0A3D0E0F0A3E520F0D4
:1018B300A3E5F0F0A322854283854182E0C0E0A343
:1018C300E0F9A3E0FAA3E0FBA37821E0F608A3DFA5
:1018D300FAE0FCA3E0FDA3E0FEA3E0FFA3E0C0E089
:1018E300A3E0C0E0A3E0F5D0A3E0F520A3E0A3F5D7
:1018F300F010AF0885834285824180088583428545
:101903008241D2AFD082D083D0E0F8D0E0327404E9
:101913008006740280027401C0E0F4041216C3D07E
:10192300E0121598227404800474028000CCC0E095
:10193300EDC0E0E541C39CCCAD4250011D10AF06A4
:101943008C418D4280068C418D42D2AF1215A5D0B9
:10195300E0FDD0E0FC22D083D082E9C0E0E493A391
:10196300C386F0C5F095F0F908E493A386F0C5F0BB
:1019730095F0700BE493A3C3994005E9048002A397
:10198300E475F002A42582F582E5F03583F583D072
:10199300E0F9E493A3C0E0E493C0E022D083D082D3
:1019A300ECC0E0EDC0E0E493A3FCE493A3FDED4CB5
:1019B300600D1219EBEC24FFFCED34FFFD80EFE426
:1019C30093A3FCE493A3FDED4C600D121A2AEC24BF
:1019D300FFFCED34FFFD80EFD0E0FDD0E0FCE493AD
:1019E300A3C0E0E493C0E022C0E0C3E4939608748C
:1019F30001939618400FE493667008087401936688
:101A03001870007019A3A3C3E49396087401939606
:101A130018A3A3400DD0E0D0E0D0E00219DBA3A3CC
:101A2300A3A3A3A3D0E022C0E0C0F088F0E49366B0
:101A330070080874019366187000A8F0A3A3700BD4
:101A4300D0F0D0E0D0E0D0E00219DBA3A3D0F0D0F7
:021A5300E0228F
:101A580074F512176EEAFEEBFFEE2434F8EF34004B
:101A6800F988218922EE2435F582EF3400F583E0E8
:101A7800F8EE2437F582EF3400F583E0F523EC85A2
:101A880023F0A4FCAAF08523F0EDA42AFDE82CF8A5
:101A9800E43DF97A257B00121607EA852182852222
:101AA80083F0F8740758F97401B900028004C3334D
:101AB800D9FCFAE8131313541FF8EE28F8EF340092
:101AC800F9E8245DF582E93400F583E05A6008EE10
:101AD8002434F582EF802CEE2434F582EF3400F5BF
:101AE80083E0C0E0EE2436F582EF3400F583E0F5BC
:101AF800F0D0E084A8F0EE28F8EF3400F9E82438B4
:101B0800F582E93400F583E0F97F0402181A74F5C8
:101B180012176EEAFEEBFFEE2434F582EF3400F57F
:101B280083E0C0E0EE2435F582EF3400F583D0E0A1
:101B3800F08E828F83A3A3A3A3A3A3A3C082C08391
:101B48008E828F83A3A3A3A3A3E0F8A3E0F9D08395
:101B5800D082E0C398F521A3E099F522EE247FF521
:101B680082EF3400F583E064017069EE2480F58229
:101B7800EF3400F583E0F8A3E0F98E828F83A3A306
:101B8800A3A3A3A3A3E0FCA3E0FD8E828F83A3A35A
:101B9800A3A3A3E0FAA3E0FBC3EA9CEB9D5010C308
:101BA800EC98ED99402EC3EA98EB995027800EC324
:101BB800EA98EB994007C3EC98ED9940177CBF7DF4
:101BC80007EEFAEFFB120A61EE247FF582EF34008C
:101BD800F583E4F0EE2434F8EF3400F9E8FCE9FD8D
:101BE800EE2435F582EF3400F583E0F8EE2437F57E
:101BF80082EF3400F583E0F523E5218523F0A4F591
:101C080021AAF08523F0E522A42AF522E82521F867
:101C1800E43522F97A257B00121607EA8C828D8337
:101C2800F0F8740758F97401B900028004C333D975
:101C3800FCFAE8131313541FF8EE28F8EF3400F9F0
:101C4800E8245DF582E93400F583E05A6008EE2463
:101C580034F582EF802CEE2434F582EF3400F583DE
:101C6800E0C0E0EE2436F582EF3400F583E0F5F0CD
:101C7800D0E084A8F0EE28F8EF3400F9E82438F52D
:101C880082E93400F583E0F912265B021B1174EF38
:101C980012176E900479E064086005E06407702A02
:101CA8009061C8E060249004A7E0F4601DE0F87536
:101CB800F005A4C8AAF02AF974A928FE740439FF0B
:101CC8008E828F83A3A3A3E07003021DC690606079
:101CD800E0C0E0EE2468F582EF3400F583D0E0F050
:101CE8007525FB752607752100752200E5D914F5C1
:101CF80023E5D95403F527601774036527605CE56D
:101D0800236010EE2467F582EF3400F583E070035A
:101D1800021DAB9007F6E06401602AEE2482F5828A
:101D2800EF3400F583E060047804800278008523AE
:101D380021E521C398FA95E0FB1209418A218B22FB
:101D4800EA45227005120CD78074EE2482F582EFE2
:101D58003400F583E070048A258B26E5236012851C
:101D68002582852683F524E5D9F0A31524E524707A
:101D7800F6EE2482F582EF3400F583E0604474FCCB
:101D88002523F5237825121915AC23A927EEFAEF98
:101D9800FB120B1574021216A8E97026AA21AB22B1
:101DA800121229793D8E828F83A3A3A3A3E0FA7B25
:101DB80000120827EEFAEFFB120A85120B7579005C
:101DC8008074740365276056852329752A0078294D
:101DD800121915AC25AD26AA21AB22120AF17402FC
:101DE8001216A8EE2468F582EF3400F583E06480CB
:101DF8007004747F8001E0F5257825121919E5270C
:101E0800F5257825121919A923AC21AD229004A72C
:101E1800E0FA7B001207E574021216A880139004FA
:101E280079E06408700BAC25AD26EEFAEFFB120BD7
:101E380045120CE379017F0A02181A74F512176E1D
:101E480074FC121692EAFEEBFF8921A2AFE433F587
:101E580022C2AF806AEE2463F8EF3400F97A007B7F
:101E680000A2AFE433F523C2AF88828983E0FCA3E4
:101E7800E0FDEC4D603A88828983E0FAA3E0FB8AB2
:101E8800828B83E0FCA3E0FD88828983ECF0A3EDDC
:101E9800F08A828B83E4F0A3F088828983E0FCA334
:101EA800E0FDEC4D700A88828983A3A3E4F0A3F0D7
:101EB800E523A2E092AF1212299007C6E004F0EEE3
:101EC8002463F582EF3400F583E0F8A3E0F9E849EC
:101ED800603DEE2463F582EF3400F583E02402FAD6
:101EE800A3E03400FBEA2402F523EB3400F5247860
:101EF800231219158A828B83E0FCA3E0F9EEFAEF2E
:101F0800FB120AB574021216A8E97003021E5D904E
:101F180007C6E060639007C7E0F89007C6E0C3987B
:101F2800500C7402652170509007C8E0604A8E8298
:101F38008F83A3A3A3A3E0854182854283F0A3E412
:101F4800F09007C6E0F874021216DEE8F0A3E4F099
:101F58009007C6E0F89007C5E028F074021216DE74
:101F6800AC82AD83854182854283AA82AB837901A5
:101F78001207F19007C6E4F0E522A2E092AF7404DC
:101F88001216A8021B1100008544878545C622C089
:101F9800E0C0D0E8C0E0E9C0E0EAC0E0EBC0E0ECB7
:101FA800C0E0EDC0E0EEC0E0C021C022C023C024E4
:101FB800C082C083C0F0A2AFE433FEC2AF759B00FD
:101FC800906182E0A2E05012E591A2E0500C759178
:101FD800FE740165447003121C96E0A2E55051E5B9
:101FE80091A2E5504B7591DF900479E06407600594
:101FF800E06408702374016544703579019004A782
:10200800E0FA75F005A4CAA8F028FB74A92AFA74A6
:10201800043BFB121E438018E0640D701390049B70
:10202800E004F064287002E4F07A00E0F9120CE9A8
:10203800906182E0A2E640030220DEE591A2E6403C
:10204800030220DE7591BF900479E06405700812E0
:102058000BED120BF98003120BF3754400120C59A7
:10206800E990047AF07900120C3B1209D17A017BCD
:1020780000900478E0F9120F41907803E064427010
:10208800559007FAE014F0704DC2AF122096007810
:1020980047D0E0F618D0E0F6E59F540770057522A2
:1020A800FF800375227FC4C0E07846E6F52108E684
:1020B8005522F522740B7821121670D0E02521F8EC
:1020C800906270E0A2E740F8E8C333906272F09043
:1020D8006270E0D2E0F0906181E0A2E35009E5E9A6
:1020E800A2E3500375E9F7A3E0A2E75009E591A23E
:1020F800E7500375917FEEA2E092AFD0F0D083D085
:1021080082D024D023D022D021D0E0FED0E0FDD050
:10211800E0FCD0E0FBD0E0FAD0E0F9D0E0F8D0D095
:10212800D0E032C0E0C0D0C082C083906183E0A21A
:10213800E05009E5BFA2E0500375BFFEE0A2E15000
:1021480009E5BFA2E1500375BFFDE0A2E25009E531
:10215800BFA2E2500375BFFBE0A2E35009E5BFA2AE
:10216800E3500375BFF7E0A2E45009E5BFA2E450CD
:102178000375BFEFE0A2E55009E5BFA2E55003757E
:10218800BFDFE0A2E65009E5BFA2E6500375BFBF76
:10219800D083D0828088C0E0C0D0E8C0E0E9C0E049
:1021A800EAC0E0EBC0E0ECC0E0EDC0E0C0F0E5A7BD
:1021B800A2E6500FE5A1A2E6500953A7BF75A1BF3B
:1021C800122203E5A7A2E5500CE5A1A2E5500653AB
:1021D800A7DF75A1DFE5A7A2E15009E5A1A2E150BB
:1021E8000375A1FDE5A7A2E2500CE5A1A2E2500605
:1021F80053A7FB75A1FBD0F002211474F812176ED7
:10220800754401900479E064067015120B998A826E
:102218008B83A3A3A3A3A3A3E0FAA3E0FB120BDB86
:10222800A2AFE433FED2AF90047FE0640170187A65
:10223800207B00900478E0F9120FC57A207B00908B
:102248000478E0F9120F47906182E0D2E6F0900737
:10225800F7E0602185C645801690047EE064017031
:1022680008E5C654F84405F5C653BEFC121F907421
:1022780001654460E4EEA2E092AF7F0102181A748F
:10228800E912176E74F8121692854182854283EC22
:10229800F0A3EDF08A218B22900479E024F7C3940F
:1022A80005500675210102241E120B998A238B24DE
:1022B800AE23AF24EE4F700302241BAC21AD227471
:1022C800021216DEAA82AB83120C0B8E828F83A3B6
:1022D800A37525FF7526FF7527FF75280078251239
:1022E800151174021216DE7529FF752AFF752BFF6A
:1022F800752C007829121511782579291213375071
:102308002A782579291214D67521017522C87523D2
:10231800007524007821792512133750528525211C
:102328008526228527238528248050752D01752E22
:10233800C8752F00753000852921852A22852B2311
:10234800852C24782179251214D6782D7921121319
:1023580037401C752100752200752300752401780B
:102368002179291214D67821792512149D800C75AB
:102378002101752200752300752400740978211243
:10238800147E752519F526F527F528782179251263
:1023980013F68E828F83A3A3A3A3A3A3E0F8A3E0DD
:1023A800F97AD07B0312160788258926E4F527F5E4
:1023B800287821792512149D74061216DEE0F8A3F8
:1023C800E0F97AD07B03121607E8FA8A25E4F526A5
:1023D800782179251213375007782179251214D6D8
:1023E800900479E06408600AE064066005E064052A
:1023F800702D75250D782579211213374021752503
:10240800F47526FF7527FF7528FF782179251214A2
:102418009D800C75210075220075230075240085A8
:102428004182854283E0F8A3E0F58388827821120F
:10243800155974081216A87F1002181A74F7121783
:102448006E120C1D9007F5E064017010906245E46F
:10245800F0A3F053F4F343FE0C5390F3120BC9E5C9
:10246800C654804449F5C6E59E547F644970F89087
:102478006185740FF09007F3E0F47002A3E0604EFA
:102488009007F4E0600814601B14602E80407521EA
:10249800017522009007F3E0782112167FE521F4F8
:1024A8005280802A7521017522009007F3E0782177
:1024B80012167FE521F452908014752101752200CF
:1024C8009007F3E0782112167FE521F452A07900F5
:1024D8007F0202181A74F712176EE9FEEAFF7401F8
:1024E8006E700C7A807B00900478E0F9120F4190AE
:1024F80026DCE493F46008E493F91209C5800953D3
:10250800C680E59E547F70FA120BCF9007F5E06401
:102518000170031209DD9007F3E0F47002A3E06094
:102528004B9007F4E0600814601A14602C803D7525
:1025380021017522009007F3E0782112167FE5212A
:10254800428080287521017522009007F3E07821E8
:1025580012167FE5214290801375210175220090A3
:1025680007F3E0782112167FE52142A0120C1D1214
:102578000B998A218B22A821A922E8496015E5E157
:1025880070FCE82414F582E93400F583E0F4600374
:10259800E0F5E174016F700A7A01900478E0F912AD
:1025A8000F950224D874ED12176E8A218B228C2382
:1025B8008D2474131216DE782512154A7821792590
:1025C800121337752901752AC8752B00752C005010
:1025D80012782179251214D67829792112133750C7
:1025E800168010782579211214D6782979251213A6
:1025F8003740047901800279007F0C02181A74EDC3
:1026080012176E8A218B228C238D2474131216DEE6
:10261800782512154A782579211213374011782127
:1026280079251214D6AA21AB22AC23AD24802275B9
:102638002900752A00752B00752C01782979251237
:1026480014D67829792112149DAA29AB2AAC2BAD6E
:102658002C80A6C082C083E9906000F0D083D0822D
:1026680022C2AF02000022C0E074F212185AA2AFD0
:10267800E433FED2AFE589A2E150031211817589D6
:1026880000C2C5754300EEA2E092AF7F010218B9FF
:10269800C0E074F212185AA2AFE433FED2AFE58B51
:1026A800A2E05003121181758B00C2E880D5C0E00A
:1026B800C0D0E8C0E0E9C0E0E5A8D2AFC2C7754322
:1026C80000A2E7A2E792AFD0E0F9D0E0F8D0D0D0EE
:0226D800E032EE
:1026DC00FFFFFFFFFFFFFFFFC082C083784C79082C
:1026EC0088828983A3A3A3A3A3A3E4F0888289830C
:1026FC00A3A3A3A3A374FFF0E82418F8E93400F90A
:10270C00E864AC7003E9640870D690084E74FFF06E
:10271C0090084DE4F090084CF090084FF0A3F002B4
:10272C003FDC74EC12170290084FE0F521A3E0F5A2
:10273C0022E521452270061209D102356A852182D3
:10274C00852283E014601814601524FE601124C4E3
:10275C007003022F7024C07003022F7002356AE0E0
:10276C00F9120B878A238B24AE23AF249004A6E0A6
:10277C007003022B6E120A79E9F875F005A4C8AA49
:10278C00F02AF974A928F525740439F526852582D3
:10279C00F583E0F523A3E0F524AC23FDEEFAEFFB83
:1027AC00120B81E9F527740265277003022B168E34
:1027BC00828F83E024FE600A24FE7003022A00024A
:1027CC00356AEE65217003EF652260211209EF90E6
:1027DC0007DAE0640170169007D9E07010790112E5
:1027EC000CA7120C77120CA17900120CADE5276026
:1027FC0021E5212415F582E5223400F583E06012F1
:10280C009007D5E0F8A3E0F9A3E0687003A3E069B2
:10281C007042120C058A258B268C278D287529036E
:10282C00752A00752B00752C007825792912149DBA
:10283C007529FF752AFF752BFF782579291214FE4F
:10284C008E828F83A3A3E525F0A3E526F0A3E527CD
:10285C00F0A3E4F0E5212415F582E5223400F5839C
:10286C00E064016003022918852382852483A3A3D5
:10287C007525F17526FF7527FF7528FF782512142D
:10288C00B078251219118E828F83A3A3C082C083C6
:10289C009007D7E0F521A3E0852125F526E4F5275F
:1028AC00F528D083D08278251214B0AA25AB26AC9B
:1028BC0027AD281225AD74041216A8E9701F8E825C
:1028CC008F83A3A3C082C0839007D7E0F521A3E038
:1028DC00F522E4F523F524D083D08280148523825D
:1028EC00852483A3A37521F17522FF7523FF75241D
:1028FC00FF78211214B07525FF7526FF7527FF751B
:10290C002800782179251214FE022E68EE240EF58B
:10291C0082EF3400F5831219288E828F83A3A312C1
:10292C0015681225AD74041216A8E964016003023F
:10293C00348B852382852483A3A37525F17526FF0B
:10294C007527FF7528FF78251214B07825121911F8
:10295C008E828F83A3A3C082C0839007D7E0F5211A
:10296C00A3E0852125F526E4F527F528D083D08230
:10297C0078251214B0AA25AB26AC27AD281225ADAC
:10298C0074041216A8E9701F8E828F83A3A3C082D1
:10299C00C0839007D7E0F521A3E0F522E4F523F5F9
:1029AC0024D083D0828014852382852483A3A375AD
:1029BC0021F17522FF7523FF7524FF78211214B0C5
:1029CC007525FF7526FF7527FF7528007821792559
:1029DC001214FEEE240EF582EF3400F583782112EA
:1029EC0015599007DDE06427700474258002E0041B
:1029FC00F002348BEE65217003EF65226031900795
:102A0C00F1E0F91209F5852182852283E0640270D8
:102A1C001E9007DAE0640170169007D9E070107907
:102A2C0000120CA7120C77120CA17901120CADE557
:102A3C002760129007EBE0F8A3E0F9A3E0687003BD
:102A4C00A3E0697039120C058A258B268C278D28FA
:102A5C00752903752A00752B00752C0078257929AA
:102A6C0012149D7529FF752AFF752BFF782579297E
:102A7C001214FE8E828F83A3A378251215598523F9
:102A8C0082852483A3A37525F17526FF7527FF7511
:102A9C0028FF78251214B078251219118E828F8395
:102AAC00A3A3C082C0839007EDE0F521A3E08521AC
:102ABC0025F526E4F527F528D083D0827825121445
:102ACC00B0AA25AB26AC27AD281225AD740412167E
:102ADC00A8E9701F8E828F83A3A3C082C083900746
:102AEC00EDE0F521A3E0F522E4F523F524D083D025
:102AFC00828014852382852483A3A37521F17522FA
:102B0C00FF7523FF7524FF02327485218285228391
:102B1C00E0640270139007DAE06401700B9007D93F
:102B2C00E070057900120CA7E5252404FEE5263497
:102B3C0000FF8E828F83E0F9120BBD8E828F83E0B3
:102B4C009004A7F07902FA75F005A4CAA8F028FB46
:102B5C0074A92AFA74043BFB121E43AA23AB240269
:102B6C003567EE65217003EF65228E828F836003DB
:102B7C00022D8AE024FE600A24FE7003022CC70298
:102B8C003563EE2415F582EF3400F583E0604C904C
:102B9C0007D5E0F8A3E0F9A3E0687003A3E069604F
:102BAC003A120C058A218B228C238D2475250A75EB
:102BBC0026007527007528007821792512149D7838
:102BCC00211219118E828F83A3A31215681225ADC1
:102BDC0074041216A8E96003023563120C058A21ED
:102BEC008B228C238D247525037526007527007583
:102BFC0028007821792512149D7525FF7526FF75FF
:102C0C0027FF782179251214FE8E828F83A3A37857
:102C1C0021121559EE2415F582EF3400F583E0648A
:102C2C000170328E828F83A3A3C082C0839007D79A
:102C3C00E0F521A3E0F522E4F523D083D0827821BE
:102C4C001214B0EE240EF582EF3400F583782112C5
:102C5C001559023563EE240EF582EF3400F583121C
:102C6C0019288E828F83A3A31215681225AD7404C4
:102C7C001216A8E9640160030235638E828F83A368
:102C8C00A3C082C0839007D7E0F521A3E0F522E42E
:102C9C00F523D083D08278211214B0EE240EF58265
:102CAC00EF3400F58378211215599007DDE0642785
:102CBC00700474258002E0040235629007EBE0F8A2
:102CCC00A3E0F9A3E0687003A3E0696037120C0578
:102CDC008A218B228C238D2475250A752600752755
:102CEC00007528007821792512149D78211219116C
:102CFC008E828F83A3A31215681225AD740412164D
:102D0C00A8E97077EE2402F521EF3400F522120CBD
:102D1C00058A258B268C278D28752903752A007525
:102D2C002B00752C007825792912149D7529FF75B7
:102D3C002AFF752BFF782579291214FE85218285AF
:102D4C0022837825121559852182852283C082C061
:102D5C00839007EDE0F521A3E0F522E4F523F524BB
:102D6C00D083D08278211214B0EE240EF582EF3489
:102D7C0000F58378211215591209FB023563E02402
:102D8C00FE600A24FE7003022E7A02356A1209EFE5
:102D9C009007DAE0640170169007D9E070107901A1
:102DAC00120CA7120C77120CA17900120CAD900723
:102DBC00D5E0F8A3E0F9A3E0687003A3E0696037FD
:102DCC00120C058A218B228C238D2475250A7526DD
:102DDC00007527007528007821792512149D78211B
:102DEC001219118E828F83A3A31215681225AD744C
:102DFC00041216A8E97074EE2402F521EF3400F5E4
:102E0C0022120C058A258B268C278D287529037593
:102E1C002A00752B00752C007825792912149D75C4
:102E2C0029FF752AFF752BFF782579291214FE8549
:102E3C00218285228378251215598521828522834A
:102E4C00C082C0839007D7E0F521A3E0F522E4F51A
:102E5C0023F524D083D08278211214B0EE240EF501
:102E6C0082EF3400F583782112155902348B9007C8
:102E7C00F1E0F91209F5852182852283E064027064
:102E8C001E9007DAE0640170169007D9E070107993
:102E9C0000120CA7120C77120CA17901120CAD9038
:102EAC0007EBE0F8A3E0F9A3E0687003A3E0696026
:102EBC0037120C058A218B228C238D2475250A75DB
:102ECC0026007527007528007821792512149D7825
:102EDC00211219118E828F83A3A31215681225ADAE
:102EEC0074041216A8E97079EE2402F8EF3400F994
:102EFC0088218922120C058A258B268C278D287512
:102F0C002903752A00752B00752C00782579291258
:102F1C00149D7529FF752AFF752BFF7825792912C9
:102F2C0014FE8521828522837825121559852182EC
:102F3C00852283C082C0839007EDE0F521A3E0F5E4
:102F4C0022E4F523F524D083D08278211214B0EE3C
:102F5C00240EF582EF3400F58378211215591209ED
:102F6C00FB02355D9004A6E07003023381120A79EE
:102F7C00E9F875F005A4C8AAF02AF974A928F5296E
:102F8C00740439F52A852982F583E0F521A3E0F54F
:102F9C00229004A7E0F875F005A4C8AAF02AF974E9
:102FAC00A928F525740439F52690084DE0540770CE
:102FBC000302328FA3E0F9120B878A238B24AE23F2
:102FCC00AF24AC21AD22120B81E9F52774026527E1
:102FDC00700302328F852582852683A3A3A3A3E0E9
:102FEC00F875F08AA4C8AAF02AF974B128F52374EC
:102FFC000839F524AA23FB120BB1AA23AB24120B1C
:10300C00AB752B80752C00782B1219157C007D600C
:10301C00E5232406FAE5243401FB120AF1740212AA
:10302C0016A8A823A924906195E0C0E0E82486F5B1
:10303C0082E93401F583D0E0F0906196E0C0E0E8DD
:10304C002487F582E93401F583D0E0F0906197E0B4
:10305C00C0E0E82488F582E93401F583D0E0F090F3
:10306C006198E0C0E0E82489F582E93401F583D069
:10307C00E0F08E828F83E024FE600A24FE7003024F
:10308C00319A02328F1209EF9007DAE06401701165
:10309C009007D9E0700B120C77120CA17900120C6E
:1030AC00ADE52760129007D5E0F8A3E0F9A3E0683E
:1030BC007003A3E0697036120C058A258B268C27C9
:1030CC008D28752903752A00752B0078257929120E
:1030DC00149D7529FF752AFF752BFF782579291208
:1030EC0014FE8E828F83A3A3782512155985218215
:1030FC00852283A3A37525F17526FF7527FF7528F7
:10310C00FF78251214B078251219118E828F83A3A3
:10311C00A3C082C0839007D7E0F525A3E0F526E491
:10312C00F527F528D083D08278251214B0AA25ABC8
:10313C0026AC27AD281225AD74041216A8E9701F11
:10314C008E828F83A3A3C082C0839007D7E0F52122
:10315C00A3E0F522E4F523F524D083D082801485F6
:10316C002182852283A3A37521F17522FF7523FF8C
:10317C007524FF78211214B07525FF7526FF75276D
:10318C00FF752800782179251214FE02347C9007F3
:10319C00F1E0F91209F5E52760129007EBE0F8A3CE
:1031AC00E0F9A3E0687003A3E0697036120C058A9D
:1031BC00258B268C278D28752903752A00752B00E5
:1031CC007825792912149D7529FF752AFF752BFF17
:1031DC00782579291214FE8E828F83A3A378251269
:1031EC001559852182852283A3A37525F17526FFA8
:1031FC007527FF7528FF78251214B0782512191140
:10320C008E828F83A3A3C082C0839007EDE0F52547
:10321C00A3E0F526E4F527F528D083D08278251293
:10322C0014B0AA25AB26AC27AD281225AD74041218
:10323C0016A8E9701F8E828F83A3A3C082C08390CF
:10324C0007EDE0F521A3E0F522E4F523F524D08386
:10325C00D0828014852182852283A3A37521F175E8
:10326C0022FF7523FF7524FF78211214B07525FFFA
:10327C007526FF7527FF752800782179251214FE15
:10328C0002354BE52965257004E52A652670030295
:10329C00335F852582852683A3A3A3E070030233C5
:1032AC0043852582852683A3A3A3A3E0F875F08A22
:1032BC00A4C8AAF02AF974B128FE740839FFEEFAF2
:1032CC00EFFB120BB1EEFAEFFB120BAB7523807513
:1032DC00240078231219157C007D60EE2406FAEF89
:1032EC003401FB120AF174021216A8906195E0C029
:1032FC00E0EE2486F582EF3401F583D0E0F09061A6
:10330C0096E0C0E0EE2487F582EF3401F583D0E03F
:10331C00F0906197E0C0E0EE2488F582EF3401F57F
:10332C0083D0E0F0906198E0C0E0EE2489F582EF64
:10333C003401F583D0E0F0E5292404FEE52A3400BD
:10334C00FF8E828F83E0F9120BBD8E828F83E0900B
:10335C0004A7F079029004A7E0FA75F005A4CAA8B6
:10336C00F028FB74A92AFA74043BFB121E43AA2111
:10337C00AB2202356790084DE05407700302356AA2
:10338C00A3E0F9120B878A218B22AE21AF228E8209
:10339C008F83E024FE600A24FE700302349302350E
:1033AC006A1209EF9007DAE0640170169007D9E011
:1033BC0070107901120CA7120C77120CA179001263
:1033CC000CAD9007D5E0F8A3E0F9A3E0687003A377
:1033DC00E0696037120C058A218B228C238D2475B1
:1033EC00250A752600752700752800782179251285
:1033FC00149D78211219118E828F83A3A312156844
:10340C001225AD74041216A8E97074EE2402F5218D
:10341C00EF3400F522120C058A258B268C278D287B
:10342C00752903752A00752B00752C0078257929D0
:10343C0012149D7529FF752AFF752BFF78257929A4
:10344C001214FE8521828522837825121559852137
:10345C0082852283C082C0839007D7E0F521A3E048
:10346C00F522E4F523F524D083D08278211214B010
:10347C00EE240EF582EF3400F58378211215599065
:10348C00084E74020235629007F1E0F91209F590CA
:10349C0007EBE0F8A3E0F9A3E0687003A3E0696030
:1034AC0037120C058A218B228C238D2475250A75E5
:1034BC0026007527007528007821792512149D782F
:1034CC00211219118E828F83A3A31215681225ADB8
:1034DC0074041216A8E97076EE2402F8EF3400F9A1
:1034EC0088218922120C058A258B268C278D28751C
:1034FC002903752A00752B00752C00782579291263
:10350C00149D7529FF752AFF752BFF7825792912D3
:10351C0014FE8521828522837825121559852182F6
:10352C00852283C082C0839007EDE0F521A3E0F5EE
:10353C0022E4F523F524D083D08278211214B0EE46
:10354C00240EF582EF3400F58378211215591209F7
:10355C00FB90084E7404F0EEFAEFFB120B7B7F0C21
:10356C000217D474F0121702EAFEEBFFEE2402F8F5
:10357C00EF3400F988218922EE2406F8EF3400F9A3
:10358C00882389248882F58312192C85218285222F
:10359C0083121568120BE174021216A8852382851A
:1035AC00248312192C852182852283121568120B13
:1035BC00D574021216A8EE240EF582EF3400F583B2
:1035CC00121568120BE78E828F83E06440701CEE3C
:1035DC002412F8EF3400F988828983E0906064F05B
:1035EC0088828983A3E09060658006906064E4F033
:1035FC00A3F090084FEEF0A3EFF0EE2416F582EF57
:10360C003400F583E0F8A3E0F5838882121700906C
:10361C006054E4F0A3F0A3F0A3F0A3F0A3F0A3F0A4
:10362C00A3F0A3F0A3F0A3F0A3F0906182E0C2E6B4
:10363C00F07591BFEE2415F582EF3400F583E0644C
:10364C00017003120C1DE5E170FCEE2414F582EF01
:10365C003400F583E0F46003E0F5E1EE2415F58227
:10366C00EF3400F5837401F090047FE06401707313
:10367C00120C058A218B228C238D2478211219118E
:10368C008E828F83A3A31215681226067404121659
:10369C00A88A218B228C238D24752505752600750F
:1036AC002700752800782179251213767403782168
:1036BC00121465E52124F4F521E5223401F522905C
:1036CC0007F7E06003120F6BE4F523F52478211261
:1036DC0019117A207B00900478E0F9120FB9740468
:1036EC001216A87F080217D474EA121702EAFEEB2E
:1036FC00FF8C2D8D2EEE4F7003023810120C058AA4
:10370C00218B228C238D24752501752600752700AD
:10371C007528007821792512149D7525FF7526FFD3
:10372C007527FF782179251214FE8E828F83E06431
:10373C000270149007D5E0F8A3E0F9A3E0687003D9
:10374C00A3E06970248017E06404701D9007EBE01F
:10375C00F8A3E0F9A3E0687003A3E069700B8E8214
:10376C008F83A3A3782112155975291A752A007510
:10377C002B00752C007821121911852D82852E8332
:10378C00A3A312156812260674041216A88A258B98
:10379C00268C278D28782979251213374066852D9C
:1037AC0082852E83A3A37525E77526FF7527FF75E4
:1037BC0028FF78251214B078251219118E828F8368
:1037CC00A3A31215681225AD74041216A8E970345F
:1037DC007525077526007527007528007821792531
:1037EC0012149D78211219118E828F83A3A31215A6
:1037FC00681225AD74041216A8E9700479008006CD
:10380C007901800279027F0E0217D474F01217022C
:10381C00892174FF652160030239A590084DE0549D
:10382C00077003023E817A00784C7908888289837C
:10383C00A3A3A3A3A3E06404703FEA75F018A4F853
:10384C00A9F0745228F582740839F583E06401708C
:10385C00377A00784C790888828983A3A3A3A3A321
:10386C00E0640460030238FA88828983A3A3A3A3CB
:10387C00A3A3E06401707780630AE82418F8E934A4
:10388C0000F9EAC3940440A47A00784C7908888241
:10389C008983A3A3A3A3A3E064017067EA75F0185E
:1038AC00A4F8A9F0745228F582740839F583E06401
:1038BC000170627A00784C790888828983A3A3A36B
:1038CC00A3A3E06401600302398188828983A3A3E6
:1038DC00A3A3A3A3E064016003023981EA75F01885
:1038EC00A4F8A9F0745128FA740839023E7E0AE84B
:1038FC002418F8E93400F9EAC3940450030238633D
:10390C00023E810AE82418F8E93400F9EAC3940469
:10391C00500302389A7A00784C790888828983A3FC
:10392C00A3A3A3A3E064027061EA75F018A4F8A93C
:10393C00F0745228F582740839F583E064017059EB
:10394C007A00784C790888828983A3A3A3A3A3E087
:10395C006402707A88828983A3A3A3A3A3A3E064DF
:10396C0001706BEA75F018A4F8A9F0745128FA7478
:10397C000839FB806F0AE82418F8E93400F9EAC327
:10398C00940450030238C5023E810AE82418F8E971
:10399C003400F9EAC3940440827A00784C790888A0
:1039AC00828983A3A3A3A3A3E06521703A888289AB
:1039BC0083A3A3A3A3A3A3E06401702BEA75F0185F
:1039CC00A4F8A9F0745128FE740839FF802C0AE879
:1039DC002418F8E93400F9EAC3940450030239526C
:1039EC007A007B00023E850AE82418F8E93400F9D5
:1039FC00EAC3940440A97E007F007A00784C7908D1
:103A0C0088828983A3A3A3A3A3E06521701BEA7515
:103A1C00F018A4F8A9F0745228F582740839F583CB
:103A2C00E0640170137A0180110AE82418F8E93473
:103A3C0000F9EAC3940440C87A00E521146010141C
:103A4C007003023BBC24FE7003023CCF023E817B20
:103A5C0000784C790888828983A3A3A3A3A3E0648C
:103A6C00027052EB75F018A4F8A9F0745228F58284
:103A7C00740839F583E06401704A7B00784C79084E
:103A8C0088828983A3A3A3A3A3E064026003023BFF
:103A9C002A88828983A3A3A3A3A3A3E06401707ED5
:103AAC00EB75F018A4F8A9F0745128F523740839B3
:103ABC00F524023B420BE82418F8E93400F9EBC377
:103ACC00940440917B00784C790888828983A3A365
:103ADC00A3A3A3E064046003023B83EB75F018A47A
:103AEC00F8A9F0745228F582740839F583E0640162
:103AFC006003023B957B00784C790888828983A30C
:103B0C00A3A3A3A3E064046003023BA0888289837F
:103B1C00A3A3A3A3A3A3E064017079023D230BE844
:103B2C002418F8E93400F9EBC394045003023A8CDE
:103B3C00752300752400EAA2E05035852382852484
:103B4C0083A3A37525F67526FF7527FF7528FF78C7
:103B5C00251214B078251219118E828F83A3A3120B
:103B6C0015681225AD74041216A8E97003023E7B89
:103B7C00AA23AB24023E850BE82418F8E93400F99B
:103B8C00EBC394045003023AD6EAA2E0501BEEFABF
:103B9C00EFFB80190BE82418F8E93400F9EBC39417
:103BAC00045003023B07023DC87A007B00023E85AD
:103BBC007B00784C790888828983A3A3A3A3A3E014
:103BCC0064047040EB75F018A4F8A9F0745228F551
:103BDC0082740839F583E0640170387B00784C7985
:103BEC000888828983A3A3A3A3A3E06404600302CF
:103BFC003C8188828983A3A3A3A3A3A3E06401705F
:103C0C0074023D230BE82418F8E93400F9EBC39453
:103C1C000440A37B00784C790888828983A3A3A3F2
:103C2C00A3A3E064017063EB75F018A4F8A9F07419
:103C3C005228F582740839F583E06401705B7B00CF
:103C4C00784C790888828983A3A3A3A3A3E0640199
:103C5C00705288828983A3A3A3A3A3A3E0640170F9
:103C6C0043EB75F018A4F8A9F0745128F5237408E7
:103C7C0039F52480440BE82418F8E93400F9EBC337
:103C8C0094045003023BED023DC80BE82418F8E9FC
:103C9C003400F9EBC394044080EAA2E0501EEEFA23
:103CAC00EFFB801C0BE82418F8E93400F9EBC39403
:103CBC00044091752300752400023DCE7A007B00F0
:103CCC00023E857B00784C790888828983A3A3A364
:103CDC00A3A3E064017055EB75F018A4F8A9F07477
:103CEC005228F582740839F583E06401704D7B002D
:103CFC00784C790888828983A3A3A3A3A3E06401E9
:103D0C006003023DB688828983A3A3A3A3A3A3E087
:103D1C0064016003023DB6EB75F018A4F8A9F074C9
:103D2C005128F523740839F524023DCE0BE82418EC
:103D3C00F8E93400F9EBC39404408E7B00784C799D
:103D4C000888828983A3A3A3A3A3E064026003026F
:103D5C003E0DEB75F018A4F8A9F0745228F5827496
:103D6C000839F583E064016003023E1F7B00784C48
:103D7C00790888828983A3A3A3A3A3E064026003C8
:103D8C00023E2688828983A3A3A3A3A3A3E0640194
:103D9C006003023E26EB75F018A4F8A9F0745128C4
:103DAC00F523740839F524023E3E0BE82418F8E993
:103DBC003400F9EBC394045003023D0075230075E5
:103DCC002400EAA2E04003023B7C85238285248305
:103DDC00A3A37525F67526FF7527FF7528FF782593
:103DEC001214B078251219118E828F83A3A3121589
:103DFC00681225AD74041216A8E96003023B7C809E
:103E0C006E0BE82418F8E93400F9EBC39404500362
:103E1C00023D4DEAA2E0505D80550BE82418F8E90C
:103E2C003400F9EBC394045003023D7E75230075F6
:103E3C002400EAA2E04003023B7C85238285248394
:103E4C00A3A37525F67526FF7527FF7528FF782522
:103E5C001214B078251219118E828F83A3A3121518
:103E6C00681225AD74041216A8E96003023B7CEEBF
:103E7C00FAEFFB80047A007B000236EF74F612171F
:103E8C00028922752100784C790888828983A3A342
:103E9C00A3A3A3A3E06003023F64E52175F018A47B
:103EAC00F8A9F0745128FE740839FF8E828F83A311
:103EBC007401F08E828F83E522F0120C058E828FB6
:103ECC0083A3A31215748E828F83A3A3A3A3A3A38E
:103EDC00E4F0A3F0EE240EF582EF3400F58374FFCA
:103EEC00F0A3F0A3F0A3F0EE2414F582EF3400F568
:103EFC00837401F0EE2415F582EF3400F583740120
:103F0C00F0EE2416F582EF3400F583E4F0A3F09084
:103F1C00084DE04522F090084CE004F06401600C80
:103F2C00748065226006744065227019E52175F075
:103F3C0018A4F8A9F0745128F8740839F990084FAE
:103F4C00E8F0A3E9F0E52175F018A4F8A9F0745194
:103F5C0028FA740839FB80180521E82418F8E9348C
:103F6C0000F9E521C394045003023E967A007B00CD
:103F7C0080007F020217D4C082C0838A828B83E0C8
:103F8C00F8A3E0F98A828B83E4F0A3F0888289831A
:103F9C00A3F088828983E0F4F890084DE058F09003
:103FAC00084CE014F0700B90084FE4F0A3F0900470
:103FBC0079F0801CC082C08390084CE0600A9008A5
:103FCC004FE0FAA3E0FB80047A007B008002E0F96A
:103FDC00D083D082020132C082C083E9FB7A0078A0
:103FEC004C790888828983A3A3A3A3A3E06B7016E2
:103FFC00EA75F018A4F8A9F0745228F582740839FF
:10400C00F583E0F980110AE82418F8E93400F9EA9C
:10401C00C3940440CE790080B7C082C08390084C12
:10402C00023FDA74F6121702EAFEEBFF9061D0E061
:10403C00C0E0EE2400F582EF3401F583D0E0F0907F
:10404C0061D7E0F89061D5E0C398547FC0E0EE24CE
:10405C0001F582EF3401F583D0E0F09061D6E0C336
:10406C0098547FC0E0EE2402F582EF3401F583D042
:10407C00E0F0701A9061C5E0A2E45012E0A2E750A3
:10408C000DEE2402F582EF3401F5837480F0120CEE
:10409C00D1EE2401F582EF3401F583E07034EE2487
:1040AC0002F582EF3401F583E070279061C5E0A240
:1040BC00E4501FE0A2E7501AEE2402F582EF34011F
:1040CC00F5837480F0EE2401F582EF3401F58374EE
:1040DC0080F075E1957800EE2400F582EF3401F55F
:1040EC0083E060279061D3E0C0E08821EE2521F5C4
:1040FC0082EF3400F583D0E0F008EE2400F582EF77
:10410C003401F583E0F9E8C39940D975E191023F98
:10411C007E74F6121702EAFEEBFF9061C8E0C0E075
:10412C00EE2403F582EF3401F583D0E0F09061CFFB
:10413C00E0F89061CDE0C398547FC0E0EE2404F524
:10414C0082EF3401F583D0E0F09061CEE0C3985457
:10415C007FC0E0EE2405F582EF3401F583D0E0F06A
:10416C00701A9061C5E0A2E05012E0A2E3500DEE8F
:10417C002405F582EF3401F5837480F0120CD7EE30
:10418C002404F582EF3401F583E07034EE2405F558
:10419C0082EF3401F583E070279061C5E0A2E05016
:1041AC001FE0A2E3501AEE2405F582EF3401F583EB
:1041BC007480F0EE2404F582EF3401F5837480F002
:1041CC00120CDD7A00EE2403F582EF3401F583E066
:1041DC00602F9061CBE0C0E08A21EE2521F8EF340E
:1041EC0000F9E82480F582E93400F583D0E0F00A88
:1041FC00EE2403F582EF3401F583E0F8EAC398402E
:10420C00D175E181023F7E74F41217028921A82135
:10421C00E875F08AA4C8AAF02AF974B128FE7408CB
:10422C0039FFEEFAEFFB120BB1EEFAEFFB120BAB10
:10423C0075238075240078231219157C007D60EE9F
:10424C002406FAEF3401FB120AF174021216A8903C
:10425C006195E0C0E0EE2486F582EF3401F583D061
:10426C00E0F0906196E0C0E0EE2487F582EF340137
:10427C00F583D0E0F0906197E0C0E0EE2488F58201
:10428C00EF3401F583D0E0F0906198E0C0E0EE24CB
:10429C0089F582EF3401F583D0E0F07F040217D466
:1042AC0074F21217028921A821E875F08AA4C8AA11
:1042BC00F02AF974B128F8740839F99061C6E0FD58
:1042CC00E054F0F075E1817C00E82403F582E934D8
:1042DC0001F583E0602B8C23E82523FAE93400FBFD
:1042EC00EA2480F582EB3400F583E09061CAF00C8F
:1042FC00E82403F582E93401F583E0FAECC39A4033
:10430C00D5E82405F582E93401F583E06004906179
:10431C00CEF0E82404F582E93401F583E0600490E2
:10432C0061CDF0ED9061C6F0A821E875F08AA4C8C3
:10433C00AAF02AF974B128F8740839F9E0FCE054B1
:10434C000FF075E1917A00E82400F582E93401F56B
:10435C0083E060238A23E82523F582E93400F58382
:10436C00E09061D2F00AE82400F582E93401F5838B
:10437C00E0FBEAC39B40DDE82402F582E93401F559
:10438C0083E060049061D6F0E82401F582E9340101
:10439C00F583E060049061D5F0EC9061C6F0852166
:1043AC0082AE82EEF875F08AA4C8AAF02AF974B12C
:1043BC0028F523740839F524752580752600782591
:1043CC00121915E5232406FCE5243401FD7A007B43
:1043DC0060120AF174021216A8A823A924E82486F4
:1043EC00F582E93401F583E0906195F0E82487F5D6
:1043FC0082E93401F583E0906196F0E82488F58237
:10440C00E93401F583E0906197F0E82489F582E9BD
:10441C003401F583E0906198F0EE75F005A4CEA818
:10442C00F028FF74A92EF58274043FF583E0F8A3FD
:10443C00E0F5838882E06480704190101D7433F045
:10444C00A3740BF0A3741BF0A3740BF0A37433F0E0
:10445C00A3740BF0A37433F0A3740BF0A3741BF0D0
:10446C00A3740BF0A37433F0A3740BF0A37439F0A2
:10447C00A3740BF090047974088005900479740788
:10448C00F090102B741BF0A3740BF0A3741BF0A30F
:10449C00740BF0A3741BF0A3740BF0A3741BF0A3A8
:1044AC00740BF0A3741BF0A3740BF0A3741BF0A398
:1044BC00740BF07F060217D4C082C0839061907495
:1044CC0004F0A37448F0A37402F09061807440F07F
:1044DC009061BC7403F09061877419F090626574FC
:1044EC001BF0906249E0C3941390619C400A7409DC
:1044FC00F090606674018007740DF0906066E4F0D3
:10450C0090619A7433F0A37455F09061A0743AF0F2
:10451C009007F5E064017009C29190047D74678086
:10452C000590047D7461F09026E2E493906186F02E
:10453C009026DCE493F46027E493540FF8906185A3
:10454C00E0686012E5C654804449F5C6E59E547F88
:10455C00644970F8E8F053C680E59E547F70FA7990
:10456C0005120CCB024965C082C083E9540FF99047
:10457C006185E0696012E5C654804449F5C6E59E44
:10458C00547F644970F8E9F053C680E59E547F70FF
:10459C00FA024965C082C083E5A8F853A87E9061F1
:1045AC0081E4F0A3F0A3F0C2BA539AFEC289759BC2
:1045BC0000C2C275E90075910075BF0075A911752F
:1045CC00B905906181F0A374C0F0A3E4F0D2BA43B2
:1045DC009A0174805842A8024965F0024965C0826C
:1045EC00C08374F812169290047BE0F8A3E0F9E80B
:1045FC0049700302471890047BE05440602379080B
:10460C00854182854283AA82AB83120AD38541827B
:10461C00854283AA82AB831207CD90047BE054BF02
:10462C00F0E054806010790C7A1B7B08120AD3904E
:10463C00047BE0547FF0E0A2E0503190619A743337
:10464C00F0A37455F09061A0743AF09007F5E06413
:10465C00017009C29190047D7467800590047D748B
:10466C0061F01207D390047BE054FEF0E05402603A
:10467C003190619A743FF0A3745AF09061A0747FEA
:10468C00F09007F5E064017009D29190047D74718B
:10469C00800590047D746AF01207D390047BE0547B
:1046AC00FDF0E0540460139026E0E493906186F0F2
:1046BC001207D990047BE054FBF0E054086013908F
:1046CC0026E1E493906186F01207D990047BE054C4
:1046DC00F7F0E0541060139026E2E493906186F0BA
:1046EC001207D990047BE054EFF0E05420600A12DA
:1046FC0007D990047BE054DFF0A3E05401600D1265
:10470C0009DD1207DF90047CE054FEF074081216E9
:10471C00A802496574EC12170274F41216928541C2
:10472C0082854283AC82AD8375838275827C7404EE
:10473C001215A59026E093F460030248AC9078081B
:10474C00E0C39402500302488C74041216DEAC824F
:10475C00AD8375838275821774081215A585418205
:10476C0085428385822B85832C74041216DEAC82E1
:10477C00AD837527FF7528FF7FFF7E007525487573
:10478C002678801574086E700302482074096E70C8
:10479C0003024820740A6E607B8525828526837807
:1047AC002112154A8C828D83A922E523C9F8882908
:1047BC0074187821121465E5294521F8C3E098A3F3
:1047CC00E099852582852683782112154A40188C1C
:1047DC00828D8374187821121465E5294521F8E03F
:1047EC00C398F8A3E0801C74187821121465E5298D
:1047FC004521FAE9FB8C828D83E0F8A3E0F9EAC34A
:10480C0098F8EB99F9C3E89527E99528500688277D
:10481C008928EEFF0EE5252404F525E5263400F560
:10482C0026EEC39413500302479074FF652770045F
:10483C0074FF652860238F217402782112167F740F
:10484C00482521F58274783522F583782112154A92
:10485C00852B82852C83E521F0EC2402FCED3400C1
:10486C00FD852B82852C83A385822B85832C740C50
:10487C001216DEE5826C7003E5836D600302477EE1
:10488C00752101752200782112191574021216DE99
:10489C00AC82AD837AB87B0912115774021216A838
:1048AC00740C1216A87F0C0217D4C082C0839061BE
:1048BC00AE7468F0A3746AF090624574FBF0A304C4
:1048CC00F053F4FD43FE029007F57401F09061A0E3
:1048DC00E0643A90619A70237433F0A37455F090AD
:1048EC0061A0743AF0740164017009C29190047D66
:1048FC007467802890047D74618021743FF0A374E8
:10490C005AF09061A0747FF0740164017009D29127
:10491C0090047D7471800590047D746A0245E6C034
:10492C0082C0839007D3E0640170119007D9E064D2
:10493C00016019E07006A3E0640160109007EAE0E2
:10494C006401700C9007F0E064017004790C800233
:10495C0079008005E0F912265BD083D08202013207
:10496C00C082C0839007DD7425F09007DB7401F0E2
:10497C00A3E4F07A01FB120C479007C9E0F8A3E01E
:10498C00C82416F582E83400F5837401F0A3740A88
:10499C00F09007DAE0640170169007D9E070107996
:1049AC0001120CA7120C77120CA17900120CB30295
:1049BC004965C082C08374FA1216929007D2E064E3
:1049CC000170081209E99007D2E4F075E1F1900743
:1049DC00C9E0F8A3E0C82415F582E83400F5837427
:1049EC0001F09007D4E06401707690822EC082852D
:1049FC004182854283AC82AD83758382D0827406FA
:104A0C001215A575D90D9007CBE0C4333354C044AF
:104A1C0003F5D978C9790788828983A3A3A3E0F524
:104A2C00D988828983A3A882A983E864CF7003E91B
:104A3C00640770E3854182854283A882A9838882BA
:104A4C008983E0F5D9A3A882A98374061216DEE542
:104A5C0082687003E5836970E575E19579018002E0
:104A6C007900120C4D90101D7451F0A3740BF0A32F
:104A7C007457F0A3740BF0A37451F0A3740BF0A350
:104A8C007451F0A3740BF0A3741BF0A3740BF0A37C
:104A9C00741BF0A3740BF0A3745DF0A3740BF09073
:104AAC00102B741BF0A3740BF0A3741BF0A3740BEA
:104ABC00F0A3741BF0A3740BF0A3741BF0A3740B82
:104ACC00F0A3741BF0A3740BF0A3741BF0A3740B72
:104ADC00F09007CBE0F97ACC7B07120C299007DD1C
:104AEC00E0F912265B7901120C537AD67BBE7C89D5
:104AFC007D8E120C6B7A557B557C557D00120C35D6
:104B0C007900120CBF9007C9E0F8A3E0C82414F593
:104B1C0082E83400F5837416F09004797405F0047F
:104B2C0002471A74F71217028921A821E875F005BB
:104B3C00A4C8AAF02AF974A928FE740439FF9007B6
:104B4C00E2E0F97AE37B07120C299007F0E0701A87
:104B5C007900120C899007B8E07004790080027912
:104B6C00017AB97B07120C2F80057901120C89751B
:104B7C00E1F175D9239007E2E0C4333354C0440506
:104B8C00F5D978E0790788828983A3A3A3E0F5D9C6
:104B9C0088828983A3A882A983E864E67003E96408
:104BAC000770E375D90075D90075D90075D90075F2
:104BBC00D90075D900EEF8EFF9E82404FAE93400CD
:104BCC00FBE82422F582E93400F583E0F5D98882EC
:104BDC008983A3A882A983EA687002EB6970E2EE6C
:104BEC00F8EFF9E824031AE93400FBE82426F582EF
:104BFC00E93400F583E0F5D988828983A3A882A9DA
:104C0C0083EA687002EB6970E2EE242BF582EF34D4
:104C1C0000F583E0F5D9EE242CF582EF3400F58312
:104C2C00E0F5D9EE242DF582EF3400F583E0F5D9CB
:104C3C00EE242EF582EF3400F583E0F5D9EE242F27
:104C4C00F582EF3400F583E0F5D9EE2430F582EFF0
:104C5C003400F583E0F5D9EE2431F582EF3400F51C
:104C6C0083E0F5D9EE2432F582EF3400F583E0F5DC
:104C7C00D9EE2433F582EF3400F583E0F5D9EEF864
:104C8C00EFF9E82405FAE93400FBE8245DF582E944
:104C9C003400F583E0F5D988828983A3A882A9839F
:104CAC00EA687002EB6970E2EE2437F582EF3400AB
:104CBC00F583E0541FF8EE242AF582EF3400F583D7
:104CCC00E0C43354E048F5D975E19590101D74217A
:104CDC00F0A3740BF0A37427F0A3740BF0A3741B54
:104CEC00F0A3740BF0A3741BF0A3740BF0A3741B50
:104CFC00F0A3740BF0A3741BF0A3740BF0A3742D2E
:104D0C00F0A3740BF090102B741BF0A3740BF0A396
:104D1C00741BF0A3740BF0A3741BF0A3740BF0A31F
:104D2C00741BF0A3740BF0A3741BF0A3740BF0A30F
:104D3C00741BF0A3740BF09007EFE0F912265B7A6A
:104D4C00D67BBE7C897D8E120C6B7A557B557C553F
:104D5C007D00120C3590600DE4F07901120CBF90BF
:104D6C0004797406F002532874E81217029007E0D5
:104D7C00E0F8A3E0F5838882A3A3782512154A9066
:104D8C0007F1E0FAF875F005A4C8ACF02CF974D76B
:104D9C0028F582740439F583E0FEA3E0FFEEC333FB
:104DAC00FEEF33FF8E2DF52E752F00753000852507
:104DBC0021852622852723852824752904752A0018
:104DCC00752B00752C007821792912149D782112ED
:104DDC0019118525218526228527238528247821CC
:104DEC00792D12149D7825792D1213F6E4F52FF5F3
:104DFC00307821792D1214D68A2575260074037803
:104E0C002512167FE5263395E0F527F528782179CC
:104E1C002512149D7525FF7526FF7527FF782179BE
:104E2C00251214FEAA21AB22AC237D001226067497
:104E3C00041216A88A218B22A821A922C3EE98EF6E
:104E4C00995006E82EF8E93FF9E890600EF0E9A3D6
:104E5C00F0EEA3F0EFA3F090600D74C1F07F1002A0
:104E6C0017D4C082C0839007C9E0F8A3E0C8240619
:104E7C00F582E83400F583E4F0A3F09007DD0249F5
:104E8C0060C082C0839007E0E0F8A3E0C82406F578
:104E9C0082E83400F583E4F0A3F09007EF02496058
:104EAC0002013274F61217029061D0E0F87480C3DC
:104EBC0098FCEA2482F582EB3400F583E0600478F8
:104ECC000480027800E8240EF8ECC3985003024FDB
:104EDC00DB7C0C9007FBE4F0EA2476F582EB3400E3
:104EEC00F583E09007FCF0EA2477F8EB3400F988BE
:104EFC00828983E09007FDF088828983A3E0900784
:104F0C00FEF0EA2479F8EB3400F988828983E0908A
:104F1C0007FFF088828983A3E0900800F0EA247BE5
:104F2C00F8EB3400F988828983E0900801F08882DC
:104F3C008983A3E0900802F0EA247DF8EB3400F9B1
:104F4C0088828983E0900803F088828983A3E090AB
:104F5C000804F0EA2474F8EB3400F98A828B83A3FA
:104F6C00A3A3A3A3E0FEA3E0FF88828983E02EF035
:104F7C00A3E03FF088828983E0900805F08882895D
:104F8C0083A3E0900806F0EA2482F582EB3400F566
:104F9C0083E060177521FB752207782112191579AA
:104FAC0003120B0F74021216A87C1074012CF5D985
:104FBC0075D9037582FB758307ECFEE0F5D9A31E4A
:104FCC00EE70F875E1957904120C71790180027913
:104FDC00000254D874F61217029061D0E0F8748075
:104FEC00C398FCEA2482F582EB3400F583E060047C
:104FFC00780480027800E8240AF8ECC39850030285
:10500C0050D37521089007FB7401F07CBF7D0778A5
:10501C00FC79077E058C828D83E088828983F08CF5
:10502C00828D83A3AC82AD8388828983A3A882A955
:10503C00831EEE70E0EA2480FCEB3400FD8A828B48
:10504C0083A3A3A3A3A3E0FEA3E0FF8C828D83E044
:10505C002EF0A3E03FF08C828D83E088828983F070
:10506C008C828D83A3AC82AD8388828983A308A9AB
:10507C00838C828D83E088828983F0EA2482F58296
:10508C00EB3400F583E0601A7521FB75220778215B
:10509C001219157C087903120B0F74021216A875DD
:1050AC00210C74012521F5D975D9037582FB758303
:1050BC0007AE21E0F5D9A31EEE70F875E1957904E1
:1050CC00120C717901800279000254D874F712170E
:1050DC0002EAFEEBFF9061D0E060030251BF75D98C
:1050EC001875D90375D903EEF8EFF9E82408FAE935
:1050FC003400FBE8249BF582E93400F583E0F5D914
:10510C0088828983A3A882A983EA687002EB6970FC
:10511C00E2EE24A3F582EF3400F583E0F5D9EE241A
:10512C00A4F582EF3400F583E0F5D9EE2493F582F3
:10513C00EF3400F583E5822408F8E5833400F9E0C8
:10514C00F5D9A3E865827003E9658370F2EE2487D4
:10515C00F582EF3400F583E5822404F8E58334000E
:10516C00F9E0F5D9A3E865827003E9658370F275FF
:10517C00E1957908EE2493FAEF3400FB120AC77913
:10518C0004EE2487FAEF3400FB120AC77904120CE0
:10519C0071EE246FF582EF3400F583E0F8A3E0F9AB
:1051AC00EE2471F582EF3400F583E8F0A3E9F07991
:1051BC00018002790002532874F6121702EAFEEB02
:1051CC00FF9007FB7406F07521FB752207782112FE
:1051DC0019157C017903120B0F74021216A875D9DC
:1051EC000675D9037582FB758307E0F5D9A3E582B3
:1051FC0064007004E583640870F075E1959004799F
:10520C00E06408701EEE246FF582EF3400F583E045
:10521C00F8A3E0F9EE2471F582EF3400F583E8F0A1
:10522C00A3E9F079010254D874F6121702EAFEEBE6
:10523C00FF9061D0E0705E9007FB740AF07521FB63
:10524C0075220778211219157C017903120B0F7442
:10525C00021216A875D90675D9037582FB758307DA
:10526C00E0F5D9A3E58264007004E583640870F06E
:10527C0075E195EE246FF582EF3400F583E0F8A329
:10528C00E0F9EE2471F582EF3400F583E8F0A3E940
:10529C00F07901800279000254D874F6121702EAF0
:1052AC00FEEBFF9061D0E0706678019007FB740B09
:1052BC00F0900479E0640770197521FB752207786A
:1052CC00211219157C017903120B0F74021216A806
:1052DC007805740128F5D975D9037582FB75830798
:1052EC00E8FAE0F5D9A31AEA70F875E195EE246FA7
:1052FC00F582EF3400F583E0F8A3E0F9EE2471F5C4
:10530C0082EF3400F583E8F0A3E9F07901800279AB
:10531C00000254D8F0EEA2E092AF79007F010217A0
:10532C00D474F6121702EAFEEBFF9061D0E0F87429
:10533C0080C398FAEE2482F582EF3400F583E060A6
:10534C0004780480027800E8240BF8EAC398500330
:10535C000254037D099007FB7408F0EE24E4F8EF87
:10536C003400F97AFC7B077C0888828983E08A8286
:10537C008B83F088828983A3A882A9838A828B83FA
:10538C00A3AA82AB831CEC70E0EE2482F582EF348E
:10539C0000F583E0601D7521FB7522077821121939
:1053AC00157C097903EEFAEFFB120B0F740212163F
:1053BC00A87D0D74012DF5D975D9037582FB758304
:1053CC00078D21E0F5D9A31521E52170F675E1953E
:1053DC007904120C71EE246FF582EF3400F583E042
:1053EC00F8A3E0F9EE2471F582EF3400F583E8F0D0
:1053FC00A3E9F07901800279000254D874F61217EF
:10540C0002EAFEEBFF9061D0E0F87480C398FAEEEC
:10541C002482F582EF3400F583E060047804800286
:10542C007800E82408F8EAC39850030254D67806AA
:10543C009007FB740CF0900496E09007FCF090043D
:10544C0097E09007FDF0900498E09007FEF0900430
:10545C0099E09007FFF090049AE0900800F0EE2499
:10546C0082F582EF3400F583E0601B7521FB752219
:10547C000778211219157C067903EEFA120B0F74BA
:10548C00021216A8780A740128F5D975D903758209
:10549C00FB7583078821E0F5D9A31521E52170F66A
:1054AC0075E1957904120C71EE246FF582EF3400DE
:1054BC00F583E0F8A3E0F9EE2471F582EF3400F502
:1054CC0083E8F0A3E9F07901800279007F020217EA
:1054DC00D474F6121702EAFEEBFF9061D0E0F87478
:1054EC0080C398FAEE2482F582EF3400F583E060F5
:1054FC0004780480027800E82404F8EAC398500386
:10550C000255B778029007FBE8F0EE24F6F582EF2F
:10551C003400F583E09007FCF0EE2482F582EF3442
:10552C0000F583E0601B7521FB75220778211219A9
:10553C00157C027903EEFA120B0F74021216A8787E
:10554C0006740128F5D975D9037582FB7583078814
:10555C0021E0F5D9A31521E52170F675E195EE242E
:10556C0073F582EF3400F583E4F0EE247FF582EFDF
:10557C003400F583E4F0EE241DF582EF3400F5835E
:10558C00E4F0A3F07904120C71EE240DF582EF34E3
:10559C0000F583E0F8A3E0F9EE2471F582EF340016
:1055AC00F583E8F0A3E9F07901800279000254D880
:1055BC0074F61217029061D0E0F87480C398FCEA7C
:1055CC002482F582EB3400F583E0600478048002D9
:1055DC007800E82404F8ECC398405B79029007FB50
:1055EC007407F0EA24F7F582EB3400F583E09007BA
:1055FC00FCF0EA2482F582EB3400F583E060187548
:10560C0021FB75220778211219157C0209120B0F48
:10561C0074021216A87906740129F5D975D9037587
:10562C0082FB758307E9F8E0F5D9A318E870F875E3
:10563C00E1957901800279000254D874F5121702B1
:10564C00E9FCA2AFE433F523C2AF7D0080010DEA83
:10565C00246EF582EB3400F583E0F8EDC398501A14
:10566C008D21EA2521F8EB3400F9E8246AF582E96A
:10567C003400F583E06C70D68024EA246EF8EB34A9
:10568C0000F9E0FEEA2EFAEB3400FBEA246AF5821C
:10569C00EB3400F583ECF088828983E004F0E52399
:1056AC00A2E092AF7F030217D474F6121702A2AFD6
:1056BC00E433FDC2AFEA246EF582EB3400F583E0EF
:1056CC0014F07C0060368C21EA2521F8EB3400F9CB
:1056DC00E8246BF582E93400F583E0C0E0E8246A45
:1056EC00F582E93400F583D0E0F00CEA246EF58203
:1056FC00EB3400F583E0F8ECC39840CAEA246DF56E
:10570C0082EB3400F58374FFF0EA2469F582EB3404
:10571C0000F583E4F0EDA2E092AF0254D8C082C051
:10572C0083E5A8F8C2AFEA246AF582EB3400F5836E
:10573C00E9F0EA2469F582EB3400F583E4F0E8A2A1
:10574C00E7A2E792AF02496574F3121702EAFEEB87
:10575C00FFECFAEDFB8A828B83A3A3A3A3E0541F77
:10576C00F0EE2436F582EF3400F583E4F0F523EE09
:10577C00FCEFFD8A828B83E0C0E0EC245DF582EDCA
:10578C003400F583D0E0F0752400E5233333335433
:10579C00F8F5258A828B83E0F521752200E52478C3
:1057AC0021121660E521A2E0502FEE2436F8EF34DA
:1057BC0000F988828983E0F521EE2521F521EF346B
:1057CC0000F522E5212438F582E5223400F583E545
:1057DC0025F088828983E004F005240525E524C39F
:1057EC00940840AF05238A828B83A3AA82AB838C57
:1057FC00828D83A3AC82AD83E523C3940550030251
:10580C00577F7F050217D474F71217029004A5E096
:10581C0064037003025AF97C0078A57904888289A4
:10582C0083A3A3A3A3A3A3E06003025AE7ECF87538
:10583C00F005A4C8AAF02AF974A928FA740439FB53
:10584C008A828B83A3A37401F08A828B83A3A3A384
:10585C00E4F0EC8A828B83A3A3A3A3F0EA2462F581
:10586C0082EB3400F5837401F0EA2467F582EB34A3
:10587C0000F5837401F08A828B83A3A3A3A3A3E412
:10588C00F0A3F08A828B83A3A3A3A3A3A3A3F0A367
:10589C00F0EA240FF582EB3400F5837401F0EA246E
:1058AC0035F582EB3400F583E4F0EA2418F582EB4D
:1058BC003400F583E4F0A3F0A3F0A3F0EA241CF584
:1058CC0082EB3400F583E4F0EA241DF582EB34001E
:1058DC00F583E4F0A3F0EA247FF582EB3400F58342
:1058EC00E4F0EA2473F582EB3400F583E4F0EA2467
:1058FC0068F582EB3400F5837480F0EA2469F58254
:10590C00EB3400F583E4F0EA246EF582EB3400F519
:10591C0083E4F0EA24ECF582EB3400F583E4F0EA5E
:10592C0024EDF582EB3400F583E4F0EA24EEF58205
:10593C00EB3400F583E4F0EA24EFF582EB3400F568
:10594C0083E4F0EA24F0F582EB3400F583E4F0A371
:10595C00F0EA24F2F582EB3400F583E4F0A3F0EAEC
:10596C0024F5F582EB3400F583E4F0EA2482F58229
:10597C00EB3400F583E4F0EA24D2F582EB3400F545
:10598C0083E4F0EA24D3F582EB3400F583E4F0EA07
:10599C0024D4F582EB3400F583E4F0A3F0A3F0A358
:1059AC00F0EA24D8F582EB3400F583E4F0A3F0A3FD
:1059BC00F0A3F0EA24DEF582EB3400F583E4F0EAA0
:1059CC0024E0F582EB3400F583E4F0EA24DCF58284
:1059DC00EB3400F583E4F0EA24E1F582EB3400F5D6
:1059EC0083E4F0EA24E2F582EB3400F583E4F0EA98
:1059FC0024F8F582EB3400F583E4F0A3F0EA24FA02
:105A0C00F582EB3400F583E4F0A3F0EA24FCF58294
:105A1C00EB3400F583E4F0A3F0EA24FEF582EB34DA
:105A2C0000F583E4F0A3F0EAF8EBF9E82404FCE9D0
:105A3C003400FDE8246AF582E93400F58374FFF044
:105A4C0088828983A3A882A983EC687002ED6970AF
:105A5C00E2EAF8EBF97CBF7D078C828D83E0C0E035
:105A6C00E8245DF582E93400F583D0E0F08C828D7A
:105A7C0083A3AC82AD8388828983A3A882A983EC9B
:105A8C0064C47003ED640770D0EAF8EBF97C8C7D8C
:105A9C00048C828D83A3E0C0E0E824E4F582E93431
:105AAC0000F583D0E0F08C828D83A3AC82AD83882B
:105ABC00828983A3A882A983EC64947003ED6404A7
:105ACC0070CF9004A5E004F0640170258A828B836A
:105ADC00A3A3A3A3E09004A7F080160CE82405F878
:105AEC00E93401F9ECC3940350030258297A007B82
:105AFC0000025328C082C0838A828B83A3A3A3E0B5
:105B0C00600F8A828B83A3A3A3E4F09004A6E01415
:105B1C00F09004A5E014F070069004A774FFF08ACE
:105B2C00828B83A3A3E4F09007C4E0700D9004A6CD
